{
  "address": "0xf1D413B4cF0f63cF89CaE761456F6151a72F096B",
  "abi": [
    {
      "inputs": [],
      "stateMutability": "nonpayable",
      "type": "constructor"
    },
    {
      "anonymous": false,
      "inputs": [
        {
          "indexed": false,
          "internalType": "bytes32",
          "name": "taskID",
          "type": "bytes32"
        }
      ],
      "name": "PaymentCompleted",
      "type": "event"
    },
    {
      "anonymous": false,
      "inputs": [
        {
          "indexed": false,
          "internalType": "bytes32",
          "name": "taskID",
          "type": "bytes32"
        },
        {
          "indexed": false,
          "internalType": "uint256",
          "name": "payment",
          "type": "uint256"
        }
      ],
      "name": "PaymentPending",
      "type": "event"
    },
    {
      "anonymous": false,
      "inputs": [
        {
          "indexed": false,
          "internalType": "address",
          "name": "provider",
          "type": "address"
        },
        {
          "indexed": false,
          "internalType": "bytes32",
          "name": "taskID",
          "type": "bytes32"
        }
      ],
      "name": "ProviderDownvoted",
      "type": "event"
    },
    {
      "anonymous": false,
      "inputs": [
        {
          "indexed": false,
          "internalType": "address",
          "name": "provider",
          "type": "address"
        },
        {
          "indexed": false,
          "internalType": "bytes32",
          "name": "taskID",
          "type": "bytes32"
        }
      ],
      "name": "ProviderUpvoted",
      "type": "event"
    },
    {
      "anonymous": false,
      "inputs": [
        {
          "indexed": false,
          "internalType": "bytes32",
          "name": "taskID",
          "type": "bytes32"
        }
      ],
      "name": "TaskActivated",
      "type": "event"
    },
    {
      "anonymous": false,
      "inputs": [
        {
          "indexed": false,
          "internalType": "bytes32",
          "name": "taskID",
          "type": "bytes32"
        }
      ],
      "name": "TaskCancelled",
      "type": "event"
    },
    {
      "anonymous": false,
      "inputs": [
        {
          "indexed": false,
          "internalType": "bytes32",
          "name": "taskID",
          "type": "bytes32"
        }
      ],
      "name": "TaskCompletedSuccessfully",
      "type": "event"
    },
    {
      "anonymous": false,
      "inputs": [
        {
          "indexed": false,
          "internalType": "bytes32",
          "name": "taskID",
          "type": "bytes32"
        }
      ],
      "name": "TaskCompletedUnsuccessfully",
      "type": "event"
    },
    {
      "anonymous": false,
      "inputs": [
        {
          "indexed": false,
          "internalType": "bytes32",
          "name": "taskID",
          "type": "bytes32"
        }
      ],
      "name": "TaskCreated",
      "type": "event"
    },
    {
      "anonymous": false,
      "inputs": [
        {
          "indexed": false,
          "internalType": "bytes32",
          "name": "taskID",
          "type": "bytes32"
        }
      ],
      "name": "TaskDeleted",
      "type": "event"
    },
    {
      "anonymous": false,
      "inputs": [
        {
          "indexed": false,
          "internalType": "bytes32",
          "name": "taskID",
          "type": "bytes32"
        }
      ],
      "name": "TaskInvalidated",
      "type": "event"
    },
    {
      "anonymous": false,
      "inputs": [
        {
          "indexed": false,
          "internalType": "bytes32",
          "name": "taskID",
          "type": "bytes32"
        }
      ],
      "name": "TaskReceivedResultsSuccessfully",
      "type": "event"
    },
    {
      "anonymous": false,
      "inputs": [
        {
          "indexed": false,
          "internalType": "bytes32",
          "name": "taskID",
          "type": "bytes32"
        }
      ],
      "name": "TaskReceivedResultsUnsuccessfully",
      "type": "event"
    },
    {
      "anonymous": false,
      "inputs": [
        {
          "indexed": false,
          "internalType": "address",
          "name": "client",
          "type": "address"
        },
        {
          "indexed": false,
          "internalType": "uint256",
          "name": "amount",
          "type": "uint256"
        }
      ],
      "name": "TransferMadeToClient",
      "type": "event"
    },
    {
      "anonymous": false,
      "inputs": [
        {
          "indexed": false,
          "internalType": "address",
          "name": "provider",
          "type": "address"
        },
        {
          "indexed": false,
          "internalType": "uint256",
          "name": "amount",
          "type": "uint256"
        }
      ],
      "name": "TransferMadeToProvider",
      "type": "event"
    },
    {
      "stateMutability": "payable",
      "type": "fallback"
    },
    {
      "inputs": [
        {
          "internalType": "bytes32",
          "name": "_taskID",
          "type": "bytes32"
        }
      ],
      "name": "activateTask",
      "outputs": [],
      "stateMutability": "payable",
      "type": "function"
    },
    {
      "inputs": [
        {
          "internalType": "bytes32",
          "name": "_taskID",
          "type": "bytes32"
        }
      ],
      "name": "cancelTask",
      "outputs": [],
      "stateMutability": "nonpayable",
      "type": "function"
    },
    {
      "inputs": [
        {
          "internalType": "bytes32",
          "name": "_taskID",
          "type": "bytes32"
        }
      ],
      "name": "completePayment",
      "outputs": [],
      "stateMutability": "payable",
      "type": "function"
    },
    {
      "inputs": [
        {
          "internalType": "bytes32",
          "name": "_taskID",
          "type": "bytes32"
        },
        {
          "internalType": "string",
          "name": "ver",
          "type": "string"
        },
        {
          "internalType": "uint256",
          "name": "_duration",
          "type": "uint256"
        },
        {
          "internalType": "uint256",
          "name": "_timeReceivedProvider",
          "type": "uint256"
        }
      ],
      "name": "completeTask",
      "outputs": [],
      "stateMutability": "nonpayable",
      "type": "function"
    },
    {
      "inputs": [
        {
          "internalType": "bytes32",
          "name": "_taskID",
          "type": "bytes32"
        },
        {
          "internalType": "address",
          "name": "_client",
          "type": "address"
        },
        {
          "internalType": "address",
          "name": "_provider",
          "type": "address"
        },
        {
          "internalType": "uint256",
          "name": "_price",
          "type": "uint256"
        },
        {
          "internalType": "uint256",
          "name": "_deadline",
          "type": "uint256"
        },
        {
          "internalType": "bytes32",
          "name": "_clientVerification",
          "type": "bytes32"
        },
        {
          "internalType": "string",
          "name": "_code",
          "type": "string"
        }
      ],
      "name": "createTask",
      "outputs": [],
      "stateMutability": "payable",
      "type": "function"
    },
    {
      "inputs": [
        {
          "internalType": "bytes32",
          "name": "_taskID",
          "type": "bytes32"
        }
      ],
      "name": "deleteTask",
      "outputs": [],
      "stateMutability": "nonpayable",
      "type": "function"
    },
    {
      "inputs": [],
      "name": "deleteTasks",
      "outputs": [],
      "stateMutability": "nonpayable",
      "type": "function"
    },
    {
      "inputs": [
        {
          "internalType": "bytes32",
          "name": "_taskID",
          "type": "bytes32"
        }
      ],
      "name": "getActivationTime",
      "outputs": [
        {
          "internalType": "uint256",
          "name": "",
          "type": "uint256"
        }
      ],
      "stateMutability": "view",
      "type": "function"
    },
    {
      "inputs": [],
      "name": "getActiveTasks",
      "outputs": [
        {
          "internalType": "uint256",
          "name": "",
          "type": "uint256"
        }
      ],
      "stateMutability": "view",
      "type": "function"
    },
    {
      "inputs": [],
      "name": "getAuctionAddress",
      "outputs": [
        {
          "internalType": "address",
          "name": "",
          "type": "address"
        }
      ],
      "stateMutability": "view",
      "type": "function"
    },
    {
      "inputs": [
        {
          "internalType": "bytes32",
          "name": "_taskID",
          "type": "bytes32"
        }
      ],
      "name": "getCode",
      "outputs": [
        {
          "internalType": "string",
          "name": "",
          "type": "string"
        }
      ],
      "stateMutability": "view",
      "type": "function"
    },
    {
      "inputs": [
        {
          "internalType": "bytes32",
          "name": "_taskID",
          "type": "bytes32"
        }
      ],
      "name": "getLastUpdateTimestamp",
      "outputs": [
        {
          "internalType": "uint256",
          "name": "",
          "type": "uint256"
        }
      ],
      "stateMutability": "view",
      "type": "function"
    },
    {
      "inputs": [],
      "name": "getOwner",
      "outputs": [
        {
          "internalType": "address",
          "name": "",
          "type": "address"
        }
      ],
      "stateMutability": "view",
      "type": "function"
    },
    {
      "inputs": [
        {
          "internalType": "bytes32",
          "name": "_taskID",
          "type": "bytes32"
        }
      ],
      "name": "getPaymentState",
      "outputs": [
        {
          "internalType": "string",
          "name": "",
          "type": "string"
        }
      ],
      "stateMutability": "view",
      "type": "function"
    },
    {
      "inputs": [
        {
          "internalType": "address",
          "name": "provider",
          "type": "address"
        }
      ],
      "name": "getPerformance",
      "outputs": [
        {
          "components": [
            {
              "internalType": "uint256",
              "name": "upVotes",
              "type": "uint256"
            },
            {
              "internalType": "uint256",
              "name": "downVotes",
              "type": "uint256"
            }
          ],
          "internalType": "struct TasksManager.providerRating",
          "name": "",
          "type": "tuple"
        }
      ],
      "stateMutability": "view",
      "type": "function"
    },
    {
      "inputs": [
        {
          "internalType": "bytes32",
          "name": "_taskID",
          "type": "bytes32"
        }
      ],
      "name": "getResults",
      "outputs": [
        {
          "internalType": "string",
          "name": "",
          "type": "string"
        }
      ],
      "stateMutability": "view",
      "type": "function"
    },
    {
      "inputs": [
        {
          "internalType": "bytes32",
          "name": "_taskID",
          "type": "bytes32"
        }
      ],
      "name": "getTask",
      "outputs": [
        {
          "components": [
            {
              "internalType": "address payable",
              "name": "client",
              "type": "address"
            },
            {
              "internalType": "address payable",
              "name": "provider",
              "type": "address"
            },
            {
              "internalType": "uint256",
              "name": "providerCollateral",
              "type": "uint256"
            },
            {
              "internalType": "uint256",
              "name": "clientCollateral",
              "type": "uint256"
            },
            {
              "internalType": "uint256",
              "name": "deadline",
              "type": "uint256"
            },
            {
              "internalType": "uint256",
              "name": "price",
              "type": "uint256"
            },
            {
              "internalType": "uint256",
              "name": "duration",
              "type": "uint256"
            },
            {
              "internalType": "uint256",
              "name": "cost",
              "type": "uint256"
            },
            {
              "internalType": "uint256",
              "name": "activationTime",
              "type": "uint256"
            },
            {
              "internalType": "uint256",
              "name": "timeResultProvided",
              "type": "uint256"
            },
            {
              "internalType": "uint256",
              "name": "timeResultReceived",
              "type": "uint256"
            },
            {
              "internalType": "string",
              "name": "code",
              "type": "string"
            },
            {
              "internalType": "string",
              "name": "results",
              "type": "string"
            },
            {
              "internalType": "bytes32",
              "name": "clientVerification",
              "type": "bytes32"
            },
            {
              "internalType": "uint256",
              "name": "lastUpdateTimestamp",
              "type": "uint256"
            },
            {
              "internalType": "enum TasksManager.TaskState",
              "name": "taskState",
              "type": "uint8"
            },
            {
              "internalType": "enum TasksManager.PaymentState",
              "name": "paymentState",
              "type": "uint8"
            }
          ],
          "internalType": "struct TasksManager.Task",
          "name": "",
          "type": "tuple"
        }
      ],
      "stateMutability": "view",
      "type": "function"
    },
    {
      "inputs": [
        {
          "internalType": "bytes32",
          "name": "_taskID",
          "type": "bytes32"
        }
      ],
      "name": "getTaskState",
      "outputs": [
        {
          "internalType": "string",
          "name": "",
          "type": "string"
        }
      ],
      "stateMutability": "view",
      "type": "function"
    },
    {
      "inputs": [
        {
          "internalType": "bytes32",
          "name": "_taskID",
          "type": "bytes32"
        }
      ],
      "name": "invalidateTask",
      "outputs": [],
      "stateMutability": "nonpayable",
      "type": "function"
    },
    {
      "inputs": [
        {
          "internalType": "bytes32",
          "name": "_taskID",
          "type": "bytes32"
        }
      ],
      "name": "isRegistered",
      "outputs": [
        {
          "internalType": "bool",
          "name": "",
          "type": "bool"
        }
      ],
      "stateMutability": "view",
      "type": "function"
    },
    {
      "inputs": [
        {
          "internalType": "bytes32",
          "name": "_taskID",
          "type": "bytes32"
        },
        {
          "internalType": "string",
          "name": "_results",
          "type": "string"
        }
      ],
      "name": "sendResults",
      "outputs": [],
      "stateMutability": "nonpayable",
      "type": "function"
    },
    {
      "inputs": [
        {
          "internalType": "address",
          "name": "_auctionAddress",
          "type": "address"
        }
      ],
      "name": "setAuctionsManager",
      "outputs": [],
      "stateMutability": "nonpayable",
      "type": "function"
    },
    {
      "stateMutability": "payable",
      "type": "receive"
    }
  ],
  "transactionHash": "0xcb1a6c85be3ef270e59ba961fb917dd7b8d4f7f3d47eab1b812d65abe34c2bf0",
  "args": [],
  "numDeployments": 2,
  "solcInputHash": "071df84c2457711fdaaab25ca00c4277",
  "bytecode": "0x60a060405234801561001057600080fd5b503373ffffffffffffffffffffffffffffffffffffffff1660808173ffffffffffffffffffffffffffffffffffffffff1660601b8152505060805160601c6159b062000091600039600081816125680152818161271b01528181612c71015281816132f30152818161349e0152818161372c0152613bec01526159b06000f3fe6080604052600436106101395760003560e01c80638693944d116100ab578063980072551161006f5780639800725514610479578063ab210cc8146104a2578063d75ff466146104df578063e64f15a2146104f6578063e8fe6b661461051f578063ee8ca3b51461055c57610179565b80638693944d146103ae578063893d20e8146103eb5780638b9ca885146104165780638fb151681461044157806392b833201461045d57610179565b80634b017c7a116100fd5780634b017c7a1461028e578063513a6698146102b757806354706b5a146102e05780636127f2461461030957806364f9fa801461033457806370ad19761461037157610179565b806315a290351461017e5780631ecc9aaf146101bb57806327258b22146101f857806346475c4c1461023557806347ca8a8b1461027257610179565b36610179576040517f08c379a00000000000000000000000000000000000000000000000000000000081526004016101709061468c565b60405180910390fd5b600080fd5b34801561018a57600080fd5b506101a560048036038101906101a091906146f6565b610585565b6040516101b29190614a58565b60405180910390f35b3480156101c757600080fd5b506101e260048036038101906101dd9190614ab8565b610867565b6040516101ef9190614b14565b60405180910390f35b34801561020457600080fd5b5061021f600480360381019061021a91906146f6565b6108d4565b60405161022c9190614b4a565b60405180910390f35b34801561024157600080fd5b5061025c600480360381019061025791906146f6565b610943565b6040516102699190614b9e565b60405180910390f35b61028c600480360381019061028791906146f6565b610bad565b005b34801561029a57600080fd5b506102b560048036038101906102b09190614cf5565b61102b565b005b3480156102c357600080fd5b506102de60048036038101906102d99190614d7d565b611c66565b005b3480156102ec57600080fd5b50610307600480360381019061030291906146f6565b6121c9565b005b34801561031557600080fd5b5061031e612564565b60405161032b9190614e0f565b60405180910390f35b34801561034057600080fd5b5061035b600480360381019061035691906146f6565b6125ff565b6040516103689190614e0f565b60405180910390f35b34801561037d57600080fd5b50610398600480360381019061039391906146f6565b61261f565b6040516103a59190614e0f565b60405180910390f35b3480156103ba57600080fd5b506103d560048036038101906103d091906146f6565b61263f565b6040516103e29190614b9e565b60405180910390f35b3480156103f757600080fd5b50610400612c6d565b60405161040d9190614e39565b60405180910390f35b34801561042257600080fd5b5061042b612c95565b6040516104389190614e39565b60405180910390f35b61045b60048036038101906104569190614e54565b612cbe565b005b610477600480360381019061047291906146f6565b613050565b005b34801561048557600080fd5b506104a0600480360381019061049b9190614ab8565b6132f1565b005b3480156104ae57600080fd5b506104c960048036038101906104c491906146f6565b6133c2565b6040516104d69190614b9e565b60405180910390f35b3480156104eb57600080fd5b506104f461372a565b005b34801561050257600080fd5b5061051d600480360381019061051891906146f6565b613bea565b005b34801561052b57600080fd5b50610546600480360381019061054191906146f6565b613ec9565b6040516105539190614b9e565b60405180910390f35b34801561056857600080fd5b50610583600480360381019061057e91906146f6565b613f71565b005b61058d61445b565b60016000838152602001908152602001600020604051806102200160405290816000820160009054906101000a900473ffffffffffffffffffffffffffffffffffffffff1673ffffffffffffffffffffffffffffffffffffffff1673ffffffffffffffffffffffffffffffffffffffff1681526020016001820160009054906101000a900473ffffffffffffffffffffffffffffffffffffffff1673ffffffffffffffffffffffffffffffffffffffff1673ffffffffffffffffffffffffffffffffffffffff1681526020016002820154815260200160038201548152602001600482015481526020016005820154815260200160068201548152602001600782015481526020016008820154815260200160098201548152602001600a8201548152602001600b820180546106c290614f41565b80601f01602080910402602001604051908101604052809291908181526020018280546106ee90614f41565b801561073b5780601f106107105761010080835404028352916020019161073b565b820191906000526020600020905b81548152906001019060200180831161071e57829003601f168201915b50505050508152602001600c8201805461075490614f41565b80601f016020809104026020016040519081016040528092919081815260200182805461078090614f41565b80156107cd5780601f106107a2576101008083540402835291602001916107cd565b820191906000526020600020905b8154815290600101906020018083116107b057829003601f168201915b50505050508152602001600d8201548152602001600e8201548152602001600f820160009054906101000a900460ff16600781111561080f5761080e614825565b5b600781111561082157610820614825565b5b8152602001600f820160019054906101000a900460ff16600281111561084a57610849614825565b5b600281111561085c5761085b614825565b5b815250509050919050565b61086f614532565b600360008373ffffffffffffffffffffffffffffffffffffffff1673ffffffffffffffffffffffffffffffffffffffff168152602001908152602001600020604051806040016040529081600082015481526020016001820154815250509050919050565b60008073ffffffffffffffffffffffffffffffffffffffff166001600084815260200190815260200160002060000160009054906101000a900473ffffffffffffffffffffffffffffffffffffffff1673ffffffffffffffffffffffffffffffffffffffff1614159050919050565b6060816001600082815260200190815260200160002060000160009054906101000a900473ffffffffffffffffffffffffffffffffffffffff1673ffffffffffffffffffffffffffffffffffffffff163373ffffffffffffffffffffffffffffffffffffffff16146109ea576040517f08c379a00000000000000000000000000000000000000000000000000000000081526004016109e190614fe5565b60405180910390fd5b826006806007811115610a00576109ff614825565b5b60016000848152602001908152602001600020600f0160009054906101000a900460ff166007811115610a3657610a35614825565b5b14610a76576040517f08c379a0000000000000000000000000000000000000000000000000000000008152600401610a6d90615051565b60405180910390fd5b846002806002811115610a8c57610a8b614825565b5b60016000848152602001908152602001600020600f0160019054906101000a900460ff166002811115610ac257610ac1614825565b5b14610b02576040517f08c379a0000000000000000000000000000000000000000000000000000000008152600401610af9906150bd565b60405180910390fd5b60016000888152602001908152602001600020600c018054610b2390614f41565b80601f0160208091040260200160405190810160405280929190818152602001828054610b4f90614f41565b8015610b9c5780601f10610b7157610100808354040283529160200191610b9c565b820191906000526020600020905b815481529060010190602001808311610b7f57829003601f168201915b505050505095505050505050919050565b806001600082815260200190815260200160002060000160009054906101000a900473ffffffffffffffffffffffffffffffffffffffff1673ffffffffffffffffffffffffffffffffffffffff163373ffffffffffffffffffffffffffffffffffffffff1614610c52576040517f08c379a0000000000000000000000000000000000000000000000000000000008152600401610c4990614fe5565b60405180910390fd5b816006806007811115610c6857610c67614825565b5b60016000848152602001908152602001600020600f0160009054906101000a900460ff166007811115610c9e57610c9d614825565b5b14610cde576040517f08c379a0000000000000000000000000000000000000000000000000000000008152600401610cd590615051565b60405180910390fd5b836001806002811115610cf457610cf3614825565b5b60016000848152602001908152602001600020600f0160019054906101000a900460ff166002811115610d2a57610d29614825565b5b14610d6a576040517f08c379a0000000000000000000000000000000000000000000000000000000008152600401610d61906150bd565b60405180910390fd5b60016000878152602001908152602001600020600301546001600088815260200190815260200160002060070154610da2919061510c565b803414610de4576040517f08c379a0000000000000000000000000000000000000000000000000000000008152600401610ddb9061518c565b60405180910390fd5b60016002811115610df857610df7614825565b5b60016000898152602001908152602001600020600f0160019054906101000a900460ff166002811115610e2e57610e2d614825565b5b14610e6e576040517f08c379a0000000000000000000000000000000000000000000000000000000008152600401610e65906151f8565b60405180910390fd5b6001600088815260200190815260200160002060010160009054906101000a900473ffffffffffffffffffffffffffffffffffffffff1673ffffffffffffffffffffffffffffffffffffffff166108fc349081150290604051600060405180830381858888f19350505050158015610eea573d6000803e3d6000fd5b507f4195fd9cd5f571cf9d14b2376c60201465a986f4a0469cebf0f0ee1d3e2022ab6001600089815260200190815260200160002060010160009054906101000a900473ffffffffffffffffffffffffffffffffffffffff16600160008a815260200190815260200160002060030154600160008b815260200190815260200160002060070154610f7b919061510c565b604051610f89929190615277565b60405180910390a1600260016000898152602001908152602001600020600f0160016101000a81548160ff02191690836002811115610fcb57610fca614825565b5b02179055504260016000898152602001908152602001600020600e01819055507ff2baea2668e36a27a898b8c745decb4439ff61ae04d545dcc6954b84bd3e3c428760405161101a91906152af565b60405180910390a150505050505050565b816001600082815260200190815260200160002060010160009054906101000a900473ffffffffffffffffffffffffffffffffffffffff1673ffffffffffffffffffffffffffffffffffffffff163373ffffffffffffffffffffffffffffffffffffffff16146110d0576040517f08c379a00000000000000000000000000000000000000000000000000000000081526004016110c79061533c565b60405180910390fd5b8260038060078111156110e6576110e5614825565b5b60016000848152602001908152602001600020600f0160009054906101000a900460ff16600781111561111c5761111b614825565b5b1461115c576040517f08c379a000000000000000000000000000000000000000000000000000000000815260040161115390615051565b60405180910390fd5b84600080600281111561117257611171614825565b5b60016000848152602001908152602001600020600f0160019054906101000a900460ff1660028111156111a8576111a7614825565b5b146111e8576040517f08c379a00000000000000000000000000000000000000000000000000000000081526004016111df906150bd565b60405180910390fd5b4260016000898152602001908152602001600020600a01819055508560016000898152602001908152602001600020600c01908051906020019061122d92919061454c565b5061123787614250565b156119725760016000888152602001908152602001600020600301546001600089815260200190815260200160002060070154116115b9576001600088815260200190815260200160002060010160009054906101000a900473ffffffffffffffffffffffffffffffffffffffff1673ffffffffffffffffffffffffffffffffffffffff166108fc600160008a815260200190815260200160002060020154600160008b8152602001908152602001600020600701546112f7919061535c565b9081150290604051600060405180830381858888f19350505050158015611322573d6000803e3d6000fd5b507f4195fd9cd5f571cf9d14b2376c60201465a986f4a0469cebf0f0ee1d3e2022ab6001600089815260200190815260200160002060010160009054906101000a900473ffffffffffffffffffffffffffffffffffffffff16600160008a815260200190815260200160002060020154600160008b8152602001908152602001600020600701546113b3919061535c565b6040516113c1929190615277565b60405180910390a16001600088815260200190815260200160002060000160009054906101000a900473ffffffffffffffffffffffffffffffffffffffff1673ffffffffffffffffffffffffffffffffffffffff166108fc600160008a815260200190815260200160002060030154600160008b815260200190815260200160002060070154611451919061510c565b9081150290604051600060405180830381858888f1935050505015801561147c573d6000803e3d6000fd5b507fb56ab0c8ca3c4a2f3256c9dab1834145295ed481d85fd1afde56ff8c7298c3ec6001600089815260200190815260200160002060000160009054906101000a900473ffffffffffffffffffffffffffffffffffffffff16600160008a815260200190815260200160002060030154600160008b81526020019081526020016000206007015461150d919061510c565b60405161151b929190615277565b60405180910390a1600260016000898152602001908152602001600020600f0160016101000a81548160ff0219169083600281111561155d5761155c614825565b5b02179055504260016000898152602001908152602001600020600e01819055507ff2baea2668e36a27a898b8c745decb4439ff61ae04d545dcc6954b84bd3e3c42876040516115ac91906152af565b60405180910390a16117dd565b6001600088815260200190815260200160002060010160009054906101000a900473ffffffffffffffffffffffffffffffffffffffff1673ffffffffffffffffffffffffffffffffffffffff166108fc600160008a815260200190815260200160002060020154600160008b815260200190815260200160002060030154611641919061535c565b9081150290604051600060405180830381858888f1935050505015801561166c573d6000803e3d6000fd5b507f4195fd9cd5f571cf9d14b2376c60201465a986f4a0469cebf0f0ee1d3e2022ab6001600089815260200190815260200160002060010160009054906101000a900473ffffffffffffffffffffffffffffffffffffffff16600160008a815260200190815260200160002060020154600160008b8152602001908152602001600020600301546116fd919061535c565b60405161170b929190615277565b60405180910390a16001806000898152602001908152602001600020600f0160016101000a81548160ff0219169083600281111561174c5761174b614825565b5b02179055504260016000898152602001908152602001600020600e01819055507f0e94573b1be2e52f56af2fa73f97395af190b00bf516b0e90356c3619c4cdf7c87600160008a815260200190815260200160002060030154600160008b8152602001908152602001600020600701546117c6919061510c565b6040516117d49291906153b2565b60405180910390a15b600660016000898152602001908152602001600020600f0160006101000a81548160ff0219169083600781111561181757611816614825565b5b02179055504260016000898152602001908152602001600020600e01819055507f97393f84209d4b691fab1bc833d0efe882710cb7867c2724b6991eb74567b05c8760405161186691906152af565b60405180910390a1600160036000600160008b815260200190815260200160002060010160009054906101000a900473ffffffffffffffffffffffffffffffffffffffff1673ffffffffffffffffffffffffffffffffffffffff1673ffffffffffffffffffffffffffffffffffffffff16815260200190815260200160002060000160008282546118f7919061535c565b925050819055507ff79072e0f370bb188b7c4d34ae8a5c9138b891e5df7cfa7ca412b518d30aaf756001600089815260200190815260200160002060010160009054906101000a900473ffffffffffffffffffffffffffffffffffffffff16886040516119659291906153db565b60405180910390a1611c5d565b6001600088815260200190815260200160002060000160009054906101000a900473ffffffffffffffffffffffffffffffffffffffff1673ffffffffffffffffffffffffffffffffffffffff166108fc600160008a815260200190815260200160002060020154600160008b8152602001908152602001600020600301546119fa919061535c565b9081150290604051600060405180830381858888f19350505050158015611a25573d6000803e3d6000fd5b507fb56ab0c8ca3c4a2f3256c9dab1834145295ed481d85fd1afde56ff8c7298c3ec6001600089815260200190815260200160002060000160009054906101000a900473ffffffffffffffffffffffffffffffffffffffff16600160008a815260200190815260200160002060020154600160008b815260200190815260200160002060030154611ab6919061535c565b604051611ac4929190615277565b60405180910390a1600760016000898152602001908152602001600020600f0160006101000a81548160ff02191690836007811115611b0657611b05614825565b5b02179055504260016000898152602001908152602001600020600e01819055507fa09cb3265c52882b0a36102438c66b242bf2e45c2ebdf91b9448afb52438276087604051611b5591906152af565b60405180910390a1600160036000600160008b815260200190815260200160002060010160009054906101000a900473ffffffffffffffffffffffffffffffffffffffff1673ffffffffffffffffffffffffffffffffffffffff1673ffffffffffffffffffffffffffffffffffffffff1681526020019081526020016000206001016000828254611be6919061535c565b925050819055507f3fec1177d25f324e1beb970cd60f8b52ef1e47290a72bdb8f62101720f5e49276001600089815260200190815260200160002060010160009054906101000a900473ffffffffffffffffffffffffffffffffffffffff1688604051611c549291906153db565b60405180910390a15b50505050505050565b836001600082815260200190815260200160002060010160009054906101000a900473ffffffffffffffffffffffffffffffffffffffff1673ffffffffffffffffffffffffffffffffffffffff163373ffffffffffffffffffffffffffffffffffffffff1614611d0b576040517f08c379a0000000000000000000000000000000000000000000000000000000008152600401611d029061533c565b60405180910390fd5b846002806007811115611d2157611d20614825565b5b60016000848152602001908152602001600020600f0160009054906101000a900460ff166007811115611d5757611d56614825565b5b14611d97576040517f08c379a0000000000000000000000000000000000000000000000000000000008152600401611d8e90615051565b60405180910390fd5b836001600089815260200190815260200160002060090181905550846001600089815260200190815260200160002060060181905550611dd687614380565b8015611de85750611de78787614412565b5b15611ed55760016000888152602001908152602001600020600601546001600089815260200190815260200160002060050154611e259190615404565b6001600089815260200190815260200160002060070181905550600360016000898152602001908152602001600020600f0160006101000a81548160ff02191690836007811115611e7957611e78614825565b5b02179055504260016000898152602001908152602001600020600e01819055507f4176d26ab2247b0b92e698330257544613ee9100fad5c65d61aec36a2a877b7d87604051611ec891906152af565b60405180910390a16121c0565b6001600088815260200190815260200160002060000160009054906101000a900473ffffffffffffffffffffffffffffffffffffffff1673ffffffffffffffffffffffffffffffffffffffff166108fc600160008a815260200190815260200160002060020154600160008b815260200190815260200160002060030154611f5d919061535c565b9081150290604051600060405180830381858888f19350505050158015611f88573d6000803e3d6000fd5b507fb56ab0c8ca3c4a2f3256c9dab1834145295ed481d85fd1afde56ff8c7298c3ec6001600089815260200190815260200160002060000160009054906101000a900473ffffffffffffffffffffffffffffffffffffffff16600160008a815260200190815260200160002060020154600160008b815260200190815260200160002060030154612019919061535c565b604051612027929190615277565b60405180910390a1600160036000600160008b815260200190815260200160002060010160009054906101000a900473ffffffffffffffffffffffffffffffffffffffff1673ffffffffffffffffffffffffffffffffffffffff1673ffffffffffffffffffffffffffffffffffffffff16815260200190815260200160002060010160008282546120b8919061535c565b925050819055507f3fec1177d25f324e1beb970cd60f8b52ef1e47290a72bdb8f62101720f5e49276001600089815260200190815260200160002060010160009054906101000a900473ffffffffffffffffffffffffffffffffffffffff16886040516121269291906153db565b60405180910390a1600460016000898152602001908152602001600020600f0160006101000a81548160ff0219169083600781111561216857612167614825565b5b02179055504260016000898152602001908152602001600020600e01819055507f1feb95f113fd9e6280236d043c8da4ca59e052f4783ce6a83f261c1aaa865b17876040516121b791906152af565b60405180910390a15b50505050505050565b806001600082815260200190815260200160002060000160009054906101000a900473ffffffffffffffffffffffffffffffffffffffff1673ffffffffffffffffffffffffffffffffffffffff163373ffffffffffffffffffffffffffffffffffffffff161461226e576040517f08c379a000000000000000000000000000000000000000000000000000000000815260040161226590614fe5565b60405180910390fd5b81600280600781111561228457612283614825565b5b60016000848152602001908152602001600020600f0160009054906101000a900460ff1660078111156122ba576122b9614825565b5b146122fa576040517f08c379a00000000000000000000000000000000000000000000000000000000081526004016122f190615051565b60405180910390fd5b60016000858152602001908152602001600020600401546001600086815260200190815260200160002060080154612332919061535c565b4211612373576040517f08c379a000000000000000000000000000000000000000000000000000000000815260040161236a906154aa565b60405180910390fd5b600560016000868152602001908152602001600020600f0160006101000a81548160ff021916908360078111156123ad576123ac614825565b5b02179055506001600085815260200190815260200160002060000160009054906101000a900473ffffffffffffffffffffffffffffffffffffffff1673ffffffffffffffffffffffffffffffffffffffff166108fc6001600087815260200190815260200160002060020154600160008881526020019081526020016000206003015461243a919061535c565b9081150290604051600060405180830381858888f19350505050158015612465573d6000803e3d6000fd5b504260016000868152602001908152602001600020600e01819055507fb56ab0c8ca3c4a2f3256c9dab1834145295ed481d85fd1afde56ff8c7298c3ec6001600086815260200190815260200160002060000160009054906101000a900473ffffffffffffffffffffffffffffffffffffffff1660016000878152602001908152602001600020600201546001600088815260200190815260200160002060030154612511919061535c565b60405161251f929190615277565b60405180910390a17fa07d0b7132fa6b208a063af8026a29c1fa7ea1f98ffc9682615585318a6b25d68460405161255691906152af565b60405180910390a150505050565b60007f000000000000000000000000000000000000000000000000000000000000000073ffffffffffffffffffffffffffffffffffffffff163373ffffffffffffffffffffffffffffffffffffffff16146125f4576040517f08c379a00000000000000000000000000000000000000000000000000000000081526004016125eb9061553c565b60405180910390fd5b600280549050905090565b600060016000838152602001908152602001600020600e01549050919050565b600060016000838152602001908152602001600020600801549050919050565b6060816001600082815260200190815260200160002060000160009054906101000a900473ffffffffffffffffffffffffffffffffffffffff1673ffffffffffffffffffffffffffffffffffffffff163373ffffffffffffffffffffffffffffffffffffffff16148061271357506001600082815260200190815260200160002060010160009054906101000a900473ffffffffffffffffffffffffffffffffffffffff1673ffffffffffffffffffffffffffffffffffffffff163373ffffffffffffffffffffffffffffffffffffffff16145b8061276957507f000000000000000000000000000000000000000000000000000000000000000073ffffffffffffffffffffffffffffffffffffffff163373ffffffffffffffffffffffffffffffffffffffff16145b6127a8576040517f08c379a000000000000000000000000000000000000000000000000000000000815260040161279f906155ce565b60405180910390fd5b6000604051806020016040528060008152509050600060078111156127d0576127cf614825565b5b60016000868152602001908152602001600020600f0160009054906101000a900460ff16600781111561280657612805614825565b5b1415612849576040518060400160405280600781526020017f43726561746564000000000000000000000000000000000000000000000000008152509050612c63565b6001600781111561285d5761285c614825565b5b60016000868152602001908152602001600020600f0160009054906101000a900460ff16600781111561289357612892614825565b5b14156128d6576040518060400160405280600981526020017f43616e63656c6c656400000000000000000000000000000000000000000000008152509050612c62565b600260078111156128ea576128e9614825565b5b60016000868152602001908152602001600020600f0160009054906101000a900460ff1660078111156129205761291f614825565b5b1415612963576040518060400160405280600681526020017f41637469766500000000000000000000000000000000000000000000000000008152509050612c61565b6003600781111561297757612976614825565b5b60016000868152602001908152602001600020600f0160009054906101000a900460ff1660078111156129ad576129ac614825565b5b14156129f0576040518060400160405280601581526020017f436f6d706c657465645375636365737366756c6c7900000000000000000000008152509050612c60565b60046007811115612a0457612a03614825565b5b60016000868152602001908152602001600020600f0160009054906101000a900460ff166007811115612a3a57612a39614825565b5b1415612a7d576040518060400160405280601781526020017f436f6d706c65746564556e7375636365737366756c6c790000000000000000008152509050612c5f565b60056007811115612a9157612a90614825565b5b60016000868152602001908152602001600020600f0160009054906101000a900460ff166007811115612ac757612ac6614825565b5b1415612b0a576040518060400160405280600781526020017f496e76616c6964000000000000000000000000000000000000000000000000008152509050612c5e565b60066007811115612b1e57612b1d614825565b5b60016000868152602001908152602001600020600f0160009054906101000a900460ff166007811115612b5457612b53614825565b5b1415612b97576040518060400160405280601b81526020017f526573756c747352656365697665645375636365737366756c6c7900000000008152509050612c5d565b600780811115612baa57612ba9614825565b5b60016000868152602001908152602001600020600f0160009054906101000a900460ff166007811115612be057612bdf614825565b5b1415612c23576040518060400160405280601d81526020017f526573756c74735265636569766564556e7375636365737366756c6c790000008152509050612c5c565b6040518060400160405280600581526020017f4572726f7200000000000000000000000000000000000000000000000000000081525090505b5b5b5b5b5b5b5b8092505050919050565b60007f0000000000000000000000000000000000000000000000000000000000000000905090565b60008060009054906101000a900473ffffffffffffffffffffffffffffffffffffffff16905090565b86612cc8816108d4565b15612d08576040517f08c379a0000000000000000000000000000000000000000000000000000000008152600401612cff9061563a565b60405180910390fd5b60008054906101000a900473ffffffffffffffffffffffffffffffffffffffff1673ffffffffffffffffffffffffffffffffffffffff163373ffffffffffffffffffffffffffffffffffffffff1614612d96576040517f08c379a0000000000000000000000000000000000000000000000000000000008152600401612d8d906156cc565b60405180910390fd5b600285612da39190615404565b341015612de5576040517f08c379a0000000000000000000000000000000000000000000000000000000008152600401612ddc90615738565b60405180910390fd5b86600160008a815260200190815260200160002060000160006101000a81548173ffffffffffffffffffffffffffffffffffffffff021916908373ffffffffffffffffffffffffffffffffffffffff16021790555034600160008a81526020019081526020016000206003018190555085600160008a815260200190815260200160002060010160006101000a81548173ffffffffffffffffffffffffffffffffffffffff021916908373ffffffffffffffffffffffffffffffffffffffff160217905550600a85612eb79190615404565b600160008a81526020019081526020016000206002018190555084600160008a81526020019081526020016000206005018190555083600160008a81526020019081526020016000206004018190555082600160008a8152602001908152602001600020600d018190555081600160008a8152602001908152602001600020600b019080519060200190612f4c92919061454c565b506000600160008a8152602001908152602001600020600f0160006101000a81548160ff02191690836007811115612f8757612f86614825565b5b02179055506000600160008a8152602001908152602001600020600f0160016101000a81548160ff02191690836002811115612fc657612fc5614825565b5b021790555042600160008a8152602001908152602001600020600e018190555060028890806001815401808255809150506001900390600052602060002001600090919091909150557f1e28175955a872c8252a6e5cf36ac6b318d074eb78b49731e5cb9ddc2d870b638860405161303e91906152af565b60405180910390a15050505050505050565b806001600082815260200190815260200160002060010160009054906101000a900473ffffffffffffffffffffffffffffffffffffffff1673ffffffffffffffffffffffffffffffffffffffff163373ffffffffffffffffffffffffffffffffffffffff16146130f5576040517f08c379a00000000000000000000000000000000000000000000000000000000081526004016130ec9061533c565b60405180910390fd5b81600080600781111561310b5761310a614825565b5b60016000848152602001908152602001600020600f0160009054906101000a900460ff16600781111561314157613140614825565b5b14613181576040517f08c379a000000000000000000000000000000000000000000000000000000000815260040161317890615051565b60405180910390fd5b8361318b816108d4565b6131ca576040517f08c379a00000000000000000000000000000000000000000000000000000000081526004016131c1906157a4565b60405180910390fd5b6001600086815260200190815260200160002060020154341015613223576040517f08c379a000000000000000000000000000000000000000000000000000000000815260040161321a90615836565b60405180910390fd5b426001600087815260200190815260200160002060080181905550346001600087815260200190815260200160002060020181905550600260016000878152602001908152602001600020600f0160006101000a81548160ff0219169083600781111561329357613292614825565b5b02179055504260016000878152602001908152602001600020600e01819055507fce708d6b67215419755514077f148edc2ee99fe51d758948ee62feea825d7038856040516132e291906152af565b60405180910390a15050505050565b7f000000000000000000000000000000000000000000000000000000000000000073ffffffffffffffffffffffffffffffffffffffff163373ffffffffffffffffffffffffffffffffffffffff161461337f576040517f08c379a00000000000000000000000000000000000000000000000000000000081526004016133769061553c565b60405180910390fd5b806000806101000a81548173ffffffffffffffffffffffffffffffffffffffff021916908373ffffffffffffffffffffffffffffffffffffffff16021790555050565b6060816001600082815260200190815260200160002060000160009054906101000a900473ffffffffffffffffffffffffffffffffffffffff1673ffffffffffffffffffffffffffffffffffffffff163373ffffffffffffffffffffffffffffffffffffffff16148061349657506001600082815260200190815260200160002060010160009054906101000a900473ffffffffffffffffffffffffffffffffffffffff1673ffffffffffffffffffffffffffffffffffffffff163373ffffffffffffffffffffffffffffffffffffffff16145b806134ec57507f000000000000000000000000000000000000000000000000000000000000000073ffffffffffffffffffffffffffffffffffffffff163373ffffffffffffffffffffffffffffffffffffffff16145b61352b576040517f08c379a0000000000000000000000000000000000000000000000000000000008152600401613522906155ce565b60405180910390fd5b60006040518060200160405280600081525090506000600281111561355357613552614825565b5b60016000868152602001908152602001600020600f0160019054906101000a900460ff16600281111561358957613588614825565b5b14156135cc576040518060400160405280600b81526020017f496e697469616c697a65640000000000000000000000000000000000000000008152509050613720565b600160028111156135e0576135df614825565b5b60016000868152602001908152602001600020600f0160019054906101000a900460ff16600281111561361657613615614825565b5b1415613659576040518060400160405280600781526020017f50656e64696e6700000000000000000000000000000000000000000000000000815250905061371f565b60028081111561366c5761366b614825565b5b60016000868152602001908152602001600020600f0160019054906101000a900460ff1660028111156136a2576136a1614825565b5b14156136e5576040518060400160405280600981526020017f436f6d706c657465640000000000000000000000000000000000000000000000815250905061371e565b6040518060400160405280600581526020017f4572726f7200000000000000000000000000000000000000000000000000000081525090505b5b5b8092505050919050565b7f000000000000000000000000000000000000000000000000000000000000000073ffffffffffffffffffffffffffffffffffffffff163373ffffffffffffffffffffffffffffffffffffffff16146137b8576040517f08c379a00000000000000000000000000000000000000000000000000000000081526004016137af9061553c565b60405180910390fd5b600060028054905090505b6000811115613be757600060026001836137dd919061510c565b815481106137ee576137ed615856565b5b906000526020600020015490506006600781111561380f5761380e614825565b5b60016000838152602001908152602001600020600f0160009054906101000a900460ff16600781111561384557613844614825565b5b14801561389857506002808111156138605761385f614825565b5b60016000838152602001908152602001600020600f0160019054906101000a900460ff16600281111561389657613895614825565b5b145b806138e957506007808111156138b1576138b0614825565b5b60016000838152602001908152602001600020600f0160009054906101000a900460ff1660078111156138e7576138e6614825565b5b145b8061393b57506004600781111561390357613902614825565b5b60016000838152602001908152602001600020600f0160009054906101000a900460ff16600781111561393957613938614825565b5b145b8061398d57506001600781111561395557613954614825565b5b60016000838152602001908152602001600020600f0160009054906101000a900460ff16600781111561398b5761398a614825565b5b145b806139df5750600560078111156139a7576139a6614825565b5b60016000838152602001908152602001600020600f0160009054906101000a900460ff1660078111156139dd576139dc614825565b5b145b8015613a0c5750603c60016000838152602001908152602001600020600e0154613a09919061535c565b42115b15613bd35760016000828152602001908152602001600020600080820160006101000a81549073ffffffffffffffffffffffffffffffffffffffff02191690556001820160006101000a81549073ffffffffffffffffffffffffffffffffffffffff021916905560028201600090556003820160009055600482016000905560058201600090556006820160009055600782016000905560088201600090556009820160009055600a820160009055600b82016000613acb91906145d2565b600c82016000613adb91906145d2565b600d820160009055600e820160009055600f820160006101000a81549060ff0219169055600f820160016101000a81549060ff0219169055505060026001600280549050613b29919061510c565b81548110613b3a57613b39615856565b5b90600052602060002001546002600184613b54919061510c565b81548110613b6557613b64615856565b5b90600052602060002001819055506002805480613b8557613b84615885565b5b600190038181906000526020600020016000905590557fa96209878fc4722b56527db6cf4b72ad6bfddb3ad9968f7de1125d02acc9aa1081604051613bca91906152af565b60405180910390a15b508080613bdf906158b4565b9150506137c3565b50565b7f000000000000000000000000000000000000000000000000000000000000000073ffffffffffffffffffffffffffffffffffffffff163373ffffffffffffffffffffffffffffffffffffffff1614613c78576040517f08c379a0000000000000000000000000000000000000000000000000000000008152600401613c6f9061553c565b60405180910390fd5b80613c82816108d4565b613cc1576040517f08c379a0000000000000000000000000000000000000000000000000000000008152600401613cb8906157a4565b60405180910390fd5b60016000838152602001908152602001600020600080820160006101000a81549073ffffffffffffffffffffffffffffffffffffffff02191690556001820160006101000a81549073ffffffffffffffffffffffffffffffffffffffff021916905560028201600090556003820160009055600482016000905560058201600090556006820160009055600782016000905560088201600090556009820160009055600a820160009055600b82016000613d7b91906145d2565b600c82016000613d8b91906145d2565b600d820160009055600e820160009055600f820160006101000a81549060ff0219169055600f820160016101000a81549060ff0219169055505060005b600280549050811015613e8d578260028281548110613dea57613de9615856565b5b90600052602060002001541415613e7a5760026001600280549050613e0f919061510c565b81548110613e2057613e1f615856565b5b906000526020600020015460028281548110613e3f57613e3e615856565b5b90600052602060002001819055506002805480613e5f57613e5e615885565b5b60019003818190600052602060002001600090559055613e8d565b8080613e85906158de565b915050613dc8565b507fa96209878fc4722b56527db6cf4b72ad6bfddb3ad9968f7de1125d02acc9aa1082604051613ebd91906152af565b60405180910390a15050565b606060016000838152602001908152602001600020600b018054613eec90614f41565b80601f0160208091040260200160405190810160405280929190818152602001828054613f1890614f41565b8015613f655780601f10613f3a57610100808354040283529160200191613f65565b820191906000526020600020905b815481529060010190602001808311613f4857829003601f168201915b50505050509050919050565b806001600082815260200190815260200160002060000160009054906101000a900473ffffffffffffffffffffffffffffffffffffffff1673ffffffffffffffffffffffffffffffffffffffff163373ffffffffffffffffffffffffffffffffffffffff1614614016576040517f08c379a000000000000000000000000000000000000000000000000000000000815260040161400d90614fe5565b60405180910390fd5b81600080600781111561402c5761402b614825565b5b60016000848152602001908152602001600020600f0160009054906101000a900460ff16600781111561406257614061614825565b5b146140a2576040517f08c379a000000000000000000000000000000000000000000000000000000000815260040161409990615051565b60405180910390fd5b6001806000868152602001908152602001600020600f0160006101000a81548160ff021916908360078111156140db576140da614825565b5b02179055506001600085815260200190815260200160002060000160009054906101000a900473ffffffffffffffffffffffffffffffffffffffff1673ffffffffffffffffffffffffffffffffffffffff166108fc60016000878152602001908152602001600020600301549081150290604051600060405180830381858888f19350505050158015614172573d6000803e3d6000fd5b504260016000868152602001908152602001600020600e01819055507fb56ab0c8ca3c4a2f3256c9dab1834145295ed481d85fd1afde56ff8c7298c3ec6001600086815260200190815260200160002060000160009054906101000a900473ffffffffffffffffffffffffffffffffffffffff16600160008781526020019081526020016000206003015460405161420b929190615277565b60405180910390a17fe1e1d79b8f28d3379fc32f617eaf54dd6bd4071074c77e91134770e04a81d6268460405161424291906152af565b60405180910390a150505050565b60006102586001600084815260200190815260200160002060090154614276919061535c565b60016000848152602001908152602001600020600a0154111580156142c75750600160008381526020019081526020016000206009015460016000848152602001908152602001600020600a015410155b8015614320575060016000838152602001908152602001600020600601546001600084815260200190815260200160002060080154614306919061535c565b60016000848152602001908152602001600020600a015410155b801561437957506001600083815260200190815260200160002060060154600160008481526020019081526020016000206008015461435f919061535c565b600160008481526020019081526020016000206009015410155b9050919050565b6000600160008381526020019081526020016000206004015460016000848152602001908152602001600020600801546143ba919061535c565b60016000848152602001908152602001600020600901541115801561440b57506001600083815260200190815260200160002060040154600160008481526020019081526020016000206006015411155b9050919050565b6000816040516020016144259190615963565b6040516020818303038152906040528051906020012060016000858152602001908152602001600020600d015414905092915050565b604051806102200160405280600073ffffffffffffffffffffffffffffffffffffffff168152602001600073ffffffffffffffffffffffffffffffffffffffff168152602001600081526020016000815260200160008152602001600081526020016000815260200160008152602001600081526020016000815260200160008152602001606081526020016060815260200160008019168152602001600081526020016000600781111561451357614512614825565b5b81526020016000600281111561452c5761452b614825565b5b81525090565b604051806040016040528060008152602001600081525090565b82805461455890614f41565b90600052602060002090601f01602090048101928261457a57600085556145c1565b82601f1061459357805160ff19168380011785556145c1565b828001600101855582156145c1579182015b828111156145c05782518255916020019190600101906145a5565b5b5090506145ce9190614612565b5090565b5080546145de90614f41565b6000825580601f106145f0575061460f565b601f01602090049060005260206000209081019061460e9190614612565b5b50565b5b8082111561462b576000816000905550600101614613565b5090565b600082825260208201905092915050565b7f6261642063616c6c000000000000000000000000000000000000000000000000600082015250565b600061467660088361462f565b915061468182614640565b602082019050919050565b600060208201905081810360008301526146a581614669565b9050919050565b6000604051905090565b600080fd5b600080fd5b6000819050919050565b6146d3816146c0565b81146146de57600080fd5b50565b6000813590506146f0816146ca565b92915050565b60006020828403121561470c5761470b6146b6565b5b600061471a848285016146e1565b91505092915050565b600073ffffffffffffffffffffffffffffffffffffffff82169050919050565b600061474e82614723565b9050919050565b61475e81614743565b82525050565b6000819050919050565b61477781614764565b82525050565b600081519050919050565b600082825260208201905092915050565b60005b838110156147b757808201518184015260208101905061479c565b838111156147c6576000848401525b50505050565b6000601f19601f8301169050919050565b60006147e88261477d565b6147f28185614788565b9350614802818560208601614799565b61480b816147cc565b840191505092915050565b61481f816146c0565b82525050565b7f4e487b7100000000000000000000000000000000000000000000000000000000600052602160045260246000fd5b6008811061486557614864614825565b5b50565b600081905061487682614854565b919050565b600061488682614868565b9050919050565b6148968161487b565b82525050565b600381106148ad576148ac614825565b5b50565b60008190506148be8261489c565b919050565b60006148ce826148b0565b9050919050565b6148de816148c3565b82525050565b6000610220830160008301516148fd6000860182614755565b5060208301516149106020860182614755565b506040830151614923604086018261476e565b506060830151614936606086018261476e565b506080830151614949608086018261476e565b5060a083015161495c60a086018261476e565b5060c083015161496f60c086018261476e565b5060e083015161498260e086018261476e565b5061010083015161499761010086018261476e565b506101208301516149ac61012086018261476e565b506101408301516149c161014086018261476e565b506101608301518482036101608601526149db82826147dd565b9150506101808301518482036101808601526149f782826147dd565b9150506101a0830151614a0e6101a0860182614816565b506101c0830151614a236101c086018261476e565b506101e0830151614a386101e086018261488d565b50610200830151614a4d6102008601826148d5565b508091505092915050565b60006020820190508181036000830152614a7281846148e4565b905092915050565b6000614a8582614723565b9050919050565b614a9581614a7a565b8114614aa057600080fd5b50565b600081359050614ab281614a8c565b92915050565b600060208284031215614ace57614acd6146b6565b5b6000614adc84828501614aa3565b91505092915050565b604082016000820151614afb600085018261476e565b506020820151614b0e602085018261476e565b50505050565b6000604082019050614b296000830184614ae5565b92915050565b60008115159050919050565b614b4481614b2f565b82525050565b6000602082019050614b5f6000830184614b3b565b92915050565b6000614b708261477d565b614b7a818561462f565b9350614b8a818560208601614799565b614b93816147cc565b840191505092915050565b60006020820190508181036000830152614bb88184614b65565b905092915050565b600080fd5b600080fd5b7f4e487b7100000000000000000000000000000000000000000000000000000000600052604160045260246000fd5b614c02826147cc565b810181811067ffffffffffffffff82111715614c2157614c20614bca565b5b80604052505050565b6000614c346146ac565b9050614c408282614bf9565b919050565b600067ffffffffffffffff821115614c6057614c5f614bca565b5b614c69826147cc565b9050602081019050919050565b82818337600083830152505050565b6000614c98614c9384614c45565b614c2a565b905082815260208101848484011115614cb457614cb3614bc5565b5b614cbf848285614c76565b509392505050565b600082601f830112614cdc57614cdb614bc0565b5b8135614cec848260208601614c85565b91505092915050565b60008060408385031215614d0c57614d0b6146b6565b5b6000614d1a858286016146e1565b925050602083013567ffffffffffffffff811115614d3b57614d3a6146bb565b5b614d4785828601614cc7565b9150509250929050565b614d5a81614764565b8114614d6557600080fd5b50565b600081359050614d7781614d51565b92915050565b60008060008060808587031215614d9757614d966146b6565b5b6000614da5878288016146e1565b945050602085013567ffffffffffffffff811115614dc657614dc56146bb565b5b614dd287828801614cc7565b9350506040614de387828801614d68565b9250506060614df487828801614d68565b91505092959194509250565b614e0981614764565b82525050565b6000602082019050614e246000830184614e00565b92915050565b614e3381614a7a565b82525050565b6000602082019050614e4e6000830184614e2a565b92915050565b600080600080600080600060e0888a031215614e7357614e726146b6565b5b6000614e818a828b016146e1565b9750506020614e928a828b01614aa3565b9650506040614ea38a828b01614aa3565b9550506060614eb48a828b01614d68565b9450506080614ec58a828b01614d68565b93505060a0614ed68a828b016146e1565b92505060c088013567ffffffffffffffff811115614ef757614ef66146bb565b5b614f038a828b01614cc7565b91505092959891949750929550565b7f4e487b7100000000000000000000000000000000000000000000000000000000600052602260045260246000fd5b60006002820490506001821680614f5957607f821691505b60208210811415614f6d57614f6c614f12565b5b50919050565b7f4d6574686f642063616e2062652063616c6c6564206f6e6c7920627920636c6960008201527f656e742e00000000000000000000000000000000000000000000000000000000602082015250565b6000614fcf60248361462f565b9150614fda82614f73565b604082019050919050565b60006020820190508181036000830152614ffe81614fc2565b9050919050565b7f496e76616c6964205461736b53746174652e0000000000000000000000000000600082015250565b600061503b60128361462f565b915061504682615005565b602082019050919050565b6000602082019050818103600083015261506a8161502e565b9050919050565b7f496e76616c6964205061796d656e7453746174652e0000000000000000000000600082015250565b60006150a760158361462f565b91506150b282615071565b602082019050919050565b600060208201905081810360008301526150d68161509a565b9050919050565b7f4e487b7100000000000000000000000000000000000000000000000000000000600052601160045260246000fd5b600061511782614764565b915061512283614764565b925082821015615135576151346150dd565b5b828203905092915050565b7f56616c75652073656e74206973206e6f74207468652065787065637465640000600082015250565b6000615176601e8361462f565b915061518182615140565b602082019050919050565b600060208201905081810360008301526151a581615169565b9050919050565b7f5061796d656e74206e6f74206e65656465640000000000000000000000000000600082015250565b60006151e260128361462f565b91506151ed826151ac565b602082019050919050565b60006020820190508181036000830152615211816151d5565b9050919050565b6000819050919050565b600061523d61523861523384614723565b615218565b614723565b9050919050565b600061524f82615222565b9050919050565b600061526182615244565b9050919050565b61527181615256565b82525050565b600060408201905061528c6000830185615268565b6152996020830184614e00565b9392505050565b6152a9816146c0565b82525050565b60006020820190506152c460008301846152a0565b92915050565b7f4d6574686f642063616e2062652063616c6c6564206f6e6c792062792070726f60008201527f76696465722e0000000000000000000000000000000000000000000000000000602082015250565b600061532660268361462f565b9150615331826152ca565b604082019050919050565b6000602082019050818103600083015261535581615319565b9050919050565b600061536782614764565b915061537283614764565b9250827fffffffffffffffffffffffffffffffffffffffffffffffffffffffffffffffff038211156153a7576153a66150dd565b5b828201905092915050565b60006040820190506153c760008301856152a0565b6153d46020830184614e00565b9392505050565b60006040820190506153f06000830185615268565b6153fd60208301846152a0565b9392505050565b600061540f82614764565b915061541a83614764565b9250817fffffffffffffffffffffffffffffffffffffffffffffffffffffffffffffffff0483118215151615615453576154526150dd565b5b828202905092915050565b7f54696d6520686173206e6f7420657870697265642e0000000000000000000000600082015250565b600061549460158361462f565b915061549f8261545e565b602082019050919050565b600060208201905081810360008301526154c381615487565b9050919050565b7f4d6574686f642063616e2062652063616c6c6564206f6e6c79206279206f776e60008201527f65722e0000000000000000000000000000000000000000000000000000000000602082015250565b600061552660238361462f565b9150615531826154ca565b604082019050919050565b6000602082019050818103600083015261555581615519565b9050919050565b7f4d6574686f642063616e2062652063616c6c6564206f6e6c7920627920636c6960008201527f656e742c2070726f7669646572206f7220746865206f776e65722e0000000000602082015250565b60006155b8603b8361462f565b91506155c38261555c565b604082019050919050565b600060208201905081810360008301526155e7816155ab565b9050919050565b7f5461736b20616c72656164792065786973747300000000000000000000000000600082015250565b600061562460138361462f565b915061562f826155ee565b602082019050919050565b6000602082019050818103600083015261565381615617565b9050919050565b7f4d6574686f642063616e2062652063616c6c6564206f6e6c792062792061756360008201527f74696f6e2e000000000000000000000000000000000000000000000000000000602082015250565b60006156b660258361462f565b91506156c18261565a565b604082019050919050565b600060208201905081810360008301526156e5816156a9565b9050919050565b7f436c69656e7420636f6c6c61746572616c206973206e6f7420656e6f75676800600082015250565b6000615722601f8361462f565b915061572d826156ec565b602082019050919050565b6000602082019050818103600083015261575181615715565b9050919050565b7f5461736b206d7573742062652072656769737465726564000000000000000000600082015250565b600061578e60178361462f565b915061579982615758565b602082019050919050565b600060208201905081810360008301526157bd81615781565b9050919050565b7f50726f766964657220636f6c6c61746572616c206973206e6f7420656e6f756760008201527f6800000000000000000000000000000000000000000000000000000000000000602082015250565b600061582060218361462f565b915061582b826157c4565b604082019050919050565b6000602082019050818103600083015261584f81615813565b9050919050565b7f4e487b7100000000000000000000000000000000000000000000000000000000600052603260045260246000fd5b7f4e487b7100000000000000000000000000000000000000000000000000000000600052603160045260246000fd5b60006158bf82614764565b915060008214156158d3576158d26150dd565b5b600182039050919050565b60006158e982614764565b91507fffffffffffffffffffffffffffffffffffffffffffffffffffffffffffffffff82141561591c5761591b6150dd565b5b600182019050919050565b600081905092915050565b600061593d8261477d565b6159478185615927565b9350615957818560208601614799565b80840191505092915050565b600061596f8284615932565b91508190509291505056fea2646970667358221220c0e2c671354ab7f26776a87c6ff230de872ac51d463f9fe8eb6d38f48e7bdb8d64736f6c63430008080033",
  "devdoc": {
    "kind": "dev",
    "methods": {},
    "version": 1
  },
  "userdoc": {
    "kind": "user",
    "methods": {},
    "version": 1
  },
  "storageLayout": {
    "storage": [
      {
        "astId": 947,
        "contract": "contracts/TasksManager.sol:TasksManager",
        "label": "auctionAddress",
        "offset": 0,
        "slot": "0",
        "type": "t_address"
      },
      {
        "astId": 1007,
        "contract": "contracts/TasksManager.sol:TasksManager",
        "label": "tasks",
        "offset": 0,
        "slot": "1",
        "type": "t_mapping(t_bytes32,t_struct(Task)997_storage)"
      },
      {
        "astId": 1010,
        "contract": "contracts/TasksManager.sol:TasksManager",
        "label": "bytes32_tasks",
        "offset": 0,
        "slot": "2",
        "type": "t_array(t_bytes32)dyn_storage"
      },
      {
        "astId": 1015,
        "contract": "contracts/TasksManager.sol:TasksManager",
        "label": "performance",
        "offset": 0,
        "slot": "3",
        "type": "t_mapping(t_address,t_struct(providerRating)1002_storage)"
      }
    ],
    "types": {
      "t_address": {
        "encoding": "inplace",
        "label": "address",
        "numberOfBytes": "20"
      },
      "t_address_payable": {
        "encoding": "inplace",
        "label": "address payable",
        "numberOfBytes": "20"
      },
      "t_array(t_bytes32)dyn_storage": {
        "base": "t_bytes32",
        "encoding": "dynamic_array",
        "label": "bytes32[]",
        "numberOfBytes": "32"
      },
      "t_bytes32": {
        "encoding": "inplace",
        "label": "bytes32",
        "numberOfBytes": "32"
      },
      "t_enum(PaymentState)960": {
        "encoding": "inplace",
        "label": "enum TasksManager.PaymentState",
        "numberOfBytes": "1"
      },
      "t_enum(TaskState)956": {
        "encoding": "inplace",
        "label": "enum TasksManager.TaskState",
        "numberOfBytes": "1"
      },
      "t_mapping(t_address,t_struct(providerRating)1002_storage)": {
        "encoding": "mapping",
        "key": "t_address",
        "label": "mapping(address => struct TasksManager.providerRating)",
        "numberOfBytes": "32",
        "value": "t_struct(providerRating)1002_storage"
      },
      "t_mapping(t_bytes32,t_struct(Task)997_storage)": {
        "encoding": "mapping",
        "key": "t_bytes32",
        "label": "mapping(bytes32 => struct TasksManager.Task)",
        "numberOfBytes": "32",
        "value": "t_struct(Task)997_storage"
      },
      "t_string_storage": {
        "encoding": "bytes",
        "label": "string",
        "numberOfBytes": "32"
      },
      "t_struct(Task)997_storage": {
        "encoding": "inplace",
        "label": "struct TasksManager.Task",
        "members": [
          {
            "astId": 962,
            "contract": "contracts/TasksManager.sol:TasksManager",
            "label": "client",
            "offset": 0,
            "slot": "0",
            "type": "t_address_payable"
          },
          {
            "astId": 964,
            "contract": "contracts/TasksManager.sol:TasksManager",
            "label": "provider",
            "offset": 0,
            "slot": "1",
            "type": "t_address_payable"
          },
          {
            "astId": 966,
            "contract": "contracts/TasksManager.sol:TasksManager",
            "label": "providerCollateral",
            "offset": 0,
            "slot": "2",
            "type": "t_uint256"
          },
          {
            "astId": 968,
            "contract": "contracts/TasksManager.sol:TasksManager",
            "label": "clientCollateral",
            "offset": 0,
            "slot": "3",
            "type": "t_uint256"
          },
          {
            "astId": 970,
            "contract": "contracts/TasksManager.sol:TasksManager",
            "label": "deadline",
            "offset": 0,
            "slot": "4",
            "type": "t_uint256"
          },
          {
            "astId": 972,
            "contract": "contracts/TasksManager.sol:TasksManager",
            "label": "price",
            "offset": 0,
            "slot": "5",
            "type": "t_uint256"
          },
          {
            "astId": 974,
            "contract": "contracts/TasksManager.sol:TasksManager",
            "label": "duration",
            "offset": 0,
            "slot": "6",
            "type": "t_uint256"
          },
          {
            "astId": 976,
            "contract": "contracts/TasksManager.sol:TasksManager",
            "label": "cost",
            "offset": 0,
            "slot": "7",
            "type": "t_uint256"
          },
          {
            "astId": 978,
            "contract": "contracts/TasksManager.sol:TasksManager",
            "label": "activationTime",
            "offset": 0,
            "slot": "8",
            "type": "t_uint256"
          },
          {
            "astId": 980,
            "contract": "contracts/TasksManager.sol:TasksManager",
            "label": "timeResultProvided",
            "offset": 0,
            "slot": "9",
            "type": "t_uint256"
          },
          {
            "astId": 982,
            "contract": "contracts/TasksManager.sol:TasksManager",
            "label": "timeResultReceived",
            "offset": 0,
            "slot": "10",
            "type": "t_uint256"
          },
          {
            "astId": 984,
            "contract": "contracts/TasksManager.sol:TasksManager",
            "label": "code",
            "offset": 0,
            "slot": "11",
            "type": "t_string_storage"
          },
          {
            "astId": 986,
            "contract": "contracts/TasksManager.sol:TasksManager",
            "label": "results",
            "offset": 0,
            "slot": "12",
            "type": "t_string_storage"
          },
          {
            "astId": 988,
            "contract": "contracts/TasksManager.sol:TasksManager",
            "label": "clientVerification",
            "offset": 0,
            "slot": "13",
            "type": "t_bytes32"
          },
          {
            "astId": 990,
            "contract": "contracts/TasksManager.sol:TasksManager",
            "label": "lastUpdateTimestamp",
            "offset": 0,
            "slot": "14",
            "type": "t_uint256"
          },
          {
            "astId": 993,
            "contract": "contracts/TasksManager.sol:TasksManager",
            "label": "taskState",
            "offset": 0,
            "slot": "15",
            "type": "t_enum(TaskState)956"
          },
          {
            "astId": 996,
            "contract": "contracts/TasksManager.sol:TasksManager",
            "label": "paymentState",
            "offset": 1,
            "slot": "15",
            "type": "t_enum(PaymentState)960"
          }
        ],
        "numberOfBytes": "512"
      },
      "t_struct(providerRating)1002_storage": {
        "encoding": "inplace",
        "label": "struct TasksManager.providerRating",
        "members": [
          {
            "astId": 999,
            "contract": "contracts/TasksManager.sol:TasksManager",
            "label": "upVotes",
            "offset": 0,
            "slot": "0",
            "type": "t_uint256"
          },
          {
            "astId": 1001,
            "contract": "contracts/TasksManager.sol:TasksManager",
            "label": "downVotes",
            "offset": 0,
            "slot": "1",
            "type": "t_uint256"
          }
        ],
        "numberOfBytes": "64"
      },
      "t_uint256": {
        "encoding": "inplace",
        "label": "uint256",
        "numberOfBytes": "32"
      }
    }
  }
}