{
  "address": "0xEA227070b5679462339dB32Ec58a30b80d983CC2",
  "abi": [
    {
      "inputs": [],
      "stateMutability": "nonpayable",
      "type": "constructor"
    },
    {
      "anonymous": false,
      "inputs": [
        {
          "indexed": false,
          "internalType": "bytes32",
          "name": "taskID",
          "type": "bytes32"
        }
      ],
      "name": "PaymentCompleted",
      "type": "event"
    },
    {
      "anonymous": false,
      "inputs": [
        {
          "indexed": false,
          "internalType": "bytes32",
          "name": "taskID",
          "type": "bytes32"
        },
        {
          "indexed": false,
          "internalType": "uint256",
          "name": "payment",
          "type": "uint256"
        }
      ],
      "name": "PaymentPending",
      "type": "event"
    },
    {
      "anonymous": false,
      "inputs": [
        {
          "indexed": false,
          "internalType": "address",
          "name": "provider",
          "type": "address"
        },
        {
          "indexed": false,
          "internalType": "bytes32",
          "name": "taskID",
          "type": "bytes32"
        }
      ],
      "name": "ProviderDownvoted",
      "type": "event"
    },
    {
      "anonymous": false,
      "inputs": [
        {
          "indexed": false,
          "internalType": "address",
          "name": "provider",
          "type": "address"
        },
        {
          "indexed": false,
          "internalType": "bytes32",
          "name": "taskID",
          "type": "bytes32"
        }
      ],
      "name": "ProviderUpvoted",
      "type": "event"
    },
    {
      "anonymous": false,
      "inputs": [
        {
          "indexed": false,
          "internalType": "bytes32",
          "name": "taskID",
          "type": "bytes32"
        }
      ],
      "name": "TaskActivated",
      "type": "event"
    },
    {
      "anonymous": false,
      "inputs": [
        {
          "indexed": false,
          "internalType": "bytes32",
          "name": "taskID",
          "type": "bytes32"
        }
      ],
      "name": "TaskCancelled",
      "type": "event"
    },
    {
      "anonymous": false,
      "inputs": [
        {
          "indexed": false,
          "internalType": "bytes32",
          "name": "taskID",
          "type": "bytes32"
        }
      ],
      "name": "TaskCompletedSuccessfully",
      "type": "event"
    },
    {
      "anonymous": false,
      "inputs": [
        {
          "indexed": false,
          "internalType": "bytes32",
          "name": "taskID",
          "type": "bytes32"
        }
      ],
      "name": "TaskCompletedUnsuccessfully",
      "type": "event"
    },
    {
      "anonymous": false,
      "inputs": [
        {
          "indexed": false,
          "internalType": "bytes32",
          "name": "taskID",
          "type": "bytes32"
        }
      ],
      "name": "TaskCreated",
      "type": "event"
    },
    {
      "anonymous": false,
      "inputs": [
        {
          "indexed": false,
          "internalType": "bytes32",
          "name": "taskID",
          "type": "bytes32"
        }
      ],
      "name": "TaskDeleted",
      "type": "event"
    },
    {
      "anonymous": false,
      "inputs": [
        {
          "indexed": false,
          "internalType": "bytes32",
          "name": "taskID",
          "type": "bytes32"
        }
      ],
      "name": "TaskInvalidated",
      "type": "event"
    },
    {
      "anonymous": false,
      "inputs": [
        {
          "indexed": false,
          "internalType": "bytes32",
          "name": "taskID",
          "type": "bytes32"
        }
      ],
      "name": "TaskReceivedResultsSuccessfully",
      "type": "event"
    },
    {
      "anonymous": false,
      "inputs": [
        {
          "indexed": false,
          "internalType": "bytes32",
          "name": "taskID",
          "type": "bytes32"
        }
      ],
      "name": "TaskReceivedResultsUnsuccessfully",
      "type": "event"
    },
    {
      "anonymous": false,
      "inputs": [
        {
          "indexed": false,
          "internalType": "address",
          "name": "client",
          "type": "address"
        },
        {
          "indexed": false,
          "internalType": "uint256",
          "name": "amount",
          "type": "uint256"
        }
      ],
      "name": "TransferMadeToClient",
      "type": "event"
    },
    {
      "anonymous": false,
      "inputs": [
        {
          "indexed": false,
          "internalType": "address",
          "name": "provider",
          "type": "address"
        },
        {
          "indexed": false,
          "internalType": "uint256",
          "name": "amount",
          "type": "uint256"
        }
      ],
      "name": "TransferMadeToProvider",
      "type": "event"
    },
    {
      "stateMutability": "payable",
      "type": "fallback"
    },
    {
      "inputs": [],
      "name": "ActiveTasks",
      "outputs": [
        {
          "internalType": "uint256",
          "name": "",
          "type": "uint256"
        }
      ],
      "stateMutability": "view",
      "type": "function"
    },
    {
      "inputs": [
        {
          "internalType": "bytes32",
          "name": "_taskID",
          "type": "bytes32"
        }
      ],
      "name": "activateTask",
      "outputs": [],
      "stateMutability": "payable",
      "type": "function"
    },
    {
      "inputs": [
        {
          "internalType": "uint256",
          "name": "",
          "type": "uint256"
        }
      ],
      "name": "bytes32_tasks",
      "outputs": [
        {
          "internalType": "bytes32",
          "name": "",
          "type": "bytes32"
        }
      ],
      "stateMutability": "view",
      "type": "function"
    },
    {
      "inputs": [
        {
          "internalType": "bytes32",
          "name": "_taskID",
          "type": "bytes32"
        }
      ],
      "name": "cancelTask",
      "outputs": [],
      "stateMutability": "nonpayable",
      "type": "function"
    },
    {
      "inputs": [
        {
          "internalType": "bytes32",
          "name": "_taskID",
          "type": "bytes32"
        }
      ],
      "name": "completePayment",
      "outputs": [],
      "stateMutability": "payable",
      "type": "function"
    },
    {
      "inputs": [
        {
          "internalType": "bytes32",
          "name": "_taskID",
          "type": "bytes32"
        },
        {
          "internalType": "string",
          "name": "ver",
          "type": "string"
        },
        {
          "internalType": "uint256",
          "name": "_duration",
          "type": "uint256"
        },
        {
          "internalType": "uint256",
          "name": "_timeReceivedProvider",
          "type": "uint256"
        }
      ],
      "name": "completeTask",
      "outputs": [],
      "stateMutability": "nonpayable",
      "type": "function"
    },
    {
      "inputs": [
        {
          "internalType": "bytes32",
          "name": "_taskID",
          "type": "bytes32"
        },
        {
          "internalType": "address payable",
          "name": "_provider",
          "type": "address"
        },
        {
          "internalType": "uint256",
          "name": "_price",
          "type": "uint256"
        },
        {
          "internalType": "uint256",
          "name": "_deadline",
          "type": "uint256"
        },
        {
          "internalType": "bytes32",
          "name": "_clientVerification",
          "type": "bytes32"
        },
        {
          "internalType": "string",
          "name": "_verificationCode",
          "type": "string"
        },
        {
          "internalType": "string",
          "name": "_computationCode",
          "type": "string"
        }
      ],
      "name": "createTask",
      "outputs": [],
      "stateMutability": "payable",
      "type": "function"
    },
    {
      "inputs": [
        {
          "internalType": "bytes32",
          "name": "_taskID",
          "type": "bytes32"
        }
      ],
      "name": "deleteTask",
      "outputs": [],
      "stateMutability": "nonpayable",
      "type": "function"
    },
    {
      "inputs": [],
      "name": "deleteTasks",
      "outputs": [],
      "stateMutability": "nonpayable",
      "type": "function"
    },
    {
      "inputs": [
        {
          "internalType": "bytes32",
          "name": "_taskID",
          "type": "bytes32"
        }
      ],
      "name": "getActivationTime",
      "outputs": [
        {
          "internalType": "uint256",
          "name": "",
          "type": "uint256"
        }
      ],
      "stateMutability": "view",
      "type": "function"
    },
    {
      "inputs": [
        {
          "internalType": "bytes32",
          "name": "_taskID",
          "type": "bytes32"
        }
      ],
      "name": "getComputationCode",
      "outputs": [
        {
          "internalType": "string",
          "name": "",
          "type": "string"
        }
      ],
      "stateMutability": "view",
      "type": "function"
    },
    {
      "inputs": [
        {
          "internalType": "bytes32",
          "name": "_taskID",
          "type": "bytes32"
        }
      ],
      "name": "getCost",
      "outputs": [
        {
          "internalType": "uint256",
          "name": "",
          "type": "uint256"
        }
      ],
      "stateMutability": "view",
      "type": "function"
    },
    {
      "inputs": [
        {
          "internalType": "bytes32",
          "name": "_taskID",
          "type": "bytes32"
        }
      ],
      "name": "getLastUpdateTimestamp",
      "outputs": [
        {
          "internalType": "uint256",
          "name": "",
          "type": "uint256"
        }
      ],
      "stateMutability": "view",
      "type": "function"
    },
    {
      "inputs": [],
      "name": "getOwner",
      "outputs": [
        {
          "internalType": "address",
          "name": "",
          "type": "address"
        }
      ],
      "stateMutability": "view",
      "type": "function"
    },
    {
      "inputs": [
        {
          "internalType": "bytes32",
          "name": "_taskID",
          "type": "bytes32"
        }
      ],
      "name": "getPayment",
      "outputs": [
        {
          "internalType": "uint256",
          "name": "",
          "type": "uint256"
        }
      ],
      "stateMutability": "view",
      "type": "function"
    },
    {
      "inputs": [
        {
          "internalType": "bytes32",
          "name": "_taskID",
          "type": "bytes32"
        }
      ],
      "name": "getPaymentState",
      "outputs": [
        {
          "internalType": "string",
          "name": "",
          "type": "string"
        }
      ],
      "stateMutability": "view",
      "type": "function"
    },
    {
      "inputs": [
        {
          "internalType": "address",
          "name": "provider",
          "type": "address"
        }
      ],
      "name": "getPerformance",
      "outputs": [
        {
          "components": [
            {
              "internalType": "uint256",
              "name": "upVotes",
              "type": "uint256"
            },
            {
              "internalType": "uint256",
              "name": "downVotes",
              "type": "uint256"
            }
          ],
          "internalType": "struct TasksManager.providerRating",
          "name": "",
          "type": "tuple"
        }
      ],
      "stateMutability": "view",
      "type": "function"
    },
    {
      "inputs": [
        {
          "internalType": "bytes32",
          "name": "_taskID",
          "type": "bytes32"
        }
      ],
      "name": "getResults",
      "outputs": [
        {
          "internalType": "string",
          "name": "",
          "type": "string"
        }
      ],
      "stateMutability": "view",
      "type": "function"
    },
    {
      "inputs": [
        {
          "internalType": "bytes32",
          "name": "_taskID",
          "type": "bytes32"
        }
      ],
      "name": "getTask",
      "outputs": [
        {
          "components": [
            {
              "internalType": "address payable",
              "name": "client",
              "type": "address"
            },
            {
              "internalType": "address payable",
              "name": "provider",
              "type": "address"
            },
            {
              "internalType": "uint256",
              "name": "providerCollateral",
              "type": "uint256"
            },
            {
              "internalType": "uint256",
              "name": "clientCollateral",
              "type": "uint256"
            },
            {
              "internalType": "uint256",
              "name": "deadline",
              "type": "uint256"
            },
            {
              "internalType": "uint256",
              "name": "price",
              "type": "uint256"
            },
            {
              "internalType": "uint256",
              "name": "duration",
              "type": "uint256"
            },
            {
              "internalType": "uint256",
              "name": "cost",
              "type": "uint256"
            },
            {
              "internalType": "uint256",
              "name": "activationTime",
              "type": "uint256"
            },
            {
              "internalType": "uint256",
              "name": "timeResultProvided",
              "type": "uint256"
            },
            {
              "internalType": "uint256",
              "name": "timeResultReceived",
              "type": "uint256"
            },
            {
              "internalType": "string",
              "name": "computationCode",
              "type": "string"
            },
            {
              "internalType": "string",
              "name": "verificationCode",
              "type": "string"
            },
            {
              "internalType": "string",
              "name": "results",
              "type": "string"
            },
            {
              "internalType": "bytes32",
              "name": "clientVerification",
              "type": "bytes32"
            },
            {
              "internalType": "uint256",
              "name": "lastUpdateTimestamp",
              "type": "uint256"
            },
            {
              "internalType": "enum TasksManager.TaskState",
              "name": "taskState",
              "type": "uint8"
            },
            {
              "internalType": "enum TasksManager.PaymentState",
              "name": "paymentState",
              "type": "uint8"
            }
          ],
          "internalType": "struct TasksManager.Task",
          "name": "",
          "type": "tuple"
        }
      ],
      "stateMutability": "view",
      "type": "function"
    },
    {
      "inputs": [
        {
          "internalType": "bytes32",
          "name": "_taskID",
          "type": "bytes32"
        }
      ],
      "name": "getTaskState",
      "outputs": [
        {
          "internalType": "string",
          "name": "",
          "type": "string"
        }
      ],
      "stateMutability": "view",
      "type": "function"
    },
    {
      "inputs": [
        {
          "internalType": "bytes32",
          "name": "_taskID",
          "type": "bytes32"
        }
      ],
      "name": "getVerificationCode",
      "outputs": [
        {
          "internalType": "string",
          "name": "",
          "type": "string"
        }
      ],
      "stateMutability": "view",
      "type": "function"
    },
    {
      "inputs": [
        {
          "internalType": "bytes32",
          "name": "_taskID",
          "type": "bytes32"
        }
      ],
      "name": "invalidateTask",
      "outputs": [],
      "stateMutability": "nonpayable",
      "type": "function"
    },
    {
      "inputs": [
        {
          "internalType": "bytes32",
          "name": "_taskID",
          "type": "bytes32"
        }
      ],
      "name": "isRegistered",
      "outputs": [
        {
          "internalType": "bool",
          "name": "",
          "type": "bool"
        }
      ],
      "stateMutability": "view",
      "type": "function"
    },
    {
      "inputs": [
        {
          "internalType": "bytes32",
          "name": "_taskID",
          "type": "bytes32"
        },
        {
          "internalType": "string",
          "name": "_results",
          "type": "string"
        }
      ],
      "name": "sendResults",
      "outputs": [],
      "stateMutability": "nonpayable",
      "type": "function"
    },
    {
      "stateMutability": "payable",
      "type": "receive"
    }
  ],
  "transactionHash": "0x4cae5325a99fc2d7da704f14ad1a7b9aa964a8aeae65325c2b247eed262014d6",
  "args": [],
  "numDeployments": 1,
  "solcInputHash": "3961e0a30d03c3136eb815f8c9f39ee6",
  "bytecode": "0x60a060405234801561001057600080fd5b503373ffffffffffffffffffffffffffffffffffffffff1660808173ffffffffffffffffffffffffffffffffffffffff1660601b8152505060805160601c615bff620000986000396000818161064501528181612c66015281816131b40152818161354c015281816138af0152818161395c01528181613e2a01526141270152615bff6000f3fe60806040526004361061014f5760003560e01c8063784f2c11116100b6578063d75ff4661161006f578063d75ff4661461052d578063e134a59014610544578063e64f15a214610581578063e66eefc8146105aa578063ee8ca3b5146105e7578063fe85cd4c146106105761018f565b8063784f2c11146104135780638693944d1461042f578063893d20e81461046c57806392b8332014610497578063ab210cc8146104b3578063b353034c146104f05761018f565b80634b017c7a116101085780634b017c7a146102e1578063513a66981461030a57806354706b5a1461033357806364f9fa801461035c578063709701221461039957806370ad1976146103d65761018f565b806315a29035146101945780631ecc9aaf146101d157806325f301cb1461020e57806327258b221461024b57806346475c4c1461028857806347ca8a8b146102c55761018f565b3661018f576040517f08c379a000000000000000000000000000000000000000000000000000000000815260040161018690614906565b60405180910390fd5b600080fd5b3480156101a057600080fd5b506101bb60048036038101906101b69190614970565b61063b565b6040516101c89190614cee565b60405180910390f35b3480156101dd57600080fd5b506101f860048036038101906101f39190614d4e565b610a3c565b6040516102059190614daa565b60405180910390f35b34801561021a57600080fd5b5061023560048036038101906102309190614970565b610aa9565b6040516102429190614dfe565b60405180910390f35b34801561025757600080fd5b50610272600480360381019061026d9190614970565b610b50565b60405161027f9190614e3b565b60405180910390f35b34801561029457600080fd5b506102af60048036038101906102aa9190614970565b610bbe565b6040516102bc9190614dfe565b60405180910390f35b6102df60048036038101906102da9190614970565b610e24565b005b3480156102ed57600080fd5b5061030860048036038101906103039190614f8b565b611296565b005b34801561031657600080fd5b50610331600480360381019061032c9190615013565b611ea5565b005b34801561033f57600080fd5b5061035a60048036038101906103559190614970565b6123f5565b005b34801561036857600080fd5b50610383600480360381019061037e9190614970565b612784565b60405161039091906150a5565b60405180910390f35b3480156103a557600080fd5b506103c060048036038101906103bb9190614970565b6127a3565b6040516103cd9190614dfe565b60405180910390f35b3480156103e257600080fd5b506103fd60048036038101906103f89190614970565b61284a565b60405161040a91906150a5565b60405180910390f35b61042d600480360381019061042891906150ec565b612869565b005b34801561043b57600080fd5b5061045660048036038101906104519190614970565b612b8c565b6040516104639190614dfe565b60405180910390f35b34801561047857600080fd5b506104816131b0565b60405161048e91906151d5565b60405180910390f35b6104b160048036038101906104ac9190614970565b6131d8565b005b3480156104bf57600080fd5b506104da60048036038101906104d59190614970565b613472565b6040516104e79190614dfe565b60405180910390f35b3480156104fc57600080fd5b5061051760048036038101906105129190614970565b6137d5565b60405161052491906150a5565b60405180910390f35b34801561053957600080fd5b5061054261395a565b005b34801561055057600080fd5b5061056b600480360381019061056691906151f0565b613e04565b604051610578919061522c565b60405180910390f35b34801561058d57600080fd5b506105a860048036038101906105a39190614970565b613e28565b005b3480156105b657600080fd5b506105d160048036038101906105cc9190614970565b61404d565b6040516105de91906150a5565b60405180910390f35b3480156105f357600080fd5b5061060e60048036038101906106099190614970565b61422e565b005b34801561061c57600080fd5b50610625614506565b60405161063291906150a5565b60405180910390f35b6106436146ce565b7f000000000000000000000000000000000000000000000000000000000000000073ffffffffffffffffffffffffffffffffffffffff163373ffffffffffffffffffffffffffffffffffffffff16146106d1576040517f08c379a00000000000000000000000000000000000000000000000000000000081526004016106c8906152b9565b60405180910390fd5b600080838152602001908152602001600020604051806102400160405290816000820160009054906101000a900473ffffffffffffffffffffffffffffffffffffffff1673ffffffffffffffffffffffffffffffffffffffff1673ffffffffffffffffffffffffffffffffffffffff1681526020016001820160009054906101000a900473ffffffffffffffffffffffffffffffffffffffff1673ffffffffffffffffffffffffffffffffffffffff1673ffffffffffffffffffffffffffffffffffffffff1681526020016002820154815260200160038201548152602001600482015481526020016005820154815260200160068201548152602001600782015481526020016008820154815260200160098201548152602001600a8201548152602001600b8201805461080590615308565b80601f016020809104026020016040519081016040528092919081815260200182805461083190615308565b801561087e5780601f106108535761010080835404028352916020019161087e565b820191906000526020600020905b81548152906001019060200180831161086157829003601f168201915b50505050508152602001600c8201805461089790615308565b80601f01602080910402602001604051908101604052809291908181526020018280546108c390615308565b80156109105780601f106108e557610100808354040283529160200191610910565b820191906000526020600020905b8154815290600101906020018083116108f357829003601f168201915b50505050508152602001600d8201805461092990615308565b80601f016020809104026020016040519081016040528092919081815260200182805461095590615308565b80156109a25780601f10610977576101008083540402835291602001916109a2565b820191906000526020600020905b81548152906001019060200180831161098557829003601f168201915b50505050508152602001600e8201548152602001600f82015481526020016010820160009054906101000a900460ff1660078111156109e4576109e3614a9f565b5b60078111156109f6576109f5614a9f565b5b81526020016010820160019054906101000a900460ff166002811115610a1f57610a1e614a9f565b5b6002811115610a3157610a30614a9f565b5b815250509050919050565b610a446147ac565b600260008373ffffffffffffffffffffffffffffffffffffffff1673ffffffffffffffffffffffffffffffffffffffff168152602001908152602001600020604051806040016040529081600082015481526020016001820154815250509050919050565b6060600080838152602001908152602001600020600c018054610acb90615308565b80601f0160208091040260200160405190810160405280929190818152602001828054610af790615308565b8015610b445780601f10610b1957610100808354040283529160200191610b44565b820191906000526020600020905b815481529060010190602001808311610b2757829003601f168201915b50505050509050919050565b60008073ffffffffffffffffffffffffffffffffffffffff1660008084815260200190815260200160002060000160009054906101000a900473ffffffffffffffffffffffffffffffffffffffff1673ffffffffffffffffffffffffffffffffffffffff1614159050919050565b60608160008082815260200190815260200160002060000160009054906101000a900473ffffffffffffffffffffffffffffffffffffffff1673ffffffffffffffffffffffffffffffffffffffff163373ffffffffffffffffffffffffffffffffffffffff1614610c64576040517f08c379a0000000000000000000000000000000000000000000000000000000008152600401610c5b906153ac565b60405180910390fd5b826006806007811115610c7a57610c79614a9f565b5b60008084815260200190815260200160002060100160009054906101000a900460ff166007811115610caf57610cae614a9f565b5b14610cef576040517f08c379a0000000000000000000000000000000000000000000000000000000008152600401610ce690615418565b60405180910390fd5b846002806002811115610d0557610d04614a9f565b5b60008084815260200190815260200160002060100160019054906101000a900460ff166002811115610d3a57610d39614a9f565b5b14610d7a576040517f08c379a0000000000000000000000000000000000000000000000000000000008152600401610d7190615484565b60405180910390fd5b600080888152602001908152602001600020600d018054610d9a90615308565b80601f0160208091040260200160405190810160405280929190818152602001828054610dc690615308565b8015610e135780601f10610de857610100808354040283529160200191610e13565b820191906000526020600020905b815481529060010190602001808311610df657829003601f168201915b505050505095505050505050919050565b8060008082815260200190815260200160002060000160009054906101000a900473ffffffffffffffffffffffffffffffffffffffff1673ffffffffffffffffffffffffffffffffffffffff163373ffffffffffffffffffffffffffffffffffffffff1614610ec8576040517f08c379a0000000000000000000000000000000000000000000000000000000008152600401610ebf906153ac565b60405180910390fd5b816006806007811115610ede57610edd614a9f565b5b60008084815260200190815260200160002060100160009054906101000a900460ff166007811115610f1357610f12614a9f565b5b14610f53576040517f08c379a0000000000000000000000000000000000000000000000000000000008152600401610f4a90615418565b60405180910390fd5b836001806002811115610f6957610f68614a9f565b5b60008084815260200190815260200160002060100160019054906101000a900460ff166002811115610f9e57610f9d614a9f565b5b14610fde576040517f08c379a0000000000000000000000000000000000000000000000000000000008152600401610fd590615484565b60405180910390fd5b600080878152602001908152602001600020600301546000808881526020019081526020016000206007015461101491906154d3565b803414611056576040517f08c379a000000000000000000000000000000000000000000000000000000000815260040161104d90615553565b60405180910390fd5b6001600281111561106a57611069614a9f565b5b60008089815260200190815260200160002060100160019054906101000a900460ff16600281111561109f5761109e614a9f565b5b146110df576040517f08c379a00000000000000000000000000000000000000000000000000000000081526004016110d6906155bf565b60405180910390fd5b60008088815260200190815260200160002060010160009054906101000a900473ffffffffffffffffffffffffffffffffffffffff1673ffffffffffffffffffffffffffffffffffffffff166108fc349081150290604051600060405180830381858888f1935050505015801561115a573d6000803e3d6000fd5b507f4195fd9cd5f571cf9d14b2376c60201465a986f4a0469cebf0f0ee1d3e2022ab60008089815260200190815260200160002060010160009054906101000a900473ffffffffffffffffffffffffffffffffffffffff166000808a8152602001908152602001600020600301546000808b8152602001908152602001600020600701546111e891906154d3565b6040516111f692919061563e565b60405180910390a1600260008089815260200190815260200160002060100160016101000a81548160ff0219169083600281111561123757611236614a9f565b5b021790555042600080898152602001908152602001600020600f01819055507ff2baea2668e36a27a898b8c745decb4439ff61ae04d545dcc6954b84bd3e3c4287604051611285919061522c565b60405180910390a150505050505050565b8160008082815260200190815260200160002060010160009054906101000a900473ffffffffffffffffffffffffffffffffffffffff1673ffffffffffffffffffffffffffffffffffffffff163373ffffffffffffffffffffffffffffffffffffffff161461133a576040517f08c379a0000000000000000000000000000000000000000000000000000000008152600401611331906156d9565b60405180910390fd5b8260038060078111156113505761134f614a9f565b5b60008084815260200190815260200160002060100160009054906101000a900460ff16600781111561138557611384614a9f565b5b146113c5576040517f08c379a00000000000000000000000000000000000000000000000000000000081526004016113bc90615418565b60405180910390fd5b8460008060028111156113db576113da614a9f565b5b60008084815260200190815260200160002060100160019054906101000a900460ff1660028111156114105761140f614a9f565b5b14611450576040517f08c379a000000000000000000000000000000000000000000000000000000000815260040161144790615484565b60405180910390fd5b42600080898152602001908152602001600020600a018190555085600080898152602001908152602001600020600d0190805190602001906114939291906147c6565b5061149d87614513565b15611bbb5760008088815260200190815260200160002060030154600080898152602001908152602001600020600701541161180f5760008088815260200190815260200160002060010160009054906101000a900473ffffffffffffffffffffffffffffffffffffffff1673ffffffffffffffffffffffffffffffffffffffff166108fc6000808a8152602001908152602001600020600201546000808b81526020019081526020016000206007015461155891906156f9565b9081150290604051600060405180830381858888f19350505050158015611583573d6000803e3d6000fd5b507f4195fd9cd5f571cf9d14b2376c60201465a986f4a0469cebf0f0ee1d3e2022ab60008089815260200190815260200160002060010160009054906101000a900473ffffffffffffffffffffffffffffffffffffffff166000808a8152602001908152602001600020600201546000808b81526020019081526020016000206007015461161191906156f9565b60405161161f92919061563e565b60405180910390a160008088815260200190815260200160002060000160009054906101000a900473ffffffffffffffffffffffffffffffffffffffff1673ffffffffffffffffffffffffffffffffffffffff166108fc6000808a8152602001908152602001600020600301546000808b8152602001908152602001600020600701546116ac91906154d3565b9081150290604051600060405180830381858888f193505050501580156116d7573d6000803e3d6000fd5b507fb56ab0c8ca3c4a2f3256c9dab1834145295ed481d85fd1afde56ff8c7298c3ec60008089815260200190815260200160002060000160009054906101000a900473ffffffffffffffffffffffffffffffffffffffff166000808a8152602001908152602001600020600301546000808b81526020019081526020016000206007015461176591906154d3565b60405161177392919061563e565b60405180910390a1600260008089815260200190815260200160002060100160016101000a81548160ff021916908360028111156117b4576117b3614a9f565b5b021790555042600080898152602001908152602001600020600f01819055507ff2baea2668e36a27a898b8c745decb4439ff61ae04d545dcc6954b84bd3e3c4287604051611802919061522c565b60405180910390a1611a2a565b60008088815260200190815260200160002060010160009054906101000a900473ffffffffffffffffffffffffffffffffffffffff1673ffffffffffffffffffffffffffffffffffffffff166108fc6000808a8152602001908152602001600020600201546000808b81526020019081526020016000206003015461189491906156f9565b9081150290604051600060405180830381858888f193505050501580156118bf573d6000803e3d6000fd5b507f4195fd9cd5f571cf9d14b2376c60201465a986f4a0469cebf0f0ee1d3e2022ab60008089815260200190815260200160002060010160009054906101000a900473ffffffffffffffffffffffffffffffffffffffff166000808a8152602001908152602001600020600201546000808b81526020019081526020016000206003015461194d91906156f9565b60405161195b92919061563e565b60405180910390a1600160008089815260200190815260200160002060100160016101000a81548160ff0219169083600281111561199c5761199b614a9f565b5b021790555042600080898152602001908152602001600020600f01819055507f0e94573b1be2e52f56af2fa73f97395af190b00bf516b0e90356c3619c4cdf7c876000808a8152602001908152602001600020600301546000808b815260200190815260200160002060070154611a1391906154d3565b604051611a2192919061574f565b60405180910390a15b600660008089815260200190815260200160002060100160006101000a81548160ff02191690836007811115611a6357611a62614a9f565b5b021790555042600080898152602001908152602001600020600f01819055507f97393f84209d4b691fab1bc833d0efe882710cb7867c2724b6991eb74567b05c87604051611ab1919061522c565b60405180910390a16001600260008060008b815260200190815260200160002060010160009054906101000a900473ffffffffffffffffffffffffffffffffffffffff1673ffffffffffffffffffffffffffffffffffffffff1673ffffffffffffffffffffffffffffffffffffffff1681526020019081526020016000206000016000828254611b4191906156f9565b925050819055507ff79072e0f370bb188b7c4d34ae8a5c9138b891e5df7cfa7ca412b518d30aaf7560008089815260200190815260200160002060010160009054906101000a900473ffffffffffffffffffffffffffffffffffffffff1688604051611bae929190615778565b60405180910390a1611e9c565b60008088815260200190815260200160002060000160009054906101000a900473ffffffffffffffffffffffffffffffffffffffff1673ffffffffffffffffffffffffffffffffffffffff166108fc6000808a8152602001908152602001600020600201546000808b815260200190815260200160002060030154611c4091906156f9565b9081150290604051600060405180830381858888f19350505050158015611c6b573d6000803e3d6000fd5b507fb56ab0c8ca3c4a2f3256c9dab1834145295ed481d85fd1afde56ff8c7298c3ec60008089815260200190815260200160002060000160009054906101000a900473ffffffffffffffffffffffffffffffffffffffff166000808a8152602001908152602001600020600201546000808b815260200190815260200160002060030154611cf991906156f9565b604051611d0792919061563e565b60405180910390a1600760008089815260200190815260200160002060100160006101000a81548160ff02191690836007811115611d4857611d47614a9f565b5b021790555042600080898152602001908152602001600020600f01819055507fa09cb3265c52882b0a36102438c66b242bf2e45c2ebdf91b9448afb52438276087604051611d96919061522c565b60405180910390a16001600260008060008b815260200190815260200160002060010160009054906101000a900473ffffffffffffffffffffffffffffffffffffffff1673ffffffffffffffffffffffffffffffffffffffff1673ffffffffffffffffffffffffffffffffffffffff1681526020019081526020016000206001016000828254611e2691906156f9565b925050819055507f3fec1177d25f324e1beb970cd60f8b52ef1e47290a72bdb8f62101720f5e492760008089815260200190815260200160002060010160009054906101000a900473ffffffffffffffffffffffffffffffffffffffff1688604051611e93929190615778565b60405180910390a15b50505050505050565b8360008082815260200190815260200160002060010160009054906101000a900473ffffffffffffffffffffffffffffffffffffffff1673ffffffffffffffffffffffffffffffffffffffff163373ffffffffffffffffffffffffffffffffffffffff1614611f49576040517f08c379a0000000000000000000000000000000000000000000000000000000008152600401611f40906156d9565b60405180910390fd5b846002806007811115611f5f57611f5e614a9f565b5b60008084815260200190815260200160002060100160009054906101000a900460ff166007811115611f9457611f93614a9f565b5b14611fd4576040517f08c379a0000000000000000000000000000000000000000000000000000000008152600401611fcb90615418565b60405180910390fd5b83600080898152602001908152602001600020600901819055508460008089815260200190815260200160002060060181905550612011876145f9565b801561202357506120228787614686565b5b1561210b57600080888152602001908152602001600020600601546000808981526020019081526020016000206005015461205e91906157a1565b60008089815260200190815260200160002060070181905550600360008089815260200190815260200160002060100160006101000a81548160ff021916908360078111156120b0576120af614a9f565b5b021790555042600080898152602001908152602001600020600f01819055507f4176d26ab2247b0b92e698330257544613ee9100fad5c65d61aec36a2a877b7d876040516120fe919061522c565b60405180910390a16123ec565b60008088815260200190815260200160002060000160009054906101000a900473ffffffffffffffffffffffffffffffffffffffff1673ffffffffffffffffffffffffffffffffffffffff166108fc6000808a8152602001908152602001600020600201546000808b81526020019081526020016000206003015461219091906156f9565b9081150290604051600060405180830381858888f193505050501580156121bb573d6000803e3d6000fd5b507fb56ab0c8ca3c4a2f3256c9dab1834145295ed481d85fd1afde56ff8c7298c3ec60008089815260200190815260200160002060000160009054906101000a900473ffffffffffffffffffffffffffffffffffffffff166000808a8152602001908152602001600020600201546000808b81526020019081526020016000206003015461224991906156f9565b60405161225792919061563e565b60405180910390a16001600260008060008b815260200190815260200160002060010160009054906101000a900473ffffffffffffffffffffffffffffffffffffffff1673ffffffffffffffffffffffffffffffffffffffff1673ffffffffffffffffffffffffffffffffffffffff16815260200190815260200160002060010160008282546122e791906156f9565b925050819055507f3fec1177d25f324e1beb970cd60f8b52ef1e47290a72bdb8f62101720f5e492760008089815260200190815260200160002060010160009054906101000a900473ffffffffffffffffffffffffffffffffffffffff1688604051612354929190615778565b60405180910390a1600460008089815260200190815260200160002060100160006101000a81548160ff0219169083600781111561239557612394614a9f565b5b021790555042600080898152602001908152602001600020600f01819055507f1feb95f113fd9e6280236d043c8da4ca59e052f4783ce6a83f261c1aaa865b17876040516123e3919061522c565b60405180910390a15b50505050505050565b8060008082815260200190815260200160002060000160009054906101000a900473ffffffffffffffffffffffffffffffffffffffff1673ffffffffffffffffffffffffffffffffffffffff163373ffffffffffffffffffffffffffffffffffffffff1614612499576040517f08c379a0000000000000000000000000000000000000000000000000000000008152600401612490906153ac565b60405180910390fd5b8160028060078111156124af576124ae614a9f565b5b60008084815260200190815260200160002060100160009054906101000a900460ff1660078111156124e4576124e3614a9f565b5b14612524576040517f08c379a000000000000000000000000000000000000000000000000000000000815260040161251b90615418565b60405180910390fd5b600080858152602001908152602001600020600401546000808681526020019081526020016000206008015461255a91906156f9565b421161259b576040517f08c379a000000000000000000000000000000000000000000000000000000000815260040161259290615847565b60405180910390fd5b600560008086815260200190815260200160002060100160006101000a81548160ff021916908360078111156125d4576125d3614a9f565b5b021790555060008085815260200190815260200160002060000160009054906101000a900473ffffffffffffffffffffffffffffffffffffffff1673ffffffffffffffffffffffffffffffffffffffff166108fc600080878152602001908152602001600020600201546000808881526020019081526020016000206003015461265e91906156f9565b9081150290604051600060405180830381858888f19350505050158015612689573d6000803e3d6000fd5b5042600080868152602001908152602001600020600f01819055507fb56ab0c8ca3c4a2f3256c9dab1834145295ed481d85fd1afde56ff8c7298c3ec60008086815260200190815260200160002060000160009054906101000a900473ffffffffffffffffffffffffffffffffffffffff16600080878152602001908152602001600020600201546000808881526020019081526020016000206003015461273191906156f9565b60405161273f92919061563e565b60405180910390a17fa07d0b7132fa6b208a063af8026a29c1fa7ea1f98ffc9682615585318a6b25d684604051612776919061522c565b60405180910390a150505050565b6000806000838152602001908152602001600020600f01549050919050565b6060600080838152602001908152602001600020600b0180546127c590615308565b80601f01602080910402602001604051908101604052809291908181526020018280546127f190615308565b801561283e5780601f106128135761010080835404028352916020019161283e565b820191906000526020600020905b81548152906001019060200180831161282157829003601f168201915b50505050509050919050565b6000806000838152602001908152602001600020600801549050919050565b8661287381610b50565b156128b3576040517f08c379a00000000000000000000000000000000000000000000000000000000081526004016128aa906158b3565b60405180910390fd5b6002866128c091906157a1565b341015612902576040517f08c379a00000000000000000000000000000000000000000000000000000000081526004016128f99061591f565b60405180910390fd5b336000808a815260200190815260200160002060000160006101000a81548173ffffffffffffffffffffffffffffffffffffffff021916908373ffffffffffffffffffffffffffffffffffffffff160217905550346000808a815260200190815260200160002060030181905550866000808a815260200190815260200160002060010160006101000a81548173ffffffffffffffffffffffffffffffffffffffff021916908373ffffffffffffffffffffffffffffffffffffffff160217905550600a866129d191906157a1565b6000808a815260200190815260200160002060020181905550856000808a815260200190815260200160002060050181905550846000808a815260200190815260200160002060040181905550836000808a8152602001908152602001600020600e0181905550826000808a8152602001908152602001600020600c019080519060200190612a619291906147c6565b50816000808a8152602001908152602001600020600b019080519060200190612a8b9291906147c6565b5060008060008a815260200190815260200160002060100160006101000a81548160ff02191690836007811115612ac557612ac4614a9f565b5b021790555060008060008a815260200190815260200160002060100160016101000a81548160ff02191690836002811115612b0357612b02614a9f565b5b0217905550426000808a8152602001908152602001600020600f018190555060018890806001815401808255809150506001900390600052602060002001600090919091909150557f1e28175955a872c8252a6e5cf36ac6b318d074eb78b49731e5cb9ddc2d870b6388604051612b7a919061522c565b60405180910390a15050505050505050565b60608160008082815260200190815260200160002060000160009054906101000a900473ffffffffffffffffffffffffffffffffffffffff1673ffffffffffffffffffffffffffffffffffffffff163373ffffffffffffffffffffffffffffffffffffffff161480612c5e575060008082815260200190815260200160002060010160009054906101000a900473ffffffffffffffffffffffffffffffffffffffff1673ffffffffffffffffffffffffffffffffffffffff163373ffffffffffffffffffffffffffffffffffffffff16145b80612cb457507f000000000000000000000000000000000000000000000000000000000000000073ffffffffffffffffffffffffffffffffffffffff163373ffffffffffffffffffffffffffffffffffffffff16145b612cf3576040517f08c379a0000000000000000000000000000000000000000000000000000000008152600401612cea906159b1565b60405180910390fd5b600060405180602001604052806000815250905060006007811115612d1b57612d1a614a9f565b5b60008086815260200190815260200160002060100160009054906101000a900460ff166007811115612d5057612d4f614a9f565b5b1415612d93576040518060400160405280600781526020017f437265617465640000000000000000000000000000000000000000000000000081525090506131a6565b60016007811115612da757612da6614a9f565b5b60008086815260200190815260200160002060100160009054906101000a900460ff166007811115612ddc57612ddb614a9f565b5b1415612e1f576040518060400160405280600981526020017f43616e63656c6c6564000000000000000000000000000000000000000000000081525090506131a5565b60026007811115612e3357612e32614a9f565b5b60008086815260200190815260200160002060100160009054906101000a900460ff166007811115612e6857612e67614a9f565b5b1415612eab576040518060400160405280600681526020017f416374697665000000000000000000000000000000000000000000000000000081525090506131a4565b60036007811115612ebf57612ebe614a9f565b5b60008086815260200190815260200160002060100160009054906101000a900460ff166007811115612ef457612ef3614a9f565b5b1415612f37576040518060400160405280601581526020017f436f6d706c657465645375636365737366756c6c79000000000000000000000081525090506131a3565b60046007811115612f4b57612f4a614a9f565b5b60008086815260200190815260200160002060100160009054906101000a900460ff166007811115612f8057612f7f614a9f565b5b1415612fc3576040518060400160405280601781526020017f436f6d706c65746564556e7375636365737366756c6c7900000000000000000081525090506131a2565b60056007811115612fd757612fd6614a9f565b5b60008086815260200190815260200160002060100160009054906101000a900460ff16600781111561300c5761300b614a9f565b5b141561304f576040518060400160405280600781526020017f496e76616c69640000000000000000000000000000000000000000000000000081525090506131a1565b6006600781111561306357613062614a9f565b5b60008086815260200190815260200160002060100160009054906101000a900460ff16600781111561309857613097614a9f565b5b14156130db576040518060400160405280601b81526020017f526573756c747352656365697665645375636365737366756c6c79000000000081525090506131a0565b6007808111156130ee576130ed614a9f565b5b60008086815260200190815260200160002060100160009054906101000a900460ff16600781111561312357613122614a9f565b5b1415613166576040518060400160405280601d81526020017f526573756c74735265636569766564556e7375636365737366756c6c79000000815250905061319f565b6040518060400160405280600581526020017f4572726f7200000000000000000000000000000000000000000000000000000081525090505b5b5b5b5b5b5b5b8092505050919050565b60007f0000000000000000000000000000000000000000000000000000000000000000905090565b8060008082815260200190815260200160002060010160009054906101000a900473ffffffffffffffffffffffffffffffffffffffff1673ffffffffffffffffffffffffffffffffffffffff163373ffffffffffffffffffffffffffffffffffffffff161461327c576040517f08c379a0000000000000000000000000000000000000000000000000000000008152600401613273906156d9565b60405180910390fd5b81600080600781111561329257613291614a9f565b5b60008084815260200190815260200160002060100160009054906101000a900460ff1660078111156132c7576132c6614a9f565b5b14613307576040517f08c379a00000000000000000000000000000000000000000000000000000000081526004016132fe90615418565b60405180910390fd5b8361331181610b50565b613350576040517f08c379a000000000000000000000000000000000000000000000000000000000815260040161334790615a1d565b60405180910390fd5b600080868152602001908152602001600020600201543410156133a8576040517f08c379a000000000000000000000000000000000000000000000000000000000815260040161339f90615aaf565b60405180910390fd5b42600080878152602001908152602001600020600801819055503460008087815260200190815260200160002060020181905550600260008087815260200190815260200160002060100160006101000a81548160ff0219169083600781111561341557613414614a9f565b5b021790555042600080878152602001908152602001600020600f01819055507fce708d6b67215419755514077f148edc2ee99fe51d758948ee62feea825d703885604051613463919061522c565b60405180910390a15050505050565b60608160008082815260200190815260200160002060000160009054906101000a900473ffffffffffffffffffffffffffffffffffffffff1673ffffffffffffffffffffffffffffffffffffffff163373ffffffffffffffffffffffffffffffffffffffff161480613544575060008082815260200190815260200160002060010160009054906101000a900473ffffffffffffffffffffffffffffffffffffffff1673ffffffffffffffffffffffffffffffffffffffff163373ffffffffffffffffffffffffffffffffffffffff16145b8061359a57507f000000000000000000000000000000000000000000000000000000000000000073ffffffffffffffffffffffffffffffffffffffff163373ffffffffffffffffffffffffffffffffffffffff16145b6135d9576040517f08c379a00000000000000000000000000000000000000000000000000000000081526004016135d0906159b1565b60405180910390fd5b60006040518060200160405280600081525090506000600281111561360157613600614a9f565b5b60008086815260200190815260200160002060100160019054906101000a900460ff16600281111561363657613635614a9f565b5b1415613679576040518060400160405280600b81526020017f496e697469616c697a656400000000000000000000000000000000000000000081525090506137cb565b6001600281111561368d5761368c614a9f565b5b60008086815260200190815260200160002060100160019054906101000a900460ff1660028111156136c2576136c1614a9f565b5b1415613705576040518060400160405280600781526020017f50656e64696e670000000000000000000000000000000000000000000000000081525090506137ca565b60028081111561371857613717614a9f565b5b60008086815260200190815260200160002060100160019054906101000a900460ff16600281111561374d5761374c614a9f565b5b1415613790576040518060400160405280600981526020017f436f6d706c65746564000000000000000000000000000000000000000000000081525090506137c9565b6040518060400160405280600581526020017f4572726f7200000000000000000000000000000000000000000000000000000081525090505b5b5b8092505050919050565b60008160008082815260200190815260200160002060000160009054906101000a900473ffffffffffffffffffffffffffffffffffffffff1673ffffffffffffffffffffffffffffffffffffffff163373ffffffffffffffffffffffffffffffffffffffff1614806138a7575060008082815260200190815260200160002060010160009054906101000a900473ffffffffffffffffffffffffffffffffffffffff1673ffffffffffffffffffffffffffffffffffffffff163373ffffffffffffffffffffffffffffffffffffffff16145b806138fd57507f000000000000000000000000000000000000000000000000000000000000000073ffffffffffffffffffffffffffffffffffffffff163373ffffffffffffffffffffffffffffffffffffffff16145b61393c576040517f08c379a0000000000000000000000000000000000000000000000000000000008152600401613933906159b1565b60405180910390fd5b60008084815260200190815260200160002060070154915050919050565b7f000000000000000000000000000000000000000000000000000000000000000073ffffffffffffffffffffffffffffffffffffffff163373ffffffffffffffffffffffffffffffffffffffff16146139e8576040517f08c379a00000000000000000000000000000000000000000000000000000000081526004016139df906152b9565b60405180910390fd5b60005b600180549050811015613e0157600060018281548110613a0e57613a0d615acf565b5b9060005260206000200154905060066007811115613a2f57613a2e614a9f565b5b60008083815260200190815260200160002060100160009054906101000a900460ff166007811115613a6457613a63614a9f565b5b148015613ab65750600280811115613a7f57613a7e614a9f565b5b60008083815260200190815260200160002060100160019054906101000a900460ff166002811115613ab457613ab3614a9f565b5b145b80613b065750600780811115613acf57613ace614a9f565b5b60008083815260200190815260200160002060100160009054906101000a900460ff166007811115613b0457613b03614a9f565b5b145b80613b57575060046007811115613b2057613b1f614a9f565b5b60008083815260200190815260200160002060100160009054906101000a900460ff166007811115613b5557613b54614a9f565b5b145b80613ba8575060016007811115613b7157613b70614a9f565b5b60008083815260200190815260200160002060100160009054906101000a900460ff166007811115613ba657613ba5614a9f565b5b145b80613bf9575060056007811115613bc257613bc1614a9f565b5b60008083815260200190815260200160002060100160009054906101000a900460ff166007811115613bf757613bf6614a9f565b5b145b8015613c255750603c600080838152602001908152602001600020600f0154613c2291906156f9565b42115b15613ded57600080828152602001908152602001600020600080820160006101000a81549073ffffffffffffffffffffffffffffffffffffffff02191690556001820160006101000a81549073ffffffffffffffffffffffffffffffffffffffff021916905560028201600090556003820160009055600482016000905560058201600090556006820160009055600782016000905560088201600090556009820160009055600a820160009055600b82016000613ce3919061484c565b600c82016000613cf3919061484c565b600d82016000613d03919061484c565b600e820160009055600f8201600090556010820160006101000a81549060ff02191690556010820160016101000a81549060ff021916905550506001808080549050613d4f91906154d3565b81548110613d6057613d5f615acf565b5b906000526020600020015460018381548110613d7f57613d7e615acf565b5b90600052602060002001819055506001805480613d9f57613d9e615afe565b5b600190038181906000526020600020016000905590557fa96209878fc4722b56527db6cf4b72ad6bfddb3ad9968f7de1125d02acc9aa1081604051613de4919061522c565b60405180910390a15b508080613df990615b2d565b9150506139eb565b50565b60018181548110613e1457600080fd5b906000526020600020016000915090505481565b7f000000000000000000000000000000000000000000000000000000000000000073ffffffffffffffffffffffffffffffffffffffff163373ffffffffffffffffffffffffffffffffffffffff1614613eb6576040517f08c379a0000000000000000000000000000000000000000000000000000000008152600401613ead906152b9565b60405180910390fd5b80613ec081610b50565b613eff576040517f08c379a0000000000000000000000000000000000000000000000000000000008152600401613ef690615a1d565b60405180910390fd5b600080838152602001908152602001600020600080820160006101000a81549073ffffffffffffffffffffffffffffffffffffffff02191690556001820160006101000a81549073ffffffffffffffffffffffffffffffffffffffff021916905560028201600090556003820160009055600482016000905560058201600090556006820160009055600782016000905560088201600090556009820160009055600a820160009055600b82016000613fb8919061484c565b600c82016000613fc8919061484c565b600d82016000613fd8919061484c565b600e820160009055600f8201600090556010820160006101000a81549060ff02191690556010820160016101000a81549060ff021916905550507fa96209878fc4722b56527db6cf4b72ad6bfddb3ad9968f7de1125d02acc9aa1082604051614041919061522c565b60405180910390a15050565b60008160008082815260200190815260200160002060000160009054906101000a900473ffffffffffffffffffffffffffffffffffffffff1673ffffffffffffffffffffffffffffffffffffffff163373ffffffffffffffffffffffffffffffffffffffff16148061411f575060008082815260200190815260200160002060010160009054906101000a900473ffffffffffffffffffffffffffffffffffffffff1673ffffffffffffffffffffffffffffffffffffffff163373ffffffffffffffffffffffffffffffffffffffff16145b8061417557507f000000000000000000000000000000000000000000000000000000000000000073ffffffffffffffffffffffffffffffffffffffff163373ffffffffffffffffffffffffffffffffffffffff16145b6141b4576040517f08c379a00000000000000000000000000000000000000000000000000000000081526004016141ab906159b1565b60405180910390fd5b6000808481526020019081526020016000206003015460008085815260200190815260200160002060070154111561422357600080848152602001908152602001600020600301546000808581526020019081526020016000206007015461421c91906154d3565b9150614228565b600091505b50919050565b8060008082815260200190815260200160002060000160009054906101000a900473ffffffffffffffffffffffffffffffffffffffff1673ffffffffffffffffffffffffffffffffffffffff163373ffffffffffffffffffffffffffffffffffffffff16146142d2576040517f08c379a00000000000000000000000000000000000000000000000000000000081526004016142c9906153ac565b60405180910390fd5b8160008060078111156142e8576142e7614a9f565b5b60008084815260200190815260200160002060100160009054906101000a900460ff16600781111561431d5761431c614a9f565b5b1461435d576040517f08c379a000000000000000000000000000000000000000000000000000000000815260040161435490615418565b60405180910390fd5b600160008086815260200190815260200160002060100160006101000a81548160ff0219169083600781111561439657614395614a9f565b5b021790555060008085815260200190815260200160002060000160009054906101000a900473ffffffffffffffffffffffffffffffffffffffff1673ffffffffffffffffffffffffffffffffffffffff166108fc600080878152602001908152602001600020600301549081150290604051600060405180830381858888f1935050505015801561442b573d6000803e3d6000fd5b5042600080868152602001908152602001600020600f01819055507fb56ab0c8ca3c4a2f3256c9dab1834145295ed481d85fd1afde56ff8c7298c3ec60008086815260200190815260200160002060000160009054906101000a900473ffffffffffffffffffffffffffffffffffffffff16600080878152602001908152602001600020600301546040516144c192919061563e565b60405180910390a17fe1e1d79b8f28d3379fc32f617eaf54dd6bd4071074c77e91134770e04a81d626846040516144f8919061522c565b60405180910390a150505050565b6000600180549050905090565b60006102586000808481526020019081526020016000206009015461453891906156f9565b600080848152602001908152602001600020600a015411158015614586575060008083815260200190815260200160002060090154600080848152602001908152602001600020600a015410155b80156145bc575060008083815260200190815260200160002060080154600080848152602001908152602001600020600a015410155b80156145f25750600080838152602001908152602001600020600801546000808481526020019081526020016000206009015410155b9050919050565b6000806000838152602001908152602001600020600401546000808481526020019081526020016000206008015461463191906156f9565b600080848152602001908152602001600020600901541115801561467f5750600080838152602001908152602001600020600401546000808481526020019081526020016000206006015411155b9050919050565b6000816040516020016146999190615bb2565b60405160208183030381529060405280519060200120600080858152602001908152602001600020600e015414905092915050565b604051806102400160405280600073ffffffffffffffffffffffffffffffffffffffff168152602001600073ffffffffffffffffffffffffffffffffffffffff16815260200160008152602001600081526020016000815260200160008152602001600081526020016000815260200160008152602001600081526020016000815260200160608152602001606081526020016060815260200160008019168152602001600081526020016000600781111561478d5761478c614a9f565b5b8152602001600060028111156147a6576147a5614a9f565b5b81525090565b604051806040016040528060008152602001600081525090565b8280546147d290615308565b90600052602060002090601f0160209004810192826147f4576000855561483b565b82601f1061480d57805160ff191683800117855561483b565b8280016001018555821561483b579182015b8281111561483a57825182559160200191906001019061481f565b5b509050614848919061488c565b5090565b50805461485890615308565b6000825580601f1061486a5750614889565b601f016020900490600052602060002090810190614888919061488c565b5b50565b5b808211156148a557600081600090555060010161488d565b5090565b600082825260208201905092915050565b7f6261642063616c6c000000000000000000000000000000000000000000000000600082015250565b60006148f06008836148a9565b91506148fb826148ba565b602082019050919050565b6000602082019050818103600083015261491f816148e3565b9050919050565b6000604051905090565b600080fd5b600080fd5b6000819050919050565b61494d8161493a565b811461495857600080fd5b50565b60008135905061496a81614944565b92915050565b60006020828403121561498657614985614930565b5b60006149948482850161495b565b91505092915050565b600073ffffffffffffffffffffffffffffffffffffffff82169050919050565b60006149c88261499d565b9050919050565b6149d8816149bd565b82525050565b6000819050919050565b6149f1816149de565b82525050565b600081519050919050565b600082825260208201905092915050565b60005b83811015614a31578082015181840152602081019050614a16565b83811115614a40576000848401525b50505050565b6000601f19601f8301169050919050565b6000614a62826149f7565b614a6c8185614a02565b9350614a7c818560208601614a13565b614a8581614a46565b840191505092915050565b614a998161493a565b82525050565b7f4e487b7100000000000000000000000000000000000000000000000000000000600052602160045260246000fd5b60088110614adf57614ade614a9f565b5b50565b6000819050614af082614ace565b919050565b6000614b0082614ae2565b9050919050565b614b1081614af5565b82525050565b60038110614b2757614b26614a9f565b5b50565b6000819050614b3882614b16565b919050565b6000614b4882614b2a565b9050919050565b614b5881614b3d565b82525050565b600061024083016000830151614b7760008601826149cf565b506020830151614b8a60208601826149cf565b506040830151614b9d60408601826149e8565b506060830151614bb060608601826149e8565b506080830151614bc360808601826149e8565b5060a0830151614bd660a08601826149e8565b5060c0830151614be960c08601826149e8565b5060e0830151614bfc60e08601826149e8565b50610100830151614c116101008601826149e8565b50610120830151614c266101208601826149e8565b50610140830151614c3b6101408601826149e8565b50610160830151848203610160860152614c558282614a57565b915050610180830151848203610180860152614c718282614a57565b9150506101a08301518482036101a0860152614c8d8282614a57565b9150506101c0830151614ca46101c0860182614a90565b506101e0830151614cb96101e08601826149e8565b50610200830151614cce610200860182614b07565b50610220830151614ce3610220860182614b4f565b508091505092915050565b60006020820190508181036000830152614d088184614b5e565b905092915050565b6000614d1b8261499d565b9050919050565b614d2b81614d10565b8114614d3657600080fd5b50565b600081359050614d4881614d22565b92915050565b600060208284031215614d6457614d63614930565b5b6000614d7284828501614d39565b91505092915050565b604082016000820151614d9160008501826149e8565b506020820151614da460208501826149e8565b50505050565b6000604082019050614dbf6000830184614d7b565b92915050565b6000614dd0826149f7565b614dda81856148a9565b9350614dea818560208601614a13565b614df381614a46565b840191505092915050565b60006020820190508181036000830152614e188184614dc5565b905092915050565b60008115159050919050565b614e3581614e20565b82525050565b6000602082019050614e506000830184614e2c565b92915050565b600080fd5b600080fd5b7f4e487b7100000000000000000000000000000000000000000000000000000000600052604160045260246000fd5b614e9882614a46565b810181811067ffffffffffffffff82111715614eb757614eb6614e60565b5b80604052505050565b6000614eca614926565b9050614ed68282614e8f565b919050565b600067ffffffffffffffff821115614ef657614ef5614e60565b5b614eff82614a46565b9050602081019050919050565b82818337600083830152505050565b6000614f2e614f2984614edb565b614ec0565b905082815260208101848484011115614f4a57614f49614e5b565b5b614f55848285614f0c565b509392505050565b600082601f830112614f7257614f71614e56565b5b8135614f82848260208601614f1b565b91505092915050565b60008060408385031215614fa257614fa1614930565b5b6000614fb08582860161495b565b925050602083013567ffffffffffffffff811115614fd157614fd0614935565b5b614fdd85828601614f5d565b9150509250929050565b614ff0816149de565b8114614ffb57600080fd5b50565b60008135905061500d81614fe7565b92915050565b6000806000806080858703121561502d5761502c614930565b5b600061503b8782880161495b565b945050602085013567ffffffffffffffff81111561505c5761505b614935565b5b61506887828801614f5d565b935050604061507987828801614ffe565b925050606061508a87828801614ffe565b91505092959194509250565b61509f816149de565b82525050565b60006020820190506150ba6000830184615096565b92915050565b6150c9816149bd565b81146150d457600080fd5b50565b6000813590506150e6816150c0565b92915050565b600080600080600080600060e0888a03121561510b5761510a614930565b5b60006151198a828b0161495b565b975050602061512a8a828b016150d7565b965050604061513b8a828b01614ffe565b955050606061514c8a828b01614ffe565b945050608061515d8a828b0161495b565b93505060a088013567ffffffffffffffff81111561517e5761517d614935565b5b61518a8a828b01614f5d565b92505060c088013567ffffffffffffffff8111156151ab576151aa614935565b5b6151b78a828b01614f5d565b91505092959891949750929550565b6151cf81614d10565b82525050565b60006020820190506151ea60008301846151c6565b92915050565b60006020828403121561520657615205614930565b5b600061521484828501614ffe565b91505092915050565b6152268161493a565b82525050565b6000602082019050615241600083018461521d565b92915050565b7f4d6574686f642063616e2062652063616c6c6564206f6e6c79206279206f776e60008201527f65722e0000000000000000000000000000000000000000000000000000000000602082015250565b60006152a36023836148a9565b91506152ae82615247565b604082019050919050565b600060208201905081810360008301526152d281615296565b9050919050565b7f4e487b7100000000000000000000000000000000000000000000000000000000600052602260045260246000fd5b6000600282049050600182168061532057607f821691505b60208210811415615334576153336152d9565b5b50919050565b7f4d6574686f642063616e2062652063616c6c6564206f6e6c7920627920636c6960008201527f656e742e00000000000000000000000000000000000000000000000000000000602082015250565b60006153966024836148a9565b91506153a18261533a565b604082019050919050565b600060208201905081810360008301526153c581615389565b9050919050565b7f496e76616c6964205461736b53746174652e0000000000000000000000000000600082015250565b60006154026012836148a9565b915061540d826153cc565b602082019050919050565b60006020820190508181036000830152615431816153f5565b9050919050565b7f496e76616c6964205061796d656e7453746174652e0000000000000000000000600082015250565b600061546e6015836148a9565b915061547982615438565b602082019050919050565b6000602082019050818103600083015261549d81615461565b9050919050565b7f4e487b7100000000000000000000000000000000000000000000000000000000600052601160045260246000fd5b60006154de826149de565b91506154e9836149de565b9250828210156154fc576154fb6154a4565b5b828203905092915050565b7f56616c75652073656e74206973206e6f74207468652065787065637465640000600082015250565b600061553d601e836148a9565b915061554882615507565b602082019050919050565b6000602082019050818103600083015261556c81615530565b9050919050565b7f5061796d656e74206e6f74206e65656465640000000000000000000000000000600082015250565b60006155a96012836148a9565b91506155b482615573565b602082019050919050565b600060208201905081810360008301526155d88161559c565b9050919050565b6000819050919050565b60006156046155ff6155fa8461499d565b6155df565b61499d565b9050919050565b6000615616826155e9565b9050919050565b60006156288261560b565b9050919050565b6156388161561d565b82525050565b6000604082019050615653600083018561562f565b6156606020830184615096565b9392505050565b7f4d6574686f642063616e2062652063616c6c6564206f6e6c792062792070726f60008201527f76696465722e0000000000000000000000000000000000000000000000000000602082015250565b60006156c36026836148a9565b91506156ce82615667565b604082019050919050565b600060208201905081810360008301526156f2816156b6565b9050919050565b6000615704826149de565b915061570f836149de565b9250827fffffffffffffffffffffffffffffffffffffffffffffffffffffffffffffffff03821115615744576157436154a4565b5b828201905092915050565b6000604082019050615764600083018561521d565b6157716020830184615096565b9392505050565b600060408201905061578d600083018561562f565b61579a602083018461521d565b9392505050565b60006157ac826149de565b91506157b7836149de565b9250817fffffffffffffffffffffffffffffffffffffffffffffffffffffffffffffffff04831182151516156157f0576157ef6154a4565b5b828202905092915050565b7f54696d6520686173206e6f7420657870697265642e0000000000000000000000600082015250565b60006158316015836148a9565b915061583c826157fb565b602082019050919050565b6000602082019050818103600083015261586081615824565b9050919050565b7f5461736b20616c72656164792065786973747300000000000000000000000000600082015250565b600061589d6013836148a9565b91506158a882615867565b602082019050919050565b600060208201905081810360008301526158cc81615890565b9050919050565b7f436c69656e7420636f6c6c61746572616c206973206e6f7420656e6f75676800600082015250565b6000615909601f836148a9565b9150615914826158d3565b602082019050919050565b60006020820190508181036000830152615938816158fc565b9050919050565b7f4d6574686f642063616e2062652063616c6c6564206f6e6c7920627920636c6960008201527f656e742c2070726f7669646572206f7220746865206f776e65722e0000000000602082015250565b600061599b603b836148a9565b91506159a68261593f565b604082019050919050565b600060208201905081810360008301526159ca8161598e565b9050919050565b7f5461736b206d7573742062652072656769737465726564000000000000000000600082015250565b6000615a076017836148a9565b9150615a12826159d1565b602082019050919050565b60006020820190508181036000830152615a36816159fa565b9050919050565b7f50726f766964657220636f6c6c61746572616c206973206e6f7420656e6f756760008201527f6800000000000000000000000000000000000000000000000000000000000000602082015250565b6000615a996021836148a9565b9150615aa482615a3d565b604082019050919050565b60006020820190508181036000830152615ac881615a8c565b9050919050565b7f4e487b7100000000000000000000000000000000000000000000000000000000600052603260045260246000fd5b7f4e487b7100000000000000000000000000000000000000000000000000000000600052603160045260246000fd5b6000615b38826149de565b91507fffffffffffffffffffffffffffffffffffffffffffffffffffffffffffffffff821415615b6b57615b6a6154a4565b5b600182019050919050565b600081905092915050565b6000615b8c826149f7565b615b968185615b76565b9350615ba6818560208601614a13565b80840191505092915050565b6000615bbe8284615b81565b91508190509291505056fea26469706673582212209a27c8599f54567a8721f958b393aeb3ba326ff02b7a0534d2eea1d04259ee0564736f6c63430008080033",
  "devdoc": {
    "kind": "dev",
    "methods": {},
    "version": 1
  },
  "userdoc": {
    "kind": "user",
    "methods": {},
    "version": 1
  },
  "storageLayout": {
    "storage": [
      {
        "astId": 65,
        "contract": "contracts/TasksManager.sol:TasksManager",
        "label": "tasks",
        "offset": 0,
        "slot": "0",
        "type": "t_mapping(t_bytes32,t_struct(Task)55_storage)"
      },
      {
        "astId": 68,
        "contract": "contracts/TasksManager.sol:TasksManager",
        "label": "bytes32_tasks",
        "offset": 0,
        "slot": "1",
        "type": "t_array(t_bytes32)dyn_storage"
      },
      {
        "astId": 73,
        "contract": "contracts/TasksManager.sol:TasksManager",
        "label": "performance",
        "offset": 0,
        "slot": "2",
        "type": "t_mapping(t_address,t_struct(providerRating)60_storage)"
      }
    ],
    "types": {
      "t_address": {
        "encoding": "inplace",
        "label": "address",
        "numberOfBytes": "20"
      },
      "t_address_payable": {
        "encoding": "inplace",
        "label": "address payable",
        "numberOfBytes": "20"
      },
      "t_array(t_bytes32)dyn_storage": {
        "base": "t_bytes32",
        "encoding": "dynamic_array",
        "label": "bytes32[]",
        "numberOfBytes": "32"
      },
      "t_bytes32": {
        "encoding": "inplace",
        "label": "bytes32",
        "numberOfBytes": "32"
      },
      "t_enum(PaymentState)16": {
        "encoding": "inplace",
        "label": "enum TasksManager.PaymentState",
        "numberOfBytes": "1"
      },
      "t_enum(TaskState)12": {
        "encoding": "inplace",
        "label": "enum TasksManager.TaskState",
        "numberOfBytes": "1"
      },
      "t_mapping(t_address,t_struct(providerRating)60_storage)": {
        "encoding": "mapping",
        "key": "t_address",
        "label": "mapping(address => struct TasksManager.providerRating)",
        "numberOfBytes": "32",
        "value": "t_struct(providerRating)60_storage"
      },
      "t_mapping(t_bytes32,t_struct(Task)55_storage)": {
        "encoding": "mapping",
        "key": "t_bytes32",
        "label": "mapping(bytes32 => struct TasksManager.Task)",
        "numberOfBytes": "32",
        "value": "t_struct(Task)55_storage"
      },
      "t_string_storage": {
        "encoding": "bytes",
        "label": "string",
        "numberOfBytes": "32"
      },
      "t_struct(Task)55_storage": {
        "encoding": "inplace",
        "label": "struct TasksManager.Task",
        "members": [
          {
            "astId": 18,
            "contract": "contracts/TasksManager.sol:TasksManager",
            "label": "client",
            "offset": 0,
            "slot": "0",
            "type": "t_address_payable"
          },
          {
            "astId": 20,
            "contract": "contracts/TasksManager.sol:TasksManager",
            "label": "provider",
            "offset": 0,
            "slot": "1",
            "type": "t_address_payable"
          },
          {
            "astId": 22,
            "contract": "contracts/TasksManager.sol:TasksManager",
            "label": "providerCollateral",
            "offset": 0,
            "slot": "2",
            "type": "t_uint256"
          },
          {
            "astId": 24,
            "contract": "contracts/TasksManager.sol:TasksManager",
            "label": "clientCollateral",
            "offset": 0,
            "slot": "3",
            "type": "t_uint256"
          },
          {
            "astId": 26,
            "contract": "contracts/TasksManager.sol:TasksManager",
            "label": "deadline",
            "offset": 0,
            "slot": "4",
            "type": "t_uint256"
          },
          {
            "astId": 28,
            "contract": "contracts/TasksManager.sol:TasksManager",
            "label": "price",
            "offset": 0,
            "slot": "5",
            "type": "t_uint256"
          },
          {
            "astId": 30,
            "contract": "contracts/TasksManager.sol:TasksManager",
            "label": "duration",
            "offset": 0,
            "slot": "6",
            "type": "t_uint256"
          },
          {
            "astId": 32,
            "contract": "contracts/TasksManager.sol:TasksManager",
            "label": "cost",
            "offset": 0,
            "slot": "7",
            "type": "t_uint256"
          },
          {
            "astId": 34,
            "contract": "contracts/TasksManager.sol:TasksManager",
            "label": "activationTime",
            "offset": 0,
            "slot": "8",
            "type": "t_uint256"
          },
          {
            "astId": 36,
            "contract": "contracts/TasksManager.sol:TasksManager",
            "label": "timeResultProvided",
            "offset": 0,
            "slot": "9",
            "type": "t_uint256"
          },
          {
            "astId": 38,
            "contract": "contracts/TasksManager.sol:TasksManager",
            "label": "timeResultReceived",
            "offset": 0,
            "slot": "10",
            "type": "t_uint256"
          },
          {
            "astId": 40,
            "contract": "contracts/TasksManager.sol:TasksManager",
            "label": "computationCode",
            "offset": 0,
            "slot": "11",
            "type": "t_string_storage"
          },
          {
            "astId": 42,
            "contract": "contracts/TasksManager.sol:TasksManager",
            "label": "verificationCode",
            "offset": 0,
            "slot": "12",
            "type": "t_string_storage"
          },
          {
            "astId": 44,
            "contract": "contracts/TasksManager.sol:TasksManager",
            "label": "results",
            "offset": 0,
            "slot": "13",
            "type": "t_string_storage"
          },
          {
            "astId": 46,
            "contract": "contracts/TasksManager.sol:TasksManager",
            "label": "clientVerification",
            "offset": 0,
            "slot": "14",
            "type": "t_bytes32"
          },
          {
            "astId": 48,
            "contract": "contracts/TasksManager.sol:TasksManager",
            "label": "lastUpdateTimestamp",
            "offset": 0,
            "slot": "15",
            "type": "t_uint256"
          },
          {
            "astId": 51,
            "contract": "contracts/TasksManager.sol:TasksManager",
            "label": "taskState",
            "offset": 0,
            "slot": "16",
            "type": "t_enum(TaskState)12"
          },
          {
            "astId": 54,
            "contract": "contracts/TasksManager.sol:TasksManager",
            "label": "paymentState",
            "offset": 1,
            "slot": "16",
            "type": "t_enum(PaymentState)16"
          }
        ],
        "numberOfBytes": "544"
      },
      "t_struct(providerRating)60_storage": {
        "encoding": "inplace",
        "label": "struct TasksManager.providerRating",
        "members": [
          {
            "astId": 57,
            "contract": "contracts/TasksManager.sol:TasksManager",
            "label": "upVotes",
            "offset": 0,
            "slot": "0",
            "type": "t_uint256"
          },
          {
            "astId": 59,
            "contract": "contracts/TasksManager.sol:TasksManager",
            "label": "downVotes",
            "offset": 0,
            "slot": "1",
            "type": "t_uint256"
          }
        ],
        "numberOfBytes": "64"
      },
      "t_uint256": {
        "encoding": "inplace",
        "label": "uint256",
        "numberOfBytes": "32"
      }
    }
  }
}