{
  "address": "0xe30D32eb9ACEf681F3ffE465e3A0C85398BEE80d",
  "abi": [
    {
      "inputs": [],
      "stateMutability": "nonpayable",
      "type": "constructor"
    },
    {
      "inputs": [],
      "name": "NotCalledByAuction",
      "type": "error"
    },
    {
      "inputs": [],
      "name": "NotCalledByClient",
      "type": "error"
    },
    {
      "inputs": [],
      "name": "NotCalledByOwner",
      "type": "error"
    },
    {
      "inputs": [],
      "name": "NotCalledByProvider",
      "type": "error"
    },
    {
      "inputs": [
        {
          "internalType": "uint256",
          "name": "correctValue",
          "type": "uint256"
        },
        {
          "internalType": "uint256",
          "name": "receivedValue",
          "type": "uint256"
        }
      ],
      "name": "NotCorrectValue",
      "type": "error"
    },
    {
      "inputs": [
        {
          "internalType": "enum TasksManager.PaymentState",
          "name": "paymentState",
          "type": "uint8"
        }
      ],
      "name": "PaymentNotInState",
      "type": "error"
    },
    {
      "inputs": [],
      "name": "TaskAlreadyExists",
      "type": "error"
    },
    {
      "inputs": [],
      "name": "TaskDoesNotExist",
      "type": "error"
    },
    {
      "inputs": [
        {
          "internalType": "enum TasksManager.TaskState",
          "name": "taskState",
          "type": "uint8"
        }
      ],
      "name": "TaskNotInState",
      "type": "error"
    },
    {
      "anonymous": false,
      "inputs": [
        {
          "indexed": false,
          "internalType": "bytes32",
          "name": "taskID",
          "type": "bytes32"
        },
        {
          "indexed": false,
          "internalType": "address",
          "name": "client",
          "type": "address"
        },
        {
          "indexed": false,
          "internalType": "address",
          "name": "provider",
          "type": "address"
        }
      ],
      "name": "PaymentCompleted",
      "type": "event"
    },
    {
      "anonymous": false,
      "inputs": [
        {
          "indexed": false,
          "internalType": "bytes32",
          "name": "taskID",
          "type": "bytes32"
        },
        {
          "indexed": false,
          "internalType": "address",
          "name": "client",
          "type": "address"
        },
        {
          "indexed": false,
          "internalType": "address",
          "name": "provider",
          "type": "address"
        },
        {
          "indexed": false,
          "internalType": "uint256",
          "name": "payment",
          "type": "uint256"
        }
      ],
      "name": "PaymentPending",
      "type": "event"
    },
    {
      "anonymous": false,
      "inputs": [
        {
          "indexed": false,
          "internalType": "address",
          "name": "provider",
          "type": "address"
        },
        {
          "indexed": false,
          "internalType": "bytes32",
          "name": "taskID",
          "type": "bytes32"
        }
      ],
      "name": "ProviderDownvoted",
      "type": "event"
    },
    {
      "anonymous": false,
      "inputs": [
        {
          "indexed": false,
          "internalType": "address",
          "name": "provider",
          "type": "address"
        },
        {
          "indexed": false,
          "internalType": "bytes32",
          "name": "taskID",
          "type": "bytes32"
        }
      ],
      "name": "ProviderUpvoted",
      "type": "event"
    },
    {
      "anonymous": false,
      "inputs": [
        {
          "indexed": false,
          "internalType": "bytes32",
          "name": "taskID",
          "type": "bytes32"
        },
        {
          "indexed": false,
          "internalType": "address",
          "name": "client",
          "type": "address"
        },
        {
          "indexed": false,
          "internalType": "address",
          "name": "provider",
          "type": "address"
        }
      ],
      "name": "TaskActivated",
      "type": "event"
    },
    {
      "anonymous": false,
      "inputs": [
        {
          "indexed": false,
          "internalType": "bytes32",
          "name": "taskID",
          "type": "bytes32"
        },
        {
          "indexed": false,
          "internalType": "address",
          "name": "client",
          "type": "address"
        },
        {
          "indexed": false,
          "internalType": "address",
          "name": "provider",
          "type": "address"
        }
      ],
      "name": "TaskCancelled",
      "type": "event"
    },
    {
      "anonymous": false,
      "inputs": [
        {
          "indexed": false,
          "internalType": "bytes32",
          "name": "taskID",
          "type": "bytes32"
        },
        {
          "indexed": false,
          "internalType": "address",
          "name": "client",
          "type": "address"
        },
        {
          "indexed": false,
          "internalType": "address",
          "name": "provider",
          "type": "address"
        }
      ],
      "name": "TaskCompletedSuccessfully",
      "type": "event"
    },
    {
      "anonymous": false,
      "inputs": [
        {
          "indexed": false,
          "internalType": "bytes32",
          "name": "taskID",
          "type": "bytes32"
        },
        {
          "indexed": false,
          "internalType": "address",
          "name": "client",
          "type": "address"
        },
        {
          "indexed": false,
          "internalType": "address",
          "name": "provider",
          "type": "address"
        }
      ],
      "name": "TaskCompletedUnsuccessfully",
      "type": "event"
    },
    {
      "anonymous": false,
      "inputs": [
        {
          "indexed": false,
          "internalType": "bytes32",
          "name": "taskID",
          "type": "bytes32"
        },
        {
          "indexed": false,
          "internalType": "address",
          "name": "client",
          "type": "address"
        },
        {
          "indexed": false,
          "internalType": "address",
          "name": "provider",
          "type": "address"
        }
      ],
      "name": "TaskCreated",
      "type": "event"
    },
    {
      "anonymous": false,
      "inputs": [
        {
          "indexed": false,
          "internalType": "bytes32",
          "name": "taskID",
          "type": "bytes32"
        }
      ],
      "name": "TaskDeleted",
      "type": "event"
    },
    {
      "anonymous": false,
      "inputs": [
        {
          "indexed": false,
          "internalType": "bytes32",
          "name": "taskID",
          "type": "bytes32"
        },
        {
          "indexed": false,
          "internalType": "address",
          "name": "client",
          "type": "address"
        },
        {
          "indexed": false,
          "internalType": "address",
          "name": "provider",
          "type": "address"
        }
      ],
      "name": "TaskInvalidated",
      "type": "event"
    },
    {
      "anonymous": false,
      "inputs": [
        {
          "indexed": false,
          "internalType": "bytes32",
          "name": "taskID",
          "type": "bytes32"
        },
        {
          "indexed": false,
          "internalType": "address",
          "name": "client",
          "type": "address"
        },
        {
          "indexed": false,
          "internalType": "address",
          "name": "provider",
          "type": "address"
        }
      ],
      "name": "TaskReceivedResultsSuccessfully",
      "type": "event"
    },
    {
      "anonymous": false,
      "inputs": [
        {
          "indexed": false,
          "internalType": "bytes32",
          "name": "taskID",
          "type": "bytes32"
        },
        {
          "indexed": false,
          "internalType": "address",
          "name": "client",
          "type": "address"
        },
        {
          "indexed": false,
          "internalType": "address",
          "name": "provider",
          "type": "address"
        }
      ],
      "name": "TaskReceivedResultsUnsuccessfully",
      "type": "event"
    },
    {
      "anonymous": false,
      "inputs": [
        {
          "indexed": false,
          "internalType": "address",
          "name": "client",
          "type": "address"
        },
        {
          "indexed": false,
          "internalType": "uint256",
          "name": "amount",
          "type": "uint256"
        }
      ],
      "name": "TransferMadeToClient",
      "type": "event"
    },
    {
      "anonymous": false,
      "inputs": [
        {
          "indexed": false,
          "internalType": "address",
          "name": "provider",
          "type": "address"
        },
        {
          "indexed": false,
          "internalType": "uint256",
          "name": "amount",
          "type": "uint256"
        }
      ],
      "name": "TransferMadeToProvider",
      "type": "event"
    },
    {
      "stateMutability": "payable",
      "type": "fallback"
    },
    {
      "inputs": [
        {
          "internalType": "bytes32",
          "name": "_taskID",
          "type": "bytes32"
        }
      ],
      "name": "activateTask",
      "outputs": [],
      "stateMutability": "payable",
      "type": "function"
    },
    {
      "inputs": [
        {
          "internalType": "bytes32",
          "name": "_taskID",
          "type": "bytes32"
        }
      ],
      "name": "cancelTask",
      "outputs": [],
      "stateMutability": "nonpayable",
      "type": "function"
    },
    {
      "inputs": [
        {
          "internalType": "bytes32",
          "name": "_taskID",
          "type": "bytes32"
        }
      ],
      "name": "completePayment",
      "outputs": [],
      "stateMutability": "payable",
      "type": "function"
    },
    {
      "inputs": [
        {
          "internalType": "bytes32",
          "name": "_taskID",
          "type": "bytes32"
        },
        {
          "internalType": "string",
          "name": "ver",
          "type": "string"
        },
        {
          "internalType": "uint256",
          "name": "_duration",
          "type": "uint256"
        },
        {
          "internalType": "uint256",
          "name": "_timeReceivedProvider",
          "type": "uint256"
        }
      ],
      "name": "completeTask",
      "outputs": [],
      "stateMutability": "nonpayable",
      "type": "function"
    },
    {
      "inputs": [
        {
          "internalType": "bytes32",
          "name": "_taskID",
          "type": "bytes32"
        },
        {
          "internalType": "address",
          "name": "_client",
          "type": "address"
        },
        {
          "internalType": "address",
          "name": "_provider",
          "type": "address"
        },
        {
          "internalType": "uint256",
          "name": "_price",
          "type": "uint256"
        },
        {
          "internalType": "uint256",
          "name": "_deadline",
          "type": "uint256"
        },
        {
          "internalType": "bytes32",
          "name": "_clientVerification",
          "type": "bytes32"
        },
        {
          "internalType": "string",
          "name": "_code",
          "type": "string"
        }
      ],
      "name": "createTask",
      "outputs": [],
      "stateMutability": "payable",
      "type": "function"
    },
    {
      "inputs": [
        {
          "internalType": "bytes32",
          "name": "_taskID",
          "type": "bytes32"
        }
      ],
      "name": "deleteTask",
      "outputs": [],
      "stateMutability": "nonpayable",
      "type": "function"
    },
    {
      "inputs": [],
      "name": "getAuctionAddress",
      "outputs": [
        {
          "internalType": "address",
          "name": "",
          "type": "address"
        }
      ],
      "stateMutability": "view",
      "type": "function"
    },
    {
      "inputs": [],
      "name": "getBank",
      "outputs": [
        {
          "internalType": "uint256",
          "name": "",
          "type": "uint256"
        }
      ],
      "stateMutability": "view",
      "type": "function"
    },
    {
      "inputs": [
        {
          "internalType": "bytes32",
          "name": "_taskID",
          "type": "bytes32"
        }
      ],
      "name": "getClientCollateral",
      "outputs": [
        {
          "internalType": "uint256",
          "name": "",
          "type": "uint256"
        }
      ],
      "stateMutability": "view",
      "type": "function"
    },
    {
      "inputs": [
        {
          "internalType": "bytes32",
          "name": "_taskID",
          "type": "bytes32"
        }
      ],
      "name": "getCode",
      "outputs": [
        {
          "internalType": "string",
          "name": "",
          "type": "string"
        }
      ],
      "stateMutability": "view",
      "type": "function"
    },
    {
      "inputs": [],
      "name": "getOwner",
      "outputs": [
        {
          "internalType": "address",
          "name": "",
          "type": "address"
        }
      ],
      "stateMutability": "view",
      "type": "function"
    },
    {
      "inputs": [
        {
          "internalType": "address",
          "name": "provider",
          "type": "address"
        }
      ],
      "name": "getPerformance",
      "outputs": [
        {
          "components": [
            {
              "internalType": "uint256",
              "name": "upVotes",
              "type": "uint256"
            },
            {
              "internalType": "uint256",
              "name": "downVotes",
              "type": "uint256"
            }
          ],
          "internalType": "struct TasksManager.providerRating",
          "name": "",
          "type": "tuple"
        }
      ],
      "stateMutability": "view",
      "type": "function"
    },
    {
      "inputs": [
        {
          "internalType": "bytes32",
          "name": "_taskID",
          "type": "bytes32"
        }
      ],
      "name": "getProviderCollateral",
      "outputs": [
        {
          "internalType": "uint256",
          "name": "",
          "type": "uint256"
        }
      ],
      "stateMutability": "view",
      "type": "function"
    },
    {
      "inputs": [
        {
          "internalType": "bytes32",
          "name": "_taskID",
          "type": "bytes32"
        }
      ],
      "name": "getResults",
      "outputs": [
        {
          "internalType": "string",
          "name": "",
          "type": "string"
        }
      ],
      "stateMutability": "view",
      "type": "function"
    },
    {
      "inputs": [],
      "name": "getTasks",
      "outputs": [
        {
          "components": [
            {
              "internalType": "bytes32",
              "name": "taskID",
              "type": "bytes32"
            },
            {
              "internalType": "address payable",
              "name": "client",
              "type": "address"
            },
            {
              "internalType": "address payable",
              "name": "provider",
              "type": "address"
            },
            {
              "internalType": "uint256",
              "name": "deadline",
              "type": "uint256"
            },
            {
              "internalType": "uint256",
              "name": "price",
              "type": "uint256"
            },
            {
              "internalType": "uint256",
              "name": "duration",
              "type": "uint256"
            },
            {
              "internalType": "uint256",
              "name": "cost",
              "type": "uint256"
            },
            {
              "internalType": "uint256",
              "name": "activationTime",
              "type": "uint256"
            },
            {
              "internalType": "uint256",
              "name": "completionTime",
              "type": "uint256"
            },
            {
              "internalType": "string",
              "name": "code",
              "type": "string"
            },
            {
              "internalType": "string",
              "name": "results",
              "type": "string"
            },
            {
              "internalType": "bytes32",
              "name": "clientVerification",
              "type": "bytes32"
            },
            {
              "internalType": "enum TasksManager.TaskState",
              "name": "taskState",
              "type": "uint8"
            },
            {
              "internalType": "enum TasksManager.PaymentState",
              "name": "paymentState",
              "type": "uint8"
            }
          ],
          "internalType": "struct TasksManager.Task[]",
          "name": "",
          "type": "tuple[]"
        }
      ],
      "stateMutability": "view",
      "type": "function"
    },
    {
      "inputs": [],
      "name": "getTasksByClient",
      "outputs": [
        {
          "components": [
            {
              "internalType": "bytes32",
              "name": "taskID",
              "type": "bytes32"
            },
            {
              "internalType": "address payable",
              "name": "client",
              "type": "address"
            },
            {
              "internalType": "address payable",
              "name": "provider",
              "type": "address"
            },
            {
              "internalType": "uint256",
              "name": "deadline",
              "type": "uint256"
            },
            {
              "internalType": "uint256",
              "name": "price",
              "type": "uint256"
            },
            {
              "internalType": "uint256",
              "name": "duration",
              "type": "uint256"
            },
            {
              "internalType": "uint256",
              "name": "cost",
              "type": "uint256"
            },
            {
              "internalType": "uint256",
              "name": "activationTime",
              "type": "uint256"
            },
            {
              "internalType": "uint256",
              "name": "completionTime",
              "type": "uint256"
            },
            {
              "internalType": "string",
              "name": "code",
              "type": "string"
            },
            {
              "internalType": "string",
              "name": "results",
              "type": "string"
            },
            {
              "internalType": "bytes32",
              "name": "clientVerification",
              "type": "bytes32"
            },
            {
              "internalType": "enum TasksManager.TaskState",
              "name": "taskState",
              "type": "uint8"
            },
            {
              "internalType": "enum TasksManager.PaymentState",
              "name": "paymentState",
              "type": "uint8"
            }
          ],
          "internalType": "struct TasksManager.Task[]",
          "name": "",
          "type": "tuple[]"
        }
      ],
      "stateMutability": "view",
      "type": "function"
    },
    {
      "inputs": [],
      "name": "getTasksByProvider",
      "outputs": [
        {
          "components": [
            {
              "internalType": "bytes32",
              "name": "taskID",
              "type": "bytes32"
            },
            {
              "internalType": "address payable",
              "name": "client",
              "type": "address"
            },
            {
              "internalType": "address payable",
              "name": "provider",
              "type": "address"
            },
            {
              "internalType": "uint256",
              "name": "deadline",
              "type": "uint256"
            },
            {
              "internalType": "uint256",
              "name": "price",
              "type": "uint256"
            },
            {
              "internalType": "uint256",
              "name": "duration",
              "type": "uint256"
            },
            {
              "internalType": "uint256",
              "name": "cost",
              "type": "uint256"
            },
            {
              "internalType": "uint256",
              "name": "activationTime",
              "type": "uint256"
            },
            {
              "internalType": "uint256",
              "name": "completionTime",
              "type": "uint256"
            },
            {
              "internalType": "string",
              "name": "code",
              "type": "string"
            },
            {
              "internalType": "string",
              "name": "results",
              "type": "string"
            },
            {
              "internalType": "bytes32",
              "name": "clientVerification",
              "type": "bytes32"
            },
            {
              "internalType": "enum TasksManager.TaskState",
              "name": "taskState",
              "type": "uint8"
            },
            {
              "internalType": "enum TasksManager.PaymentState",
              "name": "paymentState",
              "type": "uint8"
            }
          ],
          "internalType": "struct TasksManager.Task[]",
          "name": "",
          "type": "tuple[]"
        }
      ],
      "stateMutability": "view",
      "type": "function"
    },
    {
      "inputs": [
        {
          "internalType": "bytes32",
          "name": "_taskID",
          "type": "bytes32"
        }
      ],
      "name": "invalidateTask",
      "outputs": [],
      "stateMutability": "nonpayable",
      "type": "function"
    },
    {
      "inputs": [
        {
          "internalType": "bytes32",
          "name": "_taskID",
          "type": "bytes32"
        },
        {
          "internalType": "string",
          "name": "_results",
          "type": "string"
        }
      ],
      "name": "sendResults",
      "outputs": [],
      "stateMutability": "nonpayable",
      "type": "function"
    },
    {
      "inputs": [
        {
          "internalType": "address",
          "name": "_auctionAddress",
          "type": "address"
        }
      ],
      "name": "setAuctionsManager",
      "outputs": [],
      "stateMutability": "nonpayable",
      "type": "function"
    },
    {
      "inputs": [
        {
          "internalType": "uint256",
          "name": "amount",
          "type": "uint256"
        }
      ],
      "name": "withdraw",
      "outputs": [],
      "stateMutability": "nonpayable",
      "type": "function"
    },
    {
      "stateMutability": "payable",
      "type": "receive"
    }
  ],
  "transactionHash": "0x55e8f6bb372c2d2289c69de584cf397811fbfc25d077ac0d48910a4f85117b56",
  "args": [],
  "numDeployments": 9,
  "solcInputHash": "6d6258c5498b6d8704a8e5887e493123",
  "bytecode": "0x60a0604052600060015534801561001557600080fd5b503373ffffffffffffffffffffffffffffffffffffffff1660808173ffffffffffffffffffffffffffffffffffffffff1660601b8152505060805160601c615a8a6200009d6000396000818161051d01528181610b2e01528181610bfe015281816132d70152818161350d0152818161353501528181613c490152613d110152615a8a6000f3fe60806040526004361061012e5760003560e01c806360d704db116100ab57806392b833201161006f57806392b833201461041a5780639800725514610436578063e64f15a21461045f578063e8fe6b6614610488578063ec3b24f2146104c5578063ee8ca3b5146104f05761016e565b806360d704db14610340578063668b1baa1461036b578063893d20e8146103a85780638b9ca885146103d35780638fb15168146103fe5761016e565b806346475c4c116100f257806346475c4c1461026c57806347ca8a8b146102a95780634b017c7a146102c5578063513a6698146102ee57806354706b5a146103175761016e565b806304a87e38146101735780630b817e241461019e5780631ecc9aaf146101db5780632e1a7d4d146102185780632f3c0162146102415761016e565b3661016e576040517f08c379a000000000000000000000000000000000000000000000000000000000815260040161016590614c6f565b60405180910390fd5b600080fd5b34801561017f57600080fd5b50610188610519565b6040516101959190615051565b60405180910390f35b3480156101aa57600080fd5b506101c560048036038101906101c091906150b3565b610919565b6040516101d291906150ef565b60405180910390f35b3480156101e757600080fd5b5061020260048036038101906101fd9190615148565b610abf565b60405161020f91906151a4565b60405180910390f35b34801561022457600080fd5b5061023f600480360381019061023a91906151eb565b610b2c565b005b34801561024d57600080fd5b50610256610c7f565b6040516102639190615051565b60405180910390f35b34801561027857600080fd5b50610293600480360381019061028e91906150b3565b611144565b6040516102a09190615251565b60405180910390f35b6102c360048036038101906102be91906150b3565b6113f3565b005b3480156102d157600080fd5b506102ec60048036038101906102e791906153a8565b6118db565b005b3480156102fa57600080fd5b5061031560048036038101906103109190615404565b6127a0565b005b34801561032357600080fd5b5061033e600480360381019061033991906150b3565b612eb8565b005b34801561034c57600080fd5b506103556132d3565b60405161036291906150ef565b60405180910390f35b34801561037757600080fd5b50610392600480360381019061038d91906150b3565b613362565b60405161039f91906150ef565b60405180910390f35b3480156103b457600080fd5b506103bd613509565b6040516103ca9190615496565b60405180910390f35b3480156103df57600080fd5b506103e8613531565b6040516103f59190615496565b60405180910390f35b610418600480360381019061041391906154b1565b6135de565b005b610434600480360381019061042f91906150b3565b61393f565b005b34801561044257600080fd5b5061045d60048036038101906104589190615148565b613c47565b005b34801561046b57600080fd5b50610486600480360381019061048191906150b3565b613d0f565b005b34801561049457600080fd5b506104af60048036038101906104aa91906150b3565b613fd6565b6040516104bc9190615251565b60405180910390f35b3480156104d157600080fd5b506104da6141f9565b6040516104e79190615051565b60405180910390f35b3480156104fc57600080fd5b50610517600480360381019061051291906150b3565b6146be565b005b60607f000000000000000000000000000000000000000000000000000000000000000073ffffffffffffffffffffffffffffffffffffffff163373ffffffffffffffffffffffffffffffffffffffff16146105a0576040517f82593d3000000000000000000000000000000000000000000000000000000000815260040160405180910390fd5b600060038054905067ffffffffffffffff8111156105c1576105c061527d565b5b6040519080825280602002602001820160405280156105fa57816020015b6105e7614a50565b8152602001906001900390816105df5790505b50905060005b6003805490508110156109115760026000600383815481106106255761062461556f565b5b90600052602060002001548152602001908152602001600020604051806101c0016040529081600082015481526020016001820160009054906101000a900473ffffffffffffffffffffffffffffffffffffffff1673ffffffffffffffffffffffffffffffffffffffff1673ffffffffffffffffffffffffffffffffffffffff1681526020016002820160009054906101000a900473ffffffffffffffffffffffffffffffffffffffff1673ffffffffffffffffffffffffffffffffffffffff1673ffffffffffffffffffffffffffffffffffffffff16815260200160038201548152602001600482015481526020016005820154815260200160068201548152602001600782015481526020016008820154815260200160098201805461074c906155cd565b80601f0160208091040260200160405190810160405280929190818152602001828054610778906155cd565b80156107c55780601f1061079a576101008083540402835291602001916107c5565b820191906000526020600020905b8154815290600101906020018083116107a857829003601f168201915b50505050508152602001600a820180546107de906155cd565b80601f016020809104026020016040519081016040528092919081815260200182805461080a906155cd565b80156108575780601f1061082c57610100808354040283529160200191610857565b820191906000526020600020905b81548152906001019060200180831161083a57829003601f168201915b50505050508152602001600b8201548152602001600c820160009054906101000a900460ff16600781111561088f5761088e614dc7565b5b60078111156108a1576108a0614dc7565b5b8152602001600c820160019054906101000a900460ff1660028111156108ca576108c9614dc7565b5b60028111156108dc576108db614dc7565b5b815250508282815181106108f3576108f261556f565b5b602002602001018190525080806109099061562e565b915050610600565b508091505090565b60008060001b6002600084815260200190815260200160002060000154141561096e576040517fda319dff00000000000000000000000000000000000000000000000000000000815260040160405180910390fd5b6002600083815260200190815260200160002060010160009054906101000a900473ffffffffffffffffffffffffffffffffffffffff1673ffffffffffffffffffffffffffffffffffffffff163373ffffffffffffffffffffffffffffffffffffffff1614610a09576040517f1117923b00000000000000000000000000000000000000000000000000000000815260040160405180910390fd5b60006007811115610a1d57610a1c614dc7565b5b60026000848152602001908152602001600020600c0160009054906101000a900460ff166007811115610a5357610a52614dc7565b5b14610a965760006040517f0bb377be000000000000000000000000000000000000000000000000000000008152600401610a8d9190615686565b60405180910390fd5b600280600084815260200190815260200160002060040154610ab891906156a1565b9050919050565b610ac7614b15565b600460008373ffffffffffffffffffffffffffffffffffffffff1673ffffffffffffffffffffffffffffffffffffffff168152602001908152602001600020604051806040016040529081600082015481526020016001820154815250509050919050565b7f000000000000000000000000000000000000000000000000000000000000000073ffffffffffffffffffffffffffffffffffffffff163373ffffffffffffffffffffffffffffffffffffffff1614610bb1576040517f82593d3000000000000000000000000000000000000000000000000000000000815260040160405180910390fd5b600154811115610bfc57600154816040517f558b78b8000000000000000000000000000000000000000000000000000000008152600401610bf39291906156fb565b60405180910390fd5b7f000000000000000000000000000000000000000000000000000000000000000073ffffffffffffffffffffffffffffffffffffffff166108fc829081150290604051600060405180830381858888f19350505050158015610c62573d6000803e3d6000fd5b508060016000828254610c759190615724565b9250508190555050565b6060600060038054905067ffffffffffffffff811115610ca257610ca161527d565b5b604051908082528060200260200182016040528015610cdb57816020015b610cc8614a50565b815260200190600190039081610cc05790505b5090506000805b60038054905081101561108a573373ffffffffffffffffffffffffffffffffffffffff166002600060038481548110610d1e57610d1d61556f565b5b9060005260206000200154815260200190815260200160002060020160009054906101000a900473ffffffffffffffffffffffffffffffffffffffff1673ffffffffffffffffffffffffffffffffffffffff161415611077576002600060038381548110610d8f57610d8e61556f565b5b90600052602060002001548152602001908152602001600020604051806101c0016040529081600082015481526020016001820160009054906101000a900473ffffffffffffffffffffffffffffffffffffffff1673ffffffffffffffffffffffffffffffffffffffff1673ffffffffffffffffffffffffffffffffffffffff1681526020016002820160009054906101000a900473ffffffffffffffffffffffffffffffffffffffff1673ffffffffffffffffffffffffffffffffffffffff1673ffffffffffffffffffffffffffffffffffffffff168152602001600382015481526020016004820154815260200160058201548152602001600682015481526020016007820154815260200160088201548152602001600982018054610eb6906155cd565b80601f0160208091040260200160405190810160405280929190818152602001828054610ee2906155cd565b8015610f2f5780601f10610f0457610100808354040283529160200191610f2f565b820191906000526020600020905b815481529060010190602001808311610f1257829003601f168201915b50505050508152602001600a82018054610f48906155cd565b80601f0160208091040260200160405190810160405280929190818152602001828054610f74906155cd565b8015610fc15780601f10610f9657610100808354040283529160200191610fc1565b820191906000526020600020905b815481529060010190602001808311610fa457829003601f168201915b50505050508152602001600b8201548152602001600c820160009054906101000a900460ff166007811115610ff957610ff8614dc7565b5b600781111561100b5761100a614dc7565b5b8152602001600c820160019054906101000a900460ff16600281111561103457611033614dc7565b5b600281111561104657611045614dc7565b5b8152505083838151811061105d5761105c61556f565b5b602002602001018190525081806110739061562e565b9250505b80806110829061562e565b915050610ce2565b5060008167ffffffffffffffff8111156110a7576110a661527d565b5b6040519080825280602002602001820160405280156110e057816020015b6110cd614a50565b8152602001906001900390816110c55790505b50905060005b8281101561113a578381815181106111015761110061556f565b5b602002602001015182828151811061111c5761111b61556f565b5b602002602001018190525080806111329061562e565b9150506110e6565b5080935050505090565b60606000801b60026000848152602001908152602001600020600001541415611199576040517fda319dff00000000000000000000000000000000000000000000000000000000815260040160405180910390fd5b6002600083815260200190815260200160002060010160009054906101000a900473ffffffffffffffffffffffffffffffffffffffff1673ffffffffffffffffffffffffffffffffffffffff163373ffffffffffffffffffffffffffffffffffffffff1614611234576040517f1117923b00000000000000000000000000000000000000000000000000000000815260040160405180910390fd5b6006600781111561124857611247614dc7565b5b60026000848152602001908152602001600020600c0160009054906101000a900460ff16600781111561127e5761127d614dc7565b5b146112c15760066040517f0bb377be0000000000000000000000000000000000000000000000000000000081526004016112b89190615686565b60405180910390fd5b6002808111156112d4576112d3614dc7565b5b60026000848152602001908152602001600020600c0160019054906101000a900460ff16600281111561130a57611309614dc7565b5b1461134d5760026040517f13e912fb0000000000000000000000000000000000000000000000000000000081526004016113449190615767565b60405180910390fd5b60026000838152602001908152602001600020600a01805461136e906155cd565b80601f016020809104026020016040519081016040528092919081815260200182805461139a906155cd565b80156113e75780601f106113bc576101008083540402835291602001916113e7565b820191906000526020600020905b8154815290600101906020018083116113ca57829003601f168201915b50505050509050919050565b6000801b60026000838152602001908152602001600020600001541415611446576040517fda319dff00000000000000000000000000000000000000000000000000000000815260040160405180910390fd5b6002600082815260200190815260200160002060010160009054906101000a900473ffffffffffffffffffffffffffffffffffffffff1673ffffffffffffffffffffffffffffffffffffffff163373ffffffffffffffffffffffffffffffffffffffff16146114e1576040517f1117923b00000000000000000000000000000000000000000000000000000000815260040160405180910390fd5b60028060008381526020019081526020016000206004015461150391906156a1565b60026000838152602001908152602001600020600601546115249190615724565b34146115ab5760028060008381526020019081526020016000206004015461154c91906156a1565b600260008381526020019081526020016000206006015461156d9190615724565b346040517f558b78b80000000000000000000000000000000000000000000000000000000081526004016115a29291906156fb565b60405180910390fd5b600660078111156115bf576115be614dc7565b5b60026000838152602001908152602001600020600c0160009054906101000a900460ff1660078111156115f5576115f4614dc7565b5b146116385760066040517f0bb377be00000000000000000000000000000000000000000000000000000000815260040161162f9190615686565b60405180910390fd5b6001600281111561164c5761164b614dc7565b5b60026000838152602001908152602001600020600c0160019054906101000a900460ff16600281111561168257611681614dc7565b5b146116c55760016040517f13e912fb0000000000000000000000000000000000000000000000000000000081526004016116bc9190615767565b60405180910390fd5b6002600082815260200190815260200160002060020160009054906101000a900473ffffffffffffffffffffffffffffffffffffffff1673ffffffffffffffffffffffffffffffffffffffff166108fc349081150290604051600060405180830381858888f19350505050158015611741573d6000803e3d6000fd5b507f4195fd9cd5f571cf9d14b2376c60201465a986f4a0469cebf0f0ee1d3e2022ab6002600083815260200190815260200160002060020160009054906101000a900473ffffffffffffffffffffffffffffffffffffffff166002806000858152602001908152602001600020600401546117bc91906156a1565b60026000858152602001908152602001600020600601546117dd9190615724565b6040516117eb9291906157e1565b60405180910390a16002806000838152602001908152602001600020600c0160016101000a81548160ff0219169083600281111561182c5761182b614dc7565b5b02179055507f890aa03cb2eb1db116152827f7a61a8f43080718ac119d21644158c5df9131c9816002600084815260200190815260200160002060010160009054906101000a900473ffffffffffffffffffffffffffffffffffffffff166002600085815260200190815260200160002060020160009054906101000a900473ffffffffffffffffffffffffffffffffffffffff166040516118d093929190615819565b60405180910390a150565b6000801b6002600084815260200190815260200160002060000154141561192e576040517fda319dff00000000000000000000000000000000000000000000000000000000815260040160405180910390fd5b6002600083815260200190815260200160002060020160009054906101000a900473ffffffffffffffffffffffffffffffffffffffff1673ffffffffffffffffffffffffffffffffffffffff163373ffffffffffffffffffffffffffffffffffffffff16146119c9576040517fa898452000000000000000000000000000000000000000000000000000000000815260040160405180910390fd5b600360078111156119dd576119dc614dc7565b5b60026000848152602001908152602001600020600c0160009054906101000a900460ff166007811115611a1357611a12614dc7565b5b14611a565760036040517f0bb377be000000000000000000000000000000000000000000000000000000008152600401611a4d9190615686565b60405180910390fd5b60006002811115611a6a57611a69614dc7565b5b60026000848152602001908152602001600020600c0160019054906101000a900460ff166002811115611aa057611a9f614dc7565b5b14611ae35760006040517f13e912fb000000000000000000000000000000000000000000000000000000008152600401611ada9190615767565b60405180910390fd5b60004290508160026000858152602001908152602001600020600a019080519060200190611b12929190614b2f565b5060026000848152602001908152602001600020600801548110158015611b5c57506102586002600085815260200190815260200160002060080154611b589190615850565b8111155b8015611b9f575060026000848152602001908152602001600020600501546002600085815260200190815260200160002060070154611b9b9190615850565b8110155b8015611bf8575060026000848152602001908152602001600020600501546002600085815260200190815260200160002060070154611bde9190615850565b600260008581526020019081526020016000206008015410155b1561244c57600280600085815260200190815260200160002060040154611c1f91906156a1565b600260008581526020019081526020016000206006015411612007576002600084815260200190815260200160002060020160009054906101000a900473ffffffffffffffffffffffffffffffffffffffff1673ffffffffffffffffffffffffffffffffffffffff166108fc600a6002600087815260200190815260200160002060040154611cae91906156a1565b6002600087815260200190815260200160002060060154611ccf9190615850565b9081150290604051600060405180830381858888f19350505050158015611cfa573d6000803e3d6000fd5b507f4195fd9cd5f571cf9d14b2376c60201465a986f4a0469cebf0f0ee1d3e2022ab6002600085815260200190815260200160002060020160009054906101000a900473ffffffffffffffffffffffffffffffffffffffff16600a6002600087815260200190815260200160002060040154611d7691906156a1565b6002600087815260200190815260200160002060060154611d979190615850565b604051611da59291906157e1565b60405180910390a16002600084815260200190815260200160002060010160009054906101000a900473ffffffffffffffffffffffffffffffffffffffff1673ffffffffffffffffffffffffffffffffffffffff166108fc600280600087815260200190815260200160002060040154611e1f91906156a1565b6002600087815260200190815260200160002060060154611e409190615724565b9081150290604051600060405180830381858888f19350505050158015611e6b573d6000803e3d6000fd5b507fb56ab0c8ca3c4a2f3256c9dab1834145295ed481d85fd1afde56ff8c7298c3ec6002600085815260200190815260200160002060010160009054906101000a900473ffffffffffffffffffffffffffffffffffffffff16600280600087815260200190815260200160002060040154611ee691906156a1565b6002600087815260200190815260200160002060060154611f079190615724565b604051611f159291906157e1565b60405180910390a16002806000858152602001908152602001600020600c0160016101000a81548160ff02191690836002811115611f5657611f55614dc7565b5b02179055507f890aa03cb2eb1db116152827f7a61a8f43080718ac119d21644158c5df9131c9836002600086815260200190815260200160002060010160009054906101000a900473ffffffffffffffffffffffffffffffffffffffff166002600087815260200190815260200160002060020160009054906101000a900473ffffffffffffffffffffffffffffffffffffffff16604051611ffa93929190615819565b60405180910390a1612262565b6002600084815260200190815260200160002060020160009054906101000a900473ffffffffffffffffffffffffffffffffffffffff1673ffffffffffffffffffffffffffffffffffffffff166108fc600c600260008781526020019081526020016000206004015461207a91906156a1565b9081150290604051600060405180830381858888f193505050501580156120a5573d6000803e3d6000fd5b507f4195fd9cd5f571cf9d14b2376c60201465a986f4a0469cebf0f0ee1d3e2022ab6002600085815260200190815260200160002060020160009054906101000a900473ffffffffffffffffffffffffffffffffffffffff16600c600260008781526020019081526020016000206004015461212191906156a1565b60405161212f9291906157e1565b60405180910390a1600160026000858152602001908152602001600020600c0160016101000a81548160ff0219169083600281111561217157612170614dc7565b5b02179055507f03f879f7b5806dc8623346c41377a3e4e845b47c9202327f8a3004c57b8eb2d4836002600086815260200190815260200160002060010160009054906101000a900473ffffffffffffffffffffffffffffffffffffffff166002600087815260200190815260200160002060020160009054906101000a900473ffffffffffffffffffffffffffffffffffffffff1660028060008981526020019081526020016000206004015461222891906156a1565b60026000898152602001908152602001600020600601546122499190615724565b60405161225994939291906158a6565b60405180910390a15b600660026000858152602001908152602001600020600c0160006101000a81548160ff0219169083600781111561229c5761229b614dc7565b5b02179055507f067fe9f66c1397ff30d1dc2be07bda764b672304c70f4cab229b243c42ce31f8836002600086815260200190815260200160002060010160009054906101000a900473ffffffffffffffffffffffffffffffffffffffff166002600087815260200190815260200160002060020160009054906101000a900473ffffffffffffffffffffffffffffffffffffffff1660405161234093929190615819565b60405180910390a16001600460006002600087815260200190815260200160002060020160009054906101000a900473ffffffffffffffffffffffffffffffffffffffff1673ffffffffffffffffffffffffffffffffffffffff1673ffffffffffffffffffffffffffffffffffffffff16815260200190815260200160002060000160008282546123d19190615850565b925050819055507ff79072e0f370bb188b7c4d34ae8a5c9138b891e5df7cfa7ca412b518d30aaf756002600085815260200190815260200160002060020160009054906101000a900473ffffffffffffffffffffffffffffffffffffffff168460405161243f9291906158eb565b60405180910390a161279b565b6002600084815260200190815260200160002060010160009054906101000a900473ffffffffffffffffffffffffffffffffffffffff1673ffffffffffffffffffffffffffffffffffffffff166108fc6002806000878152602001908152602001600020600401546124be91906156a1565b9081150290604051600060405180830381858888f193505050501580156124e9573d6000803e3d6000fd5b507fb56ab0c8ca3c4a2f3256c9dab1834145295ed481d85fd1afde56ff8c7298c3ec6002600085815260200190815260200160002060010160009054906101000a900473ffffffffffffffffffffffffffffffffffffffff1660028060008781526020019081526020016000206004015461256491906156a1565b6040516125729291906157e1565b60405180910390a1600a600260008581526020019081526020016000206004015461259d91906156a1565b600160008282546125ae9190615850565b92505081905550600760026000858152602001908152602001600020600c0160006101000a81548160ff021916908360078111156125ef576125ee614dc7565b5b02179055507fd821ebe41923c5c79bc29eb00ebc187d810aa678babab9794f5dfd465f2f16f0836002600086815260200190815260200160002060010160009054906101000a900473ffffffffffffffffffffffffffffffffffffffff166002600087815260200190815260200160002060020160009054906101000a900473ffffffffffffffffffffffffffffffffffffffff1660405161269393929190615819565b60405180910390a16001600460006002600087815260200190815260200160002060020160009054906101000a900473ffffffffffffffffffffffffffffffffffffffff1673ffffffffffffffffffffffffffffffffffffffff1673ffffffffffffffffffffffffffffffffffffffff16815260200190815260200160002060010160008282546127249190615850565b925050819055507f3fec1177d25f324e1beb970cd60f8b52ef1e47290a72bdb8f62101720f5e49276002600085815260200190815260200160002060020160009054906101000a900473ffffffffffffffffffffffffffffffffffffffff16846040516127929291906158eb565b60405180910390a15b505050565b6000801b600260008681526020019081526020016000206000015414156127f3576040517fda319dff00000000000000000000000000000000000000000000000000000000815260040160405180910390fd5b6002600085815260200190815260200160002060020160009054906101000a900473ffffffffffffffffffffffffffffffffffffffff1673ffffffffffffffffffffffffffffffffffffffff163373ffffffffffffffffffffffffffffffffffffffff161461288e576040517fa898452000000000000000000000000000000000000000000000000000000000815260040160405180910390fd5b600260078111156128a2576128a1614dc7565b5b60026000868152602001908152602001600020600c0160009054906101000a900460ff1660078111156128d8576128d7614dc7565b5b1461291b5760026040517f0bb377be0000000000000000000000000000000000000000000000000000000081526004016129129190615686565b60405180910390fd5b806002600086815260200190815260200160002060080181905550816002600086815260200190815260200160002060050181905550600260008581526020019081526020016000206003015460026000868152602001908152602001600020600701546129899190615850565b6002600086815260200190815260200160002060080154111580156129da57506002600085815260200190815260200160002060030154600260008681526020019081526020016000206005015411155b8015612a215750826040516020016129f29190615950565b6040516020818303038152906040528051906020012060026000868152602001908152602001600020600b0154145b15612b635760026000858152602001908152602001600020600501546002600086815260200190815260200160002060040154612a5e91906156a1565b6002600086815260200190815260200160002060060181905550600360026000868152602001908152602001600020600c0160006101000a81548160ff02191690836007811115612ab257612ab1614dc7565b5b02179055507fcb01257e40cdc690688a120c405f9fb290bf5ac57809b606e65432c6e87d1a90846002600087815260200190815260200160002060010160009054906101000a900473ffffffffffffffffffffffffffffffffffffffff166002600088815260200190815260200160002060020160009054906101000a900473ffffffffffffffffffffffffffffffffffffffff16604051612b5693929190615819565b60405180910390a1612eb2565b6002600085815260200190815260200160002060010160009054906101000a900473ffffffffffffffffffffffffffffffffffffffff1673ffffffffffffffffffffffffffffffffffffffff166108fc600280600088815260200190815260200160002060040154612bd591906156a1565b9081150290604051600060405180830381858888f19350505050158015612c00573d6000803e3d6000fd5b507fb56ab0c8ca3c4a2f3256c9dab1834145295ed481d85fd1afde56ff8c7298c3ec6002600086815260200190815260200160002060010160009054906101000a900473ffffffffffffffffffffffffffffffffffffffff16600280600088815260200190815260200160002060040154612c7b91906156a1565b604051612c899291906157e1565b60405180910390a1600a6002600086815260200190815260200160002060040154612cb491906156a1565b60016000828254612cc59190615850565b925050819055506001600460006002600088815260200190815260200160002060020160009054906101000a900473ffffffffffffffffffffffffffffffffffffffff1673ffffffffffffffffffffffffffffffffffffffff1673ffffffffffffffffffffffffffffffffffffffff1681526020019081526020016000206001016000828254612d559190615850565b925050819055507f3fec1177d25f324e1beb970cd60f8b52ef1e47290a72bdb8f62101720f5e49276002600086815260200190815260200160002060020160009054906101000a900473ffffffffffffffffffffffffffffffffffffffff1685604051612dc39291906158eb565b60405180910390a1600460026000868152602001908152602001600020600c0160006101000a81548160ff02191690836007811115612e0557612e04614dc7565b5b02179055507f279638cb479570dfe0b72fc4dfe988dba9185f35d37a1452037c1603ce7f5529846002600087815260200190815260200160002060010160009054906101000a900473ffffffffffffffffffffffffffffffffffffffff166002600088815260200190815260200160002060020160009054906101000a900473ffffffffffffffffffffffffffffffffffffffff16604051612ea993929190615819565b60405180910390a15b50505050565b6000801b60026000838152602001908152602001600020600001541415612f0b576040517fda319dff00000000000000000000000000000000000000000000000000000000815260040160405180910390fd5b6002600082815260200190815260200160002060010160009054906101000a900473ffffffffffffffffffffffffffffffffffffffff1673ffffffffffffffffffffffffffffffffffffffff163373ffffffffffffffffffffffffffffffffffffffff1614612fa6576040517f1117923b00000000000000000000000000000000000000000000000000000000815260040160405180910390fd5b60026007811115612fba57612fb9614dc7565b5b60026000838152602001908152602001600020600c0160009054906101000a900460ff166007811115612ff057612fef614dc7565b5b146130335760026040517f0bb377be00000000000000000000000000000000000000000000000000000000815260040161302a9190615686565b60405180910390fd5b620151806002600083815260200190815260200160002060030154600260008481526020019081526020016000206007015461306f9190615850565b6130799190615850565b42116130ba576040517f08c379a00000000000000000000000000000000000000000000000000000000081526004016130b1906159b3565b60405180910390fd5b600560026000838152602001908152602001600020600c0160006101000a81548160ff021916908360078111156130f4576130f3614dc7565b5b02179055506002600082815260200190815260200160002060010160009054906101000a900473ffffffffffffffffffffffffffffffffffffffff1673ffffffffffffffffffffffffffffffffffffffff166108fc600c600260008581526020019081526020016000206004015461316c91906156a1565b9081150290604051600060405180830381858888f19350505050158015613197573d6000803e3d6000fd5b507fb56ab0c8ca3c4a2f3256c9dab1834145295ed481d85fd1afde56ff8c7298c3ec6002600083815260200190815260200160002060010160009054906101000a900473ffffffffffffffffffffffffffffffffffffffff16600c600260008581526020019081526020016000206004015461321391906156a1565b6040516132219291906157e1565b60405180910390a17f77df901e3c3426e23a34767cafcb99b6196af0f7676f4949f41e0f607c982dee816002600084815260200190815260200160002060010160009054906101000a900473ffffffffffffffffffffffffffffffffffffffff166002600085815260200190815260200160002060020160009054906101000a900473ffffffffffffffffffffffffffffffffffffffff166040516132c893929190615819565b60405180910390a150565b60007f000000000000000000000000000000000000000000000000000000000000000073ffffffffffffffffffffffffffffffffffffffff163373ffffffffffffffffffffffffffffffffffffffff161461335a576040517f82593d3000000000000000000000000000000000000000000000000000000000815260040160405180910390fd5b600154905090565b60008060001b600260008481526020019081526020016000206000015414156133b7576040517fda319dff00000000000000000000000000000000000000000000000000000000815260040160405180910390fd5b6002600083815260200190815260200160002060020160009054906101000a900473ffffffffffffffffffffffffffffffffffffffff1673ffffffffffffffffffffffffffffffffffffffff163373ffffffffffffffffffffffffffffffffffffffff1614613452576040517fa898452000000000000000000000000000000000000000000000000000000000815260040160405180910390fd5b6000600781111561346657613465614dc7565b5b60026000848152602001908152602001600020600c0160009054906101000a900460ff16600781111561349c5761349b614dc7565b5b146134df5760006040517f0bb377be0000000000000000000000000000000000000000000000000000000081526004016134d69190615686565b60405180910390fd5b600a600260008481526020019081526020016000206004015461350291906156a1565b9050919050565b60007f0000000000000000000000000000000000000000000000000000000000000000905090565b60007f000000000000000000000000000000000000000000000000000000000000000073ffffffffffffffffffffffffffffffffffffffff163373ffffffffffffffffffffffffffffffffffffffff16146135b8576040517f82593d3000000000000000000000000000000000000000000000000000000000815260040160405180910390fd5b60008054906101000a900473ffffffffffffffffffffffffffffffffffffffff16905090565b60008054906101000a900473ffffffffffffffffffffffffffffffffffffffff1673ffffffffffffffffffffffffffffffffffffffff163373ffffffffffffffffffffffffffffffffffffffff1614613663576040517f42f84e1500000000000000000000000000000000000000000000000000000000815260040160405180910390fd5b6000801b6002600089815260200190815260200160002060000154146136b5576040517ff2e16b0300000000000000000000000000000000000000000000000000000000815260040160405180910390fd5b6002846136c291906156a1565b3414613713576002846136d591906156a1565b346040517f558b78b800000000000000000000000000000000000000000000000000000000815260040161370a9291906156fb565b60405180910390fd5b866002600089815260200190815260200160002060000181905550856002600089815260200190815260200160002060010160006101000a81548173ffffffffffffffffffffffffffffffffffffffff021916908373ffffffffffffffffffffffffffffffffffffffff160217905550846002600089815260200190815260200160002060020160006101000a81548173ffffffffffffffffffffffffffffffffffffffff021916908373ffffffffffffffffffffffffffffffffffffffff1602179055508360026000898152602001908152602001600020600401819055508260026000898152602001908152602001600020600301819055508160026000898152602001908152602001600020600b018190555080600260008981526020019081526020016000206009019080519060200190613853929190614b2f565b50600060026000898152602001908152602001600020600c0160006101000a81548160ff0219169083600781111561388e5761388d614dc7565b5b0217905550600060026000898152602001908152602001600020600c0160016101000a81548160ff021916908360028111156138cd576138cc614dc7565b5b021790555060038790806001815401808255809150506001900390600052602060002001600090919091909150557f86a1455bc0c745e7ed02d6d0658be68508dd1dea11eed285160e0688859ac7cb87878760405161392e939291906159d3565b60405180910390a150505050505050565b6000801b60026000838152602001908152602001600020600001541415613992576040517fda319dff00000000000000000000000000000000000000000000000000000000815260040160405180910390fd5b6002600082815260200190815260200160002060020160009054906101000a900473ffffffffffffffffffffffffffffffffffffffff1673ffffffffffffffffffffffffffffffffffffffff163373ffffffffffffffffffffffffffffffffffffffff1614613a2d576040517fa898452000000000000000000000000000000000000000000000000000000000815260040160405180910390fd5b60006007811115613a4157613a40614dc7565b5b60026000838152602001908152602001600020600c0160009054906101000a900460ff166007811115613a7757613a76614dc7565b5b14613aba5760006040517f0bb377be000000000000000000000000000000000000000000000000000000008152600401613ab19190615686565b60405180910390fd5b600a6002600083815260200190815260200160002060040154613add91906156a1565b3414613b4457600a6002600083815260200190815260200160002060040154613b0691906156a1565b346040517f558b78b8000000000000000000000000000000000000000000000000000000008152600401613b3b9291906156fb565b60405180910390fd5b4260026000838152602001908152602001600020600701819055506002806000838152602001908152602001600020600c0160006101000a81548160ff02191690836007811115613b9857613b97614dc7565b5b02179055507f2a1f97202782a7c44b909186e1de5c2eff0dcce71cadb0aa37ef5fee96f60f79816002600084815260200190815260200160002060010160009054906101000a900473ffffffffffffffffffffffffffffffffffffffff166002600085815260200190815260200160002060020160009054906101000a900473ffffffffffffffffffffffffffffffffffffffff16604051613c3c93929190615819565b60405180910390a150565b7f000000000000000000000000000000000000000000000000000000000000000073ffffffffffffffffffffffffffffffffffffffff163373ffffffffffffffffffffffffffffffffffffffff1614613ccc576040517f82593d3000000000000000000000000000000000000000000000000000000000815260040160405180910390fd5b806000806101000a81548173ffffffffffffffffffffffffffffffffffffffff021916908373ffffffffffffffffffffffffffffffffffffffff16021790555050565b7f000000000000000000000000000000000000000000000000000000000000000073ffffffffffffffffffffffffffffffffffffffff163373ffffffffffffffffffffffffffffffffffffffff1614613d94576040517f82593d3000000000000000000000000000000000000000000000000000000000815260040160405180910390fd5b6000801b60026000838152602001908152602001600020600001541415613de7576040517fda319dff00000000000000000000000000000000000000000000000000000000815260040160405180910390fd5b600260008281526020019081526020016000206000808201600090556001820160006101000a81549073ffffffffffffffffffffffffffffffffffffffff02191690556002820160006101000a81549073ffffffffffffffffffffffffffffffffffffffff0219169055600382016000905560048201600090556005820160009055600682016000905560078201600090556008820160009055600982016000613e919190614bb5565b600a82016000613ea19190614bb5565b600b820160009055600c820160006101000a81549060ff0219169055600c820160016101000a81549060ff0219169055505060005b600380549050811015613f9b578160038281548110613ef857613ef761556f565b5b90600052602060002001541415613f885760036001600380549050613f1d9190615724565b81548110613f2e57613f2d61556f565b5b906000526020600020015460038281548110613f4d57613f4c61556f565b5b90600052602060002001819055506003805480613f6d57613f6c615a0a565b5b60019003818190600052602060002001600090559055613f9b565b8080613f939061562e565b915050613ed6565b507fa96209878fc4722b56527db6cf4b72ad6bfddb3ad9968f7de1125d02acc9aa1081604051613fcb9190615a39565b60405180910390a150565b60606000801b6002600084815260200190815260200160002060000154141561402b576040517fda319dff00000000000000000000000000000000000000000000000000000000815260040160405180910390fd5b6002600083815260200190815260200160002060020160009054906101000a900473ffffffffffffffffffffffffffffffffffffffff1673ffffffffffffffffffffffffffffffffffffffff163373ffffffffffffffffffffffffffffffffffffffff16146140c6576040517fa898452000000000000000000000000000000000000000000000000000000000815260040160405180910390fd5b600260078111156140da576140d9614dc7565b5b60026000848152602001908152602001600020600c0160009054906101000a900460ff1660078111156141105761410f614dc7565b5b146141535760026040517f0bb377be00000000000000000000000000000000000000000000000000000000815260040161414a9190615686565b60405180910390fd5b600260008381526020019081526020016000206009018054614174906155cd565b80601f01602080910402602001604051908101604052809291908181526020018280546141a0906155cd565b80156141ed5780601f106141c2576101008083540402835291602001916141ed565b820191906000526020600020905b8154815290600101906020018083116141d057829003601f168201915b50505050509050919050565b6060600060038054905067ffffffffffffffff81111561421c5761421b61527d565b5b60405190808252806020026020018201604052801561425557816020015b614242614a50565b81526020019060019003908161423a5790505b5090506000805b600380549050811015614604573373ffffffffffffffffffffffffffffffffffffffff1660026000600384815481106142985761429761556f565b5b9060005260206000200154815260200190815260200160002060010160009054906101000a900473ffffffffffffffffffffffffffffffffffffffff1673ffffffffffffffffffffffffffffffffffffffff1614156145f15760026000600383815481106143095761430861556f565b5b90600052602060002001548152602001908152602001600020604051806101c0016040529081600082015481526020016001820160009054906101000a900473ffffffffffffffffffffffffffffffffffffffff1673ffffffffffffffffffffffffffffffffffffffff1673ffffffffffffffffffffffffffffffffffffffff1681526020016002820160009054906101000a900473ffffffffffffffffffffffffffffffffffffffff1673ffffffffffffffffffffffffffffffffffffffff1673ffffffffffffffffffffffffffffffffffffffff168152602001600382015481526020016004820154815260200160058201548152602001600682015481526020016007820154815260200160088201548152602001600982018054614430906155cd565b80601f016020809104026020016040519081016040528092919081815260200182805461445c906155cd565b80156144a95780601f1061447e576101008083540402835291602001916144a9565b820191906000526020600020905b81548152906001019060200180831161448c57829003601f168201915b50505050508152602001600a820180546144c2906155cd565b80601f01602080910402602001604051908101604052809291908181526020018280546144ee906155cd565b801561453b5780601f106145105761010080835404028352916020019161453b565b820191906000526020600020905b81548152906001019060200180831161451e57829003601f168201915b50505050508152602001600b8201548152602001600c820160009054906101000a900460ff16600781111561457357614572614dc7565b5b600781111561458557614584614dc7565b5b8152602001600c820160019054906101000a900460ff1660028111156145ae576145ad614dc7565b5b60028111156145c0576145bf614dc7565b5b815250508383815181106145d7576145d661556f565b5b602002602001018190525081806145ed9061562e565b9250505b80806145fc9061562e565b91505061425c565b5060008167ffffffffffffffff8111156146215761462061527d565b5b60405190808252806020026020018201604052801561465a57816020015b614647614a50565b81526020019060019003908161463f5790505b50905060005b828110156146b45783818151811061467b5761467a61556f565b5b60200260200101518282815181106146965761469561556f565b5b602002602001018190525080806146ac9061562e565b915050614660565b5080935050505090565b6000801b60026000838152602001908152602001600020600001541415614711576040517fda319dff00000000000000000000000000000000000000000000000000000000815260040160405180910390fd5b6002600082815260200190815260200160002060010160009054906101000a900473ffffffffffffffffffffffffffffffffffffffff1673ffffffffffffffffffffffffffffffffffffffff163373ffffffffffffffffffffffffffffffffffffffff16146147ac576040517f1117923b00000000000000000000000000000000000000000000000000000000815260040160405180910390fd5b600060078111156147c0576147bf614dc7565b5b60026000838152602001908152602001600020600c0160009054906101000a900460ff1660078111156147f6576147f5614dc7565b5b146148395760006040517f0bb377be0000000000000000000000000000000000000000000000000000000081526004016148309190615686565b60405180910390fd5b600160026000838152602001908152602001600020600c0160006101000a81548160ff0219169083600781111561487357614872614dc7565b5b02179055506002600082815260200190815260200160002060010160009054906101000a900473ffffffffffffffffffffffffffffffffffffffff1673ffffffffffffffffffffffffffffffffffffffff166108fc6002806000858152602001908152602001600020600401546148ea91906156a1565b9081150290604051600060405180830381858888f19350505050158015614915573d6000803e3d6000fd5b507fb56ab0c8ca3c4a2f3256c9dab1834145295ed481d85fd1afde56ff8c7298c3ec6002600083815260200190815260200160002060010160009054906101000a900473ffffffffffffffffffffffffffffffffffffffff1660028060008581526020019081526020016000206004015461499091906156a1565b60405161499e9291906157e1565b60405180910390a17f87c2138f706de178b7c62c30e6665ee7e0f2e6c70bb1f3a956fd37cad5159d15816002600084815260200190815260200160002060010160009054906101000a900473ffffffffffffffffffffffffffffffffffffffff166002600085815260200190815260200160002060020160009054906101000a900473ffffffffffffffffffffffffffffffffffffffff16604051614a4593929190615819565b60405180910390a150565b604051806101c0016040528060008019168152602001600073ffffffffffffffffffffffffffffffffffffffff168152602001600073ffffffffffffffffffffffffffffffffffffffff16815260200160008152602001600081526020016000815260200160008152602001600081526020016000815260200160608152602001606081526020016000801916815260200160006007811115614af657614af5614dc7565b5b815260200160006002811115614b0f57614b0e614dc7565b5b81525090565b604051806040016040528060008152602001600081525090565b828054614b3b906155cd565b90600052602060002090601f016020900481019282614b5d5760008555614ba4565b82601f10614b7657805160ff1916838001178555614ba4565b82800160010185558215614ba4579182015b82811115614ba3578251825591602001919060010190614b88565b5b509050614bb19190614bf5565b5090565b508054614bc1906155cd565b6000825580601f10614bd35750614bf2565b601f016020900490600052602060002090810190614bf19190614bf5565b5b50565b5b80821115614c0e576000816000905550600101614bf6565b5090565b600082825260208201905092915050565b7f6261642063616c6c000000000000000000000000000000000000000000000000600082015250565b6000614c59600883614c12565b9150614c6482614c23565b602082019050919050565b60006020820190508181036000830152614c8881614c4c565b9050919050565b600081519050919050565b600082825260208201905092915050565b6000819050602082019050919050565b6000819050919050565b614cce81614cbb565b82525050565b600073ffffffffffffffffffffffffffffffffffffffff82169050919050565b6000614cff82614cd4565b9050919050565b614d0f81614cf4565b82525050565b6000819050919050565b614d2881614d15565b82525050565b600081519050919050565b600082825260208201905092915050565b60005b83811015614d68578082015181840152602081019050614d4d565b83811115614d77576000848401525b50505050565b6000601f19601f8301169050919050565b6000614d9982614d2e565b614da38185614d39565b9350614db3818560208601614d4a565b614dbc81614d7d565b840191505092915050565b7f4e487b7100000000000000000000000000000000000000000000000000000000600052602160045260246000fd5b60088110614e0757614e06614dc7565b5b50565b6000819050614e1882614df6565b919050565b6000614e2882614e0a565b9050919050565b614e3881614e1d565b82525050565b60038110614e4f57614e4e614dc7565b5b50565b6000819050614e6082614e3e565b919050565b6000614e7082614e52565b9050919050565b614e8081614e65565b82525050565b60006101c083016000830151614e9f6000860182614cc5565b506020830151614eb26020860182614d06565b506040830151614ec56040860182614d06565b506060830151614ed86060860182614d1f565b506080830151614eeb6080860182614d1f565b5060a0830151614efe60a0860182614d1f565b5060c0830151614f1160c0860182614d1f565b5060e0830151614f2460e0860182614d1f565b50610100830151614f39610100860182614d1f565b50610120830151848203610120860152614f538282614d8e565b915050610140830151848203610140860152614f6f8282614d8e565b915050610160830151614f86610160860182614cc5565b50610180830151614f9b610180860182614e2f565b506101a0830151614fb06101a0860182614e77565b508091505092915050565b6000614fc78383614e86565b905092915050565b6000602082019050919050565b6000614fe782614c8f565b614ff18185614c9a565b93508360208202850161500385614cab565b8060005b8581101561503f57848403895281516150208582614fbb565b945061502b83614fcf565b925060208a01995050600181019050615007565b50829750879550505050505092915050565b6000602082019050818103600083015261506b8184614fdc565b905092915050565b6000604051905090565b600080fd5b600080fd5b61509081614cbb565b811461509b57600080fd5b50565b6000813590506150ad81615087565b92915050565b6000602082840312156150c9576150c861507d565b5b60006150d78482850161509e565b91505092915050565b6150e981614d15565b82525050565b600060208201905061510460008301846150e0565b92915050565b600061511582614cd4565b9050919050565b6151258161510a565b811461513057600080fd5b50565b6000813590506151428161511c565b92915050565b60006020828403121561515e5761515d61507d565b5b600061516c84828501615133565b91505092915050565b60408201600082015161518b6000850182614d1f565b50602082015161519e6020850182614d1f565b50505050565b60006040820190506151b96000830184615175565b92915050565b6151c881614d15565b81146151d357600080fd5b50565b6000813590506151e5816151bf565b92915050565b6000602082840312156152015761520061507d565b5b600061520f848285016151d6565b91505092915050565b600061522382614d2e565b61522d8185614c12565b935061523d818560208601614d4a565b61524681614d7d565b840191505092915050565b6000602082019050818103600083015261526b8184615218565b905092915050565b600080fd5b600080fd5b7f4e487b7100000000000000000000000000000000000000000000000000000000600052604160045260246000fd5b6152b582614d7d565b810181811067ffffffffffffffff821117156152d4576152d361527d565b5b80604052505050565b60006152e7615073565b90506152f382826152ac565b919050565b600067ffffffffffffffff8211156153135761531261527d565b5b61531c82614d7d565b9050602081019050919050565b82818337600083830152505050565b600061534b615346846152f8565b6152dd565b90508281526020810184848401111561536757615366615278565b5b615372848285615329565b509392505050565b600082601f83011261538f5761538e615273565b5b813561539f848260208601615338565b91505092915050565b600080604083850312156153bf576153be61507d565b5b60006153cd8582860161509e565b925050602083013567ffffffffffffffff8111156153ee576153ed615082565b5b6153fa8582860161537a565b9150509250929050565b6000806000806080858703121561541e5761541d61507d565b5b600061542c8782880161509e565b945050602085013567ffffffffffffffff81111561544d5761544c615082565b5b6154598782880161537a565b935050604061546a878288016151d6565b925050606061547b878288016151d6565b91505092959194509250565b6154908161510a565b82525050565b60006020820190506154ab6000830184615487565b92915050565b600080600080600080600060e0888a0312156154d0576154cf61507d565b5b60006154de8a828b0161509e565b97505060206154ef8a828b01615133565b96505060406155008a828b01615133565b95505060606155118a828b016151d6565b94505060806155228a828b016151d6565b93505060a06155338a828b0161509e565b92505060c088013567ffffffffffffffff81111561555457615553615082565b5b6155608a828b0161537a565b91505092959891949750929550565b7f4e487b7100000000000000000000000000000000000000000000000000000000600052603260045260246000fd5b7f4e487b7100000000000000000000000000000000000000000000000000000000600052602260045260246000fd5b600060028204905060018216806155e557607f821691505b602082108114156155f9576155f861559e565b5b50919050565b7f4e487b7100000000000000000000000000000000000000000000000000000000600052601160045260246000fd5b600061563982614d15565b91507fffffffffffffffffffffffffffffffffffffffffffffffffffffffffffffffff82141561566c5761566b6155ff565b5b600182019050919050565b61568081614e1d565b82525050565b600060208201905061569b6000830184615677565b92915050565b60006156ac82614d15565b91506156b783614d15565b9250817fffffffffffffffffffffffffffffffffffffffffffffffffffffffffffffffff04831182151516156156f0576156ef6155ff565b5b828202905092915050565b600060408201905061571060008301856150e0565b61571d60208301846150e0565b9392505050565b600061572f82614d15565b915061573a83614d15565b92508282101561574d5761574c6155ff565b5b828203905092915050565b61576181614e65565b82525050565b600060208201905061577c6000830184615758565b92915050565b6000819050919050565b60006157a76157a261579d84614cd4565b615782565b614cd4565b9050919050565b60006157b98261578c565b9050919050565b60006157cb826157ae565b9050919050565b6157db816157c0565b82525050565b60006040820190506157f660008301856157d2565b61580360208301846150e0565b9392505050565b61581381614cbb565b82525050565b600060608201905061582e600083018661580a565b61583b60208301856157d2565b61584860408301846157d2565b949350505050565b600061585b82614d15565b915061586683614d15565b9250827fffffffffffffffffffffffffffffffffffffffffffffffffffffffffffffffff0382111561589b5761589a6155ff565b5b828201905092915050565b60006080820190506158bb600083018761580a565b6158c860208301866157d2565b6158d560408301856157d2565b6158e260608301846150e0565b95945050505050565b600060408201905061590060008301856157d2565b61590d602083018461580a565b9392505050565b600081905092915050565b600061592a82614d2e565b6159348185615914565b9350615944818560208601614d4a565b80840191505092915050565b600061595c828461591f565b915081905092915050565b7f54696d6520686173206e6f7420657870697265642e0000000000000000000000600082015250565b600061599d601583614c12565b91506159a882615967565b602082019050919050565b600060208201905081810360008301526159cc81615990565b9050919050565b60006060820190506159e8600083018661580a565b6159f56020830185615487565b615a026040830184615487565b949350505050565b7f4e487b7100000000000000000000000000000000000000000000000000000000600052603160045260246000fd5b6000602082019050615a4e600083018461580a565b9291505056fea26469706673582212200a9805e099cefc5ab6af4924e5ddf143174b4293e03b68760f4dc85c8a46cf7f64736f6c63430008080033",
  "devdoc": {
    "kind": "dev",
    "methods": {},
    "version": 1
  },
  "userdoc": {
    "kind": "user",
    "methods": {},
    "version": 1
  },
  "storageLayout": {
    "storage": [
      {
        "astId": 1349,
        "contract": "contracts/TasksManager.sol:TasksManager",
        "label": "auctionAddress",
        "offset": 0,
        "slot": "0",
        "type": "t_address"
      },
      {
        "astId": 1352,
        "contract": "contracts/TasksManager.sol:TasksManager",
        "label": "bank",
        "offset": 0,
        "slot": "1",
        "type": "t_uint256"
      },
      {
        "astId": 1406,
        "contract": "contracts/TasksManager.sol:TasksManager",
        "label": "tasks",
        "offset": 0,
        "slot": "2",
        "type": "t_mapping(t_bytes32,t_struct(Task)1396_storage)"
      },
      {
        "astId": 1409,
        "contract": "contracts/TasksManager.sol:TasksManager",
        "label": "bytes32_tasks",
        "offset": 0,
        "slot": "3",
        "type": "t_array(t_bytes32)dyn_storage"
      },
      {
        "astId": 1414,
        "contract": "contracts/TasksManager.sol:TasksManager",
        "label": "performance",
        "offset": 0,
        "slot": "4",
        "type": "t_mapping(t_address,t_struct(providerRating)1401_storage)"
      }
    ],
    "types": {
      "t_address": {
        "encoding": "inplace",
        "label": "address",
        "numberOfBytes": "20"
      },
      "t_address_payable": {
        "encoding": "inplace",
        "label": "address payable",
        "numberOfBytes": "20"
      },
      "t_array(t_bytes32)dyn_storage": {
        "base": "t_bytes32",
        "encoding": "dynamic_array",
        "label": "bytes32[]",
        "numberOfBytes": "32"
      },
      "t_bytes32": {
        "encoding": "inplace",
        "label": "bytes32",
        "numberOfBytes": "32"
      },
      "t_enum(PaymentState)1365": {
        "encoding": "inplace",
        "label": "enum TasksManager.PaymentState",
        "numberOfBytes": "1"
      },
      "t_enum(TaskState)1361": {
        "encoding": "inplace",
        "label": "enum TasksManager.TaskState",
        "numberOfBytes": "1"
      },
      "t_mapping(t_address,t_struct(providerRating)1401_storage)": {
        "encoding": "mapping",
        "key": "t_address",
        "label": "mapping(address => struct TasksManager.providerRating)",
        "numberOfBytes": "32",
        "value": "t_struct(providerRating)1401_storage"
      },
      "t_mapping(t_bytes32,t_struct(Task)1396_storage)": {
        "encoding": "mapping",
        "key": "t_bytes32",
        "label": "mapping(bytes32 => struct TasksManager.Task)",
        "numberOfBytes": "32",
        "value": "t_struct(Task)1396_storage"
      },
      "t_string_storage": {
        "encoding": "bytes",
        "label": "string",
        "numberOfBytes": "32"
      },
      "t_struct(Task)1396_storage": {
        "encoding": "inplace",
        "label": "struct TasksManager.Task",
        "members": [
          {
            "astId": 1367,
            "contract": "contracts/TasksManager.sol:TasksManager",
            "label": "taskID",
            "offset": 0,
            "slot": "0",
            "type": "t_bytes32"
          },
          {
            "astId": 1369,
            "contract": "contracts/TasksManager.sol:TasksManager",
            "label": "client",
            "offset": 0,
            "slot": "1",
            "type": "t_address_payable"
          },
          {
            "astId": 1371,
            "contract": "contracts/TasksManager.sol:TasksManager",
            "label": "provider",
            "offset": 0,
            "slot": "2",
            "type": "t_address_payable"
          },
          {
            "astId": 1373,
            "contract": "contracts/TasksManager.sol:TasksManager",
            "label": "deadline",
            "offset": 0,
            "slot": "3",
            "type": "t_uint256"
          },
          {
            "astId": 1375,
            "contract": "contracts/TasksManager.sol:TasksManager",
            "label": "price",
            "offset": 0,
            "slot": "4",
            "type": "t_uint256"
          },
          {
            "astId": 1377,
            "contract": "contracts/TasksManager.sol:TasksManager",
            "label": "duration",
            "offset": 0,
            "slot": "5",
            "type": "t_uint256"
          },
          {
            "astId": 1379,
            "contract": "contracts/TasksManager.sol:TasksManager",
            "label": "cost",
            "offset": 0,
            "slot": "6",
            "type": "t_uint256"
          },
          {
            "astId": 1381,
            "contract": "contracts/TasksManager.sol:TasksManager",
            "label": "activationTime",
            "offset": 0,
            "slot": "7",
            "type": "t_uint256"
          },
          {
            "astId": 1383,
            "contract": "contracts/TasksManager.sol:TasksManager",
            "label": "completionTime",
            "offset": 0,
            "slot": "8",
            "type": "t_uint256"
          },
          {
            "astId": 1385,
            "contract": "contracts/TasksManager.sol:TasksManager",
            "label": "code",
            "offset": 0,
            "slot": "9",
            "type": "t_string_storage"
          },
          {
            "astId": 1387,
            "contract": "contracts/TasksManager.sol:TasksManager",
            "label": "results",
            "offset": 0,
            "slot": "10",
            "type": "t_string_storage"
          },
          {
            "astId": 1389,
            "contract": "contracts/TasksManager.sol:TasksManager",
            "label": "clientVerification",
            "offset": 0,
            "slot": "11",
            "type": "t_bytes32"
          },
          {
            "astId": 1392,
            "contract": "contracts/TasksManager.sol:TasksManager",
            "label": "taskState",
            "offset": 0,
            "slot": "12",
            "type": "t_enum(TaskState)1361"
          },
          {
            "astId": 1395,
            "contract": "contracts/TasksManager.sol:TasksManager",
            "label": "paymentState",
            "offset": 1,
            "slot": "12",
            "type": "t_enum(PaymentState)1365"
          }
        ],
        "numberOfBytes": "416"
      },
      "t_struct(providerRating)1401_storage": {
        "encoding": "inplace",
        "label": "struct TasksManager.providerRating",
        "members": [
          {
            "astId": 1398,
            "contract": "contracts/TasksManager.sol:TasksManager",
            "label": "upVotes",
            "offset": 0,
            "slot": "0",
            "type": "t_uint256"
          },
          {
            "astId": 1400,
            "contract": "contracts/TasksManager.sol:TasksManager",
            "label": "downVotes",
            "offset": 0,
            "slot": "1",
            "type": "t_uint256"
          }
        ],
        "numberOfBytes": "64"
      },
      "t_uint256": {
        "encoding": "inplace",
        "label": "uint256",
        "numberOfBytes": "32"
      }
    }
  }
}