{
  "address": "0xF56Ac472cA72d0bB7E6808E2B14A0DAEdb251D79",
  "abi": [
    {
      "inputs": [],
      "stateMutability": "nonpayable",
      "type": "constructor"
    },
    {
      "inputs": [],
      "name": "AuctionsManagerNotSet",
      "type": "error"
    },
    {
      "inputs": [],
      "name": "NotCalledByAuction",
      "type": "error"
    },
    {
      "inputs": [],
      "name": "NotCalledByClient",
      "type": "error"
    },
    {
      "inputs": [],
      "name": "NotCalledByOwner",
      "type": "error"
    },
    {
      "inputs": [],
      "name": "NotCalledByProvider",
      "type": "error"
    },
    {
      "inputs": [
        {
          "internalType": "uint256",
          "name": "correctValue",
          "type": "uint256"
        },
        {
          "internalType": "uint256",
          "name": "receivedValue",
          "type": "uint256"
        }
      ],
      "name": "NotCorrectValue",
      "type": "error"
    },
    {
      "inputs": [
        {
          "internalType": "enum TasksManager.PaymentState",
          "name": "paymentState",
          "type": "uint8"
        }
      ],
      "name": "PaymentNotInState",
      "type": "error"
    },
    {
      "inputs": [],
      "name": "TaskAlreadyExists",
      "type": "error"
    },
    {
      "inputs": [],
      "name": "TaskDoesNotExist",
      "type": "error"
    },
    {
      "inputs": [
        {
          "internalType": "enum TasksManager.TaskState",
          "name": "taskState",
          "type": "uint8"
        }
      ],
      "name": "TaskNotInState",
      "type": "error"
    },
    {
      "anonymous": false,
      "inputs": [
        {
          "indexed": false,
          "internalType": "address",
          "name": "client",
          "type": "address"
        },
        {
          "indexed": false,
          "internalType": "bytes32",
          "name": "taskID",
          "type": "bytes32"
        }
      ],
      "name": "ClientDownvoted",
      "type": "event"
    },
    {
      "anonymous": false,
      "inputs": [
        {
          "indexed": false,
          "internalType": "address",
          "name": "client",
          "type": "address"
        },
        {
          "indexed": false,
          "internalType": "bytes32",
          "name": "taskID",
          "type": "bytes32"
        }
      ],
      "name": "ClientUpvoted",
      "type": "event"
    },
    {
      "anonymous": false,
      "inputs": [
        {
          "indexed": false,
          "internalType": "bytes32",
          "name": "taskID",
          "type": "bytes32"
        },
        {
          "indexed": false,
          "internalType": "address",
          "name": "client",
          "type": "address"
        },
        {
          "indexed": false,
          "internalType": "address",
          "name": "provider",
          "type": "address"
        }
      ],
      "name": "PaymentCompleted",
      "type": "event"
    },
    {
      "anonymous": false,
      "inputs": [
        {
          "indexed": false,
          "internalType": "bytes32",
          "name": "taskID",
          "type": "bytes32"
        },
        {
          "indexed": false,
          "internalType": "address",
          "name": "client",
          "type": "address"
        },
        {
          "indexed": false,
          "internalType": "address",
          "name": "provider",
          "type": "address"
        },
        {
          "indexed": false,
          "internalType": "uint256",
          "name": "payment",
          "type": "uint256"
        }
      ],
      "name": "PaymentPending",
      "type": "event"
    },
    {
      "anonymous": false,
      "inputs": [
        {
          "indexed": false,
          "internalType": "address",
          "name": "provider",
          "type": "address"
        },
        {
          "indexed": false,
          "internalType": "bytes32",
          "name": "taskID",
          "type": "bytes32"
        }
      ],
      "name": "ProviderDownvoted",
      "type": "event"
    },
    {
      "anonymous": false,
      "inputs": [
        {
          "indexed": false,
          "internalType": "address",
          "name": "provider",
          "type": "address"
        },
        {
          "indexed": false,
          "internalType": "bytes32",
          "name": "taskID",
          "type": "bytes32"
        }
      ],
      "name": "ProviderUpvoted",
      "type": "event"
    },
    {
      "anonymous": false,
      "inputs": [
        {
          "indexed": false,
          "internalType": "bytes32",
          "name": "taskID",
          "type": "bytes32"
        },
        {
          "indexed": false,
          "internalType": "address",
          "name": "client",
          "type": "address"
        },
        {
          "indexed": false,
          "internalType": "address",
          "name": "provider",
          "type": "address"
        }
      ],
      "name": "TaskActivated",
      "type": "event"
    },
    {
      "anonymous": false,
      "inputs": [
        {
          "indexed": false,
          "internalType": "bytes32",
          "name": "taskID",
          "type": "bytes32"
        },
        {
          "indexed": false,
          "internalType": "address",
          "name": "client",
          "type": "address"
        },
        {
          "indexed": false,
          "internalType": "address",
          "name": "provider",
          "type": "address"
        }
      ],
      "name": "TaskCancelled",
      "type": "event"
    },
    {
      "anonymous": false,
      "inputs": [
        {
          "indexed": false,
          "internalType": "bytes32",
          "name": "taskID",
          "type": "bytes32"
        },
        {
          "indexed": false,
          "internalType": "address",
          "name": "client",
          "type": "address"
        },
        {
          "indexed": false,
          "internalType": "address",
          "name": "provider",
          "type": "address"
        }
      ],
      "name": "TaskCompletedSuccessfully",
      "type": "event"
    },
    {
      "anonymous": false,
      "inputs": [
        {
          "indexed": false,
          "internalType": "bytes32",
          "name": "taskID",
          "type": "bytes32"
        },
        {
          "indexed": false,
          "internalType": "address",
          "name": "client",
          "type": "address"
        },
        {
          "indexed": false,
          "internalType": "address",
          "name": "provider",
          "type": "address"
        }
      ],
      "name": "TaskCompletedUnsuccessfully",
      "type": "event"
    },
    {
      "anonymous": false,
      "inputs": [
        {
          "indexed": false,
          "internalType": "bytes32",
          "name": "taskID",
          "type": "bytes32"
        },
        {
          "indexed": false,
          "internalType": "address",
          "name": "client",
          "type": "address"
        },
        {
          "indexed": false,
          "internalType": "address",
          "name": "provider",
          "type": "address"
        }
      ],
      "name": "TaskCreated",
      "type": "event"
    },
    {
      "anonymous": false,
      "inputs": [
        {
          "indexed": false,
          "internalType": "bytes32",
          "name": "taskID",
          "type": "bytes32"
        },
        {
          "indexed": false,
          "internalType": "address",
          "name": "client",
          "type": "address"
        },
        {
          "indexed": false,
          "internalType": "address",
          "name": "provider",
          "type": "address"
        }
      ],
      "name": "TaskInvalidated",
      "type": "event"
    },
    {
      "anonymous": false,
      "inputs": [
        {
          "indexed": false,
          "internalType": "bytes32",
          "name": "taskID",
          "type": "bytes32"
        },
        {
          "indexed": false,
          "internalType": "address",
          "name": "client",
          "type": "address"
        },
        {
          "indexed": false,
          "internalType": "address",
          "name": "provider",
          "type": "address"
        }
      ],
      "name": "TaskReceivedResultsSuccessfully",
      "type": "event"
    },
    {
      "anonymous": false,
      "inputs": [
        {
          "indexed": false,
          "internalType": "bytes32",
          "name": "taskID",
          "type": "bytes32"
        },
        {
          "indexed": false,
          "internalType": "address",
          "name": "client",
          "type": "address"
        },
        {
          "indexed": false,
          "internalType": "address",
          "name": "provider",
          "type": "address"
        }
      ],
      "name": "TaskReceivedResultsUnsuccessfully",
      "type": "event"
    },
    {
      "anonymous": false,
      "inputs": [
        {
          "indexed": false,
          "internalType": "address",
          "name": "client",
          "type": "address"
        },
        {
          "indexed": false,
          "internalType": "uint256",
          "name": "amount",
          "type": "uint256"
        }
      ],
      "name": "TransferMadeToClient",
      "type": "event"
    },
    {
      "anonymous": false,
      "inputs": [
        {
          "indexed": false,
          "internalType": "address",
          "name": "provider",
          "type": "address"
        },
        {
          "indexed": false,
          "internalType": "uint256",
          "name": "amount",
          "type": "uint256"
        }
      ],
      "name": "TransferMadeToProvider",
      "type": "event"
    },
    {
      "stateMutability": "payable",
      "type": "fallback"
    },
    {
      "inputs": [
        {
          "internalType": "bytes32",
          "name": "_taskID",
          "type": "bytes32"
        }
      ],
      "name": "activateTask",
      "outputs": [],
      "stateMutability": "payable",
      "type": "function"
    },
    {
      "inputs": [
        {
          "internalType": "bytes32",
          "name": "_taskID",
          "type": "bytes32"
        }
      ],
      "name": "cancelTask",
      "outputs": [],
      "stateMutability": "nonpayable",
      "type": "function"
    },
    {
      "inputs": [
        {
          "internalType": "bytes32",
          "name": "_taskID",
          "type": "bytes32"
        }
      ],
      "name": "completePayment",
      "outputs": [],
      "stateMutability": "payable",
      "type": "function"
    },
    {
      "inputs": [
        {
          "internalType": "bytes32",
          "name": "_taskID",
          "type": "bytes32"
        },
        {
          "internalType": "string",
          "name": "ver",
          "type": "string"
        },
        {
          "internalType": "uint256",
          "name": "_duration",
          "type": "uint256"
        },
        {
          "internalType": "uint256",
          "name": "_timeReceivedProvider",
          "type": "uint256"
        }
      ],
      "name": "completeTask",
      "outputs": [],
      "stateMutability": "nonpayable",
      "type": "function"
    },
    {
      "inputs": [
        {
          "internalType": "bytes32",
          "name": "_taskID",
          "type": "bytes32"
        },
        {
          "internalType": "address",
          "name": "_client",
          "type": "address"
        },
        {
          "internalType": "address",
          "name": "_provider",
          "type": "address"
        },
        {
          "internalType": "uint256",
          "name": "_price",
          "type": "uint256"
        },
        {
          "internalType": "uint256",
          "name": "_deadline",
          "type": "uint256"
        },
        {
          "internalType": "bytes32",
          "name": "_clientVerification",
          "type": "bytes32"
        },
        {
          "internalType": "string",
          "name": "_code",
          "type": "string"
        }
      ],
      "name": "createTask",
      "outputs": [],
      "stateMutability": "payable",
      "type": "function"
    },
    {
      "inputs": [],
      "name": "getAuctionAddress",
      "outputs": [
        {
          "internalType": "address",
          "name": "",
          "type": "address"
        }
      ],
      "stateMutability": "view",
      "type": "function"
    },
    {
      "inputs": [],
      "name": "getBank",
      "outputs": [
        {
          "internalType": "uint256",
          "name": "",
          "type": "uint256"
        }
      ],
      "stateMutability": "view",
      "type": "function"
    },
    {
      "inputs": [
        {
          "internalType": "bytes32",
          "name": "_taskID",
          "type": "bytes32"
        }
      ],
      "name": "getClientCollateral",
      "outputs": [
        {
          "internalType": "uint256",
          "name": "",
          "type": "uint256"
        }
      ],
      "stateMutability": "view",
      "type": "function"
    },
    {
      "inputs": [
        {
          "internalType": "address",
          "name": "client",
          "type": "address"
        }
      ],
      "name": "getClientPerformance",
      "outputs": [
        {
          "components": [
            {
              "internalType": "uint256",
              "name": "upVotes",
              "type": "uint256"
            },
            {
              "internalType": "uint256",
              "name": "downVotes",
              "type": "uint256"
            }
          ],
          "internalType": "struct TasksManager.clientRating",
          "name": "",
          "type": "tuple"
        }
      ],
      "stateMutability": "view",
      "type": "function"
    },
    {
      "inputs": [
        {
          "internalType": "bytes32",
          "name": "_taskID",
          "type": "bytes32"
        }
      ],
      "name": "getCode",
      "outputs": [
        {
          "internalType": "string",
          "name": "",
          "type": "string"
        }
      ],
      "stateMutability": "view",
      "type": "function"
    },
    {
      "inputs": [],
      "name": "getOwner",
      "outputs": [
        {
          "internalType": "address",
          "name": "",
          "type": "address"
        }
      ],
      "stateMutability": "view",
      "type": "function"
    },
    {
      "inputs": [
        {
          "internalType": "bytes32",
          "name": "_taskID",
          "type": "bytes32"
        }
      ],
      "name": "getProviderCollateral",
      "outputs": [
        {
          "internalType": "uint256",
          "name": "",
          "type": "uint256"
        }
      ],
      "stateMutability": "view",
      "type": "function"
    },
    {
      "inputs": [
        {
          "internalType": "address",
          "name": "provider",
          "type": "address"
        }
      ],
      "name": "getProviderPerformance",
      "outputs": [
        {
          "components": [
            {
              "internalType": "uint256",
              "name": "upVotes",
              "type": "uint256"
            },
            {
              "internalType": "uint256",
              "name": "downVotes",
              "type": "uint256"
            }
          ],
          "internalType": "struct TasksManager.providerRating",
          "name": "",
          "type": "tuple"
        }
      ],
      "stateMutability": "view",
      "type": "function"
    },
    {
      "inputs": [
        {
          "internalType": "bytes32",
          "name": "_taskID",
          "type": "bytes32"
        }
      ],
      "name": "getResults",
      "outputs": [
        {
          "internalType": "string",
          "name": "",
          "type": "string"
        }
      ],
      "stateMutability": "view",
      "type": "function"
    },
    {
      "inputs": [],
      "name": "getTasks",
      "outputs": [
        {
          "components": [
            {
              "internalType": "bytes32",
              "name": "taskID",
              "type": "bytes32"
            },
            {
              "internalType": "address payable",
              "name": "client",
              "type": "address"
            },
            {
              "internalType": "address payable",
              "name": "provider",
              "type": "address"
            },
            {
              "internalType": "uint256",
              "name": "deadline",
              "type": "uint256"
            },
            {
              "internalType": "uint256",
              "name": "price",
              "type": "uint256"
            },
            {
              "internalType": "uint256",
              "name": "duration",
              "type": "uint256"
            },
            {
              "internalType": "uint256",
              "name": "activationTime",
              "type": "uint256"
            },
            {
              "internalType": "uint256",
              "name": "completionTime",
              "type": "uint256"
            },
            {
              "internalType": "string",
              "name": "code",
              "type": "string"
            },
            {
              "internalType": "string",
              "name": "results",
              "type": "string"
            },
            {
              "internalType": "bytes32",
              "name": "clientVerification",
              "type": "bytes32"
            },
            {
              "internalType": "enum TasksManager.TaskState",
              "name": "taskState",
              "type": "uint8"
            },
            {
              "internalType": "enum TasksManager.PaymentState",
              "name": "paymentState",
              "type": "uint8"
            }
          ],
          "internalType": "struct TasksManager.Task[]",
          "name": "",
          "type": "tuple[]"
        }
      ],
      "stateMutability": "view",
      "type": "function"
    },
    {
      "inputs": [],
      "name": "getTasksByClient",
      "outputs": [
        {
          "components": [
            {
              "internalType": "bytes32",
              "name": "taskID",
              "type": "bytes32"
            },
            {
              "internalType": "address payable",
              "name": "client",
              "type": "address"
            },
            {
              "internalType": "address payable",
              "name": "provider",
              "type": "address"
            },
            {
              "internalType": "uint256",
              "name": "deadline",
              "type": "uint256"
            },
            {
              "internalType": "uint256",
              "name": "price",
              "type": "uint256"
            },
            {
              "internalType": "uint256",
              "name": "duration",
              "type": "uint256"
            },
            {
              "internalType": "uint256",
              "name": "activationTime",
              "type": "uint256"
            },
            {
              "internalType": "uint256",
              "name": "completionTime",
              "type": "uint256"
            },
            {
              "internalType": "string",
              "name": "code",
              "type": "string"
            },
            {
              "internalType": "string",
              "name": "results",
              "type": "string"
            },
            {
              "internalType": "bytes32",
              "name": "clientVerification",
              "type": "bytes32"
            },
            {
              "internalType": "enum TasksManager.TaskState",
              "name": "taskState",
              "type": "uint8"
            },
            {
              "internalType": "enum TasksManager.PaymentState",
              "name": "paymentState",
              "type": "uint8"
            }
          ],
          "internalType": "struct TasksManager.Task[]",
          "name": "",
          "type": "tuple[]"
        }
      ],
      "stateMutability": "view",
      "type": "function"
    },
    {
      "inputs": [],
      "name": "getTasksByProvider",
      "outputs": [
        {
          "components": [
            {
              "internalType": "bytes32",
              "name": "taskID",
              "type": "bytes32"
            },
            {
              "internalType": "address payable",
              "name": "client",
              "type": "address"
            },
            {
              "internalType": "address payable",
              "name": "provider",
              "type": "address"
            },
            {
              "internalType": "uint256",
              "name": "deadline",
              "type": "uint256"
            },
            {
              "internalType": "uint256",
              "name": "price",
              "type": "uint256"
            },
            {
              "internalType": "uint256",
              "name": "duration",
              "type": "uint256"
            },
            {
              "internalType": "uint256",
              "name": "activationTime",
              "type": "uint256"
            },
            {
              "internalType": "uint256",
              "name": "completionTime",
              "type": "uint256"
            },
            {
              "internalType": "string",
              "name": "code",
              "type": "string"
            },
            {
              "internalType": "string",
              "name": "results",
              "type": "string"
            },
            {
              "internalType": "bytes32",
              "name": "clientVerification",
              "type": "bytes32"
            },
            {
              "internalType": "enum TasksManager.TaskState",
              "name": "taskState",
              "type": "uint8"
            },
            {
              "internalType": "enum TasksManager.PaymentState",
              "name": "paymentState",
              "type": "uint8"
            }
          ],
          "internalType": "struct TasksManager.Task[]",
          "name": "",
          "type": "tuple[]"
        }
      ],
      "stateMutability": "view",
      "type": "function"
    },
    {
      "inputs": [
        {
          "internalType": "bytes32",
          "name": "_taskID",
          "type": "bytes32"
        }
      ],
      "name": "invalidateTask",
      "outputs": [],
      "stateMutability": "nonpayable",
      "type": "function"
    },
    {
      "inputs": [
        {
          "internalType": "bytes32",
          "name": "_taskID",
          "type": "bytes32"
        }
      ],
      "name": "reportClient",
      "outputs": [],
      "stateMutability": "nonpayable",
      "type": "function"
    },
    {
      "inputs": [
        {
          "internalType": "bytes32",
          "name": "_taskID",
          "type": "bytes32"
        },
        {
          "internalType": "string",
          "name": "_results",
          "type": "string"
        }
      ],
      "name": "sendResults",
      "outputs": [],
      "stateMutability": "nonpayable",
      "type": "function"
    },
    {
      "inputs": [
        {
          "internalType": "address",
          "name": "_auctionAddress",
          "type": "address"
        }
      ],
      "name": "setAuctionsManager",
      "outputs": [],
      "stateMutability": "nonpayable",
      "type": "function"
    },
    {
      "inputs": [
        {
          "internalType": "uint256",
          "name": "amount",
          "type": "uint256"
        }
      ],
      "name": "withdraw",
      "outputs": [],
      "stateMutability": "nonpayable",
      "type": "function"
    },
    {
      "stateMutability": "payable",
      "type": "receive"
    }
  ],
  "transactionHash": "0x1ce548aa041a724d0a4caca84cdbcac7ab0a2d3cf6aa7c7aec9be2820817e2b8",
  "args": [],
  "numDeployments": 11,
  "solcInputHash": "c309df6649a4f6f652787d71557079ba",
  "bytecode": "0x60a0604052600060015534801561001557600080fd5b503373ffffffffffffffffffffffffffffffffffffffff1660808173ffffffffffffffffffffffffffffffffffffffff1660601b8152505060805160601c615c65620000966000396000818161056501528181610cef01528181610dbf015281816136640152818161389a015281816138c2015261405d0152615c656000f3fe6080604052600436106101395760003560e01c8063668b1baa116100ab578063980072551161006f578063980072551461042d57806398c04db514610456578063ab893cb314610493578063e8fe6b66146104d0578063ec3b24f21461050d578063ee8ca3b51461053857610179565b8063668b1baa14610362578063893d20e81461039f5780638b9ca885146103ca5780638fb15168146103f557806392b833201461041157610179565b806346475c4c116100fd57806346475c4c1461026357806347ca8a8b146102a05780634b017c7a146102bc578063513a6698146102e557806354706b5a1461030e57806360d704db1461033757610179565b806304a87e381461017e57806307ae2740146101a95780630b817e24146101d25780632e1a7d4d1461020f5780632f3c01621461023857610179565b36610179576040517f08c379a000000000000000000000000000000000000000000000000000000000815260040161017090614e5f565b60405180910390fd5b600080fd5b34801561018a57600080fd5b50610193610561565b6040516101a0919061522c565b60405180910390f35b3480156101b557600080fd5b506101d060048036038101906101cb919061528e565b610957565b005b3480156101de57600080fd5b506101f960048036038101906101f4919061528e565b610b47565b60405161020691906152ca565b60405180910390f35b34801561021b57600080fd5b5061023660048036038101906102319190615311565b610ced565b005b34801561024457600080fd5b5061024d610e40565b60405161025a919061522c565b60405180910390f35b34801561026f57600080fd5b5061028a6004803603810190610285919061528e565b6112fb565b6040516102979190615377565b60405180910390f35b6102ba60048036038101906102b5919061528e565b6115aa565b005b3480156102c857600080fd5b506102e360048036038101906102de91906154ce565b611bf4565b005b3480156102f157600080fd5b5061030c6004803603810190610307919061552a565b612b7f565b005b34801561031a57600080fd5b506103356004803603810190610330919061528e565b613245565b005b34801561034357600080fd5b5061034c613660565b60405161035991906152ca565b60405180910390f35b34801561036e57600080fd5b506103896004803603810190610384919061528e565b6136ef565b60405161039691906152ca565b60405180910390f35b3480156103ab57600080fd5b506103b4613896565b6040516103c191906155ce565b60405180910390f35b3480156103d657600080fd5b506103df6138be565b6040516103ec91906155ce565b60405180910390f35b61040f600480360381019061040a9190615615565b61396b565b005b61042b6004803603810190610426919061528e565b613d53565b005b34801561043957600080fd5b50610454600480360381019061044f91906156d3565b61405b565b005b34801561046257600080fd5b5061047d600480360381019061047891906156d3565b614123565b60405161048a919061572f565b60405180910390f35b34801561049f57600080fd5b506104ba60048036038101906104b591906156d3565b614190565b6040516104c79190615779565b60405180910390f35b3480156104dc57600080fd5b506104f760048036038101906104f2919061528e565b6141fd565b6040516105049190615377565b60405180910390f35b34801561051957600080fd5b50610522614420565b60405161052f919061522c565b60405180910390f35b34801561054457600080fd5b5061055f600480360381019061055a919061528e565b6148db565b005b60607f000000000000000000000000000000000000000000000000000000000000000073ffffffffffffffffffffffffffffffffffffffff163373ffffffffffffffffffffffffffffffffffffffff16146105e8576040517f82593d3000000000000000000000000000000000000000000000000000000000815260040160405180910390fd5b600060038054905067ffffffffffffffff811115610609576106086153a3565b5b60405190808252806020026020018201604052801561064257816020015b61062f614c6d565b8152602001906001900390816106275790505b50905060005b60038054905081101561094f57600260006003838154811061066d5761066c615794565b5b90600052602060002001548152602001908152602001600020604051806101a0016040529081600082015481526020016001820160009054906101000a900473ffffffffffffffffffffffffffffffffffffffff1673ffffffffffffffffffffffffffffffffffffffff1673ffffffffffffffffffffffffffffffffffffffff1681526020016002820160009054906101000a900473ffffffffffffffffffffffffffffffffffffffff1673ffffffffffffffffffffffffffffffffffffffff1673ffffffffffffffffffffffffffffffffffffffff168152602001600382015481526020016004820154815260200160058201548152602001600682015481526020016007820154815260200160088201805461078a906157f2565b80601f01602080910402602001604051908101604052809291908181526020018280546107b6906157f2565b80156108035780601f106107d857610100808354040283529160200191610803565b820191906000526020600020905b8154815290600101906020018083116107e657829003601f168201915b5050505050815260200160098201805461081c906157f2565b80601f0160208091040260200160405190810160405280929190818152602001828054610848906157f2565b80156108955780601f1061086a57610100808354040283529160200191610895565b820191906000526020600020905b81548152906001019060200180831161087857829003601f168201915b50505050508152602001600a8201548152602001600b820160009054906101000a900460ff1660078111156108cd576108cc614fb7565b5b60078111156108df576108de614fb7565b5b8152602001600b820160019054906101000a900460ff16600281111561090857610907614fb7565b5b600281111561091a57610919614fb7565b5b8152505082828151811061093157610930615794565b5b6020026020010181905250808061094790615853565b915050610648565b508091505090565b6000801b600260008381526020019081526020016000206000015414156109aa576040517fda319dff00000000000000000000000000000000000000000000000000000000815260040160405180910390fd5b6002600082815260200190815260200160002060020160009054906101000a900473ffffffffffffffffffffffffffffffffffffffff1673ffffffffffffffffffffffffffffffffffffffff163373ffffffffffffffffffffffffffffffffffffffff1614610a45576040517fa898452000000000000000000000000000000000000000000000000000000000815260040160405180910390fd5b6001600560006002600085815260200190815260200160002060010160009054906101000a900473ffffffffffffffffffffffffffffffffffffffff1673ffffffffffffffffffffffffffffffffffffffff1673ffffffffffffffffffffffffffffffffffffffff1681526020019081526020016000206001016000828254610ace919061589c565b925050819055507f5253e1d0c80a10061456c7789d7fb9ef9a47c1e3728581eb9b73e957dbbf1b6a6002600083815260200190815260200160002060010160009054906101000a900473ffffffffffffffffffffffffffffffffffffffff1682604051610b3c929190615960565b60405180910390a150565b60008060001b60026000848152602001908152602001600020600001541415610b9c576040517fda319dff00000000000000000000000000000000000000000000000000000000815260040160405180910390fd5b6002600083815260200190815260200160002060010160009054906101000a900473ffffffffffffffffffffffffffffffffffffffff1673ffffffffffffffffffffffffffffffffffffffff163373ffffffffffffffffffffffffffffffffffffffff1614610c37576040517f1117923b00000000000000000000000000000000000000000000000000000000815260040160405180910390fd5b60006007811115610c4b57610c4a614fb7565b5b60026000848152602001908152602001600020600b0160009054906101000a900460ff166007811115610c8157610c80614fb7565b5b14610cc45760006040517f0bb377be000000000000000000000000000000000000000000000000000000008152600401610cbb9190615998565b60405180910390fd5b600280600084815260200190815260200160002060040154610ce691906159b3565b9050919050565b7f000000000000000000000000000000000000000000000000000000000000000073ffffffffffffffffffffffffffffffffffffffff163373ffffffffffffffffffffffffffffffffffffffff1614610d72576040517f82593d3000000000000000000000000000000000000000000000000000000000815260040160405180910390fd5b600154811115610dbd57600154816040517f558b78b8000000000000000000000000000000000000000000000000000000008152600401610db4929190615a0d565b60405180910390fd5b7f000000000000000000000000000000000000000000000000000000000000000073ffffffffffffffffffffffffffffffffffffffff166108fc829081150290604051600060405180830381858888f19350505050158015610e23573d6000803e3d6000fd5b508060016000828254610e369190615a36565b9250508190555050565b6060600060038054905067ffffffffffffffff811115610e6357610e626153a3565b5b604051908082528060200260200182016040528015610e9c57816020015b610e89614c6d565b815260200190600190039081610e815790505b5090506000805b600380549050811015611241573373ffffffffffffffffffffffffffffffffffffffff166002600060038481548110610edf57610ede615794565b5b9060005260206000200154815260200190815260200160002060020160009054906101000a900473ffffffffffffffffffffffffffffffffffffffff1673ffffffffffffffffffffffffffffffffffffffff16141561122e576002600060038381548110610f5057610f4f615794565b5b90600052602060002001548152602001908152602001600020604051806101a0016040529081600082015481526020016001820160009054906101000a900473ffffffffffffffffffffffffffffffffffffffff1673ffffffffffffffffffffffffffffffffffffffff1673ffffffffffffffffffffffffffffffffffffffff1681526020016002820160009054906101000a900473ffffffffffffffffffffffffffffffffffffffff1673ffffffffffffffffffffffffffffffffffffffff1673ffffffffffffffffffffffffffffffffffffffff168152602001600382015481526020016004820154815260200160058201548152602001600682015481526020016007820154815260200160088201805461106d906157f2565b80601f0160208091040260200160405190810160405280929190818152602001828054611099906157f2565b80156110e65780601f106110bb576101008083540402835291602001916110e6565b820191906000526020600020905b8154815290600101906020018083116110c957829003601f168201915b505050505081526020016009820180546110ff906157f2565b80601f016020809104026020016040519081016040528092919081815260200182805461112b906157f2565b80156111785780601f1061114d57610100808354040283529160200191611178565b820191906000526020600020905b81548152906001019060200180831161115b57829003601f168201915b50505050508152602001600a8201548152602001600b820160009054906101000a900460ff1660078111156111b0576111af614fb7565b5b60078111156111c2576111c1614fb7565b5b8152602001600b820160019054906101000a900460ff1660028111156111eb576111ea614fb7565b5b60028111156111fd576111fc614fb7565b5b8152505083838151811061121457611213615794565b5b6020026020010181905250818061122a90615853565b9250505b808061123990615853565b915050610ea3565b5060008167ffffffffffffffff81111561125e5761125d6153a3565b5b60405190808252806020026020018201604052801561129757816020015b611284614c6d565b81526020019060019003908161127c5790505b50905060005b828110156112f1578381815181106112b8576112b7615794565b5b60200260200101518282815181106112d3576112d2615794565b5b602002602001018190525080806112e990615853565b91505061129d565b5080935050505090565b60606000801b60026000848152602001908152602001600020600001541415611350576040517fda319dff00000000000000000000000000000000000000000000000000000000815260040160405180910390fd5b6002600083815260200190815260200160002060010160009054906101000a900473ffffffffffffffffffffffffffffffffffffffff1673ffffffffffffffffffffffffffffffffffffffff163373ffffffffffffffffffffffffffffffffffffffff16146113eb576040517f1117923b00000000000000000000000000000000000000000000000000000000815260040160405180910390fd5b600660078111156113ff576113fe614fb7565b5b60026000848152602001908152602001600020600b0160009054906101000a900460ff16600781111561143557611434614fb7565b5b146114785760066040517f0bb377be00000000000000000000000000000000000000000000000000000000815260040161146f9190615998565b60405180910390fd5b60028081111561148b5761148a614fb7565b5b60026000848152602001908152602001600020600b0160019054906101000a900460ff1660028111156114c1576114c0614fb7565b5b146115045760026040517f13e912fb0000000000000000000000000000000000000000000000000000000081526004016114fb9190615a79565b60405180910390fd5b600260008381526020019081526020016000206009018054611525906157f2565b80601f0160208091040260200160405190810160405280929190818152602001828054611551906157f2565b801561159e5780601f106115735761010080835404028352916020019161159e565b820191906000526020600020905b81548152906001019060200180831161158157829003601f168201915b50505050509050919050565b6000801b600260008381526020019081526020016000206000015414156115fd576040517fda319dff00000000000000000000000000000000000000000000000000000000815260040160405180910390fd5b6002600082815260200190815260200160002060010160009054906101000a900473ffffffffffffffffffffffffffffffffffffffff1673ffffffffffffffffffffffffffffffffffffffff163373ffffffffffffffffffffffffffffffffffffffff1614611698576040517f1117923b00000000000000000000000000000000000000000000000000000000815260040160405180910390fd5b6002806000838152602001908152602001600020600401546116ba91906159b3565b600260008381526020019081526020016000206005015460026000848152602001908152602001600020600401546116f291906159b3565b6116fc9190615a36565b34146117a45760028060008381526020019081526020016000206004015461172491906159b3565b6002600083815260200190815260200160002060050154600260008481526020019081526020016000206004015461175c91906159b3565b6117669190615a36565b346040517f558b78b800000000000000000000000000000000000000000000000000000000815260040161179b929190615a0d565b60405180910390fd5b600660078111156117b8576117b7614fb7565b5b60026000838152602001908152602001600020600b0160009054906101000a900460ff1660078111156117ee576117ed614fb7565b5b146118315760066040517f0bb377be0000000000000000000000000000000000000000000000000000000081526004016118289190615998565b60405180910390fd5b6001600281111561184557611844614fb7565b5b60026000838152602001908152602001600020600b0160019054906101000a900460ff16600281111561187b5761187a614fb7565b5b146118be5760016040517f13e912fb0000000000000000000000000000000000000000000000000000000081526004016118b59190615a79565b60405180910390fd5b6002600082815260200190815260200160002060020160009054906101000a900473ffffffffffffffffffffffffffffffffffffffff1673ffffffffffffffffffffffffffffffffffffffff166108fc349081150290604051600060405180830381858888f1935050505015801561193a573d6000803e3d6000fd5b507f4195fd9cd5f571cf9d14b2376c60201465a986f4a0469cebf0f0ee1d3e2022ab6002600083815260200190815260200160002060020160009054906101000a900473ffffffffffffffffffffffffffffffffffffffff166002806000858152602001908152602001600020600401546119b591906159b3565b600260008581526020019081526020016000206005015460026000868152602001908152602001600020600401546119ed91906159b3565b6119f79190615a36565b604051611a05929190615a94565b60405180910390a16001600560006002600085815260200190815260200160002060010160009054906101000a900473ffffffffffffffffffffffffffffffffffffffff1673ffffffffffffffffffffffffffffffffffffffff1673ffffffffffffffffffffffffffffffffffffffff1681526020019081526020016000206000016000828254611a96919061589c565b925050819055507fb2403726f4d0056fd774a682a4059ede8acdb09e7f95ca0268d543dc03a5e7806002600083815260200190815260200160002060010160009054906101000a900473ffffffffffffffffffffffffffffffffffffffff1682604051611b04929190615960565b60405180910390a16002806000838152602001908152602001600020600b0160016101000a81548160ff02191690836002811115611b4557611b44614fb7565b5b02179055507f890aa03cb2eb1db116152827f7a61a8f43080718ac119d21644158c5df9131c9816002600084815260200190815260200160002060010160009054906101000a900473ffffffffffffffffffffffffffffffffffffffff166002600085815260200190815260200160002060020160009054906101000a900473ffffffffffffffffffffffffffffffffffffffff16604051611be993929190615abd565b60405180910390a150565b6000801b60026000848152602001908152602001600020600001541415611c47576040517fda319dff00000000000000000000000000000000000000000000000000000000815260040160405180910390fd5b6002600083815260200190815260200160002060020160009054906101000a900473ffffffffffffffffffffffffffffffffffffffff1673ffffffffffffffffffffffffffffffffffffffff163373ffffffffffffffffffffffffffffffffffffffff1614611ce2576040517fa898452000000000000000000000000000000000000000000000000000000000815260040160405180910390fd5b60036007811115611cf657611cf5614fb7565b5b60026000848152602001908152602001600020600b0160009054906101000a900460ff166007811115611d2c57611d2b614fb7565b5b14611d6f5760036040517f0bb377be000000000000000000000000000000000000000000000000000000008152600401611d669190615998565b60405180910390fd5b60006002811115611d8357611d82614fb7565b5b60026000848152602001908152602001600020600b0160019054906101000a900460ff166002811115611db957611db8614fb7565b5b14611dfc5760006040517f13e912fb000000000000000000000000000000000000000000000000000000008152600401611df39190615a79565b60405180910390fd5b600042905081600260008581526020019081526020016000206009019080519060200190611e2b929190614d2b565b5060026000848152602001908152602001600020600701548110158015611e7557506102586002600085815260200190815260200160002060070154611e71919061589c565b8111155b8015611eb8575060026000848152602001908152602001600020600501546002600085815260200190815260200160002060060154611eb4919061589c565b8110155b8015611f11575060026000848152602001908152602001600020600501546002600085815260200190815260200160002060060154611ef7919061589c565b600260008581526020019081526020016000206007015410155b1561282b57600280600085815260200190815260200160002060040154611f3891906159b3565b60026000858152602001908152602001600020600501546002600086815260200190815260200160002060040154611f7091906159b3565b116123c5576002600084815260200190815260200160002060020160009054906101000a900473ffffffffffffffffffffffffffffffffffffffff1673ffffffffffffffffffffffffffffffffffffffff166108fc600a6002600087815260200190815260200160002060040154611fe891906159b3565b6002600087815260200190815260200160002060050154600260008881526020019081526020016000206004015461202091906159b3565b61202a919061589c565b9081150290604051600060405180830381858888f19350505050158015612055573d6000803e3d6000fd5b507f4195fd9cd5f571cf9d14b2376c60201465a986f4a0469cebf0f0ee1d3e2022ab6002600085815260200190815260200160002060020160009054906101000a900473ffffffffffffffffffffffffffffffffffffffff16600a60026000878152602001908152602001600020600401546120d191906159b3565b6002600087815260200190815260200160002060050154600260008881526020019081526020016000206004015461210991906159b3565b612113919061589c565b604051612121929190615a94565b60405180910390a16002600084815260200190815260200160002060010160009054906101000a900473ffffffffffffffffffffffffffffffffffffffff1673ffffffffffffffffffffffffffffffffffffffff166108fc60028060008781526020019081526020016000206004015461219b91906159b3565b600260008781526020019081526020016000206005015460026000888152602001908152602001600020600401546121d391906159b3565b6121dd9190615a36565b9081150290604051600060405180830381858888f19350505050158015612208573d6000803e3d6000fd5b507fb56ab0c8ca3c4a2f3256c9dab1834145295ed481d85fd1afde56ff8c7298c3ec6002600085815260200190815260200160002060010160009054906101000a900473ffffffffffffffffffffffffffffffffffffffff1660028060008781526020019081526020016000206004015461228391906159b3565b600260008781526020019081526020016000206005015460026000888152602001908152602001600020600401546122bb91906159b3565b6122c59190615a36565b6040516122d3929190615a94565b60405180910390a16002806000858152602001908152602001600020600b0160016101000a81548160ff0219169083600281111561231457612313614fb7565b5b02179055507f890aa03cb2eb1db116152827f7a61a8f43080718ac119d21644158c5df9131c9836002600086815260200190815260200160002060010160009054906101000a900473ffffffffffffffffffffffffffffffffffffffff166002600087815260200190815260200160002060020160009054906101000a900473ffffffffffffffffffffffffffffffffffffffff166040516123b893929190615abd565b60405180910390a1612641565b6002600084815260200190815260200160002060020160009054906101000a900473ffffffffffffffffffffffffffffffffffffffff1673ffffffffffffffffffffffffffffffffffffffff166108fc600c600260008781526020019081526020016000206004015461243891906159b3565b9081150290604051600060405180830381858888f19350505050158015612463573d6000803e3d6000fd5b507f4195fd9cd5f571cf9d14b2376c60201465a986f4a0469cebf0f0ee1d3e2022ab6002600085815260200190815260200160002060020160009054906101000a900473ffffffffffffffffffffffffffffffffffffffff16600c60026000878152602001908152602001600020600401546124df91906159b3565b6040516124ed929190615a94565b60405180910390a1600160026000858152602001908152602001600020600b0160016101000a81548160ff0219169083600281111561252f5761252e614fb7565b5b02179055507f03f879f7b5806dc8623346c41377a3e4e845b47c9202327f8a3004c57b8eb2d4836002600086815260200190815260200160002060010160009054906101000a900473ffffffffffffffffffffffffffffffffffffffff166002600087815260200190815260200160002060020160009054906101000a900473ffffffffffffffffffffffffffffffffffffffff166002806000898152602001908152602001600020600401546125e691906159b3565b6002600089815260200190815260200160002060050154600260008a81526020019081526020016000206004015461261e91906159b3565b6126289190615a36565b6040516126389493929190615af4565b60405180910390a15b600660026000858152602001908152602001600020600b0160006101000a81548160ff0219169083600781111561267b5761267a614fb7565b5b02179055507f067fe9f66c1397ff30d1dc2be07bda764b672304c70f4cab229b243c42ce31f8836002600086815260200190815260200160002060010160009054906101000a900473ffffffffffffffffffffffffffffffffffffffff166002600087815260200190815260200160002060020160009054906101000a900473ffffffffffffffffffffffffffffffffffffffff1660405161271f93929190615abd565b60405180910390a16001600460006002600087815260200190815260200160002060020160009054906101000a900473ffffffffffffffffffffffffffffffffffffffff1673ffffffffffffffffffffffffffffffffffffffff1673ffffffffffffffffffffffffffffffffffffffff16815260200190815260200160002060000160008282546127b0919061589c565b925050819055507ff79072e0f370bb188b7c4d34ae8a5c9138b891e5df7cfa7ca412b518d30aaf756002600085815260200190815260200160002060020160009054906101000a900473ffffffffffffffffffffffffffffffffffffffff168460405161281e929190615960565b60405180910390a1612b7a565b6002600084815260200190815260200160002060010160009054906101000a900473ffffffffffffffffffffffffffffffffffffffff1673ffffffffffffffffffffffffffffffffffffffff166108fc60028060008781526020019081526020016000206004015461289d91906159b3565b9081150290604051600060405180830381858888f193505050501580156128c8573d6000803e3d6000fd5b507fb56ab0c8ca3c4a2f3256c9dab1834145295ed481d85fd1afde56ff8c7298c3ec6002600085815260200190815260200160002060010160009054906101000a900473ffffffffffffffffffffffffffffffffffffffff1660028060008781526020019081526020016000206004015461294391906159b3565b604051612951929190615a94565b60405180910390a1600a600260008581526020019081526020016000206004015461297c91906159b3565b6001600082825461298d919061589c565b92505081905550600760026000858152602001908152602001600020600b0160006101000a81548160ff021916908360078111156129ce576129cd614fb7565b5b02179055507fd821ebe41923c5c79bc29eb00ebc187d810aa678babab9794f5dfd465f2f16f0836002600086815260200190815260200160002060010160009054906101000a900473ffffffffffffffffffffffffffffffffffffffff166002600087815260200190815260200160002060020160009054906101000a900473ffffffffffffffffffffffffffffffffffffffff16604051612a7293929190615abd565b60405180910390a16001600460006002600087815260200190815260200160002060020160009054906101000a900473ffffffffffffffffffffffffffffffffffffffff1673ffffffffffffffffffffffffffffffffffffffff1673ffffffffffffffffffffffffffffffffffffffff1681526020019081526020016000206001016000828254612b03919061589c565b925050819055507f3fec1177d25f324e1beb970cd60f8b52ef1e47290a72bdb8f62101720f5e49276002600085815260200190815260200160002060020160009054906101000a900473ffffffffffffffffffffffffffffffffffffffff1684604051612b71929190615960565b60405180910390a15b505050565b6000801b60026000868152602001908152602001600020600001541415612bd2576040517fda319dff00000000000000000000000000000000000000000000000000000000815260040160405180910390fd5b6002600085815260200190815260200160002060020160009054906101000a900473ffffffffffffffffffffffffffffffffffffffff1673ffffffffffffffffffffffffffffffffffffffff163373ffffffffffffffffffffffffffffffffffffffff1614612c6d576040517fa898452000000000000000000000000000000000000000000000000000000000815260040160405180910390fd5b60026007811115612c8157612c80614fb7565b5b60026000868152602001908152602001600020600b0160009054906101000a900460ff166007811115612cb757612cb6614fb7565b5b14612cfa5760026040517f0bb377be000000000000000000000000000000000000000000000000000000008152600401612cf19190615998565b60405180910390fd5b80600260008681526020019081526020016000206007018190555081600260008681526020019081526020016000206005018190555060026000858152602001908152602001600020600301546002600086815260200190815260200160002060060154612d68919061589c565b600260008681526020019081526020016000206007015411158015612db957506002600085815260200190815260200160002060030154600260008681526020019081526020016000206005015411155b8015612e00575082604051602001612dd19190615b75565b6040516020818303038152906040528051906020012060026000868152602001908152602001600020600a0154145b15612ef057600360026000868152602001908152602001600020600b0160006101000a81548160ff02191690836007811115612e3f57612e3e614fb7565b5b02179055507fcb01257e40cdc690688a120c405f9fb290bf5ac57809b606e65432c6e87d1a90846002600087815260200190815260200160002060010160009054906101000a900473ffffffffffffffffffffffffffffffffffffffff166002600088815260200190815260200160002060020160009054906101000a900473ffffffffffffffffffffffffffffffffffffffff16604051612ee393929190615abd565b60405180910390a161323f565b6002600085815260200190815260200160002060010160009054906101000a900473ffffffffffffffffffffffffffffffffffffffff1673ffffffffffffffffffffffffffffffffffffffff166108fc600280600088815260200190815260200160002060040154612f6291906159b3565b9081150290604051600060405180830381858888f19350505050158015612f8d573d6000803e3d6000fd5b507fb56ab0c8ca3c4a2f3256c9dab1834145295ed481d85fd1afde56ff8c7298c3ec6002600086815260200190815260200160002060010160009054906101000a900473ffffffffffffffffffffffffffffffffffffffff1660028060008881526020019081526020016000206004015461300891906159b3565b604051613016929190615a94565b60405180910390a1600a600260008681526020019081526020016000206004015461304191906159b3565b60016000828254613052919061589c565b925050819055506001600460006002600088815260200190815260200160002060020160009054906101000a900473ffffffffffffffffffffffffffffffffffffffff1673ffffffffffffffffffffffffffffffffffffffff1673ffffffffffffffffffffffffffffffffffffffff16815260200190815260200160002060010160008282546130e2919061589c565b925050819055507f3fec1177d25f324e1beb970cd60f8b52ef1e47290a72bdb8f62101720f5e49276002600086815260200190815260200160002060020160009054906101000a900473ffffffffffffffffffffffffffffffffffffffff1685604051613150929190615960565b60405180910390a1600460026000868152602001908152602001600020600b0160006101000a81548160ff0219169083600781111561319257613191614fb7565b5b02179055507f279638cb479570dfe0b72fc4dfe988dba9185f35d37a1452037c1603ce7f5529846002600087815260200190815260200160002060010160009054906101000a900473ffffffffffffffffffffffffffffffffffffffff166002600088815260200190815260200160002060020160009054906101000a900473ffffffffffffffffffffffffffffffffffffffff1660405161323693929190615abd565b60405180910390a15b50505050565b6000801b60026000838152602001908152602001600020600001541415613298576040517fda319dff00000000000000000000000000000000000000000000000000000000815260040160405180910390fd5b6002600082815260200190815260200160002060010160009054906101000a900473ffffffffffffffffffffffffffffffffffffffff1673ffffffffffffffffffffffffffffffffffffffff163373ffffffffffffffffffffffffffffffffffffffff1614613333576040517f1117923b00000000000000000000000000000000000000000000000000000000815260040160405180910390fd5b6002600781111561334757613346614fb7565b5b60026000838152602001908152602001600020600b0160009054906101000a900460ff16600781111561337d5761337c614fb7565b5b146133c05760026040517f0bb377be0000000000000000000000000000000000000000000000000000000081526004016133b79190615998565b60405180910390fd5b62015180600260008381526020019081526020016000206003015460026000848152602001908152602001600020600601546133fc919061589c565b613406919061589c565b4211613447576040517f08c379a000000000000000000000000000000000000000000000000000000000815260040161343e90615bd8565b60405180910390fd5b600560026000838152602001908152602001600020600b0160006101000a81548160ff0219169083600781111561348157613480614fb7565b5b02179055506002600082815260200190815260200160002060010160009054906101000a900473ffffffffffffffffffffffffffffffffffffffff1673ffffffffffffffffffffffffffffffffffffffff166108fc600c60026000858152602001908152602001600020600401546134f991906159b3565b9081150290604051600060405180830381858888f19350505050158015613524573d6000803e3d6000fd5b507fb56ab0c8ca3c4a2f3256c9dab1834145295ed481d85fd1afde56ff8c7298c3ec6002600083815260200190815260200160002060010160009054906101000a900473ffffffffffffffffffffffffffffffffffffffff16600c60026000858152602001908152602001600020600401546135a091906159b3565b6040516135ae929190615a94565b60405180910390a17f77df901e3c3426e23a34767cafcb99b6196af0f7676f4949f41e0f607c982dee816002600084815260200190815260200160002060010160009054906101000a900473ffffffffffffffffffffffffffffffffffffffff166002600085815260200190815260200160002060020160009054906101000a900473ffffffffffffffffffffffffffffffffffffffff1660405161365593929190615abd565b60405180910390a150565b60007f000000000000000000000000000000000000000000000000000000000000000073ffffffffffffffffffffffffffffffffffffffff163373ffffffffffffffffffffffffffffffffffffffff16146136e7576040517f82593d3000000000000000000000000000000000000000000000000000000000815260040160405180910390fd5b600154905090565b60008060001b60026000848152602001908152602001600020600001541415613744576040517fda319dff00000000000000000000000000000000000000000000000000000000815260040160405180910390fd5b6002600083815260200190815260200160002060020160009054906101000a900473ffffffffffffffffffffffffffffffffffffffff1673ffffffffffffffffffffffffffffffffffffffff163373ffffffffffffffffffffffffffffffffffffffff16146137df576040517fa898452000000000000000000000000000000000000000000000000000000000815260040160405180910390fd5b600060078111156137f3576137f2614fb7565b5b60026000848152602001908152602001600020600b0160009054906101000a900460ff16600781111561382957613828614fb7565b5b1461386c5760006040517f0bb377be0000000000000000000000000000000000000000000000000000000081526004016138639190615998565b60405180910390fd5b600a600260008481526020019081526020016000206004015461388f91906159b3565b9050919050565b60007f0000000000000000000000000000000000000000000000000000000000000000905090565b60007f000000000000000000000000000000000000000000000000000000000000000073ffffffffffffffffffffffffffffffffffffffff163373ffffffffffffffffffffffffffffffffffffffff1614613945576040517f82593d3000000000000000000000000000000000000000000000000000000000815260040160405180910390fd5b60008054906101000a900473ffffffffffffffffffffffffffffffffffffffff16905090565b600073ffffffffffffffffffffffffffffffffffffffff1660008054906101000a900473ffffffffffffffffffffffffffffffffffffffff1673ffffffffffffffffffffffffffffffffffffffff1614156139f2576040517f3eefffa400000000000000000000000000000000000000000000000000000000815260040160405180910390fd5b60008054906101000a900473ffffffffffffffffffffffffffffffffffffffff1673ffffffffffffffffffffffffffffffffffffffff163373ffffffffffffffffffffffffffffffffffffffff1614613a77576040517f42f84e1500000000000000000000000000000000000000000000000000000000815260040160405180910390fd5b6000801b600260008981526020019081526020016000206000015414613ac9576040517ff2e16b0300000000000000000000000000000000000000000000000000000000815260040160405180910390fd5b600284613ad691906159b3565b3414613b2757600284613ae991906159b3565b346040517f558b78b8000000000000000000000000000000000000000000000000000000008152600401613b1e929190615a0d565b60405180910390fd5b866002600089815260200190815260200160002060000181905550856002600089815260200190815260200160002060010160006101000a81548173ffffffffffffffffffffffffffffffffffffffff021916908373ffffffffffffffffffffffffffffffffffffffff160217905550846002600089815260200190815260200160002060020160006101000a81548173ffffffffffffffffffffffffffffffffffffffff021916908373ffffffffffffffffffffffffffffffffffffffff1602179055508360026000898152602001908152602001600020600401819055508260026000898152602001908152602001600020600301819055508160026000898152602001908152602001600020600a018190555080600260008981526020019081526020016000206008019080519060200190613c67929190614d2b565b50600060026000898152602001908152602001600020600b0160006101000a81548160ff02191690836007811115613ca257613ca1614fb7565b5b0217905550600060026000898152602001908152602001600020600b0160016101000a81548160ff02191690836002811115613ce157613ce0614fb7565b5b021790555060038790806001815401808255809150506001900390600052602060002001600090919091909150557f86a1455bc0c745e7ed02d6d0658be68508dd1dea11eed285160e0688859ac7cb878787604051613d4293929190615bf8565b60405180910390a150505050505050565b6000801b60026000838152602001908152602001600020600001541415613da6576040517fda319dff00000000000000000000000000000000000000000000000000000000815260040160405180910390fd5b6002600082815260200190815260200160002060020160009054906101000a900473ffffffffffffffffffffffffffffffffffffffff1673ffffffffffffffffffffffffffffffffffffffff163373ffffffffffffffffffffffffffffffffffffffff1614613e41576040517fa898452000000000000000000000000000000000000000000000000000000000815260040160405180910390fd5b60006007811115613e5557613e54614fb7565b5b60026000838152602001908152602001600020600b0160009054906101000a900460ff166007811115613e8b57613e8a614fb7565b5b14613ece5760006040517f0bb377be000000000000000000000000000000000000000000000000000000008152600401613ec59190615998565b60405180910390fd5b600a6002600083815260200190815260200160002060040154613ef191906159b3565b3414613f5857600a6002600083815260200190815260200160002060040154613f1a91906159b3565b346040517f558b78b8000000000000000000000000000000000000000000000000000000008152600401613f4f929190615a0d565b60405180910390fd5b4260026000838152602001908152602001600020600601819055506002806000838152602001908152602001600020600b0160006101000a81548160ff02191690836007811115613fac57613fab614fb7565b5b02179055507f2a1f97202782a7c44b909186e1de5c2eff0dcce71cadb0aa37ef5fee96f60f79816002600084815260200190815260200160002060010160009054906101000a900473ffffffffffffffffffffffffffffffffffffffff166002600085815260200190815260200160002060020160009054906101000a900473ffffffffffffffffffffffffffffffffffffffff1660405161405093929190615abd565b60405180910390a150565b7f000000000000000000000000000000000000000000000000000000000000000073ffffffffffffffffffffffffffffffffffffffff163373ffffffffffffffffffffffffffffffffffffffff16146140e0576040517f82593d3000000000000000000000000000000000000000000000000000000000815260040160405180910390fd5b806000806101000a81548173ffffffffffffffffffffffffffffffffffffffff021916908373ffffffffffffffffffffffffffffffffffffffff16021790555050565b61412b614db1565b600560008373ffffffffffffffffffffffffffffffffffffffff1673ffffffffffffffffffffffffffffffffffffffff168152602001908152602001600020604051806040016040529081600082015481526020016001820154815250509050919050565b614198614dcb565b600460008373ffffffffffffffffffffffffffffffffffffffff1673ffffffffffffffffffffffffffffffffffffffff168152602001908152602001600020604051806040016040529081600082015481526020016001820154815250509050919050565b60606000801b60026000848152602001908152602001600020600001541415614252576040517fda319dff00000000000000000000000000000000000000000000000000000000815260040160405180910390fd5b6002600083815260200190815260200160002060020160009054906101000a900473ffffffffffffffffffffffffffffffffffffffff1673ffffffffffffffffffffffffffffffffffffffff163373ffffffffffffffffffffffffffffffffffffffff16146142ed576040517fa898452000000000000000000000000000000000000000000000000000000000815260040160405180910390fd5b6002600781111561430157614300614fb7565b5b60026000848152602001908152602001600020600b0160009054906101000a900460ff16600781111561433757614336614fb7565b5b1461437a5760026040517f0bb377be0000000000000000000000000000000000000000000000000000000081526004016143719190615998565b60405180910390fd5b60026000838152602001908152602001600020600801805461439b906157f2565b80601f01602080910402602001604051908101604052809291908181526020018280546143c7906157f2565b80156144145780601f106143e957610100808354040283529160200191614414565b820191906000526020600020905b8154815290600101906020018083116143f757829003601f168201915b50505050509050919050565b6060600060038054905067ffffffffffffffff811115614443576144426153a3565b5b60405190808252806020026020018201604052801561447c57816020015b614469614c6d565b8152602001906001900390816144615790505b5090506000805b600380549050811015614821573373ffffffffffffffffffffffffffffffffffffffff1660026000600384815481106144bf576144be615794565b5b9060005260206000200154815260200190815260200160002060010160009054906101000a900473ffffffffffffffffffffffffffffffffffffffff1673ffffffffffffffffffffffffffffffffffffffff16141561480e5760026000600383815481106145305761452f615794565b5b90600052602060002001548152602001908152602001600020604051806101a0016040529081600082015481526020016001820160009054906101000a900473ffffffffffffffffffffffffffffffffffffffff1673ffffffffffffffffffffffffffffffffffffffff1673ffffffffffffffffffffffffffffffffffffffff1681526020016002820160009054906101000a900473ffffffffffffffffffffffffffffffffffffffff1673ffffffffffffffffffffffffffffffffffffffff1673ffffffffffffffffffffffffffffffffffffffff168152602001600382015481526020016004820154815260200160058201548152602001600682015481526020016007820154815260200160088201805461464d906157f2565b80601f0160208091040260200160405190810160405280929190818152602001828054614679906157f2565b80156146c65780601f1061469b576101008083540402835291602001916146c6565b820191906000526020600020905b8154815290600101906020018083116146a957829003601f168201915b505050505081526020016009820180546146df906157f2565b80601f016020809104026020016040519081016040528092919081815260200182805461470b906157f2565b80156147585780601f1061472d57610100808354040283529160200191614758565b820191906000526020600020905b81548152906001019060200180831161473b57829003601f168201915b50505050508152602001600a8201548152602001600b820160009054906101000a900460ff1660078111156147905761478f614fb7565b5b60078111156147a2576147a1614fb7565b5b8152602001600b820160019054906101000a900460ff1660028111156147cb576147ca614fb7565b5b60028111156147dd576147dc614fb7565b5b815250508383815181106147f4576147f3615794565b5b6020026020010181905250818061480a90615853565b9250505b808061481990615853565b915050614483565b5060008167ffffffffffffffff81111561483e5761483d6153a3565b5b60405190808252806020026020018201604052801561487757816020015b614864614c6d565b81526020019060019003908161485c5790505b50905060005b828110156148d15783818151811061489857614897615794565b5b60200260200101518282815181106148b3576148b2615794565b5b602002602001018190525080806148c990615853565b91505061487d565b5080935050505090565b6000801b6002600083815260200190815260200160002060000154141561492e576040517fda319dff00000000000000000000000000000000000000000000000000000000815260040160405180910390fd5b6002600082815260200190815260200160002060010160009054906101000a900473ffffffffffffffffffffffffffffffffffffffff1673ffffffffffffffffffffffffffffffffffffffff163373ffffffffffffffffffffffffffffffffffffffff16146149c9576040517f1117923b00000000000000000000000000000000000000000000000000000000815260040160405180910390fd5b600060078111156149dd576149dc614fb7565b5b60026000838152602001908152602001600020600b0160009054906101000a900460ff166007811115614a1357614a12614fb7565b5b14614a565760006040517f0bb377be000000000000000000000000000000000000000000000000000000008152600401614a4d9190615998565b60405180910390fd5b600160026000838152602001908152602001600020600b0160006101000a81548160ff02191690836007811115614a9057614a8f614fb7565b5b02179055506002600082815260200190815260200160002060010160009054906101000a900473ffffffffffffffffffffffffffffffffffffffff1673ffffffffffffffffffffffffffffffffffffffff166108fc600280600085815260200190815260200160002060040154614b0791906159b3565b9081150290604051600060405180830381858888f19350505050158015614b32573d6000803e3d6000fd5b507fb56ab0c8ca3c4a2f3256c9dab1834145295ed481d85fd1afde56ff8c7298c3ec6002600083815260200190815260200160002060010160009054906101000a900473ffffffffffffffffffffffffffffffffffffffff16600280600085815260200190815260200160002060040154614bad91906159b3565b604051614bbb929190615a94565b60405180910390a17f87c2138f706de178b7c62c30e6665ee7e0f2e6c70bb1f3a956fd37cad5159d15816002600084815260200190815260200160002060010160009054906101000a900473ffffffffffffffffffffffffffffffffffffffff166002600085815260200190815260200160002060020160009054906101000a900473ffffffffffffffffffffffffffffffffffffffff16604051614c6293929190615abd565b60405180910390a150565b604051806101a0016040528060008019168152602001600073ffffffffffffffffffffffffffffffffffffffff168152602001600073ffffffffffffffffffffffffffffffffffffffff168152602001600081526020016000815260200160008152602001600081526020016000815260200160608152602001606081526020016000801916815260200160006007811115614d0c57614d0b614fb7565b5b815260200160006002811115614d2557614d24614fb7565b5b81525090565b828054614d37906157f2565b90600052602060002090601f016020900481019282614d595760008555614da0565b82601f10614d7257805160ff1916838001178555614da0565b82800160010185558215614da0579182015b82811115614d9f578251825591602001919060010190614d84565b5b509050614dad9190614de5565b5090565b604051806040016040528060008152602001600081525090565b604051806040016040528060008152602001600081525090565b5b80821115614dfe576000816000905550600101614de6565b5090565b600082825260208201905092915050565b7f6261642063616c6c000000000000000000000000000000000000000000000000600082015250565b6000614e49600883614e02565b9150614e5482614e13565b602082019050919050565b60006020820190508181036000830152614e7881614e3c565b9050919050565b600081519050919050565b600082825260208201905092915050565b6000819050602082019050919050565b6000819050919050565b614ebe81614eab565b82525050565b600073ffffffffffffffffffffffffffffffffffffffff82169050919050565b6000614eef82614ec4565b9050919050565b614eff81614ee4565b82525050565b6000819050919050565b614f1881614f05565b82525050565b600081519050919050565b600082825260208201905092915050565b60005b83811015614f58578082015181840152602081019050614f3d565b83811115614f67576000848401525b50505050565b6000601f19601f8301169050919050565b6000614f8982614f1e565b614f938185614f29565b9350614fa3818560208601614f3a565b614fac81614f6d565b840191505092915050565b7f4e487b7100000000000000000000000000000000000000000000000000000000600052602160045260246000fd5b60088110614ff757614ff6614fb7565b5b50565b600081905061500882614fe6565b919050565b600061501882614ffa565b9050919050565b6150288161500d565b82525050565b6003811061503f5761503e614fb7565b5b50565b60008190506150508261502e565b919050565b600061506082615042565b9050919050565b61507081615055565b82525050565b60006101a08301600083015161508f6000860182614eb5565b5060208301516150a26020860182614ef6565b5060408301516150b56040860182614ef6565b5060608301516150c86060860182614f0f565b5060808301516150db6080860182614f0f565b5060a08301516150ee60a0860182614f0f565b5060c083015161510160c0860182614f0f565b5060e083015161511460e0860182614f0f565b5061010083015184820361010086015261512e8282614f7e565b91505061012083015184820361012086015261514a8282614f7e565b915050610140830151615161610140860182614eb5565b5061016083015161517661016086018261501f565b5061018083015161518b610180860182615067565b508091505092915050565b60006151a28383615076565b905092915050565b6000602082019050919050565b60006151c282614e7f565b6151cc8185614e8a565b9350836020820285016151de85614e9b565b8060005b8581101561521a57848403895281516151fb8582615196565b9450615206836151aa565b925060208a019950506001810190506151e2565b50829750879550505050505092915050565b6000602082019050818103600083015261524681846151b7565b905092915050565b6000604051905090565b600080fd5b600080fd5b61526b81614eab565b811461527657600080fd5b50565b60008135905061528881615262565b92915050565b6000602082840312156152a4576152a3615258565b5b60006152b284828501615279565b91505092915050565b6152c481614f05565b82525050565b60006020820190506152df60008301846152bb565b92915050565b6152ee81614f05565b81146152f957600080fd5b50565b60008135905061530b816152e5565b92915050565b60006020828403121561532757615326615258565b5b6000615335848285016152fc565b91505092915050565b600061534982614f1e565b6153538185614e02565b9350615363818560208601614f3a565b61536c81614f6d565b840191505092915050565b60006020820190508181036000830152615391818461533e565b905092915050565b600080fd5b600080fd5b7f4e487b7100000000000000000000000000000000000000000000000000000000600052604160045260246000fd5b6153db82614f6d565b810181811067ffffffffffffffff821117156153fa576153f96153a3565b5b80604052505050565b600061540d61524e565b905061541982826153d2565b919050565b600067ffffffffffffffff821115615439576154386153a3565b5b61544282614f6d565b9050602081019050919050565b82818337600083830152505050565b600061547161546c8461541e565b615403565b90508281526020810184848401111561548d5761548c61539e565b5b61549884828561544f565b509392505050565b600082601f8301126154b5576154b4615399565b5b81356154c584826020860161545e565b91505092915050565b600080604083850312156154e5576154e4615258565b5b60006154f385828601615279565b925050602083013567ffffffffffffffff8111156155145761551361525d565b5b615520858286016154a0565b9150509250929050565b6000806000806080858703121561554457615543615258565b5b600061555287828801615279565b945050602085013567ffffffffffffffff8111156155735761557261525d565b5b61557f878288016154a0565b9350506040615590878288016152fc565b92505060606155a1878288016152fc565b91505092959194509250565b60006155b882614ec4565b9050919050565b6155c8816155ad565b82525050565b60006020820190506155e360008301846155bf565b92915050565b6155f2816155ad565b81146155fd57600080fd5b50565b60008135905061560f816155e9565b92915050565b600080600080600080600060e0888a03121561563457615633615258565b5b60006156428a828b01615279565b97505060206156538a828b01615600565b96505060406156648a828b01615600565b95505060606156758a828b016152fc565b94505060806156868a828b016152fc565b93505060a06156978a828b01615279565b92505060c088013567ffffffffffffffff8111156156b8576156b761525d565b5b6156c48a828b016154a0565b91505092959891949750929550565b6000602082840312156156e9576156e8615258565b5b60006156f784828501615600565b91505092915050565b6040820160008201516157166000850182614f0f565b5060208201516157296020850182614f0f565b50505050565b60006040820190506157446000830184615700565b92915050565b6040820160008201516157606000850182614f0f565b5060208201516157736020850182614f0f565b50505050565b600060408201905061578e600083018461574a565b92915050565b7f4e487b7100000000000000000000000000000000000000000000000000000000600052603260045260246000fd5b7f4e487b7100000000000000000000000000000000000000000000000000000000600052602260045260246000fd5b6000600282049050600182168061580a57607f821691505b6020821081141561581e5761581d6157c3565b5b50919050565b7f4e487b7100000000000000000000000000000000000000000000000000000000600052601160045260246000fd5b600061585e82614f05565b91507fffffffffffffffffffffffffffffffffffffffffffffffffffffffffffffffff82141561589157615890615824565b5b600182019050919050565b60006158a782614f05565b91506158b283614f05565b9250827fffffffffffffffffffffffffffffffffffffffffffffffffffffffffffffffff038211156158e7576158e6615824565b5b828201905092915050565b6000819050919050565b600061591761591261590d84614ec4565b6158f2565b614ec4565b9050919050565b6000615929826158fc565b9050919050565b600061593b8261591e565b9050919050565b61594b81615930565b82525050565b61595a81614eab565b82525050565b60006040820190506159756000830185615942565b6159826020830184615951565b9392505050565b6159928161500d565b82525050565b60006020820190506159ad6000830184615989565b92915050565b60006159be82614f05565b91506159c983614f05565b9250817fffffffffffffffffffffffffffffffffffffffffffffffffffffffffffffffff0483118215151615615a0257615a01615824565b5b828202905092915050565b6000604082019050615a2260008301856152bb565b615a2f60208301846152bb565b9392505050565b6000615a4182614f05565b9150615a4c83614f05565b925082821015615a5f57615a5e615824565b5b828203905092915050565b615a7381615055565b82525050565b6000602082019050615a8e6000830184615a6a565b92915050565b6000604082019050615aa96000830185615942565b615ab660208301846152bb565b9392505050565b6000606082019050615ad26000830186615951565b615adf6020830185615942565b615aec6040830184615942565b949350505050565b6000608082019050615b096000830187615951565b615b166020830186615942565b615b236040830185615942565b615b3060608301846152bb565b95945050505050565b600081905092915050565b6000615b4f82614f1e565b615b598185615b39565b9350615b69818560208601614f3a565b80840191505092915050565b6000615b818284615b44565b915081905092915050565b7f54696d6520686173206e6f7420657870697265642e0000000000000000000000600082015250565b6000615bc2601583614e02565b9150615bcd82615b8c565b602082019050919050565b60006020820190508181036000830152615bf181615bb5565b9050919050565b6000606082019050615c0d6000830186615951565b615c1a60208301856155bf565b615c2760408301846155bf565b94935050505056fea2646970667358221220899c00e8b928c62182af37e137e140e79682da36a9f3f437d6c3cfae645ba5f264736f6c63430008080033",
  "devdoc": {
    "kind": "dev",
    "methods": {},
    "version": 1
  },
  "userdoc": {
    "kind": "user",
    "methods": {},
    "version": 1
  },
  "storageLayout": {
    "storage": [
      {
        "astId": 1327,
        "contract": "contracts/TasksManager.sol:TasksManager",
        "label": "auctionAddress",
        "offset": 0,
        "slot": "0",
        "type": "t_address"
      },
      {
        "astId": 1330,
        "contract": "contracts/TasksManager.sol:TasksManager",
        "label": "bank",
        "offset": 0,
        "slot": "1",
        "type": "t_uint256"
      },
      {
        "astId": 1387,
        "contract": "contracts/TasksManager.sol:TasksManager",
        "label": "tasks",
        "offset": 0,
        "slot": "2",
        "type": "t_mapping(t_bytes32,t_struct(Task)1372_storage)"
      },
      {
        "astId": 1390,
        "contract": "contracts/TasksManager.sol:TasksManager",
        "label": "bytes32_tasks",
        "offset": 0,
        "slot": "3",
        "type": "t_array(t_bytes32)dyn_storage"
      },
      {
        "astId": 1395,
        "contract": "contracts/TasksManager.sol:TasksManager",
        "label": "providerPerformance",
        "offset": 0,
        "slot": "4",
        "type": "t_mapping(t_address,t_struct(providerRating)1377_storage)"
      },
      {
        "astId": 1400,
        "contract": "contracts/TasksManager.sol:TasksManager",
        "label": "clientPerformance",
        "offset": 0,
        "slot": "5",
        "type": "t_mapping(t_address,t_struct(clientRating)1382_storage)"
      }
    ],
    "types": {
      "t_address": {
        "encoding": "inplace",
        "label": "address",
        "numberOfBytes": "20"
      },
      "t_address_payable": {
        "encoding": "inplace",
        "label": "address payable",
        "numberOfBytes": "20"
      },
      "t_array(t_bytes32)dyn_storage": {
        "base": "t_bytes32",
        "encoding": "dynamic_array",
        "label": "bytes32[]",
        "numberOfBytes": "32"
      },
      "t_bytes32": {
        "encoding": "inplace",
        "label": "bytes32",
        "numberOfBytes": "32"
      },
      "t_enum(PaymentState)1343": {
        "encoding": "inplace",
        "label": "enum TasksManager.PaymentState",
        "numberOfBytes": "1"
      },
      "t_enum(TaskState)1339": {
        "encoding": "inplace",
        "label": "enum TasksManager.TaskState",
        "numberOfBytes": "1"
      },
      "t_mapping(t_address,t_struct(clientRating)1382_storage)": {
        "encoding": "mapping",
        "key": "t_address",
        "label": "mapping(address => struct TasksManager.clientRating)",
        "numberOfBytes": "32",
        "value": "t_struct(clientRating)1382_storage"
      },
      "t_mapping(t_address,t_struct(providerRating)1377_storage)": {
        "encoding": "mapping",
        "key": "t_address",
        "label": "mapping(address => struct TasksManager.providerRating)",
        "numberOfBytes": "32",
        "value": "t_struct(providerRating)1377_storage"
      },
      "t_mapping(t_bytes32,t_struct(Task)1372_storage)": {
        "encoding": "mapping",
        "key": "t_bytes32",
        "label": "mapping(bytes32 => struct TasksManager.Task)",
        "numberOfBytes": "32",
        "value": "t_struct(Task)1372_storage"
      },
      "t_string_storage": {
        "encoding": "bytes",
        "label": "string",
        "numberOfBytes": "32"
      },
      "t_struct(Task)1372_storage": {
        "encoding": "inplace",
        "label": "struct TasksManager.Task",
        "members": [
          {
            "astId": 1345,
            "contract": "contracts/TasksManager.sol:TasksManager",
            "label": "taskID",
            "offset": 0,
            "slot": "0",
            "type": "t_bytes32"
          },
          {
            "astId": 1347,
            "contract": "contracts/TasksManager.sol:TasksManager",
            "label": "client",
            "offset": 0,
            "slot": "1",
            "type": "t_address_payable"
          },
          {
            "astId": 1349,
            "contract": "contracts/TasksManager.sol:TasksManager",
            "label": "provider",
            "offset": 0,
            "slot": "2",
            "type": "t_address_payable"
          },
          {
            "astId": 1351,
            "contract": "contracts/TasksManager.sol:TasksManager",
            "label": "deadline",
            "offset": 0,
            "slot": "3",
            "type": "t_uint256"
          },
          {
            "astId": 1353,
            "contract": "contracts/TasksManager.sol:TasksManager",
            "label": "price",
            "offset": 0,
            "slot": "4",
            "type": "t_uint256"
          },
          {
            "astId": 1355,
            "contract": "contracts/TasksManager.sol:TasksManager",
            "label": "duration",
            "offset": 0,
            "slot": "5",
            "type": "t_uint256"
          },
          {
            "astId": 1357,
            "contract": "contracts/TasksManager.sol:TasksManager",
            "label": "activationTime",
            "offset": 0,
            "slot": "6",
            "type": "t_uint256"
          },
          {
            "astId": 1359,
            "contract": "contracts/TasksManager.sol:TasksManager",
            "label": "completionTime",
            "offset": 0,
            "slot": "7",
            "type": "t_uint256"
          },
          {
            "astId": 1361,
            "contract": "contracts/TasksManager.sol:TasksManager",
            "label": "code",
            "offset": 0,
            "slot": "8",
            "type": "t_string_storage"
          },
          {
            "astId": 1363,
            "contract": "contracts/TasksManager.sol:TasksManager",
            "label": "results",
            "offset": 0,
            "slot": "9",
            "type": "t_string_storage"
          },
          {
            "astId": 1365,
            "contract": "contracts/TasksManager.sol:TasksManager",
            "label": "clientVerification",
            "offset": 0,
            "slot": "10",
            "type": "t_bytes32"
          },
          {
            "astId": 1368,
            "contract": "contracts/TasksManager.sol:TasksManager",
            "label": "taskState",
            "offset": 0,
            "slot": "11",
            "type": "t_enum(TaskState)1339"
          },
          {
            "astId": 1371,
            "contract": "contracts/TasksManager.sol:TasksManager",
            "label": "paymentState",
            "offset": 1,
            "slot": "11",
            "type": "t_enum(PaymentState)1343"
          }
        ],
        "numberOfBytes": "384"
      },
      "t_struct(clientRating)1382_storage": {
        "encoding": "inplace",
        "label": "struct TasksManager.clientRating",
        "members": [
          {
            "astId": 1379,
            "contract": "contracts/TasksManager.sol:TasksManager",
            "label": "upVotes",
            "offset": 0,
            "slot": "0",
            "type": "t_uint256"
          },
          {
            "astId": 1381,
            "contract": "contracts/TasksManager.sol:TasksManager",
            "label": "downVotes",
            "offset": 0,
            "slot": "1",
            "type": "t_uint256"
          }
        ],
        "numberOfBytes": "64"
      },
      "t_struct(providerRating)1377_storage": {
        "encoding": "inplace",
        "label": "struct TasksManager.providerRating",
        "members": [
          {
            "astId": 1374,
            "contract": "contracts/TasksManager.sol:TasksManager",
            "label": "upVotes",
            "offset": 0,
            "slot": "0",
            "type": "t_uint256"
          },
          {
            "astId": 1376,
            "contract": "contracts/TasksManager.sol:TasksManager",
            "label": "downVotes",
            "offset": 0,
            "slot": "1",
            "type": "t_uint256"
          }
        ],
        "numberOfBytes": "64"
      },
      "t_uint256": {
        "encoding": "inplace",
        "label": "uint256",
        "numberOfBytes": "32"
      }
    }
  }
}