{
  "address": "0xe7f1725E7734CE288F8367e1Bb143E90bb3F0512",
  "abi": [
    {
      "inputs": [],
      "stateMutability": "nonpayable",
      "type": "constructor"
    },
    {
      "inputs": [],
      "name": "AuctionDoesNotExist",
      "type": "error"
    },
    {
      "inputs": [
        {
          "internalType": "enum AuctionsManager.AuctionState",
          "name": "auctionState",
          "type": "uint8"
        }
      ],
      "name": "AuctionNotInState",
      "type": "error"
    },
    {
      "inputs": [],
      "name": "NotCalledByClient",
      "type": "error"
    },
    {
      "inputs": [],
      "name": "NotCalledByOwner",
      "type": "error"
    },
    {
      "inputs": [],
      "name": "TasksManagerNotSet",
      "type": "error"
    },
    {
      "anonymous": false,
      "inputs": [
        {
          "indexed": false,
          "internalType": "bytes32",
          "name": "auctionID",
          "type": "bytes32"
        },
        {
          "indexed": false,
          "internalType": "address",
          "name": "client",
          "type": "address"
        }
      ],
      "name": "AuctionCancelled",
      "type": "event"
    },
    {
      "anonymous": false,
      "inputs": [
        {
          "indexed": false,
          "internalType": "bytes32",
          "name": "auctionID",
          "type": "bytes32"
        },
        {
          "indexed": false,
          "internalType": "address",
          "name": "client",
          "type": "address"
        }
      ],
      "name": "AuctionCreated",
      "type": "event"
    },
    {
      "anonymous": false,
      "inputs": [
        {
          "indexed": false,
          "internalType": "bytes32",
          "name": "auctionID",
          "type": "bytes32"
        }
      ],
      "name": "AuctionDeleted",
      "type": "event"
    },
    {
      "anonymous": false,
      "inputs": [
        {
          "indexed": false,
          "internalType": "bytes32",
          "name": "auctionID",
          "type": "bytes32"
        },
        {
          "indexed": false,
          "internalType": "address",
          "name": "client",
          "type": "address"
        },
        {
          "indexed": false,
          "internalType": "address",
          "name": "provider",
          "type": "address"
        }
      ],
      "name": "AuctionFinalized",
      "type": "event"
    },
    {
      "anonymous": false,
      "inputs": [
        {
          "indexed": false,
          "internalType": "bytes32",
          "name": "auctionID",
          "type": "bytes32"
        },
        {
          "indexed": false,
          "internalType": "address",
          "name": "provider",
          "type": "address"
        },
        {
          "indexed": false,
          "internalType": "uint256",
          "name": "bid",
          "type": "uint256"
        }
      ],
      "name": "BidPlaced",
      "type": "event"
    },
    {
      "anonymous": false,
      "inputs": [
        {
          "indexed": false,
          "internalType": "bytes32",
          "name": "auctionID",
          "type": "bytes32"
        },
        {
          "indexed": false,
          "internalType": "bytes32",
          "name": "taskID",
          "type": "bytes32"
        },
        {
          "indexed": false,
          "internalType": "address",
          "name": "client",
          "type": "address"
        },
        {
          "indexed": false,
          "internalType": "address",
          "name": "provider",
          "type": "address"
        }
      ],
      "name": "TaskIDCreated",
      "type": "event"
    },
    {
      "stateMutability": "payable",
      "type": "fallback"
    },
    {
      "inputs": [
        {
          "internalType": "bytes32",
          "name": "_auctionID",
          "type": "bytes32"
        },
        {
          "internalType": "uint256",
          "name": "_bid",
          "type": "uint256"
        }
      ],
      "name": "bid",
      "outputs": [],
      "stateMutability": "nonpayable",
      "type": "function"
    },
    {
      "inputs": [
        {
          "internalType": "bytes32",
          "name": "_auctionID",
          "type": "bytes32"
        }
      ],
      "name": "cancelAuction",
      "outputs": [],
      "stateMutability": "nonpayable",
      "type": "function"
    },
    {
      "inputs": [
        {
          "internalType": "uint256",
          "name": "_auctionDeadline",
          "type": "uint256"
        },
        {
          "internalType": "uint256",
          "name": "_taskDeadline",
          "type": "uint256"
        },
        {
          "internalType": "bytes32",
          "name": "_clientVerification",
          "type": "bytes32"
        },
        {
          "internalType": "string",
          "name": "_code",
          "type": "string"
        }
      ],
      "name": "createAuction",
      "outputs": [],
      "stateMutability": "nonpayable",
      "type": "function"
    },
    {
      "inputs": [
        {
          "internalType": "bytes32",
          "name": "_auctionID",
          "type": "bytes32"
        },
        {
          "internalType": "address",
          "name": "_provider",
          "type": "address"
        }
      ],
      "name": "finalize",
      "outputs": [],
      "stateMutability": "payable",
      "type": "function"
    },
    {
      "inputs": [],
      "name": "getActiveAuctions",
      "outputs": [
        {
          "components": [
            {
              "components": [
                {
                  "internalType": "bytes32",
                  "name": "auctionID",
                  "type": "bytes32"
                },
                {
                  "internalType": "address",
                  "name": "client",
                  "type": "address"
                },
                {
                  "internalType": "uint256",
                  "name": "creationTime",
                  "type": "uint256"
                },
                {
                  "internalType": "uint256",
                  "name": "auctionDeadline",
                  "type": "uint256"
                },
                {
                  "internalType": "uint256",
                  "name": "taskDeadline",
                  "type": "uint256"
                },
                {
                  "internalType": "bytes32",
                  "name": "clientVerification",
                  "type": "bytes32"
                },
                {
                  "internalType": "bytes32",
                  "name": "taskID",
                  "type": "bytes32"
                },
                {
                  "internalType": "string",
                  "name": "code",
                  "type": "string"
                },
                {
                  "components": [
                    {
                      "internalType": "address",
                      "name": "provider",
                      "type": "address"
                    },
                    {
                      "internalType": "uint256",
                      "name": "bid",
                      "type": "uint256"
                    },
                    {
                      "internalType": "uint256",
                      "name": "providerUpVotes",
                      "type": "uint256"
                    },
                    {
                      "internalType": "uint256",
                      "name": "providerDownVotes",
                      "type": "uint256"
                    }
                  ],
                  "internalType": "struct AuctionsManager.ProviderBid[]",
                  "name": "providerBids",
                  "type": "tuple[]"
                },
                {
                  "components": [
                    {
                      "internalType": "address",
                      "name": "provider",
                      "type": "address"
                    },
                    {
                      "internalType": "uint256",
                      "name": "bid",
                      "type": "uint256"
                    }
                  ],
                  "internalType": "struct AuctionsManager.WinnerBid",
                  "name": "winnerBid",
                  "type": "tuple"
                },
                {
                  "internalType": "enum AuctionsManager.AuctionState",
                  "name": "auctionState",
                  "type": "uint8"
                }
              ],
              "internalType": "struct AuctionsManager.Auction",
              "name": "auction",
              "type": "tuple"
            },
            {
              "internalType": "uint256",
              "name": "clientUpVotes",
              "type": "uint256"
            },
            {
              "internalType": "uint256",
              "name": "clientDownVotes",
              "type": "uint256"
            }
          ],
          "internalType": "struct AuctionsManager.ActiveAuction[]",
          "name": "",
          "type": "tuple[]"
        }
      ],
      "stateMutability": "view",
      "type": "function"
    },
    {
      "inputs": [],
      "name": "getAuctionActiveBidsByProvider",
      "outputs": [
        {
          "components": [
            {
              "internalType": "bytes32",
              "name": "auctionID",
              "type": "bytes32"
            },
            {
              "internalType": "address",
              "name": "client",
              "type": "address"
            },
            {
              "internalType": "uint256",
              "name": "creationTime",
              "type": "uint256"
            },
            {
              "internalType": "uint256",
              "name": "auctionDeadline",
              "type": "uint256"
            },
            {
              "internalType": "uint256",
              "name": "taskDeadline",
              "type": "uint256"
            },
            {
              "internalType": "bytes32",
              "name": "clientVerification",
              "type": "bytes32"
            },
            {
              "internalType": "bytes32",
              "name": "taskID",
              "type": "bytes32"
            },
            {
              "internalType": "string",
              "name": "code",
              "type": "string"
            },
            {
              "components": [
                {
                  "internalType": "address",
                  "name": "provider",
                  "type": "address"
                },
                {
                  "internalType": "uint256",
                  "name": "bid",
                  "type": "uint256"
                },
                {
                  "internalType": "uint256",
                  "name": "providerUpVotes",
                  "type": "uint256"
                },
                {
                  "internalType": "uint256",
                  "name": "providerDownVotes",
                  "type": "uint256"
                }
              ],
              "internalType": "struct AuctionsManager.ProviderBid[]",
              "name": "providerBids",
              "type": "tuple[]"
            },
            {
              "components": [
                {
                  "internalType": "address",
                  "name": "provider",
                  "type": "address"
                },
                {
                  "internalType": "uint256",
                  "name": "bid",
                  "type": "uint256"
                }
              ],
              "internalType": "struct AuctionsManager.WinnerBid",
              "name": "winnerBid",
              "type": "tuple"
            },
            {
              "internalType": "enum AuctionsManager.AuctionState",
              "name": "auctionState",
              "type": "uint8"
            }
          ],
          "internalType": "struct AuctionsManager.Auction[]",
          "name": "",
          "type": "tuple[]"
        }
      ],
      "stateMutability": "view",
      "type": "function"
    },
    {
      "inputs": [
        {
          "internalType": "bytes32",
          "name": "_auctionID",
          "type": "bytes32"
        }
      ],
      "name": "getAuctionBids",
      "outputs": [
        {
          "components": [
            {
              "internalType": "address",
              "name": "provider",
              "type": "address"
            },
            {
              "internalType": "uint256",
              "name": "bid",
              "type": "uint256"
            },
            {
              "internalType": "uint256",
              "name": "providerUpVotes",
              "type": "uint256"
            },
            {
              "internalType": "uint256",
              "name": "providerDownVotes",
              "type": "uint256"
            }
          ],
          "internalType": "struct AuctionsManager.ProviderBid[]",
          "name": "",
          "type": "tuple[]"
        }
      ],
      "stateMutability": "view",
      "type": "function"
    },
    {
      "inputs": [],
      "name": "getAuctionWinnersByProvider",
      "outputs": [
        {
          "components": [
            {
              "internalType": "bytes32",
              "name": "auctionID",
              "type": "bytes32"
            },
            {
              "internalType": "address",
              "name": "client",
              "type": "address"
            },
            {
              "internalType": "uint256",
              "name": "creationTime",
              "type": "uint256"
            },
            {
              "internalType": "uint256",
              "name": "auctionDeadline",
              "type": "uint256"
            },
            {
              "internalType": "uint256",
              "name": "taskDeadline",
              "type": "uint256"
            },
            {
              "internalType": "bytes32",
              "name": "clientVerification",
              "type": "bytes32"
            },
            {
              "internalType": "bytes32",
              "name": "taskID",
              "type": "bytes32"
            },
            {
              "internalType": "string",
              "name": "code",
              "type": "string"
            },
            {
              "components": [
                {
                  "internalType": "address",
                  "name": "provider",
                  "type": "address"
                },
                {
                  "internalType": "uint256",
                  "name": "bid",
                  "type": "uint256"
                },
                {
                  "internalType": "uint256",
                  "name": "providerUpVotes",
                  "type": "uint256"
                },
                {
                  "internalType": "uint256",
                  "name": "providerDownVotes",
                  "type": "uint256"
                }
              ],
              "internalType": "struct AuctionsManager.ProviderBid[]",
              "name": "providerBids",
              "type": "tuple[]"
            },
            {
              "components": [
                {
                  "internalType": "address",
                  "name": "provider",
                  "type": "address"
                },
                {
                  "internalType": "uint256",
                  "name": "bid",
                  "type": "uint256"
                }
              ],
              "internalType": "struct AuctionsManager.WinnerBid",
              "name": "winnerBid",
              "type": "tuple"
            },
            {
              "internalType": "enum AuctionsManager.AuctionState",
              "name": "auctionState",
              "type": "uint8"
            }
          ],
          "internalType": "struct AuctionsManager.Auction[]",
          "name": "",
          "type": "tuple[]"
        }
      ],
      "stateMutability": "view",
      "type": "function"
    },
    {
      "inputs": [],
      "name": "getAuctionsByClient",
      "outputs": [
        {
          "components": [
            {
              "internalType": "bytes32",
              "name": "auctionID",
              "type": "bytes32"
            },
            {
              "internalType": "address",
              "name": "client",
              "type": "address"
            },
            {
              "internalType": "uint256",
              "name": "creationTime",
              "type": "uint256"
            },
            {
              "internalType": "uint256",
              "name": "auctionDeadline",
              "type": "uint256"
            },
            {
              "internalType": "uint256",
              "name": "taskDeadline",
              "type": "uint256"
            },
            {
              "internalType": "bytes32",
              "name": "clientVerification",
              "type": "bytes32"
            },
            {
              "internalType": "bytes32",
              "name": "taskID",
              "type": "bytes32"
            },
            {
              "internalType": "string",
              "name": "code",
              "type": "string"
            },
            {
              "components": [
                {
                  "internalType": "address",
                  "name": "provider",
                  "type": "address"
                },
                {
                  "internalType": "uint256",
                  "name": "bid",
                  "type": "uint256"
                },
                {
                  "internalType": "uint256",
                  "name": "providerUpVotes",
                  "type": "uint256"
                },
                {
                  "internalType": "uint256",
                  "name": "providerDownVotes",
                  "type": "uint256"
                }
              ],
              "internalType": "struct AuctionsManager.ProviderBid[]",
              "name": "providerBids",
              "type": "tuple[]"
            },
            {
              "components": [
                {
                  "internalType": "address",
                  "name": "provider",
                  "type": "address"
                },
                {
                  "internalType": "uint256",
                  "name": "bid",
                  "type": "uint256"
                }
              ],
              "internalType": "struct AuctionsManager.WinnerBid",
              "name": "winnerBid",
              "type": "tuple"
            },
            {
              "internalType": "enum AuctionsManager.AuctionState",
              "name": "auctionState",
              "type": "uint8"
            }
          ],
          "internalType": "struct AuctionsManager.Auction[]",
          "name": "",
          "type": "tuple[]"
        }
      ],
      "stateMutability": "view",
      "type": "function"
    },
    {
      "inputs": [],
      "name": "getOwner",
      "outputs": [
        {
          "internalType": "address",
          "name": "",
          "type": "address"
        }
      ],
      "stateMutability": "view",
      "type": "function"
    },
    {
      "inputs": [],
      "name": "getTasksManager",
      "outputs": [
        {
          "internalType": "address",
          "name": "",
          "type": "address"
        }
      ],
      "stateMutability": "view",
      "type": "function"
    },
    {
      "inputs": [
        {
          "internalType": "address payable",
          "name": "_tasksManagerAddress",
          "type": "address"
        }
      ],
      "name": "setTasksManager",
      "outputs": [],
      "stateMutability": "nonpayable",
      "type": "function"
    },
    {
      "stateMutability": "payable",
      "type": "receive"
    }
  ],
  "transactionHash": "0x75b4652f86b365013ff8dc581222721eadac8e2447bb0c58a4f3b38ce3ffc42c",
  "args": [],
  "numDeployments": 1,
  "solcInputHash": "62a4eff121bfb86815db080c1f91d979",
  "bytecode": "0x60a060405234801561001057600080fd5b503373ffffffffffffffffffffffffffffffffffffffff1660808173ffffffffffffffffffffffffffffffffffffffff1660601b8152505060805160601c61466061007460003960008181610bfd0152818161299a0152612a6401526146606000f3fe6080604052600436106100ab5760003560e01c8063c618e93811610064578063c618e938146101f1578063cd772f5c1461021c578063cf44b5d514610245578063e0a7632414610270578063e151556314610299578063e369e93c146102c4576100eb565b806312e1d724146100f05780633ef4d1301461010c578063893d20e8146101355780639ad01fde146101605780639b680e7d1461018b578063a02daf96146101c8576100eb565b366100eb576040517f08c379a00000000000000000000000000000000000000000000000000000000081526004016100e290613373565b60405180910390fd5b600080fd5b61010a6004803603810190610105919061343b565b6102ef565b005b34801561011857600080fd5b50610133600480360381019061012e919061347b565b6109ce565b005b34801561014157600080fd5b5061014a610bf9565b60405161015791906134b7565b60405180910390f35b34801561016c57600080fd5b50610175610c21565b6040516101829190613904565b60405180910390f35b34801561019757600080fd5b506101b260048036038101906101ad919061347b565b6110f6565b6040516101bf9190613995565b60405180910390f35b3480156101d457600080fd5b506101ef60048036038101906101ea9190613b18565b6111df565b005b3480156101fd57600080fd5b506102066113c3565b6040516102139190613904565b60405180910390f35b34801561022857600080fd5b50610243600480360381019061023e9190613b9b565b61189b565b005b34801561025157600080fd5b5061025a61216d565b6040516102679190613ced565b60405180910390f35b34801561027c57600080fd5b5061029760048036038101906102929190613d4d565b612998565b005b3480156102a557600080fd5b506102ae612a60565b6040516102bb91906134b7565b60405180910390f35b3480156102d057600080fd5b506102d9612b0d565b6040516102e69190613904565b60405180910390f35b6000801b60016000848152602001908152602001600020600001541415610342576040517fe6759c6700000000000000000000000000000000000000000000000000000000815260040160405180910390fd5b6001600083815260200190815260200160002060010160009054906101000a900473ffffffffffffffffffffffffffffffffffffffff1673ffffffffffffffffffffffffffffffffffffffff163373ffffffffffffffffffffffffffffffffffffffff16146103dd576040517f1117923b00000000000000000000000000000000000000000000000000000000815260040160405180910390fd5b600060028111156103f1576103f0613701565b5b60016000848152602001908152602001600020600b0160009054906101000a900460ff16600281111561042757610426613701565b5b1461046a5760006040517f3462cfa70000000000000000000000000000000000000000000000000000000081526004016104619190613d89565b60405180910390fd5b600080600160008581526020019081526020016000206008018054905014156104c8576040517f08c379a00000000000000000000000000000000000000000000000000000000081526004016104bf90613df0565b60405180910390fd5b5b8173ffffffffffffffffffffffffffffffffffffffff1660016000858152602001908152602001600020600801828154811061050857610507613e10565b5b906000526020600020906004020160000160009054906101000a900473ffffffffffffffffffffffffffffffffffffffff1673ffffffffffffffffffffffffffffffffffffffff161461058d57808061056090613e6e565b915050600160008481526020019081526020016000206008018054905081106105885761058d565b6104c9565b600160008481526020019081526020016000206008018054905081106105e8576040517f08c379a00000000000000000000000000000000000000000000000000000000081526004016105df90613f03565b60405180910390fd5b6105f061314d565b82816000019073ffffffffffffffffffffffffffffffffffffffff16908173ffffffffffffffffffffffffffffffffffffffff16815250506001600085815260200190815260200160002060080182815481106106505761064f613e10565b5b9060005260206000209060040201600101548160200181815250506002816020015161067c9190613f23565b34146106bd576040517f08c379a00000000000000000000000000000000000000000000000000000000081526004016106b490613fc9565b60405180910390fd5b806001600086815260200190815260200160002060090160008201518160000160006101000a81548173ffffffffffffffffffffffffffffffffffffffff021916908373ffffffffffffffffffffffffffffffffffffffff160217905550602082015181600101559050506000600160008681526020019081526020016000209050600260016000878152602001908152602001600020600b0160006101000a81548160ff0219169083600281111561077957610778613701565b5b02179055507f5dc62360c21865a46dfb44f2f1a2386ff4cf8edab29d31b674bc57b890eb997a856001600088815260200190815260200160002060010160009054906101000a900473ffffffffffffffffffffffffffffffffffffffff16866040516107e793929190613ff8565b60405180910390a160008160010160009054906101000a900473ffffffffffffffffffffffffffffffffffffffff16834260405160200161082a9392919061406d565b6040516020818303038152906040528051906020012090508060016000888152602001908152602001600020600601819055507f23030c321f5f15865b31aad46a08b14abfb76ba6f12355b3b06b1283ecbb2a8b8682600160008a815260200190815260200160002060010160009054906101000a900473ffffffffffffffffffffffffffffffffffffffff16886040516108c894939291906140a4565b60405180910390a16000600260016000898152602001908152602001600020600901600101546108f89190613f23565b905060008054906101000a900473ffffffffffffffffffffffffffffffffffffffff1673ffffffffffffffffffffffffffffffffffffffff16638fb1516882848660010160009054906101000a900473ffffffffffffffffffffffffffffffffffffffff168a896020015189600401548a600501548b6007016040518963ffffffff1660e01b815260040161099397969594939291906141df565b6000604051808303818588803b1580156109ac57600080fd5b505af11580156109c0573d6000803e3d6000fd5b505050505050505050505050565b6000801b60016000838152602001908152602001600020600001541415610a21576040517fe6759c6700000000000000000000000000000000000000000000000000000000815260040160405180910390fd5b6001600082815260200190815260200160002060010160009054906101000a900473ffffffffffffffffffffffffffffffffffffffff1673ffffffffffffffffffffffffffffffffffffffff163373ffffffffffffffffffffffffffffffffffffffff1614610abc576040517f1117923b00000000000000000000000000000000000000000000000000000000815260040160405180910390fd5b60006002811115610ad057610acf613701565b5b60016000838152602001908152602001600020600b0160009054906101000a900460ff166002811115610b0657610b05613701565b5b14610b495760006040517f3462cfa7000000000000000000000000000000000000000000000000000000008152600401610b409190613d89565b60405180910390fd5b6001806000838152602001908152602001600020600b0160006101000a81548160ff02191690836002811115610b8257610b81613701565b5b02179055507fdfd67ed2d9ccedb4f55e5d8893bbe1ec9eaf3b2aa62142cb589acf883cddc0eb816001600084815260200190815260200160002060010160009054906101000a900473ffffffffffffffffffffffffffffffffffffffff16604051610bee929190614255565b60405180910390a150565b60007f0000000000000000000000000000000000000000000000000000000000000000905090565b6060600060028054905067ffffffffffffffff811115610c4457610c436139ed565b5b604051908082528060200260200182016040528015610c7d57816020015b610c6a61317d565b815260200190600190039081610c625790505b5090506000805b60028054905081101561103c573373ffffffffffffffffffffffffffffffffffffffff166001600060028481548110610cc057610cbf613e10565b5b9060005260206000200154815260200190815260200160002060010160009054906101000a900473ffffffffffffffffffffffffffffffffffffffff1673ffffffffffffffffffffffffffffffffffffffff161415611029576001600060028381548110610d3157610d30613e10565b5b9060005260206000200154815260200190815260200160002060405180610160016040529081600082015481526020016001820160009054906101000a900473ffffffffffffffffffffffffffffffffffffffff1673ffffffffffffffffffffffffffffffffffffffff1673ffffffffffffffffffffffffffffffffffffffff1681526020016002820154815260200160038201548152602001600482015481526020016005820154815260200160068201548152602001600782018054610df890614118565b80601f0160208091040260200160405190810160405280929190818152602001828054610e2490614118565b8015610e715780601f10610e4657610100808354040283529160200191610e71565b820191906000526020600020905b815481529060010190602001808311610e5457829003601f168201915b5050505050815260200160088201805480602002602001604051908101604052809291908181526020016000905b82821015610f4557838290600052602060002090600402016040518060800160405290816000820160009054906101000a900473ffffffffffffffffffffffffffffffffffffffff1673ffffffffffffffffffffffffffffffffffffffff1673ffffffffffffffffffffffffffffffffffffffff168152602001600182015481526020016002820154815260200160038201548152505081526020019060010190610e9f565b505050508152602001600982016040518060400160405290816000820160009054906101000a900473ffffffffffffffffffffffffffffffffffffffff1673ffffffffffffffffffffffffffffffffffffffff1673ffffffffffffffffffffffffffffffffffffffff1681526020016001820154815250508152602001600b820160009054906101000a900460ff166002811115610fe657610fe5613701565b5b6002811115610ff857610ff7613701565b5b8152505083838151811061100f5761100e613e10565b5b6020026020010181905250818061102590613e6e565b9250505b808061103490613e6e565b915050610c84565b5060008167ffffffffffffffff811115611059576110586139ed565b5b60405190808252806020026020018201604052801561109257816020015b61107f61317d565b8152602001906001900390816110775790505b50905060005b828110156110ec578381815181106110b3576110b2613e10565b5b60200260200101518282815181106110ce576110cd613e10565b5b602002602001018190525080806110e490613e6e565b915050611098565b5080935050505090565b606060016000838152602001908152602001600020600801805480602002602001604051908101604052809291908181526020016000905b828210156111d457838290600052602060002090600402016040518060800160405290816000820160009054906101000a900473ffffffffffffffffffffffffffffffffffffffff1673ffffffffffffffffffffffffffffffffffffffff1673ffffffffffffffffffffffffffffffffffffffff16815260200160018201548152602001600282015481526020016003820154815250508152602001906001019061112e565b505050509050919050565b60004233868686866040516020016111fc969594939291906142b7565b604051602081830303815290604052805190602001209050806001600083815260200190815260200160002060000181905550336001600083815260200190815260200160002060010160006101000a81548173ffffffffffffffffffffffffffffffffffffffff021916908373ffffffffffffffffffffffffffffffffffffffff1602179055504260016000838152602001908152602001600020600201819055508460016000838152602001908152602001600020600301819055508360016000838152602001908152602001600020600401819055508260016000838152602001908152602001600020600501819055508160016000838152602001908152602001600020600701908051906020019061131a92919061320e565b50600060016000838152602001908152602001600020600b0160006101000a81548160ff0219169083600281111561135557611354613701565b5b021790555060028190806001815401808255809150506001900390600052602060002001600090919091909150557f832e001c1b031a46bae65558b4362398dec9d31b642c5b1420b13fa0c065134381336040516113b4929190614255565b60405180910390a15050505050565b6060600060028054905067ffffffffffffffff8111156113e6576113e56139ed565b5b60405190808252806020026020018201604052801561141f57816020015b61140c61317d565b8152602001906001900390816114045790505b5090506000805b6002805490508110156117e1573373ffffffffffffffffffffffffffffffffffffffff16600160006002848154811061146257611461613e10565b5b9060005260206000200154815260200190815260200160002060090160000160009054906101000a900473ffffffffffffffffffffffffffffffffffffffff1673ffffffffffffffffffffffffffffffffffffffff1614156117ce5760016000600283815481106114d6576114d5613e10565b5b9060005260206000200154815260200190815260200160002060405180610160016040529081600082015481526020016001820160009054906101000a900473ffffffffffffffffffffffffffffffffffffffff1673ffffffffffffffffffffffffffffffffffffffff1673ffffffffffffffffffffffffffffffffffffffff168152602001600282015481526020016003820154815260200160048201548152602001600582015481526020016006820154815260200160078201805461159d90614118565b80601f01602080910402602001604051908101604052809291908181526020018280546115c990614118565b80156116165780601f106115eb57610100808354040283529160200191611616565b820191906000526020600020905b8154815290600101906020018083116115f957829003601f168201915b5050505050815260200160088201805480602002602001604051908101604052809291908181526020016000905b828210156116ea57838290600052602060002090600402016040518060800160405290816000820160009054906101000a900473ffffffffffffffffffffffffffffffffffffffff1673ffffffffffffffffffffffffffffffffffffffff1673ffffffffffffffffffffffffffffffffffffffff168152602001600182015481526020016002820154815260200160038201548152505081526020019060010190611644565b505050508152602001600982016040518060400160405290816000820160009054906101000a900473ffffffffffffffffffffffffffffffffffffffff1673ffffffffffffffffffffffffffffffffffffffff1673ffffffffffffffffffffffffffffffffffffffff1681526020016001820154815250508152602001600b820160009054906101000a900460ff16600281111561178b5761178a613701565b5b600281111561179d5761179c613701565b5b815250508383815181106117b4576117b3613e10565b5b602002602001018190525081806117ca90613e6e565b9250505b80806117d990613e6e565b915050611426565b5060008167ffffffffffffffff8111156117fe576117fd6139ed565b5b60405190808252806020026020018201604052801561183757816020015b61182461317d565b81526020019060019003908161181c5790505b50905060005b828110156118915783818151811061185857611857613e10565b5b602002602001015182828151811061187357611872613e10565b5b6020026020010181905250808061188990613e6e565b91505061183d565b5080935050505090565b600073ffffffffffffffffffffffffffffffffffffffff1660008054906101000a900473ffffffffffffffffffffffffffffffffffffffff1673ffffffffffffffffffffffffffffffffffffffff161415611922576040517fec48077700000000000000000000000000000000000000000000000000000000815260040160405180910390fd5b6000801b60016000848152602001908152602001600020600001541415611975576040517fe6759c6700000000000000000000000000000000000000000000000000000000815260040160405180910390fd5b6000600281111561198957611988613701565b5b60016000848152602001908152602001600020600b0160009054906101000a900460ff1660028111156119bf576119be613701565b5b14611a025760006040517f3462cfa70000000000000000000000000000000000000000000000000000000081526004016119f99190613d89565b60405180910390fd5b6001600083815260200190815260200160002060010160009054906101000a900473ffffffffffffffffffffffffffffffffffffffff1673ffffffffffffffffffffffffffffffffffffffff163373ffffffffffffffffffffffffffffffffffffffff161415611aa7576040517f08c379a0000000000000000000000000000000000000000000000000000000008152600401611a9e9061436b565b60405180910390fd5b60016000838152602001908152602001600020600301546001600084815260200190815260200160002060020154611adf919061438b565b421115611b21576040517f08c379a0000000000000000000000000000000000000000000000000000000008152600401611b189061442d565b60405180910390fd5b6000806000600160008681526020019081526020016000206008018054905014611cad575b3373ffffffffffffffffffffffffffffffffffffffff16600160008681526020019081526020016000206008018381548110611b8557611b84613e10565b5b906000526020600020906004020160000160009054906101000a900473ffffffffffffffffffffffffffffffffffffffff1673ffffffffffffffffffffffffffffffffffffffff1614611c0b578180611bdd90613e6e565b9250506001600085815260200190815260200160002060080180549050821115611c0657611c0b565b611b46565b60016000858152602001908152602001600020600801805490508211611cac57600160008581526020019081526020016000206008018281548110611c5357611c52613e10565b5b906000526020600020906004020160010154831115611ca7576040517f08c379a0000000000000000000000000000000000000000000000000000000008152600401611c9e906144bf565b60405180910390fd5b600190505b5b600115158115151415611ecf5782600160008681526020019081526020016000206008018381548110611ce357611ce2613e10565b5b90600052602060002090600402016001018190555060008054906101000a900473ffffffffffffffffffffffffffffffffffffffff1673ffffffffffffffffffffffffffffffffffffffff1663ab893cb3336040518263ffffffff1660e01b8152600401611d5191906134b7565b604080518083038186803b158015611d6857600080fd5b505afa158015611d7c573d6000803e3d6000fd5b505050506040513d601f19601f82011682018060405250810190611da09190614549565b60000151600160008681526020019081526020016000206008018381548110611dcc57611dcb613e10565b5b90600052602060002090600402016002018190555060008054906101000a900473ffffffffffffffffffffffffffffffffffffffff1673ffffffffffffffffffffffffffffffffffffffff1663ab893cb3336040518263ffffffff1660e01b8152600401611e3a91906134b7565b604080518083038186803b158015611e5157600080fd5b505afa158015611e65573d6000803e3d6000fd5b505050506040513d601f19601f82011682018060405250810190611e899190614549565b60200151600160008681526020019081526020016000206008018381548110611eb557611eb4613e10565b5b90600052602060002090600402016003018190555061212c565b611ed7613294565b33816000019073ffffffffffffffffffffffffffffffffffffffff16908173ffffffffffffffffffffffffffffffffffffffff16815250508381602001818152505060008054906101000a900473ffffffffffffffffffffffffffffffffffffffff1673ffffffffffffffffffffffffffffffffffffffff1663ab893cb3336040518263ffffffff1660e01b8152600401611f7291906134b7565b604080518083038186803b158015611f8957600080fd5b505afa158015611f9d573d6000803e3d6000fd5b505050506040513d601f19601f82011682018060405250810190611fc19190614549565b6000015181604001818152505060008054906101000a900473ffffffffffffffffffffffffffffffffffffffff1673ffffffffffffffffffffffffffffffffffffffff1663ab893cb3336040518263ffffffff1660e01b815260040161202791906134b7565b604080518083038186803b15801561203e57600080fd5b505afa158015612052573d6000803e3d6000fd5b505050506040513d601f19601f820116820180604052508101906120769190614549565b602001518160600181815250506001600086815260200190815260200160002060080181908060018154018082558091505060019003906000526020600020906004020160009091909190915060008201518160000160006101000a81548173ffffffffffffffffffffffffffffffffffffffff021916908373ffffffffffffffffffffffffffffffffffffffff1602179055506020820151816001015560408201518160020155606082015181600301555050505b7f96d59693caec7bfbd896ccf6bb677a3b2230fec3c76d4b1b482a8670996c7c6684338560405161215f93929190614576565b60405180910390a150505050565b6060600073ffffffffffffffffffffffffffffffffffffffff1660008054906101000a900473ffffffffffffffffffffffffffffffffffffffff1673ffffffffffffffffffffffffffffffffffffffff1614156121f6576040517fec48077700000000000000000000000000000000000000000000000000000000815260040160405180910390fd5b600060028054905067ffffffffffffffff811115612217576122166139ed565b5b60405190808252806020026020018201604052801561225057816020015b61223d61317d565b8152602001906001900390816122355790505b5090506000805b600280549050811015612700576000600281111561227857612277613701565b5b60016000600284815481106122905761228f613e10565b5b90600052602060002001548152602001908152602001600020600b0160009054906101000a900460ff1660028111156122cc576122cb613701565b5b14801561234c575060016000600283815481106122ec576122eb613e10565b5b9060005260206000200154815260200190815260200160002060030154600160006002848154811061232157612320613e10565b5b9060005260206000200154815260200190815260200160002060020154612348919061438b565b4211155b80156123d857503373ffffffffffffffffffffffffffffffffffffffff16600160006002848154811061238257612381613e10565b5b9060005260206000200154815260200190815260200160002060010160009054906101000a900473ffffffffffffffffffffffffffffffffffffffff1673ffffffffffffffffffffffffffffffffffffffff1614155b156126ed5760016000600283815481106123f5576123f4613e10565b5b9060005260206000200154815260200190815260200160002060405180610160016040529081600082015481526020016001820160009054906101000a900473ffffffffffffffffffffffffffffffffffffffff1673ffffffffffffffffffffffffffffffffffffffff1673ffffffffffffffffffffffffffffffffffffffff16815260200160028201548152602001600382015481526020016004820154815260200160058201548152602001600682015481526020016007820180546124bc90614118565b80601f01602080910402602001604051908101604052809291908181526020018280546124e890614118565b80156125355780601f1061250a57610100808354040283529160200191612535565b820191906000526020600020905b81548152906001019060200180831161251857829003601f168201915b5050505050815260200160088201805480602002602001604051908101604052809291908181526020016000905b8282101561260957838290600052602060002090600402016040518060800160405290816000820160009054906101000a900473ffffffffffffffffffffffffffffffffffffffff1673ffffffffffffffffffffffffffffffffffffffff1673ffffffffffffffffffffffffffffffffffffffff168152602001600182015481526020016002820154815260200160038201548152505081526020019060010190612563565b505050508152602001600982016040518060400160405290816000820160009054906101000a900473ffffffffffffffffffffffffffffffffffffffff1673ffffffffffffffffffffffffffffffffffffffff1673ffffffffffffffffffffffffffffffffffffffff1681526020016001820154815250508152602001600b820160009054906101000a900460ff1660028111156126aa576126a9613701565b5b60028111156126bc576126bb613701565b5b815250508383815181106126d3576126d2613e10565b5b602002602001018190525081806126e990613e6e565b9250505b80806126f890613e6e565b915050612257565b5060008167ffffffffffffffff81111561271d5761271c6139ed565b5b60405190808252806020026020018201604052801561275657816020015b6127436132d2565b81526020019060019003908161273b5790505b50905060005b8281101561298e5783818151811061277757612776613e10565b5b602002602001015182828151811061279257612791613e10565b5b60200260200101516000018190525060008054906101000a900473ffffffffffffffffffffffffffffffffffffffff1673ffffffffffffffffffffffffffffffffffffffff166398c04db58583815181106127f0576127ef613e10565b5b6020026020010151602001516040518263ffffffff1660e01b815260040161281891906134b7565b604080518083038186803b15801561282f57600080fd5b505afa158015612843573d6000803e3d6000fd5b505050506040513d601f19601f8201168201806040525081019061286791906145fd565b6000015182828151811061287e5761287d613e10565b5b6020026020010151602001818152505060008054906101000a900473ffffffffffffffffffffffffffffffffffffffff1673ffffffffffffffffffffffffffffffffffffffff166398c04db58583815181106128dd576128dc613e10565b5b6020026020010151602001516040518263ffffffff1660e01b815260040161290591906134b7565b604080518083038186803b15801561291c57600080fd5b505afa158015612930573d6000803e3d6000fd5b505050506040513d601f19601f8201168201806040525081019061295491906145fd565b6020015182828151811061296b5761296a613e10565b5b60200260200101516040018181525050808061298690613e6e565b91505061275c565b5080935050505090565b7f000000000000000000000000000000000000000000000000000000000000000073ffffffffffffffffffffffffffffffffffffffff163373ffffffffffffffffffffffffffffffffffffffff1614612a1d576040517f82593d3000000000000000000000000000000000000000000000000000000000815260040160405180910390fd5b806000806101000a81548173ffffffffffffffffffffffffffffffffffffffff021916908373ffffffffffffffffffffffffffffffffffffffff16021790555050565b60007f000000000000000000000000000000000000000000000000000000000000000073ffffffffffffffffffffffffffffffffffffffff163373ffffffffffffffffffffffffffffffffffffffff1614612ae7576040517f82593d3000000000000000000000000000000000000000000000000000000000815260040160405180910390fd5b60008054906101000a900473ffffffffffffffffffffffffffffffffffffffff16905090565b6060600060028054905067ffffffffffffffff811115612b3057612b2f6139ed565b5b604051908082528060200260200182016040528015612b6957816020015b612b5661317d565b815260200190600190039081612b4e5790505b5090506000805b6002805490508110156130935760006002811115612b9157612b90613701565b5b6001600060028481548110612ba957612ba8613e10565b5b90600052602060002001548152602001908152602001600020600b0160009054906101000a900460ff166002811115612be557612be4613701565b5b148015612c6557506001600060028381548110612c0557612c04613e10565b5b90600052602060002001548152602001908152602001600020600301546001600060028481548110612c3a57612c39613e10565b5b9060005260206000200154815260200190815260200160002060020154612c61919061438b565b4211155b156130805760005b6001600060028481548110612c8557612c84613e10565b5b906000526020600020015481526020019081526020016000206008018054905081101561307e573373ffffffffffffffffffffffffffffffffffffffff166001600060028581548110612cdb57612cda613e10565b5b906000526020600020015481526020019081526020016000206008018281548110612d0957612d08613e10565b5b906000526020600020906004020160000160009054906101000a900473ffffffffffffffffffffffffffffffffffffffff1673ffffffffffffffffffffffffffffffffffffffff16141561306b576001600060028481548110612d6f57612d6e613e10565b5b9060005260206000200154815260200190815260200160002060405180610160016040529081600082015481526020016001820160009054906101000a900473ffffffffffffffffffffffffffffffffffffffff1673ffffffffffffffffffffffffffffffffffffffff1673ffffffffffffffffffffffffffffffffffffffff1681526020016002820154815260200160038201548152602001600482015481526020016005820154815260200160068201548152602001600782018054612e3690614118565b80601f0160208091040260200160405190810160405280929190818152602001828054612e6290614118565b8015612eaf5780601f10612e8457610100808354040283529160200191612eaf565b820191906000526020600020905b815481529060010190602001808311612e9257829003601f168201915b5050505050815260200160088201805480602002602001604051908101604052809291908181526020016000905b82821015612f8357838290600052602060002090600402016040518060800160405290816000820160009054906101000a900473ffffffffffffffffffffffffffffffffffffffff1673ffffffffffffffffffffffffffffffffffffffff1673ffffffffffffffffffffffffffffffffffffffff168152602001600182015481526020016002820154815260200160038201548152505081526020019060010190612edd565b505050508152602001600982016040518060400160405290816000820160009054906101000a900473ffffffffffffffffffffffffffffffffffffffff1673ffffffffffffffffffffffffffffffffffffffff1673ffffffffffffffffffffffffffffffffffffffff1681526020016001820154815250508152602001600b820160009054906101000a900460ff16600281111561302457613023613701565b5b600281111561303657613035613701565b5b8152505084848151811061304d5761304c613e10565b5b6020026020010181905250828061306390613e6e565b93505061307e565b808061307690613e6e565b915050612c6d565b505b808061308b90613e6e565b915050612b70565b5060008167ffffffffffffffff8111156130b0576130af6139ed565b5b6040519080825280602002602001820160405280156130e957816020015b6130d661317d565b8152602001906001900390816130ce5790505b50905060005b828110156131435783818151811061310a57613109613e10565b5b602002602001015182828151811061312557613124613e10565b5b6020026020010181905250808061313b90613e6e565b9150506130ef565b5080935050505090565b6040518060400160405280600073ffffffffffffffffffffffffffffffffffffffff168152602001600081525090565b60405180610160016040528060008019168152602001600073ffffffffffffffffffffffffffffffffffffffff168152602001600081526020016000815260200160008152602001600080191681526020016000801916815260200160608152602001606081526020016131ef61314d565b81526020016000600281111561320857613207613701565b5b81525090565b82805461321a90614118565b90600052602060002090601f01602090048101928261323c5760008555613283565b82601f1061325557805160ff1916838001178555613283565b82800160010185558215613283579182015b82811115613282578251825591602001919060010190613267565b5b50905061329091906132f9565b5090565b6040518060800160405280600073ffffffffffffffffffffffffffffffffffffffff1681526020016000815260200160008152602001600081525090565b60405180606001604052806132e561317d565b815260200160008152602001600081525090565b5b808211156133125760008160009055506001016132fa565b5090565b600082825260208201905092915050565b7f6261642063616c6c000000000000000000000000000000000000000000000000600082015250565b600061335d600883613316565b915061336882613327565b602082019050919050565b6000602082019050818103600083015261338c81613350565b9050919050565b6000604051905090565b600080fd5b600080fd5b6000819050919050565b6133ba816133a7565b81146133c557600080fd5b50565b6000813590506133d7816133b1565b92915050565b600073ffffffffffffffffffffffffffffffffffffffff82169050919050565b6000613408826133dd565b9050919050565b613418816133fd565b811461342357600080fd5b50565b6000813590506134358161340f565b92915050565b600080604083850312156134525761345161339d565b5b6000613460858286016133c8565b925050602061347185828601613426565b9150509250929050565b6000602082840312156134915761349061339d565b5b600061349f848285016133c8565b91505092915050565b6134b1816133fd565b82525050565b60006020820190506134cc60008301846134a8565b92915050565b600081519050919050565b600082825260208201905092915050565b6000819050602082019050919050565b613507816133a7565b82525050565b613516816133fd565b82525050565b6000819050919050565b61352f8161351c565b82525050565b600081519050919050565b600082825260208201905092915050565b60005b8381101561356f578082015181840152602081019050613554565b8381111561357e576000848401525b50505050565b6000601f19601f8301169050919050565b60006135a082613535565b6135aa8185613540565b93506135ba818560208601613551565b6135c381613584565b840191505092915050565b600081519050919050565b600082825260208201905092915050565b6000819050602082019050919050565b608082016000820151613610600085018261350d565b5060208201516136236020850182613526565b5060408201516136366040850182613526565b5060608201516136496060850182613526565b50505050565b600061365b83836135fa565b60808301905092915050565b6000602082019050919050565b600061367f826135ce565b61368981856135d9565b9350613694836135ea565b8060005b838110156136c55781516136ac888261364f565b97506136b783613667565b925050600181019050613698565b5085935050505092915050565b6040820160008201516136e8600085018261350d565b5060208201516136fb6020850182613526565b50505050565b7f4e487b7100000000000000000000000000000000000000000000000000000000600052602160045260246000fd5b6003811061374157613740613701565b5b50565b600081905061375282613730565b919050565b600061376282613744565b9050919050565b61377281613757565b82525050565b60006101808301600083015161379160008601826134fe565b5060208301516137a4602086018261350d565b5060408301516137b76040860182613526565b5060608301516137ca6060860182613526565b5060808301516137dd6080860182613526565b5060a08301516137f060a08601826134fe565b5060c083015161380360c08601826134fe565b5060e083015184820360e086015261381b8282613595565b9150506101008301518482036101008601526138378282613674565b91505061012083015161384e6101208601826136d2565b50610140830151613863610160860182613769565b508091505092915050565b600061387a8383613778565b905092915050565b6000602082019050919050565b600061389a826134d2565b6138a481856134dd565b9350836020820285016138b6856134ee565b8060005b858110156138f257848403895281516138d3858261386e565b94506138de83613882565b925060208a019950506001810190506138ba565b50829750879550505050505092915050565b6000602082019050818103600083015261391e818461388f565b905092915050565b600082825260208201905092915050565b6000613942826135ce565b61394c8185613926565b9350613957836135ea565b8060005b8381101561398857815161396f888261364f565b975061397a83613667565b92505060018101905061395b565b5085935050505092915050565b600060208201905081810360008301526139af8184613937565b905092915050565b6139c08161351c565b81146139cb57600080fd5b50565b6000813590506139dd816139b7565b92915050565b600080fd5b600080fd5b7f4e487b7100000000000000000000000000000000000000000000000000000000600052604160045260246000fd5b613a2582613584565b810181811067ffffffffffffffff82111715613a4457613a436139ed565b5b80604052505050565b6000613a57613393565b9050613a638282613a1c565b919050565b600067ffffffffffffffff821115613a8357613a826139ed565b5b613a8c82613584565b9050602081019050919050565b82818337600083830152505050565b6000613abb613ab684613a68565b613a4d565b905082815260208101848484011115613ad757613ad66139e8565b5b613ae2848285613a99565b509392505050565b600082601f830112613aff57613afe6139e3565b5b8135613b0f848260208601613aa8565b91505092915050565b60008060008060808587031215613b3257613b3161339d565b5b6000613b40878288016139ce565b9450506020613b51878288016139ce565b9350506040613b62878288016133c8565b925050606085013567ffffffffffffffff811115613b8357613b826133a2565b5b613b8f87828801613aea565b91505092959194509250565b60008060408385031215613bb257613bb161339d565b5b6000613bc0858286016133c8565b9250506020613bd1858286016139ce565b9150509250929050565b600081519050919050565b600082825260208201905092915050565b6000819050602082019050919050565b60006060830160008301518482036000860152613c248282613778565b9150506020830151613c396020860182613526565b506040830151613c4c6040860182613526565b508091505092915050565b6000613c638383613c07565b905092915050565b6000602082019050919050565b6000613c8382613bdb565b613c8d8185613be6565b935083602082028501613c9f85613bf7565b8060005b85811015613cdb5784840389528151613cbc8582613c57565b9450613cc783613c6b565b925060208a01995050600181019050613ca3565b50829750879550505050505092915050565b60006020820190508181036000830152613d078184613c78565b905092915050565b6000613d1a826133dd565b9050919050565b613d2a81613d0f565b8114613d3557600080fd5b50565b600081359050613d4781613d21565b92915050565b600060208284031215613d6357613d6261339d565b5b6000613d7184828501613d38565b91505092915050565b613d8381613757565b82525050565b6000602082019050613d9e6000830184613d7a565b92915050565b7f41756374696f6e20686173206e6f20626964732e000000000000000000000000600082015250565b6000613dda601483613316565b9150613de582613da4565b602082019050919050565b60006020820190508181036000830152613e0981613dcd565b9050919050565b7f4e487b7100000000000000000000000000000000000000000000000000000000600052603260045260246000fd5b7f4e487b7100000000000000000000000000000000000000000000000000000000600052601160045260246000fd5b6000613e798261351c565b91507fffffffffffffffffffffffffffffffffffffffffffffffffffffffffffffffff821415613eac57613eab613e3f565b5b600182019050919050565b7f57726f6e672070726f7669646572206164647265737300000000000000000000600082015250565b6000613eed601683613316565b9150613ef882613eb7565b602082019050919050565b60006020820190508181036000830152613f1c81613ee0565b9050919050565b6000613f2e8261351c565b9150613f398361351c565b9250817fffffffffffffffffffffffffffffffffffffffffffffffffffffffffffffffff0483118215151615613f7257613f71613e3f565b5b828202905092915050565b7f436c69656e7420636f6c6c61746572616c206973206e6f7420636f7272656374600082015250565b6000613fb3602083613316565b9150613fbe82613f7d565b602082019050919050565b60006020820190508181036000830152613fe281613fa6565b9050919050565b613ff2816133a7565b82525050565b600060608201905061400d6000830186613fe9565b61401a60208301856134a8565b61402760408301846134a8565b949350505050565b604082016000820151614045600085018261350d565b5060208201516140586020850182613526565b50505050565b6140678161351c565b82525050565b600060808201905061408260008301866134a8565b61408f602083018561402f565b61409c606083018461405e565b949350505050565b60006080820190506140b96000830187613fe9565b6140c66020830186613fe9565b6140d360408301856134a8565b6140e060608301846134a8565b95945050505050565b7f4e487b7100000000000000000000000000000000000000000000000000000000600052602260045260246000fd5b6000600282049050600182168061413057607f821691505b60208210811415614144576141436140e9565b5b50919050565b60008190508160005260206000209050919050565b6000815461416c81614118565b6141768186613316565b9450600182166000811461419157600181146141a3576141d6565b60ff19831686526020860193506141d6565b6141ac8561414a565b60005b838110156141ce578154818901526001820191506020810190506141af565b808801955050505b50505092915050565b600060e0820190506141f4600083018a613fe9565b61420160208301896134a8565b61420e60408301886134a8565b61421b606083018761405e565b614228608083018661405e565b61423560a0830185613fe9565b81810360c0830152614247818461415f565b905098975050505050505050565b600060408201905061426a6000830185613fe9565b61427760208301846134a8565b9392505050565b600061428982613535565b6142938185613316565b93506142a3818560208601613551565b6142ac81613584565b840191505092915050565b600060c0820190506142cc600083018961405e565b6142d960208301886134a8565b6142e6604083018761405e565b6142f3606083018661405e565b6143006080830185613fe9565b81810360a0830152614312818461427e565b9050979650505050505050565b7f436c69656e742063616e6e6f7420626964000000000000000000000000000000600082015250565b6000614355601183613316565b91506143608261431f565b602082019050919050565b6000602082019050818103600083015261438481614348565b9050919050565b60006143968261351c565b91506143a18361351c565b9250827fffffffffffffffffffffffffffffffffffffffffffffffffffffffffffffffff038211156143d6576143d5613e3f565b5b828201905092915050565b7f41756374696f6e20646561646c696e6520686173207061737365640000000000600082015250565b6000614417601b83613316565b9150614422826143e1565b602082019050919050565b600060208201905081810360008301526144468161440a565b9050919050565b7f426964206e6f74206c6f776572207468616e207468616e2063757272656e742060008201527f6269642e00000000000000000000000000000000000000000000000000000000602082015250565b60006144a9602483613316565b91506144b48261444d565b604082019050919050565b600060208201905081810360008301526144d88161449c565b9050919050565b600080fd5b6000815190506144f3816139b7565b92915050565b60006040828403121561450f5761450e6144df565b5b6145196040613a4d565b90506000614529848285016144e4565b600083015250602061453d848285016144e4565b60208301525092915050565b60006040828403121561455f5761455e61339d565b5b600061456d848285016144f9565b91505092915050565b600060608201905061458b6000830186613fe9565b61459860208301856134a8565b6145a5604083018461405e565b949350505050565b6000604082840312156145c3576145c26144df565b5b6145cd6040613a4d565b905060006145dd848285016144e4565b60008301525060206145f1848285016144e4565b60208301525092915050565b6000604082840312156146135761461261339d565b5b6000614621848285016145ad565b9150509291505056fea2646970667358221220428f8c5834db297d8dde60a70277f52d2af3b266f4ded27eb7e85a72c0c4631764736f6c63430008080033",
  "devdoc": {
    "kind": "dev",
    "methods": {},
    "version": 1
  },
  "userdoc": {
    "kind": "user",
    "methods": {},
    "version": 1
  },
  "storageLayout": {
    "storage": [
      {
        "astId": 7,
        "contract": "contracts/AuctionsManager.sol:AuctionsManager",
        "label": "tasksManager",
        "offset": 0,
        "slot": "0",
        "type": "t_contract(TasksManager)3444"
      },
      {
        "astId": 65,
        "contract": "contracts/AuctionsManager.sol:AuctionsManager",
        "label": "auctions",
        "offset": 0,
        "slot": "1",
        "type": "t_mapping(t_bytes32,t_struct(Auction)38_storage)"
      },
      {
        "astId": 68,
        "contract": "contracts/AuctionsManager.sol:AuctionsManager",
        "label": "bytes32_auctions",
        "offset": 0,
        "slot": "2",
        "type": "t_array(t_bytes32)dyn_storage"
      }
    ],
    "types": {
      "t_address": {
        "encoding": "inplace",
        "label": "address",
        "numberOfBytes": "20"
      },
      "t_array(t_bytes32)dyn_storage": {
        "base": "t_bytes32",
        "encoding": "dynamic_array",
        "label": "bytes32[]",
        "numberOfBytes": "32"
      },
      "t_array(t_struct(ProviderBid)47_storage)dyn_storage": {
        "base": "t_struct(ProviderBid)47_storage",
        "encoding": "dynamic_array",
        "label": "struct AuctionsManager.ProviderBid[]",
        "numberOfBytes": "32"
      },
      "t_bytes32": {
        "encoding": "inplace",
        "label": "bytes32",
        "numberOfBytes": "32"
      },
      "t_contract(TasksManager)3444": {
        "encoding": "inplace",
        "label": "contract TasksManager",
        "numberOfBytes": "20"
      },
      "t_enum(AuctionState)11": {
        "encoding": "inplace",
        "label": "enum AuctionsManager.AuctionState",
        "numberOfBytes": "1"
      },
      "t_mapping(t_bytes32,t_struct(Auction)38_storage)": {
        "encoding": "mapping",
        "key": "t_bytes32",
        "label": "mapping(bytes32 => struct AuctionsManager.Auction)",
        "numberOfBytes": "32",
        "value": "t_struct(Auction)38_storage"
      },
      "t_string_storage": {
        "encoding": "bytes",
        "label": "string",
        "numberOfBytes": "32"
      },
      "t_struct(Auction)38_storage": {
        "encoding": "inplace",
        "label": "struct AuctionsManager.Auction",
        "members": [
          {
            "astId": 13,
            "contract": "contracts/AuctionsManager.sol:AuctionsManager",
            "label": "auctionID",
            "offset": 0,
            "slot": "0",
            "type": "t_bytes32"
          },
          {
            "astId": 15,
            "contract": "contracts/AuctionsManager.sol:AuctionsManager",
            "label": "client",
            "offset": 0,
            "slot": "1",
            "type": "t_address"
          },
          {
            "astId": 17,
            "contract": "contracts/AuctionsManager.sol:AuctionsManager",
            "label": "creationTime",
            "offset": 0,
            "slot": "2",
            "type": "t_uint256"
          },
          {
            "astId": 19,
            "contract": "contracts/AuctionsManager.sol:AuctionsManager",
            "label": "auctionDeadline",
            "offset": 0,
            "slot": "3",
            "type": "t_uint256"
          },
          {
            "astId": 21,
            "contract": "contracts/AuctionsManager.sol:AuctionsManager",
            "label": "taskDeadline",
            "offset": 0,
            "slot": "4",
            "type": "t_uint256"
          },
          {
            "astId": 23,
            "contract": "contracts/AuctionsManager.sol:AuctionsManager",
            "label": "clientVerification",
            "offset": 0,
            "slot": "5",
            "type": "t_bytes32"
          },
          {
            "astId": 25,
            "contract": "contracts/AuctionsManager.sol:AuctionsManager",
            "label": "taskID",
            "offset": 0,
            "slot": "6",
            "type": "t_bytes32"
          },
          {
            "astId": 27,
            "contract": "contracts/AuctionsManager.sol:AuctionsManager",
            "label": "code",
            "offset": 0,
            "slot": "7",
            "type": "t_string_storage"
          },
          {
            "astId": 31,
            "contract": "contracts/AuctionsManager.sol:AuctionsManager",
            "label": "providerBids",
            "offset": 0,
            "slot": "8",
            "type": "t_array(t_struct(ProviderBid)47_storage)dyn_storage"
          },
          {
            "astId": 34,
            "contract": "contracts/AuctionsManager.sol:AuctionsManager",
            "label": "winnerBid",
            "offset": 0,
            "slot": "9",
            "type": "t_struct(WinnerBid)52_storage"
          },
          {
            "astId": 37,
            "contract": "contracts/AuctionsManager.sol:AuctionsManager",
            "label": "auctionState",
            "offset": 0,
            "slot": "11",
            "type": "t_enum(AuctionState)11"
          }
        ],
        "numberOfBytes": "384"
      },
      "t_struct(ProviderBid)47_storage": {
        "encoding": "inplace",
        "label": "struct AuctionsManager.ProviderBid",
        "members": [
          {
            "astId": 40,
            "contract": "contracts/AuctionsManager.sol:AuctionsManager",
            "label": "provider",
            "offset": 0,
            "slot": "0",
            "type": "t_address"
          },
          {
            "astId": 42,
            "contract": "contracts/AuctionsManager.sol:AuctionsManager",
            "label": "bid",
            "offset": 0,
            "slot": "1",
            "type": "t_uint256"
          },
          {
            "astId": 44,
            "contract": "contracts/AuctionsManager.sol:AuctionsManager",
            "label": "providerUpVotes",
            "offset": 0,
            "slot": "2",
            "type": "t_uint256"
          },
          {
            "astId": 46,
            "contract": "contracts/AuctionsManager.sol:AuctionsManager",
            "label": "providerDownVotes",
            "offset": 0,
            "slot": "3",
            "type": "t_uint256"
          }
        ],
        "numberOfBytes": "128"
      },
      "t_struct(WinnerBid)52_storage": {
        "encoding": "inplace",
        "label": "struct AuctionsManager.WinnerBid",
        "members": [
          {
            "astId": 49,
            "contract": "contracts/AuctionsManager.sol:AuctionsManager",
            "label": "provider",
            "offset": 0,
            "slot": "0",
            "type": "t_address"
          },
          {
            "astId": 51,
            "contract": "contracts/AuctionsManager.sol:AuctionsManager",
            "label": "bid",
            "offset": 0,
            "slot": "1",
            "type": "t_uint256"
          }
        ],
        "numberOfBytes": "64"
      },
      "t_uint256": {
        "encoding": "inplace",
        "label": "uint256",
        "numberOfBytes": "32"
      }
    }
  }
}