{
  "address": "0x5FbDB2315678afecb367f032d93F642f64180aa3",
  "abi": [
    {
      "inputs": [],
      "stateMutability": "nonpayable",
      "type": "constructor"
    },
    {
      "anonymous": false,
      "inputs": [
        {
          "indexed": false,
          "internalType": "bytes32",
          "name": "taskID",
          "type": "bytes32"
        }
      ],
      "name": "PaymentCompleted",
      "type": "event"
    },
    {
      "anonymous": false,
      "inputs": [
        {
          "indexed": false,
          "internalType": "bytes32",
          "name": "taskID",
          "type": "bytes32"
        },
        {
          "indexed": false,
          "internalType": "uint256",
          "name": "payment",
          "type": "uint256"
        }
      ],
      "name": "PaymentPending",
      "type": "event"
    },
    {
      "anonymous": false,
      "inputs": [
        {
          "indexed": false,
          "internalType": "address",
          "name": "provider",
          "type": "address"
        },
        {
          "indexed": false,
          "internalType": "bytes32",
          "name": "taskID",
          "type": "bytes32"
        }
      ],
      "name": "ProviderDownvoted",
      "type": "event"
    },
    {
      "anonymous": false,
      "inputs": [
        {
          "indexed": false,
          "internalType": "address",
          "name": "provider",
          "type": "address"
        },
        {
          "indexed": false,
          "internalType": "bytes32",
          "name": "taskID",
          "type": "bytes32"
        }
      ],
      "name": "ProviderUpvoted",
      "type": "event"
    },
    {
      "anonymous": false,
      "inputs": [
        {
          "indexed": false,
          "internalType": "bytes32",
          "name": "taskID",
          "type": "bytes32"
        }
      ],
      "name": "TaskActivated",
      "type": "event"
    },
    {
      "anonymous": false,
      "inputs": [
        {
          "indexed": false,
          "internalType": "bytes32",
          "name": "taskID",
          "type": "bytes32"
        }
      ],
      "name": "TaskCancelled",
      "type": "event"
    },
    {
      "anonymous": false,
      "inputs": [
        {
          "indexed": false,
          "internalType": "bytes32",
          "name": "taskID",
          "type": "bytes32"
        }
      ],
      "name": "TaskCompletedSuccessfully",
      "type": "event"
    },
    {
      "anonymous": false,
      "inputs": [
        {
          "indexed": false,
          "internalType": "bytes32",
          "name": "taskID",
          "type": "bytes32"
        }
      ],
      "name": "TaskCompletedUnsuccessfully",
      "type": "event"
    },
    {
      "anonymous": false,
      "inputs": [
        {
          "indexed": false,
          "internalType": "bytes32",
          "name": "taskID",
          "type": "bytes32"
        }
      ],
      "name": "TaskCreated",
      "type": "event"
    },
    {
      "anonymous": false,
      "inputs": [
        {
          "indexed": false,
          "internalType": "bytes32",
          "name": "taskID",
          "type": "bytes32"
        }
      ],
      "name": "TaskDeleted",
      "type": "event"
    },
    {
      "anonymous": false,
      "inputs": [
        {
          "indexed": false,
          "internalType": "bytes32",
          "name": "taskID",
          "type": "bytes32"
        }
      ],
      "name": "TaskInvalidated",
      "type": "event"
    },
    {
      "anonymous": false,
      "inputs": [
        {
          "indexed": false,
          "internalType": "bytes32",
          "name": "taskID",
          "type": "bytes32"
        }
      ],
      "name": "TaskReceivedResultsSuccessfully",
      "type": "event"
    },
    {
      "anonymous": false,
      "inputs": [
        {
          "indexed": false,
          "internalType": "bytes32",
          "name": "taskID",
          "type": "bytes32"
        }
      ],
      "name": "TaskReceivedResultsUnsuccessfully",
      "type": "event"
    },
    {
      "anonymous": false,
      "inputs": [
        {
          "indexed": false,
          "internalType": "address",
          "name": "client",
          "type": "address"
        },
        {
          "indexed": false,
          "internalType": "uint256",
          "name": "amount",
          "type": "uint256"
        }
      ],
      "name": "TransferMadeToClient",
      "type": "event"
    },
    {
      "anonymous": false,
      "inputs": [
        {
          "indexed": false,
          "internalType": "address",
          "name": "provider",
          "type": "address"
        },
        {
          "indexed": false,
          "internalType": "uint256",
          "name": "amount",
          "type": "uint256"
        }
      ],
      "name": "TransferMadeToProvider",
      "type": "event"
    },
    {
      "stateMutability": "payable",
      "type": "fallback"
    },
    {
      "inputs": [
        {
          "internalType": "bytes32",
          "name": "_taskID",
          "type": "bytes32"
        }
      ],
      "name": "activateTask",
      "outputs": [],
      "stateMutability": "payable",
      "type": "function"
    },
    {
      "inputs": [
        {
          "internalType": "uint256",
          "name": "",
          "type": "uint256"
        }
      ],
      "name": "bytes32_tasks",
      "outputs": [
        {
          "internalType": "bytes32",
          "name": "",
          "type": "bytes32"
        }
      ],
      "stateMutability": "view",
      "type": "function"
    },
    {
      "inputs": [
        {
          "internalType": "bytes32",
          "name": "_taskID",
          "type": "bytes32"
        }
      ],
      "name": "cancelTask",
      "outputs": [],
      "stateMutability": "nonpayable",
      "type": "function"
    },
    {
      "inputs": [
        {
          "internalType": "bytes32",
          "name": "_taskID",
          "type": "bytes32"
        }
      ],
      "name": "completePayment",
      "outputs": [],
      "stateMutability": "payable",
      "type": "function"
    },
    {
      "inputs": [
        {
          "internalType": "bytes32",
          "name": "_taskID",
          "type": "bytes32"
        },
        {
          "internalType": "string",
          "name": "ver",
          "type": "string"
        },
        {
          "internalType": "uint256",
          "name": "_duration",
          "type": "uint256"
        },
        {
          "internalType": "uint256",
          "name": "_timeReceivedProvider",
          "type": "uint256"
        }
      ],
      "name": "completeTask",
      "outputs": [],
      "stateMutability": "nonpayable",
      "type": "function"
    },
    {
      "inputs": [
        {
          "internalType": "bytes32",
          "name": "_taskID",
          "type": "bytes32"
        },
        {
          "internalType": "address payable",
          "name": "_provider",
          "type": "address"
        },
        {
          "internalType": "uint256",
          "name": "_price",
          "type": "uint256"
        },
        {
          "internalType": "uint256",
          "name": "_deadline",
          "type": "uint256"
        },
        {
          "internalType": "bytes32",
          "name": "_clientVerification",
          "type": "bytes32"
        },
        {
          "internalType": "string",
          "name": "_verificationCode",
          "type": "string"
        },
        {
          "internalType": "string",
          "name": "_computationCode",
          "type": "string"
        }
      ],
      "name": "createTask",
      "outputs": [],
      "stateMutability": "payable",
      "type": "function"
    },
    {
      "inputs": [
        {
          "internalType": "bytes32",
          "name": "_taskID",
          "type": "bytes32"
        }
      ],
      "name": "deleteTask",
      "outputs": [],
      "stateMutability": "nonpayable",
      "type": "function"
    },
    {
      "inputs": [],
      "name": "deleteTasks",
      "outputs": [],
      "stateMutability": "nonpayable",
      "type": "function"
    },
    {
      "inputs": [
        {
          "internalType": "bytes32",
          "name": "_taskID",
          "type": "bytes32"
        }
      ],
      "name": "getActivationTime",
      "outputs": [
        {
          "internalType": "uint256",
          "name": "",
          "type": "uint256"
        }
      ],
      "stateMutability": "view",
      "type": "function"
    },
    {
      "inputs": [],
      "name": "getActiveTasks",
      "outputs": [
        {
          "internalType": "uint256",
          "name": "",
          "type": "uint256"
        }
      ],
      "stateMutability": "view",
      "type": "function"
    },
    {
      "inputs": [
        {
          "internalType": "bytes32",
          "name": "_taskID",
          "type": "bytes32"
        }
      ],
      "name": "getComputationCode",
      "outputs": [
        {
          "internalType": "string",
          "name": "",
          "type": "string"
        }
      ],
      "stateMutability": "view",
      "type": "function"
    },
    {
      "inputs": [
        {
          "internalType": "bytes32",
          "name": "_taskID",
          "type": "bytes32"
        }
      ],
      "name": "getCost",
      "outputs": [
        {
          "internalType": "uint256",
          "name": "",
          "type": "uint256"
        }
      ],
      "stateMutability": "view",
      "type": "function"
    },
    {
      "inputs": [
        {
          "internalType": "bytes32",
          "name": "_taskID",
          "type": "bytes32"
        }
      ],
      "name": "getLastUpdateTimestamp",
      "outputs": [
        {
          "internalType": "uint256",
          "name": "",
          "type": "uint256"
        }
      ],
      "stateMutability": "view",
      "type": "function"
    },
    {
      "inputs": [],
      "name": "getOwner",
      "outputs": [
        {
          "internalType": "address",
          "name": "",
          "type": "address"
        }
      ],
      "stateMutability": "view",
      "type": "function"
    },
    {
      "inputs": [
        {
          "internalType": "bytes32",
          "name": "_taskID",
          "type": "bytes32"
        }
      ],
      "name": "getPayment",
      "outputs": [
        {
          "internalType": "uint256",
          "name": "",
          "type": "uint256"
        }
      ],
      "stateMutability": "view",
      "type": "function"
    },
    {
      "inputs": [
        {
          "internalType": "bytes32",
          "name": "_taskID",
          "type": "bytes32"
        }
      ],
      "name": "getPaymentState",
      "outputs": [
        {
          "internalType": "string",
          "name": "",
          "type": "string"
        }
      ],
      "stateMutability": "view",
      "type": "function"
    },
    {
      "inputs": [
        {
          "internalType": "address",
          "name": "provider",
          "type": "address"
        }
      ],
      "name": "getPerformance",
      "outputs": [
        {
          "components": [
            {
              "internalType": "uint256",
              "name": "upVotes",
              "type": "uint256"
            },
            {
              "internalType": "uint256",
              "name": "downVotes",
              "type": "uint256"
            }
          ],
          "internalType": "struct TasksManager.providerRating",
          "name": "",
          "type": "tuple"
        }
      ],
      "stateMutability": "view",
      "type": "function"
    },
    {
      "inputs": [
        {
          "internalType": "bytes32",
          "name": "_taskID",
          "type": "bytes32"
        }
      ],
      "name": "getResults",
      "outputs": [
        {
          "internalType": "string",
          "name": "",
          "type": "string"
        }
      ],
      "stateMutability": "view",
      "type": "function"
    },
    {
      "inputs": [
        {
          "internalType": "bytes32",
          "name": "_taskID",
          "type": "bytes32"
        }
      ],
      "name": "getTask",
      "outputs": [
        {
          "components": [
            {
              "internalType": "address payable",
              "name": "client",
              "type": "address"
            },
            {
              "internalType": "address payable",
              "name": "provider",
              "type": "address"
            },
            {
              "internalType": "uint256",
              "name": "providerCollateral",
              "type": "uint256"
            },
            {
              "internalType": "uint256",
              "name": "clientCollateral",
              "type": "uint256"
            },
            {
              "internalType": "uint256",
              "name": "deadline",
              "type": "uint256"
            },
            {
              "internalType": "uint256",
              "name": "price",
              "type": "uint256"
            },
            {
              "internalType": "uint256",
              "name": "duration",
              "type": "uint256"
            },
            {
              "internalType": "uint256",
              "name": "cost",
              "type": "uint256"
            },
            {
              "internalType": "uint256",
              "name": "activationTime",
              "type": "uint256"
            },
            {
              "internalType": "uint256",
              "name": "timeResultProvided",
              "type": "uint256"
            },
            {
              "internalType": "uint256",
              "name": "timeResultReceived",
              "type": "uint256"
            },
            {
              "internalType": "string",
              "name": "computationCode",
              "type": "string"
            },
            {
              "internalType": "string",
              "name": "verificationCode",
              "type": "string"
            },
            {
              "internalType": "string",
              "name": "results",
              "type": "string"
            },
            {
              "internalType": "bytes32",
              "name": "clientVerification",
              "type": "bytes32"
            },
            {
              "internalType": "uint256",
              "name": "lastUpdateTimestamp",
              "type": "uint256"
            },
            {
              "internalType": "enum TasksManager.TaskState",
              "name": "taskState",
              "type": "uint8"
            },
            {
              "internalType": "enum TasksManager.PaymentState",
              "name": "paymentState",
              "type": "uint8"
            }
          ],
          "internalType": "struct TasksManager.Task",
          "name": "",
          "type": "tuple"
        }
      ],
      "stateMutability": "view",
      "type": "function"
    },
    {
      "inputs": [
        {
          "internalType": "bytes32",
          "name": "_taskID",
          "type": "bytes32"
        }
      ],
      "name": "getTaskState",
      "outputs": [
        {
          "internalType": "string",
          "name": "",
          "type": "string"
        }
      ],
      "stateMutability": "view",
      "type": "function"
    },
    {
      "inputs": [
        {
          "internalType": "bytes32",
          "name": "_taskID",
          "type": "bytes32"
        }
      ],
      "name": "getVerificationCode",
      "outputs": [
        {
          "internalType": "string",
          "name": "",
          "type": "string"
        }
      ],
      "stateMutability": "view",
      "type": "function"
    },
    {
      "inputs": [
        {
          "internalType": "bytes32",
          "name": "_taskID",
          "type": "bytes32"
        }
      ],
      "name": "invalidateTask",
      "outputs": [],
      "stateMutability": "nonpayable",
      "type": "function"
    },
    {
      "inputs": [
        {
          "internalType": "bytes32",
          "name": "_taskID",
          "type": "bytes32"
        }
      ],
      "name": "isRegistered",
      "outputs": [
        {
          "internalType": "bool",
          "name": "",
          "type": "bool"
        }
      ],
      "stateMutability": "view",
      "type": "function"
    },
    {
      "inputs": [
        {
          "internalType": "bytes32",
          "name": "_taskID",
          "type": "bytes32"
        },
        {
          "internalType": "string",
          "name": "_results",
          "type": "string"
        }
      ],
      "name": "sendResults",
      "outputs": [],
      "stateMutability": "nonpayable",
      "type": "function"
    },
    {
      "stateMutability": "payable",
      "type": "receive"
    }
  ],
  "transactionHash": "0x8cc961e06546a885337fad89f811b80e9f72f7a9856252570f416d0c8e04974f",
  "args": [],
  "numDeployments": 1,
  "solcInputHash": "bf61e10223f71f4e718bea5ad5acec43",
  "bytecode": "0x60a060405234801561001057600080fd5b503373ffffffffffffffffffffffffffffffffffffffff1660808173ffffffffffffffffffffffffffffffffffffffff1660601b8152505060805160601c615dd86200009f600039600081816106450152818161278801528181612d010152818161324f015281816135e70152818161394a015281816139f701528181613edf01526142a30152615dd86000f3fe60806040526004361061014f5760003560e01c806370ad1976116100b6578063b353034c1161006f578063b353034c1461051b578063d75ff46614610558578063e134a5901461056f578063e64f15a2146105ac578063e66eefc8146105d5578063ee8ca3b5146106125761018f565b806370ad197614610401578063784f2c111461043e5780638693944d1461045a578063893d20e81461049757806392b83320146104c2578063ab210cc8146104de5761018f565b80634b017c7a116101085780634b017c7a146102e1578063513a66981461030a57806354706b5a146103335780636127f2461461035c57806364f9fa801461038757806370970122146103c45761018f565b806315a29035146101945780631ecc9aaf146101d157806325f301cb1461020e57806327258b221461024b57806346475c4c1461028857806347ca8a8b146102c55761018f565b3661018f576040517f08c379a000000000000000000000000000000000000000000000000000000000815260040161018690614ab5565b60405180910390fd5b600080fd5b3480156101a057600080fd5b506101bb60048036038101906101b69190614b1f565b61063b565b6040516101c89190614e9d565b60405180910390f35b3480156101dd57600080fd5b506101f860048036038101906101f39190614efd565b610a3c565b6040516102059190614f59565b60405180910390f35b34801561021a57600080fd5b5061023560048036038101906102309190614b1f565b610aa9565b6040516102429190614fad565b60405180910390f35b34801561025757600080fd5b50610272600480360381019061026d9190614b1f565b610b50565b60405161027f9190614fea565b60405180910390f35b34801561029457600080fd5b506102af60048036038101906102aa9190614b1f565b610bbe565b6040516102bc9190614fad565b60405180910390f35b6102df60048036038101906102da9190614b1f565b610e24565b005b3480156102ed57600080fd5b506103086004803603810190610303919061513a565b611296565b005b34801561031657600080fd5b50610331600480360381019061032c91906151c2565b611ea5565b005b34801561033f57600080fd5b5061035a60048036038101906103559190614b1f565b6123f5565b005b34801561036857600080fd5b50610371612784565b60405161037e9190615254565b60405180910390f35b34801561039357600080fd5b506103ae60048036038101906103a99190614b1f565b61281f565b6040516103bb9190615254565b60405180910390f35b3480156103d057600080fd5b506103eb60048036038101906103e69190614b1f565b61283e565b6040516103f89190614fad565b60405180910390f35b34801561040d57600080fd5b5061042860048036038101906104239190614b1f565b6128e5565b6040516104359190615254565b60405180910390f35b6104586004803603810190610453919061529b565b612904565b005b34801561046657600080fd5b50610481600480360381019061047c9190614b1f565b612c27565b60405161048e9190614fad565b60405180910390f35b3480156104a357600080fd5b506104ac61324b565b6040516104b99190615384565b60405180910390f35b6104dc60048036038101906104d79190614b1f565b613273565b005b3480156104ea57600080fd5b5061050560048036038101906105009190614b1f565b61350d565b6040516105129190614fad565b60405180910390f35b34801561052757600080fd5b50610542600480360381019061053d9190614b1f565b613870565b60405161054f9190615254565b60405180910390f35b34801561056457600080fd5b5061056d6139f5565b005b34801561057b57600080fd5b506105966004803603810190610591919061539f565b613eb9565b6040516105a391906153db565b60405180910390f35b3480156105b857600080fd5b506105d360048036038101906105ce9190614b1f565b613edd565b005b3480156105e157600080fd5b506105fc60048036038101906105f79190614b1f565b6141c9565b6040516106099190615254565b60405180910390f35b34801561061e57600080fd5b5061063960048036038101906106349190614b1f565b6143aa565b005b61064361487d565b7f000000000000000000000000000000000000000000000000000000000000000073ffffffffffffffffffffffffffffffffffffffff163373ffffffffffffffffffffffffffffffffffffffff16146106d1576040517f08c379a00000000000000000000000000000000000000000000000000000000081526004016106c890615468565b60405180910390fd5b600080838152602001908152602001600020604051806102400160405290816000820160009054906101000a900473ffffffffffffffffffffffffffffffffffffffff1673ffffffffffffffffffffffffffffffffffffffff1673ffffffffffffffffffffffffffffffffffffffff1681526020016001820160009054906101000a900473ffffffffffffffffffffffffffffffffffffffff1673ffffffffffffffffffffffffffffffffffffffff1673ffffffffffffffffffffffffffffffffffffffff1681526020016002820154815260200160038201548152602001600482015481526020016005820154815260200160068201548152602001600782015481526020016008820154815260200160098201548152602001600a8201548152602001600b82018054610805906154b7565b80601f0160208091040260200160405190810160405280929190818152602001828054610831906154b7565b801561087e5780601f106108535761010080835404028352916020019161087e565b820191906000526020600020905b81548152906001019060200180831161086157829003601f168201915b50505050508152602001600c82018054610897906154b7565b80601f01602080910402602001604051908101604052809291908181526020018280546108c3906154b7565b80156109105780601f106108e557610100808354040283529160200191610910565b820191906000526020600020905b8154815290600101906020018083116108f357829003601f168201915b50505050508152602001600d82018054610929906154b7565b80601f0160208091040260200160405190810160405280929190818152602001828054610955906154b7565b80156109a25780601f10610977576101008083540402835291602001916109a2565b820191906000526020600020905b81548152906001019060200180831161098557829003601f168201915b50505050508152602001600e8201548152602001600f82015481526020016010820160009054906101000a900460ff1660078111156109e4576109e3614c4e565b5b60078111156109f6576109f5614c4e565b5b81526020016010820160019054906101000a900460ff166002811115610a1f57610a1e614c4e565b5b6002811115610a3157610a30614c4e565b5b815250509050919050565b610a4461495b565b600260008373ffffffffffffffffffffffffffffffffffffffff1673ffffffffffffffffffffffffffffffffffffffff168152602001908152602001600020604051806040016040529081600082015481526020016001820154815250509050919050565b6060600080838152602001908152602001600020600c018054610acb906154b7565b80601f0160208091040260200160405190810160405280929190818152602001828054610af7906154b7565b8015610b445780601f10610b1957610100808354040283529160200191610b44565b820191906000526020600020905b815481529060010190602001808311610b2757829003601f168201915b50505050509050919050565b60008073ffffffffffffffffffffffffffffffffffffffff1660008084815260200190815260200160002060000160009054906101000a900473ffffffffffffffffffffffffffffffffffffffff1673ffffffffffffffffffffffffffffffffffffffff1614159050919050565b60608160008082815260200190815260200160002060000160009054906101000a900473ffffffffffffffffffffffffffffffffffffffff1673ffffffffffffffffffffffffffffffffffffffff163373ffffffffffffffffffffffffffffffffffffffff1614610c64576040517f08c379a0000000000000000000000000000000000000000000000000000000008152600401610c5b9061555b565b60405180910390fd5b826006806007811115610c7a57610c79614c4e565b5b60008084815260200190815260200160002060100160009054906101000a900460ff166007811115610caf57610cae614c4e565b5b14610cef576040517f08c379a0000000000000000000000000000000000000000000000000000000008152600401610ce6906155c7565b60405180910390fd5b846002806002811115610d0557610d04614c4e565b5b60008084815260200190815260200160002060100160019054906101000a900460ff166002811115610d3a57610d39614c4e565b5b14610d7a576040517f08c379a0000000000000000000000000000000000000000000000000000000008152600401610d7190615633565b60405180910390fd5b600080888152602001908152602001600020600d018054610d9a906154b7565b80601f0160208091040260200160405190810160405280929190818152602001828054610dc6906154b7565b8015610e135780601f10610de857610100808354040283529160200191610e13565b820191906000526020600020905b815481529060010190602001808311610df657829003601f168201915b505050505095505050505050919050565b8060008082815260200190815260200160002060000160009054906101000a900473ffffffffffffffffffffffffffffffffffffffff1673ffffffffffffffffffffffffffffffffffffffff163373ffffffffffffffffffffffffffffffffffffffff1614610ec8576040517f08c379a0000000000000000000000000000000000000000000000000000000008152600401610ebf9061555b565b60405180910390fd5b816006806007811115610ede57610edd614c4e565b5b60008084815260200190815260200160002060100160009054906101000a900460ff166007811115610f1357610f12614c4e565b5b14610f53576040517f08c379a0000000000000000000000000000000000000000000000000000000008152600401610f4a906155c7565b60405180910390fd5b836001806002811115610f6957610f68614c4e565b5b60008084815260200190815260200160002060100160019054906101000a900460ff166002811115610f9e57610f9d614c4e565b5b14610fde576040517f08c379a0000000000000000000000000000000000000000000000000000000008152600401610fd590615633565b60405180910390fd5b60008087815260200190815260200160002060030154600080888152602001908152602001600020600701546110149190615682565b803414611056576040517f08c379a000000000000000000000000000000000000000000000000000000000815260040161104d90615702565b60405180910390fd5b6001600281111561106a57611069614c4e565b5b60008089815260200190815260200160002060100160019054906101000a900460ff16600281111561109f5761109e614c4e565b5b146110df576040517f08c379a00000000000000000000000000000000000000000000000000000000081526004016110d69061576e565b60405180910390fd5b60008088815260200190815260200160002060010160009054906101000a900473ffffffffffffffffffffffffffffffffffffffff1673ffffffffffffffffffffffffffffffffffffffff166108fc349081150290604051600060405180830381858888f1935050505015801561115a573d6000803e3d6000fd5b507f4195fd9cd5f571cf9d14b2376c60201465a986f4a0469cebf0f0ee1d3e2022ab60008089815260200190815260200160002060010160009054906101000a900473ffffffffffffffffffffffffffffffffffffffff166000808a8152602001908152602001600020600301546000808b8152602001908152602001600020600701546111e89190615682565b6040516111f69291906157ed565b60405180910390a1600260008089815260200190815260200160002060100160016101000a81548160ff0219169083600281111561123757611236614c4e565b5b021790555042600080898152602001908152602001600020600f01819055507ff2baea2668e36a27a898b8c745decb4439ff61ae04d545dcc6954b84bd3e3c428760405161128591906153db565b60405180910390a150505050505050565b8160008082815260200190815260200160002060010160009054906101000a900473ffffffffffffffffffffffffffffffffffffffff1673ffffffffffffffffffffffffffffffffffffffff163373ffffffffffffffffffffffffffffffffffffffff161461133a576040517f08c379a000000000000000000000000000000000000000000000000000000000815260040161133190615888565b60405180910390fd5b8260038060078111156113505761134f614c4e565b5b60008084815260200190815260200160002060100160009054906101000a900460ff16600781111561138557611384614c4e565b5b146113c5576040517f08c379a00000000000000000000000000000000000000000000000000000000081526004016113bc906155c7565b60405180910390fd5b8460008060028111156113db576113da614c4e565b5b60008084815260200190815260200160002060100160019054906101000a900460ff1660028111156114105761140f614c4e565b5b14611450576040517f08c379a000000000000000000000000000000000000000000000000000000000815260040161144790615633565b60405180910390fd5b42600080898152602001908152602001600020600a018190555085600080898152602001908152602001600020600d019080519060200190611493929190614975565b5061149d87614682565b15611bbb5760008088815260200190815260200160002060030154600080898152602001908152602001600020600701541161180f5760008088815260200190815260200160002060010160009054906101000a900473ffffffffffffffffffffffffffffffffffffffff1673ffffffffffffffffffffffffffffffffffffffff166108fc6000808a8152602001908152602001600020600201546000808b81526020019081526020016000206007015461155891906158a8565b9081150290604051600060405180830381858888f19350505050158015611583573d6000803e3d6000fd5b507f4195fd9cd5f571cf9d14b2376c60201465a986f4a0469cebf0f0ee1d3e2022ab60008089815260200190815260200160002060010160009054906101000a900473ffffffffffffffffffffffffffffffffffffffff166000808a8152602001908152602001600020600201546000808b81526020019081526020016000206007015461161191906158a8565b60405161161f9291906157ed565b60405180910390a160008088815260200190815260200160002060000160009054906101000a900473ffffffffffffffffffffffffffffffffffffffff1673ffffffffffffffffffffffffffffffffffffffff166108fc6000808a8152602001908152602001600020600301546000808b8152602001908152602001600020600701546116ac9190615682565b9081150290604051600060405180830381858888f193505050501580156116d7573d6000803e3d6000fd5b507fb56ab0c8ca3c4a2f3256c9dab1834145295ed481d85fd1afde56ff8c7298c3ec60008089815260200190815260200160002060000160009054906101000a900473ffffffffffffffffffffffffffffffffffffffff166000808a8152602001908152602001600020600301546000808b8152602001908152602001600020600701546117659190615682565b6040516117739291906157ed565b60405180910390a1600260008089815260200190815260200160002060100160016101000a81548160ff021916908360028111156117b4576117b3614c4e565b5b021790555042600080898152602001908152602001600020600f01819055507ff2baea2668e36a27a898b8c745decb4439ff61ae04d545dcc6954b84bd3e3c428760405161180291906153db565b60405180910390a1611a2a565b60008088815260200190815260200160002060010160009054906101000a900473ffffffffffffffffffffffffffffffffffffffff1673ffffffffffffffffffffffffffffffffffffffff166108fc6000808a8152602001908152602001600020600201546000808b81526020019081526020016000206003015461189491906158a8565b9081150290604051600060405180830381858888f193505050501580156118bf573d6000803e3d6000fd5b507f4195fd9cd5f571cf9d14b2376c60201465a986f4a0469cebf0f0ee1d3e2022ab60008089815260200190815260200160002060010160009054906101000a900473ffffffffffffffffffffffffffffffffffffffff166000808a8152602001908152602001600020600201546000808b81526020019081526020016000206003015461194d91906158a8565b60405161195b9291906157ed565b60405180910390a1600160008089815260200190815260200160002060100160016101000a81548160ff0219169083600281111561199c5761199b614c4e565b5b021790555042600080898152602001908152602001600020600f01819055507f0e94573b1be2e52f56af2fa73f97395af190b00bf516b0e90356c3619c4cdf7c876000808a8152602001908152602001600020600301546000808b815260200190815260200160002060070154611a139190615682565b604051611a219291906158fe565b60405180910390a15b600660008089815260200190815260200160002060100160006101000a81548160ff02191690836007811115611a6357611a62614c4e565b5b021790555042600080898152602001908152602001600020600f01819055507f97393f84209d4b691fab1bc833d0efe882710cb7867c2724b6991eb74567b05c87604051611ab191906153db565b60405180910390a16001600260008060008b815260200190815260200160002060010160009054906101000a900473ffffffffffffffffffffffffffffffffffffffff1673ffffffffffffffffffffffffffffffffffffffff1673ffffffffffffffffffffffffffffffffffffffff1681526020019081526020016000206000016000828254611b4191906158a8565b925050819055507ff79072e0f370bb188b7c4d34ae8a5c9138b891e5df7cfa7ca412b518d30aaf7560008089815260200190815260200160002060010160009054906101000a900473ffffffffffffffffffffffffffffffffffffffff1688604051611bae929190615927565b60405180910390a1611e9c565b60008088815260200190815260200160002060000160009054906101000a900473ffffffffffffffffffffffffffffffffffffffff1673ffffffffffffffffffffffffffffffffffffffff166108fc6000808a8152602001908152602001600020600201546000808b815260200190815260200160002060030154611c4091906158a8565b9081150290604051600060405180830381858888f19350505050158015611c6b573d6000803e3d6000fd5b507fb56ab0c8ca3c4a2f3256c9dab1834145295ed481d85fd1afde56ff8c7298c3ec60008089815260200190815260200160002060000160009054906101000a900473ffffffffffffffffffffffffffffffffffffffff166000808a8152602001908152602001600020600201546000808b815260200190815260200160002060030154611cf991906158a8565b604051611d079291906157ed565b60405180910390a1600760008089815260200190815260200160002060100160006101000a81548160ff02191690836007811115611d4857611d47614c4e565b5b021790555042600080898152602001908152602001600020600f01819055507fa09cb3265c52882b0a36102438c66b242bf2e45c2ebdf91b9448afb52438276087604051611d9691906153db565b60405180910390a16001600260008060008b815260200190815260200160002060010160009054906101000a900473ffffffffffffffffffffffffffffffffffffffff1673ffffffffffffffffffffffffffffffffffffffff1673ffffffffffffffffffffffffffffffffffffffff1681526020019081526020016000206001016000828254611e2691906158a8565b925050819055507f3fec1177d25f324e1beb970cd60f8b52ef1e47290a72bdb8f62101720f5e492760008089815260200190815260200160002060010160009054906101000a900473ffffffffffffffffffffffffffffffffffffffff1688604051611e93929190615927565b60405180910390a15b50505050505050565b8360008082815260200190815260200160002060010160009054906101000a900473ffffffffffffffffffffffffffffffffffffffff1673ffffffffffffffffffffffffffffffffffffffff163373ffffffffffffffffffffffffffffffffffffffff1614611f49576040517f08c379a0000000000000000000000000000000000000000000000000000000008152600401611f4090615888565b60405180910390fd5b846002806007811115611f5f57611f5e614c4e565b5b60008084815260200190815260200160002060100160009054906101000a900460ff166007811115611f9457611f93614c4e565b5b14611fd4576040517f08c379a0000000000000000000000000000000000000000000000000000000008152600401611fcb906155c7565b60405180910390fd5b83600080898152602001908152602001600020600901819055508460008089815260200190815260200160002060060181905550612011876147a8565b801561202357506120228787614835565b5b1561210b57600080888152602001908152602001600020600601546000808981526020019081526020016000206005015461205e9190615950565b60008089815260200190815260200160002060070181905550600360008089815260200190815260200160002060100160006101000a81548160ff021916908360078111156120b0576120af614c4e565b5b021790555042600080898152602001908152602001600020600f01819055507f4176d26ab2247b0b92e698330257544613ee9100fad5c65d61aec36a2a877b7d876040516120fe91906153db565b60405180910390a16123ec565b60008088815260200190815260200160002060000160009054906101000a900473ffffffffffffffffffffffffffffffffffffffff1673ffffffffffffffffffffffffffffffffffffffff166108fc6000808a8152602001908152602001600020600201546000808b81526020019081526020016000206003015461219091906158a8565b9081150290604051600060405180830381858888f193505050501580156121bb573d6000803e3d6000fd5b507fb56ab0c8ca3c4a2f3256c9dab1834145295ed481d85fd1afde56ff8c7298c3ec60008089815260200190815260200160002060000160009054906101000a900473ffffffffffffffffffffffffffffffffffffffff166000808a8152602001908152602001600020600201546000808b81526020019081526020016000206003015461224991906158a8565b6040516122579291906157ed565b60405180910390a16001600260008060008b815260200190815260200160002060010160009054906101000a900473ffffffffffffffffffffffffffffffffffffffff1673ffffffffffffffffffffffffffffffffffffffff1673ffffffffffffffffffffffffffffffffffffffff16815260200190815260200160002060010160008282546122e791906158a8565b925050819055507f3fec1177d25f324e1beb970cd60f8b52ef1e47290a72bdb8f62101720f5e492760008089815260200190815260200160002060010160009054906101000a900473ffffffffffffffffffffffffffffffffffffffff1688604051612354929190615927565b60405180910390a1600460008089815260200190815260200160002060100160006101000a81548160ff0219169083600781111561239557612394614c4e565b5b021790555042600080898152602001908152602001600020600f01819055507f1feb95f113fd9e6280236d043c8da4ca59e052f4783ce6a83f261c1aaa865b17876040516123e391906153db565b60405180910390a15b50505050505050565b8060008082815260200190815260200160002060000160009054906101000a900473ffffffffffffffffffffffffffffffffffffffff1673ffffffffffffffffffffffffffffffffffffffff163373ffffffffffffffffffffffffffffffffffffffff1614612499576040517f08c379a00000000000000000000000000000000000000000000000000000000081526004016124909061555b565b60405180910390fd5b8160028060078111156124af576124ae614c4e565b5b60008084815260200190815260200160002060100160009054906101000a900460ff1660078111156124e4576124e3614c4e565b5b14612524576040517f08c379a000000000000000000000000000000000000000000000000000000000815260040161251b906155c7565b60405180910390fd5b600080858152602001908152602001600020600401546000808681526020019081526020016000206008015461255a91906158a8565b421161259b576040517f08c379a0000000000000000000000000000000000000000000000000000000008152600401612592906159f6565b60405180910390fd5b600560008086815260200190815260200160002060100160006101000a81548160ff021916908360078111156125d4576125d3614c4e565b5b021790555060008085815260200190815260200160002060000160009054906101000a900473ffffffffffffffffffffffffffffffffffffffff1673ffffffffffffffffffffffffffffffffffffffff166108fc600080878152602001908152602001600020600201546000808881526020019081526020016000206003015461265e91906158a8565b9081150290604051600060405180830381858888f19350505050158015612689573d6000803e3d6000fd5b5042600080868152602001908152602001600020600f01819055507fb56ab0c8ca3c4a2f3256c9dab1834145295ed481d85fd1afde56ff8c7298c3ec60008086815260200190815260200160002060000160009054906101000a900473ffffffffffffffffffffffffffffffffffffffff16600080878152602001908152602001600020600201546000808881526020019081526020016000206003015461273191906158a8565b60405161273f9291906157ed565b60405180910390a17fa07d0b7132fa6b208a063af8026a29c1fa7ea1f98ffc9682615585318a6b25d68460405161277691906153db565b60405180910390a150505050565b60007f000000000000000000000000000000000000000000000000000000000000000073ffffffffffffffffffffffffffffffffffffffff163373ffffffffffffffffffffffffffffffffffffffff1614612814576040517f08c379a000000000000000000000000000000000000000000000000000000000815260040161280b90615468565b60405180910390fd5b600180549050905090565b6000806000838152602001908152602001600020600f01549050919050565b6060600080838152602001908152602001600020600b018054612860906154b7565b80601f016020809104026020016040519081016040528092919081815260200182805461288c906154b7565b80156128d95780601f106128ae576101008083540402835291602001916128d9565b820191906000526020600020905b8154815290600101906020018083116128bc57829003601f168201915b50505050509050919050565b6000806000838152602001908152602001600020600801549050919050565b8661290e81610b50565b1561294e576040517f08c379a000000000000000000000000000000000000000000000000000000000815260040161294590615a62565b60405180910390fd5b60028661295b9190615950565b34101561299d576040517f08c379a000000000000000000000000000000000000000000000000000000000815260040161299490615ace565b60405180910390fd5b336000808a815260200190815260200160002060000160006101000a81548173ffffffffffffffffffffffffffffffffffffffff021916908373ffffffffffffffffffffffffffffffffffffffff160217905550346000808a815260200190815260200160002060030181905550866000808a815260200190815260200160002060010160006101000a81548173ffffffffffffffffffffffffffffffffffffffff021916908373ffffffffffffffffffffffffffffffffffffffff160217905550600a86612a6c9190615950565b6000808a815260200190815260200160002060020181905550856000808a815260200190815260200160002060050181905550846000808a815260200190815260200160002060040181905550836000808a8152602001908152602001600020600e0181905550826000808a8152602001908152602001600020600c019080519060200190612afc929190614975565b50816000808a8152602001908152602001600020600b019080519060200190612b26929190614975565b5060008060008a815260200190815260200160002060100160006101000a81548160ff02191690836007811115612b6057612b5f614c4e565b5b021790555060008060008a815260200190815260200160002060100160016101000a81548160ff02191690836002811115612b9e57612b9d614c4e565b5b0217905550426000808a8152602001908152602001600020600f018190555060018890806001815401808255809150506001900390600052602060002001600090919091909150557f1e28175955a872c8252a6e5cf36ac6b318d074eb78b49731e5cb9ddc2d870b6388604051612c1591906153db565b60405180910390a15050505050505050565b60608160008082815260200190815260200160002060000160009054906101000a900473ffffffffffffffffffffffffffffffffffffffff1673ffffffffffffffffffffffffffffffffffffffff163373ffffffffffffffffffffffffffffffffffffffff161480612cf9575060008082815260200190815260200160002060010160009054906101000a900473ffffffffffffffffffffffffffffffffffffffff1673ffffffffffffffffffffffffffffffffffffffff163373ffffffffffffffffffffffffffffffffffffffff16145b80612d4f57507f000000000000000000000000000000000000000000000000000000000000000073ffffffffffffffffffffffffffffffffffffffff163373ffffffffffffffffffffffffffffffffffffffff16145b612d8e576040517f08c379a0000000000000000000000000000000000000000000000000000000008152600401612d8590615b60565b60405180910390fd5b600060405180602001604052806000815250905060006007811115612db657612db5614c4e565b5b60008086815260200190815260200160002060100160009054906101000a900460ff166007811115612deb57612dea614c4e565b5b1415612e2e576040518060400160405280600781526020017f43726561746564000000000000000000000000000000000000000000000000008152509050613241565b60016007811115612e4257612e41614c4e565b5b60008086815260200190815260200160002060100160009054906101000a900460ff166007811115612e7757612e76614c4e565b5b1415612eba576040518060400160405280600981526020017f43616e63656c6c656400000000000000000000000000000000000000000000008152509050613240565b60026007811115612ece57612ecd614c4e565b5b60008086815260200190815260200160002060100160009054906101000a900460ff166007811115612f0357612f02614c4e565b5b1415612f46576040518060400160405280600681526020017f4163746976650000000000000000000000000000000000000000000000000000815250905061323f565b60036007811115612f5a57612f59614c4e565b5b60008086815260200190815260200160002060100160009054906101000a900460ff166007811115612f8f57612f8e614c4e565b5b1415612fd2576040518060400160405280601581526020017f436f6d706c657465645375636365737366756c6c790000000000000000000000815250905061323e565b60046007811115612fe657612fe5614c4e565b5b60008086815260200190815260200160002060100160009054906101000a900460ff16600781111561301b5761301a614c4e565b5b141561305e576040518060400160405280601781526020017f436f6d706c65746564556e7375636365737366756c6c79000000000000000000815250905061323d565b6005600781111561307257613071614c4e565b5b60008086815260200190815260200160002060100160009054906101000a900460ff1660078111156130a7576130a6614c4e565b5b14156130ea576040518060400160405280600781526020017f496e76616c696400000000000000000000000000000000000000000000000000815250905061323c565b600660078111156130fe576130fd614c4e565b5b60008086815260200190815260200160002060100160009054906101000a900460ff16600781111561313357613132614c4e565b5b1415613176576040518060400160405280601b81526020017f526573756c747352656365697665645375636365737366756c6c790000000000815250905061323b565b60078081111561318957613188614c4e565b5b60008086815260200190815260200160002060100160009054906101000a900460ff1660078111156131be576131bd614c4e565b5b1415613201576040518060400160405280601d81526020017f526573756c74735265636569766564556e7375636365737366756c6c79000000815250905061323a565b6040518060400160405280600581526020017f4572726f7200000000000000000000000000000000000000000000000000000081525090505b5b5b5b5b5b5b5b8092505050919050565b60007f0000000000000000000000000000000000000000000000000000000000000000905090565b8060008082815260200190815260200160002060010160009054906101000a900473ffffffffffffffffffffffffffffffffffffffff1673ffffffffffffffffffffffffffffffffffffffff163373ffffffffffffffffffffffffffffffffffffffff1614613317576040517f08c379a000000000000000000000000000000000000000000000000000000000815260040161330e90615888565b60405180910390fd5b81600080600781111561332d5761332c614c4e565b5b60008084815260200190815260200160002060100160009054906101000a900460ff16600781111561336257613361614c4e565b5b146133a2576040517f08c379a0000000000000000000000000000000000000000000000000000000008152600401613399906155c7565b60405180910390fd5b836133ac81610b50565b6133eb576040517f08c379a00000000000000000000000000000000000000000000000000000000081526004016133e290615bcc565b60405180910390fd5b60008086815260200190815260200160002060020154341015613443576040517f08c379a000000000000000000000000000000000000000000000000000000000815260040161343a90615c5e565b60405180910390fd5b42600080878152602001908152602001600020600801819055503460008087815260200190815260200160002060020181905550600260008087815260200190815260200160002060100160006101000a81548160ff021916908360078111156134b0576134af614c4e565b5b021790555042600080878152602001908152602001600020600f01819055507fce708d6b67215419755514077f148edc2ee99fe51d758948ee62feea825d7038856040516134fe91906153db565b60405180910390a15050505050565b60608160008082815260200190815260200160002060000160009054906101000a900473ffffffffffffffffffffffffffffffffffffffff1673ffffffffffffffffffffffffffffffffffffffff163373ffffffffffffffffffffffffffffffffffffffff1614806135df575060008082815260200190815260200160002060010160009054906101000a900473ffffffffffffffffffffffffffffffffffffffff1673ffffffffffffffffffffffffffffffffffffffff163373ffffffffffffffffffffffffffffffffffffffff16145b8061363557507f000000000000000000000000000000000000000000000000000000000000000073ffffffffffffffffffffffffffffffffffffffff163373ffffffffffffffffffffffffffffffffffffffff16145b613674576040517f08c379a000000000000000000000000000000000000000000000000000000000815260040161366b90615b60565b60405180910390fd5b60006040518060200160405280600081525090506000600281111561369c5761369b614c4e565b5b60008086815260200190815260200160002060100160019054906101000a900460ff1660028111156136d1576136d0614c4e565b5b1415613714576040518060400160405280600b81526020017f496e697469616c697a65640000000000000000000000000000000000000000008152509050613866565b6001600281111561372857613727614c4e565b5b60008086815260200190815260200160002060100160019054906101000a900460ff16600281111561375d5761375c614c4e565b5b14156137a0576040518060400160405280600781526020017f50656e64696e67000000000000000000000000000000000000000000000000008152509050613865565b6002808111156137b3576137b2614c4e565b5b60008086815260200190815260200160002060100160019054906101000a900460ff1660028111156137e8576137e7614c4e565b5b141561382b576040518060400160405280600981526020017f436f6d706c6574656400000000000000000000000000000000000000000000008152509050613864565b6040518060400160405280600581526020017f4572726f7200000000000000000000000000000000000000000000000000000081525090505b5b5b8092505050919050565b60008160008082815260200190815260200160002060000160009054906101000a900473ffffffffffffffffffffffffffffffffffffffff1673ffffffffffffffffffffffffffffffffffffffff163373ffffffffffffffffffffffffffffffffffffffff161480613942575060008082815260200190815260200160002060010160009054906101000a900473ffffffffffffffffffffffffffffffffffffffff1673ffffffffffffffffffffffffffffffffffffffff163373ffffffffffffffffffffffffffffffffffffffff16145b8061399857507f000000000000000000000000000000000000000000000000000000000000000073ffffffffffffffffffffffffffffffffffffffff163373ffffffffffffffffffffffffffffffffffffffff16145b6139d7576040517f08c379a00000000000000000000000000000000000000000000000000000000081526004016139ce90615b60565b60405180910390fd5b60008084815260200190815260200160002060070154915050919050565b7f000000000000000000000000000000000000000000000000000000000000000073ffffffffffffffffffffffffffffffffffffffff163373ffffffffffffffffffffffffffffffffffffffff1614613a83576040517f08c379a0000000000000000000000000000000000000000000000000000000008152600401613a7a90615468565b60405180910390fd5b600060018054905090505b6000811115613eb657600060018083613aa79190615682565b81548110613ab857613ab7615c7e565b5b9060005260206000200154905060066007811115613ad957613ad8614c4e565b5b60008083815260200190815260200160002060100160009054906101000a900460ff166007811115613b0e57613b0d614c4e565b5b148015613b605750600280811115613b2957613b28614c4e565b5b60008083815260200190815260200160002060100160019054906101000a900460ff166002811115613b5e57613b5d614c4e565b5b145b80613bb05750600780811115613b7957613b78614c4e565b5b60008083815260200190815260200160002060100160009054906101000a900460ff166007811115613bae57613bad614c4e565b5b145b80613c01575060046007811115613bca57613bc9614c4e565b5b60008083815260200190815260200160002060100160009054906101000a900460ff166007811115613bff57613bfe614c4e565b5b145b80613c52575060016007811115613c1b57613c1a614c4e565b5b60008083815260200190815260200160002060100160009054906101000a900460ff166007811115613c5057613c4f614c4e565b5b145b80613ca3575060056007811115613c6c57613c6b614c4e565b5b60008083815260200190815260200160002060100160009054906101000a900460ff166007811115613ca157613ca0614c4e565b5b145b8015613ccf5750603c600080838152602001908152602001600020600f0154613ccc91906158a8565b42115b15613ea257600080828152602001908152602001600020600080820160006101000a81549073ffffffffffffffffffffffffffffffffffffffff02191690556001820160006101000a81549073ffffffffffffffffffffffffffffffffffffffff021916905560028201600090556003820160009055600482016000905560058201600090556006820160009055600782016000905560088201600090556009820160009055600a820160009055600b82016000613d8d91906149fb565b600c82016000613d9d91906149fb565b600d82016000613dad91906149fb565b600e820160009055600f8201600090556010820160006101000a81549060ff02191690556010820160016101000a81549060ff021916905550506001808080549050613df99190615682565b81548110613e0a57613e09615c7e565b5b906000526020600020015460018084613e239190615682565b81548110613e3457613e33615c7e565b5b90600052602060002001819055506001805480613e5457613e53615cad565b5b600190038181906000526020600020016000905590557fa96209878fc4722b56527db6cf4b72ad6bfddb3ad9968f7de1125d02acc9aa1081604051613e9991906153db565b60405180910390a15b508080613eae90615cdc565b915050613a8e565b50565b60018181548110613ec957600080fd5b906000526020600020016000915090505481565b7f000000000000000000000000000000000000000000000000000000000000000073ffffffffffffffffffffffffffffffffffffffff163373ffffffffffffffffffffffffffffffffffffffff1614613f6b576040517f08c379a0000000000000000000000000000000000000000000000000000000008152600401613f6290615468565b60405180910390fd5b80613f7581610b50565b613fb4576040517f08c379a0000000000000000000000000000000000000000000000000000000008152600401613fab90615bcc565b60405180910390fd5b600080838152602001908152602001600020600080820160006101000a81549073ffffffffffffffffffffffffffffffffffffffff02191690556001820160006101000a81549073ffffffffffffffffffffffffffffffffffffffff021916905560028201600090556003820160009055600482016000905560058201600090556006820160009055600782016000905560088201600090556009820160009055600a820160009055600b8201600061406d91906149fb565b600c8201600061407d91906149fb565b600d8201600061408d91906149fb565b600e820160009055600f8201600090556010820160006101000a81549060ff02191690556010820160016101000a81549060ff0219169055505060005b60018054905081101561418d5782600182815481106140ec576140eb615c7e565b5b9060005260206000200154141561417a57600180808054905061410f9190615682565b815481106141205761411f615c7e565b5b90600052602060002001546001828154811061413f5761413e615c7e565b5b9060005260206000200181905550600180548061415f5761415e615cad565b5b6001900381819060005260206000200160009055905561418d565b808061418590615d06565b9150506140ca565b507fa96209878fc4722b56527db6cf4b72ad6bfddb3ad9968f7de1125d02acc9aa10826040516141bd91906153db565b60405180910390a15050565b60008160008082815260200190815260200160002060000160009054906101000a900473ffffffffffffffffffffffffffffffffffffffff1673ffffffffffffffffffffffffffffffffffffffff163373ffffffffffffffffffffffffffffffffffffffff16148061429b575060008082815260200190815260200160002060010160009054906101000a900473ffffffffffffffffffffffffffffffffffffffff1673ffffffffffffffffffffffffffffffffffffffff163373ffffffffffffffffffffffffffffffffffffffff16145b806142f157507f000000000000000000000000000000000000000000000000000000000000000073ffffffffffffffffffffffffffffffffffffffff163373ffffffffffffffffffffffffffffffffffffffff16145b614330576040517f08c379a000000000000000000000000000000000000000000000000000000000815260040161432790615b60565b60405180910390fd5b6000808481526020019081526020016000206003015460008085815260200190815260200160002060070154111561439f5760008084815260200190815260200160002060030154600080858152602001908152602001600020600701546143989190615682565b91506143a4565b600091505b50919050565b8060008082815260200190815260200160002060000160009054906101000a900473ffffffffffffffffffffffffffffffffffffffff1673ffffffffffffffffffffffffffffffffffffffff163373ffffffffffffffffffffffffffffffffffffffff161461444e576040517f08c379a00000000000000000000000000000000000000000000000000000000081526004016144459061555b565b60405180910390fd5b81600080600781111561446457614463614c4e565b5b60008084815260200190815260200160002060100160009054906101000a900460ff16600781111561449957614498614c4e565b5b146144d9576040517f08c379a00000000000000000000000000000000000000000000000000000000081526004016144d0906155c7565b60405180910390fd5b600160008086815260200190815260200160002060100160006101000a81548160ff0219169083600781111561451257614511614c4e565b5b021790555060008085815260200190815260200160002060000160009054906101000a900473ffffffffffffffffffffffffffffffffffffffff1673ffffffffffffffffffffffffffffffffffffffff166108fc600080878152602001908152602001600020600301549081150290604051600060405180830381858888f193505050501580156145a7573d6000803e3d6000fd5b5042600080868152602001908152602001600020600f01819055507fb56ab0c8ca3c4a2f3256c9dab1834145295ed481d85fd1afde56ff8c7298c3ec60008086815260200190815260200160002060000160009054906101000a900473ffffffffffffffffffffffffffffffffffffffff166000808781526020019081526020016000206003015460405161463d9291906157ed565b60405180910390a17fe1e1d79b8f28d3379fc32f617eaf54dd6bd4071074c77e91134770e04a81d6268460405161467491906153db565b60405180910390a150505050565b6000610258600080848152602001908152602001600020600901546146a791906158a8565b600080848152602001908152602001600020600a0154111580156146f5575060008083815260200190815260200160002060090154600080848152602001908152602001600020600a015410155b801561474b5750600080838152602001908152602001600020600601546000808481526020019081526020016000206008015461473291906158a8565b600080848152602001908152602001600020600a015410155b80156147a15750600080838152602001908152602001600020600601546000808481526020019081526020016000206008015461478891906158a8565b6000808481526020019081526020016000206009015410155b9050919050565b600080600083815260200190815260200160002060040154600080848152602001908152602001600020600801546147e091906158a8565b600080848152602001908152602001600020600901541115801561482e5750600080838152602001908152602001600020600401546000808481526020019081526020016000206006015411155b9050919050565b6000816040516020016148489190615d8b565b60405160208183030381529060405280519060200120600080858152602001908152602001600020600e015414905092915050565b604051806102400160405280600073ffffffffffffffffffffffffffffffffffffffff168152602001600073ffffffffffffffffffffffffffffffffffffffff16815260200160008152602001600081526020016000815260200160008152602001600081526020016000815260200160008152602001600081526020016000815260200160608152602001606081526020016060815260200160008019168152602001600081526020016000600781111561493c5761493b614c4e565b5b81526020016000600281111561495557614954614c4e565b5b81525090565b604051806040016040528060008152602001600081525090565b828054614981906154b7565b90600052602060002090601f0160209004810192826149a357600085556149ea565b82601f106149bc57805160ff19168380011785556149ea565b828001600101855582156149ea579182015b828111156149e95782518255916020019190600101906149ce565b5b5090506149f79190614a3b565b5090565b508054614a07906154b7565b6000825580601f10614a195750614a38565b601f016020900490600052602060002090810190614a379190614a3b565b5b50565b5b80821115614a54576000816000905550600101614a3c565b5090565b600082825260208201905092915050565b7f6261642063616c6c000000000000000000000000000000000000000000000000600082015250565b6000614a9f600883614a58565b9150614aaa82614a69565b602082019050919050565b60006020820190508181036000830152614ace81614a92565b9050919050565b6000604051905090565b600080fd5b600080fd5b6000819050919050565b614afc81614ae9565b8114614b0757600080fd5b50565b600081359050614b1981614af3565b92915050565b600060208284031215614b3557614b34614adf565b5b6000614b4384828501614b0a565b91505092915050565b600073ffffffffffffffffffffffffffffffffffffffff82169050919050565b6000614b7782614b4c565b9050919050565b614b8781614b6c565b82525050565b6000819050919050565b614ba081614b8d565b82525050565b600081519050919050565b600082825260208201905092915050565b60005b83811015614be0578082015181840152602081019050614bc5565b83811115614bef576000848401525b50505050565b6000601f19601f8301169050919050565b6000614c1182614ba6565b614c1b8185614bb1565b9350614c2b818560208601614bc2565b614c3481614bf5565b840191505092915050565b614c4881614ae9565b82525050565b7f4e487b7100000000000000000000000000000000000000000000000000000000600052602160045260246000fd5b60088110614c8e57614c8d614c4e565b5b50565b6000819050614c9f82614c7d565b919050565b6000614caf82614c91565b9050919050565b614cbf81614ca4565b82525050565b60038110614cd657614cd5614c4e565b5b50565b6000819050614ce782614cc5565b919050565b6000614cf782614cd9565b9050919050565b614d0781614cec565b82525050565b600061024083016000830151614d266000860182614b7e565b506020830151614d396020860182614b7e565b506040830151614d4c6040860182614b97565b506060830151614d5f6060860182614b97565b506080830151614d726080860182614b97565b5060a0830151614d8560a0860182614b97565b5060c0830151614d9860c0860182614b97565b5060e0830151614dab60e0860182614b97565b50610100830151614dc0610100860182614b97565b50610120830151614dd5610120860182614b97565b50610140830151614dea610140860182614b97565b50610160830151848203610160860152614e048282614c06565b915050610180830151848203610180860152614e208282614c06565b9150506101a08301518482036101a0860152614e3c8282614c06565b9150506101c0830151614e536101c0860182614c3f565b506101e0830151614e686101e0860182614b97565b50610200830151614e7d610200860182614cb6565b50610220830151614e92610220860182614cfe565b508091505092915050565b60006020820190508181036000830152614eb78184614d0d565b905092915050565b6000614eca82614b4c565b9050919050565b614eda81614ebf565b8114614ee557600080fd5b50565b600081359050614ef781614ed1565b92915050565b600060208284031215614f1357614f12614adf565b5b6000614f2184828501614ee8565b91505092915050565b604082016000820151614f406000850182614b97565b506020820151614f536020850182614b97565b50505050565b6000604082019050614f6e6000830184614f2a565b92915050565b6000614f7f82614ba6565b614f898185614a58565b9350614f99818560208601614bc2565b614fa281614bf5565b840191505092915050565b60006020820190508181036000830152614fc78184614f74565b905092915050565b60008115159050919050565b614fe481614fcf565b82525050565b6000602082019050614fff6000830184614fdb565b92915050565b600080fd5b600080fd5b7f4e487b7100000000000000000000000000000000000000000000000000000000600052604160045260246000fd5b61504782614bf5565b810181811067ffffffffffffffff821117156150665761506561500f565b5b80604052505050565b6000615079614ad5565b9050615085828261503e565b919050565b600067ffffffffffffffff8211156150a5576150a461500f565b5b6150ae82614bf5565b9050602081019050919050565b82818337600083830152505050565b60006150dd6150d88461508a565b61506f565b9050828152602081018484840111156150f9576150f861500a565b5b6151048482856150bb565b509392505050565b600082601f83011261512157615120615005565b5b81356151318482602086016150ca565b91505092915050565b6000806040838503121561515157615150614adf565b5b600061515f85828601614b0a565b925050602083013567ffffffffffffffff8111156151805761517f614ae4565b5b61518c8582860161510c565b9150509250929050565b61519f81614b8d565b81146151aa57600080fd5b50565b6000813590506151bc81615196565b92915050565b600080600080608085870312156151dc576151db614adf565b5b60006151ea87828801614b0a565b945050602085013567ffffffffffffffff81111561520b5761520a614ae4565b5b6152178782880161510c565b9350506040615228878288016151ad565b9250506060615239878288016151ad565b91505092959194509250565b61524e81614b8d565b82525050565b60006020820190506152696000830184615245565b92915050565b61527881614b6c565b811461528357600080fd5b50565b6000813590506152958161526f565b92915050565b600080600080600080600060e0888a0312156152ba576152b9614adf565b5b60006152c88a828b01614b0a565b97505060206152d98a828b01615286565b96505060406152ea8a828b016151ad565b95505060606152fb8a828b016151ad565b945050608061530c8a828b01614b0a565b93505060a088013567ffffffffffffffff81111561532d5761532c614ae4565b5b6153398a828b0161510c565b92505060c088013567ffffffffffffffff81111561535a57615359614ae4565b5b6153668a828b0161510c565b91505092959891949750929550565b61537e81614ebf565b82525050565b60006020820190506153996000830184615375565b92915050565b6000602082840312156153b5576153b4614adf565b5b60006153c3848285016151ad565b91505092915050565b6153d581614ae9565b82525050565b60006020820190506153f060008301846153cc565b92915050565b7f4d6574686f642063616e2062652063616c6c6564206f6e6c79206279206f776e60008201527f65722e0000000000000000000000000000000000000000000000000000000000602082015250565b6000615452602383614a58565b915061545d826153f6565b604082019050919050565b6000602082019050818103600083015261548181615445565b9050919050565b7f4e487b7100000000000000000000000000000000000000000000000000000000600052602260045260246000fd5b600060028204905060018216806154cf57607f821691505b602082108114156154e3576154e2615488565b5b50919050565b7f4d6574686f642063616e2062652063616c6c6564206f6e6c7920627920636c6960008201527f656e742e00000000000000000000000000000000000000000000000000000000602082015250565b6000615545602483614a58565b9150615550826154e9565b604082019050919050565b6000602082019050818103600083015261557481615538565b9050919050565b7f496e76616c6964205461736b53746174652e0000000000000000000000000000600082015250565b60006155b1601283614a58565b91506155bc8261557b565b602082019050919050565b600060208201905081810360008301526155e0816155a4565b9050919050565b7f496e76616c6964205061796d656e7453746174652e0000000000000000000000600082015250565b600061561d601583614a58565b9150615628826155e7565b602082019050919050565b6000602082019050818103600083015261564c81615610565b9050919050565b7f4e487b7100000000000000000000000000000000000000000000000000000000600052601160045260246000fd5b600061568d82614b8d565b915061569883614b8d565b9250828210156156ab576156aa615653565b5b828203905092915050565b7f56616c75652073656e74206973206e6f74207468652065787065637465640000600082015250565b60006156ec601e83614a58565b91506156f7826156b6565b602082019050919050565b6000602082019050818103600083015261571b816156df565b9050919050565b7f5061796d656e74206e6f74206e65656465640000000000000000000000000000600082015250565b6000615758601283614a58565b915061576382615722565b602082019050919050565b600060208201905081810360008301526157878161574b565b9050919050565b6000819050919050565b60006157b36157ae6157a984614b4c565b61578e565b614b4c565b9050919050565b60006157c582615798565b9050919050565b60006157d7826157ba565b9050919050565b6157e7816157cc565b82525050565b600060408201905061580260008301856157de565b61580f6020830184615245565b9392505050565b7f4d6574686f642063616e2062652063616c6c6564206f6e6c792062792070726f60008201527f76696465722e0000000000000000000000000000000000000000000000000000602082015250565b6000615872602683614a58565b915061587d82615816565b604082019050919050565b600060208201905081810360008301526158a181615865565b9050919050565b60006158b382614b8d565b91506158be83614b8d565b9250827fffffffffffffffffffffffffffffffffffffffffffffffffffffffffffffffff038211156158f3576158f2615653565b5b828201905092915050565b600060408201905061591360008301856153cc565b6159206020830184615245565b9392505050565b600060408201905061593c60008301856157de565b61594960208301846153cc565b9392505050565b600061595b82614b8d565b915061596683614b8d565b9250817fffffffffffffffffffffffffffffffffffffffffffffffffffffffffffffffff048311821515161561599f5761599e615653565b5b828202905092915050565b7f54696d6520686173206e6f7420657870697265642e0000000000000000000000600082015250565b60006159e0601583614a58565b91506159eb826159aa565b602082019050919050565b60006020820190508181036000830152615a0f816159d3565b9050919050565b7f5461736b20616c72656164792065786973747300000000000000000000000000600082015250565b6000615a4c601383614a58565b9150615a5782615a16565b602082019050919050565b60006020820190508181036000830152615a7b81615a3f565b9050919050565b7f436c69656e7420636f6c6c61746572616c206973206e6f7420656e6f75676800600082015250565b6000615ab8601f83614a58565b9150615ac382615a82565b602082019050919050565b60006020820190508181036000830152615ae781615aab565b9050919050565b7f4d6574686f642063616e2062652063616c6c6564206f6e6c7920627920636c6960008201527f656e742c2070726f7669646572206f7220746865206f776e65722e0000000000602082015250565b6000615b4a603b83614a58565b9150615b5582615aee565b604082019050919050565b60006020820190508181036000830152615b7981615b3d565b9050919050565b7f5461736b206d7573742062652072656769737465726564000000000000000000600082015250565b6000615bb6601783614a58565b9150615bc182615b80565b602082019050919050565b60006020820190508181036000830152615be581615ba9565b9050919050565b7f50726f766964657220636f6c6c61746572616c206973206e6f7420656e6f756760008201527f6800000000000000000000000000000000000000000000000000000000000000602082015250565b6000615c48602183614a58565b9150615c5382615bec565b604082019050919050565b60006020820190508181036000830152615c7781615c3b565b9050919050565b7f4e487b7100000000000000000000000000000000000000000000000000000000600052603260045260246000fd5b7f4e487b7100000000000000000000000000000000000000000000000000000000600052603160045260246000fd5b6000615ce782614b8d565b91506000821415615cfb57615cfa615653565b5b600182039050919050565b6000615d1182614b8d565b91507fffffffffffffffffffffffffffffffffffffffffffffffffffffffffffffffff821415615d4457615d43615653565b5b600182019050919050565b600081905092915050565b6000615d6582614ba6565b615d6f8185615d4f565b9350615d7f818560208601614bc2565b80840191505092915050565b6000615d978284615d5a565b91508190509291505056fea2646970667358221220530a1546c7db0bdca6e0094eaa2fd3349c0a3a427f511761c2bee40953ef703064736f6c63430008080033",
  "devdoc": {
    "kind": "dev",
    "methods": {},
    "version": 1
  },
  "userdoc": {
    "kind": "user",
    "methods": {},
    "version": 1
  },
  "storageLayout": {
    "storage": [
      {
        "astId": 65,
        "contract": "contracts/TasksManager.sol:TasksManager",
        "label": "tasks",
        "offset": 0,
        "slot": "0",
        "type": "t_mapping(t_bytes32,t_struct(Task)55_storage)"
      },
      {
        "astId": 68,
        "contract": "contracts/TasksManager.sol:TasksManager",
        "label": "bytes32_tasks",
        "offset": 0,
        "slot": "1",
        "type": "t_array(t_bytes32)dyn_storage"
      },
      {
        "astId": 73,
        "contract": "contracts/TasksManager.sol:TasksManager",
        "label": "performance",
        "offset": 0,
        "slot": "2",
        "type": "t_mapping(t_address,t_struct(providerRating)60_storage)"
      }
    ],
    "types": {
      "t_address": {
        "encoding": "inplace",
        "label": "address",
        "numberOfBytes": "20"
      },
      "t_address_payable": {
        "encoding": "inplace",
        "label": "address payable",
        "numberOfBytes": "20"
      },
      "t_array(t_bytes32)dyn_storage": {
        "base": "t_bytes32",
        "encoding": "dynamic_array",
        "label": "bytes32[]",
        "numberOfBytes": "32"
      },
      "t_bytes32": {
        "encoding": "inplace",
        "label": "bytes32",
        "numberOfBytes": "32"
      },
      "t_enum(PaymentState)16": {
        "encoding": "inplace",
        "label": "enum TasksManager.PaymentState",
        "numberOfBytes": "1"
      },
      "t_enum(TaskState)12": {
        "encoding": "inplace",
        "label": "enum TasksManager.TaskState",
        "numberOfBytes": "1"
      },
      "t_mapping(t_address,t_struct(providerRating)60_storage)": {
        "encoding": "mapping",
        "key": "t_address",
        "label": "mapping(address => struct TasksManager.providerRating)",
        "numberOfBytes": "32",
        "value": "t_struct(providerRating)60_storage"
      },
      "t_mapping(t_bytes32,t_struct(Task)55_storage)": {
        "encoding": "mapping",
        "key": "t_bytes32",
        "label": "mapping(bytes32 => struct TasksManager.Task)",
        "numberOfBytes": "32",
        "value": "t_struct(Task)55_storage"
      },
      "t_string_storage": {
        "encoding": "bytes",
        "label": "string",
        "numberOfBytes": "32"
      },
      "t_struct(Task)55_storage": {
        "encoding": "inplace",
        "label": "struct TasksManager.Task",
        "members": [
          {
            "astId": 18,
            "contract": "contracts/TasksManager.sol:TasksManager",
            "label": "client",
            "offset": 0,
            "slot": "0",
            "type": "t_address_payable"
          },
          {
            "astId": 20,
            "contract": "contracts/TasksManager.sol:TasksManager",
            "label": "provider",
            "offset": 0,
            "slot": "1",
            "type": "t_address_payable"
          },
          {
            "astId": 22,
            "contract": "contracts/TasksManager.sol:TasksManager",
            "label": "providerCollateral",
            "offset": 0,
            "slot": "2",
            "type": "t_uint256"
          },
          {
            "astId": 24,
            "contract": "contracts/TasksManager.sol:TasksManager",
            "label": "clientCollateral",
            "offset": 0,
            "slot": "3",
            "type": "t_uint256"
          },
          {
            "astId": 26,
            "contract": "contracts/TasksManager.sol:TasksManager",
            "label": "deadline",
            "offset": 0,
            "slot": "4",
            "type": "t_uint256"
          },
          {
            "astId": 28,
            "contract": "contracts/TasksManager.sol:TasksManager",
            "label": "price",
            "offset": 0,
            "slot": "5",
            "type": "t_uint256"
          },
          {
            "astId": 30,
            "contract": "contracts/TasksManager.sol:TasksManager",
            "label": "duration",
            "offset": 0,
            "slot": "6",
            "type": "t_uint256"
          },
          {
            "astId": 32,
            "contract": "contracts/TasksManager.sol:TasksManager",
            "label": "cost",
            "offset": 0,
            "slot": "7",
            "type": "t_uint256"
          },
          {
            "astId": 34,
            "contract": "contracts/TasksManager.sol:TasksManager",
            "label": "activationTime",
            "offset": 0,
            "slot": "8",
            "type": "t_uint256"
          },
          {
            "astId": 36,
            "contract": "contracts/TasksManager.sol:TasksManager",
            "label": "timeResultProvided",
            "offset": 0,
            "slot": "9",
            "type": "t_uint256"
          },
          {
            "astId": 38,
            "contract": "contracts/TasksManager.sol:TasksManager",
            "label": "timeResultReceived",
            "offset": 0,
            "slot": "10",
            "type": "t_uint256"
          },
          {
            "astId": 40,
            "contract": "contracts/TasksManager.sol:TasksManager",
            "label": "computationCode",
            "offset": 0,
            "slot": "11",
            "type": "t_string_storage"
          },
          {
            "astId": 42,
            "contract": "contracts/TasksManager.sol:TasksManager",
            "label": "verificationCode",
            "offset": 0,
            "slot": "12",
            "type": "t_string_storage"
          },
          {
            "astId": 44,
            "contract": "contracts/TasksManager.sol:TasksManager",
            "label": "results",
            "offset": 0,
            "slot": "13",
            "type": "t_string_storage"
          },
          {
            "astId": 46,
            "contract": "contracts/TasksManager.sol:TasksManager",
            "label": "clientVerification",
            "offset": 0,
            "slot": "14",
            "type": "t_bytes32"
          },
          {
            "astId": 48,
            "contract": "contracts/TasksManager.sol:TasksManager",
            "label": "lastUpdateTimestamp",
            "offset": 0,
            "slot": "15",
            "type": "t_uint256"
          },
          {
            "astId": 51,
            "contract": "contracts/TasksManager.sol:TasksManager",
            "label": "taskState",
            "offset": 0,
            "slot": "16",
            "type": "t_enum(TaskState)12"
          },
          {
            "astId": 54,
            "contract": "contracts/TasksManager.sol:TasksManager",
            "label": "paymentState",
            "offset": 1,
            "slot": "16",
            "type": "t_enum(PaymentState)16"
          }
        ],
        "numberOfBytes": "544"
      },
      "t_struct(providerRating)60_storage": {
        "encoding": "inplace",
        "label": "struct TasksManager.providerRating",
        "members": [
          {
            "astId": 57,
            "contract": "contracts/TasksManager.sol:TasksManager",
            "label": "upVotes",
            "offset": 0,
            "slot": "0",
            "type": "t_uint256"
          },
          {
            "astId": 59,
            "contract": "contracts/TasksManager.sol:TasksManager",
            "label": "downVotes",
            "offset": 0,
            "slot": "1",
            "type": "t_uint256"
          }
        ],
        "numberOfBytes": "64"
      },
      "t_uint256": {
        "encoding": "inplace",
        "label": "uint256",
        "numberOfBytes": "32"
      }
    }
  }
}