{
  "address": "0x5FbDB2315678afecb367f032d93F642f64180aa3",
  "abi": [
    {
      "inputs": [],
      "stateMutability": "nonpayable",
      "type": "constructor"
    },
    {
      "anonymous": false,
      "inputs": [
        {
          "indexed": false,
          "internalType": "bytes32",
          "name": "taskID",
          "type": "bytes32"
        }
      ],
      "name": "PaymentCompleted",
      "type": "event"
    },
    {
      "anonymous": false,
      "inputs": [
        {
          "indexed": false,
          "internalType": "bytes32",
          "name": "taskID",
          "type": "bytes32"
        },
        {
          "indexed": false,
          "internalType": "uint256",
          "name": "payment",
          "type": "uint256"
        }
      ],
      "name": "PaymentPending",
      "type": "event"
    },
    {
      "anonymous": false,
      "inputs": [
        {
          "indexed": false,
          "internalType": "address",
          "name": "provider",
          "type": "address"
        },
        {
          "indexed": false,
          "internalType": "bytes32",
          "name": "taskID",
          "type": "bytes32"
        }
      ],
      "name": "ProviderDownvoted",
      "type": "event"
    },
    {
      "anonymous": false,
      "inputs": [
        {
          "indexed": false,
          "internalType": "address",
          "name": "provider",
          "type": "address"
        },
        {
          "indexed": false,
          "internalType": "bytes32",
          "name": "taskID",
          "type": "bytes32"
        }
      ],
      "name": "ProviderUpvoted",
      "type": "event"
    },
    {
      "anonymous": false,
      "inputs": [
        {
          "indexed": false,
          "internalType": "bytes32",
          "name": "taskID",
          "type": "bytes32"
        }
      ],
      "name": "TaskActivated",
      "type": "event"
    },
    {
      "anonymous": false,
      "inputs": [
        {
          "indexed": false,
          "internalType": "bytes32",
          "name": "taskID",
          "type": "bytes32"
        }
      ],
      "name": "TaskCancelled",
      "type": "event"
    },
    {
      "anonymous": false,
      "inputs": [
        {
          "indexed": false,
          "internalType": "bytes32",
          "name": "taskID",
          "type": "bytes32"
        }
      ],
      "name": "TaskCompletedSuccessfully",
      "type": "event"
    },
    {
      "anonymous": false,
      "inputs": [
        {
          "indexed": false,
          "internalType": "bytes32",
          "name": "taskID",
          "type": "bytes32"
        }
      ],
      "name": "TaskCompletedUnsuccessfully",
      "type": "event"
    },
    {
      "anonymous": false,
      "inputs": [
        {
          "indexed": false,
          "internalType": "bytes32",
          "name": "taskID",
          "type": "bytes32"
        }
      ],
      "name": "TaskCreated",
      "type": "event"
    },
    {
      "anonymous": false,
      "inputs": [
        {
          "indexed": false,
          "internalType": "bytes32",
          "name": "taskID",
          "type": "bytes32"
        }
      ],
      "name": "TaskDeleted",
      "type": "event"
    },
    {
      "anonymous": false,
      "inputs": [
        {
          "indexed": false,
          "internalType": "bytes32",
          "name": "taskID",
          "type": "bytes32"
        }
      ],
      "name": "TaskInvalidated",
      "type": "event"
    },
    {
      "anonymous": false,
      "inputs": [
        {
          "indexed": false,
          "internalType": "bytes32",
          "name": "taskID",
          "type": "bytes32"
        }
      ],
      "name": "TaskReceivedResultsSuccessfully",
      "type": "event"
    },
    {
      "anonymous": false,
      "inputs": [
        {
          "indexed": false,
          "internalType": "bytes32",
          "name": "taskID",
          "type": "bytes32"
        }
      ],
      "name": "TaskReceivedResultsUnsuccessfully",
      "type": "event"
    },
    {
      "anonymous": false,
      "inputs": [
        {
          "indexed": false,
          "internalType": "address",
          "name": "client",
          "type": "address"
        },
        {
          "indexed": false,
          "internalType": "uint256",
          "name": "amount",
          "type": "uint256"
        }
      ],
      "name": "TransferMadeToClient",
      "type": "event"
    },
    {
      "anonymous": false,
      "inputs": [
        {
          "indexed": false,
          "internalType": "address",
          "name": "provider",
          "type": "address"
        },
        {
          "indexed": false,
          "internalType": "uint256",
          "name": "amount",
          "type": "uint256"
        }
      ],
      "name": "TransferMadeToProvider",
      "type": "event"
    },
    {
      "stateMutability": "payable",
      "type": "fallback"
    },
    {
      "inputs": [
        {
          "internalType": "bytes32",
          "name": "_taskID",
          "type": "bytes32"
        }
      ],
      "name": "activateTask",
      "outputs": [],
      "stateMutability": "payable",
      "type": "function"
    },
    {
      "inputs": [
        {
          "internalType": "uint256",
          "name": "",
          "type": "uint256"
        }
      ],
      "name": "bytes32_tasks",
      "outputs": [
        {
          "internalType": "bytes32",
          "name": "",
          "type": "bytes32"
        }
      ],
      "stateMutability": "view",
      "type": "function"
    },
    {
      "inputs": [
        {
          "internalType": "bytes32",
          "name": "_taskID",
          "type": "bytes32"
        }
      ],
      "name": "cancelTask",
      "outputs": [],
      "stateMutability": "nonpayable",
      "type": "function"
    },
    {
      "inputs": [
        {
          "internalType": "bytes32",
          "name": "_taskID",
          "type": "bytes32"
        }
      ],
      "name": "completePayment",
      "outputs": [],
      "stateMutability": "payable",
      "type": "function"
    },
    {
      "inputs": [
        {
          "internalType": "bytes32",
          "name": "_taskID",
          "type": "bytes32"
        },
        {
          "internalType": "string",
          "name": "ver",
          "type": "string"
        },
        {
          "internalType": "uint256",
          "name": "_duration",
          "type": "uint256"
        },
        {
          "internalType": "uint256",
          "name": "_timeReceivedProvider",
          "type": "uint256"
        }
      ],
      "name": "completeTask",
      "outputs": [],
      "stateMutability": "nonpayable",
      "type": "function"
    },
    {
      "inputs": [
        {
          "internalType": "bytes32",
          "name": "_taskID",
          "type": "bytes32"
        },
        {
          "internalType": "address payable",
          "name": "_provider",
          "type": "address"
        },
        {
          "internalType": "uint256",
          "name": "_price",
          "type": "uint256"
        },
        {
          "internalType": "uint256",
          "name": "_deadline",
          "type": "uint256"
        },
        {
          "internalType": "bytes32",
          "name": "_clientVerification",
          "type": "bytes32"
        },
        {
          "internalType": "string",
          "name": "_verificationCode",
          "type": "string"
        },
        {
          "internalType": "string",
          "name": "_computationCode",
          "type": "string"
        }
      ],
      "name": "createTask",
      "outputs": [],
      "stateMutability": "payable",
      "type": "function"
    },
    {
      "inputs": [
        {
          "internalType": "bytes32",
          "name": "_taskID",
          "type": "bytes32"
        }
      ],
      "name": "deleteTask",
      "outputs": [],
      "stateMutability": "nonpayable",
      "type": "function"
    },
    {
      "inputs": [],
      "name": "deleteTasks",
      "outputs": [],
      "stateMutability": "nonpayable",
      "type": "function"
    },
    {
      "inputs": [
        {
          "internalType": "bytes32",
          "name": "_taskID",
          "type": "bytes32"
        }
      ],
      "name": "getActivationTime",
      "outputs": [
        {
          "internalType": "uint256",
          "name": "",
          "type": "uint256"
        }
      ],
      "stateMutability": "view",
      "type": "function"
    },
    {
      "inputs": [],
      "name": "getActiveTasks",
      "outputs": [
        {
          "internalType": "uint256",
          "name": "",
          "type": "uint256"
        }
      ],
      "stateMutability": "view",
      "type": "function"
    },
    {
      "inputs": [
        {
          "internalType": "bytes32",
          "name": "_taskID",
          "type": "bytes32"
        }
      ],
      "name": "getComputationCode",
      "outputs": [
        {
          "internalType": "string",
          "name": "",
          "type": "string"
        }
      ],
      "stateMutability": "view",
      "type": "function"
    },
    {
      "inputs": [
        {
          "internalType": "bytes32",
          "name": "_taskID",
          "type": "bytes32"
        }
      ],
      "name": "getCost",
      "outputs": [
        {
          "internalType": "uint256",
          "name": "",
          "type": "uint256"
        }
      ],
      "stateMutability": "view",
      "type": "function"
    },
    {
      "inputs": [
        {
          "internalType": "bytes32",
          "name": "_taskID",
          "type": "bytes32"
        }
      ],
      "name": "getLastUpdateTimestamp",
      "outputs": [
        {
          "internalType": "uint256",
          "name": "",
          "type": "uint256"
        }
      ],
      "stateMutability": "view",
      "type": "function"
    },
    {
      "inputs": [],
      "name": "getOwner",
      "outputs": [
        {
          "internalType": "address",
          "name": "",
          "type": "address"
        }
      ],
      "stateMutability": "view",
      "type": "function"
    },
    {
      "inputs": [
        {
          "internalType": "bytes32",
          "name": "_taskID",
          "type": "bytes32"
        }
      ],
      "name": "getPayment",
      "outputs": [
        {
          "internalType": "uint256",
          "name": "",
          "type": "uint256"
        }
      ],
      "stateMutability": "view",
      "type": "function"
    },
    {
      "inputs": [
        {
          "internalType": "bytes32",
          "name": "_taskID",
          "type": "bytes32"
        }
      ],
      "name": "getPaymentState",
      "outputs": [
        {
          "internalType": "string",
          "name": "",
          "type": "string"
        }
      ],
      "stateMutability": "view",
      "type": "function"
    },
    {
      "inputs": [
        {
          "internalType": "address",
          "name": "provider",
          "type": "address"
        }
      ],
      "name": "getPerformance",
      "outputs": [
        {
          "components": [
            {
              "internalType": "uint256",
              "name": "upVotes",
              "type": "uint256"
            },
            {
              "internalType": "uint256",
              "name": "downVotes",
              "type": "uint256"
            }
          ],
          "internalType": "struct TasksManager.providerRating",
          "name": "",
          "type": "tuple"
        }
      ],
      "stateMutability": "view",
      "type": "function"
    },
    {
      "inputs": [
        {
          "internalType": "bytes32",
          "name": "_taskID",
          "type": "bytes32"
        }
      ],
      "name": "getResults",
      "outputs": [
        {
          "internalType": "string",
          "name": "",
          "type": "string"
        }
      ],
      "stateMutability": "view",
      "type": "function"
    },
    {
      "inputs": [
        {
          "internalType": "bytes32",
          "name": "_taskID",
          "type": "bytes32"
        }
      ],
      "name": "getTask",
      "outputs": [
        {
          "components": [
            {
              "internalType": "address payable",
              "name": "client",
              "type": "address"
            },
            {
              "internalType": "address payable",
              "name": "provider",
              "type": "address"
            },
            {
              "internalType": "uint256",
              "name": "providerCollateral",
              "type": "uint256"
            },
            {
              "internalType": "uint256",
              "name": "clientCollateral",
              "type": "uint256"
            },
            {
              "internalType": "uint256",
              "name": "deadline",
              "type": "uint256"
            },
            {
              "internalType": "uint256",
              "name": "price",
              "type": "uint256"
            },
            {
              "internalType": "uint256",
              "name": "duration",
              "type": "uint256"
            },
            {
              "internalType": "uint256",
              "name": "cost",
              "type": "uint256"
            },
            {
              "internalType": "uint256",
              "name": "activationTime",
              "type": "uint256"
            },
            {
              "internalType": "uint256",
              "name": "timeResultProvided",
              "type": "uint256"
            },
            {
              "internalType": "uint256",
              "name": "timeResultReceived",
              "type": "uint256"
            },
            {
              "internalType": "string",
              "name": "computationCode",
              "type": "string"
            },
            {
              "internalType": "string",
              "name": "verificationCode",
              "type": "string"
            },
            {
              "internalType": "string",
              "name": "results",
              "type": "string"
            },
            {
              "internalType": "bytes32",
              "name": "clientVerification",
              "type": "bytes32"
            },
            {
              "internalType": "uint256",
              "name": "lastUpdateTimestamp",
              "type": "uint256"
            },
            {
              "internalType": "enum TasksManager.TaskState",
              "name": "taskState",
              "type": "uint8"
            },
            {
              "internalType": "enum TasksManager.PaymentState",
              "name": "paymentState",
              "type": "uint8"
            }
          ],
          "internalType": "struct TasksManager.Task",
          "name": "",
          "type": "tuple"
        }
      ],
      "stateMutability": "view",
      "type": "function"
    },
    {
      "inputs": [
        {
          "internalType": "bytes32",
          "name": "_taskID",
          "type": "bytes32"
        }
      ],
      "name": "getTaskState",
      "outputs": [
        {
          "internalType": "string",
          "name": "",
          "type": "string"
        }
      ],
      "stateMutability": "view",
      "type": "function"
    },
    {
      "inputs": [],
      "name": "getTasks",
      "outputs": [
        {
          "internalType": "bytes32[]",
          "name": "",
          "type": "bytes32[]"
        }
      ],
      "stateMutability": "view",
      "type": "function"
    },
    {
      "inputs": [
        {
          "internalType": "bytes32",
          "name": "_taskID",
          "type": "bytes32"
        }
      ],
      "name": "getVerificationCode",
      "outputs": [
        {
          "internalType": "string",
          "name": "",
          "type": "string"
        }
      ],
      "stateMutability": "view",
      "type": "function"
    },
    {
      "inputs": [
        {
          "internalType": "bytes32",
          "name": "_taskID",
          "type": "bytes32"
        }
      ],
      "name": "invalidateTask",
      "outputs": [],
      "stateMutability": "nonpayable",
      "type": "function"
    },
    {
      "inputs": [
        {
          "internalType": "bytes32",
          "name": "_taskID",
          "type": "bytes32"
        }
      ],
      "name": "isRegistered",
      "outputs": [
        {
          "internalType": "bool",
          "name": "",
          "type": "bool"
        }
      ],
      "stateMutability": "view",
      "type": "function"
    },
    {
      "inputs": [
        {
          "internalType": "bytes32",
          "name": "_taskID",
          "type": "bytes32"
        },
        {
          "internalType": "string",
          "name": "_results",
          "type": "string"
        }
      ],
      "name": "sendResults",
      "outputs": [],
      "stateMutability": "nonpayable",
      "type": "function"
    },
    {
      "stateMutability": "payable",
      "type": "receive"
    }
  ],
  "transactionHash": "0xbfc7e3d9a86dea9e8d67fb2c2f69e595b40ea2c5538bab7f956196e0d1d4af2f",
  "args": [],
  "numDeployments": 1,
  "solcInputHash": "cc3fe742b6aa6e7b1ec68a4feae165da",
  "bytecode": "0x60a060405234801561001057600080fd5b503373ffffffffffffffffffffffffffffffffffffffff1660808173ffffffffffffffffffffffffffffffffffffffff1660601b8152505060805160601c615fd5620000a66000396000818161068501528181610771015281816128b401528181612e2d0152818161337b0152818161371301528181613a7601528181613b230152818161400b01526143cf0152615fd56000f3fe60806040526004361061016a5760003560e01c806370970122116100d1578063ab210cc81161008a578063e134a59011610064578063e134a590146105b5578063e64f15a2146105f2578063e66eefc81461061b578063ee8ca3b514610658576101aa565b8063ab210cc814610524578063b353034c14610561578063d75ff4661461059e576101aa565b8063709701221461040a57806370ad197614610447578063784f2c11146104845780638693944d146104a0578063893d20e8146104dd57806392b8332014610508576101aa565b806347ca8a8b1161012357806347ca8a8b1461030b5780634b017c7a14610327578063513a66981461035057806354706b5a146103795780636127f246146103a257806364f9fa80146103cd576101aa565b806304a87e38146101af57806315a29035146101da5780631ecc9aaf1461021757806325f301cb1461025457806327258b221461029157806346475c4c146102ce576101aa565b366101aa576040517f08c379a00000000000000000000000000000000000000000000000000000000081526004016101a190614be1565b60405180910390fd5b600080fd5b3480156101bb57600080fd5b506101c4610681565b6040516101d19190614cc9565b60405180910390f35b3480156101e657600080fd5b5061020160048036038101906101fc9190614d2b565b610767565b60405161020e919061509a565b60405180910390f35b34801561022357600080fd5b5061023e600480360381019061023991906150fa565b610b68565b60405161024b9190615156565b60405180910390f35b34801561026057600080fd5b5061027b60048036038101906102769190614d2b565b610bd5565b60405161028891906151aa565b60405180910390f35b34801561029d57600080fd5b506102b860048036038101906102b39190614d2b565b610c7c565b6040516102c591906151e7565b60405180910390f35b3480156102da57600080fd5b506102f560048036038101906102f09190614d2b565b610cea565b60405161030291906151aa565b60405180910390f35b61032560048036038101906103209190614d2b565b610f50565b005b34801561033357600080fd5b5061034e60048036038101906103499190615337565b6113c2565b005b34801561035c57600080fd5b50610377600480360381019061037291906153bf565b611fd1565b005b34801561038557600080fd5b506103a0600480360381019061039b9190614d2b565b612521565b005b3480156103ae57600080fd5b506103b76128b0565b6040516103c49190615451565b60405180910390f35b3480156103d957600080fd5b506103f460048036038101906103ef9190614d2b565b61294b565b6040516104019190615451565b60405180910390f35b34801561041657600080fd5b50610431600480360381019061042c9190614d2b565b61296a565b60405161043e91906151aa565b60405180910390f35b34801561045357600080fd5b5061046e60048036038101906104699190614d2b565b612a11565b60405161047b9190615451565b60405180910390f35b61049e60048036038101906104999190615498565b612a30565b005b3480156104ac57600080fd5b506104c760048036038101906104c29190614d2b565b612d53565b6040516104d491906151aa565b60405180910390f35b3480156104e957600080fd5b506104f2613377565b6040516104ff9190615581565b60405180910390f35b610522600480360381019061051d9190614d2b565b61339f565b005b34801561053057600080fd5b5061054b60048036038101906105469190614d2b565b613639565b60405161055891906151aa565b60405180910390f35b34801561056d57600080fd5b5061058860048036038101906105839190614d2b565b61399c565b6040516105959190615451565b60405180910390f35b3480156105aa57600080fd5b506105b3613b21565b005b3480156105c157600080fd5b506105dc60048036038101906105d7919061559c565b613fe5565b6040516105e991906155d8565b60405180910390f35b3480156105fe57600080fd5b5061061960048036038101906106149190614d2b565b614009565b005b34801561062757600080fd5b50610642600480360381019061063d9190614d2b565b6142f5565b60405161064f9190615451565b60405180910390f35b34801561066457600080fd5b5061067f600480360381019061067a9190614d2b565b6144d6565b005b60607f000000000000000000000000000000000000000000000000000000000000000073ffffffffffffffffffffffffffffffffffffffff163373ffffffffffffffffffffffffffffffffffffffff1614610711576040517f08c379a000000000000000000000000000000000000000000000000000000000815260040161070890615665565b60405180910390fd5b600180548060200260200160405190810160405280929190818152602001828054801561075d57602002820191906000526020600020905b815481526020019060010190808311610749575b5050505050905090565b61076f6149a9565b7f000000000000000000000000000000000000000000000000000000000000000073ffffffffffffffffffffffffffffffffffffffff163373ffffffffffffffffffffffffffffffffffffffff16146107fd576040517f08c379a00000000000000000000000000000000000000000000000000000000081526004016107f490615665565b60405180910390fd5b600080838152602001908152602001600020604051806102400160405290816000820160009054906101000a900473ffffffffffffffffffffffffffffffffffffffff1673ffffffffffffffffffffffffffffffffffffffff1673ffffffffffffffffffffffffffffffffffffffff1681526020016001820160009054906101000a900473ffffffffffffffffffffffffffffffffffffffff1673ffffffffffffffffffffffffffffffffffffffff1673ffffffffffffffffffffffffffffffffffffffff1681526020016002820154815260200160038201548152602001600482015481526020016005820154815260200160068201548152602001600782015481526020016008820154815260200160098201548152602001600a8201548152602001600b82018054610931906156b4565b80601f016020809104026020016040519081016040528092919081815260200182805461095d906156b4565b80156109aa5780601f1061097f576101008083540402835291602001916109aa565b820191906000526020600020905b81548152906001019060200180831161098d57829003601f168201915b50505050508152602001600c820180546109c3906156b4565b80601f01602080910402602001604051908101604052809291908181526020018280546109ef906156b4565b8015610a3c5780601f10610a1157610100808354040283529160200191610a3c565b820191906000526020600020905b815481529060010190602001808311610a1f57829003601f168201915b50505050508152602001600d82018054610a55906156b4565b80601f0160208091040260200160405190810160405280929190818152602001828054610a81906156b4565b8015610ace5780601f10610aa357610100808354040283529160200191610ace565b820191906000526020600020905b815481529060010190602001808311610ab157829003601f168201915b50505050508152602001600e8201548152602001600f82015481526020016010820160009054906101000a900460ff166007811115610b1057610b0f614e4b565b5b6007811115610b2257610b21614e4b565b5b81526020016010820160019054906101000a900460ff166002811115610b4b57610b4a614e4b565b5b6002811115610b5d57610b5c614e4b565b5b815250509050919050565b610b70614a87565b600260008373ffffffffffffffffffffffffffffffffffffffff1673ffffffffffffffffffffffffffffffffffffffff168152602001908152602001600020604051806040016040529081600082015481526020016001820154815250509050919050565b6060600080838152602001908152602001600020600c018054610bf7906156b4565b80601f0160208091040260200160405190810160405280929190818152602001828054610c23906156b4565b8015610c705780601f10610c4557610100808354040283529160200191610c70565b820191906000526020600020905b815481529060010190602001808311610c5357829003601f168201915b50505050509050919050565b60008073ffffffffffffffffffffffffffffffffffffffff1660008084815260200190815260200160002060000160009054906101000a900473ffffffffffffffffffffffffffffffffffffffff1673ffffffffffffffffffffffffffffffffffffffff1614159050919050565b60608160008082815260200190815260200160002060000160009054906101000a900473ffffffffffffffffffffffffffffffffffffffff1673ffffffffffffffffffffffffffffffffffffffff163373ffffffffffffffffffffffffffffffffffffffff1614610d90576040517f08c379a0000000000000000000000000000000000000000000000000000000008152600401610d8790615758565b60405180910390fd5b826006806007811115610da657610da5614e4b565b5b60008084815260200190815260200160002060100160009054906101000a900460ff166007811115610ddb57610dda614e4b565b5b14610e1b576040517f08c379a0000000000000000000000000000000000000000000000000000000008152600401610e12906157c4565b60405180910390fd5b846002806002811115610e3157610e30614e4b565b5b60008084815260200190815260200160002060100160019054906101000a900460ff166002811115610e6657610e65614e4b565b5b14610ea6576040517f08c379a0000000000000000000000000000000000000000000000000000000008152600401610e9d90615830565b60405180910390fd5b600080888152602001908152602001600020600d018054610ec6906156b4565b80601f0160208091040260200160405190810160405280929190818152602001828054610ef2906156b4565b8015610f3f5780601f10610f1457610100808354040283529160200191610f3f565b820191906000526020600020905b815481529060010190602001808311610f2257829003601f168201915b505050505095505050505050919050565b8060008082815260200190815260200160002060000160009054906101000a900473ffffffffffffffffffffffffffffffffffffffff1673ffffffffffffffffffffffffffffffffffffffff163373ffffffffffffffffffffffffffffffffffffffff1614610ff4576040517f08c379a0000000000000000000000000000000000000000000000000000000008152600401610feb90615758565b60405180910390fd5b81600680600781111561100a57611009614e4b565b5b60008084815260200190815260200160002060100160009054906101000a900460ff16600781111561103f5761103e614e4b565b5b1461107f576040517f08c379a0000000000000000000000000000000000000000000000000000000008152600401611076906157c4565b60405180910390fd5b83600180600281111561109557611094614e4b565b5b60008084815260200190815260200160002060100160019054906101000a900460ff1660028111156110ca576110c9614e4b565b5b1461110a576040517f08c379a000000000000000000000000000000000000000000000000000000000815260040161110190615830565b60405180910390fd5b6000808781526020019081526020016000206003015460008088815260200190815260200160002060070154611140919061587f565b803414611182576040517f08c379a0000000000000000000000000000000000000000000000000000000008152600401611179906158ff565b60405180910390fd5b6001600281111561119657611195614e4b565b5b60008089815260200190815260200160002060100160019054906101000a900460ff1660028111156111cb576111ca614e4b565b5b1461120b576040517f08c379a00000000000000000000000000000000000000000000000000000000081526004016112029061596b565b60405180910390fd5b60008088815260200190815260200160002060010160009054906101000a900473ffffffffffffffffffffffffffffffffffffffff1673ffffffffffffffffffffffffffffffffffffffff166108fc349081150290604051600060405180830381858888f19350505050158015611286573d6000803e3d6000fd5b507f4195fd9cd5f571cf9d14b2376c60201465a986f4a0469cebf0f0ee1d3e2022ab60008089815260200190815260200160002060010160009054906101000a900473ffffffffffffffffffffffffffffffffffffffff166000808a8152602001908152602001600020600301546000808b815260200190815260200160002060070154611314919061587f565b6040516113229291906159ea565b60405180910390a1600260008089815260200190815260200160002060100160016101000a81548160ff0219169083600281111561136357611362614e4b565b5b021790555042600080898152602001908152602001600020600f01819055507ff2baea2668e36a27a898b8c745decb4439ff61ae04d545dcc6954b84bd3e3c42876040516113b191906155d8565b60405180910390a150505050505050565b8160008082815260200190815260200160002060010160009054906101000a900473ffffffffffffffffffffffffffffffffffffffff1673ffffffffffffffffffffffffffffffffffffffff163373ffffffffffffffffffffffffffffffffffffffff1614611466576040517f08c379a000000000000000000000000000000000000000000000000000000000815260040161145d90615a85565b60405180910390fd5b82600380600781111561147c5761147b614e4b565b5b60008084815260200190815260200160002060100160009054906101000a900460ff1660078111156114b1576114b0614e4b565b5b146114f1576040517f08c379a00000000000000000000000000000000000000000000000000000000081526004016114e8906157c4565b60405180910390fd5b84600080600281111561150757611506614e4b565b5b60008084815260200190815260200160002060100160019054906101000a900460ff16600281111561153c5761153b614e4b565b5b1461157c576040517f08c379a000000000000000000000000000000000000000000000000000000000815260040161157390615830565b60405180910390fd5b42600080898152602001908152602001600020600a018190555085600080898152602001908152602001600020600d0190805190602001906115bf929190614aa1565b506115c9876147ae565b15611ce75760008088815260200190815260200160002060030154600080898152602001908152602001600020600701541161193b5760008088815260200190815260200160002060010160009054906101000a900473ffffffffffffffffffffffffffffffffffffffff1673ffffffffffffffffffffffffffffffffffffffff166108fc6000808a8152602001908152602001600020600201546000808b8152602001908152602001600020600701546116849190615aa5565b9081150290604051600060405180830381858888f193505050501580156116af573d6000803e3d6000fd5b507f4195fd9cd5f571cf9d14b2376c60201465a986f4a0469cebf0f0ee1d3e2022ab60008089815260200190815260200160002060010160009054906101000a900473ffffffffffffffffffffffffffffffffffffffff166000808a8152602001908152602001600020600201546000808b81526020019081526020016000206007015461173d9190615aa5565b60405161174b9291906159ea565b60405180910390a160008088815260200190815260200160002060000160009054906101000a900473ffffffffffffffffffffffffffffffffffffffff1673ffffffffffffffffffffffffffffffffffffffff166108fc6000808a8152602001908152602001600020600301546000808b8152602001908152602001600020600701546117d8919061587f565b9081150290604051600060405180830381858888f19350505050158015611803573d6000803e3d6000fd5b507fb56ab0c8ca3c4a2f3256c9dab1834145295ed481d85fd1afde56ff8c7298c3ec60008089815260200190815260200160002060000160009054906101000a900473ffffffffffffffffffffffffffffffffffffffff166000808a8152602001908152602001600020600301546000808b815260200190815260200160002060070154611891919061587f565b60405161189f9291906159ea565b60405180910390a1600260008089815260200190815260200160002060100160016101000a81548160ff021916908360028111156118e0576118df614e4b565b5b021790555042600080898152602001908152602001600020600f01819055507ff2baea2668e36a27a898b8c745decb4439ff61ae04d545dcc6954b84bd3e3c428760405161192e91906155d8565b60405180910390a1611b56565b60008088815260200190815260200160002060010160009054906101000a900473ffffffffffffffffffffffffffffffffffffffff1673ffffffffffffffffffffffffffffffffffffffff166108fc6000808a8152602001908152602001600020600201546000808b8152602001908152602001600020600301546119c09190615aa5565b9081150290604051600060405180830381858888f193505050501580156119eb573d6000803e3d6000fd5b507f4195fd9cd5f571cf9d14b2376c60201465a986f4a0469cebf0f0ee1d3e2022ab60008089815260200190815260200160002060010160009054906101000a900473ffffffffffffffffffffffffffffffffffffffff166000808a8152602001908152602001600020600201546000808b815260200190815260200160002060030154611a799190615aa5565b604051611a879291906159ea565b60405180910390a1600160008089815260200190815260200160002060100160016101000a81548160ff02191690836002811115611ac857611ac7614e4b565b5b021790555042600080898152602001908152602001600020600f01819055507f0e94573b1be2e52f56af2fa73f97395af190b00bf516b0e90356c3619c4cdf7c876000808a8152602001908152602001600020600301546000808b815260200190815260200160002060070154611b3f919061587f565b604051611b4d929190615afb565b60405180910390a15b600660008089815260200190815260200160002060100160006101000a81548160ff02191690836007811115611b8f57611b8e614e4b565b5b021790555042600080898152602001908152602001600020600f01819055507f97393f84209d4b691fab1bc833d0efe882710cb7867c2724b6991eb74567b05c87604051611bdd91906155d8565b60405180910390a16001600260008060008b815260200190815260200160002060010160009054906101000a900473ffffffffffffffffffffffffffffffffffffffff1673ffffffffffffffffffffffffffffffffffffffff1673ffffffffffffffffffffffffffffffffffffffff1681526020019081526020016000206000016000828254611c6d9190615aa5565b925050819055507ff79072e0f370bb188b7c4d34ae8a5c9138b891e5df7cfa7ca412b518d30aaf7560008089815260200190815260200160002060010160009054906101000a900473ffffffffffffffffffffffffffffffffffffffff1688604051611cda929190615b24565b60405180910390a1611fc8565b60008088815260200190815260200160002060000160009054906101000a900473ffffffffffffffffffffffffffffffffffffffff1673ffffffffffffffffffffffffffffffffffffffff166108fc6000808a8152602001908152602001600020600201546000808b815260200190815260200160002060030154611d6c9190615aa5565b9081150290604051600060405180830381858888f19350505050158015611d97573d6000803e3d6000fd5b507fb56ab0c8ca3c4a2f3256c9dab1834145295ed481d85fd1afde56ff8c7298c3ec60008089815260200190815260200160002060000160009054906101000a900473ffffffffffffffffffffffffffffffffffffffff166000808a8152602001908152602001600020600201546000808b815260200190815260200160002060030154611e259190615aa5565b604051611e339291906159ea565b60405180910390a1600760008089815260200190815260200160002060100160006101000a81548160ff02191690836007811115611e7457611e73614e4b565b5b021790555042600080898152602001908152602001600020600f01819055507fa09cb3265c52882b0a36102438c66b242bf2e45c2ebdf91b9448afb52438276087604051611ec291906155d8565b60405180910390a16001600260008060008b815260200190815260200160002060010160009054906101000a900473ffffffffffffffffffffffffffffffffffffffff1673ffffffffffffffffffffffffffffffffffffffff1673ffffffffffffffffffffffffffffffffffffffff1681526020019081526020016000206001016000828254611f529190615aa5565b925050819055507f3fec1177d25f324e1beb970cd60f8b52ef1e47290a72bdb8f62101720f5e492760008089815260200190815260200160002060010160009054906101000a900473ffffffffffffffffffffffffffffffffffffffff1688604051611fbf929190615b24565b60405180910390a15b50505050505050565b8360008082815260200190815260200160002060010160009054906101000a900473ffffffffffffffffffffffffffffffffffffffff1673ffffffffffffffffffffffffffffffffffffffff163373ffffffffffffffffffffffffffffffffffffffff1614612075576040517f08c379a000000000000000000000000000000000000000000000000000000000815260040161206c90615a85565b60405180910390fd5b84600280600781111561208b5761208a614e4b565b5b60008084815260200190815260200160002060100160009054906101000a900460ff1660078111156120c0576120bf614e4b565b5b14612100576040517f08c379a00000000000000000000000000000000000000000000000000000000081526004016120f7906157c4565b60405180910390fd5b8360008089815260200190815260200160002060090181905550846000808981526020019081526020016000206006018190555061213d876148d4565b801561214f575061214e8787614961565b5b1561223757600080888152602001908152602001600020600601546000808981526020019081526020016000206005015461218a9190615b4d565b60008089815260200190815260200160002060070181905550600360008089815260200190815260200160002060100160006101000a81548160ff021916908360078111156121dc576121db614e4b565b5b021790555042600080898152602001908152602001600020600f01819055507f4176d26ab2247b0b92e698330257544613ee9100fad5c65d61aec36a2a877b7d8760405161222a91906155d8565b60405180910390a1612518565b60008088815260200190815260200160002060000160009054906101000a900473ffffffffffffffffffffffffffffffffffffffff1673ffffffffffffffffffffffffffffffffffffffff166108fc6000808a8152602001908152602001600020600201546000808b8152602001908152602001600020600301546122bc9190615aa5565b9081150290604051600060405180830381858888f193505050501580156122e7573d6000803e3d6000fd5b507fb56ab0c8ca3c4a2f3256c9dab1834145295ed481d85fd1afde56ff8c7298c3ec60008089815260200190815260200160002060000160009054906101000a900473ffffffffffffffffffffffffffffffffffffffff166000808a8152602001908152602001600020600201546000808b8152602001908152602001600020600301546123759190615aa5565b6040516123839291906159ea565b60405180910390a16001600260008060008b815260200190815260200160002060010160009054906101000a900473ffffffffffffffffffffffffffffffffffffffff1673ffffffffffffffffffffffffffffffffffffffff1673ffffffffffffffffffffffffffffffffffffffff16815260200190815260200160002060010160008282546124139190615aa5565b925050819055507f3fec1177d25f324e1beb970cd60f8b52ef1e47290a72bdb8f62101720f5e492760008089815260200190815260200160002060010160009054906101000a900473ffffffffffffffffffffffffffffffffffffffff1688604051612480929190615b24565b60405180910390a1600460008089815260200190815260200160002060100160006101000a81548160ff021916908360078111156124c1576124c0614e4b565b5b021790555042600080898152602001908152602001600020600f01819055507f1feb95f113fd9e6280236d043c8da4ca59e052f4783ce6a83f261c1aaa865b178760405161250f91906155d8565b60405180910390a15b50505050505050565b8060008082815260200190815260200160002060000160009054906101000a900473ffffffffffffffffffffffffffffffffffffffff1673ffffffffffffffffffffffffffffffffffffffff163373ffffffffffffffffffffffffffffffffffffffff16146125c5576040517f08c379a00000000000000000000000000000000000000000000000000000000081526004016125bc90615758565b60405180910390fd5b8160028060078111156125db576125da614e4b565b5b60008084815260200190815260200160002060100160009054906101000a900460ff1660078111156126105761260f614e4b565b5b14612650576040517f08c379a0000000000000000000000000000000000000000000000000000000008152600401612647906157c4565b60405180910390fd5b60008085815260200190815260200160002060040154600080868152602001908152602001600020600801546126869190615aa5565b42116126c7576040517f08c379a00000000000000000000000000000000000000000000000000000000081526004016126be90615bf3565b60405180910390fd5b600560008086815260200190815260200160002060100160006101000a81548160ff02191690836007811115612700576126ff614e4b565b5b021790555060008085815260200190815260200160002060000160009054906101000a900473ffffffffffffffffffffffffffffffffffffffff1673ffffffffffffffffffffffffffffffffffffffff166108fc600080878152602001908152602001600020600201546000808881526020019081526020016000206003015461278a9190615aa5565b9081150290604051600060405180830381858888f193505050501580156127b5573d6000803e3d6000fd5b5042600080868152602001908152602001600020600f01819055507fb56ab0c8ca3c4a2f3256c9dab1834145295ed481d85fd1afde56ff8c7298c3ec60008086815260200190815260200160002060000160009054906101000a900473ffffffffffffffffffffffffffffffffffffffff16600080878152602001908152602001600020600201546000808881526020019081526020016000206003015461285d9190615aa5565b60405161286b9291906159ea565b60405180910390a17fa07d0b7132fa6b208a063af8026a29c1fa7ea1f98ffc9682615585318a6b25d6846040516128a291906155d8565b60405180910390a150505050565b60007f000000000000000000000000000000000000000000000000000000000000000073ffffffffffffffffffffffffffffffffffffffff163373ffffffffffffffffffffffffffffffffffffffff1614612940576040517f08c379a000000000000000000000000000000000000000000000000000000000815260040161293790615665565b60405180910390fd5b600180549050905090565b6000806000838152602001908152602001600020600f01549050919050565b6060600080838152602001908152602001600020600b01805461298c906156b4565b80601f01602080910402602001604051908101604052809291908181526020018280546129b8906156b4565b8015612a055780601f106129da57610100808354040283529160200191612a05565b820191906000526020600020905b8154815290600101906020018083116129e857829003601f168201915b50505050509050919050565b6000806000838152602001908152602001600020600801549050919050565b86612a3a81610c7c565b15612a7a576040517f08c379a0000000000000000000000000000000000000000000000000000000008152600401612a7190615c5f565b60405180910390fd5b600286612a879190615b4d565b341015612ac9576040517f08c379a0000000000000000000000000000000000000000000000000000000008152600401612ac090615ccb565b60405180910390fd5b336000808a815260200190815260200160002060000160006101000a81548173ffffffffffffffffffffffffffffffffffffffff021916908373ffffffffffffffffffffffffffffffffffffffff160217905550346000808a815260200190815260200160002060030181905550866000808a815260200190815260200160002060010160006101000a81548173ffffffffffffffffffffffffffffffffffffffff021916908373ffffffffffffffffffffffffffffffffffffffff160217905550600a86612b989190615b4d565b6000808a815260200190815260200160002060020181905550856000808a815260200190815260200160002060050181905550846000808a815260200190815260200160002060040181905550836000808a8152602001908152602001600020600e0181905550826000808a8152602001908152602001600020600c019080519060200190612c28929190614aa1565b50816000808a8152602001908152602001600020600b019080519060200190612c52929190614aa1565b5060008060008a815260200190815260200160002060100160006101000a81548160ff02191690836007811115612c8c57612c8b614e4b565b5b021790555060008060008a815260200190815260200160002060100160016101000a81548160ff02191690836002811115612cca57612cc9614e4b565b5b0217905550426000808a8152602001908152602001600020600f018190555060018890806001815401808255809150506001900390600052602060002001600090919091909150557f1e28175955a872c8252a6e5cf36ac6b318d074eb78b49731e5cb9ddc2d870b6388604051612d4191906155d8565b60405180910390a15050505050505050565b60608160008082815260200190815260200160002060000160009054906101000a900473ffffffffffffffffffffffffffffffffffffffff1673ffffffffffffffffffffffffffffffffffffffff163373ffffffffffffffffffffffffffffffffffffffff161480612e25575060008082815260200190815260200160002060010160009054906101000a900473ffffffffffffffffffffffffffffffffffffffff1673ffffffffffffffffffffffffffffffffffffffff163373ffffffffffffffffffffffffffffffffffffffff16145b80612e7b57507f000000000000000000000000000000000000000000000000000000000000000073ffffffffffffffffffffffffffffffffffffffff163373ffffffffffffffffffffffffffffffffffffffff16145b612eba576040517f08c379a0000000000000000000000000000000000000000000000000000000008152600401612eb190615d5d565b60405180910390fd5b600060405180602001604052806000815250905060006007811115612ee257612ee1614e4b565b5b60008086815260200190815260200160002060100160009054906101000a900460ff166007811115612f1757612f16614e4b565b5b1415612f5a576040518060400160405280600781526020017f4372656174656400000000000000000000000000000000000000000000000000815250905061336d565b60016007811115612f6e57612f6d614e4b565b5b60008086815260200190815260200160002060100160009054906101000a900460ff166007811115612fa357612fa2614e4b565b5b1415612fe6576040518060400160405280600981526020017f43616e63656c6c65640000000000000000000000000000000000000000000000815250905061336c565b60026007811115612ffa57612ff9614e4b565b5b60008086815260200190815260200160002060100160009054906101000a900460ff16600781111561302f5761302e614e4b565b5b1415613072576040518060400160405280600681526020017f4163746976650000000000000000000000000000000000000000000000000000815250905061336b565b6003600781111561308657613085614e4b565b5b60008086815260200190815260200160002060100160009054906101000a900460ff1660078111156130bb576130ba614e4b565b5b14156130fe576040518060400160405280601581526020017f436f6d706c657465645375636365737366756c6c790000000000000000000000815250905061336a565b6004600781111561311257613111614e4b565b5b60008086815260200190815260200160002060100160009054906101000a900460ff16600781111561314757613146614e4b565b5b141561318a576040518060400160405280601781526020017f436f6d706c65746564556e7375636365737366756c6c790000000000000000008152509050613369565b6005600781111561319e5761319d614e4b565b5b60008086815260200190815260200160002060100160009054906101000a900460ff1660078111156131d3576131d2614e4b565b5b1415613216576040518060400160405280600781526020017f496e76616c6964000000000000000000000000000000000000000000000000008152509050613368565b6006600781111561322a57613229614e4b565b5b60008086815260200190815260200160002060100160009054906101000a900460ff16600781111561325f5761325e614e4b565b5b14156132a2576040518060400160405280601b81526020017f526573756c747352656365697665645375636365737366756c6c7900000000008152509050613367565b6007808111156132b5576132b4614e4b565b5b60008086815260200190815260200160002060100160009054906101000a900460ff1660078111156132ea576132e9614e4b565b5b141561332d576040518060400160405280601d81526020017f526573756c74735265636569766564556e7375636365737366756c6c790000008152509050613366565b6040518060400160405280600581526020017f4572726f7200000000000000000000000000000000000000000000000000000081525090505b5b5b5b5b5b5b5b8092505050919050565b60007f0000000000000000000000000000000000000000000000000000000000000000905090565b8060008082815260200190815260200160002060010160009054906101000a900473ffffffffffffffffffffffffffffffffffffffff1673ffffffffffffffffffffffffffffffffffffffff163373ffffffffffffffffffffffffffffffffffffffff1614613443576040517f08c379a000000000000000000000000000000000000000000000000000000000815260040161343a90615a85565b60405180910390fd5b81600080600781111561345957613458614e4b565b5b60008084815260200190815260200160002060100160009054906101000a900460ff16600781111561348e5761348d614e4b565b5b146134ce576040517f08c379a00000000000000000000000000000000000000000000000000000000081526004016134c5906157c4565b60405180910390fd5b836134d881610c7c565b613517576040517f08c379a000000000000000000000000000000000000000000000000000000000815260040161350e90615dc9565b60405180910390fd5b6000808681526020019081526020016000206002015434101561356f576040517f08c379a000000000000000000000000000000000000000000000000000000000815260040161356690615e5b565b60405180910390fd5b42600080878152602001908152602001600020600801819055503460008087815260200190815260200160002060020181905550600260008087815260200190815260200160002060100160006101000a81548160ff021916908360078111156135dc576135db614e4b565b5b021790555042600080878152602001908152602001600020600f01819055507fce708d6b67215419755514077f148edc2ee99fe51d758948ee62feea825d70388560405161362a91906155d8565b60405180910390a15050505050565b60608160008082815260200190815260200160002060000160009054906101000a900473ffffffffffffffffffffffffffffffffffffffff1673ffffffffffffffffffffffffffffffffffffffff163373ffffffffffffffffffffffffffffffffffffffff16148061370b575060008082815260200190815260200160002060010160009054906101000a900473ffffffffffffffffffffffffffffffffffffffff1673ffffffffffffffffffffffffffffffffffffffff163373ffffffffffffffffffffffffffffffffffffffff16145b8061376157507f000000000000000000000000000000000000000000000000000000000000000073ffffffffffffffffffffffffffffffffffffffff163373ffffffffffffffffffffffffffffffffffffffff16145b6137a0576040517f08c379a000000000000000000000000000000000000000000000000000000000815260040161379790615d5d565b60405180910390fd5b6000604051806020016040528060008152509050600060028111156137c8576137c7614e4b565b5b60008086815260200190815260200160002060100160019054906101000a900460ff1660028111156137fd576137fc614e4b565b5b1415613840576040518060400160405280600b81526020017f496e697469616c697a65640000000000000000000000000000000000000000008152509050613992565b6001600281111561385457613853614e4b565b5b60008086815260200190815260200160002060100160019054906101000a900460ff16600281111561388957613888614e4b565b5b14156138cc576040518060400160405280600781526020017f50656e64696e67000000000000000000000000000000000000000000000000008152509050613991565b6002808111156138df576138de614e4b565b5b60008086815260200190815260200160002060100160019054906101000a900460ff16600281111561391457613913614e4b565b5b1415613957576040518060400160405280600981526020017f436f6d706c6574656400000000000000000000000000000000000000000000008152509050613990565b6040518060400160405280600581526020017f4572726f7200000000000000000000000000000000000000000000000000000081525090505b5b5b8092505050919050565b60008160008082815260200190815260200160002060000160009054906101000a900473ffffffffffffffffffffffffffffffffffffffff1673ffffffffffffffffffffffffffffffffffffffff163373ffffffffffffffffffffffffffffffffffffffff161480613a6e575060008082815260200190815260200160002060010160009054906101000a900473ffffffffffffffffffffffffffffffffffffffff1673ffffffffffffffffffffffffffffffffffffffff163373ffffffffffffffffffffffffffffffffffffffff16145b80613ac457507f000000000000000000000000000000000000000000000000000000000000000073ffffffffffffffffffffffffffffffffffffffff163373ffffffffffffffffffffffffffffffffffffffff16145b613b03576040517f08c379a0000000000000000000000000000000000000000000000000000000008152600401613afa90615d5d565b60405180910390fd5b60008084815260200190815260200160002060070154915050919050565b7f000000000000000000000000000000000000000000000000000000000000000073ffffffffffffffffffffffffffffffffffffffff163373ffffffffffffffffffffffffffffffffffffffff1614613baf576040517f08c379a0000000000000000000000000000000000000000000000000000000008152600401613ba690615665565b60405180910390fd5b600060018054905090505b6000811115613fe257600060018083613bd3919061587f565b81548110613be457613be3615e7b565b5b9060005260206000200154905060066007811115613c0557613c04614e4b565b5b60008083815260200190815260200160002060100160009054906101000a900460ff166007811115613c3a57613c39614e4b565b5b148015613c8c5750600280811115613c5557613c54614e4b565b5b60008083815260200190815260200160002060100160019054906101000a900460ff166002811115613c8a57613c89614e4b565b5b145b80613cdc5750600780811115613ca557613ca4614e4b565b5b60008083815260200190815260200160002060100160009054906101000a900460ff166007811115613cda57613cd9614e4b565b5b145b80613d2d575060046007811115613cf657613cf5614e4b565b5b60008083815260200190815260200160002060100160009054906101000a900460ff166007811115613d2b57613d2a614e4b565b5b145b80613d7e575060016007811115613d4757613d46614e4b565b5b60008083815260200190815260200160002060100160009054906101000a900460ff166007811115613d7c57613d7b614e4b565b5b145b80613dcf575060056007811115613d9857613d97614e4b565b5b60008083815260200190815260200160002060100160009054906101000a900460ff166007811115613dcd57613dcc614e4b565b5b145b8015613dfb5750603c600080838152602001908152602001600020600f0154613df89190615aa5565b42115b15613fce57600080828152602001908152602001600020600080820160006101000a81549073ffffffffffffffffffffffffffffffffffffffff02191690556001820160006101000a81549073ffffffffffffffffffffffffffffffffffffffff021916905560028201600090556003820160009055600482016000905560058201600090556006820160009055600782016000905560088201600090556009820160009055600a820160009055600b82016000613eb99190614b27565b600c82016000613ec99190614b27565b600d82016000613ed99190614b27565b600e820160009055600f8201600090556010820160006101000a81549060ff02191690556010820160016101000a81549060ff021916905550506001808080549050613f25919061587f565b81548110613f3657613f35615e7b565b5b906000526020600020015460018084613f4f919061587f565b81548110613f6057613f5f615e7b565b5b90600052602060002001819055506001805480613f8057613f7f615eaa565b5b600190038181906000526020600020016000905590557fa96209878fc4722b56527db6cf4b72ad6bfddb3ad9968f7de1125d02acc9aa1081604051613fc591906155d8565b60405180910390a15b508080613fda90615ed9565b915050613bba565b50565b60018181548110613ff557600080fd5b906000526020600020016000915090505481565b7f000000000000000000000000000000000000000000000000000000000000000073ffffffffffffffffffffffffffffffffffffffff163373ffffffffffffffffffffffffffffffffffffffff1614614097576040517f08c379a000000000000000000000000000000000000000000000000000000000815260040161408e90615665565b60405180910390fd5b806140a181610c7c565b6140e0576040517f08c379a00000000000000000000000000000000000000000000000000000000081526004016140d790615dc9565b60405180910390fd5b600080838152602001908152602001600020600080820160006101000a81549073ffffffffffffffffffffffffffffffffffffffff02191690556001820160006101000a81549073ffffffffffffffffffffffffffffffffffffffff021916905560028201600090556003820160009055600482016000905560058201600090556006820160009055600782016000905560088201600090556009820160009055600a820160009055600b820160006141999190614b27565b600c820160006141a99190614b27565b600d820160006141b99190614b27565b600e820160009055600f8201600090556010820160006101000a81549060ff02191690556010820160016101000a81549060ff0219169055505060005b6001805490508110156142b957826001828154811061421857614217615e7b565b5b906000526020600020015414156142a657600180808054905061423b919061587f565b8154811061424c5761424b615e7b565b5b90600052602060002001546001828154811061426b5761426a615e7b565b5b9060005260206000200181905550600180548061428b5761428a615eaa565b5b600190038181906000526020600020016000905590556142b9565b80806142b190615f03565b9150506141f6565b507fa96209878fc4722b56527db6cf4b72ad6bfddb3ad9968f7de1125d02acc9aa10826040516142e991906155d8565b60405180910390a15050565b60008160008082815260200190815260200160002060000160009054906101000a900473ffffffffffffffffffffffffffffffffffffffff1673ffffffffffffffffffffffffffffffffffffffff163373ffffffffffffffffffffffffffffffffffffffff1614806143c7575060008082815260200190815260200160002060010160009054906101000a900473ffffffffffffffffffffffffffffffffffffffff1673ffffffffffffffffffffffffffffffffffffffff163373ffffffffffffffffffffffffffffffffffffffff16145b8061441d57507f000000000000000000000000000000000000000000000000000000000000000073ffffffffffffffffffffffffffffffffffffffff163373ffffffffffffffffffffffffffffffffffffffff16145b61445c576040517f08c379a000000000000000000000000000000000000000000000000000000000815260040161445390615d5d565b60405180910390fd5b600080848152602001908152602001600020600301546000808581526020019081526020016000206007015411156144cb5760008084815260200190815260200160002060030154600080858152602001908152602001600020600701546144c4919061587f565b91506144d0565b600091505b50919050565b8060008082815260200190815260200160002060000160009054906101000a900473ffffffffffffffffffffffffffffffffffffffff1673ffffffffffffffffffffffffffffffffffffffff163373ffffffffffffffffffffffffffffffffffffffff161461457a576040517f08c379a000000000000000000000000000000000000000000000000000000000815260040161457190615758565b60405180910390fd5b8160008060078111156145905761458f614e4b565b5b60008084815260200190815260200160002060100160009054906101000a900460ff1660078111156145c5576145c4614e4b565b5b14614605576040517f08c379a00000000000000000000000000000000000000000000000000000000081526004016145fc906157c4565b60405180910390fd5b600160008086815260200190815260200160002060100160006101000a81548160ff0219169083600781111561463e5761463d614e4b565b5b021790555060008085815260200190815260200160002060000160009054906101000a900473ffffffffffffffffffffffffffffffffffffffff1673ffffffffffffffffffffffffffffffffffffffff166108fc600080878152602001908152602001600020600301549081150290604051600060405180830381858888f193505050501580156146d3573d6000803e3d6000fd5b5042600080868152602001908152602001600020600f01819055507fb56ab0c8ca3c4a2f3256c9dab1834145295ed481d85fd1afde56ff8c7298c3ec60008086815260200190815260200160002060000160009054906101000a900473ffffffffffffffffffffffffffffffffffffffff16600080878152602001908152602001600020600301546040516147699291906159ea565b60405180910390a17fe1e1d79b8f28d3379fc32f617eaf54dd6bd4071074c77e91134770e04a81d626846040516147a091906155d8565b60405180910390a150505050565b6000610258600080848152602001908152602001600020600901546147d39190615aa5565b600080848152602001908152602001600020600a015411158015614821575060008083815260200190815260200160002060090154600080848152602001908152602001600020600a015410155b80156148775750600080838152602001908152602001600020600601546000808481526020019081526020016000206008015461485e9190615aa5565b600080848152602001908152602001600020600a015410155b80156148cd575060008083815260200190815260200160002060060154600080848152602001908152602001600020600801546148b49190615aa5565b6000808481526020019081526020016000206009015410155b9050919050565b6000806000838152602001908152602001600020600401546000808481526020019081526020016000206008015461490c9190615aa5565b600080848152602001908152602001600020600901541115801561495a5750600080838152602001908152602001600020600401546000808481526020019081526020016000206006015411155b9050919050565b6000816040516020016149749190615f88565b60405160208183030381529060405280519060200120600080858152602001908152602001600020600e015414905092915050565b604051806102400160405280600073ffffffffffffffffffffffffffffffffffffffff168152602001600073ffffffffffffffffffffffffffffffffffffffff168152602001600081526020016000815260200160008152602001600081526020016000815260200160008152602001600081526020016000815260200160008152602001606081526020016060815260200160608152602001600080191681526020016000815260200160006007811115614a6857614a67614e4b565b5b815260200160006002811115614a8157614a80614e4b565b5b81525090565b604051806040016040528060008152602001600081525090565b828054614aad906156b4565b90600052602060002090601f016020900481019282614acf5760008555614b16565b82601f10614ae857805160ff1916838001178555614b16565b82800160010185558215614b16579182015b82811115614b15578251825591602001919060010190614afa565b5b509050614b239190614b67565b5090565b508054614b33906156b4565b6000825580601f10614b455750614b64565b601f016020900490600052602060002090810190614b639190614b67565b5b50565b5b80821115614b80576000816000905550600101614b68565b5090565b600082825260208201905092915050565b7f6261642063616c6c000000000000000000000000000000000000000000000000600082015250565b6000614bcb600883614b84565b9150614bd682614b95565b602082019050919050565b60006020820190508181036000830152614bfa81614bbe565b9050919050565b600081519050919050565b600082825260208201905092915050565b6000819050602082019050919050565b6000819050919050565b614c4081614c2d565b82525050565b6000614c528383614c37565b60208301905092915050565b6000602082019050919050565b6000614c7682614c01565b614c808185614c0c565b9350614c8b83614c1d565b8060005b83811015614cbc578151614ca38882614c46565b9750614cae83614c5e565b925050600181019050614c8f565b5085935050505092915050565b60006020820190508181036000830152614ce38184614c6b565b905092915050565b6000604051905090565b600080fd5b600080fd5b614d0881614c2d565b8114614d1357600080fd5b50565b600081359050614d2581614cff565b92915050565b600060208284031215614d4157614d40614cf5565b5b6000614d4f84828501614d16565b91505092915050565b600073ffffffffffffffffffffffffffffffffffffffff82169050919050565b6000614d8382614d58565b9050919050565b614d9381614d78565b82525050565b6000819050919050565b614dac81614d99565b82525050565b600081519050919050565b600082825260208201905092915050565b60005b83811015614dec578082015181840152602081019050614dd1565b83811115614dfb576000848401525b50505050565b6000601f19601f8301169050919050565b6000614e1d82614db2565b614e278185614dbd565b9350614e37818560208601614dce565b614e4081614e01565b840191505092915050565b7f4e487b7100000000000000000000000000000000000000000000000000000000600052602160045260246000fd5b60088110614e8b57614e8a614e4b565b5b50565b6000819050614e9c82614e7a565b919050565b6000614eac82614e8e565b9050919050565b614ebc81614ea1565b82525050565b60038110614ed357614ed2614e4b565b5b50565b6000819050614ee482614ec2565b919050565b6000614ef482614ed6565b9050919050565b614f0481614ee9565b82525050565b600061024083016000830151614f236000860182614d8a565b506020830151614f366020860182614d8a565b506040830151614f496040860182614da3565b506060830151614f5c6060860182614da3565b506080830151614f6f6080860182614da3565b5060a0830151614f8260a0860182614da3565b5060c0830151614f9560c0860182614da3565b5060e0830151614fa860e0860182614da3565b50610100830151614fbd610100860182614da3565b50610120830151614fd2610120860182614da3565b50610140830151614fe7610140860182614da3565b506101608301518482036101608601526150018282614e12565b91505061018083015184820361018086015261501d8282614e12565b9150506101a08301518482036101a08601526150398282614e12565b9150506101c08301516150506101c0860182614c37565b506101e08301516150656101e0860182614da3565b5061020083015161507a610200860182614eb3565b5061022083015161508f610220860182614efb565b508091505092915050565b600060208201905081810360008301526150b48184614f0a565b905092915050565b60006150c782614d58565b9050919050565b6150d7816150bc565b81146150e257600080fd5b50565b6000813590506150f4816150ce565b92915050565b6000602082840312156151105761510f614cf5565b5b600061511e848285016150e5565b91505092915050565b60408201600082015161513d6000850182614da3565b5060208201516151506020850182614da3565b50505050565b600060408201905061516b6000830184615127565b92915050565b600061517c82614db2565b6151868185614b84565b9350615196818560208601614dce565b61519f81614e01565b840191505092915050565b600060208201905081810360008301526151c48184615171565b905092915050565b60008115159050919050565b6151e1816151cc565b82525050565b60006020820190506151fc60008301846151d8565b92915050565b600080fd5b600080fd5b7f4e487b7100000000000000000000000000000000000000000000000000000000600052604160045260246000fd5b61524482614e01565b810181811067ffffffffffffffff821117156152635761526261520c565b5b80604052505050565b6000615276614ceb565b9050615282828261523b565b919050565b600067ffffffffffffffff8211156152a2576152a161520c565b5b6152ab82614e01565b9050602081019050919050565b82818337600083830152505050565b60006152da6152d584615287565b61526c565b9050828152602081018484840111156152f6576152f5615207565b5b6153018482856152b8565b509392505050565b600082601f83011261531e5761531d615202565b5b813561532e8482602086016152c7565b91505092915050565b6000806040838503121561534e5761534d614cf5565b5b600061535c85828601614d16565b925050602083013567ffffffffffffffff81111561537d5761537c614cfa565b5b61538985828601615309565b9150509250929050565b61539c81614d99565b81146153a757600080fd5b50565b6000813590506153b981615393565b92915050565b600080600080608085870312156153d9576153d8614cf5565b5b60006153e787828801614d16565b945050602085013567ffffffffffffffff81111561540857615407614cfa565b5b61541487828801615309565b9350506040615425878288016153aa565b9250506060615436878288016153aa565b91505092959194509250565b61544b81614d99565b82525050565b60006020820190506154666000830184615442565b92915050565b61547581614d78565b811461548057600080fd5b50565b6000813590506154928161546c565b92915050565b600080600080600080600060e0888a0312156154b7576154b6614cf5565b5b60006154c58a828b01614d16565b97505060206154d68a828b01615483565b96505060406154e78a828b016153aa565b95505060606154f88a828b016153aa565b94505060806155098a828b01614d16565b93505060a088013567ffffffffffffffff81111561552a57615529614cfa565b5b6155368a828b01615309565b92505060c088013567ffffffffffffffff81111561555757615556614cfa565b5b6155638a828b01615309565b91505092959891949750929550565b61557b816150bc565b82525050565b60006020820190506155966000830184615572565b92915050565b6000602082840312156155b2576155b1614cf5565b5b60006155c0848285016153aa565b91505092915050565b6155d281614c2d565b82525050565b60006020820190506155ed60008301846155c9565b92915050565b7f4d6574686f642063616e2062652063616c6c6564206f6e6c79206279206f776e60008201527f65722e0000000000000000000000000000000000000000000000000000000000602082015250565b600061564f602383614b84565b915061565a826155f3565b604082019050919050565b6000602082019050818103600083015261567e81615642565b9050919050565b7f4e487b7100000000000000000000000000000000000000000000000000000000600052602260045260246000fd5b600060028204905060018216806156cc57607f821691505b602082108114156156e0576156df615685565b5b50919050565b7f4d6574686f642063616e2062652063616c6c6564206f6e6c7920627920636c6960008201527f656e742e00000000000000000000000000000000000000000000000000000000602082015250565b6000615742602483614b84565b915061574d826156e6565b604082019050919050565b6000602082019050818103600083015261577181615735565b9050919050565b7f496e76616c6964205461736b53746174652e0000000000000000000000000000600082015250565b60006157ae601283614b84565b91506157b982615778565b602082019050919050565b600060208201905081810360008301526157dd816157a1565b9050919050565b7f496e76616c6964205061796d656e7453746174652e0000000000000000000000600082015250565b600061581a601583614b84565b9150615825826157e4565b602082019050919050565b600060208201905081810360008301526158498161580d565b9050919050565b7f4e487b7100000000000000000000000000000000000000000000000000000000600052601160045260246000fd5b600061588a82614d99565b915061589583614d99565b9250828210156158a8576158a7615850565b5b828203905092915050565b7f56616c75652073656e74206973206e6f74207468652065787065637465640000600082015250565b60006158e9601e83614b84565b91506158f4826158b3565b602082019050919050565b60006020820190508181036000830152615918816158dc565b9050919050565b7f5061796d656e74206e6f74206e65656465640000000000000000000000000000600082015250565b6000615955601283614b84565b91506159608261591f565b602082019050919050565b6000602082019050818103600083015261598481615948565b9050919050565b6000819050919050565b60006159b06159ab6159a684614d58565b61598b565b614d58565b9050919050565b60006159c282615995565b9050919050565b60006159d4826159b7565b9050919050565b6159e4816159c9565b82525050565b60006040820190506159ff60008301856159db565b615a0c6020830184615442565b9392505050565b7f4d6574686f642063616e2062652063616c6c6564206f6e6c792062792070726f60008201527f76696465722e0000000000000000000000000000000000000000000000000000602082015250565b6000615a6f602683614b84565b9150615a7a82615a13565b604082019050919050565b60006020820190508181036000830152615a9e81615a62565b9050919050565b6000615ab082614d99565b9150615abb83614d99565b9250827fffffffffffffffffffffffffffffffffffffffffffffffffffffffffffffffff03821115615af057615aef615850565b5b828201905092915050565b6000604082019050615b1060008301856155c9565b615b1d6020830184615442565b9392505050565b6000604082019050615b3960008301856159db565b615b4660208301846155c9565b9392505050565b6000615b5882614d99565b9150615b6383614d99565b9250817fffffffffffffffffffffffffffffffffffffffffffffffffffffffffffffffff0483118215151615615b9c57615b9b615850565b5b828202905092915050565b7f54696d6520686173206e6f7420657870697265642e0000000000000000000000600082015250565b6000615bdd601583614b84565b9150615be882615ba7565b602082019050919050565b60006020820190508181036000830152615c0c81615bd0565b9050919050565b7f5461736b20616c72656164792065786973747300000000000000000000000000600082015250565b6000615c49601383614b84565b9150615c5482615c13565b602082019050919050565b60006020820190508181036000830152615c7881615c3c565b9050919050565b7f436c69656e7420636f6c6c61746572616c206973206e6f7420656e6f75676800600082015250565b6000615cb5601f83614b84565b9150615cc082615c7f565b602082019050919050565b60006020820190508181036000830152615ce481615ca8565b9050919050565b7f4d6574686f642063616e2062652063616c6c6564206f6e6c7920627920636c6960008201527f656e742c2070726f7669646572206f7220746865206f776e65722e0000000000602082015250565b6000615d47603b83614b84565b9150615d5282615ceb565b604082019050919050565b60006020820190508181036000830152615d7681615d3a565b9050919050565b7f5461736b206d7573742062652072656769737465726564000000000000000000600082015250565b6000615db3601783614b84565b9150615dbe82615d7d565b602082019050919050565b60006020820190508181036000830152615de281615da6565b9050919050565b7f50726f766964657220636f6c6c61746572616c206973206e6f7420656e6f756760008201527f6800000000000000000000000000000000000000000000000000000000000000602082015250565b6000615e45602183614b84565b9150615e5082615de9565b604082019050919050565b60006020820190508181036000830152615e7481615e38565b9050919050565b7f4e487b7100000000000000000000000000000000000000000000000000000000600052603260045260246000fd5b7f4e487b7100000000000000000000000000000000000000000000000000000000600052603160045260246000fd5b6000615ee482614d99565b91506000821415615ef857615ef7615850565b5b600182039050919050565b6000615f0e82614d99565b91507fffffffffffffffffffffffffffffffffffffffffffffffffffffffffffffffff821415615f4157615f40615850565b5b600182019050919050565b600081905092915050565b6000615f6282614db2565b615f6c8185615f4c565b9350615f7c818560208601614dce565b80840191505092915050565b6000615f948284615f57565b91508190509291505056fea2646970667358221220dccb8e48777877d7d44b950912140b671cc1c827075f096475f8e2d2fd81a12d64736f6c63430008080033",
  "devdoc": {
    "kind": "dev",
    "methods": {},
    "version": 1
  },
  "userdoc": {
    "kind": "user",
    "methods": {},
    "version": 1
  },
  "storageLayout": {
    "storage": [
      {
        "astId": 65,
        "contract": "contracts/TasksManager.sol:TasksManager",
        "label": "tasks",
        "offset": 0,
        "slot": "0",
        "type": "t_mapping(t_bytes32,t_struct(Task)55_storage)"
      },
      {
        "astId": 68,
        "contract": "contracts/TasksManager.sol:TasksManager",
        "label": "bytes32_tasks",
        "offset": 0,
        "slot": "1",
        "type": "t_array(t_bytes32)dyn_storage"
      },
      {
        "astId": 73,
        "contract": "contracts/TasksManager.sol:TasksManager",
        "label": "performance",
        "offset": 0,
        "slot": "2",
        "type": "t_mapping(t_address,t_struct(providerRating)60_storage)"
      }
    ],
    "types": {
      "t_address": {
        "encoding": "inplace",
        "label": "address",
        "numberOfBytes": "20"
      },
      "t_address_payable": {
        "encoding": "inplace",
        "label": "address payable",
        "numberOfBytes": "20"
      },
      "t_array(t_bytes32)dyn_storage": {
        "base": "t_bytes32",
        "encoding": "dynamic_array",
        "label": "bytes32[]",
        "numberOfBytes": "32"
      },
      "t_bytes32": {
        "encoding": "inplace",
        "label": "bytes32",
        "numberOfBytes": "32"
      },
      "t_enum(PaymentState)16": {
        "encoding": "inplace",
        "label": "enum TasksManager.PaymentState",
        "numberOfBytes": "1"
      },
      "t_enum(TaskState)12": {
        "encoding": "inplace",
        "label": "enum TasksManager.TaskState",
        "numberOfBytes": "1"
      },
      "t_mapping(t_address,t_struct(providerRating)60_storage)": {
        "encoding": "mapping",
        "key": "t_address",
        "label": "mapping(address => struct TasksManager.providerRating)",
        "numberOfBytes": "32",
        "value": "t_struct(providerRating)60_storage"
      },
      "t_mapping(t_bytes32,t_struct(Task)55_storage)": {
        "encoding": "mapping",
        "key": "t_bytes32",
        "label": "mapping(bytes32 => struct TasksManager.Task)",
        "numberOfBytes": "32",
        "value": "t_struct(Task)55_storage"
      },
      "t_string_storage": {
        "encoding": "bytes",
        "label": "string",
        "numberOfBytes": "32"
      },
      "t_struct(Task)55_storage": {
        "encoding": "inplace",
        "label": "struct TasksManager.Task",
        "members": [
          {
            "astId": 18,
            "contract": "contracts/TasksManager.sol:TasksManager",
            "label": "client",
            "offset": 0,
            "slot": "0",
            "type": "t_address_payable"
          },
          {
            "astId": 20,
            "contract": "contracts/TasksManager.sol:TasksManager",
            "label": "provider",
            "offset": 0,
            "slot": "1",
            "type": "t_address_payable"
          },
          {
            "astId": 22,
            "contract": "contracts/TasksManager.sol:TasksManager",
            "label": "providerCollateral",
            "offset": 0,
            "slot": "2",
            "type": "t_uint256"
          },
          {
            "astId": 24,
            "contract": "contracts/TasksManager.sol:TasksManager",
            "label": "clientCollateral",
            "offset": 0,
            "slot": "3",
            "type": "t_uint256"
          },
          {
            "astId": 26,
            "contract": "contracts/TasksManager.sol:TasksManager",
            "label": "deadline",
            "offset": 0,
            "slot": "4",
            "type": "t_uint256"
          },
          {
            "astId": 28,
            "contract": "contracts/TasksManager.sol:TasksManager",
            "label": "price",
            "offset": 0,
            "slot": "5",
            "type": "t_uint256"
          },
          {
            "astId": 30,
            "contract": "contracts/TasksManager.sol:TasksManager",
            "label": "duration",
            "offset": 0,
            "slot": "6",
            "type": "t_uint256"
          },
          {
            "astId": 32,
            "contract": "contracts/TasksManager.sol:TasksManager",
            "label": "cost",
            "offset": 0,
            "slot": "7",
            "type": "t_uint256"
          },
          {
            "astId": 34,
            "contract": "contracts/TasksManager.sol:TasksManager",
            "label": "activationTime",
            "offset": 0,
            "slot": "8",
            "type": "t_uint256"
          },
          {
            "astId": 36,
            "contract": "contracts/TasksManager.sol:TasksManager",
            "label": "timeResultProvided",
            "offset": 0,
            "slot": "9",
            "type": "t_uint256"
          },
          {
            "astId": 38,
            "contract": "contracts/TasksManager.sol:TasksManager",
            "label": "timeResultReceived",
            "offset": 0,
            "slot": "10",
            "type": "t_uint256"
          },
          {
            "astId": 40,
            "contract": "contracts/TasksManager.sol:TasksManager",
            "label": "computationCode",
            "offset": 0,
            "slot": "11",
            "type": "t_string_storage"
          },
          {
            "astId": 42,
            "contract": "contracts/TasksManager.sol:TasksManager",
            "label": "verificationCode",
            "offset": 0,
            "slot": "12",
            "type": "t_string_storage"
          },
          {
            "astId": 44,
            "contract": "contracts/TasksManager.sol:TasksManager",
            "label": "results",
            "offset": 0,
            "slot": "13",
            "type": "t_string_storage"
          },
          {
            "astId": 46,
            "contract": "contracts/TasksManager.sol:TasksManager",
            "label": "clientVerification",
            "offset": 0,
            "slot": "14",
            "type": "t_bytes32"
          },
          {
            "astId": 48,
            "contract": "contracts/TasksManager.sol:TasksManager",
            "label": "lastUpdateTimestamp",
            "offset": 0,
            "slot": "15",
            "type": "t_uint256"
          },
          {
            "astId": 51,
            "contract": "contracts/TasksManager.sol:TasksManager",
            "label": "taskState",
            "offset": 0,
            "slot": "16",
            "type": "t_enum(TaskState)12"
          },
          {
            "astId": 54,
            "contract": "contracts/TasksManager.sol:TasksManager",
            "label": "paymentState",
            "offset": 1,
            "slot": "16",
            "type": "t_enum(PaymentState)16"
          }
        ],
        "numberOfBytes": "544"
      },
      "t_struct(providerRating)60_storage": {
        "encoding": "inplace",
        "label": "struct TasksManager.providerRating",
        "members": [
          {
            "astId": 57,
            "contract": "contracts/TasksManager.sol:TasksManager",
            "label": "upVotes",
            "offset": 0,
            "slot": "0",
            "type": "t_uint256"
          },
          {
            "astId": 59,
            "contract": "contracts/TasksManager.sol:TasksManager",
            "label": "downVotes",
            "offset": 0,
            "slot": "1",
            "type": "t_uint256"
          }
        ],
        "numberOfBytes": "64"
      },
      "t_uint256": {
        "encoding": "inplace",
        "label": "uint256",
        "numberOfBytes": "32"
      }
    }
  }
}