{
  "address": "0x5FbDB2315678afecb367f032d93F642f64180aa3",
  "abi": [
    {
      "inputs": [],
      "stateMutability": "nonpayable",
      "type": "constructor"
    },
    {
      "inputs": [],
      "name": "AuctionsManagerNotSet",
      "type": "error"
    },
    {
      "inputs": [],
      "name": "NotCalledByAuction",
      "type": "error"
    },
    {
      "inputs": [],
      "name": "NotCalledByClient",
      "type": "error"
    },
    {
      "inputs": [],
      "name": "NotCalledByOwner",
      "type": "error"
    },
    {
      "inputs": [],
      "name": "NotCalledByProvider",
      "type": "error"
    },
    {
      "inputs": [
        {
          "internalType": "uint256",
          "name": "correctValue",
          "type": "uint256"
        },
        {
          "internalType": "uint256",
          "name": "receivedValue",
          "type": "uint256"
        }
      ],
      "name": "NotCorrectValue",
      "type": "error"
    },
    {
      "inputs": [
        {
          "internalType": "enum TasksManager.PaymentState",
          "name": "paymentState",
          "type": "uint8"
        }
      ],
      "name": "PaymentNotInState",
      "type": "error"
    },
    {
      "inputs": [],
      "name": "TaskAlreadyExists",
      "type": "error"
    },
    {
      "inputs": [],
      "name": "TaskDoesNotExist",
      "type": "error"
    },
    {
      "inputs": [
        {
          "internalType": "enum TasksManager.TaskState",
          "name": "taskState",
          "type": "uint8"
        }
      ],
      "name": "TaskNotInState",
      "type": "error"
    },
    {
      "anonymous": false,
      "inputs": [
        {
          "indexed": false,
          "internalType": "address",
          "name": "client",
          "type": "address"
        },
        {
          "indexed": false,
          "internalType": "bytes32",
          "name": "taskID",
          "type": "bytes32"
        }
      ],
      "name": "ClientDownvoted",
      "type": "event"
    },
    {
      "anonymous": false,
      "inputs": [
        {
          "indexed": false,
          "internalType": "address",
          "name": "client",
          "type": "address"
        },
        {
          "indexed": false,
          "internalType": "bytes32",
          "name": "taskID",
          "type": "bytes32"
        }
      ],
      "name": "ClientUpvoted",
      "type": "event"
    },
    {
      "anonymous": false,
      "inputs": [
        {
          "indexed": false,
          "internalType": "bytes32",
          "name": "taskID",
          "type": "bytes32"
        },
        {
          "indexed": false,
          "internalType": "address",
          "name": "client",
          "type": "address"
        },
        {
          "indexed": false,
          "internalType": "address",
          "name": "provider",
          "type": "address"
        }
      ],
      "name": "PaymentCompleted",
      "type": "event"
    },
    {
      "anonymous": false,
      "inputs": [
        {
          "indexed": false,
          "internalType": "bytes32",
          "name": "taskID",
          "type": "bytes32"
        },
        {
          "indexed": false,
          "internalType": "address",
          "name": "client",
          "type": "address"
        },
        {
          "indexed": false,
          "internalType": "address",
          "name": "provider",
          "type": "address"
        },
        {
          "indexed": false,
          "internalType": "uint256",
          "name": "payment",
          "type": "uint256"
        }
      ],
      "name": "PaymentPending",
      "type": "event"
    },
    {
      "anonymous": false,
      "inputs": [
        {
          "indexed": false,
          "internalType": "address",
          "name": "provider",
          "type": "address"
        },
        {
          "indexed": false,
          "internalType": "bytes32",
          "name": "taskID",
          "type": "bytes32"
        }
      ],
      "name": "ProviderDownvoted",
      "type": "event"
    },
    {
      "anonymous": false,
      "inputs": [
        {
          "indexed": false,
          "internalType": "address",
          "name": "provider",
          "type": "address"
        },
        {
          "indexed": false,
          "internalType": "bytes32",
          "name": "taskID",
          "type": "bytes32"
        }
      ],
      "name": "ProviderUpvoted",
      "type": "event"
    },
    {
      "anonymous": false,
      "inputs": [
        {
          "indexed": false,
          "internalType": "bytes32",
          "name": "taskID",
          "type": "bytes32"
        },
        {
          "indexed": false,
          "internalType": "address",
          "name": "client",
          "type": "address"
        },
        {
          "indexed": false,
          "internalType": "address",
          "name": "provider",
          "type": "address"
        }
      ],
      "name": "TaskActivated",
      "type": "event"
    },
    {
      "anonymous": false,
      "inputs": [
        {
          "indexed": false,
          "internalType": "bytes32",
          "name": "taskID",
          "type": "bytes32"
        },
        {
          "indexed": false,
          "internalType": "address",
          "name": "client",
          "type": "address"
        },
        {
          "indexed": false,
          "internalType": "address",
          "name": "provider",
          "type": "address"
        }
      ],
      "name": "TaskCancelled",
      "type": "event"
    },
    {
      "anonymous": false,
      "inputs": [
        {
          "indexed": false,
          "internalType": "bytes32",
          "name": "taskID",
          "type": "bytes32"
        },
        {
          "indexed": false,
          "internalType": "address",
          "name": "client",
          "type": "address"
        },
        {
          "indexed": false,
          "internalType": "address",
          "name": "provider",
          "type": "address"
        }
      ],
      "name": "TaskCompletedSuccessfully",
      "type": "event"
    },
    {
      "anonymous": false,
      "inputs": [
        {
          "indexed": false,
          "internalType": "bytes32",
          "name": "taskID",
          "type": "bytes32"
        },
        {
          "indexed": false,
          "internalType": "address",
          "name": "client",
          "type": "address"
        },
        {
          "indexed": false,
          "internalType": "address",
          "name": "provider",
          "type": "address"
        }
      ],
      "name": "TaskCompletedUnsuccessfully",
      "type": "event"
    },
    {
      "anonymous": false,
      "inputs": [
        {
          "indexed": false,
          "internalType": "bytes32",
          "name": "taskID",
          "type": "bytes32"
        },
        {
          "indexed": false,
          "internalType": "address",
          "name": "client",
          "type": "address"
        },
        {
          "indexed": false,
          "internalType": "address",
          "name": "provider",
          "type": "address"
        }
      ],
      "name": "TaskCreated",
      "type": "event"
    },
    {
      "anonymous": false,
      "inputs": [
        {
          "indexed": false,
          "internalType": "bytes32",
          "name": "taskID",
          "type": "bytes32"
        },
        {
          "indexed": false,
          "internalType": "address",
          "name": "client",
          "type": "address"
        },
        {
          "indexed": false,
          "internalType": "address",
          "name": "provider",
          "type": "address"
        }
      ],
      "name": "TaskInvalidated",
      "type": "event"
    },
    {
      "anonymous": false,
      "inputs": [
        {
          "indexed": false,
          "internalType": "bytes32",
          "name": "taskID",
          "type": "bytes32"
        },
        {
          "indexed": false,
          "internalType": "address",
          "name": "client",
          "type": "address"
        },
        {
          "indexed": false,
          "internalType": "address",
          "name": "provider",
          "type": "address"
        }
      ],
      "name": "TaskReceivedResultsSuccessfully",
      "type": "event"
    },
    {
      "anonymous": false,
      "inputs": [
        {
          "indexed": false,
          "internalType": "bytes32",
          "name": "taskID",
          "type": "bytes32"
        },
        {
          "indexed": false,
          "internalType": "address",
          "name": "client",
          "type": "address"
        },
        {
          "indexed": false,
          "internalType": "address",
          "name": "provider",
          "type": "address"
        }
      ],
      "name": "TaskReceivedResultsUnsuccessfully",
      "type": "event"
    },
    {
      "anonymous": false,
      "inputs": [
        {
          "indexed": false,
          "internalType": "address",
          "name": "client",
          "type": "address"
        },
        {
          "indexed": false,
          "internalType": "uint256",
          "name": "amount",
          "type": "uint256"
        }
      ],
      "name": "TransferMadeToClient",
      "type": "event"
    },
    {
      "anonymous": false,
      "inputs": [
        {
          "indexed": false,
          "internalType": "address",
          "name": "provider",
          "type": "address"
        },
        {
          "indexed": false,
          "internalType": "uint256",
          "name": "amount",
          "type": "uint256"
        }
      ],
      "name": "TransferMadeToProvider",
      "type": "event"
    },
    {
      "stateMutability": "payable",
      "type": "fallback"
    },
    {
      "inputs": [
        {
          "internalType": "bytes32",
          "name": "_taskID",
          "type": "bytes32"
        }
      ],
      "name": "activateTask",
      "outputs": [],
      "stateMutability": "payable",
      "type": "function"
    },
    {
      "inputs": [
        {
          "internalType": "bytes32",
          "name": "_taskID",
          "type": "bytes32"
        }
      ],
      "name": "cancelTask",
      "outputs": [],
      "stateMutability": "nonpayable",
      "type": "function"
    },
    {
      "inputs": [
        {
          "internalType": "bytes32",
          "name": "_taskID",
          "type": "bytes32"
        }
      ],
      "name": "completePayment",
      "outputs": [],
      "stateMutability": "payable",
      "type": "function"
    },
    {
      "inputs": [
        {
          "internalType": "bytes32",
          "name": "_taskID",
          "type": "bytes32"
        },
        {
          "internalType": "string",
          "name": "ver",
          "type": "string"
        },
        {
          "internalType": "uint256",
          "name": "_duration",
          "type": "uint256"
        },
        {
          "internalType": "uint256",
          "name": "_timeReceivedProvider",
          "type": "uint256"
        }
      ],
      "name": "completeTask",
      "outputs": [],
      "stateMutability": "nonpayable",
      "type": "function"
    },
    {
      "inputs": [
        {
          "internalType": "bytes32",
          "name": "_taskID",
          "type": "bytes32"
        },
        {
          "internalType": "address",
          "name": "_client",
          "type": "address"
        },
        {
          "internalType": "address",
          "name": "_provider",
          "type": "address"
        },
        {
          "internalType": "uint256",
          "name": "_price",
          "type": "uint256"
        },
        {
          "internalType": "uint256",
          "name": "_deadline",
          "type": "uint256"
        },
        {
          "internalType": "bytes32",
          "name": "_clientVerification",
          "type": "bytes32"
        },
        {
          "internalType": "string",
          "name": "_code",
          "type": "string"
        }
      ],
      "name": "createTask",
      "outputs": [],
      "stateMutability": "payable",
      "type": "function"
    },
    {
      "inputs": [],
      "name": "getAuctionAddress",
      "outputs": [
        {
          "internalType": "address",
          "name": "",
          "type": "address"
        }
      ],
      "stateMutability": "view",
      "type": "function"
    },
    {
      "inputs": [],
      "name": "getBank",
      "outputs": [
        {
          "internalType": "uint256",
          "name": "",
          "type": "uint256"
        }
      ],
      "stateMutability": "view",
      "type": "function"
    },
    {
      "inputs": [
        {
          "internalType": "bytes32",
          "name": "_taskID",
          "type": "bytes32"
        }
      ],
      "name": "getClientCollateral",
      "outputs": [
        {
          "internalType": "uint256",
          "name": "",
          "type": "uint256"
        }
      ],
      "stateMutability": "view",
      "type": "function"
    },
    {
      "inputs": [
        {
          "internalType": "address",
          "name": "client",
          "type": "address"
        }
      ],
      "name": "getClientPerformance",
      "outputs": [
        {
          "components": [
            {
              "internalType": "uint256",
              "name": "upVotes",
              "type": "uint256"
            },
            {
              "internalType": "uint256",
              "name": "downVotes",
              "type": "uint256"
            }
          ],
          "internalType": "struct TasksManager.clientRating",
          "name": "",
          "type": "tuple"
        }
      ],
      "stateMutability": "view",
      "type": "function"
    },
    {
      "inputs": [
        {
          "internalType": "bytes32",
          "name": "_taskID",
          "type": "bytes32"
        }
      ],
      "name": "getCode",
      "outputs": [
        {
          "internalType": "string",
          "name": "",
          "type": "string"
        }
      ],
      "stateMutability": "view",
      "type": "function"
    },
    {
      "inputs": [],
      "name": "getOwner",
      "outputs": [
        {
          "internalType": "address",
          "name": "",
          "type": "address"
        }
      ],
      "stateMutability": "view",
      "type": "function"
    },
    {
      "inputs": [
        {
          "internalType": "bytes32",
          "name": "_taskID",
          "type": "bytes32"
        }
      ],
      "name": "getProviderCollateral",
      "outputs": [
        {
          "internalType": "uint256",
          "name": "",
          "type": "uint256"
        }
      ],
      "stateMutability": "view",
      "type": "function"
    },
    {
      "inputs": [
        {
          "internalType": "address",
          "name": "provider",
          "type": "address"
        }
      ],
      "name": "getProviderPerformance",
      "outputs": [
        {
          "components": [
            {
              "internalType": "uint256",
              "name": "upVotes",
              "type": "uint256"
            },
            {
              "internalType": "uint256",
              "name": "downVotes",
              "type": "uint256"
            }
          ],
          "internalType": "struct TasksManager.providerRating",
          "name": "",
          "type": "tuple"
        }
      ],
      "stateMutability": "view",
      "type": "function"
    },
    {
      "inputs": [
        {
          "internalType": "bytes32",
          "name": "_taskID",
          "type": "bytes32"
        }
      ],
      "name": "getResults",
      "outputs": [
        {
          "internalType": "string",
          "name": "",
          "type": "string"
        }
      ],
      "stateMutability": "view",
      "type": "function"
    },
    {
      "inputs": [],
      "name": "getTasks",
      "outputs": [
        {
          "components": [
            {
              "internalType": "bytes32",
              "name": "taskID",
              "type": "bytes32"
            },
            {
              "internalType": "address payable",
              "name": "client",
              "type": "address"
            },
            {
              "internalType": "address payable",
              "name": "provider",
              "type": "address"
            },
            {
              "internalType": "uint256",
              "name": "deadline",
              "type": "uint256"
            },
            {
              "internalType": "uint256",
              "name": "price",
              "type": "uint256"
            },
            {
              "internalType": "uint256",
              "name": "duration",
              "type": "uint256"
            },
            {
              "internalType": "uint256",
              "name": "activationTime",
              "type": "uint256"
            },
            {
              "internalType": "uint256",
              "name": "completionTime",
              "type": "uint256"
            },
            {
              "internalType": "string",
              "name": "code",
              "type": "string"
            },
            {
              "internalType": "string",
              "name": "results",
              "type": "string"
            },
            {
              "internalType": "bytes32",
              "name": "clientVerification",
              "type": "bytes32"
            },
            {
              "internalType": "enum TasksManager.TaskState",
              "name": "taskState",
              "type": "uint8"
            },
            {
              "internalType": "enum TasksManager.PaymentState",
              "name": "paymentState",
              "type": "uint8"
            }
          ],
          "internalType": "struct TasksManager.Task[]",
          "name": "",
          "type": "tuple[]"
        }
      ],
      "stateMutability": "view",
      "type": "function"
    },
    {
      "inputs": [],
      "name": "getTasksByClient",
      "outputs": [
        {
          "components": [
            {
              "internalType": "bytes32",
              "name": "taskID",
              "type": "bytes32"
            },
            {
              "internalType": "address payable",
              "name": "client",
              "type": "address"
            },
            {
              "internalType": "address payable",
              "name": "provider",
              "type": "address"
            },
            {
              "internalType": "uint256",
              "name": "deadline",
              "type": "uint256"
            },
            {
              "internalType": "uint256",
              "name": "price",
              "type": "uint256"
            },
            {
              "internalType": "uint256",
              "name": "duration",
              "type": "uint256"
            },
            {
              "internalType": "uint256",
              "name": "activationTime",
              "type": "uint256"
            },
            {
              "internalType": "uint256",
              "name": "completionTime",
              "type": "uint256"
            },
            {
              "internalType": "string",
              "name": "code",
              "type": "string"
            },
            {
              "internalType": "string",
              "name": "results",
              "type": "string"
            },
            {
              "internalType": "bytes32",
              "name": "clientVerification",
              "type": "bytes32"
            },
            {
              "internalType": "enum TasksManager.TaskState",
              "name": "taskState",
              "type": "uint8"
            },
            {
              "internalType": "enum TasksManager.PaymentState",
              "name": "paymentState",
              "type": "uint8"
            }
          ],
          "internalType": "struct TasksManager.Task[]",
          "name": "",
          "type": "tuple[]"
        }
      ],
      "stateMutability": "view",
      "type": "function"
    },
    {
      "inputs": [],
      "name": "getTasksByProvider",
      "outputs": [
        {
          "components": [
            {
              "internalType": "bytes32",
              "name": "taskID",
              "type": "bytes32"
            },
            {
              "internalType": "address payable",
              "name": "client",
              "type": "address"
            },
            {
              "internalType": "address payable",
              "name": "provider",
              "type": "address"
            },
            {
              "internalType": "uint256",
              "name": "deadline",
              "type": "uint256"
            },
            {
              "internalType": "uint256",
              "name": "price",
              "type": "uint256"
            },
            {
              "internalType": "uint256",
              "name": "duration",
              "type": "uint256"
            },
            {
              "internalType": "uint256",
              "name": "activationTime",
              "type": "uint256"
            },
            {
              "internalType": "uint256",
              "name": "completionTime",
              "type": "uint256"
            },
            {
              "internalType": "string",
              "name": "code",
              "type": "string"
            },
            {
              "internalType": "string",
              "name": "results",
              "type": "string"
            },
            {
              "internalType": "bytes32",
              "name": "clientVerification",
              "type": "bytes32"
            },
            {
              "internalType": "enum TasksManager.TaskState",
              "name": "taskState",
              "type": "uint8"
            },
            {
              "internalType": "enum TasksManager.PaymentState",
              "name": "paymentState",
              "type": "uint8"
            }
          ],
          "internalType": "struct TasksManager.Task[]",
          "name": "",
          "type": "tuple[]"
        }
      ],
      "stateMutability": "view",
      "type": "function"
    },
    {
      "inputs": [
        {
          "internalType": "bytes32",
          "name": "_taskID",
          "type": "bytes32"
        }
      ],
      "name": "invalidateTask",
      "outputs": [],
      "stateMutability": "nonpayable",
      "type": "function"
    },
    {
      "inputs": [
        {
          "internalType": "bytes32",
          "name": "_taskID",
          "type": "bytes32"
        }
      ],
      "name": "reportClient",
      "outputs": [],
      "stateMutability": "nonpayable",
      "type": "function"
    },
    {
      "inputs": [
        {
          "internalType": "bytes32",
          "name": "_taskID",
          "type": "bytes32"
        },
        {
          "internalType": "string",
          "name": "_results",
          "type": "string"
        }
      ],
      "name": "sendResults",
      "outputs": [],
      "stateMutability": "nonpayable",
      "type": "function"
    },
    {
      "inputs": [
        {
          "internalType": "address",
          "name": "_auctionAddress",
          "type": "address"
        }
      ],
      "name": "setAuctionsManager",
      "outputs": [],
      "stateMutability": "nonpayable",
      "type": "function"
    },
    {
      "inputs": [
        {
          "internalType": "uint256",
          "name": "amount",
          "type": "uint256"
        }
      ],
      "name": "withdraw",
      "outputs": [],
      "stateMutability": "nonpayable",
      "type": "function"
    },
    {
      "stateMutability": "payable",
      "type": "receive"
    }
  ],
  "transactionHash": "0x2bc0d001377f8fcc17aa0039a494dff09f849cacda29b47c205a312749421298",
  "args": [],
  "numDeployments": 1,
  "solcInputHash": "43109133c77246ddc7e1aa6c178d53fe",
  "bytecode": "0x60a0604052600060015534801561001557600080fd5b503373ffffffffffffffffffffffffffffffffffffffff1660808173ffffffffffffffffffffffffffffffffffffffff1660601b8152505060805160601c615c72620000966000396000818161056501528181610cef01528181610dbf01528181613671015281816138a7015281816138cf015261406a0152615c726000f3fe6080604052600436106101395760003560e01c8063668b1baa116100ab578063980072551161006f578063980072551461042d57806398c04db514610456578063ab893cb314610493578063e8fe6b66146104d0578063ec3b24f21461050d578063ee8ca3b51461053857610179565b8063668b1baa14610362578063893d20e81461039f5780638b9ca885146103ca5780638fb15168146103f557806392b833201461041157610179565b806346475c4c116100fd57806346475c4c1461026357806347ca8a8b146102a05780634b017c7a146102bc578063513a6698146102e557806354706b5a1461030e57806360d704db1461033757610179565b806304a87e381461017e57806307ae2740146101a95780630b817e24146101d25780632e1a7d4d1461020f5780632f3c01621461023857610179565b36610179576040517f08c379a000000000000000000000000000000000000000000000000000000000815260040161017090614e6c565b60405180910390fd5b600080fd5b34801561018a57600080fd5b50610193610561565b6040516101a09190615239565b60405180910390f35b3480156101b557600080fd5b506101d060048036038101906101cb919061529b565b610957565b005b3480156101de57600080fd5b506101f960048036038101906101f4919061529b565b610b47565b60405161020691906152d7565b60405180910390f35b34801561021b57600080fd5b506102366004803603810190610231919061531e565b610ced565b005b34801561024457600080fd5b5061024d610e40565b60405161025a9190615239565b60405180910390f35b34801561026f57600080fd5b5061028a6004803603810190610285919061529b565b6112fb565b6040516102979190615384565b60405180910390f35b6102ba60048036038101906102b5919061529b565b6115aa565b005b3480156102c857600080fd5b506102e360048036038101906102de91906154db565b611bf4565b005b3480156102f157600080fd5b5061030c60048036038101906103079190615537565b612b80565b005b34801561031a57600080fd5b506103356004803603810190610330919061529b565b613252565b005b34801561034357600080fd5b5061034c61366d565b60405161035991906152d7565b60405180910390f35b34801561036e57600080fd5b506103896004803603810190610384919061529b565b6136fc565b60405161039691906152d7565b60405180910390f35b3480156103ab57600080fd5b506103b46138a3565b6040516103c191906155db565b60405180910390f35b3480156103d657600080fd5b506103df6138cb565b6040516103ec91906155db565b60405180910390f35b61040f600480360381019061040a9190615622565b613978565b005b61042b6004803603810190610426919061529b565b613d60565b005b34801561043957600080fd5b50610454600480360381019061044f91906156e0565b614068565b005b34801561046257600080fd5b5061047d600480360381019061047891906156e0565b614130565b60405161048a919061573c565b60405180910390f35b34801561049f57600080fd5b506104ba60048036038101906104b591906156e0565b61419d565b6040516104c79190615786565b60405180910390f35b3480156104dc57600080fd5b506104f760048036038101906104f2919061529b565b61420a565b6040516105049190615384565b60405180910390f35b34801561051957600080fd5b5061052261442d565b60405161052f9190615239565b60405180910390f35b34801561054457600080fd5b5061055f600480360381019061055a919061529b565b6148e8565b005b60607f000000000000000000000000000000000000000000000000000000000000000073ffffffffffffffffffffffffffffffffffffffff163373ffffffffffffffffffffffffffffffffffffffff16146105e8576040517f82593d3000000000000000000000000000000000000000000000000000000000815260040160405180910390fd5b600060038054905067ffffffffffffffff811115610609576106086153b0565b5b60405190808252806020026020018201604052801561064257816020015b61062f614c7a565b8152602001906001900390816106275790505b50905060005b60038054905081101561094f57600260006003838154811061066d5761066c6157a1565b5b90600052602060002001548152602001908152602001600020604051806101a0016040529081600082015481526020016001820160009054906101000a900473ffffffffffffffffffffffffffffffffffffffff1673ffffffffffffffffffffffffffffffffffffffff1673ffffffffffffffffffffffffffffffffffffffff1681526020016002820160009054906101000a900473ffffffffffffffffffffffffffffffffffffffff1673ffffffffffffffffffffffffffffffffffffffff1673ffffffffffffffffffffffffffffffffffffffff168152602001600382015481526020016004820154815260200160058201548152602001600682015481526020016007820154815260200160088201805461078a906157ff565b80601f01602080910402602001604051908101604052809291908181526020018280546107b6906157ff565b80156108035780601f106107d857610100808354040283529160200191610803565b820191906000526020600020905b8154815290600101906020018083116107e657829003601f168201915b5050505050815260200160098201805461081c906157ff565b80601f0160208091040260200160405190810160405280929190818152602001828054610848906157ff565b80156108955780601f1061086a57610100808354040283529160200191610895565b820191906000526020600020905b81548152906001019060200180831161087857829003601f168201915b50505050508152602001600a8201548152602001600b820160009054906101000a900460ff1660078111156108cd576108cc614fc4565b5b60078111156108df576108de614fc4565b5b8152602001600b820160019054906101000a900460ff16600281111561090857610907614fc4565b5b600281111561091a57610919614fc4565b5b81525050828281518110610931576109306157a1565b5b6020026020010181905250808061094790615860565b915050610648565b508091505090565b6000801b600260008381526020019081526020016000206000015414156109aa576040517fda319dff00000000000000000000000000000000000000000000000000000000815260040160405180910390fd5b6002600082815260200190815260200160002060020160009054906101000a900473ffffffffffffffffffffffffffffffffffffffff1673ffffffffffffffffffffffffffffffffffffffff163373ffffffffffffffffffffffffffffffffffffffff1614610a45576040517fa898452000000000000000000000000000000000000000000000000000000000815260040160405180910390fd5b6001600560006002600085815260200190815260200160002060010160009054906101000a900473ffffffffffffffffffffffffffffffffffffffff1673ffffffffffffffffffffffffffffffffffffffff1673ffffffffffffffffffffffffffffffffffffffff1681526020019081526020016000206001016000828254610ace91906158a9565b925050819055507f5253e1d0c80a10061456c7789d7fb9ef9a47c1e3728581eb9b73e957dbbf1b6a6002600083815260200190815260200160002060010160009054906101000a900473ffffffffffffffffffffffffffffffffffffffff1682604051610b3c92919061596d565b60405180910390a150565b60008060001b60026000848152602001908152602001600020600001541415610b9c576040517fda319dff00000000000000000000000000000000000000000000000000000000815260040160405180910390fd5b6002600083815260200190815260200160002060010160009054906101000a900473ffffffffffffffffffffffffffffffffffffffff1673ffffffffffffffffffffffffffffffffffffffff163373ffffffffffffffffffffffffffffffffffffffff1614610c37576040517f1117923b00000000000000000000000000000000000000000000000000000000815260040160405180910390fd5b60006007811115610c4b57610c4a614fc4565b5b60026000848152602001908152602001600020600b0160009054906101000a900460ff166007811115610c8157610c80614fc4565b5b14610cc45760006040517f0bb377be000000000000000000000000000000000000000000000000000000008152600401610cbb91906159a5565b60405180910390fd5b600280600084815260200190815260200160002060040154610ce691906159c0565b9050919050565b7f000000000000000000000000000000000000000000000000000000000000000073ffffffffffffffffffffffffffffffffffffffff163373ffffffffffffffffffffffffffffffffffffffff1614610d72576040517f82593d3000000000000000000000000000000000000000000000000000000000815260040160405180910390fd5b600154811115610dbd57600154816040517f558b78b8000000000000000000000000000000000000000000000000000000008152600401610db4929190615a1a565b60405180910390fd5b7f000000000000000000000000000000000000000000000000000000000000000073ffffffffffffffffffffffffffffffffffffffff166108fc829081150290604051600060405180830381858888f19350505050158015610e23573d6000803e3d6000fd5b508060016000828254610e369190615a43565b9250508190555050565b6060600060038054905067ffffffffffffffff811115610e6357610e626153b0565b5b604051908082528060200260200182016040528015610e9c57816020015b610e89614c7a565b815260200190600190039081610e815790505b5090506000805b600380549050811015611241573373ffffffffffffffffffffffffffffffffffffffff166002600060038481548110610edf57610ede6157a1565b5b9060005260206000200154815260200190815260200160002060020160009054906101000a900473ffffffffffffffffffffffffffffffffffffffff1673ffffffffffffffffffffffffffffffffffffffff16141561122e576002600060038381548110610f5057610f4f6157a1565b5b90600052602060002001548152602001908152602001600020604051806101a0016040529081600082015481526020016001820160009054906101000a900473ffffffffffffffffffffffffffffffffffffffff1673ffffffffffffffffffffffffffffffffffffffff1673ffffffffffffffffffffffffffffffffffffffff1681526020016002820160009054906101000a900473ffffffffffffffffffffffffffffffffffffffff1673ffffffffffffffffffffffffffffffffffffffff1673ffffffffffffffffffffffffffffffffffffffff168152602001600382015481526020016004820154815260200160058201548152602001600682015481526020016007820154815260200160088201805461106d906157ff565b80601f0160208091040260200160405190810160405280929190818152602001828054611099906157ff565b80156110e65780601f106110bb576101008083540402835291602001916110e6565b820191906000526020600020905b8154815290600101906020018083116110c957829003601f168201915b505050505081526020016009820180546110ff906157ff565b80601f016020809104026020016040519081016040528092919081815260200182805461112b906157ff565b80156111785780601f1061114d57610100808354040283529160200191611178565b820191906000526020600020905b81548152906001019060200180831161115b57829003601f168201915b50505050508152602001600a8201548152602001600b820160009054906101000a900460ff1660078111156111b0576111af614fc4565b5b60078111156111c2576111c1614fc4565b5b8152602001600b820160019054906101000a900460ff1660028111156111eb576111ea614fc4565b5b60028111156111fd576111fc614fc4565b5b81525050838381518110611214576112136157a1565b5b6020026020010181905250818061122a90615860565b9250505b808061123990615860565b915050610ea3565b5060008167ffffffffffffffff81111561125e5761125d6153b0565b5b60405190808252806020026020018201604052801561129757816020015b611284614c7a565b81526020019060019003908161127c5790505b50905060005b828110156112f1578381815181106112b8576112b76157a1565b5b60200260200101518282815181106112d3576112d26157a1565b5b602002602001018190525080806112e990615860565b91505061129d565b5080935050505090565b60606000801b60026000848152602001908152602001600020600001541415611350576040517fda319dff00000000000000000000000000000000000000000000000000000000815260040160405180910390fd5b6002600083815260200190815260200160002060010160009054906101000a900473ffffffffffffffffffffffffffffffffffffffff1673ffffffffffffffffffffffffffffffffffffffff163373ffffffffffffffffffffffffffffffffffffffff16146113eb576040517f1117923b00000000000000000000000000000000000000000000000000000000815260040160405180910390fd5b600660078111156113ff576113fe614fc4565b5b60026000848152602001908152602001600020600b0160009054906101000a900460ff16600781111561143557611434614fc4565b5b146114785760066040517f0bb377be00000000000000000000000000000000000000000000000000000000815260040161146f91906159a5565b60405180910390fd5b60028081111561148b5761148a614fc4565b5b60026000848152602001908152602001600020600b0160019054906101000a900460ff1660028111156114c1576114c0614fc4565b5b146115045760026040517f13e912fb0000000000000000000000000000000000000000000000000000000081526004016114fb9190615a86565b60405180910390fd5b600260008381526020019081526020016000206009018054611525906157ff565b80601f0160208091040260200160405190810160405280929190818152602001828054611551906157ff565b801561159e5780601f106115735761010080835404028352916020019161159e565b820191906000526020600020905b81548152906001019060200180831161158157829003601f168201915b50505050509050919050565b6000801b600260008381526020019081526020016000206000015414156115fd576040517fda319dff00000000000000000000000000000000000000000000000000000000815260040160405180910390fd5b6002600082815260200190815260200160002060010160009054906101000a900473ffffffffffffffffffffffffffffffffffffffff1673ffffffffffffffffffffffffffffffffffffffff163373ffffffffffffffffffffffffffffffffffffffff1614611698576040517f1117923b00000000000000000000000000000000000000000000000000000000815260040160405180910390fd5b6002806000838152602001908152602001600020600401546116ba91906159c0565b600260008381526020019081526020016000206005015460026000848152602001908152602001600020600401546116f291906159c0565b6116fc9190615a43565b34146117a45760028060008381526020019081526020016000206004015461172491906159c0565b6002600083815260200190815260200160002060050154600260008481526020019081526020016000206004015461175c91906159c0565b6117669190615a43565b346040517f558b78b800000000000000000000000000000000000000000000000000000000815260040161179b929190615a1a565b60405180910390fd5b600660078111156117b8576117b7614fc4565b5b60026000838152602001908152602001600020600b0160009054906101000a900460ff1660078111156117ee576117ed614fc4565b5b146118315760066040517f0bb377be00000000000000000000000000000000000000000000000000000000815260040161182891906159a5565b60405180910390fd5b6001600281111561184557611844614fc4565b5b60026000838152602001908152602001600020600b0160019054906101000a900460ff16600281111561187b5761187a614fc4565b5b146118be5760016040517f13e912fb0000000000000000000000000000000000000000000000000000000081526004016118b59190615a86565b60405180910390fd5b6002600082815260200190815260200160002060020160009054906101000a900473ffffffffffffffffffffffffffffffffffffffff1673ffffffffffffffffffffffffffffffffffffffff166108fc349081150290604051600060405180830381858888f1935050505015801561193a573d6000803e3d6000fd5b507f4195fd9cd5f571cf9d14b2376c60201465a986f4a0469cebf0f0ee1d3e2022ab6002600083815260200190815260200160002060020160009054906101000a900473ffffffffffffffffffffffffffffffffffffffff166002806000858152602001908152602001600020600401546119b591906159c0565b600260008581526020019081526020016000206005015460026000868152602001908152602001600020600401546119ed91906159c0565b6119f79190615a43565b604051611a05929190615aa1565b60405180910390a16001600560006002600085815260200190815260200160002060010160009054906101000a900473ffffffffffffffffffffffffffffffffffffffff1673ffffffffffffffffffffffffffffffffffffffff1673ffffffffffffffffffffffffffffffffffffffff1681526020019081526020016000206000016000828254611a9691906158a9565b925050819055507fb2403726f4d0056fd774a682a4059ede8acdb09e7f95ca0268d543dc03a5e7806002600083815260200190815260200160002060010160009054906101000a900473ffffffffffffffffffffffffffffffffffffffff1682604051611b0492919061596d565b60405180910390a16002806000838152602001908152602001600020600b0160016101000a81548160ff02191690836002811115611b4557611b44614fc4565b5b02179055507f890aa03cb2eb1db116152827f7a61a8f43080718ac119d21644158c5df9131c9816002600084815260200190815260200160002060010160009054906101000a900473ffffffffffffffffffffffffffffffffffffffff166002600085815260200190815260200160002060020160009054906101000a900473ffffffffffffffffffffffffffffffffffffffff16604051611be993929190615aca565b60405180910390a150565b6000801b60026000848152602001908152602001600020600001541415611c47576040517fda319dff00000000000000000000000000000000000000000000000000000000815260040160405180910390fd5b6002600083815260200190815260200160002060020160009054906101000a900473ffffffffffffffffffffffffffffffffffffffff1673ffffffffffffffffffffffffffffffffffffffff163373ffffffffffffffffffffffffffffffffffffffff1614611ce2576040517fa898452000000000000000000000000000000000000000000000000000000000815260040160405180910390fd5b60036007811115611cf657611cf5614fc4565b5b60026000848152602001908152602001600020600b0160009054906101000a900460ff166007811115611d2c57611d2b614fc4565b5b14611d6f5760036040517f0bb377be000000000000000000000000000000000000000000000000000000008152600401611d6691906159a5565b60405180910390fd5b60006002811115611d8357611d82614fc4565b5b60026000848152602001908152602001600020600b0160019054906101000a900460ff166002811115611db957611db8614fc4565b5b14611dfc5760006040517f13e912fb000000000000000000000000000000000000000000000000000000008152600401611df39190615a86565b60405180910390fd5b600042905081600260008581526020019081526020016000206009019080519060200190611e2b929190614d38565b5060026000848152602001908152602001600020600701548110158015611e765750620151806002600085815260200190815260200160002060070154611e7291906158a9565b8111155b8015611eb9575060026000848152602001908152602001600020600501546002600085815260200190815260200160002060060154611eb591906158a9565b8110155b8015611f12575060026000848152602001908152602001600020600501546002600085815260200190815260200160002060060154611ef891906158a9565b600260008581526020019081526020016000206007015410155b1561282c57600280600085815260200190815260200160002060040154611f3991906159c0565b60026000858152602001908152602001600020600501546002600086815260200190815260200160002060040154611f7191906159c0565b116123c6576002600084815260200190815260200160002060020160009054906101000a900473ffffffffffffffffffffffffffffffffffffffff1673ffffffffffffffffffffffffffffffffffffffff166108fc600a6002600087815260200190815260200160002060040154611fe991906159c0565b6002600087815260200190815260200160002060050154600260008881526020019081526020016000206004015461202191906159c0565b61202b91906158a9565b9081150290604051600060405180830381858888f19350505050158015612056573d6000803e3d6000fd5b507f4195fd9cd5f571cf9d14b2376c60201465a986f4a0469cebf0f0ee1d3e2022ab6002600085815260200190815260200160002060020160009054906101000a900473ffffffffffffffffffffffffffffffffffffffff16600a60026000878152602001908152602001600020600401546120d291906159c0565b6002600087815260200190815260200160002060050154600260008881526020019081526020016000206004015461210a91906159c0565b61211491906158a9565b604051612122929190615aa1565b60405180910390a16002600084815260200190815260200160002060010160009054906101000a900473ffffffffffffffffffffffffffffffffffffffff1673ffffffffffffffffffffffffffffffffffffffff166108fc60028060008781526020019081526020016000206004015461219c91906159c0565b600260008781526020019081526020016000206005015460026000888152602001908152602001600020600401546121d491906159c0565b6121de9190615a43565b9081150290604051600060405180830381858888f19350505050158015612209573d6000803e3d6000fd5b507fb56ab0c8ca3c4a2f3256c9dab1834145295ed481d85fd1afde56ff8c7298c3ec6002600085815260200190815260200160002060010160009054906101000a900473ffffffffffffffffffffffffffffffffffffffff1660028060008781526020019081526020016000206004015461228491906159c0565b600260008781526020019081526020016000206005015460026000888152602001908152602001600020600401546122bc91906159c0565b6122c69190615a43565b6040516122d4929190615aa1565b60405180910390a16002806000858152602001908152602001600020600b0160016101000a81548160ff0219169083600281111561231557612314614fc4565b5b02179055507f890aa03cb2eb1db116152827f7a61a8f43080718ac119d21644158c5df9131c9836002600086815260200190815260200160002060010160009054906101000a900473ffffffffffffffffffffffffffffffffffffffff166002600087815260200190815260200160002060020160009054906101000a900473ffffffffffffffffffffffffffffffffffffffff166040516123b993929190615aca565b60405180910390a1612642565b6002600084815260200190815260200160002060020160009054906101000a900473ffffffffffffffffffffffffffffffffffffffff1673ffffffffffffffffffffffffffffffffffffffff166108fc600c600260008781526020019081526020016000206004015461243991906159c0565b9081150290604051600060405180830381858888f19350505050158015612464573d6000803e3d6000fd5b507f4195fd9cd5f571cf9d14b2376c60201465a986f4a0469cebf0f0ee1d3e2022ab6002600085815260200190815260200160002060020160009054906101000a900473ffffffffffffffffffffffffffffffffffffffff16600c60026000878152602001908152602001600020600401546124e091906159c0565b6040516124ee929190615aa1565b60405180910390a1600160026000858152602001908152602001600020600b0160016101000a81548160ff021916908360028111156125305761252f614fc4565b5b02179055507f03f879f7b5806dc8623346c41377a3e4e845b47c9202327f8a3004c57b8eb2d4836002600086815260200190815260200160002060010160009054906101000a900473ffffffffffffffffffffffffffffffffffffffff166002600087815260200190815260200160002060020160009054906101000a900473ffffffffffffffffffffffffffffffffffffffff166002806000898152602001908152602001600020600401546125e791906159c0565b6002600089815260200190815260200160002060050154600260008a81526020019081526020016000206004015461261f91906159c0565b6126299190615a43565b6040516126399493929190615b01565b60405180910390a15b600660026000858152602001908152602001600020600b0160006101000a81548160ff0219169083600781111561267c5761267b614fc4565b5b02179055507f067fe9f66c1397ff30d1dc2be07bda764b672304c70f4cab229b243c42ce31f8836002600086815260200190815260200160002060010160009054906101000a900473ffffffffffffffffffffffffffffffffffffffff166002600087815260200190815260200160002060020160009054906101000a900473ffffffffffffffffffffffffffffffffffffffff1660405161272093929190615aca565b60405180910390a16001600460006002600087815260200190815260200160002060020160009054906101000a900473ffffffffffffffffffffffffffffffffffffffff1673ffffffffffffffffffffffffffffffffffffffff1673ffffffffffffffffffffffffffffffffffffffff16815260200190815260200160002060000160008282546127b191906158a9565b925050819055507ff79072e0f370bb188b7c4d34ae8a5c9138b891e5df7cfa7ca412b518d30aaf756002600085815260200190815260200160002060020160009054906101000a900473ffffffffffffffffffffffffffffffffffffffff168460405161281f92919061596d565b60405180910390a1612b7b565b6002600084815260200190815260200160002060010160009054906101000a900473ffffffffffffffffffffffffffffffffffffffff1673ffffffffffffffffffffffffffffffffffffffff166108fc60028060008781526020019081526020016000206004015461289e91906159c0565b9081150290604051600060405180830381858888f193505050501580156128c9573d6000803e3d6000fd5b507fb56ab0c8ca3c4a2f3256c9dab1834145295ed481d85fd1afde56ff8c7298c3ec6002600085815260200190815260200160002060010160009054906101000a900473ffffffffffffffffffffffffffffffffffffffff1660028060008781526020019081526020016000206004015461294491906159c0565b604051612952929190615aa1565b60405180910390a1600a600260008581526020019081526020016000206004015461297d91906159c0565b6001600082825461298e91906158a9565b92505081905550600760026000858152602001908152602001600020600b0160006101000a81548160ff021916908360078111156129cf576129ce614fc4565b5b02179055507fd821ebe41923c5c79bc29eb00ebc187d810aa678babab9794f5dfd465f2f16f0836002600086815260200190815260200160002060010160009054906101000a900473ffffffffffffffffffffffffffffffffffffffff166002600087815260200190815260200160002060020160009054906101000a900473ffffffffffffffffffffffffffffffffffffffff16604051612a7393929190615aca565b60405180910390a16001600460006002600087815260200190815260200160002060020160009054906101000a900473ffffffffffffffffffffffffffffffffffffffff1673ffffffffffffffffffffffffffffffffffffffff1673ffffffffffffffffffffffffffffffffffffffff1681526020019081526020016000206001016000828254612b0491906158a9565b925050819055507f3fec1177d25f324e1beb970cd60f8b52ef1e47290a72bdb8f62101720f5e49276002600085815260200190815260200160002060020160009054906101000a900473ffffffffffffffffffffffffffffffffffffffff1684604051612b7292919061596d565b60405180910390a15b505050565b6000801b60026000868152602001908152602001600020600001541415612bd3576040517fda319dff00000000000000000000000000000000000000000000000000000000815260040160405180910390fd5b6002600085815260200190815260200160002060020160009054906101000a900473ffffffffffffffffffffffffffffffffffffffff1673ffffffffffffffffffffffffffffffffffffffff163373ffffffffffffffffffffffffffffffffffffffff1614612c6e576040517fa898452000000000000000000000000000000000000000000000000000000000815260040160405180910390fd5b60026007811115612c8257612c81614fc4565b5b60026000868152602001908152602001600020600b0160009054906101000a900460ff166007811115612cb857612cb7614fc4565b5b14612cfb5760026040517f0bb377be000000000000000000000000000000000000000000000000000000008152600401612cf291906159a5565b60405180910390fd5b806002600086815260200190815260200160002060070181905550600182612d2391906158a9565b600260008681526020019081526020016000206005018190555060026000858152602001908152602001600020600301546002600086815260200190815260200160002060060154612d7591906158a9565b600260008681526020019081526020016000206007015411158015612dc657506002600085815260200190815260200160002060030154600260008681526020019081526020016000206005015411155b8015612e0d575082604051602001612dde9190615b82565b6040516020818303038152906040528051906020012060026000868152602001908152602001600020600a0154145b15612efd57600360026000868152602001908152602001600020600b0160006101000a81548160ff02191690836007811115612e4c57612e4b614fc4565b5b02179055507fcb01257e40cdc690688a120c405f9fb290bf5ac57809b606e65432c6e87d1a90846002600087815260200190815260200160002060010160009054906101000a900473ffffffffffffffffffffffffffffffffffffffff166002600088815260200190815260200160002060020160009054906101000a900473ffffffffffffffffffffffffffffffffffffffff16604051612ef093929190615aca565b60405180910390a161324c565b6002600085815260200190815260200160002060010160009054906101000a900473ffffffffffffffffffffffffffffffffffffffff1673ffffffffffffffffffffffffffffffffffffffff166108fc600280600088815260200190815260200160002060040154612f6f91906159c0565b9081150290604051600060405180830381858888f19350505050158015612f9a573d6000803e3d6000fd5b507fb56ab0c8ca3c4a2f3256c9dab1834145295ed481d85fd1afde56ff8c7298c3ec6002600086815260200190815260200160002060010160009054906101000a900473ffffffffffffffffffffffffffffffffffffffff1660028060008881526020019081526020016000206004015461301591906159c0565b604051613023929190615aa1565b60405180910390a1600a600260008681526020019081526020016000206004015461304e91906159c0565b6001600082825461305f91906158a9565b925050819055506001600460006002600088815260200190815260200160002060020160009054906101000a900473ffffffffffffffffffffffffffffffffffffffff1673ffffffffffffffffffffffffffffffffffffffff1673ffffffffffffffffffffffffffffffffffffffff16815260200190815260200160002060010160008282546130ef91906158a9565b925050819055507f3fec1177d25f324e1beb970cd60f8b52ef1e47290a72bdb8f62101720f5e49276002600086815260200190815260200160002060020160009054906101000a900473ffffffffffffffffffffffffffffffffffffffff168560405161315d92919061596d565b60405180910390a1600460026000868152602001908152602001600020600b0160006101000a81548160ff0219169083600781111561319f5761319e614fc4565b5b02179055507f279638cb479570dfe0b72fc4dfe988dba9185f35d37a1452037c1603ce7f5529846002600087815260200190815260200160002060010160009054906101000a900473ffffffffffffffffffffffffffffffffffffffff166002600088815260200190815260200160002060020160009054906101000a900473ffffffffffffffffffffffffffffffffffffffff1660405161324393929190615aca565b60405180910390a15b50505050565b6000801b600260008381526020019081526020016000206000015414156132a5576040517fda319dff00000000000000000000000000000000000000000000000000000000815260040160405180910390fd5b6002600082815260200190815260200160002060010160009054906101000a900473ffffffffffffffffffffffffffffffffffffffff1673ffffffffffffffffffffffffffffffffffffffff163373ffffffffffffffffffffffffffffffffffffffff1614613340576040517f1117923b00000000000000000000000000000000000000000000000000000000815260040160405180910390fd5b6002600781111561335457613353614fc4565b5b60026000838152602001908152602001600020600b0160009054906101000a900460ff16600781111561338a57613389614fc4565b5b146133cd5760026040517f0bb377be0000000000000000000000000000000000000000000000000000000081526004016133c491906159a5565b60405180910390fd5b620151806002600083815260200190815260200160002060030154600260008481526020019081526020016000206006015461340991906158a9565b61341391906158a9565b4211613454576040517f08c379a000000000000000000000000000000000000000000000000000000000815260040161344b90615be5565b60405180910390fd5b600560026000838152602001908152602001600020600b0160006101000a81548160ff0219169083600781111561348e5761348d614fc4565b5b02179055506002600082815260200190815260200160002060010160009054906101000a900473ffffffffffffffffffffffffffffffffffffffff1673ffffffffffffffffffffffffffffffffffffffff166108fc600c600260008581526020019081526020016000206004015461350691906159c0565b9081150290604051600060405180830381858888f19350505050158015613531573d6000803e3d6000fd5b507fb56ab0c8ca3c4a2f3256c9dab1834145295ed481d85fd1afde56ff8c7298c3ec6002600083815260200190815260200160002060010160009054906101000a900473ffffffffffffffffffffffffffffffffffffffff16600c60026000858152602001908152602001600020600401546135ad91906159c0565b6040516135bb929190615aa1565b60405180910390a17f77df901e3c3426e23a34767cafcb99b6196af0f7676f4949f41e0f607c982dee816002600084815260200190815260200160002060010160009054906101000a900473ffffffffffffffffffffffffffffffffffffffff166002600085815260200190815260200160002060020160009054906101000a900473ffffffffffffffffffffffffffffffffffffffff1660405161366293929190615aca565b60405180910390a150565b60007f000000000000000000000000000000000000000000000000000000000000000073ffffffffffffffffffffffffffffffffffffffff163373ffffffffffffffffffffffffffffffffffffffff16146136f4576040517f82593d3000000000000000000000000000000000000000000000000000000000815260040160405180910390fd5b600154905090565b60008060001b60026000848152602001908152602001600020600001541415613751576040517fda319dff00000000000000000000000000000000000000000000000000000000815260040160405180910390fd5b6002600083815260200190815260200160002060020160009054906101000a900473ffffffffffffffffffffffffffffffffffffffff1673ffffffffffffffffffffffffffffffffffffffff163373ffffffffffffffffffffffffffffffffffffffff16146137ec576040517fa898452000000000000000000000000000000000000000000000000000000000815260040160405180910390fd5b60006007811115613800576137ff614fc4565b5b60026000848152602001908152602001600020600b0160009054906101000a900460ff16600781111561383657613835614fc4565b5b146138795760006040517f0bb377be00000000000000000000000000000000000000000000000000000000815260040161387091906159a5565b60405180910390fd5b600a600260008481526020019081526020016000206004015461389c91906159c0565b9050919050565b60007f0000000000000000000000000000000000000000000000000000000000000000905090565b60007f000000000000000000000000000000000000000000000000000000000000000073ffffffffffffffffffffffffffffffffffffffff163373ffffffffffffffffffffffffffffffffffffffff1614613952576040517f82593d3000000000000000000000000000000000000000000000000000000000815260040160405180910390fd5b60008054906101000a900473ffffffffffffffffffffffffffffffffffffffff16905090565b600073ffffffffffffffffffffffffffffffffffffffff1660008054906101000a900473ffffffffffffffffffffffffffffffffffffffff1673ffffffffffffffffffffffffffffffffffffffff1614156139ff576040517f3eefffa400000000000000000000000000000000000000000000000000000000815260040160405180910390fd5b60008054906101000a900473ffffffffffffffffffffffffffffffffffffffff1673ffffffffffffffffffffffffffffffffffffffff163373ffffffffffffffffffffffffffffffffffffffff1614613a84576040517f42f84e1500000000000000000000000000000000000000000000000000000000815260040160405180910390fd5b6000801b600260008981526020019081526020016000206000015414613ad6576040517ff2e16b0300000000000000000000000000000000000000000000000000000000815260040160405180910390fd5b600284613ae391906159c0565b3414613b3457600284613af691906159c0565b346040517f558b78b8000000000000000000000000000000000000000000000000000000008152600401613b2b929190615a1a565b60405180910390fd5b866002600089815260200190815260200160002060000181905550856002600089815260200190815260200160002060010160006101000a81548173ffffffffffffffffffffffffffffffffffffffff021916908373ffffffffffffffffffffffffffffffffffffffff160217905550846002600089815260200190815260200160002060020160006101000a81548173ffffffffffffffffffffffffffffffffffffffff021916908373ffffffffffffffffffffffffffffffffffffffff1602179055508360026000898152602001908152602001600020600401819055508260026000898152602001908152602001600020600301819055508160026000898152602001908152602001600020600a018190555080600260008981526020019081526020016000206008019080519060200190613c74929190614d38565b50600060026000898152602001908152602001600020600b0160006101000a81548160ff02191690836007811115613caf57613cae614fc4565b5b0217905550600060026000898152602001908152602001600020600b0160016101000a81548160ff02191690836002811115613cee57613ced614fc4565b5b021790555060038790806001815401808255809150506001900390600052602060002001600090919091909150557f86a1455bc0c745e7ed02d6d0658be68508dd1dea11eed285160e0688859ac7cb878787604051613d4f93929190615c05565b60405180910390a150505050505050565b6000801b60026000838152602001908152602001600020600001541415613db3576040517fda319dff00000000000000000000000000000000000000000000000000000000815260040160405180910390fd5b6002600082815260200190815260200160002060020160009054906101000a900473ffffffffffffffffffffffffffffffffffffffff1673ffffffffffffffffffffffffffffffffffffffff163373ffffffffffffffffffffffffffffffffffffffff1614613e4e576040517fa898452000000000000000000000000000000000000000000000000000000000815260040160405180910390fd5b60006007811115613e6257613e61614fc4565b5b60026000838152602001908152602001600020600b0160009054906101000a900460ff166007811115613e9857613e97614fc4565b5b14613edb5760006040517f0bb377be000000000000000000000000000000000000000000000000000000008152600401613ed291906159a5565b60405180910390fd5b600a6002600083815260200190815260200160002060040154613efe91906159c0565b3414613f6557600a6002600083815260200190815260200160002060040154613f2791906159c0565b346040517f558b78b8000000000000000000000000000000000000000000000000000000008152600401613f5c929190615a1a565b60405180910390fd5b4260026000838152602001908152602001600020600601819055506002806000838152602001908152602001600020600b0160006101000a81548160ff02191690836007811115613fb957613fb8614fc4565b5b02179055507f2a1f97202782a7c44b909186e1de5c2eff0dcce71cadb0aa37ef5fee96f60f79816002600084815260200190815260200160002060010160009054906101000a900473ffffffffffffffffffffffffffffffffffffffff166002600085815260200190815260200160002060020160009054906101000a900473ffffffffffffffffffffffffffffffffffffffff1660405161405d93929190615aca565b60405180910390a150565b7f000000000000000000000000000000000000000000000000000000000000000073ffffffffffffffffffffffffffffffffffffffff163373ffffffffffffffffffffffffffffffffffffffff16146140ed576040517f82593d3000000000000000000000000000000000000000000000000000000000815260040160405180910390fd5b806000806101000a81548173ffffffffffffffffffffffffffffffffffffffff021916908373ffffffffffffffffffffffffffffffffffffffff16021790555050565b614138614dbe565b600560008373ffffffffffffffffffffffffffffffffffffffff1673ffffffffffffffffffffffffffffffffffffffff168152602001908152602001600020604051806040016040529081600082015481526020016001820154815250509050919050565b6141a5614dd8565b600460008373ffffffffffffffffffffffffffffffffffffffff1673ffffffffffffffffffffffffffffffffffffffff168152602001908152602001600020604051806040016040529081600082015481526020016001820154815250509050919050565b60606000801b6002600084815260200190815260200160002060000154141561425f576040517fda319dff00000000000000000000000000000000000000000000000000000000815260040160405180910390fd5b6002600083815260200190815260200160002060020160009054906101000a900473ffffffffffffffffffffffffffffffffffffffff1673ffffffffffffffffffffffffffffffffffffffff163373ffffffffffffffffffffffffffffffffffffffff16146142fa576040517fa898452000000000000000000000000000000000000000000000000000000000815260040160405180910390fd5b6002600781111561430e5761430d614fc4565b5b60026000848152602001908152602001600020600b0160009054906101000a900460ff16600781111561434457614343614fc4565b5b146143875760026040517f0bb377be00000000000000000000000000000000000000000000000000000000815260040161437e91906159a5565b60405180910390fd5b6002600083815260200190815260200160002060080180546143a8906157ff565b80601f01602080910402602001604051908101604052809291908181526020018280546143d4906157ff565b80156144215780601f106143f657610100808354040283529160200191614421565b820191906000526020600020905b81548152906001019060200180831161440457829003601f168201915b50505050509050919050565b6060600060038054905067ffffffffffffffff8111156144505761444f6153b0565b5b60405190808252806020026020018201604052801561448957816020015b614476614c7a565b81526020019060019003908161446e5790505b5090506000805b60038054905081101561482e573373ffffffffffffffffffffffffffffffffffffffff1660026000600384815481106144cc576144cb6157a1565b5b9060005260206000200154815260200190815260200160002060010160009054906101000a900473ffffffffffffffffffffffffffffffffffffffff1673ffffffffffffffffffffffffffffffffffffffff16141561481b57600260006003838154811061453d5761453c6157a1565b5b90600052602060002001548152602001908152602001600020604051806101a0016040529081600082015481526020016001820160009054906101000a900473ffffffffffffffffffffffffffffffffffffffff1673ffffffffffffffffffffffffffffffffffffffff1673ffffffffffffffffffffffffffffffffffffffff1681526020016002820160009054906101000a900473ffffffffffffffffffffffffffffffffffffffff1673ffffffffffffffffffffffffffffffffffffffff1673ffffffffffffffffffffffffffffffffffffffff168152602001600382015481526020016004820154815260200160058201548152602001600682015481526020016007820154815260200160088201805461465a906157ff565b80601f0160208091040260200160405190810160405280929190818152602001828054614686906157ff565b80156146d35780601f106146a8576101008083540402835291602001916146d3565b820191906000526020600020905b8154815290600101906020018083116146b657829003601f168201915b505050505081526020016009820180546146ec906157ff565b80601f0160208091040260200160405190810160405280929190818152602001828054614718906157ff565b80156147655780601f1061473a57610100808354040283529160200191614765565b820191906000526020600020905b81548152906001019060200180831161474857829003601f168201915b50505050508152602001600a8201548152602001600b820160009054906101000a900460ff16600781111561479d5761479c614fc4565b5b60078111156147af576147ae614fc4565b5b8152602001600b820160019054906101000a900460ff1660028111156147d8576147d7614fc4565b5b60028111156147ea576147e9614fc4565b5b81525050838381518110614801576148006157a1565b5b6020026020010181905250818061481790615860565b9250505b808061482690615860565b915050614490565b5060008167ffffffffffffffff81111561484b5761484a6153b0565b5b60405190808252806020026020018201604052801561488457816020015b614871614c7a565b8152602001906001900390816148695790505b50905060005b828110156148de578381815181106148a5576148a46157a1565b5b60200260200101518282815181106148c0576148bf6157a1565b5b602002602001018190525080806148d690615860565b91505061488a565b5080935050505090565b6000801b6002600083815260200190815260200160002060000154141561493b576040517fda319dff00000000000000000000000000000000000000000000000000000000815260040160405180910390fd5b6002600082815260200190815260200160002060010160009054906101000a900473ffffffffffffffffffffffffffffffffffffffff1673ffffffffffffffffffffffffffffffffffffffff163373ffffffffffffffffffffffffffffffffffffffff16146149d6576040517f1117923b00000000000000000000000000000000000000000000000000000000815260040160405180910390fd5b600060078111156149ea576149e9614fc4565b5b60026000838152602001908152602001600020600b0160009054906101000a900460ff166007811115614a2057614a1f614fc4565b5b14614a635760006040517f0bb377be000000000000000000000000000000000000000000000000000000008152600401614a5a91906159a5565b60405180910390fd5b600160026000838152602001908152602001600020600b0160006101000a81548160ff02191690836007811115614a9d57614a9c614fc4565b5b02179055506002600082815260200190815260200160002060010160009054906101000a900473ffffffffffffffffffffffffffffffffffffffff1673ffffffffffffffffffffffffffffffffffffffff166108fc600280600085815260200190815260200160002060040154614b1491906159c0565b9081150290604051600060405180830381858888f19350505050158015614b3f573d6000803e3d6000fd5b507fb56ab0c8ca3c4a2f3256c9dab1834145295ed481d85fd1afde56ff8c7298c3ec6002600083815260200190815260200160002060010160009054906101000a900473ffffffffffffffffffffffffffffffffffffffff16600280600085815260200190815260200160002060040154614bba91906159c0565b604051614bc8929190615aa1565b60405180910390a17f87c2138f706de178b7c62c30e6665ee7e0f2e6c70bb1f3a956fd37cad5159d15816002600084815260200190815260200160002060010160009054906101000a900473ffffffffffffffffffffffffffffffffffffffff166002600085815260200190815260200160002060020160009054906101000a900473ffffffffffffffffffffffffffffffffffffffff16604051614c6f93929190615aca565b60405180910390a150565b604051806101a0016040528060008019168152602001600073ffffffffffffffffffffffffffffffffffffffff168152602001600073ffffffffffffffffffffffffffffffffffffffff168152602001600081526020016000815260200160008152602001600081526020016000815260200160608152602001606081526020016000801916815260200160006007811115614d1957614d18614fc4565b5b815260200160006002811115614d3257614d31614fc4565b5b81525090565b828054614d44906157ff565b90600052602060002090601f016020900481019282614d665760008555614dad565b82601f10614d7f57805160ff1916838001178555614dad565b82800160010185558215614dad579182015b82811115614dac578251825591602001919060010190614d91565b5b509050614dba9190614df2565b5090565b604051806040016040528060008152602001600081525090565b604051806040016040528060008152602001600081525090565b5b80821115614e0b576000816000905550600101614df3565b5090565b600082825260208201905092915050565b7f6261642063616c6c000000000000000000000000000000000000000000000000600082015250565b6000614e56600883614e0f565b9150614e6182614e20565b602082019050919050565b60006020820190508181036000830152614e8581614e49565b9050919050565b600081519050919050565b600082825260208201905092915050565b6000819050602082019050919050565b6000819050919050565b614ecb81614eb8565b82525050565b600073ffffffffffffffffffffffffffffffffffffffff82169050919050565b6000614efc82614ed1565b9050919050565b614f0c81614ef1565b82525050565b6000819050919050565b614f2581614f12565b82525050565b600081519050919050565b600082825260208201905092915050565b60005b83811015614f65578082015181840152602081019050614f4a565b83811115614f74576000848401525b50505050565b6000601f19601f8301169050919050565b6000614f9682614f2b565b614fa08185614f36565b9350614fb0818560208601614f47565b614fb981614f7a565b840191505092915050565b7f4e487b7100000000000000000000000000000000000000000000000000000000600052602160045260246000fd5b6008811061500457615003614fc4565b5b50565b600081905061501582614ff3565b919050565b600061502582615007565b9050919050565b6150358161501a565b82525050565b6003811061504c5761504b614fc4565b5b50565b600081905061505d8261503b565b919050565b600061506d8261504f565b9050919050565b61507d81615062565b82525050565b60006101a08301600083015161509c6000860182614ec2565b5060208301516150af6020860182614f03565b5060408301516150c26040860182614f03565b5060608301516150d56060860182614f1c565b5060808301516150e86080860182614f1c565b5060a08301516150fb60a0860182614f1c565b5060c083015161510e60c0860182614f1c565b5060e083015161512160e0860182614f1c565b5061010083015184820361010086015261513b8282614f8b565b9150506101208301518482036101208601526151578282614f8b565b91505061014083015161516e610140860182614ec2565b5061016083015161518361016086018261502c565b50610180830151615198610180860182615074565b508091505092915050565b60006151af8383615083565b905092915050565b6000602082019050919050565b60006151cf82614e8c565b6151d98185614e97565b9350836020820285016151eb85614ea8565b8060005b85811015615227578484038952815161520885826151a3565b9450615213836151b7565b925060208a019950506001810190506151ef565b50829750879550505050505092915050565b6000602082019050818103600083015261525381846151c4565b905092915050565b6000604051905090565b600080fd5b600080fd5b61527881614eb8565b811461528357600080fd5b50565b6000813590506152958161526f565b92915050565b6000602082840312156152b1576152b0615265565b5b60006152bf84828501615286565b91505092915050565b6152d181614f12565b82525050565b60006020820190506152ec60008301846152c8565b92915050565b6152fb81614f12565b811461530657600080fd5b50565b600081359050615318816152f2565b92915050565b60006020828403121561533457615333615265565b5b600061534284828501615309565b91505092915050565b600061535682614f2b565b6153608185614e0f565b9350615370818560208601614f47565b61537981614f7a565b840191505092915050565b6000602082019050818103600083015261539e818461534b565b905092915050565b600080fd5b600080fd5b7f4e487b7100000000000000000000000000000000000000000000000000000000600052604160045260246000fd5b6153e882614f7a565b810181811067ffffffffffffffff82111715615407576154066153b0565b5b80604052505050565b600061541a61525b565b905061542682826153df565b919050565b600067ffffffffffffffff821115615446576154456153b0565b5b61544f82614f7a565b9050602081019050919050565b82818337600083830152505050565b600061547e6154798461542b565b615410565b90508281526020810184848401111561549a576154996153ab565b5b6154a584828561545c565b509392505050565b600082601f8301126154c2576154c16153a6565b5b81356154d284826020860161546b565b91505092915050565b600080604083850312156154f2576154f1615265565b5b600061550085828601615286565b925050602083013567ffffffffffffffff8111156155215761552061526a565b5b61552d858286016154ad565b9150509250929050565b6000806000806080858703121561555157615550615265565b5b600061555f87828801615286565b945050602085013567ffffffffffffffff8111156155805761557f61526a565b5b61558c878288016154ad565b935050604061559d87828801615309565b92505060606155ae87828801615309565b91505092959194509250565b60006155c582614ed1565b9050919050565b6155d5816155ba565b82525050565b60006020820190506155f060008301846155cc565b92915050565b6155ff816155ba565b811461560a57600080fd5b50565b60008135905061561c816155f6565b92915050565b600080600080600080600060e0888a03121561564157615640615265565b5b600061564f8a828b01615286565b97505060206156608a828b0161560d565b96505060406156718a828b0161560d565b95505060606156828a828b01615309565b94505060806156938a828b01615309565b93505060a06156a48a828b01615286565b92505060c088013567ffffffffffffffff8111156156c5576156c461526a565b5b6156d18a828b016154ad565b91505092959891949750929550565b6000602082840312156156f6576156f5615265565b5b60006157048482850161560d565b91505092915050565b6040820160008201516157236000850182614f1c565b5060208201516157366020850182614f1c565b50505050565b6000604082019050615751600083018461570d565b92915050565b60408201600082015161576d6000850182614f1c565b5060208201516157806020850182614f1c565b50505050565b600060408201905061579b6000830184615757565b92915050565b7f4e487b7100000000000000000000000000000000000000000000000000000000600052603260045260246000fd5b7f4e487b7100000000000000000000000000000000000000000000000000000000600052602260045260246000fd5b6000600282049050600182168061581757607f821691505b6020821081141561582b5761582a6157d0565b5b50919050565b7f4e487b7100000000000000000000000000000000000000000000000000000000600052601160045260246000fd5b600061586b82614f12565b91507fffffffffffffffffffffffffffffffffffffffffffffffffffffffffffffffff82141561589e5761589d615831565b5b600182019050919050565b60006158b482614f12565b91506158bf83614f12565b9250827fffffffffffffffffffffffffffffffffffffffffffffffffffffffffffffffff038211156158f4576158f3615831565b5b828201905092915050565b6000819050919050565b600061592461591f61591a84614ed1565b6158ff565b614ed1565b9050919050565b600061593682615909565b9050919050565b60006159488261592b565b9050919050565b6159588161593d565b82525050565b61596781614eb8565b82525050565b6000604082019050615982600083018561594f565b61598f602083018461595e565b9392505050565b61599f8161501a565b82525050565b60006020820190506159ba6000830184615996565b92915050565b60006159cb82614f12565b91506159d683614f12565b9250817fffffffffffffffffffffffffffffffffffffffffffffffffffffffffffffffff0483118215151615615a0f57615a0e615831565b5b828202905092915050565b6000604082019050615a2f60008301856152c8565b615a3c60208301846152c8565b9392505050565b6000615a4e82614f12565b9150615a5983614f12565b925082821015615a6c57615a6b615831565b5b828203905092915050565b615a8081615062565b82525050565b6000602082019050615a9b6000830184615a77565b92915050565b6000604082019050615ab6600083018561594f565b615ac360208301846152c8565b9392505050565b6000606082019050615adf600083018661595e565b615aec602083018561594f565b615af9604083018461594f565b949350505050565b6000608082019050615b16600083018761595e565b615b23602083018661594f565b615b30604083018561594f565b615b3d60608301846152c8565b95945050505050565b600081905092915050565b6000615b5c82614f2b565b615b668185615b46565b9350615b76818560208601614f47565b80840191505092915050565b6000615b8e8284615b51565b915081905092915050565b7f54696d6520686173206e6f7420657870697265642e0000000000000000000000600082015250565b6000615bcf601583614e0f565b9150615bda82615b99565b602082019050919050565b60006020820190508181036000830152615bfe81615bc2565b9050919050565b6000606082019050615c1a600083018661595e565b615c2760208301856155cc565b615c3460408301846155cc565b94935050505056fea2646970667358221220e695039f3464a82bb21b918b3c1fd49fe5cb2c54a00a513ed1af1ad1d9e7470d64736f6c63430008080033",
  "devdoc": {
    "kind": "dev",
    "methods": {},
    "version": 1
  },
  "userdoc": {
    "kind": "user",
    "methods": {},
    "version": 1
  },
  "storageLayout": {
    "storage": [
      {
        "astId": 1327,
        "contract": "contracts/TasksManager.sol:TasksManager",
        "label": "auctionAddress",
        "offset": 0,
        "slot": "0",
        "type": "t_address"
      },
      {
        "astId": 1330,
        "contract": "contracts/TasksManager.sol:TasksManager",
        "label": "bank",
        "offset": 0,
        "slot": "1",
        "type": "t_uint256"
      },
      {
        "astId": 1387,
        "contract": "contracts/TasksManager.sol:TasksManager",
        "label": "tasks",
        "offset": 0,
        "slot": "2",
        "type": "t_mapping(t_bytes32,t_struct(Task)1372_storage)"
      },
      {
        "astId": 1390,
        "contract": "contracts/TasksManager.sol:TasksManager",
        "label": "bytes32_tasks",
        "offset": 0,
        "slot": "3",
        "type": "t_array(t_bytes32)dyn_storage"
      },
      {
        "astId": 1395,
        "contract": "contracts/TasksManager.sol:TasksManager",
        "label": "providerPerformance",
        "offset": 0,
        "slot": "4",
        "type": "t_mapping(t_address,t_struct(providerRating)1377_storage)"
      },
      {
        "astId": 1400,
        "contract": "contracts/TasksManager.sol:TasksManager",
        "label": "clientPerformance",
        "offset": 0,
        "slot": "5",
        "type": "t_mapping(t_address,t_struct(clientRating)1382_storage)"
      }
    ],
    "types": {
      "t_address": {
        "encoding": "inplace",
        "label": "address",
        "numberOfBytes": "20"
      },
      "t_address_payable": {
        "encoding": "inplace",
        "label": "address payable",
        "numberOfBytes": "20"
      },
      "t_array(t_bytes32)dyn_storage": {
        "base": "t_bytes32",
        "encoding": "dynamic_array",
        "label": "bytes32[]",
        "numberOfBytes": "32"
      },
      "t_bytes32": {
        "encoding": "inplace",
        "label": "bytes32",
        "numberOfBytes": "32"
      },
      "t_enum(PaymentState)1343": {
        "encoding": "inplace",
        "label": "enum TasksManager.PaymentState",
        "numberOfBytes": "1"
      },
      "t_enum(TaskState)1339": {
        "encoding": "inplace",
        "label": "enum TasksManager.TaskState",
        "numberOfBytes": "1"
      },
      "t_mapping(t_address,t_struct(clientRating)1382_storage)": {
        "encoding": "mapping",
        "key": "t_address",
        "label": "mapping(address => struct TasksManager.clientRating)",
        "numberOfBytes": "32",
        "value": "t_struct(clientRating)1382_storage"
      },
      "t_mapping(t_address,t_struct(providerRating)1377_storage)": {
        "encoding": "mapping",
        "key": "t_address",
        "label": "mapping(address => struct TasksManager.providerRating)",
        "numberOfBytes": "32",
        "value": "t_struct(providerRating)1377_storage"
      },
      "t_mapping(t_bytes32,t_struct(Task)1372_storage)": {
        "encoding": "mapping",
        "key": "t_bytes32",
        "label": "mapping(bytes32 => struct TasksManager.Task)",
        "numberOfBytes": "32",
        "value": "t_struct(Task)1372_storage"
      },
      "t_string_storage": {
        "encoding": "bytes",
        "label": "string",
        "numberOfBytes": "32"
      },
      "t_struct(Task)1372_storage": {
        "encoding": "inplace",
        "label": "struct TasksManager.Task",
        "members": [
          {
            "astId": 1345,
            "contract": "contracts/TasksManager.sol:TasksManager",
            "label": "taskID",
            "offset": 0,
            "slot": "0",
            "type": "t_bytes32"
          },
          {
            "astId": 1347,
            "contract": "contracts/TasksManager.sol:TasksManager",
            "label": "client",
            "offset": 0,
            "slot": "1",
            "type": "t_address_payable"
          },
          {
            "astId": 1349,
            "contract": "contracts/TasksManager.sol:TasksManager",
            "label": "provider",
            "offset": 0,
            "slot": "2",
            "type": "t_address_payable"
          },
          {
            "astId": 1351,
            "contract": "contracts/TasksManager.sol:TasksManager",
            "label": "deadline",
            "offset": 0,
            "slot": "3",
            "type": "t_uint256"
          },
          {
            "astId": 1353,
            "contract": "contracts/TasksManager.sol:TasksManager",
            "label": "price",
            "offset": 0,
            "slot": "4",
            "type": "t_uint256"
          },
          {
            "astId": 1355,
            "contract": "contracts/TasksManager.sol:TasksManager",
            "label": "duration",
            "offset": 0,
            "slot": "5",
            "type": "t_uint256"
          },
          {
            "astId": 1357,
            "contract": "contracts/TasksManager.sol:TasksManager",
            "label": "activationTime",
            "offset": 0,
            "slot": "6",
            "type": "t_uint256"
          },
          {
            "astId": 1359,
            "contract": "contracts/TasksManager.sol:TasksManager",
            "label": "completionTime",
            "offset": 0,
            "slot": "7",
            "type": "t_uint256"
          },
          {
            "astId": 1361,
            "contract": "contracts/TasksManager.sol:TasksManager",
            "label": "code",
            "offset": 0,
            "slot": "8",
            "type": "t_string_storage"
          },
          {
            "astId": 1363,
            "contract": "contracts/TasksManager.sol:TasksManager",
            "label": "results",
            "offset": 0,
            "slot": "9",
            "type": "t_string_storage"
          },
          {
            "astId": 1365,
            "contract": "contracts/TasksManager.sol:TasksManager",
            "label": "clientVerification",
            "offset": 0,
            "slot": "10",
            "type": "t_bytes32"
          },
          {
            "astId": 1368,
            "contract": "contracts/TasksManager.sol:TasksManager",
            "label": "taskState",
            "offset": 0,
            "slot": "11",
            "type": "t_enum(TaskState)1339"
          },
          {
            "astId": 1371,
            "contract": "contracts/TasksManager.sol:TasksManager",
            "label": "paymentState",
            "offset": 1,
            "slot": "11",
            "type": "t_enum(PaymentState)1343"
          }
        ],
        "numberOfBytes": "384"
      },
      "t_struct(clientRating)1382_storage": {
        "encoding": "inplace",
        "label": "struct TasksManager.clientRating",
        "members": [
          {
            "astId": 1379,
            "contract": "contracts/TasksManager.sol:TasksManager",
            "label": "upVotes",
            "offset": 0,
            "slot": "0",
            "type": "t_uint256"
          },
          {
            "astId": 1381,
            "contract": "contracts/TasksManager.sol:TasksManager",
            "label": "downVotes",
            "offset": 0,
            "slot": "1",
            "type": "t_uint256"
          }
        ],
        "numberOfBytes": "64"
      },
      "t_struct(providerRating)1377_storage": {
        "encoding": "inplace",
        "label": "struct TasksManager.providerRating",
        "members": [
          {
            "astId": 1374,
            "contract": "contracts/TasksManager.sol:TasksManager",
            "label": "upVotes",
            "offset": 0,
            "slot": "0",
            "type": "t_uint256"
          },
          {
            "astId": 1376,
            "contract": "contracts/TasksManager.sol:TasksManager",
            "label": "downVotes",
            "offset": 0,
            "slot": "1",
            "type": "t_uint256"
          }
        ],
        "numberOfBytes": "64"
      },
      "t_uint256": {
        "encoding": "inplace",
        "label": "uint256",
        "numberOfBytes": "32"
      }
    }
  }
}