{
  "address": "0x5FbDB2315678afecb367f032d93F642f64180aa3",
  "abi": [
    {
      "inputs": [],
      "stateMutability": "nonpayable",
      "type": "constructor"
    },
    {
      "anonymous": false,
      "inputs": [
        {
          "indexed": false,
          "internalType": "bytes32",
          "name": "taskID",
          "type": "bytes32"
        }
      ],
      "name": "PaymentCompleted",
      "type": "event"
    },
    {
      "anonymous": false,
      "inputs": [
        {
          "indexed": false,
          "internalType": "bytes32",
          "name": "taskID",
          "type": "bytes32"
        },
        {
          "indexed": false,
          "internalType": "uint256",
          "name": "payment",
          "type": "uint256"
        }
      ],
      "name": "PaymentPending",
      "type": "event"
    },
    {
      "anonymous": false,
      "inputs": [
        {
          "indexed": false,
          "internalType": "address",
          "name": "provider",
          "type": "address"
        },
        {
          "indexed": false,
          "internalType": "bytes32",
          "name": "taskID",
          "type": "bytes32"
        }
      ],
      "name": "ProviderDownvoted",
      "type": "event"
    },
    {
      "anonymous": false,
      "inputs": [
        {
          "indexed": false,
          "internalType": "address",
          "name": "provider",
          "type": "address"
        },
        {
          "indexed": false,
          "internalType": "bytes32",
          "name": "taskID",
          "type": "bytes32"
        }
      ],
      "name": "ProviderUpvoted",
      "type": "event"
    },
    {
      "anonymous": false,
      "inputs": [
        {
          "indexed": false,
          "internalType": "bytes32",
          "name": "taskID",
          "type": "bytes32"
        }
      ],
      "name": "TaskActivated",
      "type": "event"
    },
    {
      "anonymous": false,
      "inputs": [
        {
          "indexed": false,
          "internalType": "bytes32",
          "name": "taskID",
          "type": "bytes32"
        }
      ],
      "name": "TaskCancelled",
      "type": "event"
    },
    {
      "anonymous": false,
      "inputs": [
        {
          "indexed": false,
          "internalType": "bytes32",
          "name": "taskID",
          "type": "bytes32"
        }
      ],
      "name": "TaskCompletedSuccessfully",
      "type": "event"
    },
    {
      "anonymous": false,
      "inputs": [
        {
          "indexed": false,
          "internalType": "bytes32",
          "name": "taskID",
          "type": "bytes32"
        }
      ],
      "name": "TaskCompletedUnsuccessfully",
      "type": "event"
    },
    {
      "anonymous": false,
      "inputs": [
        {
          "indexed": false,
          "internalType": "bytes32",
          "name": "taskID",
          "type": "bytes32"
        }
      ],
      "name": "TaskCreated",
      "type": "event"
    },
    {
      "anonymous": false,
      "inputs": [
        {
          "indexed": false,
          "internalType": "bytes32",
          "name": "taskID",
          "type": "bytes32"
        }
      ],
      "name": "TaskDeleted",
      "type": "event"
    },
    {
      "anonymous": false,
      "inputs": [
        {
          "indexed": false,
          "internalType": "bytes32",
          "name": "taskID",
          "type": "bytes32"
        }
      ],
      "name": "TaskInvalidated",
      "type": "event"
    },
    {
      "anonymous": false,
      "inputs": [
        {
          "indexed": false,
          "internalType": "bytes32",
          "name": "taskID",
          "type": "bytes32"
        }
      ],
      "name": "TaskReceivedResults",
      "type": "event"
    },
    {
      "anonymous": false,
      "inputs": [
        {
          "indexed": false,
          "internalType": "address",
          "name": "client",
          "type": "address"
        },
        {
          "indexed": false,
          "internalType": "uint256",
          "name": "amount",
          "type": "uint256"
        }
      ],
      "name": "TransferMadeToClient",
      "type": "event"
    },
    {
      "anonymous": false,
      "inputs": [
        {
          "indexed": false,
          "internalType": "address",
          "name": "provider",
          "type": "address"
        },
        {
          "indexed": false,
          "internalType": "uint256",
          "name": "amount",
          "type": "uint256"
        }
      ],
      "name": "TransferMadeToProvider",
      "type": "event"
    },
    {
      "stateMutability": "payable",
      "type": "fallback"
    },
    {
      "inputs": [
        {
          "internalType": "bytes32",
          "name": "_taskID",
          "type": "bytes32"
        }
      ],
      "name": "activateTask",
      "outputs": [],
      "stateMutability": "payable",
      "type": "function"
    },
    {
      "inputs": [
        {
          "internalType": "bytes32",
          "name": "_taskID",
          "type": "bytes32"
        }
      ],
      "name": "cancelTask",
      "outputs": [],
      "stateMutability": "nonpayable",
      "type": "function"
    },
    {
      "inputs": [
        {
          "internalType": "bytes32",
          "name": "_taskID",
          "type": "bytes32"
        }
      ],
      "name": "completePayment",
      "outputs": [],
      "stateMutability": "payable",
      "type": "function"
    },
    {
      "inputs": [
        {
          "internalType": "bytes32",
          "name": "_taskID",
          "type": "bytes32"
        },
        {
          "internalType": "string",
          "name": "ver",
          "type": "string"
        },
        {
          "internalType": "uint256",
          "name": "_duration",
          "type": "uint256"
        },
        {
          "internalType": "uint256",
          "name": "_timeReceivedProvider",
          "type": "uint256"
        }
      ],
      "name": "completeTask",
      "outputs": [],
      "stateMutability": "nonpayable",
      "type": "function"
    },
    {
      "inputs": [
        {
          "internalType": "bytes32",
          "name": "_taskID",
          "type": "bytes32"
        },
        {
          "internalType": "address payable",
          "name": "_provider",
          "type": "address"
        },
        {
          "internalType": "uint256",
          "name": "_price",
          "type": "uint256"
        },
        {
          "internalType": "uint256",
          "name": "_deadline",
          "type": "uint256"
        },
        {
          "internalType": "bytes32",
          "name": "_clientVerification",
          "type": "bytes32"
        },
        {
          "internalType": "string",
          "name": "_verificationCode",
          "type": "string"
        },
        {
          "internalType": "string",
          "name": "_computationCode",
          "type": "string"
        }
      ],
      "name": "createTask",
      "outputs": [],
      "stateMutability": "payable",
      "type": "function"
    },
    {
      "inputs": [
        {
          "internalType": "bytes32",
          "name": "_taskID",
          "type": "bytes32"
        }
      ],
      "name": "deleteTask",
      "outputs": [],
      "stateMutability": "nonpayable",
      "type": "function"
    },
    {
      "inputs": [
        {
          "internalType": "bytes32",
          "name": "_taskID",
          "type": "bytes32"
        }
      ],
      "name": "getActivationTime",
      "outputs": [
        {
          "internalType": "uint256",
          "name": "",
          "type": "uint256"
        }
      ],
      "stateMutability": "view",
      "type": "function"
    },
    {
      "inputs": [
        {
          "internalType": "bytes32",
          "name": "_taskID",
          "type": "bytes32"
        }
      ],
      "name": "getCost",
      "outputs": [
        {
          "internalType": "uint256",
          "name": "",
          "type": "uint256"
        }
      ],
      "stateMutability": "view",
      "type": "function"
    },
    {
      "inputs": [],
      "name": "getOwner",
      "outputs": [
        {
          "internalType": "address",
          "name": "",
          "type": "address"
        }
      ],
      "stateMutability": "view",
      "type": "function"
    },
    {
      "inputs": [
        {
          "internalType": "bytes32",
          "name": "_taskID",
          "type": "bytes32"
        }
      ],
      "name": "getPayment",
      "outputs": [
        {
          "internalType": "uint256",
          "name": "",
          "type": "uint256"
        }
      ],
      "stateMutability": "view",
      "type": "function"
    },
    {
      "inputs": [
        {
          "internalType": "bytes32",
          "name": "_taskID",
          "type": "bytes32"
        }
      ],
      "name": "getPaymentState",
      "outputs": [
        {
          "internalType": "string",
          "name": "",
          "type": "string"
        }
      ],
      "stateMutability": "view",
      "type": "function"
    },
    {
      "inputs": [
        {
          "internalType": "address",
          "name": "provider",
          "type": "address"
        }
      ],
      "name": "getPerformance",
      "outputs": [
        {
          "components": [
            {
              "internalType": "uint256",
              "name": "upVotes",
              "type": "uint256"
            },
            {
              "internalType": "uint256",
              "name": "downVotes",
              "type": "uint256"
            }
          ],
          "internalType": "struct TasksManager.providerRating",
          "name": "",
          "type": "tuple"
        }
      ],
      "stateMutability": "view",
      "type": "function"
    },
    {
      "inputs": [
        {
          "internalType": "bytes32",
          "name": "_taskID",
          "type": "bytes32"
        }
      ],
      "name": "getResults",
      "outputs": [
        {
          "internalType": "string",
          "name": "",
          "type": "string"
        }
      ],
      "stateMutability": "view",
      "type": "function"
    },
    {
      "inputs": [
        {
          "internalType": "bytes32",
          "name": "_taskID",
          "type": "bytes32"
        }
      ],
      "name": "getTask",
      "outputs": [
        {
          "components": [
            {
              "internalType": "address payable",
              "name": "client",
              "type": "address"
            },
            {
              "internalType": "address payable",
              "name": "provider",
              "type": "address"
            },
            {
              "internalType": "uint256",
              "name": "providerCollateral",
              "type": "uint256"
            },
            {
              "internalType": "uint256",
              "name": "clientCollateral",
              "type": "uint256"
            },
            {
              "internalType": "uint256",
              "name": "deadline",
              "type": "uint256"
            },
            {
              "internalType": "uint256",
              "name": "price",
              "type": "uint256"
            },
            {
              "internalType": "uint256",
              "name": "duration",
              "type": "uint256"
            },
            {
              "internalType": "uint256",
              "name": "cost",
              "type": "uint256"
            },
            {
              "internalType": "uint256",
              "name": "activationTime",
              "type": "uint256"
            },
            {
              "internalType": "uint256",
              "name": "timeResultProvided",
              "type": "uint256"
            },
            {
              "internalType": "uint256",
              "name": "timeResultReceived",
              "type": "uint256"
            },
            {
              "internalType": "string",
              "name": "computationCode",
              "type": "string"
            },
            {
              "internalType": "string",
              "name": "verificationCode",
              "type": "string"
            },
            {
              "internalType": "string",
              "name": "results",
              "type": "string"
            },
            {
              "internalType": "bytes32",
              "name": "clientVerification",
              "type": "bytes32"
            },
            {
              "internalType": "enum TasksManager.TaskState",
              "name": "taskState",
              "type": "uint8"
            },
            {
              "internalType": "enum TasksManager.PaymentState",
              "name": "paymentState",
              "type": "uint8"
            }
          ],
          "internalType": "struct TasksManager.Task",
          "name": "",
          "type": "tuple"
        }
      ],
      "stateMutability": "view",
      "type": "function"
    },
    {
      "inputs": [
        {
          "internalType": "bytes32",
          "name": "_taskID",
          "type": "bytes32"
        }
      ],
      "name": "getTaskState",
      "outputs": [
        {
          "internalType": "string",
          "name": "",
          "type": "string"
        }
      ],
      "stateMutability": "view",
      "type": "function"
    },
    {
      "inputs": [
        {
          "internalType": "bytes32",
          "name": "_taskID",
          "type": "bytes32"
        }
      ],
      "name": "invalidateTask",
      "outputs": [],
      "stateMutability": "nonpayable",
      "type": "function"
    },
    {
      "inputs": [
        {
          "internalType": "bytes32",
          "name": "_taskID",
          "type": "bytes32"
        }
      ],
      "name": "isRegistered",
      "outputs": [
        {
          "internalType": "bool",
          "name": "",
          "type": "bool"
        }
      ],
      "stateMutability": "view",
      "type": "function"
    },
    {
      "inputs": [
        {
          "internalType": "bytes32",
          "name": "_taskID",
          "type": "bytes32"
        },
        {
          "internalType": "string",
          "name": "_results",
          "type": "string"
        }
      ],
      "name": "receiveResults",
      "outputs": [],
      "stateMutability": "nonpayable",
      "type": "function"
    },
    {
      "stateMutability": "payable",
      "type": "receive"
    }
  ],
  "transactionHash": "0x91698deda47ae8041a77d58210ba36a85ae9f5b64012518ea7447cff2770a1a6",
  "args": [],
  "numDeployments": 1,
  "solcInputHash": "dc0e69d06f3541649e8e9900c36f4524",
  "bytecode": "0x60a060405234801561001057600080fd5b503373ffffffffffffffffffffffffffffffffffffffff1660808173ffffffffffffffffffffffffffffffffffffffff1660601b8152505060805160601c614fdc610089600039600081816104cd015281816127ec01528181612cad0152818161302b0152818161338e01526136580152614fdc6000f3fe60806040526004361061010d5760003560e01c8063784f2c1111610095578063ab210cc811610064578063ab210cc8146103ba578063b353034c146103f7578063e64f15a214610434578063e66eefc81461045d578063ee8ca3b51461049a5761014d565b8063784f2c111461031a5780638693944d14610336578063893d20e81461037357806392b833201461039e5761014d565b806346475c4c116100dc57806346475c4c1461023257806347ca8a8b1461026f578063513a66981461028b57806354706b5a146102b457806370ad1976146102dd5761014d565b806315a29035146101525780631ecc9aaf1461018f57806327258b22146101cc578063431685fb146102095761014d565b3661014d576040517f08c379a000000000000000000000000000000000000000000000000000000000815260040161014490613dcc565b60405180910390fd5b600080fd5b34801561015e57600080fd5b5061017960048036038101906101749190613e36565b6104c3565b604051610186919061419f565b60405180910390f35b34801561019b57600080fd5b506101b660048036038101906101b191906141ff565b6108ba565b6040516101c3919061425b565b60405180910390f35b3480156101d857600080fd5b506101f360048036038101906101ee9190613e36565b610927565b6040516102009190614291565b60405180910390f35b34801561021557600080fd5b50610230600480360381019061022b91906143e1565b610995565b005b34801561023e57600080fd5b5061025960048036038101906102549190613e36565b6114c5565b6040516102669190614476565b60405180910390f35b61028960048036038101906102849190613e36565b61172b565b005b34801561029757600080fd5b506102b260048036038101906102ad91906144c4565b611b83565b005b3480156102c057600080fd5b506102db60048036038101906102d69190613e36565b61209e565b005b3480156102e957600080fd5b5061030460048036038101906102ff9190613e36565b612413565b6040516103119190614556565b60405180910390f35b610334600480360381019061032f919061459d565b612432565b005b34801561034257600080fd5b5061035d60048036038101906103589190613e36565b612712565b60405161036a9190614476565b60405180910390f35b34801561037f57600080fd5b50610388612ca9565b6040516103959190614686565b60405180910390f35b6103b860048036038101906103b39190613e36565b612cd1565b005b3480156103c657600080fd5b506103e160048036038101906103dc9190613e36565b612f51565b6040516103ee9190614476565b60405180910390f35b34801561040357600080fd5b5061041e60048036038101906104199190613e36565b6132b4565b60405161042b9190614556565b60405180910390f35b34801561044057600080fd5b5061045b60048036038101906104569190613e36565b613439565b005b34801561046957600080fd5b50610484600480360381019061047f9190613e36565b61357e565b6040516104919190614556565b60405180910390f35b3480156104a657600080fd5b506104c160048036038101906104bc9190613e36565b613723565b005b6104cb613b9b565b7f000000000000000000000000000000000000000000000000000000000000000073ffffffffffffffffffffffffffffffffffffffff163373ffffffffffffffffffffffffffffffffffffffff1614610559576040517f08c379a000000000000000000000000000000000000000000000000000000000815260040161055090614713565b60405180910390fd5b600080838152602001908152602001600020604051806102200160405290816000820160009054906101000a900473ffffffffffffffffffffffffffffffffffffffff1673ffffffffffffffffffffffffffffffffffffffff1673ffffffffffffffffffffffffffffffffffffffff1681526020016001820160009054906101000a900473ffffffffffffffffffffffffffffffffffffffff1673ffffffffffffffffffffffffffffffffffffffff1673ffffffffffffffffffffffffffffffffffffffff1681526020016002820154815260200160038201548152602001600482015481526020016005820154815260200160068201548152602001600782015481526020016008820154815260200160098201548152602001600a8201548152602001600b8201805461068d90614762565b80601f01602080910402602001604051908101604052809291908181526020018280546106b990614762565b80156107065780601f106106db57610100808354040283529160200191610706565b820191906000526020600020905b8154815290600101906020018083116106e957829003601f168201915b50505050508152602001600c8201805461071f90614762565b80601f016020809104026020016040519081016040528092919081815260200182805461074b90614762565b80156107985780601f1061076d57610100808354040283529160200191610798565b820191906000526020600020905b81548152906001019060200180831161077b57829003601f168201915b50505050508152602001600d820180546107b190614762565b80601f01602080910402602001604051908101604052809291908181526020018280546107dd90614762565b801561082a5780601f106107ff5761010080835404028352916020019161082a565b820191906000526020600020905b81548152906001019060200180831161080d57829003601f168201915b50505050508152602001600e8201548152602001600f820160009054906101000a900460ff16600681111561086257610861613f65565b5b600681111561087457610873613f65565b5b8152602001600f820160019054906101000a900460ff16600281111561089d5761089c613f65565b5b60028111156108af576108ae613f65565b5b815250509050919050565b6108c2613c72565b600160008373ffffffffffffffffffffffffffffffffffffffff1673ffffffffffffffffffffffffffffffffffffffff168152602001908152602001600020604051806040016040529081600082015481526020016001820154815250509050919050565b60008073ffffffffffffffffffffffffffffffffffffffff1660008084815260200190815260200160002060000160009054906101000a900473ffffffffffffffffffffffffffffffffffffffff1673ffffffffffffffffffffffffffffffffffffffff1614159050919050565b8160008082815260200190815260200160002060010160009054906101000a900473ffffffffffffffffffffffffffffffffffffffff1673ffffffffffffffffffffffffffffffffffffffff163373ffffffffffffffffffffffffffffffffffffffff1614610a39576040517f08c379a0000000000000000000000000000000000000000000000000000000008152600401610a3090614806565b60405180910390fd5b826003806006811115610a4f57610a4e613f65565b5b600080848152602001908152602001600020600f0160009054906101000a900460ff166006811115610a8457610a83613f65565b5b14610ac4576040517f08c379a0000000000000000000000000000000000000000000000000000000008152600401610abb90614872565b60405180910390fd5b846000806002811115610ada57610ad9613f65565b5b600080848152602001908152602001600020600f0160019054906101000a900460ff166002811115610b0f57610b0e613f65565b5b14610b4f576040517f08c379a0000000000000000000000000000000000000000000000000000000008152600401610b46906148de565b60405180910390fd5b42600080898152602001908152602001600020600a018190555085600080898152602001908152602001600020600d019080519060200190610b92929190613c8c565b50610b9c876139e1565b156111f657600080888152602001908152602001600020600301546000808981526020019081526020016000206007015411610ef45760008088815260200190815260200160002060010160009054906101000a900473ffffffffffffffffffffffffffffffffffffffff1673ffffffffffffffffffffffffffffffffffffffff166108fc6000808a8152602001908152602001600020600201546000808b815260200190815260200160002060070154610c57919061492d565b9081150290604051600060405180830381858888f19350505050158015610c82573d6000803e3d6000fd5b507f4195fd9cd5f571cf9d14b2376c60201465a986f4a0469cebf0f0ee1d3e2022ab60008089815260200190815260200160002060010160009054906101000a900473ffffffffffffffffffffffffffffffffffffffff166000808a8152602001908152602001600020600201546000808b815260200190815260200160002060070154610d10919061492d565b604051610d1e9291906149e2565b60405180910390a160008088815260200190815260200160002060000160009054906101000a900473ffffffffffffffffffffffffffffffffffffffff1673ffffffffffffffffffffffffffffffffffffffff166108fc6000808a8152602001908152602001600020600301546000808b815260200190815260200160002060070154610dab9190614a0b565b9081150290604051600060405180830381858888f19350505050158015610dd6573d6000803e3d6000fd5b507fb56ab0c8ca3c4a2f3256c9dab1834145295ed481d85fd1afde56ff8c7298c3ec60008089815260200190815260200160002060000160009054906101000a900473ffffffffffffffffffffffffffffffffffffffff166000808a8152602001908152602001600020600301546000808b815260200190815260200160002060070154610e649190614a0b565b604051610e729291906149e2565b60405180910390a16002600080898152602001908152602001600020600f0160016101000a81548160ff02191690836002811115610eb357610eb2613f65565b5b02179055507ff2baea2668e36a27a898b8c745decb4439ff61ae04d545dcc6954b84bd3e3c4287604051610ee79190614a4e565b60405180910390a16110f5565b60008088815260200190815260200160002060010160009054906101000a900473ffffffffffffffffffffffffffffffffffffffff1673ffffffffffffffffffffffffffffffffffffffff166108fc6000808a8152602001908152602001600020600201546000808b815260200190815260200160002060030154610f79919061492d565b9081150290604051600060405180830381858888f19350505050158015610fa4573d6000803e3d6000fd5b507f4195fd9cd5f571cf9d14b2376c60201465a986f4a0469cebf0f0ee1d3e2022ab60008089815260200190815260200160002060010160009054906101000a900473ffffffffffffffffffffffffffffffffffffffff166000808a8152602001908152602001600020600201546000808b815260200190815260200160002060030154611032919061492d565b6040516110409291906149e2565b60405180910390a16001600080898152602001908152602001600020600f0160016101000a81548160ff0219169083600281111561108157611080613f65565b5b02179055507f0e94573b1be2e52f56af2fa73f97395af190b00bf516b0e90356c3619c4cdf7c876000808a8152602001908152602001600020600301546000808b8152602001908152602001600020600701546110de9190614a0b565b6040516110ec929190614a69565b60405180910390a15b60018060008060008b815260200190815260200160002060010160009054906101000a900473ffffffffffffffffffffffffffffffffffffffff1673ffffffffffffffffffffffffffffffffffffffff1673ffffffffffffffffffffffffffffffffffffffff168152602001908152602001600020600001600082825461117c919061492d565b925050819055507ff79072e0f370bb188b7c4d34ae8a5c9138b891e5df7cfa7ca412b518d30aaf7560008089815260200190815260200160002060010160009054906101000a900473ffffffffffffffffffffffffffffffffffffffff16886040516111e9929190614a92565b60405180910390a1611447565b60008088815260200190815260200160002060000160009054906101000a900473ffffffffffffffffffffffffffffffffffffffff1673ffffffffffffffffffffffffffffffffffffffff166108fc6000808a8152602001908152602001600020600201546000808b81526020019081526020016000206003015461127b919061492d565b9081150290604051600060405180830381858888f193505050501580156112a6573d6000803e3d6000fd5b507fb56ab0c8ca3c4a2f3256c9dab1834145295ed481d85fd1afde56ff8c7298c3ec60008089815260200190815260200160002060000160009054906101000a900473ffffffffffffffffffffffffffffffffffffffff166000808a8152602001908152602001600020600201546000808b815260200190815260200160002060030154611334919061492d565b6040516113429291906149e2565b60405180910390a160018060008060008b815260200190815260200160002060010160009054906101000a900473ffffffffffffffffffffffffffffffffffffffff1673ffffffffffffffffffffffffffffffffffffffff1673ffffffffffffffffffffffffffffffffffffffff16815260200190815260200160002060010160008282546113d1919061492d565b925050819055507f3fec1177d25f324e1beb970cd60f8b52ef1e47290a72bdb8f62101720f5e492760008089815260200190815260200160002060010160009054906101000a900473ffffffffffffffffffffffffffffffffffffffff168860405161143e929190614a92565b60405180910390a15b6006600080898152602001908152602001600020600f0160006101000a81548160ff021916908360068111156114805761147f613f65565b5b02179055507f10430a0d897130f1c1817a2fae7a4a171fa5609813a84ad394787130d7e50291876040516114b49190614a4e565b60405180910390a150505050505050565b60608160008082815260200190815260200160002060000160009054906101000a900473ffffffffffffffffffffffffffffffffffffffff1673ffffffffffffffffffffffffffffffffffffffff163373ffffffffffffffffffffffffffffffffffffffff161461156b576040517f08c379a000000000000000000000000000000000000000000000000000000000815260040161156290614b2d565b60405180910390fd5b82600680600681111561158157611580613f65565b5b600080848152602001908152602001600020600f0160009054906101000a900460ff1660068111156115b6576115b5613f65565b5b146115f6576040517f08c379a00000000000000000000000000000000000000000000000000000000081526004016115ed90614872565b60405180910390fd5b84600280600281111561160c5761160b613f65565b5b600080848152602001908152602001600020600f0160019054906101000a900460ff16600281111561164157611640613f65565b5b14611681576040517f08c379a0000000000000000000000000000000000000000000000000000000008152600401611678906148de565b60405180910390fd5b600080888152602001908152602001600020600d0180546116a190614762565b80601f01602080910402602001604051908101604052809291908181526020018280546116cd90614762565b801561171a5780601f106116ef5761010080835404028352916020019161171a565b820191906000526020600020905b8154815290600101906020018083116116fd57829003601f168201915b505050505095505050505050919050565b8060008082815260200190815260200160002060000160009054906101000a900473ffffffffffffffffffffffffffffffffffffffff1673ffffffffffffffffffffffffffffffffffffffff163373ffffffffffffffffffffffffffffffffffffffff16146117cf576040517f08c379a00000000000000000000000000000000000000000000000000000000081526004016117c690614b2d565b60405180910390fd5b8160068060068111156117e5576117e4613f65565b5b600080848152602001908152602001600020600f0160009054906101000a900460ff16600681111561181a57611819613f65565b5b1461185a576040517f08c379a000000000000000000000000000000000000000000000000000000000815260040161185190614872565b60405180910390fd5b8360018060028111156118705761186f613f65565b5b600080848152602001908152602001600020600f0160019054906101000a900460ff1660028111156118a5576118a4613f65565b5b146118e5576040517f08c379a00000000000000000000000000000000000000000000000000000000081526004016118dc906148de565b60405180910390fd5b600080878152602001908152602001600020600301546000808881526020019081526020016000206007015461191b9190614a0b565b80341461195d576040517f08c379a000000000000000000000000000000000000000000000000000000000815260040161195490614b99565b60405180910390fd5b6001600281111561197157611970613f65565b5b600080898152602001908152602001600020600f0160019054906101000a900460ff1660028111156119a6576119a5613f65565b5b146119e6576040517f08c379a00000000000000000000000000000000000000000000000000000000081526004016119dd90614c05565b60405180910390fd5b60008088815260200190815260200160002060010160009054906101000a900473ffffffffffffffffffffffffffffffffffffffff1673ffffffffffffffffffffffffffffffffffffffff166108fc349081150290604051600060405180830381858888f19350505050158015611a61573d6000803e3d6000fd5b507f4195fd9cd5f571cf9d14b2376c60201465a986f4a0469cebf0f0ee1d3e2022ab60008089815260200190815260200160002060010160009054906101000a900473ffffffffffffffffffffffffffffffffffffffff166000808a8152602001908152602001600020600301546000808b815260200190815260200160002060070154611aef9190614a0b565b604051611afd9291906149e2565b60405180910390a16002600080898152602001908152602001600020600f0160016101000a81548160ff02191690836002811115611b3e57611b3d613f65565b5b02179055507ff2baea2668e36a27a898b8c745decb4439ff61ae04d545dcc6954b84bd3e3c4287604051611b729190614a4e565b60405180910390a150505050505050565b8360008082815260200190815260200160002060010160009054906101000a900473ffffffffffffffffffffffffffffffffffffffff1673ffffffffffffffffffffffffffffffffffffffff163373ffffffffffffffffffffffffffffffffffffffff1614611c27576040517f08c379a0000000000000000000000000000000000000000000000000000000008152600401611c1e90614806565b60405180910390fd5b846002806006811115611c3d57611c3c613f65565b5b600080848152602001908152602001600020600f0160009054906101000a900460ff166006811115611c7257611c71613f65565b5b14611cb2576040517f08c379a0000000000000000000000000000000000000000000000000000000008152600401611ca990614872565b60405180910390fd5b83600080898152602001908152602001600020600901819055508460008089815260200190815260200160002060060181905550611cef87613ac6565b8015611d015750611d008787613b53565b5b15611dcf576000808881526020019081526020016000206006015460008089815260200190815260200160002060050154611d3c9190614c25565b600080898152602001908152602001600020600701819055506003600080898152602001908152602001600020600f0160006101000a81548160ff02191690836006811115611d8e57611d8d613f65565b5b02179055507f4176d26ab2247b0b92e698330257544613ee9100fad5c65d61aec36a2a877b7d87604051611dc29190614a4e565b60405180910390a1612095565b60008088815260200190815260200160002060000160009054906101000a900473ffffffffffffffffffffffffffffffffffffffff1673ffffffffffffffffffffffffffffffffffffffff166108fc6000808a8152602001908152602001600020600201546000808b815260200190815260200160002060030154611e54919061492d565b9081150290604051600060405180830381858888f19350505050158015611e7f573d6000803e3d6000fd5b507fb56ab0c8ca3c4a2f3256c9dab1834145295ed481d85fd1afde56ff8c7298c3ec60008089815260200190815260200160002060000160009054906101000a900473ffffffffffffffffffffffffffffffffffffffff166000808a8152602001908152602001600020600201546000808b815260200190815260200160002060030154611f0d919061492d565b604051611f1b9291906149e2565b60405180910390a160018060008060008b815260200190815260200160002060010160009054906101000a900473ffffffffffffffffffffffffffffffffffffffff1673ffffffffffffffffffffffffffffffffffffffff1673ffffffffffffffffffffffffffffffffffffffff1681526020019081526020016000206001016000828254611faa919061492d565b925050819055507f3fec1177d25f324e1beb970cd60f8b52ef1e47290a72bdb8f62101720f5e492760008089815260200190815260200160002060010160009054906101000a900473ffffffffffffffffffffffffffffffffffffffff1688604051612017929190614a92565b60405180910390a16004600080898152602001908152602001600020600f0160006101000a81548160ff0219169083600681111561205857612057613f65565b5b02179055507f1feb95f113fd9e6280236d043c8da4ca59e052f4783ce6a83f261c1aaa865b178760405161208c9190614a4e565b60405180910390a15b50505050505050565b8060008082815260200190815260200160002060000160009054906101000a900473ffffffffffffffffffffffffffffffffffffffff1673ffffffffffffffffffffffffffffffffffffffff163373ffffffffffffffffffffffffffffffffffffffff1614612142576040517f08c379a000000000000000000000000000000000000000000000000000000000815260040161213990614b2d565b60405180910390fd5b81600280600681111561215857612157613f65565b5b600080848152602001908152602001600020600f0160009054906101000a900460ff16600681111561218d5761218c613f65565b5b146121cd576040517f08c379a00000000000000000000000000000000000000000000000000000000081526004016121c490614872565b60405180910390fd5b6000808581526020019081526020016000206004015460008086815260200190815260200160002060080154612203919061492d565b4211612244576040517f08c379a000000000000000000000000000000000000000000000000000000000815260040161223b90614ccb565b60405180910390fd5b6005600080868152602001908152602001600020600f0160006101000a81548160ff0219169083600681111561227d5761227c613f65565b5b021790555060008085815260200190815260200160002060000160009054906101000a900473ffffffffffffffffffffffffffffffffffffffff1673ffffffffffffffffffffffffffffffffffffffff166108fc6000808781526020019081526020016000206002015460008088815260200190815260200160002060030154612307919061492d565b9081150290604051600060405180830381858888f19350505050158015612332573d6000803e3d6000fd5b507fb56ab0c8ca3c4a2f3256c9dab1834145295ed481d85fd1afde56ff8c7298c3ec60008086815260200190815260200160002060000160009054906101000a900473ffffffffffffffffffffffffffffffffffffffff1660008087815260200190815260200160002060020154600080888152602001908152602001600020600301546123c0919061492d565b6040516123ce9291906149e2565b60405180910390a17fa07d0b7132fa6b208a063af8026a29c1fa7ea1f98ffc9682615585318a6b25d6846040516124059190614a4e565b60405180910390a150505050565b6000806000838152602001908152602001600020600801549050919050565b8661243c81610927565b1561247c576040517f08c379a000000000000000000000000000000000000000000000000000000000815260040161247390614d37565b60405180910390fd5b6002866124899190614c25565b3410156124cb576040517f08c379a00000000000000000000000000000000000000000000000000000000081526004016124c290614da3565b60405180910390fd5b336000808a815260200190815260200160002060000160006101000a81548173ffffffffffffffffffffffffffffffffffffffff021916908373ffffffffffffffffffffffffffffffffffffffff160217905550346000808a815260200190815260200160002060030181905550866000808a815260200190815260200160002060010160006101000a81548173ffffffffffffffffffffffffffffffffffffffff021916908373ffffffffffffffffffffffffffffffffffffffff160217905550600a8661259a9190614c25565b6000808a815260200190815260200160002060020181905550856000808a815260200190815260200160002060050181905550846000808a815260200190815260200160002060040181905550836000808a8152602001908152602001600020600e0181905550826000808a8152602001908152602001600020600c01908051906020019061262a929190613c8c565b50816000808a8152602001908152602001600020600b019080519060200190612654929190613c8c565b5060008060008a8152602001908152602001600020600f0160006101000a81548160ff0219169083600681111561268e5761268d613f65565b5b021790555060008060008a8152602001908152602001600020600f0160016101000a81548160ff021916908360028111156126cc576126cb613f65565b5b02179055507f1e28175955a872c8252a6e5cf36ac6b318d074eb78b49731e5cb9ddc2d870b63886040516127009190614a4e565b60405180910390a15050505050505050565b60608160008082815260200190815260200160002060000160009054906101000a900473ffffffffffffffffffffffffffffffffffffffff1673ffffffffffffffffffffffffffffffffffffffff163373ffffffffffffffffffffffffffffffffffffffff1614806127e4575060008082815260200190815260200160002060010160009054906101000a900473ffffffffffffffffffffffffffffffffffffffff1673ffffffffffffffffffffffffffffffffffffffff163373ffffffffffffffffffffffffffffffffffffffff16145b8061283a57507f000000000000000000000000000000000000000000000000000000000000000073ffffffffffffffffffffffffffffffffffffffff163373ffffffffffffffffffffffffffffffffffffffff16145b612879576040517f08c379a000000000000000000000000000000000000000000000000000000000815260040161287090614e35565b60405180910390fd5b6000604051806020016040528060008152509050600060068111156128a1576128a0613f65565b5b600080868152602001908152602001600020600f0160009054906101000a900460ff1660068111156128d6576128d5613f65565b5b1415612919576040518060400160405280600781526020017f43726561746564000000000000000000000000000000000000000000000000008152509050612c9f565b6001600681111561292d5761292c613f65565b5b600080868152602001908152602001600020600f0160009054906101000a900460ff16600681111561296257612961613f65565b5b14156129a5576040518060400160405280600981526020017f43616e63656c6c656400000000000000000000000000000000000000000000008152509050612c9e565b600260068111156129b9576129b8613f65565b5b600080868152602001908152602001600020600f0160009054906101000a900460ff1660068111156129ee576129ed613f65565b5b1415612a31576040518060400160405280600681526020017f41637469766500000000000000000000000000000000000000000000000000008152509050612c9d565b60036006811115612a4557612a44613f65565b5b600080868152602001908152602001600020600f0160009054906101000a900460ff166006811115612a7a57612a79613f65565b5b1415612abd576040518060400160405280601581526020017f436f6d706c657465645375636365737366756c6c7900000000000000000000008152509050612c9c565b60046006811115612ad157612ad0613f65565b5b600080868152602001908152602001600020600f0160009054906101000a900460ff166006811115612b0657612b05613f65565b5b1415612b49576040518060400160405280601781526020017f436f6d706c65746564556e7375636365737366756c6c790000000000000000008152509050612c9b565b60056006811115612b5d57612b5c613f65565b5b600080868152602001908152602001600020600f0160009054906101000a900460ff166006811115612b9257612b91613f65565b5b1415612bd5576040518060400160405280600781526020017f496e76616c6964000000000000000000000000000000000000000000000000008152509050612c9a565b600680811115612be857612be7613f65565b5b600080868152602001908152602001600020600f0160009054906101000a900460ff166006811115612c1d57612c1c613f65565b5b1415612c60576040518060400160405280600f81526020017f526573756c7473526563656976656400000000000000000000000000000000008152509050612c99565b6040518060400160405280600581526020017f4572726f7200000000000000000000000000000000000000000000000000000081525090505b5b5b5b5b5b5b8092505050919050565b60007f0000000000000000000000000000000000000000000000000000000000000000905090565b8060008082815260200190815260200160002060010160009054906101000a900473ffffffffffffffffffffffffffffffffffffffff1673ffffffffffffffffffffffffffffffffffffffff163373ffffffffffffffffffffffffffffffffffffffff1614612d75576040517f08c379a0000000000000000000000000000000000000000000000000000000008152600401612d6c90614806565b60405180910390fd5b816000806006811115612d8b57612d8a613f65565b5b600080848152602001908152602001600020600f0160009054906101000a900460ff166006811115612dc057612dbf613f65565b5b14612e00576040517f08c379a0000000000000000000000000000000000000000000000000000000008152600401612df790614872565b60405180910390fd5b83612e0a81610927565b612e49576040517f08c379a0000000000000000000000000000000000000000000000000000000008152600401612e4090614ea1565b60405180910390fd5b60008086815260200190815260200160002060020154341015612ea1576040517f08c379a0000000000000000000000000000000000000000000000000000000008152600401612e9890614f33565b60405180910390fd5b426000808781526020019081526020016000206008018190555034600080878152602001908152602001600020600201819055506002600080878152602001908152602001600020600f0160006101000a81548160ff02191690836006811115612f0e57612f0d613f65565b5b02179055507fce708d6b67215419755514077f148edc2ee99fe51d758948ee62feea825d703885604051612f429190614a4e565b60405180910390a15050505050565b60608160008082815260200190815260200160002060000160009054906101000a900473ffffffffffffffffffffffffffffffffffffffff1673ffffffffffffffffffffffffffffffffffffffff163373ffffffffffffffffffffffffffffffffffffffff161480613023575060008082815260200190815260200160002060010160009054906101000a900473ffffffffffffffffffffffffffffffffffffffff1673ffffffffffffffffffffffffffffffffffffffff163373ffffffffffffffffffffffffffffffffffffffff16145b8061307957507f000000000000000000000000000000000000000000000000000000000000000073ffffffffffffffffffffffffffffffffffffffff163373ffffffffffffffffffffffffffffffffffffffff16145b6130b8576040517f08c379a00000000000000000000000000000000000000000000000000000000081526004016130af90614e35565b60405180910390fd5b6000604051806020016040528060008152509050600060028111156130e0576130df613f65565b5b600080868152602001908152602001600020600f0160019054906101000a900460ff16600281111561311557613114613f65565b5b1415613158576040518060400160405280600b81526020017f496e697469616c697a656400000000000000000000000000000000000000000081525090506132aa565b6001600281111561316c5761316b613f65565b5b600080868152602001908152602001600020600f0160019054906101000a900460ff1660028111156131a1576131a0613f65565b5b14156131e4576040518060400160405280600781526020017f50656e64696e670000000000000000000000000000000000000000000000000081525090506132a9565b6002808111156131f7576131f6613f65565b5b600080868152602001908152602001600020600f0160019054906101000a900460ff16600281111561322c5761322b613f65565b5b141561326f576040518060400160405280600981526020017f436f6d706c65746564000000000000000000000000000000000000000000000081525090506132a8565b6040518060400160405280600581526020017f4572726f7200000000000000000000000000000000000000000000000000000081525090505b5b5b8092505050919050565b60008160008082815260200190815260200160002060000160009054906101000a900473ffffffffffffffffffffffffffffffffffffffff1673ffffffffffffffffffffffffffffffffffffffff163373ffffffffffffffffffffffffffffffffffffffff161480613386575060008082815260200190815260200160002060010160009054906101000a900473ffffffffffffffffffffffffffffffffffffffff1673ffffffffffffffffffffffffffffffffffffffff163373ffffffffffffffffffffffffffffffffffffffff16145b806133dc57507f000000000000000000000000000000000000000000000000000000000000000073ffffffffffffffffffffffffffffffffffffffff163373ffffffffffffffffffffffffffffffffffffffff16145b61341b576040517f08c379a000000000000000000000000000000000000000000000000000000000815260040161341290614e35565b60405180910390fd5b60008084815260200190815260200160002060070154915050919050565b600080828152602001908152602001600020600080820160006101000a81549073ffffffffffffffffffffffffffffffffffffffff02191690556001820160006101000a81549073ffffffffffffffffffffffffffffffffffffffff021916905560028201600090556003820160009055600482016000905560058201600090556006820160009055600782016000905560088201600090556009820160009055600a820160009055600b820160006134f29190613d12565b600c820160006135029190613d12565b600d820160006135129190613d12565b600e820160009055600f820160006101000a81549060ff0219169055600f820160016101000a81549060ff021916905550507fa96209878fc4722b56527db6cf4b72ad6bfddb3ad9968f7de1125d02acc9aa10816040516135739190614a4e565b60405180910390a150565b60008160008082815260200190815260200160002060000160009054906101000a900473ffffffffffffffffffffffffffffffffffffffff1673ffffffffffffffffffffffffffffffffffffffff163373ffffffffffffffffffffffffffffffffffffffff161480613650575060008082815260200190815260200160002060010160009054906101000a900473ffffffffffffffffffffffffffffffffffffffff1673ffffffffffffffffffffffffffffffffffffffff163373ffffffffffffffffffffffffffffffffffffffff16145b806136a657507f000000000000000000000000000000000000000000000000000000000000000073ffffffffffffffffffffffffffffffffffffffff163373ffffffffffffffffffffffffffffffffffffffff16145b6136e5576040517f08c379a00000000000000000000000000000000000000000000000000000000081526004016136dc90614e35565b60405180910390fd5b600080848152602001908152602001600020600301546000808581526020019081526020016000206007015461371b9190614a0b565b915050919050565b8060008082815260200190815260200160002060000160009054906101000a900473ffffffffffffffffffffffffffffffffffffffff1673ffffffffffffffffffffffffffffffffffffffff163373ffffffffffffffffffffffffffffffffffffffff16146137c7576040517f08c379a00000000000000000000000000000000000000000000000000000000081526004016137be90614b2d565b60405180910390fd5b8160008060068111156137dd576137dc613f65565b5b600080848152602001908152602001600020600f0160009054906101000a900460ff16600681111561381257613811613f65565b5b14613852576040517f08c379a000000000000000000000000000000000000000000000000000000000815260040161384990614872565b60405180910390fd5b6001600080868152602001908152602001600020600f0160006101000a81548160ff0219169083600681111561388b5761388a613f65565b5b021790555060008085815260200190815260200160002060000160009054906101000a900473ffffffffffffffffffffffffffffffffffffffff1673ffffffffffffffffffffffffffffffffffffffff166108fc600080878152602001908152602001600020600301549081150290604051600060405180830381858888f19350505050158015613920573d6000803e3d6000fd5b507fb56ab0c8ca3c4a2f3256c9dab1834145295ed481d85fd1afde56ff8c7298c3ec60008086815260200190815260200160002060000160009054906101000a900473ffffffffffffffffffffffffffffffffffffffff166000808781526020019081526020016000206003015460405161399c9291906149e2565b60405180910390a17fe1e1d79b8f28d3379fc32f617eaf54dd6bd4071074c77e91134770e04a81d626846040516139d39190614a4e565b60405180910390a150505050565b6000603c60008084815260200190815260200160002060090154613a05919061492d565b600080848152602001908152602001600020600a015411158015613a53575060008083815260200190815260200160002060090154600080848152602001908152602001600020600a015410155b8015613a89575060008083815260200190815260200160002060080154600080848152602001908152602001600020600a015410155b8015613abf5750600080838152602001908152602001600020600801546000808481526020019081526020016000206009015410155b9050919050565b60008060008381526020019081526020016000206004015460008084815260200190815260200160002060080154613afe919061492d565b6000808481526020019081526020016000206009015411158015613b4c5750600080838152602001908152602001600020600401546000808481526020019081526020016000206006015411155b9050919050565b600081604051602001613b669190614f8f565b60405160208183030381529060405280519060200120600080858152602001908152602001600020600e015414905092915050565b604051806102200160405280600073ffffffffffffffffffffffffffffffffffffffff168152602001600073ffffffffffffffffffffffffffffffffffffffff1681526020016000815260200160008152602001600081526020016000815260200160008152602001600081526020016000815260200160008152602001600081526020016060815260200160608152602001606081526020016000801916815260200160006006811115613c5357613c52613f65565b5b815260200160006002811115613c6c57613c6b613f65565b5b81525090565b604051806040016040528060008152602001600081525090565b828054613c9890614762565b90600052602060002090601f016020900481019282613cba5760008555613d01565b82601f10613cd357805160ff1916838001178555613d01565b82800160010185558215613d01579182015b82811115613d00578251825591602001919060010190613ce5565b5b509050613d0e9190613d52565b5090565b508054613d1e90614762565b6000825580601f10613d305750613d4f565b601f016020900490600052602060002090810190613d4e9190613d52565b5b50565b5b80821115613d6b576000816000905550600101613d53565b5090565b600082825260208201905092915050565b7f6261642063616c6c000000000000000000000000000000000000000000000000600082015250565b6000613db6600883613d6f565b9150613dc182613d80565b602082019050919050565b60006020820190508181036000830152613de581613da9565b9050919050565b6000604051905090565b600080fd5b600080fd5b6000819050919050565b613e1381613e00565b8114613e1e57600080fd5b50565b600081359050613e3081613e0a565b92915050565b600060208284031215613e4c57613e4b613df6565b5b6000613e5a84828501613e21565b91505092915050565b600073ffffffffffffffffffffffffffffffffffffffff82169050919050565b6000613e8e82613e63565b9050919050565b613e9e81613e83565b82525050565b6000819050919050565b613eb781613ea4565b82525050565b600081519050919050565b600082825260208201905092915050565b60005b83811015613ef7578082015181840152602081019050613edc565b83811115613f06576000848401525b50505050565b6000601f19601f8301169050919050565b6000613f2882613ebd565b613f328185613ec8565b9350613f42818560208601613ed9565b613f4b81613f0c565b840191505092915050565b613f5f81613e00565b82525050565b7f4e487b7100000000000000000000000000000000000000000000000000000000600052602160045260246000fd5b60078110613fa557613fa4613f65565b5b50565b6000819050613fb682613f94565b919050565b6000613fc682613fa8565b9050919050565b613fd681613fbb565b82525050565b60038110613fed57613fec613f65565b5b50565b6000819050613ffe82613fdc565b919050565b600061400e82613ff0565b9050919050565b61401e81614003565b82525050565b60006102208301600083015161403d6000860182613e95565b5060208301516140506020860182613e95565b5060408301516140636040860182613eae565b5060608301516140766060860182613eae565b5060808301516140896080860182613eae565b5060a083015161409c60a0860182613eae565b5060c08301516140af60c0860182613eae565b5060e08301516140c260e0860182613eae565b506101008301516140d7610100860182613eae565b506101208301516140ec610120860182613eae565b50610140830151614101610140860182613eae565b5061016083015184820361016086015261411b8282613f1d565b9150506101808301518482036101808601526141378282613f1d565b9150506101a08301518482036101a08601526141538282613f1d565b9150506101c083015161416a6101c0860182613f56565b506101e083015161417f6101e0860182613fcd565b50610200830151614194610200860182614015565b508091505092915050565b600060208201905081810360008301526141b98184614024565b905092915050565b60006141cc82613e63565b9050919050565b6141dc816141c1565b81146141e757600080fd5b50565b6000813590506141f9816141d3565b92915050565b60006020828403121561421557614214613df6565b5b6000614223848285016141ea565b91505092915050565b6040820160008201516142426000850182613eae565b5060208201516142556020850182613eae565b50505050565b6000604082019050614270600083018461422c565b92915050565b60008115159050919050565b61428b81614276565b82525050565b60006020820190506142a66000830184614282565b92915050565b600080fd5b600080fd5b7f4e487b7100000000000000000000000000000000000000000000000000000000600052604160045260246000fd5b6142ee82613f0c565b810181811067ffffffffffffffff8211171561430d5761430c6142b6565b5b80604052505050565b6000614320613dec565b905061432c82826142e5565b919050565b600067ffffffffffffffff82111561434c5761434b6142b6565b5b61435582613f0c565b9050602081019050919050565b82818337600083830152505050565b600061438461437f84614331565b614316565b9050828152602081018484840111156143a05761439f6142b1565b5b6143ab848285614362565b509392505050565b600082601f8301126143c8576143c76142ac565b5b81356143d8848260208601614371565b91505092915050565b600080604083850312156143f8576143f7613df6565b5b600061440685828601613e21565b925050602083013567ffffffffffffffff81111561442757614426613dfb565b5b614433858286016143b3565b9150509250929050565b600061444882613ebd565b6144528185613d6f565b9350614462818560208601613ed9565b61446b81613f0c565b840191505092915050565b60006020820190508181036000830152614490818461443d565b905092915050565b6144a181613ea4565b81146144ac57600080fd5b50565b6000813590506144be81614498565b92915050565b600080600080608085870312156144de576144dd613df6565b5b60006144ec87828801613e21565b945050602085013567ffffffffffffffff81111561450d5761450c613dfb565b5b614519878288016143b3565b935050604061452a878288016144af565b925050606061453b878288016144af565b91505092959194509250565b61455081613ea4565b82525050565b600060208201905061456b6000830184614547565b92915050565b61457a81613e83565b811461458557600080fd5b50565b60008135905061459781614571565b92915050565b600080600080600080600060e0888a0312156145bc576145bb613df6565b5b60006145ca8a828b01613e21565b97505060206145db8a828b01614588565b96505060406145ec8a828b016144af565b95505060606145fd8a828b016144af565b945050608061460e8a828b01613e21565b93505060a088013567ffffffffffffffff81111561462f5761462e613dfb565b5b61463b8a828b016143b3565b92505060c088013567ffffffffffffffff81111561465c5761465b613dfb565b5b6146688a828b016143b3565b91505092959891949750929550565b614680816141c1565b82525050565b600060208201905061469b6000830184614677565b92915050565b7f4d6574686f642063616e2062652063616c6c6564206f6e6c79206279206f776e60008201527f65722e0000000000000000000000000000000000000000000000000000000000602082015250565b60006146fd602383613d6f565b9150614708826146a1565b604082019050919050565b6000602082019050818103600083015261472c816146f0565b9050919050565b7f4e487b7100000000000000000000000000000000000000000000000000000000600052602260045260246000fd5b6000600282049050600182168061477a57607f821691505b6020821081141561478e5761478d614733565b5b50919050565b7f4d6574686f642063616e2062652063616c6c6564206f6e6c792062792070726f60008201527f76696465722e0000000000000000000000000000000000000000000000000000602082015250565b60006147f0602683613d6f565b91506147fb82614794565b604082019050919050565b6000602082019050818103600083015261481f816147e3565b9050919050565b7f496e76616c6964205461736b53746174652e0000000000000000000000000000600082015250565b600061485c601283613d6f565b915061486782614826565b602082019050919050565b6000602082019050818103600083015261488b8161484f565b9050919050565b7f496e76616c6964205061796d656e7453746174652e0000000000000000000000600082015250565b60006148c8601583613d6f565b91506148d382614892565b602082019050919050565b600060208201905081810360008301526148f7816148bb565b9050919050565b7f4e487b7100000000000000000000000000000000000000000000000000000000600052601160045260246000fd5b600061493882613ea4565b915061494383613ea4565b9250827fffffffffffffffffffffffffffffffffffffffffffffffffffffffffffffffff03821115614978576149776148fe565b5b828201905092915050565b6000819050919050565b60006149a86149a361499e84613e63565b614983565b613e63565b9050919050565b60006149ba8261498d565b9050919050565b60006149cc826149af565b9050919050565b6149dc816149c1565b82525050565b60006040820190506149f760008301856149d3565b614a046020830184614547565b9392505050565b6000614a1682613ea4565b9150614a2183613ea4565b925082821015614a3457614a336148fe565b5b828203905092915050565b614a4881613e00565b82525050565b6000602082019050614a636000830184614a3f565b92915050565b6000604082019050614a7e6000830185614a3f565b614a8b6020830184614547565b9392505050565b6000604082019050614aa760008301856149d3565b614ab46020830184614a3f565b9392505050565b7f4d6574686f642063616e2062652063616c6c6564206f6e6c7920627920636c6960008201527f656e742e00000000000000000000000000000000000000000000000000000000602082015250565b6000614b17602483613d6f565b9150614b2282614abb565b604082019050919050565b60006020820190508181036000830152614b4681614b0a565b9050919050565b7f56616c75652073656e74206973206e6f74207468652065787065637465640000600082015250565b6000614b83601e83613d6f565b9150614b8e82614b4d565b602082019050919050565b60006020820190508181036000830152614bb281614b76565b9050919050565b7f5061796d656e74206e6f74206e65656465640000000000000000000000000000600082015250565b6000614bef601283613d6f565b9150614bfa82614bb9565b602082019050919050565b60006020820190508181036000830152614c1e81614be2565b9050919050565b6000614c3082613ea4565b9150614c3b83613ea4565b9250817fffffffffffffffffffffffffffffffffffffffffffffffffffffffffffffffff0483118215151615614c7457614c736148fe565b5b828202905092915050565b7f54696d6520686173206e6f7420657870697265642e0000000000000000000000600082015250565b6000614cb5601583613d6f565b9150614cc082614c7f565b602082019050919050565b60006020820190508181036000830152614ce481614ca8565b9050919050565b7f5461736b20616c72656164792065786973747300000000000000000000000000600082015250565b6000614d21601383613d6f565b9150614d2c82614ceb565b602082019050919050565b60006020820190508181036000830152614d5081614d14565b9050919050565b7f436c69656e7420636f6c6c61746572616c206973206e6f7420656e6f75676800600082015250565b6000614d8d601f83613d6f565b9150614d9882614d57565b602082019050919050565b60006020820190508181036000830152614dbc81614d80565b9050919050565b7f4d6574686f642063616e2062652063616c6c6564206f6e6c7920627920636c6960008201527f656e742c2070726f7669646572206f7220746865206f776e65722e0000000000602082015250565b6000614e1f603b83613d6f565b9150614e2a82614dc3565b604082019050919050565b60006020820190508181036000830152614e4e81614e12565b9050919050565b7f5461736b206d7573742062652072656769737465726564000000000000000000600082015250565b6000614e8b601783613d6f565b9150614e9682614e55565b602082019050919050565b60006020820190508181036000830152614eba81614e7e565b9050919050565b7f50726f766964657220636f6c6c61746572616c206973206e6f7420656e6f756760008201527f6800000000000000000000000000000000000000000000000000000000000000602082015250565b6000614f1d602183613d6f565b9150614f2882614ec1565b604082019050919050565b60006020820190508181036000830152614f4c81614f10565b9050919050565b600081905092915050565b6000614f6982613ebd565b614f738185614f53565b9350614f83818560208601613ed9565b80840191505092915050565b6000614f9b8284614f5e565b91508190509291505056fea26469706673582212208c25d8aa5dd2ef82223f2107ddee645fa8c55a706345ed3801cac61b799b2b6c64736f6c63430008080033",
  "devdoc": {
    "kind": "dev",
    "methods": {},
    "version": 1
  },
  "userdoc": {
    "kind": "user",
    "methods": {},
    "version": 1
  },
  "storageLayout": {
    "storage": [
      {
        "astId": 62,
        "contract": "contracts/TasksManager.sol:TasksManager",
        "label": "tasks",
        "offset": 0,
        "slot": "0",
        "type": "t_mapping(t_bytes32,t_struct(Task)52_storage)"
      },
      {
        "astId": 67,
        "contract": "contracts/TasksManager.sol:TasksManager",
        "label": "performance",
        "offset": 0,
        "slot": "1",
        "type": "t_mapping(t_address,t_struct(providerRating)57_storage)"
      }
    ],
    "types": {
      "t_address": {
        "encoding": "inplace",
        "label": "address",
        "numberOfBytes": "20"
      },
      "t_address_payable": {
        "encoding": "inplace",
        "label": "address payable",
        "numberOfBytes": "20"
      },
      "t_bytes32": {
        "encoding": "inplace",
        "label": "bytes32",
        "numberOfBytes": "32"
      },
      "t_enum(PaymentState)15": {
        "encoding": "inplace",
        "label": "enum TasksManager.PaymentState",
        "numberOfBytes": "1"
      },
      "t_enum(TaskState)11": {
        "encoding": "inplace",
        "label": "enum TasksManager.TaskState",
        "numberOfBytes": "1"
      },
      "t_mapping(t_address,t_struct(providerRating)57_storage)": {
        "encoding": "mapping",
        "key": "t_address",
        "label": "mapping(address => struct TasksManager.providerRating)",
        "numberOfBytes": "32",
        "value": "t_struct(providerRating)57_storage"
      },
      "t_mapping(t_bytes32,t_struct(Task)52_storage)": {
        "encoding": "mapping",
        "key": "t_bytes32",
        "label": "mapping(bytes32 => struct TasksManager.Task)",
        "numberOfBytes": "32",
        "value": "t_struct(Task)52_storage"
      },
      "t_string_storage": {
        "encoding": "bytes",
        "label": "string",
        "numberOfBytes": "32"
      },
      "t_struct(Task)52_storage": {
        "encoding": "inplace",
        "label": "struct TasksManager.Task",
        "members": [
          {
            "astId": 17,
            "contract": "contracts/TasksManager.sol:TasksManager",
            "label": "client",
            "offset": 0,
            "slot": "0",
            "type": "t_address_payable"
          },
          {
            "astId": 19,
            "contract": "contracts/TasksManager.sol:TasksManager",
            "label": "provider",
            "offset": 0,
            "slot": "1",
            "type": "t_address_payable"
          },
          {
            "astId": 21,
            "contract": "contracts/TasksManager.sol:TasksManager",
            "label": "providerCollateral",
            "offset": 0,
            "slot": "2",
            "type": "t_uint256"
          },
          {
            "astId": 23,
            "contract": "contracts/TasksManager.sol:TasksManager",
            "label": "clientCollateral",
            "offset": 0,
            "slot": "3",
            "type": "t_uint256"
          },
          {
            "astId": 25,
            "contract": "contracts/TasksManager.sol:TasksManager",
            "label": "deadline",
            "offset": 0,
            "slot": "4",
            "type": "t_uint256"
          },
          {
            "astId": 27,
            "contract": "contracts/TasksManager.sol:TasksManager",
            "label": "price",
            "offset": 0,
            "slot": "5",
            "type": "t_uint256"
          },
          {
            "astId": 29,
            "contract": "contracts/TasksManager.sol:TasksManager",
            "label": "duration",
            "offset": 0,
            "slot": "6",
            "type": "t_uint256"
          },
          {
            "astId": 31,
            "contract": "contracts/TasksManager.sol:TasksManager",
            "label": "cost",
            "offset": 0,
            "slot": "7",
            "type": "t_uint256"
          },
          {
            "astId": 33,
            "contract": "contracts/TasksManager.sol:TasksManager",
            "label": "activationTime",
            "offset": 0,
            "slot": "8",
            "type": "t_uint256"
          },
          {
            "astId": 35,
            "contract": "contracts/TasksManager.sol:TasksManager",
            "label": "timeResultProvided",
            "offset": 0,
            "slot": "9",
            "type": "t_uint256"
          },
          {
            "astId": 37,
            "contract": "contracts/TasksManager.sol:TasksManager",
            "label": "timeResultReceived",
            "offset": 0,
            "slot": "10",
            "type": "t_uint256"
          },
          {
            "astId": 39,
            "contract": "contracts/TasksManager.sol:TasksManager",
            "label": "computationCode",
            "offset": 0,
            "slot": "11",
            "type": "t_string_storage"
          },
          {
            "astId": 41,
            "contract": "contracts/TasksManager.sol:TasksManager",
            "label": "verificationCode",
            "offset": 0,
            "slot": "12",
            "type": "t_string_storage"
          },
          {
            "astId": 43,
            "contract": "contracts/TasksManager.sol:TasksManager",
            "label": "results",
            "offset": 0,
            "slot": "13",
            "type": "t_string_storage"
          },
          {
            "astId": 45,
            "contract": "contracts/TasksManager.sol:TasksManager",
            "label": "clientVerification",
            "offset": 0,
            "slot": "14",
            "type": "t_bytes32"
          },
          {
            "astId": 48,
            "contract": "contracts/TasksManager.sol:TasksManager",
            "label": "taskState",
            "offset": 0,
            "slot": "15",
            "type": "t_enum(TaskState)11"
          },
          {
            "astId": 51,
            "contract": "contracts/TasksManager.sol:TasksManager",
            "label": "paymentState",
            "offset": 1,
            "slot": "15",
            "type": "t_enum(PaymentState)15"
          }
        ],
        "numberOfBytes": "512"
      },
      "t_struct(providerRating)57_storage": {
        "encoding": "inplace",
        "label": "struct TasksManager.providerRating",
        "members": [
          {
            "astId": 54,
            "contract": "contracts/TasksManager.sol:TasksManager",
            "label": "upVotes",
            "offset": 0,
            "slot": "0",
            "type": "t_uint256"
          },
          {
            "astId": 56,
            "contract": "contracts/TasksManager.sol:TasksManager",
            "label": "downVotes",
            "offset": 0,
            "slot": "1",
            "type": "t_uint256"
          }
        ],
        "numberOfBytes": "64"
      },
      "t_uint256": {
        "encoding": "inplace",
        "label": "uint256",
        "numberOfBytes": "32"
      }
    }
  }
}