{
  "address": "0x5FbDB2315678afecb367f032d93F642f64180aa3",
  "abi": [
    {
      "inputs": [],
      "stateMutability": "nonpayable",
      "type": "constructor"
    },
    {
      "anonymous": false,
      "inputs": [
        {
          "indexed": false,
          "internalType": "bytes32",
          "name": "taskID",
          "type": "bytes32"
        }
      ],
      "name": "PaymentCompleted",
      "type": "event"
    },
    {
      "anonymous": false,
      "inputs": [
        {
          "indexed": false,
          "internalType": "bytes32",
          "name": "taskID",
          "type": "bytes32"
        },
        {
          "indexed": false,
          "internalType": "uint256",
          "name": "payment",
          "type": "uint256"
        }
      ],
      "name": "PaymentPending",
      "type": "event"
    },
    {
      "anonymous": false,
      "inputs": [
        {
          "indexed": false,
          "internalType": "address",
          "name": "provider",
          "type": "address"
        },
        {
          "indexed": false,
          "internalType": "bytes32",
          "name": "taskID",
          "type": "bytes32"
        }
      ],
      "name": "ProviderDownvoted",
      "type": "event"
    },
    {
      "anonymous": false,
      "inputs": [
        {
          "indexed": false,
          "internalType": "address",
          "name": "provider",
          "type": "address"
        },
        {
          "indexed": false,
          "internalType": "bytes32",
          "name": "taskID",
          "type": "bytes32"
        }
      ],
      "name": "ProviderUpvoted",
      "type": "event"
    },
    {
      "anonymous": false,
      "inputs": [
        {
          "indexed": false,
          "internalType": "bytes32",
          "name": "taskID",
          "type": "bytes32"
        }
      ],
      "name": "TaskActivated",
      "type": "event"
    },
    {
      "anonymous": false,
      "inputs": [
        {
          "indexed": false,
          "internalType": "bytes32",
          "name": "taskID",
          "type": "bytes32"
        }
      ],
      "name": "TaskCancelled",
      "type": "event"
    },
    {
      "anonymous": false,
      "inputs": [
        {
          "indexed": false,
          "internalType": "bytes32",
          "name": "taskID",
          "type": "bytes32"
        }
      ],
      "name": "TaskCompletedSuccessfully",
      "type": "event"
    },
    {
      "anonymous": false,
      "inputs": [
        {
          "indexed": false,
          "internalType": "bytes32",
          "name": "taskID",
          "type": "bytes32"
        }
      ],
      "name": "TaskCompletedUnsuccessfully",
      "type": "event"
    },
    {
      "anonymous": false,
      "inputs": [
        {
          "indexed": false,
          "internalType": "bytes32",
          "name": "taskID",
          "type": "bytes32"
        }
      ],
      "name": "TaskCreated",
      "type": "event"
    },
    {
      "anonymous": false,
      "inputs": [
        {
          "indexed": false,
          "internalType": "bytes32",
          "name": "taskID",
          "type": "bytes32"
        }
      ],
      "name": "TaskDeleted",
      "type": "event"
    },
    {
      "anonymous": false,
      "inputs": [
        {
          "indexed": false,
          "internalType": "bytes32",
          "name": "taskID",
          "type": "bytes32"
        }
      ],
      "name": "TaskInvalidated",
      "type": "event"
    },
    {
      "anonymous": false,
      "inputs": [
        {
          "indexed": false,
          "internalType": "bytes32",
          "name": "taskID",
          "type": "bytes32"
        }
      ],
      "name": "TaskReceivedResults",
      "type": "event"
    },
    {
      "anonymous": false,
      "inputs": [
        {
          "indexed": false,
          "internalType": "address",
          "name": "client",
          "type": "address"
        },
        {
          "indexed": false,
          "internalType": "uint256",
          "name": "amount",
          "type": "uint256"
        }
      ],
      "name": "TransferMadeToClient",
      "type": "event"
    },
    {
      "anonymous": false,
      "inputs": [
        {
          "indexed": false,
          "internalType": "address",
          "name": "provider",
          "type": "address"
        },
        {
          "indexed": false,
          "internalType": "uint256",
          "name": "amount",
          "type": "uint256"
        }
      ],
      "name": "TransferMadeToProvider",
      "type": "event"
    },
    {
      "stateMutability": "payable",
      "type": "fallback"
    },
    {
      "inputs": [
        {
          "internalType": "bytes32",
          "name": "_taskID",
          "type": "bytes32"
        }
      ],
      "name": "activateTask",
      "outputs": [],
      "stateMutability": "payable",
      "type": "function"
    },
    {
      "inputs": [
        {
          "internalType": "bytes32",
          "name": "_taskID",
          "type": "bytes32"
        }
      ],
      "name": "cancelTask",
      "outputs": [],
      "stateMutability": "nonpayable",
      "type": "function"
    },
    {
      "inputs": [
        {
          "internalType": "bytes32",
          "name": "_taskID",
          "type": "bytes32"
        }
      ],
      "name": "completePayment",
      "outputs": [],
      "stateMutability": "payable",
      "type": "function"
    },
    {
      "inputs": [
        {
          "internalType": "bytes32",
          "name": "_taskID",
          "type": "bytes32"
        },
        {
          "internalType": "string",
          "name": "ver",
          "type": "string"
        },
        {
          "internalType": "uint256",
          "name": "_duration",
          "type": "uint256"
        },
        {
          "internalType": "uint256",
          "name": "_timeReceivedProvider",
          "type": "uint256"
        }
      ],
      "name": "completeTask",
      "outputs": [],
      "stateMutability": "nonpayable",
      "type": "function"
    },
    {
      "inputs": [
        {
          "internalType": "bytes32",
          "name": "_taskID",
          "type": "bytes32"
        },
        {
          "internalType": "address payable",
          "name": "_provider",
          "type": "address"
        },
        {
          "internalType": "uint256",
          "name": "_price",
          "type": "uint256"
        },
        {
          "internalType": "uint256",
          "name": "_deadline",
          "type": "uint256"
        },
        {
          "internalType": "bytes32",
          "name": "_clientVerification",
          "type": "bytes32"
        },
        {
          "internalType": "string",
          "name": "_verificationCode",
          "type": "string"
        },
        {
          "internalType": "string",
          "name": "_computationCode",
          "type": "string"
        }
      ],
      "name": "createTask",
      "outputs": [],
      "stateMutability": "payable",
      "type": "function"
    },
    {
      "inputs": [
        {
          "internalType": "bytes32",
          "name": "_taskID",
          "type": "bytes32"
        }
      ],
      "name": "deleteTask",
      "outputs": [],
      "stateMutability": "nonpayable",
      "type": "function"
    },
    {
      "inputs": [
        {
          "internalType": "bytes32",
          "name": "_taskID",
          "type": "bytes32"
        }
      ],
      "name": "getActivationTime",
      "outputs": [
        {
          "internalType": "uint256",
          "name": "",
          "type": "uint256"
        }
      ],
      "stateMutability": "view",
      "type": "function"
    },
    {
      "inputs": [
        {
          "internalType": "bytes32",
          "name": "_taskID",
          "type": "bytes32"
        }
      ],
      "name": "getCost",
      "outputs": [
        {
          "internalType": "uint256",
          "name": "",
          "type": "uint256"
        }
      ],
      "stateMutability": "view",
      "type": "function"
    },
    {
      "inputs": [],
      "name": "getOwner",
      "outputs": [
        {
          "internalType": "address",
          "name": "",
          "type": "address"
        }
      ],
      "stateMutability": "view",
      "type": "function"
    },
    {
      "inputs": [
        {
          "internalType": "bytes32",
          "name": "_taskID",
          "type": "bytes32"
        }
      ],
      "name": "getPayment",
      "outputs": [
        {
          "internalType": "uint256",
          "name": "",
          "type": "uint256"
        }
      ],
      "stateMutability": "view",
      "type": "function"
    },
    {
      "inputs": [
        {
          "internalType": "bytes32",
          "name": "_taskID",
          "type": "bytes32"
        }
      ],
      "name": "getPaymentState",
      "outputs": [
        {
          "internalType": "string",
          "name": "",
          "type": "string"
        }
      ],
      "stateMutability": "view",
      "type": "function"
    },
    {
      "inputs": [
        {
          "internalType": "address",
          "name": "provider",
          "type": "address"
        }
      ],
      "name": "getPerformance",
      "outputs": [
        {
          "components": [
            {
              "internalType": "uint256",
              "name": "upVotes",
              "type": "uint256"
            },
            {
              "internalType": "uint256",
              "name": "downVotes",
              "type": "uint256"
            }
          ],
          "internalType": "struct TasksManager.providerRating",
          "name": "",
          "type": "tuple"
        }
      ],
      "stateMutability": "view",
      "type": "function"
    },
    {
      "inputs": [
        {
          "internalType": "bytes32",
          "name": "_taskID",
          "type": "bytes32"
        }
      ],
      "name": "getResults",
      "outputs": [
        {
          "internalType": "string",
          "name": "",
          "type": "string"
        }
      ],
      "stateMutability": "view",
      "type": "function"
    },
    {
      "inputs": [
        {
          "internalType": "bytes32",
          "name": "_taskID",
          "type": "bytes32"
        }
      ],
      "name": "getTask",
      "outputs": [
        {
          "components": [
            {
              "internalType": "address payable",
              "name": "client",
              "type": "address"
            },
            {
              "internalType": "address payable",
              "name": "provider",
              "type": "address"
            },
            {
              "internalType": "uint256",
              "name": "providerCollateral",
              "type": "uint256"
            },
            {
              "internalType": "uint256",
              "name": "clientCollateral",
              "type": "uint256"
            },
            {
              "internalType": "uint256",
              "name": "deadline",
              "type": "uint256"
            },
            {
              "internalType": "uint256",
              "name": "price",
              "type": "uint256"
            },
            {
              "internalType": "uint256",
              "name": "duration",
              "type": "uint256"
            },
            {
              "internalType": "uint256",
              "name": "cost",
              "type": "uint256"
            },
            {
              "internalType": "uint256",
              "name": "activationTime",
              "type": "uint256"
            },
            {
              "internalType": "uint256",
              "name": "timeResultProvided",
              "type": "uint256"
            },
            {
              "internalType": "uint256",
              "name": "timeResultReceived",
              "type": "uint256"
            },
            {
              "internalType": "string",
              "name": "computationCode",
              "type": "string"
            },
            {
              "internalType": "string",
              "name": "verificationCode",
              "type": "string"
            },
            {
              "internalType": "string",
              "name": "results",
              "type": "string"
            },
            {
              "internalType": "bytes32",
              "name": "clientVerification",
              "type": "bytes32"
            },
            {
              "internalType": "enum TasksManager.TaskState",
              "name": "taskState",
              "type": "uint8"
            },
            {
              "internalType": "enum TasksManager.PaymentState",
              "name": "paymentState",
              "type": "uint8"
            }
          ],
          "internalType": "struct TasksManager.Task",
          "name": "",
          "type": "tuple"
        }
      ],
      "stateMutability": "view",
      "type": "function"
    },
    {
      "inputs": [
        {
          "internalType": "bytes32",
          "name": "_taskID",
          "type": "bytes32"
        }
      ],
      "name": "getTaskState",
      "outputs": [
        {
          "internalType": "string",
          "name": "",
          "type": "string"
        }
      ],
      "stateMutability": "view",
      "type": "function"
    },
    {
      "inputs": [
        {
          "internalType": "bytes32",
          "name": "_taskID",
          "type": "bytes32"
        }
      ],
      "name": "invalidateTask",
      "outputs": [],
      "stateMutability": "nonpayable",
      "type": "function"
    },
    {
      "inputs": [
        {
          "internalType": "bytes32",
          "name": "_taskID",
          "type": "bytes32"
        }
      ],
      "name": "isRegistered",
      "outputs": [
        {
          "internalType": "bool",
          "name": "",
          "type": "bool"
        }
      ],
      "stateMutability": "view",
      "type": "function"
    },
    {
      "inputs": [
        {
          "internalType": "bytes32",
          "name": "_taskID",
          "type": "bytes32"
        },
        {
          "internalType": "string",
          "name": "_results",
          "type": "string"
        }
      ],
      "name": "receiveResults",
      "outputs": [],
      "stateMutability": "nonpayable",
      "type": "function"
    },
    {
      "stateMutability": "payable",
      "type": "receive"
    }
  ],
  "transactionHash": "0xce253834315fed7c4a0485c0d73e950410ae72eb9edd777bdca701b26075cb79",
  "args": [],
  "numDeployments": 1,
  "solcInputHash": "df3fcf273c5ac9be2777f287dd7605d2",
  "bytecode": "0x60a060405234801561001057600080fd5b503373ffffffffffffffffffffffffffffffffffffffff1660808173ffffffffffffffffffffffffffffffffffffffff1660601b8152505060805160601c615026610089600039600081816104cd015281816127ec01528181612cad0152818161302b0152818161338e01526136a201526150266000f3fe60806040526004361061010d5760003560e01c8063784f2c1111610095578063ab210cc811610064578063ab210cc8146103ba578063b353034c146103f7578063e64f15a214610434578063e66eefc81461045d578063ee8ca3b51461049a5761014d565b8063784f2c111461031a5780638693944d14610336578063893d20e81461037357806392b833201461039e5761014d565b806346475c4c116100dc57806346475c4c1461023257806347ca8a8b1461026f578063513a66981461028b57806354706b5a146102b457806370ad1976146102dd5761014d565b806315a29035146101525780631ecc9aaf1461018f57806327258b22146101cc578063431685fb146102095761014d565b3661014d576040517f08c379a000000000000000000000000000000000000000000000000000000000815260040161014490613e16565b60405180910390fd5b600080fd5b34801561015e57600080fd5b5061017960048036038101906101749190613e80565b6104c3565b60405161018691906141e9565b60405180910390f35b34801561019b57600080fd5b506101b660048036038101906101b19190614249565b6108ba565b6040516101c391906142a5565b60405180910390f35b3480156101d857600080fd5b506101f360048036038101906101ee9190613e80565b610927565b60405161020091906142db565b60405180910390f35b34801561021557600080fd5b50610230600480360381019061022b919061442b565b610995565b005b34801561023e57600080fd5b5061025960048036038101906102549190613e80565b6114c5565b60405161026691906144c0565b60405180910390f35b61028960048036038101906102849190613e80565b61172b565b005b34801561029757600080fd5b506102b260048036038101906102ad919061450e565b611b83565b005b3480156102c057600080fd5b506102db60048036038101906102d69190613e80565b61209e565b005b3480156102e957600080fd5b5061030460048036038101906102ff9190613e80565b612413565b60405161031191906145a0565b60405180910390f35b610334600480360381019061032f91906145e7565b612432565b005b34801561034257600080fd5b5061035d60048036038101906103589190613e80565b612712565b60405161036a91906144c0565b60405180910390f35b34801561037f57600080fd5b50610388612ca9565b60405161039591906146d0565b60405180910390f35b6103b860048036038101906103b39190613e80565b612cd1565b005b3480156103c657600080fd5b506103e160048036038101906103dc9190613e80565b612f51565b6040516103ee91906144c0565b60405180910390f35b34801561040357600080fd5b5061041e60048036038101906104199190613e80565b6132b4565b60405161042b91906145a0565b60405180910390f35b34801561044057600080fd5b5061045b60048036038101906104569190613e80565b613439565b005b34801561046957600080fd5b50610484600480360381019061047f9190613e80565b6135c8565b60405161049191906145a0565b60405180910390f35b3480156104a657600080fd5b506104c160048036038101906104bc9190613e80565b61376d565b005b6104cb613be5565b7f000000000000000000000000000000000000000000000000000000000000000073ffffffffffffffffffffffffffffffffffffffff163373ffffffffffffffffffffffffffffffffffffffff1614610559576040517f08c379a00000000000000000000000000000000000000000000000000000000081526004016105509061475d565b60405180910390fd5b600080838152602001908152602001600020604051806102200160405290816000820160009054906101000a900473ffffffffffffffffffffffffffffffffffffffff1673ffffffffffffffffffffffffffffffffffffffff1673ffffffffffffffffffffffffffffffffffffffff1681526020016001820160009054906101000a900473ffffffffffffffffffffffffffffffffffffffff1673ffffffffffffffffffffffffffffffffffffffff1673ffffffffffffffffffffffffffffffffffffffff1681526020016002820154815260200160038201548152602001600482015481526020016005820154815260200160068201548152602001600782015481526020016008820154815260200160098201548152602001600a8201548152602001600b8201805461068d906147ac565b80601f01602080910402602001604051908101604052809291908181526020018280546106b9906147ac565b80156107065780601f106106db57610100808354040283529160200191610706565b820191906000526020600020905b8154815290600101906020018083116106e957829003601f168201915b50505050508152602001600c8201805461071f906147ac565b80601f016020809104026020016040519081016040528092919081815260200182805461074b906147ac565b80156107985780601f1061076d57610100808354040283529160200191610798565b820191906000526020600020905b81548152906001019060200180831161077b57829003601f168201915b50505050508152602001600d820180546107b1906147ac565b80601f01602080910402602001604051908101604052809291908181526020018280546107dd906147ac565b801561082a5780601f106107ff5761010080835404028352916020019161082a565b820191906000526020600020905b81548152906001019060200180831161080d57829003601f168201915b50505050508152602001600e8201548152602001600f820160009054906101000a900460ff16600681111561086257610861613faf565b5b600681111561087457610873613faf565b5b8152602001600f820160019054906101000a900460ff16600281111561089d5761089c613faf565b5b60028111156108af576108ae613faf565b5b815250509050919050565b6108c2613cbc565b600160008373ffffffffffffffffffffffffffffffffffffffff1673ffffffffffffffffffffffffffffffffffffffff168152602001908152602001600020604051806040016040529081600082015481526020016001820154815250509050919050565b60008073ffffffffffffffffffffffffffffffffffffffff1660008084815260200190815260200160002060000160009054906101000a900473ffffffffffffffffffffffffffffffffffffffff1673ffffffffffffffffffffffffffffffffffffffff1614159050919050565b8160008082815260200190815260200160002060010160009054906101000a900473ffffffffffffffffffffffffffffffffffffffff1673ffffffffffffffffffffffffffffffffffffffff163373ffffffffffffffffffffffffffffffffffffffff1614610a39576040517f08c379a0000000000000000000000000000000000000000000000000000000008152600401610a3090614850565b60405180910390fd5b826003806006811115610a4f57610a4e613faf565b5b600080848152602001908152602001600020600f0160009054906101000a900460ff166006811115610a8457610a83613faf565b5b14610ac4576040517f08c379a0000000000000000000000000000000000000000000000000000000008152600401610abb906148bc565b60405180910390fd5b846000806002811115610ada57610ad9613faf565b5b600080848152602001908152602001600020600f0160019054906101000a900460ff166002811115610b0f57610b0e613faf565b5b14610b4f576040517f08c379a0000000000000000000000000000000000000000000000000000000008152600401610b4690614928565b60405180910390fd5b42600080898152602001908152602001600020600a018190555085600080898152602001908152602001600020600d019080519060200190610b92929190613cd6565b50610b9c87613a2b565b156111f657600080888152602001908152602001600020600301546000808981526020019081526020016000206007015411610ef45760008088815260200190815260200160002060010160009054906101000a900473ffffffffffffffffffffffffffffffffffffffff1673ffffffffffffffffffffffffffffffffffffffff166108fc6000808a8152602001908152602001600020600201546000808b815260200190815260200160002060070154610c579190614977565b9081150290604051600060405180830381858888f19350505050158015610c82573d6000803e3d6000fd5b507f4195fd9cd5f571cf9d14b2376c60201465a986f4a0469cebf0f0ee1d3e2022ab60008089815260200190815260200160002060010160009054906101000a900473ffffffffffffffffffffffffffffffffffffffff166000808a8152602001908152602001600020600201546000808b815260200190815260200160002060070154610d109190614977565b604051610d1e929190614a2c565b60405180910390a160008088815260200190815260200160002060000160009054906101000a900473ffffffffffffffffffffffffffffffffffffffff1673ffffffffffffffffffffffffffffffffffffffff166108fc6000808a8152602001908152602001600020600301546000808b815260200190815260200160002060070154610dab9190614a55565b9081150290604051600060405180830381858888f19350505050158015610dd6573d6000803e3d6000fd5b507fb56ab0c8ca3c4a2f3256c9dab1834145295ed481d85fd1afde56ff8c7298c3ec60008089815260200190815260200160002060000160009054906101000a900473ffffffffffffffffffffffffffffffffffffffff166000808a8152602001908152602001600020600301546000808b815260200190815260200160002060070154610e649190614a55565b604051610e72929190614a2c565b60405180910390a16002600080898152602001908152602001600020600f0160016101000a81548160ff02191690836002811115610eb357610eb2613faf565b5b02179055507ff2baea2668e36a27a898b8c745decb4439ff61ae04d545dcc6954b84bd3e3c4287604051610ee79190614a98565b60405180910390a16110f5565b60008088815260200190815260200160002060010160009054906101000a900473ffffffffffffffffffffffffffffffffffffffff1673ffffffffffffffffffffffffffffffffffffffff166108fc6000808a8152602001908152602001600020600201546000808b815260200190815260200160002060030154610f799190614977565b9081150290604051600060405180830381858888f19350505050158015610fa4573d6000803e3d6000fd5b507f4195fd9cd5f571cf9d14b2376c60201465a986f4a0469cebf0f0ee1d3e2022ab60008089815260200190815260200160002060010160009054906101000a900473ffffffffffffffffffffffffffffffffffffffff166000808a8152602001908152602001600020600201546000808b8152602001908152602001600020600301546110329190614977565b604051611040929190614a2c565b60405180910390a16001600080898152602001908152602001600020600f0160016101000a81548160ff0219169083600281111561108157611080613faf565b5b02179055507f0e94573b1be2e52f56af2fa73f97395af190b00bf516b0e90356c3619c4cdf7c876000808a8152602001908152602001600020600301546000808b8152602001908152602001600020600701546110de9190614a55565b6040516110ec929190614ab3565b60405180910390a15b60018060008060008b815260200190815260200160002060010160009054906101000a900473ffffffffffffffffffffffffffffffffffffffff1673ffffffffffffffffffffffffffffffffffffffff1673ffffffffffffffffffffffffffffffffffffffff168152602001908152602001600020600001600082825461117c9190614977565b925050819055507ff79072e0f370bb188b7c4d34ae8a5c9138b891e5df7cfa7ca412b518d30aaf7560008089815260200190815260200160002060010160009054906101000a900473ffffffffffffffffffffffffffffffffffffffff16886040516111e9929190614adc565b60405180910390a1611447565b60008088815260200190815260200160002060000160009054906101000a900473ffffffffffffffffffffffffffffffffffffffff1673ffffffffffffffffffffffffffffffffffffffff166108fc6000808a8152602001908152602001600020600201546000808b81526020019081526020016000206003015461127b9190614977565b9081150290604051600060405180830381858888f193505050501580156112a6573d6000803e3d6000fd5b507fb56ab0c8ca3c4a2f3256c9dab1834145295ed481d85fd1afde56ff8c7298c3ec60008089815260200190815260200160002060000160009054906101000a900473ffffffffffffffffffffffffffffffffffffffff166000808a8152602001908152602001600020600201546000808b8152602001908152602001600020600301546113349190614977565b604051611342929190614a2c565b60405180910390a160018060008060008b815260200190815260200160002060010160009054906101000a900473ffffffffffffffffffffffffffffffffffffffff1673ffffffffffffffffffffffffffffffffffffffff1673ffffffffffffffffffffffffffffffffffffffff16815260200190815260200160002060010160008282546113d19190614977565b925050819055507f3fec1177d25f324e1beb970cd60f8b52ef1e47290a72bdb8f62101720f5e492760008089815260200190815260200160002060010160009054906101000a900473ffffffffffffffffffffffffffffffffffffffff168860405161143e929190614adc565b60405180910390a15b6006600080898152602001908152602001600020600f0160006101000a81548160ff021916908360068111156114805761147f613faf565b5b02179055507f10430a0d897130f1c1817a2fae7a4a171fa5609813a84ad394787130d7e50291876040516114b49190614a98565b60405180910390a150505050505050565b60608160008082815260200190815260200160002060000160009054906101000a900473ffffffffffffffffffffffffffffffffffffffff1673ffffffffffffffffffffffffffffffffffffffff163373ffffffffffffffffffffffffffffffffffffffff161461156b576040517f08c379a000000000000000000000000000000000000000000000000000000000815260040161156290614b77565b60405180910390fd5b82600680600681111561158157611580613faf565b5b600080848152602001908152602001600020600f0160009054906101000a900460ff1660068111156115b6576115b5613faf565b5b146115f6576040517f08c379a00000000000000000000000000000000000000000000000000000000081526004016115ed906148bc565b60405180910390fd5b84600280600281111561160c5761160b613faf565b5b600080848152602001908152602001600020600f0160019054906101000a900460ff16600281111561164157611640613faf565b5b14611681576040517f08c379a000000000000000000000000000000000000000000000000000000000815260040161167890614928565b60405180910390fd5b600080888152602001908152602001600020600d0180546116a1906147ac565b80601f01602080910402602001604051908101604052809291908181526020018280546116cd906147ac565b801561171a5780601f106116ef5761010080835404028352916020019161171a565b820191906000526020600020905b8154815290600101906020018083116116fd57829003601f168201915b505050505095505050505050919050565b8060008082815260200190815260200160002060000160009054906101000a900473ffffffffffffffffffffffffffffffffffffffff1673ffffffffffffffffffffffffffffffffffffffff163373ffffffffffffffffffffffffffffffffffffffff16146117cf576040517f08c379a00000000000000000000000000000000000000000000000000000000081526004016117c690614b77565b60405180910390fd5b8160068060068111156117e5576117e4613faf565b5b600080848152602001908152602001600020600f0160009054906101000a900460ff16600681111561181a57611819613faf565b5b1461185a576040517f08c379a0000000000000000000000000000000000000000000000000000000008152600401611851906148bc565b60405180910390fd5b8360018060028111156118705761186f613faf565b5b600080848152602001908152602001600020600f0160019054906101000a900460ff1660028111156118a5576118a4613faf565b5b146118e5576040517f08c379a00000000000000000000000000000000000000000000000000000000081526004016118dc90614928565b60405180910390fd5b600080878152602001908152602001600020600301546000808881526020019081526020016000206007015461191b9190614a55565b80341461195d576040517f08c379a000000000000000000000000000000000000000000000000000000000815260040161195490614be3565b60405180910390fd5b6001600281111561197157611970613faf565b5b600080898152602001908152602001600020600f0160019054906101000a900460ff1660028111156119a6576119a5613faf565b5b146119e6576040517f08c379a00000000000000000000000000000000000000000000000000000000081526004016119dd90614c4f565b60405180910390fd5b60008088815260200190815260200160002060010160009054906101000a900473ffffffffffffffffffffffffffffffffffffffff1673ffffffffffffffffffffffffffffffffffffffff166108fc349081150290604051600060405180830381858888f19350505050158015611a61573d6000803e3d6000fd5b507f4195fd9cd5f571cf9d14b2376c60201465a986f4a0469cebf0f0ee1d3e2022ab60008089815260200190815260200160002060010160009054906101000a900473ffffffffffffffffffffffffffffffffffffffff166000808a8152602001908152602001600020600301546000808b815260200190815260200160002060070154611aef9190614a55565b604051611afd929190614a2c565b60405180910390a16002600080898152602001908152602001600020600f0160016101000a81548160ff02191690836002811115611b3e57611b3d613faf565b5b02179055507ff2baea2668e36a27a898b8c745decb4439ff61ae04d545dcc6954b84bd3e3c4287604051611b729190614a98565b60405180910390a150505050505050565b8360008082815260200190815260200160002060010160009054906101000a900473ffffffffffffffffffffffffffffffffffffffff1673ffffffffffffffffffffffffffffffffffffffff163373ffffffffffffffffffffffffffffffffffffffff1614611c27576040517f08c379a0000000000000000000000000000000000000000000000000000000008152600401611c1e90614850565b60405180910390fd5b846002806006811115611c3d57611c3c613faf565b5b600080848152602001908152602001600020600f0160009054906101000a900460ff166006811115611c7257611c71613faf565b5b14611cb2576040517f08c379a0000000000000000000000000000000000000000000000000000000008152600401611ca9906148bc565b60405180910390fd5b83600080898152602001908152602001600020600901819055508460008089815260200190815260200160002060060181905550611cef87613b10565b8015611d015750611d008787613b9d565b5b15611dcf576000808881526020019081526020016000206006015460008089815260200190815260200160002060050154611d3c9190614c6f565b600080898152602001908152602001600020600701819055506003600080898152602001908152602001600020600f0160006101000a81548160ff02191690836006811115611d8e57611d8d613faf565b5b02179055507f4176d26ab2247b0b92e698330257544613ee9100fad5c65d61aec36a2a877b7d87604051611dc29190614a98565b60405180910390a1612095565b60008088815260200190815260200160002060000160009054906101000a900473ffffffffffffffffffffffffffffffffffffffff1673ffffffffffffffffffffffffffffffffffffffff166108fc6000808a8152602001908152602001600020600201546000808b815260200190815260200160002060030154611e549190614977565b9081150290604051600060405180830381858888f19350505050158015611e7f573d6000803e3d6000fd5b507fb56ab0c8ca3c4a2f3256c9dab1834145295ed481d85fd1afde56ff8c7298c3ec60008089815260200190815260200160002060000160009054906101000a900473ffffffffffffffffffffffffffffffffffffffff166000808a8152602001908152602001600020600201546000808b815260200190815260200160002060030154611f0d9190614977565b604051611f1b929190614a2c565b60405180910390a160018060008060008b815260200190815260200160002060010160009054906101000a900473ffffffffffffffffffffffffffffffffffffffff1673ffffffffffffffffffffffffffffffffffffffff1673ffffffffffffffffffffffffffffffffffffffff1681526020019081526020016000206001016000828254611faa9190614977565b925050819055507f3fec1177d25f324e1beb970cd60f8b52ef1e47290a72bdb8f62101720f5e492760008089815260200190815260200160002060010160009054906101000a900473ffffffffffffffffffffffffffffffffffffffff1688604051612017929190614adc565b60405180910390a16004600080898152602001908152602001600020600f0160006101000a81548160ff0219169083600681111561205857612057613faf565b5b02179055507f1feb95f113fd9e6280236d043c8da4ca59e052f4783ce6a83f261c1aaa865b178760405161208c9190614a98565b60405180910390a15b50505050505050565b8060008082815260200190815260200160002060000160009054906101000a900473ffffffffffffffffffffffffffffffffffffffff1673ffffffffffffffffffffffffffffffffffffffff163373ffffffffffffffffffffffffffffffffffffffff1614612142576040517f08c379a000000000000000000000000000000000000000000000000000000000815260040161213990614b77565b60405180910390fd5b81600280600681111561215857612157613faf565b5b600080848152602001908152602001600020600f0160009054906101000a900460ff16600681111561218d5761218c613faf565b5b146121cd576040517f08c379a00000000000000000000000000000000000000000000000000000000081526004016121c4906148bc565b60405180910390fd5b60008085815260200190815260200160002060040154600080868152602001908152602001600020600801546122039190614977565b4211612244576040517f08c379a000000000000000000000000000000000000000000000000000000000815260040161223b90614d15565b60405180910390fd5b6005600080868152602001908152602001600020600f0160006101000a81548160ff0219169083600681111561227d5761227c613faf565b5b021790555060008085815260200190815260200160002060000160009054906101000a900473ffffffffffffffffffffffffffffffffffffffff1673ffffffffffffffffffffffffffffffffffffffff166108fc60008087815260200190815260200160002060020154600080888152602001908152602001600020600301546123079190614977565b9081150290604051600060405180830381858888f19350505050158015612332573d6000803e3d6000fd5b507fb56ab0c8ca3c4a2f3256c9dab1834145295ed481d85fd1afde56ff8c7298c3ec60008086815260200190815260200160002060000160009054906101000a900473ffffffffffffffffffffffffffffffffffffffff1660008087815260200190815260200160002060020154600080888152602001908152602001600020600301546123c09190614977565b6040516123ce929190614a2c565b60405180910390a17fa07d0b7132fa6b208a063af8026a29c1fa7ea1f98ffc9682615585318a6b25d6846040516124059190614a98565b60405180910390a150505050565b6000806000838152602001908152602001600020600801549050919050565b8661243c81610927565b1561247c576040517f08c379a000000000000000000000000000000000000000000000000000000000815260040161247390614d81565b60405180910390fd5b6002866124899190614c6f565b3410156124cb576040517f08c379a00000000000000000000000000000000000000000000000000000000081526004016124c290614ded565b60405180910390fd5b336000808a815260200190815260200160002060000160006101000a81548173ffffffffffffffffffffffffffffffffffffffff021916908373ffffffffffffffffffffffffffffffffffffffff160217905550346000808a815260200190815260200160002060030181905550866000808a815260200190815260200160002060010160006101000a81548173ffffffffffffffffffffffffffffffffffffffff021916908373ffffffffffffffffffffffffffffffffffffffff160217905550600a8661259a9190614c6f565b6000808a815260200190815260200160002060020181905550856000808a815260200190815260200160002060050181905550846000808a815260200190815260200160002060040181905550836000808a8152602001908152602001600020600e0181905550826000808a8152602001908152602001600020600c01908051906020019061262a929190613cd6565b50816000808a8152602001908152602001600020600b019080519060200190612654929190613cd6565b5060008060008a8152602001908152602001600020600f0160006101000a81548160ff0219169083600681111561268e5761268d613faf565b5b021790555060008060008a8152602001908152602001600020600f0160016101000a81548160ff021916908360028111156126cc576126cb613faf565b5b02179055507f1e28175955a872c8252a6e5cf36ac6b318d074eb78b49731e5cb9ddc2d870b63886040516127009190614a98565b60405180910390a15050505050505050565b60608160008082815260200190815260200160002060000160009054906101000a900473ffffffffffffffffffffffffffffffffffffffff1673ffffffffffffffffffffffffffffffffffffffff163373ffffffffffffffffffffffffffffffffffffffff1614806127e4575060008082815260200190815260200160002060010160009054906101000a900473ffffffffffffffffffffffffffffffffffffffff1673ffffffffffffffffffffffffffffffffffffffff163373ffffffffffffffffffffffffffffffffffffffff16145b8061283a57507f000000000000000000000000000000000000000000000000000000000000000073ffffffffffffffffffffffffffffffffffffffff163373ffffffffffffffffffffffffffffffffffffffff16145b612879576040517f08c379a000000000000000000000000000000000000000000000000000000000815260040161287090614e7f565b60405180910390fd5b6000604051806020016040528060008152509050600060068111156128a1576128a0613faf565b5b600080868152602001908152602001600020600f0160009054906101000a900460ff1660068111156128d6576128d5613faf565b5b1415612919576040518060400160405280600781526020017f43726561746564000000000000000000000000000000000000000000000000008152509050612c9f565b6001600681111561292d5761292c613faf565b5b600080868152602001908152602001600020600f0160009054906101000a900460ff16600681111561296257612961613faf565b5b14156129a5576040518060400160405280600981526020017f43616e63656c6c656400000000000000000000000000000000000000000000008152509050612c9e565b600260068111156129b9576129b8613faf565b5b600080868152602001908152602001600020600f0160009054906101000a900460ff1660068111156129ee576129ed613faf565b5b1415612a31576040518060400160405280600681526020017f41637469766500000000000000000000000000000000000000000000000000008152509050612c9d565b60036006811115612a4557612a44613faf565b5b600080868152602001908152602001600020600f0160009054906101000a900460ff166006811115612a7a57612a79613faf565b5b1415612abd576040518060400160405280601581526020017f436f6d706c657465645375636365737366756c6c7900000000000000000000008152509050612c9c565b60046006811115612ad157612ad0613faf565b5b600080868152602001908152602001600020600f0160009054906101000a900460ff166006811115612b0657612b05613faf565b5b1415612b49576040518060400160405280601781526020017f436f6d706c65746564556e7375636365737366756c6c790000000000000000008152509050612c9b565b60056006811115612b5d57612b5c613faf565b5b600080868152602001908152602001600020600f0160009054906101000a900460ff166006811115612b9257612b91613faf565b5b1415612bd5576040518060400160405280600781526020017f496e76616c6964000000000000000000000000000000000000000000000000008152509050612c9a565b600680811115612be857612be7613faf565b5b600080868152602001908152602001600020600f0160009054906101000a900460ff166006811115612c1d57612c1c613faf565b5b1415612c60576040518060400160405280600f81526020017f526573756c7473526563656976656400000000000000000000000000000000008152509050612c99565b6040518060400160405280600581526020017f4572726f7200000000000000000000000000000000000000000000000000000081525090505b5b5b5b5b5b5b8092505050919050565b60007f0000000000000000000000000000000000000000000000000000000000000000905090565b8060008082815260200190815260200160002060010160009054906101000a900473ffffffffffffffffffffffffffffffffffffffff1673ffffffffffffffffffffffffffffffffffffffff163373ffffffffffffffffffffffffffffffffffffffff1614612d75576040517f08c379a0000000000000000000000000000000000000000000000000000000008152600401612d6c90614850565b60405180910390fd5b816000806006811115612d8b57612d8a613faf565b5b600080848152602001908152602001600020600f0160009054906101000a900460ff166006811115612dc057612dbf613faf565b5b14612e00576040517f08c379a0000000000000000000000000000000000000000000000000000000008152600401612df7906148bc565b60405180910390fd5b83612e0a81610927565b612e49576040517f08c379a0000000000000000000000000000000000000000000000000000000008152600401612e4090614eeb565b60405180910390fd5b60008086815260200190815260200160002060020154341015612ea1576040517f08c379a0000000000000000000000000000000000000000000000000000000008152600401612e9890614f7d565b60405180910390fd5b426000808781526020019081526020016000206008018190555034600080878152602001908152602001600020600201819055506002600080878152602001908152602001600020600f0160006101000a81548160ff02191690836006811115612f0e57612f0d613faf565b5b02179055507fce708d6b67215419755514077f148edc2ee99fe51d758948ee62feea825d703885604051612f429190614a98565b60405180910390a15050505050565b60608160008082815260200190815260200160002060000160009054906101000a900473ffffffffffffffffffffffffffffffffffffffff1673ffffffffffffffffffffffffffffffffffffffff163373ffffffffffffffffffffffffffffffffffffffff161480613023575060008082815260200190815260200160002060010160009054906101000a900473ffffffffffffffffffffffffffffffffffffffff1673ffffffffffffffffffffffffffffffffffffffff163373ffffffffffffffffffffffffffffffffffffffff16145b8061307957507f000000000000000000000000000000000000000000000000000000000000000073ffffffffffffffffffffffffffffffffffffffff163373ffffffffffffffffffffffffffffffffffffffff16145b6130b8576040517f08c379a00000000000000000000000000000000000000000000000000000000081526004016130af90614e7f565b60405180910390fd5b6000604051806020016040528060008152509050600060028111156130e0576130df613faf565b5b600080868152602001908152602001600020600f0160019054906101000a900460ff16600281111561311557613114613faf565b5b1415613158576040518060400160405280600b81526020017f496e697469616c697a656400000000000000000000000000000000000000000081525090506132aa565b6001600281111561316c5761316b613faf565b5b600080868152602001908152602001600020600f0160019054906101000a900460ff1660028111156131a1576131a0613faf565b5b14156131e4576040518060400160405280600781526020017f50656e64696e670000000000000000000000000000000000000000000000000081525090506132a9565b6002808111156131f7576131f6613faf565b5b600080868152602001908152602001600020600f0160019054906101000a900460ff16600281111561322c5761322b613faf565b5b141561326f576040518060400160405280600981526020017f436f6d706c65746564000000000000000000000000000000000000000000000081525090506132a8565b6040518060400160405280600581526020017f4572726f7200000000000000000000000000000000000000000000000000000081525090505b5b5b8092505050919050565b60008160008082815260200190815260200160002060000160009054906101000a900473ffffffffffffffffffffffffffffffffffffffff1673ffffffffffffffffffffffffffffffffffffffff163373ffffffffffffffffffffffffffffffffffffffff161480613386575060008082815260200190815260200160002060010160009054906101000a900473ffffffffffffffffffffffffffffffffffffffff1673ffffffffffffffffffffffffffffffffffffffff163373ffffffffffffffffffffffffffffffffffffffff16145b806133dc57507f000000000000000000000000000000000000000000000000000000000000000073ffffffffffffffffffffffffffffffffffffffff163373ffffffffffffffffffffffffffffffffffffffff16145b61341b576040517f08c379a000000000000000000000000000000000000000000000000000000000815260040161341290614e7f565b60405180910390fd5b60008084815260200190815260200160002060070154915050919050565b8061344381610927565b613482576040517f08c379a000000000000000000000000000000000000000000000000000000000815260040161347990614eeb565b60405180910390fd5b600080838152602001908152602001600020600080820160006101000a81549073ffffffffffffffffffffffffffffffffffffffff02191690556001820160006101000a81549073ffffffffffffffffffffffffffffffffffffffff021916905560028201600090556003820160009055600482016000905560058201600090556006820160009055600782016000905560088201600090556009820160009055600a820160009055600b8201600061353b9190613d5c565b600c8201600061354b9190613d5c565b600d8201600061355b9190613d5c565b600e820160009055600f820160006101000a81549060ff0219169055600f820160016101000a81549060ff021916905550507fa96209878fc4722b56527db6cf4b72ad6bfddb3ad9968f7de1125d02acc9aa10826040516135bc9190614a98565b60405180910390a15050565b60008160008082815260200190815260200160002060000160009054906101000a900473ffffffffffffffffffffffffffffffffffffffff1673ffffffffffffffffffffffffffffffffffffffff163373ffffffffffffffffffffffffffffffffffffffff16148061369a575060008082815260200190815260200160002060010160009054906101000a900473ffffffffffffffffffffffffffffffffffffffff1673ffffffffffffffffffffffffffffffffffffffff163373ffffffffffffffffffffffffffffffffffffffff16145b806136f057507f000000000000000000000000000000000000000000000000000000000000000073ffffffffffffffffffffffffffffffffffffffff163373ffffffffffffffffffffffffffffffffffffffff16145b61372f576040517f08c379a000000000000000000000000000000000000000000000000000000000815260040161372690614e7f565b60405180910390fd5b60008084815260200190815260200160002060030154600080858152602001908152602001600020600701546137659190614a55565b915050919050565b8060008082815260200190815260200160002060000160009054906101000a900473ffffffffffffffffffffffffffffffffffffffff1673ffffffffffffffffffffffffffffffffffffffff163373ffffffffffffffffffffffffffffffffffffffff1614613811576040517f08c379a000000000000000000000000000000000000000000000000000000000815260040161380890614b77565b60405180910390fd5b81600080600681111561382757613826613faf565b5b600080848152602001908152602001600020600f0160009054906101000a900460ff16600681111561385c5761385b613faf565b5b1461389c576040517f08c379a0000000000000000000000000000000000000000000000000000000008152600401613893906148bc565b60405180910390fd5b6001600080868152602001908152602001600020600f0160006101000a81548160ff021916908360068111156138d5576138d4613faf565b5b021790555060008085815260200190815260200160002060000160009054906101000a900473ffffffffffffffffffffffffffffffffffffffff1673ffffffffffffffffffffffffffffffffffffffff166108fc600080878152602001908152602001600020600301549081150290604051600060405180830381858888f1935050505015801561396a573d6000803e3d6000fd5b507fb56ab0c8ca3c4a2f3256c9dab1834145295ed481d85fd1afde56ff8c7298c3ec60008086815260200190815260200160002060000160009054906101000a900473ffffffffffffffffffffffffffffffffffffffff16600080878152602001908152602001600020600301546040516139e6929190614a2c565b60405180910390a17fe1e1d79b8f28d3379fc32f617eaf54dd6bd4071074c77e91134770e04a81d62684604051613a1d9190614a98565b60405180910390a150505050565b6000603c60008084815260200190815260200160002060090154613a4f9190614977565b600080848152602001908152602001600020600a015411158015613a9d575060008083815260200190815260200160002060090154600080848152602001908152602001600020600a015410155b8015613ad3575060008083815260200190815260200160002060080154600080848152602001908152602001600020600a015410155b8015613b095750600080838152602001908152602001600020600801546000808481526020019081526020016000206009015410155b9050919050565b60008060008381526020019081526020016000206004015460008084815260200190815260200160002060080154613b489190614977565b6000808481526020019081526020016000206009015411158015613b965750600080838152602001908152602001600020600401546000808481526020019081526020016000206006015411155b9050919050565b600081604051602001613bb09190614fd9565b60405160208183030381529060405280519060200120600080858152602001908152602001600020600e015414905092915050565b604051806102200160405280600073ffffffffffffffffffffffffffffffffffffffff168152602001600073ffffffffffffffffffffffffffffffffffffffff1681526020016000815260200160008152602001600081526020016000815260200160008152602001600081526020016000815260200160008152602001600081526020016060815260200160608152602001606081526020016000801916815260200160006006811115613c9d57613c9c613faf565b5b815260200160006002811115613cb657613cb5613faf565b5b81525090565b604051806040016040528060008152602001600081525090565b828054613ce2906147ac565b90600052602060002090601f016020900481019282613d045760008555613d4b565b82601f10613d1d57805160ff1916838001178555613d4b565b82800160010185558215613d4b579182015b82811115613d4a578251825591602001919060010190613d2f565b5b509050613d589190613d9c565b5090565b508054613d68906147ac565b6000825580601f10613d7a5750613d99565b601f016020900490600052602060002090810190613d989190613d9c565b5b50565b5b80821115613db5576000816000905550600101613d9d565b5090565b600082825260208201905092915050565b7f6261642063616c6c000000000000000000000000000000000000000000000000600082015250565b6000613e00600883613db9565b9150613e0b82613dca565b602082019050919050565b60006020820190508181036000830152613e2f81613df3565b9050919050565b6000604051905090565b600080fd5b600080fd5b6000819050919050565b613e5d81613e4a565b8114613e6857600080fd5b50565b600081359050613e7a81613e54565b92915050565b600060208284031215613e9657613e95613e40565b5b6000613ea484828501613e6b565b91505092915050565b600073ffffffffffffffffffffffffffffffffffffffff82169050919050565b6000613ed882613ead565b9050919050565b613ee881613ecd565b82525050565b6000819050919050565b613f0181613eee565b82525050565b600081519050919050565b600082825260208201905092915050565b60005b83811015613f41578082015181840152602081019050613f26565b83811115613f50576000848401525b50505050565b6000601f19601f8301169050919050565b6000613f7282613f07565b613f7c8185613f12565b9350613f8c818560208601613f23565b613f9581613f56565b840191505092915050565b613fa981613e4a565b82525050565b7f4e487b7100000000000000000000000000000000000000000000000000000000600052602160045260246000fd5b60078110613fef57613fee613faf565b5b50565b600081905061400082613fde565b919050565b600061401082613ff2565b9050919050565b61402081614005565b82525050565b6003811061403757614036613faf565b5b50565b600081905061404882614026565b919050565b60006140588261403a565b9050919050565b6140688161404d565b82525050565b6000610220830160008301516140876000860182613edf565b50602083015161409a6020860182613edf565b5060408301516140ad6040860182613ef8565b5060608301516140c06060860182613ef8565b5060808301516140d36080860182613ef8565b5060a08301516140e660a0860182613ef8565b5060c08301516140f960c0860182613ef8565b5060e083015161410c60e0860182613ef8565b50610100830151614121610100860182613ef8565b50610120830151614136610120860182613ef8565b5061014083015161414b610140860182613ef8565b506101608301518482036101608601526141658282613f67565b9150506101808301518482036101808601526141818282613f67565b9150506101a08301518482036101a086015261419d8282613f67565b9150506101c08301516141b46101c0860182613fa0565b506101e08301516141c96101e0860182614017565b506102008301516141de61020086018261405f565b508091505092915050565b60006020820190508181036000830152614203818461406e565b905092915050565b600061421682613ead565b9050919050565b6142268161420b565b811461423157600080fd5b50565b6000813590506142438161421d565b92915050565b60006020828403121561425f5761425e613e40565b5b600061426d84828501614234565b91505092915050565b60408201600082015161428c6000850182613ef8565b50602082015161429f6020850182613ef8565b50505050565b60006040820190506142ba6000830184614276565b92915050565b60008115159050919050565b6142d5816142c0565b82525050565b60006020820190506142f060008301846142cc565b92915050565b600080fd5b600080fd5b7f4e487b7100000000000000000000000000000000000000000000000000000000600052604160045260246000fd5b61433882613f56565b810181811067ffffffffffffffff8211171561435757614356614300565b5b80604052505050565b600061436a613e36565b9050614376828261432f565b919050565b600067ffffffffffffffff82111561439657614395614300565b5b61439f82613f56565b9050602081019050919050565b82818337600083830152505050565b60006143ce6143c98461437b565b614360565b9050828152602081018484840111156143ea576143e96142fb565b5b6143f58482856143ac565b509392505050565b600082601f830112614412576144116142f6565b5b81356144228482602086016143bb565b91505092915050565b6000806040838503121561444257614441613e40565b5b600061445085828601613e6b565b925050602083013567ffffffffffffffff81111561447157614470613e45565b5b61447d858286016143fd565b9150509250929050565b600061449282613f07565b61449c8185613db9565b93506144ac818560208601613f23565b6144b581613f56565b840191505092915050565b600060208201905081810360008301526144da8184614487565b905092915050565b6144eb81613eee565b81146144f657600080fd5b50565b600081359050614508816144e2565b92915050565b6000806000806080858703121561452857614527613e40565b5b600061453687828801613e6b565b945050602085013567ffffffffffffffff81111561455757614556613e45565b5b614563878288016143fd565b9350506040614574878288016144f9565b9250506060614585878288016144f9565b91505092959194509250565b61459a81613eee565b82525050565b60006020820190506145b56000830184614591565b92915050565b6145c481613ecd565b81146145cf57600080fd5b50565b6000813590506145e1816145bb565b92915050565b600080600080600080600060e0888a03121561460657614605613e40565b5b60006146148a828b01613e6b565b97505060206146258a828b016145d2565b96505060406146368a828b016144f9565b95505060606146478a828b016144f9565b94505060806146588a828b01613e6b565b93505060a088013567ffffffffffffffff81111561467957614678613e45565b5b6146858a828b016143fd565b92505060c088013567ffffffffffffffff8111156146a6576146a5613e45565b5b6146b28a828b016143fd565b91505092959891949750929550565b6146ca8161420b565b82525050565b60006020820190506146e560008301846146c1565b92915050565b7f4d6574686f642063616e2062652063616c6c6564206f6e6c79206279206f776e60008201527f65722e0000000000000000000000000000000000000000000000000000000000602082015250565b6000614747602383613db9565b9150614752826146eb565b604082019050919050565b600060208201905081810360008301526147768161473a565b9050919050565b7f4e487b7100000000000000000000000000000000000000000000000000000000600052602260045260246000fd5b600060028204905060018216806147c457607f821691505b602082108114156147d8576147d761477d565b5b50919050565b7f4d6574686f642063616e2062652063616c6c6564206f6e6c792062792070726f60008201527f76696465722e0000000000000000000000000000000000000000000000000000602082015250565b600061483a602683613db9565b9150614845826147de565b604082019050919050565b600060208201905081810360008301526148698161482d565b9050919050565b7f496e76616c6964205461736b53746174652e0000000000000000000000000000600082015250565b60006148a6601283613db9565b91506148b182614870565b602082019050919050565b600060208201905081810360008301526148d581614899565b9050919050565b7f496e76616c6964205061796d656e7453746174652e0000000000000000000000600082015250565b6000614912601583613db9565b915061491d826148dc565b602082019050919050565b6000602082019050818103600083015261494181614905565b9050919050565b7f4e487b7100000000000000000000000000000000000000000000000000000000600052601160045260246000fd5b600061498282613eee565b915061498d83613eee565b9250827fffffffffffffffffffffffffffffffffffffffffffffffffffffffffffffffff038211156149c2576149c1614948565b5b828201905092915050565b6000819050919050565b60006149f26149ed6149e884613ead565b6149cd565b613ead565b9050919050565b6000614a04826149d7565b9050919050565b6000614a16826149f9565b9050919050565b614a2681614a0b565b82525050565b6000604082019050614a416000830185614a1d565b614a4e6020830184614591565b9392505050565b6000614a6082613eee565b9150614a6b83613eee565b925082821015614a7e57614a7d614948565b5b828203905092915050565b614a9281613e4a565b82525050565b6000602082019050614aad6000830184614a89565b92915050565b6000604082019050614ac86000830185614a89565b614ad56020830184614591565b9392505050565b6000604082019050614af16000830185614a1d565b614afe6020830184614a89565b9392505050565b7f4d6574686f642063616e2062652063616c6c6564206f6e6c7920627920636c6960008201527f656e742e00000000000000000000000000000000000000000000000000000000602082015250565b6000614b61602483613db9565b9150614b6c82614b05565b604082019050919050565b60006020820190508181036000830152614b9081614b54565b9050919050565b7f56616c75652073656e74206973206e6f74207468652065787065637465640000600082015250565b6000614bcd601e83613db9565b9150614bd882614b97565b602082019050919050565b60006020820190508181036000830152614bfc81614bc0565b9050919050565b7f5061796d656e74206e6f74206e65656465640000000000000000000000000000600082015250565b6000614c39601283613db9565b9150614c4482614c03565b602082019050919050565b60006020820190508181036000830152614c6881614c2c565b9050919050565b6000614c7a82613eee565b9150614c8583613eee565b9250817fffffffffffffffffffffffffffffffffffffffffffffffffffffffffffffffff0483118215151615614cbe57614cbd614948565b5b828202905092915050565b7f54696d6520686173206e6f7420657870697265642e0000000000000000000000600082015250565b6000614cff601583613db9565b9150614d0a82614cc9565b602082019050919050565b60006020820190508181036000830152614d2e81614cf2565b9050919050565b7f5461736b20616c72656164792065786973747300000000000000000000000000600082015250565b6000614d6b601383613db9565b9150614d7682614d35565b602082019050919050565b60006020820190508181036000830152614d9a81614d5e565b9050919050565b7f436c69656e7420636f6c6c61746572616c206973206e6f7420656e6f75676800600082015250565b6000614dd7601f83613db9565b9150614de282614da1565b602082019050919050565b60006020820190508181036000830152614e0681614dca565b9050919050565b7f4d6574686f642063616e2062652063616c6c6564206f6e6c7920627920636c6960008201527f656e742c2070726f7669646572206f7220746865206f776e65722e0000000000602082015250565b6000614e69603b83613db9565b9150614e7482614e0d565b604082019050919050565b60006020820190508181036000830152614e9881614e5c565b9050919050565b7f5461736b206d7573742062652072656769737465726564000000000000000000600082015250565b6000614ed5601783613db9565b9150614ee082614e9f565b602082019050919050565b60006020820190508181036000830152614f0481614ec8565b9050919050565b7f50726f766964657220636f6c6c61746572616c206973206e6f7420656e6f756760008201527f6800000000000000000000000000000000000000000000000000000000000000602082015250565b6000614f67602183613db9565b9150614f7282614f0b565b604082019050919050565b60006020820190508181036000830152614f9681614f5a565b9050919050565b600081905092915050565b6000614fb382613f07565b614fbd8185614f9d565b9350614fcd818560208601613f23565b80840191505092915050565b6000614fe58284614fa8565b91508190509291505056fea26469706673582212208efacb80eee3e2f6ec3a2dfdbb4a78b61e3846c2380dd7a0f5740d5ec666c06d64736f6c63430008080033",
  "devdoc": {
    "kind": "dev",
    "methods": {},
    "version": 1
  },
  "userdoc": {
    "kind": "user",
    "methods": {},
    "version": 1
  },
  "storageLayout": {
    "storage": [
      {
        "astId": 62,
        "contract": "contracts/TasksManager.sol:TasksManager",
        "label": "tasks",
        "offset": 0,
        "slot": "0",
        "type": "t_mapping(t_bytes32,t_struct(Task)52_storage)"
      },
      {
        "astId": 67,
        "contract": "contracts/TasksManager.sol:TasksManager",
        "label": "performance",
        "offset": 0,
        "slot": "1",
        "type": "t_mapping(t_address,t_struct(providerRating)57_storage)"
      }
    ],
    "types": {
      "t_address": {
        "encoding": "inplace",
        "label": "address",
        "numberOfBytes": "20"
      },
      "t_address_payable": {
        "encoding": "inplace",
        "label": "address payable",
        "numberOfBytes": "20"
      },
      "t_bytes32": {
        "encoding": "inplace",
        "label": "bytes32",
        "numberOfBytes": "32"
      },
      "t_enum(PaymentState)15": {
        "encoding": "inplace",
        "label": "enum TasksManager.PaymentState",
        "numberOfBytes": "1"
      },
      "t_enum(TaskState)11": {
        "encoding": "inplace",
        "label": "enum TasksManager.TaskState",
        "numberOfBytes": "1"
      },
      "t_mapping(t_address,t_struct(providerRating)57_storage)": {
        "encoding": "mapping",
        "key": "t_address",
        "label": "mapping(address => struct TasksManager.providerRating)",
        "numberOfBytes": "32",
        "value": "t_struct(providerRating)57_storage"
      },
      "t_mapping(t_bytes32,t_struct(Task)52_storage)": {
        "encoding": "mapping",
        "key": "t_bytes32",
        "label": "mapping(bytes32 => struct TasksManager.Task)",
        "numberOfBytes": "32",
        "value": "t_struct(Task)52_storage"
      },
      "t_string_storage": {
        "encoding": "bytes",
        "label": "string",
        "numberOfBytes": "32"
      },
      "t_struct(Task)52_storage": {
        "encoding": "inplace",
        "label": "struct TasksManager.Task",
        "members": [
          {
            "astId": 17,
            "contract": "contracts/TasksManager.sol:TasksManager",
            "label": "client",
            "offset": 0,
            "slot": "0",
            "type": "t_address_payable"
          },
          {
            "astId": 19,
            "contract": "contracts/TasksManager.sol:TasksManager",
            "label": "provider",
            "offset": 0,
            "slot": "1",
            "type": "t_address_payable"
          },
          {
            "astId": 21,
            "contract": "contracts/TasksManager.sol:TasksManager",
            "label": "providerCollateral",
            "offset": 0,
            "slot": "2",
            "type": "t_uint256"
          },
          {
            "astId": 23,
            "contract": "contracts/TasksManager.sol:TasksManager",
            "label": "clientCollateral",
            "offset": 0,
            "slot": "3",
            "type": "t_uint256"
          },
          {
            "astId": 25,
            "contract": "contracts/TasksManager.sol:TasksManager",
            "label": "deadline",
            "offset": 0,
            "slot": "4",
            "type": "t_uint256"
          },
          {
            "astId": 27,
            "contract": "contracts/TasksManager.sol:TasksManager",
            "label": "price",
            "offset": 0,
            "slot": "5",
            "type": "t_uint256"
          },
          {
            "astId": 29,
            "contract": "contracts/TasksManager.sol:TasksManager",
            "label": "duration",
            "offset": 0,
            "slot": "6",
            "type": "t_uint256"
          },
          {
            "astId": 31,
            "contract": "contracts/TasksManager.sol:TasksManager",
            "label": "cost",
            "offset": 0,
            "slot": "7",
            "type": "t_uint256"
          },
          {
            "astId": 33,
            "contract": "contracts/TasksManager.sol:TasksManager",
            "label": "activationTime",
            "offset": 0,
            "slot": "8",
            "type": "t_uint256"
          },
          {
            "astId": 35,
            "contract": "contracts/TasksManager.sol:TasksManager",
            "label": "timeResultProvided",
            "offset": 0,
            "slot": "9",
            "type": "t_uint256"
          },
          {
            "astId": 37,
            "contract": "contracts/TasksManager.sol:TasksManager",
            "label": "timeResultReceived",
            "offset": 0,
            "slot": "10",
            "type": "t_uint256"
          },
          {
            "astId": 39,
            "contract": "contracts/TasksManager.sol:TasksManager",
            "label": "computationCode",
            "offset": 0,
            "slot": "11",
            "type": "t_string_storage"
          },
          {
            "astId": 41,
            "contract": "contracts/TasksManager.sol:TasksManager",
            "label": "verificationCode",
            "offset": 0,
            "slot": "12",
            "type": "t_string_storage"
          },
          {
            "astId": 43,
            "contract": "contracts/TasksManager.sol:TasksManager",
            "label": "results",
            "offset": 0,
            "slot": "13",
            "type": "t_string_storage"
          },
          {
            "astId": 45,
            "contract": "contracts/TasksManager.sol:TasksManager",
            "label": "clientVerification",
            "offset": 0,
            "slot": "14",
            "type": "t_bytes32"
          },
          {
            "astId": 48,
            "contract": "contracts/TasksManager.sol:TasksManager",
            "label": "taskState",
            "offset": 0,
            "slot": "15",
            "type": "t_enum(TaskState)11"
          },
          {
            "astId": 51,
            "contract": "contracts/TasksManager.sol:TasksManager",
            "label": "paymentState",
            "offset": 1,
            "slot": "15",
            "type": "t_enum(PaymentState)15"
          }
        ],
        "numberOfBytes": "512"
      },
      "t_struct(providerRating)57_storage": {
        "encoding": "inplace",
        "label": "struct TasksManager.providerRating",
        "members": [
          {
            "astId": 54,
            "contract": "contracts/TasksManager.sol:TasksManager",
            "label": "upVotes",
            "offset": 0,
            "slot": "0",
            "type": "t_uint256"
          },
          {
            "astId": 56,
            "contract": "contracts/TasksManager.sol:TasksManager",
            "label": "downVotes",
            "offset": 0,
            "slot": "1",
            "type": "t_uint256"
          }
        ],
        "numberOfBytes": "64"
      },
      "t_uint256": {
        "encoding": "inplace",
        "label": "uint256",
        "numberOfBytes": "32"
      }
    }
  }
}