{
  "address": "0x5FbDB2315678afecb367f032d93F642f64180aa3",
  "abi": [
    {
      "inputs": [],
      "stateMutability": "nonpayable",
      "type": "constructor"
    },
    {
      "anonymous": false,
      "inputs": [
        {
          "indexed": false,
          "internalType": "bytes32",
          "name": "taskID",
          "type": "bytes32"
        }
      ],
      "name": "PaymentCompleted",
      "type": "event"
    },
    {
      "anonymous": false,
      "inputs": [
        {
          "indexed": false,
          "internalType": "bytes32",
          "name": "taskID",
          "type": "bytes32"
        },
        {
          "indexed": false,
          "internalType": "uint256",
          "name": "payment",
          "type": "uint256"
        }
      ],
      "name": "PaymentPending",
      "type": "event"
    },
    {
      "anonymous": false,
      "inputs": [
        {
          "indexed": false,
          "internalType": "address",
          "name": "provider",
          "type": "address"
        },
        {
          "indexed": false,
          "internalType": "bytes32",
          "name": "task",
          "type": "bytes32"
        }
      ],
      "name": "ProviderDownvoted",
      "type": "event"
    },
    {
      "anonymous": false,
      "inputs": [
        {
          "indexed": false,
          "internalType": "address",
          "name": "provider",
          "type": "address"
        },
        {
          "indexed": false,
          "internalType": "bytes32",
          "name": "task",
          "type": "bytes32"
        }
      ],
      "name": "ProviderUpvoted",
      "type": "event"
    },
    {
      "anonymous": false,
      "inputs": [
        {
          "indexed": false,
          "internalType": "bytes32",
          "name": "taskID",
          "type": "bytes32"
        }
      ],
      "name": "TaskActivated",
      "type": "event"
    },
    {
      "anonymous": false,
      "inputs": [
        {
          "indexed": false,
          "internalType": "bytes32",
          "name": "taskID",
          "type": "bytes32"
        }
      ],
      "name": "TaskCancelled",
      "type": "event"
    },
    {
      "anonymous": false,
      "inputs": [
        {
          "indexed": false,
          "internalType": "bytes32",
          "name": "taskID",
          "type": "bytes32"
        }
      ],
      "name": "TaskCompleted",
      "type": "event"
    },
    {
      "anonymous": false,
      "inputs": [
        {
          "indexed": false,
          "internalType": "bytes32",
          "name": "taskID",
          "type": "bytes32"
        }
      ],
      "name": "TaskCreated",
      "type": "event"
    },
    {
      "anonymous": false,
      "inputs": [
        {
          "indexed": false,
          "internalType": "bytes32",
          "name": "taskID",
          "type": "bytes32"
        }
      ],
      "name": "TaskInvalidated",
      "type": "event"
    },
    {
      "anonymous": false,
      "inputs": [
        {
          "indexed": false,
          "internalType": "bytes32",
          "name": "task",
          "type": "bytes32"
        }
      ],
      "name": "TaskRegistered",
      "type": "event"
    },
    {
      "anonymous": false,
      "inputs": [
        {
          "indexed": false,
          "internalType": "bytes32",
          "name": "task",
          "type": "bytes32"
        }
      ],
      "name": "TaskUnregistered",
      "type": "event"
    },
    {
      "anonymous": false,
      "inputs": [
        {
          "indexed": false,
          "internalType": "address",
          "name": "Address",
          "type": "address"
        },
        {
          "indexed": false,
          "internalType": "uint256",
          "name": "Amount",
          "type": "uint256"
        }
      ],
      "name": "TransferMade",
      "type": "event"
    },
    {
      "stateMutability": "payable",
      "type": "fallback"
    },
    {
      "inputs": [
        {
          "internalType": "bytes32",
          "name": "_taskID",
          "type": "bytes32"
        }
      ],
      "name": "CorrectVerification",
      "outputs": [
        {
          "internalType": "bool",
          "name": "",
          "type": "bool"
        }
      ],
      "stateMutability": "view",
      "type": "function"
    },
    {
      "inputs": [
        {
          "internalType": "bytes32",
          "name": "_taskID",
          "type": "bytes32"
        }
      ],
      "name": "InTime",
      "outputs": [
        {
          "internalType": "bool",
          "name": "",
          "type": "bool"
        }
      ],
      "stateMutability": "view",
      "type": "function"
    },
    {
      "inputs": [
        {
          "internalType": "bytes32",
          "name": "_taskID",
          "type": "bytes32"
        }
      ],
      "name": "ProviderTime",
      "outputs": [
        {
          "internalType": "bool",
          "name": "",
          "type": "bool"
        }
      ],
      "stateMutability": "view",
      "type": "function"
    },
    {
      "inputs": [
        {
          "internalType": "bytes32",
          "name": "_taskID",
          "type": "bytes32"
        }
      ],
      "name": "activateTask",
      "outputs": [],
      "stateMutability": "payable",
      "type": "function"
    },
    {
      "inputs": [
        {
          "internalType": "bytes32",
          "name": "_taskID",
          "type": "bytes32"
        }
      ],
      "name": "cancelTask",
      "outputs": [],
      "stateMutability": "nonpayable",
      "type": "function"
    },
    {
      "inputs": [
        {
          "internalType": "bytes32",
          "name": "_taskID",
          "type": "bytes32"
        }
      ],
      "name": "completePayment",
      "outputs": [],
      "stateMutability": "payable",
      "type": "function"
    },
    {
      "inputs": [
        {
          "internalType": "bytes32",
          "name": "_taskID",
          "type": "bytes32"
        }
      ],
      "name": "completeTask",
      "outputs": [],
      "stateMutability": "nonpayable",
      "type": "function"
    },
    {
      "inputs": [
        {
          "internalType": "bytes32",
          "name": "_taskID",
          "type": "bytes32"
        },
        {
          "internalType": "address payable",
          "name": "_client",
          "type": "address"
        },
        {
          "internalType": "address payable",
          "name": "_provider",
          "type": "address"
        },
        {
          "internalType": "uint256",
          "name": "_price",
          "type": "uint256"
        },
        {
          "internalType": "uint256",
          "name": "_providerCollateral",
          "type": "uint256"
        },
        {
          "internalType": "uint256",
          "name": "_deadline",
          "type": "uint256"
        },
        {
          "internalType": "bytes32",
          "name": "_clientVerification",
          "type": "bytes32"
        }
      ],
      "name": "createTask",
      "outputs": [],
      "stateMutability": "nonpayable",
      "type": "function"
    },
    {
      "inputs": [
        {
          "internalType": "bytes32",
          "name": "_taskID",
          "type": "bytes32"
        },
        {
          "internalType": "address",
          "name": "provider",
          "type": "address"
        }
      ],
      "name": "downVote",
      "outputs": [],
      "stateMutability": "nonpayable",
      "type": "function"
    },
    {
      "inputs": [
        {
          "internalType": "bytes32",
          "name": "_taskID",
          "type": "bytes32"
        }
      ],
      "name": "getActivationTime",
      "outputs": [
        {
          "internalType": "uint256",
          "name": "",
          "type": "uint256"
        }
      ],
      "stateMutability": "view",
      "type": "function"
    },
    {
      "inputs": [],
      "name": "getOwner",
      "outputs": [
        {
          "internalType": "address",
          "name": "",
          "type": "address"
        }
      ],
      "stateMutability": "view",
      "type": "function"
    },
    {
      "inputs": [
        {
          "internalType": "bytes32",
          "name": "_taskID",
          "type": "bytes32"
        }
      ],
      "name": "getPayment",
      "outputs": [
        {
          "internalType": "uint256",
          "name": "",
          "type": "uint256"
        }
      ],
      "stateMutability": "view",
      "type": "function"
    },
    {
      "inputs": [
        {
          "internalType": "bytes32",
          "name": "_taskID",
          "type": "bytes32"
        }
      ],
      "name": "getPaymentState",
      "outputs": [
        {
          "internalType": "enum TasksManager.PaymentState",
          "name": "",
          "type": "uint8"
        }
      ],
      "stateMutability": "view",
      "type": "function"
    },
    {
      "inputs": [
        {
          "internalType": "address",
          "name": "provider",
          "type": "address"
        }
      ],
      "name": "getPerformance",
      "outputs": [
        {
          "components": [
            {
              "internalType": "uint256",
              "name": "upVotes",
              "type": "uint256"
            },
            {
              "internalType": "uint256",
              "name": "downVotes",
              "type": "uint256"
            }
          ],
          "internalType": "struct TasksManager.providerRating",
          "name": "",
          "type": "tuple"
        }
      ],
      "stateMutability": "view",
      "type": "function"
    },
    {
      "inputs": [
        {
          "internalType": "bytes32",
          "name": "_taskID",
          "type": "bytes32"
        }
      ],
      "name": "getProviderCollateral",
      "outputs": [
        {
          "internalType": "uint256",
          "name": "",
          "type": "uint256"
        }
      ],
      "stateMutability": "view",
      "type": "function"
    },
    {
      "inputs": [
        {
          "internalType": "bytes32",
          "name": "_taskID",
          "type": "bytes32"
        }
      ],
      "name": "getTask",
      "outputs": [
        {
          "components": [
            {
              "internalType": "address payable",
              "name": "provider",
              "type": "address"
            },
            {
              "internalType": "address payable",
              "name": "client",
              "type": "address"
            },
            {
              "internalType": "uint256",
              "name": "price",
              "type": "uint256"
            },
            {
              "internalType": "uint256",
              "name": "providerCollateral",
              "type": "uint256"
            },
            {
              "internalType": "uint256",
              "name": "clientCollateral",
              "type": "uint256"
            },
            {
              "internalType": "uint256",
              "name": "payment",
              "type": "uint256"
            },
            {
              "internalType": "uint256",
              "name": "deadline",
              "type": "uint256"
            },
            {
              "internalType": "uint256",
              "name": "duration",
              "type": "uint256"
            },
            {
              "internalType": "uint256",
              "name": "activationTime",
              "type": "uint256"
            },
            {
              "internalType": "uint256",
              "name": "timeResultProvided",
              "type": "uint256"
            },
            {
              "internalType": "uint256",
              "name": "timeResultReceived",
              "type": "uint256"
            },
            {
              "internalType": "enum TasksManager.TaskState",
              "name": "taskState",
              "type": "uint8"
            },
            {
              "internalType": "enum TasksManager.PaymentState",
              "name": "paymentState",
              "type": "uint8"
            },
            {
              "internalType": "string",
              "name": "code",
              "type": "string"
            },
            {
              "internalType": "bytes32",
              "name": "clientVerification",
              "type": "bytes32"
            },
            {
              "internalType": "string",
              "name": "providerVerification",
              "type": "string"
            }
          ],
          "internalType": "struct TasksManager.Task",
          "name": "",
          "type": "tuple"
        }
      ],
      "stateMutability": "view",
      "type": "function"
    },
    {
      "inputs": [
        {
          "internalType": "bytes32",
          "name": "_taskID",
          "type": "bytes32"
        }
      ],
      "name": "getTaskState",
      "outputs": [
        {
          "internalType": "enum TasksManager.TaskState",
          "name": "",
          "type": "uint8"
        }
      ],
      "stateMutability": "view",
      "type": "function"
    },
    {
      "inputs": [
        {
          "internalType": "bytes32",
          "name": "_taskID",
          "type": "bytes32"
        }
      ],
      "name": "invalidateTask",
      "outputs": [],
      "stateMutability": "nonpayable",
      "type": "function"
    },
    {
      "inputs": [
        {
          "internalType": "bytes32",
          "name": "_taskID",
          "type": "bytes32"
        }
      ],
      "name": "isRegistered",
      "outputs": [
        {
          "internalType": "bool",
          "name": "",
          "type": "bool"
        }
      ],
      "stateMutability": "view",
      "type": "function"
    },
    {
      "inputs": [
        {
          "internalType": "bytes32",
          "name": "_taskID",
          "type": "bytes32"
        },
        {
          "internalType": "string",
          "name": "ver",
          "type": "string"
        },
        {
          "internalType": "uint256",
          "name": "_timeReceivedProvider",
          "type": "uint256"
        }
      ],
      "name": "receiveResults",
      "outputs": [],
      "stateMutability": "nonpayable",
      "type": "function"
    },
    {
      "inputs": [
        {
          "internalType": "bytes32",
          "name": "_taskID",
          "type": "bytes32"
        },
        {
          "internalType": "string",
          "name": "_code",
          "type": "string"
        }
      ],
      "name": "setCode",
      "outputs": [],
      "stateMutability": "nonpayable",
      "type": "function"
    },
    {
      "inputs": [
        {
          "internalType": "bytes32",
          "name": "_taskID",
          "type": "bytes32"
        },
        {
          "internalType": "address",
          "name": "provider",
          "type": "address"
        }
      ],
      "name": "upVote",
      "outputs": [],
      "stateMutability": "nonpayable",
      "type": "function"
    },
    {
      "stateMutability": "payable",
      "type": "receive"
    }
  ],
  "transactionHash": "0x2baa18df08bf520353ff7b6e1c96e1683fe2f45aa7282201bbdf2b14027ac7c3",
  "args": [],
  "numDeployments": 1,
  "solcInputHash": "2799db43399f83cbe773a588b3d0a3ee",
  "bytecode": "0x60a060405234801561001057600080fd5b503373ffffffffffffffffffffffffffffffffffffffff1660808173ffffffffffffffffffffffffffffffffffffffff1660601b8152505060805160601c6140d8610074600039600081816105ca0152818161248f015261279601526140d86000f3fe6080604052600436106101395760003560e01c806370ad1976116100ab57806392b833201161006f57806392b83320146104b7578063974b3b01146104d3578063ab210cc8146104fc578063e66eefc814610539578063ee8ca3b514610576578063f3dd6de31461059f57610179565b806370ad1976146103c057806375ece975146103fd5780637c0390f7146104265780638693944d1461044f578063893d20e81461048c57610179565b8063283462a9116100fd578063283462a91461029b5780633ecff55f146102d857806347ca8a8b1461031557806349ec76421461033157806354706b5a1461035a578063668b1baa1461038357610179565b8063073d89231461017e5780630946dc8a146101a757806315a29035146101e45780631ecc9aaf1461022157806327258b221461025e57610179565b36610179576040517f08c379a000000000000000000000000000000000000000000000000000000000815260040161017090613024565b60405180910390fd5b600080fd5b34801561018a57600080fd5b506101a560048036038101906101a091906130ec565b6105c8565b005b3480156101b357600080fd5b506101ce60048036038101906101c9919061312c565b610736565b6040516101db9190613174565b60405180910390f35b3480156101f057600080fd5b5061020b6004803603810190610206919061312c565b610791565b604051610218919061348f565b60405180910390f35b34801561022d57600080fd5b50610248600480360381019061024391906134b1565b610a68565b604051610255919061350d565b60405180910390f35b34801561026a57600080fd5b506102856004803603810190610280919061312c565b610ad5565b6040516102929190613174565b60405180910390f35b3480156102a757600080fd5b506102c260048036038101906102bd919061312c565b610b43565b6040516102cf9190613174565b60405180910390f35b3480156102e457600080fd5b506102ff60048036038101906102fa919061312c565b610b86565b60405161030c9190613174565b60405180910390f35b61032f600480360381019061032a919061312c565b610bdd565b005b34801561033d57600080fd5b506103586004803603810190610353919061365d565b611130565b005b34801561036657600080fd5b50610381600480360381019061037c919061312c565b61115e565b005b34801561038f57600080fd5b506103aa60048036038101906103a5919061312c565b61167f565b6040516103b791906136c8565b60405180910390f35b3480156103cc57600080fd5b506103e760048036038101906103e2919061312c565b61169e565b6040516103f491906136c8565b60405180910390f35b34801561040957600080fd5b50610424600480360381019061041f919061373b565b6116bd565b005b34801561043257600080fd5b5061044d6004803603810190610448919061312c565b6118c0565b005b34801561045b57600080fd5b506104766004803603810190610471919061312c565b61245f565b60405161048391906137ec565b60405180910390f35b34801561049857600080fd5b506104a161248b565b6040516104ae9190613816565b60405180910390f35b6104d160048036038101906104cc919061312c565b6124b3565b005b3480156104df57600080fd5b506104fa60048036038101906104f591906130ec565b612794565b005b34801561050857600080fd5b50610523600480360381019061051e919061312c565b612902565b6040516105309190613840565b60405180910390f35b34801561054557600080fd5b50610560600480360381019061055b919061312c565b61292e565b60405161056d91906136c8565b60405180910390f35b34801561058257600080fd5b5061059d6004803603810190610598919061312c565b61294d565b005b3480156105ab57600080fd5b506105c660048036038101906105c1919061385b565b612d97565b005b7f000000000000000000000000000000000000000000000000000000000000000073ffffffffffffffffffffffffffffffffffffffff163373ffffffffffffffffffffffffffffffffffffffff1614610656576040517f08c379a000000000000000000000000000000000000000000000000000000000815260040161064d9061393c565b60405180910390fd5b8161066081610ad5565b61069f576040517f08c379a0000000000000000000000000000000000000000000000000000000008152600401610696906139a8565b60405180910390fd5b60018060008473ffffffffffffffffffffffffffffffffffffffff1673ffffffffffffffffffffffffffffffffffffffff16815260200190815260200160002060010160008282546106f191906139f7565b925050819055507f3fec1177d25f324e1beb970cd60f8b52ef1e47290a72bdb8f62101720f5e49278284604051610729929190613a5c565b60405180910390a1505050565b6000806000838152602001908152602001600020600e0160405160200161075d9190613b85565b60405160208183030381529060405280519060200120600080848152602001908152602001600020600d0154149050919050565b610799612dfa565b600080838152602001908152602001600020604051806102000160405290816000820160009054906101000a900473ffffffffffffffffffffffffffffffffffffffff1673ffffffffffffffffffffffffffffffffffffffff1673ffffffffffffffffffffffffffffffffffffffff1681526020016001820160009054906101000a900473ffffffffffffffffffffffffffffffffffffffff1673ffffffffffffffffffffffffffffffffffffffff1673ffffffffffffffffffffffffffffffffffffffff1681526020016002820154815260200160038201548152602001600482015481526020016005820154815260200160068201548152602001600782015481526020016008820154815260200160098201548152602001600a8201548152602001600b820160009054906101000a900460ff1660048111156108e2576108e16131c9565b5b60048111156108f4576108f36131c9565b5b8152602001600b820160019054906101000a900460ff16600281111561091d5761091c6131c9565b5b600281111561092f5761092e6131c9565b5b8152602001600c8201805461094390613ab4565b80601f016020809104026020016040519081016040528092919081815260200182805461096f90613ab4565b80156109bc5780601f10610991576101008083540402835291602001916109bc565b820191906000526020600020905b81548152906001019060200180831161099f57829003601f168201915b50505050508152602001600d8201548152602001600e820180546109df90613ab4565b80601f0160208091040260200160405190810160405280929190818152602001828054610a0b90613ab4565b8015610a585780601f10610a2d57610100808354040283529160200191610a58565b820191906000526020600020905b815481529060010190602001808311610a3b57829003601f168201915b5050505050815250509050919050565b610a70612eca565b600160008373ffffffffffffffffffffffffffffffffffffffff1673ffffffffffffffffffffffffffffffffffffffff168152602001908152602001600020604051806040016040529081600082015481526020016001820154815250509050919050565b60008073ffffffffffffffffffffffffffffffffffffffff1660008084815260200190815260200160002060010160009054906101000a900473ffffffffffffffffffffffffffffffffffffffff1673ffffffffffffffffffffffffffffffffffffffff1614159050919050565b6000603c60008084815260200190815260200160002060090154610b6791906139f7565b600080848152602001908152602001600020600a015411159050919050565b60008060008381526020019081526020016000206006015460008084815260200190815260200160002060080154610bbe91906139f7565b600080848152602001908152602001600020600a015411159050919050565b8060008082815260200190815260200160002060010160009054906101000a900473ffffffffffffffffffffffffffffffffffffffff1673ffffffffffffffffffffffffffffffffffffffff163373ffffffffffffffffffffffffffffffffffffffff1614610c81576040517f08c379a0000000000000000000000000000000000000000000000000000000008152600401610c7890613c0e565b60405180910390fd5b816003806004811115610c9757610c966131c9565b5b600080848152602001908152602001600020600b0160009054906101000a900460ff166004811115610ccc57610ccb6131c9565b5b14610d0c576040517f08c379a0000000000000000000000000000000000000000000000000000000008152600401610d0390613c7a565b60405180910390fd5b836001806002811115610d2257610d216131c9565b5b600080848152602001908152602001600020600b0160019054906101000a900460ff166002811115610d5757610d566131c9565b5b14610d97576040517f08c379a0000000000000000000000000000000000000000000000000000000008152600401610d8e90613ce6565b60405180910390fd5b6000808781526020019081526020016000206004015460008088815260200190815260200160002060050154610dcd9190613d06565b803414610e0f576040517f08c379a0000000000000000000000000000000000000000000000000000000008152600401610e0690613d86565b60405180910390fd5b60016002811115610e2357610e226131c9565b5b600080898152602001908152602001600020600b0160019054906101000a900460ff166002811115610e5857610e576131c9565b5b14610e98576040517f08c379a0000000000000000000000000000000000000000000000000000000008152600401610e8f90613df2565b60405180910390fd5b60008088815260200190815260200160002060000160009054906101000a900473ffffffffffffffffffffffffffffffffffffffff1673ffffffffffffffffffffffffffffffffffffffff166108fc349081150290604051600060405180830381858888f19350505050158015610f13573d6000803e3d6000fd5b507fbb1d109694da1f57c795e648cd08cfff17024c10216d0c583badbd33ed32494c60008089815260200190815260200160002060000160009054906101000a900473ffffffffffffffffffffffffffffffffffffffff166000808a8152602001908152602001600020600401546000808b815260200190815260200160002060050154610fa19190613d06565b604051610faf929190613e71565b60405180910390a16002600080898152602001908152602001600020600b0160016101000a81548160ff02191690836002811115610ff057610fef6131c9565b5b02179055507ff2baea2668e36a27a898b8c745decb4439ff61ae04d545dcc6954b84bd3e3c42876040516110249190613e9a565b60405180910390a1600080888152602001908152602001600020600080820160006101000a81549073ffffffffffffffffffffffffffffffffffffffff02191690556001820160006101000a81549073ffffffffffffffffffffffffffffffffffffffff021916905560028201600090556003820160009055600482016000905560058201600090556006820160009055600782016000905560088201600090556009820160009055600a820160009055600b820160006101000a81549060ff0219169055600b820160016101000a81549060ff0219169055600c8201600061110d9190612ee4565b600d820160009055600e820160006111259190612ee4565b505050505050505050565b80600080848152602001908152602001600020600c019080519060200190611159929190612f24565b505050565b8060008082815260200190815260200160002060010160009054906101000a900473ffffffffffffffffffffffffffffffffffffffff1673ffffffffffffffffffffffffffffffffffffffff163373ffffffffffffffffffffffffffffffffffffffff1614611202576040517f08c379a00000000000000000000000000000000000000000000000000000000081526004016111f990613c0e565b60405180910390fd5b816002806004811115611218576112176131c9565b5b600080848152602001908152602001600020600b0160009054906101000a900460ff16600481111561124d5761124c6131c9565b5b1461128d576040517f08c379a000000000000000000000000000000000000000000000000000000000815260040161128490613c7a565b60405180910390fd5b60008085815260200190815260200160002060030154600080868152602001908152602001600020600401546112c391906139f7565b80471015611306576040517f08c379a00000000000000000000000000000000000000000000000000000000081526004016112fd90613f01565b60405180910390fd5b600080868152602001908152602001600020600601546000808781526020019081526020016000206008015461133c91906139f7565b421161137d576040517f08c379a000000000000000000000000000000000000000000000000000000000815260040161137490613f6d565b60405180910390fd5b6004600080878152602001908152602001600020600b0160006101000a81548160ff021916908360048111156113b6576113b56131c9565b5b021790555060008086815260200190815260200160002060010160009054906101000a900473ffffffffffffffffffffffffffffffffffffffff1673ffffffffffffffffffffffffffffffffffffffff166108fc600080888152602001908152602001600020600301546000808981526020019081526020016000206004015461144091906139f7565b9081150290604051600060405180830381858888f1935050505015801561146b573d6000803e3d6000fd5b507fbb1d109694da1f57c795e648cd08cfff17024c10216d0c583badbd33ed32494c60008087815260200190815260200160002060010160009054906101000a900473ffffffffffffffffffffffffffffffffffffffff1660008088815260200190815260200160002060030154600080898152602001908152602001600020600401546114f991906139f7565b604051611507929190613e71565b60405180910390a1600080868152602001908152602001600020600080820160006101000a81549073ffffffffffffffffffffffffffffffffffffffff02191690556001820160006101000a81549073ffffffffffffffffffffffffffffffffffffffff021916905560028201600090556003820160009055600482016000905560058201600090556006820160009055600782016000905560088201600090556009820160009055600a820160009055600b820160006101000a81549060ff0219169055600b820160016101000a81549060ff0219169055600c820160006115f09190612ee4565b600d820160009055600e820160006116089190612ee4565b50507fa07d0b7132fa6b208a063af8026a29c1fa7ea1f98ffc9682615585318a6b25d6856040516116399190613e9a565b60405180910390a17fb1115fb0a2ad10d7fc3823dadb2f14589bef759b57af99b0f44a2f6a5bcee4f4856040516116709190613e9a565b60405180910390a15050505050565b6000806000838152602001908152602001600020600301549050919050565b6000806000838152602001908152602001600020600801549050919050565b8560008089815260200190815260200160002060010160006101000a81548173ffffffffffffffffffffffffffffffffffffffff021916908373ffffffffffffffffffffffffffffffffffffffff1602179055508460008089815260200190815260200160002060000160006101000a81548173ffffffffffffffffffffffffffffffffffffffff021916908373ffffffffffffffffffffffffffffffffffffffff16021790555083600080898152602001908152602001600020600201819055508260008089815260200190815260200160002060030181905550816000808981526020019081526020016000206006018190555080600080898152602001908152602001600020600d01819055506000806000898152602001908152602001600020600b0160006101000a81548160ff02191690836004811115611806576118056131c9565b5b02179055506000806000898152602001908152602001600020600b0160016101000a81548160ff02191690836002811115611844576118436131c9565b5b02179055507f1e28175955a872c8252a6e5cf36ac6b318d074eb78b49731e5cb9ddc2d870b63876040516118789190613e9a565b60405180910390a17f2634c61996f131952dea1b6c5a08057c061e09429d247354d6f7b60873238c5e876040516118af9190613e9a565b60405180910390a150505050505050565b8060008082815260200190815260200160002060000160009054906101000a900473ffffffffffffffffffffffffffffffffffffffff1673ffffffffffffffffffffffffffffffffffffffff163373ffffffffffffffffffffffffffffffffffffffff1614611964576040517f08c379a000000000000000000000000000000000000000000000000000000000815260040161195b90613fff565b60405180910390fd5b81600280600481111561197a576119796131c9565b5b600080848152602001908152602001600020600b0160009054906101000a900460ff1660048111156119af576119ae6131c9565b5b146119ef576040517f08c379a00000000000000000000000000000000000000000000000000000000081526004016119e690613c7a565b60405180910390fd5b6000808581526020019081526020016000206003015460008086815260200190815260200160002060040154611a2591906139f7565b80471015611a68576040517f08c379a0000000000000000000000000000000000000000000000000000000008152600401611a5f90613f01565b60405180910390fd5b611a7185610b86565b8015611a825750611a8185610b43565b5b8015611a935750611a9285610736565b5b156120ce576000808681526020019081526020016000206008015460008087815260200190815260200160002060090154611ace9190613d06565b600080878152602001908152602001600020600701819055506000808681526020019081526020016000206007015460008087815260200190815260200160002060020154611b1d919061401f565b60008087815260200190815260200160002060050181905550600080868152602001908152602001600020600401546000808781526020019081526020016000206005015411611e895760008086815260200190815260200160002060000160009054906101000a900473ffffffffffffffffffffffffffffffffffffffff1673ffffffffffffffffffffffffffffffffffffffff166108fc6000808881526020019081526020016000206003015460008089815260200190815260200160002060050154611bec91906139f7565b9081150290604051600060405180830381858888f19350505050158015611c17573d6000803e3d6000fd5b507fbb1d109694da1f57c795e648cd08cfff17024c10216d0c583badbd33ed32494c60008087815260200190815260200160002060000160009054906101000a900473ffffffffffffffffffffffffffffffffffffffff166000808881526020019081526020016000206003015460008089815260200190815260200160002060050154611ca591906139f7565b604051611cb3929190613e71565b60405180910390a160008086815260200190815260200160002060010160009054906101000a900473ffffffffffffffffffffffffffffffffffffffff1673ffffffffffffffffffffffffffffffffffffffff166108fc6000808881526020019081526020016000206004015460008089815260200190815260200160002060050154611d409190613d06565b9081150290604051600060405180830381858888f19350505050158015611d6b573d6000803e3d6000fd5b507fbb1d109694da1f57c795e648cd08cfff17024c10216d0c583badbd33ed32494c60008087815260200190815260200160002060010160009054906101000a900473ffffffffffffffffffffffffffffffffffffffff166000808881526020019081526020016000206004015460008089815260200190815260200160002060050154611df99190613d06565b604051611e07929190613e71565b60405180910390a16002600080878152602001908152602001600020600b0160016101000a81548160ff02191690836002811115611e4857611e476131c9565b5b02179055507ff2baea2668e36a27a898b8c745decb4439ff61ae04d545dcc6954b84bd3e3c4285604051611e7c9190613e9a565b60405180910390a161208a565b60008086815260200190815260200160002060000160009054906101000a900473ffffffffffffffffffffffffffffffffffffffff1673ffffffffffffffffffffffffffffffffffffffff166108fc6000808881526020019081526020016000206003015460008089815260200190815260200160002060040154611f0e91906139f7565b9081150290604051600060405180830381858888f19350505050158015611f39573d6000803e3d6000fd5b507fbb1d109694da1f57c795e648cd08cfff17024c10216d0c583badbd33ed32494c60008087815260200190815260200160002060000160009054906101000a900473ffffffffffffffffffffffffffffffffffffffff166000808881526020019081526020016000206003015460008089815260200190815260200160002060040154611fc791906139f7565b604051611fd5929190613e71565b60405180910390a16001600080878152602001908152602001600020600b0160016101000a81548160ff02191690836002811115612016576120156131c9565b5b02179055507f0e94573b1be2e52f56af2fa73f97395af190b00bf516b0e90356c3619c4cdf7c8560008088815260200190815260200160002060040154600080898152602001908152602001600020600501546120739190613d06565b604051612081929190614079565b60405180910390a15b6120c98560008088815260200190815260200160002060000160009054906101000a900473ffffffffffffffffffffffffffffffffffffffff16612794565b612262565b60008086815260200190815260200160002060010160009054906101000a900473ffffffffffffffffffffffffffffffffffffffff1673ffffffffffffffffffffffffffffffffffffffff166108fc600080888152602001908152602001600020600301546000808981526020019081526020016000206004015461215391906139f7565b9081150290604051600060405180830381858888f1935050505015801561217e573d6000803e3d6000fd5b507fbb1d109694da1f57c795e648cd08cfff17024c10216d0c583badbd33ed32494c60008087815260200190815260200160002060010160009054906101000a900473ffffffffffffffffffffffffffffffffffffffff16600080888152602001908152602001600020600301546000808981526020019081526020016000206004015461220c91906139f7565b60405161221a929190613e71565b60405180910390a16122618560008088815260200190815260200160002060000160009054906101000a900473ffffffffffffffffffffffffffffffffffffffff166105c8565b5b6003600080878152602001908152602001600020600b0160006101000a81548160ff0219169083600481111561229b5761229a6131c9565b5b02179055506002808111156122b3576122b26131c9565b5b600080878152602001908152602001600020600b0160019054906101000a900460ff1660028111156122e8576122e76131c9565b5b14156123ea57600080868152602001908152602001600020600080820160006101000a81549073ffffffffffffffffffffffffffffffffffffffff02191690556001820160006101000a81549073ffffffffffffffffffffffffffffffffffffffff021916905560028201600090556003820160009055600482016000905560058201600090556006820160009055600782016000905560088201600090556009820160009055600a820160009055600b820160006101000a81549060ff0219169055600b820160016101000a81549060ff0219169055600c820160006123cf9190612ee4565b600d820160009055600e820160006123e79190612ee4565b50505b7f572a2b6ee4b829f7c9a4b27bd7729666696a0b5e394e1a9ad92e925e483f02c2856040516124199190613e9a565b60405180910390a17fb1115fb0a2ad10d7fc3823dadb2f14589bef759b57af99b0f44a2f6a5bcee4f4856040516124509190613e9a565b60405180910390a15050505050565b6000806000838152602001908152602001600020600b0160009054906101000a900460ff169050919050565b60007f0000000000000000000000000000000000000000000000000000000000000000905090565b8060008082815260200190815260200160002060000160009054906101000a900473ffffffffffffffffffffffffffffffffffffffff1673ffffffffffffffffffffffffffffffffffffffff163373ffffffffffffffffffffffffffffffffffffffff1614612557576040517f08c379a000000000000000000000000000000000000000000000000000000000815260040161254e90613fff565b60405180910390fd5b600080838152602001908152602001600020600301548034146125af576040517f08c379a00000000000000000000000000000000000000000000000000000000081526004016125a690613d86565b60405180910390fd5b8260008060048111156125c5576125c46131c9565b5b600080848152602001908152602001600020600b0160009054906101000a900460ff1660048111156125fa576125f96131c9565b5b1461263a576040517f08c379a000000000000000000000000000000000000000000000000000000000815260040161263190613c7a565b60405180910390fd5b600080868152602001908152602001600020600301546000808781526020019081526020016000206004015461267091906139f7565b804710156126b3576040517f08c379a00000000000000000000000000000000000000000000000000000000081526004016126aa90613f01565b60405180910390fd5b856126bd81610ad5565b6126fc576040517f08c379a00000000000000000000000000000000000000000000000000000000081526004016126f3906139a8565b60405180910390fd5b42600080898152602001908152602001600020600801819055506002600080898152602001908152602001600020600b0160006101000a81548160ff0219169083600481111561274f5761274e6131c9565b5b02179055507fce708d6b67215419755514077f148edc2ee99fe51d758948ee62feea825d7038876040516127839190613e9a565b60405180910390a150505050505050565b7f000000000000000000000000000000000000000000000000000000000000000073ffffffffffffffffffffffffffffffffffffffff163373ffffffffffffffffffffffffffffffffffffffff1614612822576040517f08c379a00000000000000000000000000000000000000000000000000000000081526004016128199061393c565b60405180910390fd5b8161282c81610ad5565b61286b576040517f08c379a0000000000000000000000000000000000000000000000000000000008152600401612862906139a8565b60405180910390fd5b60018060008473ffffffffffffffffffffffffffffffffffffffff1673ffffffffffffffffffffffffffffffffffffffff16815260200190815260200160002060000160008282546128bd91906139f7565b925050819055507ff79072e0f370bb188b7c4d34ae8a5c9138b891e5df7cfa7ca412b518d30aaf7582846040516128f5929190613a5c565b60405180910390a1505050565b6000806000838152602001908152602001600020600b0160019054906101000a900460ff169050919050565b6000806000838152602001908152602001600020600501549050919050565b8060008082815260200190815260200160002060010160009054906101000a900473ffffffffffffffffffffffffffffffffffffffff1673ffffffffffffffffffffffffffffffffffffffff163373ffffffffffffffffffffffffffffffffffffffff16146129f1576040517f08c379a00000000000000000000000000000000000000000000000000000000081526004016129e890613c0e565b60405180910390fd5b816000806004811115612a0757612a066131c9565b5b600080848152602001908152602001600020600b0160009054906101000a900460ff166004811115612a3c57612a3b6131c9565b5b14612a7c576040517f08c379a0000000000000000000000000000000000000000000000000000000008152600401612a7390613c7a565b60405180910390fd5b6000808581526020019081526020016000206004015480471015612ad5576040517f08c379a0000000000000000000000000000000000000000000000000000000008152600401612acc90613f01565b60405180910390fd5b6001600080878152602001908152602001600020600b0160006101000a81548160ff02191690836004811115612b0e57612b0d6131c9565b5b021790555060008086815260200190815260200160002060010160009054906101000a900473ffffffffffffffffffffffffffffffffffffffff1673ffffffffffffffffffffffffffffffffffffffff166108fc600080888152602001908152602001600020600401549081150290604051600060405180830381858888f19350505050158015612ba3573d6000803e3d6000fd5b507fbb1d109694da1f57c795e648cd08cfff17024c10216d0c583badbd33ed32494c60008087815260200190815260200160002060010160009054906101000a900473ffffffffffffffffffffffffffffffffffffffff1660008088815260200190815260200160002060040154604051612c1f929190613e71565b60405180910390a1600080868152602001908152602001600020600080820160006101000a81549073ffffffffffffffffffffffffffffffffffffffff02191690556001820160006101000a81549073ffffffffffffffffffffffffffffffffffffffff021916905560028201600090556003820160009055600482016000905560058201600090556006820160009055600782016000905560088201600090556009820160009055600a820160009055600b820160006101000a81549060ff0219169055600b820160016101000a81549060ff0219169055600c82016000612d089190612ee4565b600d820160009055600e82016000612d209190612ee4565b50507fe1e1d79b8f28d3379fc32f617eaf54dd6bd4071074c77e91134770e04a81d62685604051612d519190613e9a565b60405180910390a17fb1115fb0a2ad10d7fc3823dadb2f14589bef759b57af99b0f44a2f6a5bcee4f485604051612d889190613e9a565b60405180910390a15050505050565b81600080858152602001908152602001600020600e019080519060200190612dc0929190612f24565b5042600080858152602001908152602001600020600a01819055508060008085815260200190815260200160002060090181905550505050565b604051806102000160405280600073ffffffffffffffffffffffffffffffffffffffff168152602001600073ffffffffffffffffffffffffffffffffffffffff16815260200160008152602001600081526020016000815260200160008152602001600081526020016000815260200160008152602001600081526020016000815260200160006004811115612e9357612e926131c9565b5b815260200160006002811115612eac57612eab6131c9565b5b81526020016060815260200160008019168152602001606081525090565b604051806040016040528060008152602001600081525090565b508054612ef090613ab4565b6000825580601f10612f025750612f21565b601f016020900490600052602060002090810190612f209190612faa565b5b50565b828054612f3090613ab4565b90600052602060002090601f016020900481019282612f525760008555612f99565b82601f10612f6b57805160ff1916838001178555612f99565b82800160010185558215612f99579182015b82811115612f98578251825591602001919060010190612f7d565b5b509050612fa69190612faa565b5090565b5b80821115612fc3576000816000905550600101612fab565b5090565b600082825260208201905092915050565b7f6261642063616c6c000000000000000000000000000000000000000000000000600082015250565b600061300e600883612fc7565b915061301982612fd8565b602082019050919050565b6000602082019050818103600083015261303d81613001565b9050919050565b6000604051905090565b600080fd5b600080fd5b6000819050919050565b61306b81613058565b811461307657600080fd5b50565b60008135905061308881613062565b92915050565b600073ffffffffffffffffffffffffffffffffffffffff82169050919050565b60006130b98261308e565b9050919050565b6130c9816130ae565b81146130d457600080fd5b50565b6000813590506130e6816130c0565b92915050565b600080604083850312156131035761310261304e565b5b600061311185828601613079565b9250506020613122858286016130d7565b9150509250929050565b6000602082840312156131425761314161304e565b5b600061315084828501613079565b91505092915050565b60008115159050919050565b61316e81613159565b82525050565b60006020820190506131896000830184613165565b92915050565b600061319a8261308e565b9050919050565b6131aa8161318f565b82525050565b6000819050919050565b6131c3816131b0565b82525050565b7f4e487b7100000000000000000000000000000000000000000000000000000000600052602160045260246000fd5b60058110613209576132086131c9565b5b50565b600081905061321a826131f8565b919050565b600061322a8261320c565b9050919050565b61323a8161321f565b82525050565b60038110613251576132506131c9565b5b50565b600081905061326282613240565b919050565b600061327282613254565b9050919050565b61328281613267565b82525050565b600081519050919050565b600082825260208201905092915050565b60005b838110156132c25780820151818401526020810190506132a7565b838111156132d1576000848401525b50505050565b6000601f19601f8301169050919050565b60006132f382613288565b6132fd8185613293565b935061330d8185602086016132a4565b613316816132d7565b840191505092915050565b61332a81613058565b82525050565b60006102008301600083015161334960008601826131a1565b50602083015161335c60208601826131a1565b50604083015161336f60408601826131ba565b50606083015161338260608601826131ba565b50608083015161339560808601826131ba565b5060a08301516133a860a08601826131ba565b5060c08301516133bb60c08601826131ba565b5060e08301516133ce60e08601826131ba565b506101008301516133e36101008601826131ba565b506101208301516133f86101208601826131ba565b5061014083015161340d6101408601826131ba565b50610160830151613422610160860182613231565b50610180830151613437610180860182613279565b506101a08301518482036101a086015261345182826132e8565b9150506101c08301516134686101c0860182613321565b506101e08301518482036101e086015261348282826132e8565b9150508091505092915050565b600060208201905081810360008301526134a98184613330565b905092915050565b6000602082840312156134c7576134c661304e565b5b60006134d5848285016130d7565b91505092915050565b6040820160008201516134f460008501826131ba565b50602082015161350760208501826131ba565b50505050565b600060408201905061352260008301846134de565b92915050565b600080fd5b600080fd5b7f4e487b7100000000000000000000000000000000000000000000000000000000600052604160045260246000fd5b61356a826132d7565b810181811067ffffffffffffffff8211171561358957613588613532565b5b80604052505050565b600061359c613044565b90506135a88282613561565b919050565b600067ffffffffffffffff8211156135c8576135c7613532565b5b6135d1826132d7565b9050602081019050919050565b82818337600083830152505050565b60006136006135fb846135ad565b613592565b90508281526020810184848401111561361c5761361b61352d565b5b6136278482856135de565b509392505050565b600082601f83011261364457613643613528565b5b81356136548482602086016135ed565b91505092915050565b600080604083850312156136745761367361304e565b5b600061368285828601613079565b925050602083013567ffffffffffffffff8111156136a3576136a2613053565b5b6136af8582860161362f565b9150509250929050565b6136c2816131b0565b82525050565b60006020820190506136dd60008301846136b9565b92915050565b6136ec8161318f565b81146136f757600080fd5b50565b600081359050613709816136e3565b92915050565b613718816131b0565b811461372357600080fd5b50565b6000813590506137358161370f565b92915050565b600080600080600080600060e0888a03121561375a5761375961304e565b5b60006137688a828b01613079565b97505060206137798a828b016136fa565b965050604061378a8a828b016136fa565b955050606061379b8a828b01613726565b94505060806137ac8a828b01613726565b93505060a06137bd8a828b01613726565b92505060c06137ce8a828b01613079565b91505092959891949750929550565b6137e68161321f565b82525050565b600060208201905061380160008301846137dd565b92915050565b613810816130ae565b82525050565b600060208201905061382b6000830184613807565b92915050565b61383a81613267565b82525050565b60006020820190506138556000830184613831565b92915050565b6000806000606084860312156138745761387361304e565b5b600061388286828701613079565b935050602084013567ffffffffffffffff8111156138a3576138a2613053565b5b6138af8682870161362f565b92505060406138c086828701613726565b9150509250925092565b7f4d6574686f642063616e2062652063616c6c6564206f6e6c79206279206f776e60008201527f65722e0000000000000000000000000000000000000000000000000000000000602082015250565b6000613926602383612fc7565b9150613931826138ca565b604082019050919050565b6000602082019050818103600083015261395581613919565b9050919050565b7f5461736b206d7573742062652072656769737465726564000000000000000000600082015250565b6000613992601783612fc7565b915061399d8261395c565b602082019050919050565b600060208201905081810360008301526139c181613985565b9050919050565b7f4e487b7100000000000000000000000000000000000000000000000000000000600052601160045260246000fd5b6000613a02826131b0565b9150613a0d836131b0565b9250827fffffffffffffffffffffffffffffffffffffffffffffffffffffffffffffffff03821115613a4257613a416139c8565b5b828201905092915050565b613a5681613058565b82525050565b6000604082019050613a716000830185613807565b613a7e6020830184613a4d565b9392505050565b7f4e487b7100000000000000000000000000000000000000000000000000000000600052602260045260246000fd5b60006002820490506001821680613acc57607f821691505b60208210811415613ae057613adf613a85565b5b50919050565b600081905092915050565b60008190508160005260206000209050919050565b60008154613b1381613ab4565b613b1d8186613ae6565b94506001821660008114613b385760018114613b4957613b7c565b60ff19831686528186019350613b7c565b613b5285613af1565b60005b83811015613b7457815481890152600182019150602081019050613b55565b838801955050505b50505092915050565b6000613b918284613b06565b915081905092915050565b7f4d6574686f642063616e2062652063616c6c6564206f6e6c7920627920636c6960008201527f656e742e00000000000000000000000000000000000000000000000000000000602082015250565b6000613bf8602483612fc7565b9150613c0382613b9c565b604082019050919050565b60006020820190508181036000830152613c2781613beb565b9050919050565b7f496e76616c6964205461736b53746174652e0000000000000000000000000000600082015250565b6000613c64601283612fc7565b9150613c6f82613c2e565b602082019050919050565b60006020820190508181036000830152613c9381613c57565b9050919050565b7f496e76616c6964205061796d656e7453746174652e0000000000000000000000600082015250565b6000613cd0601583612fc7565b9150613cdb82613c9a565b602082019050919050565b60006020820190508181036000830152613cff81613cc3565b9050919050565b6000613d11826131b0565b9150613d1c836131b0565b925082821015613d2f57613d2e6139c8565b5b828203905092915050565b7f56616c75652073656e74206973206e6f74207468652065787065637465640000600082015250565b6000613d70601e83612fc7565b9150613d7b82613d3a565b602082019050919050565b60006020820190508181036000830152613d9f81613d63565b9050919050565b7f5061796d656e74206e6f74206e65656465640000000000000000000000000000600082015250565b6000613ddc601283612fc7565b9150613de782613da6565b602082019050919050565b60006020820190508181036000830152613e0b81613dcf565b9050919050565b6000819050919050565b6000613e37613e32613e2d8461308e565b613e12565b61308e565b9050919050565b6000613e4982613e1c565b9050919050565b6000613e5b82613e3e565b9050919050565b613e6b81613e50565b82525050565b6000604082019050613e866000830185613e62565b613e9360208301846136b9565b9392505050565b6000602082019050613eaf6000830184613a4d565b92915050565b7f4e6f7420656e6f7567682062616c616e63650000000000000000000000000000600082015250565b6000613eeb601283612fc7565b9150613ef682613eb5565b602082019050919050565b60006020820190508181036000830152613f1a81613ede565b9050919050565b7f54696d6520686173206e6f7420657870697265642e0000000000000000000000600082015250565b6000613f57601583612fc7565b9150613f6282613f21565b602082019050919050565b60006020820190508181036000830152613f8681613f4a565b9050919050565b7f4d6574686f642063616e2062652063616c6c6564206f6e6c792062792070726f60008201527f76696465722e0000000000000000000000000000000000000000000000000000602082015250565b6000613fe9602683612fc7565b9150613ff482613f8d565b604082019050919050565b6000602082019050818103600083015261401881613fdc565b9050919050565b600061402a826131b0565b9150614035836131b0565b9250817fffffffffffffffffffffffffffffffffffffffffffffffffffffffffffffffff048311821515161561406e5761406d6139c8565b5b828202905092915050565b600060408201905061408e6000830185613a4d565b61409b60208301846136b9565b939250505056fea264697066735822122071a999c5ac26fb6e0c6f0030b02ce279c1c986b21bd0c26a79e522bccee103d364736f6c63430008080033",
  "devdoc": {
    "kind": "dev",
    "methods": {},
    "version": 1
  },
  "userdoc": {
    "kind": "user",
    "methods": {},
    "version": 1
  },
  "storageLayout": {
    "storage": [
      {
        "astId": 58,
        "contract": "contracts/TasksManager.sol:TasksManager",
        "label": "tasks",
        "offset": 0,
        "slot": "0",
        "type": "t_mapping(t_bytes32,t_struct(Task)48_storage)"
      },
      {
        "astId": 63,
        "contract": "contracts/TasksManager.sol:TasksManager",
        "label": "performance",
        "offset": 0,
        "slot": "1",
        "type": "t_mapping(t_address,t_struct(providerRating)53_storage)"
      }
    ],
    "types": {
      "t_address": {
        "encoding": "inplace",
        "label": "address",
        "numberOfBytes": "20"
      },
      "t_address_payable": {
        "encoding": "inplace",
        "label": "address payable",
        "numberOfBytes": "20"
      },
      "t_bytes32": {
        "encoding": "inplace",
        "label": "bytes32",
        "numberOfBytes": "32"
      },
      "t_enum(PaymentState)13": {
        "encoding": "inplace",
        "label": "enum TasksManager.PaymentState",
        "numberOfBytes": "1"
      },
      "t_enum(TaskState)9": {
        "encoding": "inplace",
        "label": "enum TasksManager.TaskState",
        "numberOfBytes": "1"
      },
      "t_mapping(t_address,t_struct(providerRating)53_storage)": {
        "encoding": "mapping",
        "key": "t_address",
        "label": "mapping(address => struct TasksManager.providerRating)",
        "numberOfBytes": "32",
        "value": "t_struct(providerRating)53_storage"
      },
      "t_mapping(t_bytes32,t_struct(Task)48_storage)": {
        "encoding": "mapping",
        "key": "t_bytes32",
        "label": "mapping(bytes32 => struct TasksManager.Task)",
        "numberOfBytes": "32",
        "value": "t_struct(Task)48_storage"
      },
      "t_string_storage": {
        "encoding": "bytes",
        "label": "string",
        "numberOfBytes": "32"
      },
      "t_struct(Task)48_storage": {
        "encoding": "inplace",
        "label": "struct TasksManager.Task",
        "members": [
          {
            "astId": 15,
            "contract": "contracts/TasksManager.sol:TasksManager",
            "label": "provider",
            "offset": 0,
            "slot": "0",
            "type": "t_address_payable"
          },
          {
            "astId": 17,
            "contract": "contracts/TasksManager.sol:TasksManager",
            "label": "client",
            "offset": 0,
            "slot": "1",
            "type": "t_address_payable"
          },
          {
            "astId": 19,
            "contract": "contracts/TasksManager.sol:TasksManager",
            "label": "price",
            "offset": 0,
            "slot": "2",
            "type": "t_uint256"
          },
          {
            "astId": 21,
            "contract": "contracts/TasksManager.sol:TasksManager",
            "label": "providerCollateral",
            "offset": 0,
            "slot": "3",
            "type": "t_uint256"
          },
          {
            "astId": 23,
            "contract": "contracts/TasksManager.sol:TasksManager",
            "label": "clientCollateral",
            "offset": 0,
            "slot": "4",
            "type": "t_uint256"
          },
          {
            "astId": 25,
            "contract": "contracts/TasksManager.sol:TasksManager",
            "label": "payment",
            "offset": 0,
            "slot": "5",
            "type": "t_uint256"
          },
          {
            "astId": 27,
            "contract": "contracts/TasksManager.sol:TasksManager",
            "label": "deadline",
            "offset": 0,
            "slot": "6",
            "type": "t_uint256"
          },
          {
            "astId": 29,
            "contract": "contracts/TasksManager.sol:TasksManager",
            "label": "duration",
            "offset": 0,
            "slot": "7",
            "type": "t_uint256"
          },
          {
            "astId": 31,
            "contract": "contracts/TasksManager.sol:TasksManager",
            "label": "activationTime",
            "offset": 0,
            "slot": "8",
            "type": "t_uint256"
          },
          {
            "astId": 33,
            "contract": "contracts/TasksManager.sol:TasksManager",
            "label": "timeResultProvided",
            "offset": 0,
            "slot": "9",
            "type": "t_uint256"
          },
          {
            "astId": 35,
            "contract": "contracts/TasksManager.sol:TasksManager",
            "label": "timeResultReceived",
            "offset": 0,
            "slot": "10",
            "type": "t_uint256"
          },
          {
            "astId": 38,
            "contract": "contracts/TasksManager.sol:TasksManager",
            "label": "taskState",
            "offset": 0,
            "slot": "11",
            "type": "t_enum(TaskState)9"
          },
          {
            "astId": 41,
            "contract": "contracts/TasksManager.sol:TasksManager",
            "label": "paymentState",
            "offset": 1,
            "slot": "11",
            "type": "t_enum(PaymentState)13"
          },
          {
            "astId": 43,
            "contract": "contracts/TasksManager.sol:TasksManager",
            "label": "code",
            "offset": 0,
            "slot": "12",
            "type": "t_string_storage"
          },
          {
            "astId": 45,
            "contract": "contracts/TasksManager.sol:TasksManager",
            "label": "clientVerification",
            "offset": 0,
            "slot": "13",
            "type": "t_bytes32"
          },
          {
            "astId": 47,
            "contract": "contracts/TasksManager.sol:TasksManager",
            "label": "providerVerification",
            "offset": 0,
            "slot": "14",
            "type": "t_string_storage"
          }
        ],
        "numberOfBytes": "480"
      },
      "t_struct(providerRating)53_storage": {
        "encoding": "inplace",
        "label": "struct TasksManager.providerRating",
        "members": [
          {
            "astId": 50,
            "contract": "contracts/TasksManager.sol:TasksManager",
            "label": "upVotes",
            "offset": 0,
            "slot": "0",
            "type": "t_uint256"
          },
          {
            "astId": 52,
            "contract": "contracts/TasksManager.sol:TasksManager",
            "label": "downVotes",
            "offset": 0,
            "slot": "1",
            "type": "t_uint256"
          }
        ],
        "numberOfBytes": "64"
      },
      "t_uint256": {
        "encoding": "inplace",
        "label": "uint256",
        "numberOfBytes": "32"
      }
    }
  }
}