{
  "address": "0x5FbDB2315678afecb367f032d93F642f64180aa3",
  "abi": [
    {
      "inputs": [],
      "stateMutability": "nonpayable",
      "type": "constructor"
    },
    {
      "anonymous": false,
      "inputs": [
        {
          "indexed": false,
          "internalType": "bytes32",
          "name": "taskID",
          "type": "bytes32"
        }
      ],
      "name": "PaymentCompleted",
      "type": "event"
    },
    {
      "anonymous": false,
      "inputs": [
        {
          "indexed": false,
          "internalType": "bytes32",
          "name": "taskID",
          "type": "bytes32"
        },
        {
          "indexed": false,
          "internalType": "uint256",
          "name": "payment",
          "type": "uint256"
        }
      ],
      "name": "PaymentPending",
      "type": "event"
    },
    {
      "anonymous": false,
      "inputs": [
        {
          "indexed": false,
          "internalType": "address",
          "name": "provider",
          "type": "address"
        },
        {
          "indexed": false,
          "internalType": "bytes32",
          "name": "task",
          "type": "bytes32"
        }
      ],
      "name": "ProviderDownvoted",
      "type": "event"
    },
    {
      "anonymous": false,
      "inputs": [
        {
          "indexed": false,
          "internalType": "address",
          "name": "provider",
          "type": "address"
        },
        {
          "indexed": false,
          "internalType": "bytes32",
          "name": "task",
          "type": "bytes32"
        }
      ],
      "name": "ProviderUpvoted",
      "type": "event"
    },
    {
      "anonymous": false,
      "inputs": [
        {
          "indexed": false,
          "internalType": "bytes32",
          "name": "taskID",
          "type": "bytes32"
        }
      ],
      "name": "TaskActivated",
      "type": "event"
    },
    {
      "anonymous": false,
      "inputs": [
        {
          "indexed": false,
          "internalType": "bytes32",
          "name": "taskID",
          "type": "bytes32"
        }
      ],
      "name": "TaskCancelled",
      "type": "event"
    },
    {
      "anonymous": false,
      "inputs": [
        {
          "indexed": false,
          "internalType": "bytes32",
          "name": "taskID",
          "type": "bytes32"
        }
      ],
      "name": "TaskCompleted",
      "type": "event"
    },
    {
      "anonymous": false,
      "inputs": [
        {
          "indexed": false,
          "internalType": "bytes32",
          "name": "taskID",
          "type": "bytes32"
        }
      ],
      "name": "TaskCreated",
      "type": "event"
    },
    {
      "anonymous": false,
      "inputs": [
        {
          "indexed": false,
          "internalType": "bytes32",
          "name": "taskID",
          "type": "bytes32"
        }
      ],
      "name": "TaskInvalidated",
      "type": "event"
    },
    {
      "anonymous": false,
      "inputs": [
        {
          "indexed": false,
          "internalType": "bytes32",
          "name": "task",
          "type": "bytes32"
        }
      ],
      "name": "TaskRegistered",
      "type": "event"
    },
    {
      "anonymous": false,
      "inputs": [
        {
          "indexed": false,
          "internalType": "bytes32",
          "name": "task",
          "type": "bytes32"
        }
      ],
      "name": "TaskUnregistered",
      "type": "event"
    },
    {
      "anonymous": false,
      "inputs": [
        {
          "indexed": false,
          "internalType": "address",
          "name": "Address",
          "type": "address"
        },
        {
          "indexed": false,
          "internalType": "uint256",
          "name": "Amount",
          "type": "uint256"
        }
      ],
      "name": "TransferMade",
      "type": "event"
    },
    {
      "stateMutability": "payable",
      "type": "fallback"
    },
    {
      "inputs": [
        {
          "internalType": "bytes32",
          "name": "_taskID",
          "type": "bytes32"
        }
      ],
      "name": "CorrectVerification",
      "outputs": [
        {
          "internalType": "bool",
          "name": "",
          "type": "bool"
        }
      ],
      "stateMutability": "view",
      "type": "function"
    },
    {
      "inputs": [
        {
          "internalType": "bytes32",
          "name": "_taskID",
          "type": "bytes32"
        }
      ],
      "name": "InTime",
      "outputs": [
        {
          "internalType": "bool",
          "name": "",
          "type": "bool"
        }
      ],
      "stateMutability": "view",
      "type": "function"
    },
    {
      "inputs": [
        {
          "internalType": "bytes32",
          "name": "_taskID",
          "type": "bytes32"
        }
      ],
      "name": "ProviderTime",
      "outputs": [
        {
          "internalType": "bool",
          "name": "",
          "type": "bool"
        }
      ],
      "stateMutability": "view",
      "type": "function"
    },
    {
      "inputs": [
        {
          "internalType": "bytes32",
          "name": "_taskID",
          "type": "bytes32"
        }
      ],
      "name": "activateTask",
      "outputs": [],
      "stateMutability": "payable",
      "type": "function"
    },
    {
      "inputs": [
        {
          "internalType": "bytes32",
          "name": "_taskID",
          "type": "bytes32"
        }
      ],
      "name": "cancelTask",
      "outputs": [],
      "stateMutability": "nonpayable",
      "type": "function"
    },
    {
      "inputs": [
        {
          "internalType": "bytes32",
          "name": "_taskID",
          "type": "bytes32"
        }
      ],
      "name": "completePayment",
      "outputs": [],
      "stateMutability": "payable",
      "type": "function"
    },
    {
      "inputs": [
        {
          "internalType": "bytes32",
          "name": "_taskID",
          "type": "bytes32"
        },
        {
          "internalType": "string",
          "name": "ver",
          "type": "string"
        },
        {
          "internalType": "uint256",
          "name": "_timeReceivedProvider",
          "type": "uint256"
        }
      ],
      "name": "completeTask",
      "outputs": [],
      "stateMutability": "nonpayable",
      "type": "function"
    },
    {
      "inputs": [
        {
          "internalType": "bytes32",
          "name": "_taskID",
          "type": "bytes32"
        },
        {
          "internalType": "address payable",
          "name": "_client",
          "type": "address"
        },
        {
          "internalType": "address payable",
          "name": "_provider",
          "type": "address"
        },
        {
          "internalType": "uint256",
          "name": "_price",
          "type": "uint256"
        },
        {
          "internalType": "uint256",
          "name": "_providerCollateral",
          "type": "uint256"
        },
        {
          "internalType": "uint256",
          "name": "_deadline",
          "type": "uint256"
        },
        {
          "internalType": "bytes32",
          "name": "_clientVerification",
          "type": "bytes32"
        }
      ],
      "name": "createTask",
      "outputs": [],
      "stateMutability": "nonpayable",
      "type": "function"
    },
    {
      "inputs": [
        {
          "internalType": "bytes32",
          "name": "_taskID",
          "type": "bytes32"
        }
      ],
      "name": "getActivationTime",
      "outputs": [
        {
          "internalType": "uint256",
          "name": "",
          "type": "uint256"
        }
      ],
      "stateMutability": "view",
      "type": "function"
    },
    {
      "inputs": [],
      "name": "getOwner",
      "outputs": [
        {
          "internalType": "address",
          "name": "",
          "type": "address"
        }
      ],
      "stateMutability": "view",
      "type": "function"
    },
    {
      "inputs": [
        {
          "internalType": "bytes32",
          "name": "_taskID",
          "type": "bytes32"
        }
      ],
      "name": "getPayment",
      "outputs": [
        {
          "internalType": "uint256",
          "name": "",
          "type": "uint256"
        }
      ],
      "stateMutability": "view",
      "type": "function"
    },
    {
      "inputs": [
        {
          "internalType": "bytes32",
          "name": "_taskID",
          "type": "bytes32"
        }
      ],
      "name": "getPaymentState",
      "outputs": [
        {
          "internalType": "enum TasksManager.PaymentState",
          "name": "",
          "type": "uint8"
        }
      ],
      "stateMutability": "view",
      "type": "function"
    },
    {
      "inputs": [
        {
          "internalType": "address",
          "name": "provider",
          "type": "address"
        }
      ],
      "name": "getPerformance",
      "outputs": [
        {
          "components": [
            {
              "internalType": "uint256",
              "name": "upVotes",
              "type": "uint256"
            },
            {
              "internalType": "uint256",
              "name": "downVotes",
              "type": "uint256"
            }
          ],
          "internalType": "struct TasksManager.providerRating",
          "name": "",
          "type": "tuple"
        }
      ],
      "stateMutability": "view",
      "type": "function"
    },
    {
      "inputs": [
        {
          "internalType": "bytes32",
          "name": "_taskID",
          "type": "bytes32"
        }
      ],
      "name": "getProviderCollateral",
      "outputs": [
        {
          "internalType": "uint256",
          "name": "",
          "type": "uint256"
        }
      ],
      "stateMutability": "view",
      "type": "function"
    },
    {
      "inputs": [
        {
          "internalType": "bytes32",
          "name": "_taskID",
          "type": "bytes32"
        }
      ],
      "name": "getTask",
      "outputs": [
        {
          "components": [
            {
              "internalType": "address payable",
              "name": "provider",
              "type": "address"
            },
            {
              "internalType": "address payable",
              "name": "client",
              "type": "address"
            },
            {
              "internalType": "uint256",
              "name": "price",
              "type": "uint256"
            },
            {
              "internalType": "uint256",
              "name": "providerCollateral",
              "type": "uint256"
            },
            {
              "internalType": "uint256",
              "name": "clientCollateral",
              "type": "uint256"
            },
            {
              "internalType": "uint256",
              "name": "payment",
              "type": "uint256"
            },
            {
              "internalType": "uint256",
              "name": "deadline",
              "type": "uint256"
            },
            {
              "internalType": "uint256",
              "name": "duration",
              "type": "uint256"
            },
            {
              "internalType": "uint256",
              "name": "activationTime",
              "type": "uint256"
            },
            {
              "internalType": "uint256",
              "name": "timeResultProvided",
              "type": "uint256"
            },
            {
              "internalType": "uint256",
              "name": "timeResultReceived",
              "type": "uint256"
            },
            {
              "internalType": "enum TasksManager.TaskState",
              "name": "taskState",
              "type": "uint8"
            },
            {
              "internalType": "enum TasksManager.PaymentState",
              "name": "paymentState",
              "type": "uint8"
            },
            {
              "internalType": "string",
              "name": "code",
              "type": "string"
            },
            {
              "internalType": "bytes32",
              "name": "clientVerification",
              "type": "bytes32"
            },
            {
              "internalType": "string",
              "name": "providerVerification",
              "type": "string"
            }
          ],
          "internalType": "struct TasksManager.Task",
          "name": "",
          "type": "tuple"
        }
      ],
      "stateMutability": "view",
      "type": "function"
    },
    {
      "inputs": [
        {
          "internalType": "bytes32",
          "name": "_taskID",
          "type": "bytes32"
        }
      ],
      "name": "getTaskState",
      "outputs": [
        {
          "internalType": "enum TasksManager.TaskState",
          "name": "",
          "type": "uint8"
        }
      ],
      "stateMutability": "view",
      "type": "function"
    },
    {
      "inputs": [
        {
          "internalType": "bytes32",
          "name": "_taskID",
          "type": "bytes32"
        }
      ],
      "name": "invalidateTask",
      "outputs": [],
      "stateMutability": "nonpayable",
      "type": "function"
    },
    {
      "inputs": [
        {
          "internalType": "bytes32",
          "name": "_taskID",
          "type": "bytes32"
        }
      ],
      "name": "isRegistered",
      "outputs": [
        {
          "internalType": "bool",
          "name": "",
          "type": "bool"
        }
      ],
      "stateMutability": "view",
      "type": "function"
    },
    {
      "stateMutability": "payable",
      "type": "receive"
    }
  ],
  "transactionHash": "0x37bdff18fbf8248a9c3e7a4b0f5cc98b2147956663e4c7af5ec1f0b28897dbe1",
  "args": [],
  "numDeployments": 1,
  "solcInputHash": "6562982323592ad74caf7fa44c5bb95a",
  "bytecode": "0x60a060405234801561001057600080fd5b503373ffffffffffffffffffffffffffffffffffffffff1660808173ffffffffffffffffffffffffffffffffffffffff1660601b8152505060805160601c613af361006660003960006122e90152613af36000f3fe60806040526004361061010d5760003560e01c8063668b1baa11610095578063893d20e811610064578063893d20e81461040e57806392b8332014610439578063ab210cc814610455578063e66eefc814610492578063ee8ca3b5146104cf5761014d565b8063668b1baa1461032e57806370ad19761461036b57806375ece975146103a85780638693944d146103d15761014d565b806327258b22116100dc57806327258b2214610232578063283462a91461026f5780633ecff55f146102ac57806347ca8a8b146102e957806354706b5a146103055761014d565b80630946dc8a14610152578063143e7e711461018f57806315a29035146101b85780631ecc9aaf146101f55761014d565b3661014d576040517f08c379a000000000000000000000000000000000000000000000000000000000815260040161014490612bd9565b60405180910390fd5b600080fd5b34801561015e57600080fd5b5061017960048036038101906101749190612c43565b6104f8565b6040516101869190612c8b565b60405180910390f35b34801561019b57600080fd5b506101b660048036038101906101b19190612e22565b610553565b005b3480156101c457600080fd5b506101df60048036038101906101da9190612c43565b611232565b6040516101ec9190613196565b60405180910390f35b34801561020157600080fd5b5061021c600480360381019061021791906131f6565b611509565b6040516102299190613252565b60405180910390f35b34801561023e57600080fd5b5061025960048036038101906102549190612c43565b611576565b6040516102669190612c8b565b60405180910390f35b34801561027b57600080fd5b5061029660048036038101906102919190612c43565b6115e4565b6040516102a39190612c8b565b60405180910390f35b3480156102b857600080fd5b506102d360048036038101906102ce9190612c43565b611627565b6040516102e09190612c8b565b60405180910390f35b61030360048036038101906102fe9190612c43565b61167e565b005b34801561031157600080fd5b5061032c60048036038101906103279190612c43565b611bd1565b005b34801561033a57600080fd5b5061035560048036038101906103509190612c43565b612078565b604051610362919061327c565b60405180910390f35b34801561037757600080fd5b50610392600480360381019061038d9190612c43565b612097565b60405161039f919061327c565b60405180910390f35b3480156103b457600080fd5b506103cf60048036038101906103ca91906132c3565b6120b6565b005b3480156103dd57600080fd5b506103f860048036038101906103f39190612c43565b6122b9565b6040516104059190613374565b60405180910390f35b34801561041a57600080fd5b506104236122e5565b604051610430919061339e565b60405180910390f35b610453600480360381019061044e9190612c43565b61230d565b005b34801561046157600080fd5b5061047c60048036038101906104779190612c43565b612574565b60405161048991906133c8565b60405180910390f35b34801561049e57600080fd5b506104b960048036038101906104b49190612c43565b6125a0565b6040516104c6919061327c565b60405180910390f35b3480156104db57600080fd5b506104f660048036038101906104f19190612c43565b6125bf565b005b6000806000838152602001908152602001600020600e0160405160200161051f91906134e3565b60405160208183030381529060405280519060200120600080848152602001908152602001600020600d0154149050919050565b8260008082815260200190815260200160002060000160009054906101000a900473ffffffffffffffffffffffffffffffffffffffff1673ffffffffffffffffffffffffffffffffffffffff163373ffffffffffffffffffffffffffffffffffffffff16146105f7576040517f08c379a00000000000000000000000000000000000000000000000000000000081526004016105ee9061356c565b60405180910390fd5b83600280600481111561060d5761060c612ee1565b5b600080848152602001908152602001600020600b0160009054906101000a900460ff16600481111561064257610641612ee1565b5b14610682576040517f08c379a0000000000000000000000000000000000000000000000000000000008152600401610679906135d8565b60405180910390fd5b84600080888152602001908152602001600020600e0190805190602001906106ab9291906129af565b5042600080888152602001908152602001600020600a018190555083600080888152602001908152602001600020600901819055506106e986611627565b80156106fa57506106f9866115e4565b5b801561070b575061070a866104f8565b5b15610de35760008087815260200190815260200160002060080154600080888152602001908152602001600020600901546107469190613627565b600080888152602001908152602001600020600701819055506000808781526020019081526020016000206007015460008088815260200190815260200160002060020154610795919061365b565b60008088815260200190815260200160002060050181905550600080878152602001908152602001600020600401546000808881526020019081526020016000206005015411610ae15760008087815260200190815260200160002060000160009054906101000a900473ffffffffffffffffffffffffffffffffffffffff1673ffffffffffffffffffffffffffffffffffffffff166108fc600080898152602001908152602001600020600301546000808a81526020019081526020016000206005015461086491906136b5565b9081150290604051600060405180830381858888f1935050505015801561088f573d6000803e3d6000fd5b507fbb1d109694da1f57c795e648cd08cfff17024c10216d0c583badbd33ed32494c60008088815260200190815260200160002060000160009054906101000a900473ffffffffffffffffffffffffffffffffffffffff16600080898152602001908152602001600020600301546000808a81526020019081526020016000206005015461091d91906136b5565b60405161092b92919061376a565b60405180910390a160008087815260200190815260200160002060010160009054906101000a900473ffffffffffffffffffffffffffffffffffffffff1673ffffffffffffffffffffffffffffffffffffffff166108fc600080898152602001908152602001600020600401546000808a8152602001908152602001600020600501546109b89190613627565b9081150290604051600060405180830381858888f193505050501580156109e3573d6000803e3d6000fd5b507fbb1d109694da1f57c795e648cd08cfff17024c10216d0c583badbd33ed32494c60008088815260200190815260200160002060010160009054906101000a900473ffffffffffffffffffffffffffffffffffffffff1660008089815260200190815260200160002060070154604051610a5f92919061376a565b60405180910390a16002600080888152602001908152602001600020600b0160016101000a81548160ff02191690836002811115610aa057610a9f612ee1565b5b02179055507ff2baea2668e36a27a898b8c745decb4439ff61ae04d545dcc6954b84bd3e3c4286604051610ad491906137a2565b60405180910390a1610ce2565b60008087815260200190815260200160002060000160009054906101000a900473ffffffffffffffffffffffffffffffffffffffff1673ffffffffffffffffffffffffffffffffffffffff166108fc600080898152602001908152602001600020600301546000808a815260200190815260200160002060040154610b6691906136b5565b9081150290604051600060405180830381858888f19350505050158015610b91573d6000803e3d6000fd5b507fbb1d109694da1f57c795e648cd08cfff17024c10216d0c583badbd33ed32494c60008088815260200190815260200160002060000160009054906101000a900473ffffffffffffffffffffffffffffffffffffffff16600080898152602001908152602001600020600301546000808a815260200190815260200160002060040154610c1f91906136b5565b604051610c2d92919061376a565b60405180910390a16001600080888152602001908152602001600020600b0160016101000a81548160ff02191690836002811115610c6e57610c6d612ee1565b5b02179055507f0e94573b1be2e52f56af2fa73f97395af190b00bf516b0e90356c3619c4cdf7c86600080898152602001908152602001600020600401546000808a815260200190815260200160002060050154610ccb9190613627565b604051610cd99291906137bd565b60405180910390a15b60018060008060008a815260200190815260200160002060000160009054906101000a900473ffffffffffffffffffffffffffffffffffffffff1673ffffffffffffffffffffffffffffffffffffffff1673ffffffffffffffffffffffffffffffffffffffff1681526020019081526020016000206000016000828254610d6991906136b5565b925050819055507ff79072e0f370bb188b7c4d34ae8a5c9138b891e5df7cfa7ca412b518d30aaf7560008088815260200190815260200160002060000160009054906101000a900473ffffffffffffffffffffffffffffffffffffffff1687604051610dd69291906137e6565b60405180910390a1611034565b60008087815260200190815260200160002060010160009054906101000a900473ffffffffffffffffffffffffffffffffffffffff1673ffffffffffffffffffffffffffffffffffffffff166108fc600080898152602001908152602001600020600301546000808a815260200190815260200160002060040154610e6891906136b5565b9081150290604051600060405180830381858888f19350505050158015610e93573d6000803e3d6000fd5b507fbb1d109694da1f57c795e648cd08cfff17024c10216d0c583badbd33ed32494c60008088815260200190815260200160002060010160009054906101000a900473ffffffffffffffffffffffffffffffffffffffff16600080898152602001908152602001600020600301546000808a815260200190815260200160002060040154610f2191906136b5565b604051610f2f92919061376a565b60405180910390a160018060008060008a815260200190815260200160002060000160009054906101000a900473ffffffffffffffffffffffffffffffffffffffff1673ffffffffffffffffffffffffffffffffffffffff1673ffffffffffffffffffffffffffffffffffffffff1681526020019081526020016000206001016000828254610fbe91906136b5565b925050819055507f3fec1177d25f324e1beb970cd60f8b52ef1e47290a72bdb8f62101720f5e492760008088815260200190815260200160002060000160009054906101000a900473ffffffffffffffffffffffffffffffffffffffff168760405161102b9291906137e6565b60405180910390a15b6003600080888152602001908152602001600020600b0160006101000a81548160ff0219169083600481111561106d5761106c612ee1565b5b021790555060028081111561108557611084612ee1565b5b600080888152602001908152602001600020600b0160019054906101000a900460ff1660028111156110ba576110b9612ee1565b5b14156111bc57600080878152602001908152602001600020600080820160006101000a81549073ffffffffffffffffffffffffffffffffffffffff02191690556001820160006101000a81549073ffffffffffffffffffffffffffffffffffffffff021916905560028201600090556003820160009055600482016000905560058201600090556006820160009055600782016000905560088201600090556009820160009055600a820160009055600b820160006101000a81549060ff0219169055600b820160016101000a81549060ff0219169055600c820160006111a19190612a35565b600d820160009055600e820160006111b99190612a35565b50505b7f572a2b6ee4b829f7c9a4b27bd7729666696a0b5e394e1a9ad92e925e483f02c2866040516111eb91906137a2565b60405180910390a17fb1115fb0a2ad10d7fc3823dadb2f14589bef759b57af99b0f44a2f6a5bcee4f48660405161122291906137a2565b60405180910390a1505050505050565b61123a612a75565b600080838152602001908152602001600020604051806102000160405290816000820160009054906101000a900473ffffffffffffffffffffffffffffffffffffffff1673ffffffffffffffffffffffffffffffffffffffff1673ffffffffffffffffffffffffffffffffffffffff1681526020016001820160009054906101000a900473ffffffffffffffffffffffffffffffffffffffff1673ffffffffffffffffffffffffffffffffffffffff1673ffffffffffffffffffffffffffffffffffffffff1681526020016002820154815260200160038201548152602001600482015481526020016005820154815260200160068201548152602001600782015481526020016008820154815260200160098201548152602001600a8201548152602001600b820160009054906101000a900460ff16600481111561138357611382612ee1565b5b600481111561139557611394612ee1565b5b8152602001600b820160019054906101000a900460ff1660028111156113be576113bd612ee1565b5b60028111156113d0576113cf612ee1565b5b8152602001600c820180546113e490613412565b80601f016020809104026020016040519081016040528092919081815260200182805461141090613412565b801561145d5780601f106114325761010080835404028352916020019161145d565b820191906000526020600020905b81548152906001019060200180831161144057829003601f168201915b50505050508152602001600d8201548152602001600e8201805461148090613412565b80601f01602080910402602001604051908101604052809291908181526020018280546114ac90613412565b80156114f95780601f106114ce576101008083540402835291602001916114f9565b820191906000526020600020905b8154815290600101906020018083116114dc57829003601f168201915b5050505050815250509050919050565b611511612b45565b600160008373ffffffffffffffffffffffffffffffffffffffff1673ffffffffffffffffffffffffffffffffffffffff168152602001908152602001600020604051806040016040529081600082015481526020016001820154815250509050919050565b60008073ffffffffffffffffffffffffffffffffffffffff1660008084815260200190815260200160002060010160009054906101000a900473ffffffffffffffffffffffffffffffffffffffff1673ffffffffffffffffffffffffffffffffffffffff1614159050919050565b6000603c6000808481526020019081526020016000206009015461160891906136b5565b600080848152602001908152602001600020600a015411159050919050565b6000806000838152602001908152602001600020600601546000808481526020019081526020016000206008015461165f91906136b5565b600080848152602001908152602001600020600a015411159050919050565b8060008082815260200190815260200160002060010160009054906101000a900473ffffffffffffffffffffffffffffffffffffffff1673ffffffffffffffffffffffffffffffffffffffff163373ffffffffffffffffffffffffffffffffffffffff1614611722576040517f08c379a000000000000000000000000000000000000000000000000000000000815260040161171990613881565b60405180910390fd5b81600380600481111561173857611737612ee1565b5b600080848152602001908152602001600020600b0160009054906101000a900460ff16600481111561176d5761176c612ee1565b5b146117ad576040517f08c379a00000000000000000000000000000000000000000000000000000000081526004016117a4906135d8565b60405180910390fd5b8360018060028111156117c3576117c2612ee1565b5b600080848152602001908152602001600020600b0160019054906101000a900460ff1660028111156117f8576117f7612ee1565b5b14611838576040517f08c379a000000000000000000000000000000000000000000000000000000000815260040161182f906138ed565b60405180910390fd5b600080878152602001908152602001600020600401546000808881526020019081526020016000206005015461186e9190613627565b8034146118b0576040517f08c379a00000000000000000000000000000000000000000000000000000000081526004016118a790613959565b60405180910390fd5b600160028111156118c4576118c3612ee1565b5b600080898152602001908152602001600020600b0160019054906101000a900460ff1660028111156118f9576118f8612ee1565b5b14611939576040517f08c379a0000000000000000000000000000000000000000000000000000000008152600401611930906139c5565b60405180910390fd5b60008088815260200190815260200160002060000160009054906101000a900473ffffffffffffffffffffffffffffffffffffffff1673ffffffffffffffffffffffffffffffffffffffff166108fc349081150290604051600060405180830381858888f193505050501580156119b4573d6000803e3d6000fd5b507fbb1d109694da1f57c795e648cd08cfff17024c10216d0c583badbd33ed32494c60008089815260200190815260200160002060000160009054906101000a900473ffffffffffffffffffffffffffffffffffffffff166000808a8152602001908152602001600020600401546000808b815260200190815260200160002060050154611a429190613627565b604051611a5092919061376a565b60405180910390a16002600080898152602001908152602001600020600b0160016101000a81548160ff02191690836002811115611a9157611a90612ee1565b5b02179055507ff2baea2668e36a27a898b8c745decb4439ff61ae04d545dcc6954b84bd3e3c4287604051611ac591906137a2565b60405180910390a1600080888152602001908152602001600020600080820160006101000a81549073ffffffffffffffffffffffffffffffffffffffff02191690556001820160006101000a81549073ffffffffffffffffffffffffffffffffffffffff021916905560028201600090556003820160009055600482016000905560058201600090556006820160009055600782016000905560088201600090556009820160009055600a820160009055600b820160006101000a81549060ff0219169055600b820160016101000a81549060ff0219169055600c82016000611bae9190612a35565b600d820160009055600e82016000611bc69190612a35565b505050505050505050565b8060008082815260200190815260200160002060010160009054906101000a900473ffffffffffffffffffffffffffffffffffffffff1673ffffffffffffffffffffffffffffffffffffffff163373ffffffffffffffffffffffffffffffffffffffff1614611c75576040517f08c379a0000000000000000000000000000000000000000000000000000000008152600401611c6c90613881565b60405180910390fd5b816002806004811115611c8b57611c8a612ee1565b5b600080848152602001908152602001600020600b0160009054906101000a900460ff166004811115611cc057611cbf612ee1565b5b14611d00576040517f08c379a0000000000000000000000000000000000000000000000000000000008152600401611cf7906135d8565b60405180910390fd5b6000808581526020019081526020016000206006015460008086815260200190815260200160002060080154611d3691906136b5565b4211611d77576040517f08c379a0000000000000000000000000000000000000000000000000000000008152600401611d6e90613a31565b60405180910390fd5b6004600080868152602001908152602001600020600b0160006101000a81548160ff02191690836004811115611db057611daf612ee1565b5b021790555060008085815260200190815260200160002060010160009054906101000a900473ffffffffffffffffffffffffffffffffffffffff1673ffffffffffffffffffffffffffffffffffffffff166108fc6000808781526020019081526020016000206003015460008088815260200190815260200160002060040154611e3a91906136b5565b9081150290604051600060405180830381858888f19350505050158015611e65573d6000803e3d6000fd5b507fbb1d109694da1f57c795e648cd08cfff17024c10216d0c583badbd33ed32494c60008086815260200190815260200160002060010160009054906101000a900473ffffffffffffffffffffffffffffffffffffffff166000808781526020019081526020016000206003015460008088815260200190815260200160002060040154611ef391906136b5565b604051611f0192919061376a565b60405180910390a1600080858152602001908152602001600020600080820160006101000a81549073ffffffffffffffffffffffffffffffffffffffff02191690556001820160006101000a81549073ffffffffffffffffffffffffffffffffffffffff021916905560028201600090556003820160009055600482016000905560058201600090556006820160009055600782016000905560088201600090556009820160009055600a820160009055600b820160006101000a81549060ff0219169055600b820160016101000a81549060ff0219169055600c82016000611fea9190612a35565b600d820160009055600e820160006120029190612a35565b50507fa07d0b7132fa6b208a063af8026a29c1fa7ea1f98ffc9682615585318a6b25d68460405161203391906137a2565b60405180910390a17fb1115fb0a2ad10d7fc3823dadb2f14589bef759b57af99b0f44a2f6a5bcee4f48460405161206a91906137a2565b60405180910390a150505050565b6000806000838152602001908152602001600020600301549050919050565b6000806000838152602001908152602001600020600801549050919050565b8560008089815260200190815260200160002060010160006101000a81548173ffffffffffffffffffffffffffffffffffffffff021916908373ffffffffffffffffffffffffffffffffffffffff1602179055508460008089815260200190815260200160002060000160006101000a81548173ffffffffffffffffffffffffffffffffffffffff021916908373ffffffffffffffffffffffffffffffffffffffff16021790555083600080898152602001908152602001600020600201819055508260008089815260200190815260200160002060030181905550816000808981526020019081526020016000206006018190555080600080898152602001908152602001600020600d01819055506000806000898152602001908152602001600020600b0160006101000a81548160ff021916908360048111156121ff576121fe612ee1565b5b02179055506000806000898152602001908152602001600020600b0160016101000a81548160ff0219169083600281111561223d5761223c612ee1565b5b02179055507f1e28175955a872c8252a6e5cf36ac6b318d074eb78b49731e5cb9ddc2d870b638760405161227191906137a2565b60405180910390a17f2634c61996f131952dea1b6c5a08057c061e09429d247354d6f7b60873238c5e876040516122a891906137a2565b60405180910390a150505050505050565b6000806000838152602001908152602001600020600b0160009054906101000a900460ff169050919050565b60007f0000000000000000000000000000000000000000000000000000000000000000905090565b8060008082815260200190815260200160002060000160009054906101000a900473ffffffffffffffffffffffffffffffffffffffff1673ffffffffffffffffffffffffffffffffffffffff163373ffffffffffffffffffffffffffffffffffffffff16146123b1576040517f08c379a00000000000000000000000000000000000000000000000000000000081526004016123a89061356c565b60405180910390fd5b60008083815260200190815260200160002060030154803414612409576040517f08c379a000000000000000000000000000000000000000000000000000000000815260040161240090613959565b60405180910390fd5b82600080600481111561241f5761241e612ee1565b5b600080848152602001908152602001600020600b0160009054906101000a900460ff16600481111561245457612453612ee1565b5b14612494576040517f08c379a000000000000000000000000000000000000000000000000000000000815260040161248b906135d8565b60405180910390fd5b8461249e81611576565b6124dd576040517f08c379a00000000000000000000000000000000000000000000000000000000081526004016124d490613a9d565b60405180910390fd5b42600080888152602001908152602001600020600801819055506002600080888152602001908152602001600020600b0160006101000a81548160ff021916908360048111156125305761252f612ee1565b5b02179055507fce708d6b67215419755514077f148edc2ee99fe51d758948ee62feea825d70388660405161256491906137a2565b60405180910390a1505050505050565b6000806000838152602001908152602001600020600b0160019054906101000a900460ff169050919050565b6000806000838152602001908152602001600020600501549050919050565b8060008082815260200190815260200160002060010160009054906101000a900473ffffffffffffffffffffffffffffffffffffffff1673ffffffffffffffffffffffffffffffffffffffff163373ffffffffffffffffffffffffffffffffffffffff1614612663576040517f08c379a000000000000000000000000000000000000000000000000000000000815260040161265a90613881565b60405180910390fd5b81600080600481111561267957612678612ee1565b5b600080848152602001908152602001600020600b0160009054906101000a900460ff1660048111156126ae576126ad612ee1565b5b146126ee576040517f08c379a00000000000000000000000000000000000000000000000000000000081526004016126e5906135d8565b60405180910390fd5b6001600080868152602001908152602001600020600b0160006101000a81548160ff0219169083600481111561272757612726612ee1565b5b021790555060008085815260200190815260200160002060010160009054906101000a900473ffffffffffffffffffffffffffffffffffffffff1673ffffffffffffffffffffffffffffffffffffffff166108fc600080878152602001908152602001600020600401549081150290604051600060405180830381858888f193505050501580156127bc573d6000803e3d6000fd5b507fbb1d109694da1f57c795e648cd08cfff17024c10216d0c583badbd33ed32494c60008086815260200190815260200160002060010160009054906101000a900473ffffffffffffffffffffffffffffffffffffffff166000808781526020019081526020016000206004015460405161283892919061376a565b60405180910390a1600080858152602001908152602001600020600080820160006101000a81549073ffffffffffffffffffffffffffffffffffffffff02191690556001820160006101000a81549073ffffffffffffffffffffffffffffffffffffffff021916905560028201600090556003820160009055600482016000905560058201600090556006820160009055600782016000905560088201600090556009820160009055600a820160009055600b820160006101000a81549060ff0219169055600b820160016101000a81549060ff0219169055600c820160006129219190612a35565b600d820160009055600e820160006129399190612a35565b50507fe1e1d79b8f28d3379fc32f617eaf54dd6bd4071074c77e91134770e04a81d6268460405161296a91906137a2565b60405180910390a17fb1115fb0a2ad10d7fc3823dadb2f14589bef759b57af99b0f44a2f6a5bcee4f4846040516129a191906137a2565b60405180910390a150505050565b8280546129bb90613412565b90600052602060002090601f0160209004810192826129dd5760008555612a24565b82601f106129f657805160ff1916838001178555612a24565b82800160010185558215612a24579182015b82811115612a23578251825591602001919060010190612a08565b5b509050612a319190612b5f565b5090565b508054612a4190613412565b6000825580601f10612a535750612a72565b601f016020900490600052602060002090810190612a719190612b5f565b5b50565b604051806102000160405280600073ffffffffffffffffffffffffffffffffffffffff168152602001600073ffffffffffffffffffffffffffffffffffffffff16815260200160008152602001600081526020016000815260200160008152602001600081526020016000815260200160008152602001600081526020016000815260200160006004811115612b0e57612b0d612ee1565b5b815260200160006002811115612b2757612b26612ee1565b5b81526020016060815260200160008019168152602001606081525090565b604051806040016040528060008152602001600081525090565b5b80821115612b78576000816000905550600101612b60565b5090565b600082825260208201905092915050565b7f6261642063616c6c000000000000000000000000000000000000000000000000600082015250565b6000612bc3600883612b7c565b9150612bce82612b8d565b602082019050919050565b60006020820190508181036000830152612bf281612bb6565b9050919050565b6000604051905090565b600080fd5b600080fd5b6000819050919050565b612c2081612c0d565b8114612c2b57600080fd5b50565b600081359050612c3d81612c17565b92915050565b600060208284031215612c5957612c58612c03565b5b6000612c6784828501612c2e565b91505092915050565b60008115159050919050565b612c8581612c70565b82525050565b6000602082019050612ca06000830184612c7c565b92915050565b600080fd5b600080fd5b6000601f19601f8301169050919050565b7f4e487b7100000000000000000000000000000000000000000000000000000000600052604160045260246000fd5b612cf982612cb0565b810181811067ffffffffffffffff82111715612d1857612d17612cc1565b5b80604052505050565b6000612d2b612bf9565b9050612d378282612cf0565b919050565b600067ffffffffffffffff821115612d5757612d56612cc1565b5b612d6082612cb0565b9050602081019050919050565b82818337600083830152505050565b6000612d8f612d8a84612d3c565b612d21565b905082815260208101848484011115612dab57612daa612cab565b5b612db6848285612d6d565b509392505050565b600082601f830112612dd357612dd2612ca6565b5b8135612de3848260208601612d7c565b91505092915050565b6000819050919050565b612dff81612dec565b8114612e0a57600080fd5b50565b600081359050612e1c81612df6565b92915050565b600080600060608486031215612e3b57612e3a612c03565b5b6000612e4986828701612c2e565b935050602084013567ffffffffffffffff811115612e6a57612e69612c08565b5b612e7686828701612dbe565b9250506040612e8786828701612e0d565b9150509250925092565b600073ffffffffffffffffffffffffffffffffffffffff82169050919050565b6000612ebc82612e91565b9050919050565b612ecc81612eb1565b82525050565b612edb81612dec565b82525050565b7f4e487b7100000000000000000000000000000000000000000000000000000000600052602160045260246000fd5b60058110612f2157612f20612ee1565b5b50565b6000819050612f3282612f10565b919050565b6000612f4282612f24565b9050919050565b612f5281612f37565b82525050565b60038110612f6957612f68612ee1565b5b50565b6000819050612f7a82612f58565b919050565b6000612f8a82612f6c565b9050919050565b612f9a81612f7f565b82525050565b600081519050919050565b600082825260208201905092915050565b60005b83811015612fda578082015181840152602081019050612fbf565b83811115612fe9576000848401525b50505050565b6000612ffa82612fa0565b6130048185612fab565b9350613014818560208601612fbc565b61301d81612cb0565b840191505092915050565b61303181612c0d565b82525050565b6000610200830160008301516130506000860182612ec3565b5060208301516130636020860182612ec3565b5060408301516130766040860182612ed2565b5060608301516130896060860182612ed2565b50608083015161309c6080860182612ed2565b5060a08301516130af60a0860182612ed2565b5060c08301516130c260c0860182612ed2565b5060e08301516130d560e0860182612ed2565b506101008301516130ea610100860182612ed2565b506101208301516130ff610120860182612ed2565b50610140830151613114610140860182612ed2565b50610160830151613129610160860182612f49565b5061018083015161313e610180860182612f91565b506101a08301518482036101a08601526131588282612fef565b9150506101c083015161316f6101c0860182613028565b506101e08301518482036101e08601526131898282612fef565b9150508091505092915050565b600060208201905081810360008301526131b08184613037565b905092915050565b60006131c382612e91565b9050919050565b6131d3816131b8565b81146131de57600080fd5b50565b6000813590506131f0816131ca565b92915050565b60006020828403121561320c5761320b612c03565b5b600061321a848285016131e1565b91505092915050565b6040820160008201516132396000850182612ed2565b50602082015161324c6020850182612ed2565b50505050565b60006040820190506132676000830184613223565b92915050565b61327681612dec565b82525050565b6000602082019050613291600083018461326d565b92915050565b6132a081612eb1565b81146132ab57600080fd5b50565b6000813590506132bd81613297565b92915050565b600080600080600080600060e0888a0312156132e2576132e1612c03565b5b60006132f08a828b01612c2e565b97505060206133018a828b016132ae565b96505060406133128a828b016132ae565b95505060606133238a828b01612e0d565b94505060806133348a828b01612e0d565b93505060a06133458a828b01612e0d565b92505060c06133568a828b01612c2e565b91505092959891949750929550565b61336e81612f37565b82525050565b60006020820190506133896000830184613365565b92915050565b613398816131b8565b82525050565b60006020820190506133b3600083018461338f565b92915050565b6133c281612f7f565b82525050565b60006020820190506133dd60008301846133b9565b92915050565b7f4e487b7100000000000000000000000000000000000000000000000000000000600052602260045260246000fd5b6000600282049050600182168061342a57607f821691505b6020821081141561343e5761343d6133e3565b5b50919050565b600081905092915050565b60008190508160005260206000209050919050565b6000815461347181613412565b61347b8186613444565b9450600182166000811461349657600181146134a7576134da565b60ff198316865281860193506134da565b6134b08561344f565b60005b838110156134d2578154818901526001820191506020810190506134b3565b838801955050505b50505092915050565b60006134ef8284613464565b915081905092915050565b7f4d6574686f642063616e2062652063616c6c6564206f6e6c792062792070726f60008201527f76696465722e0000000000000000000000000000000000000000000000000000602082015250565b6000613556602683612b7c565b9150613561826134fa565b604082019050919050565b6000602082019050818103600083015261358581613549565b9050919050565b7f496e76616c6964205461736b53746174652e0000000000000000000000000000600082015250565b60006135c2601283612b7c565b91506135cd8261358c565b602082019050919050565b600060208201905081810360008301526135f1816135b5565b9050919050565b7f4e487b7100000000000000000000000000000000000000000000000000000000600052601160045260246000fd5b600061363282612dec565b915061363d83612dec565b9250828210156136505761364f6135f8565b5b828203905092915050565b600061366682612dec565b915061367183612dec565b9250817fffffffffffffffffffffffffffffffffffffffffffffffffffffffffffffffff04831182151516156136aa576136a96135f8565b5b828202905092915050565b60006136c082612dec565b91506136cb83612dec565b9250827fffffffffffffffffffffffffffffffffffffffffffffffffffffffffffffffff03821115613700576136ff6135f8565b5b828201905092915050565b6000819050919050565b600061373061372b61372684612e91565b61370b565b612e91565b9050919050565b600061374282613715565b9050919050565b600061375482613737565b9050919050565b61376481613749565b82525050565b600060408201905061377f600083018561375b565b61378c602083018461326d565b9392505050565b61379c81612c0d565b82525050565b60006020820190506137b76000830184613793565b92915050565b60006040820190506137d26000830185613793565b6137df602083018461326d565b9392505050565b60006040820190506137fb600083018561375b565b6138086020830184613793565b9392505050565b7f4d6574686f642063616e2062652063616c6c6564206f6e6c7920627920636c6960008201527f656e742e00000000000000000000000000000000000000000000000000000000602082015250565b600061386b602483612b7c565b91506138768261380f565b604082019050919050565b6000602082019050818103600083015261389a8161385e565b9050919050565b7f496e76616c6964205061796d656e7453746174652e0000000000000000000000600082015250565b60006138d7601583612b7c565b91506138e2826138a1565b602082019050919050565b60006020820190508181036000830152613906816138ca565b9050919050565b7f56616c75652073656e74206973206e6f74207468652065787065637465640000600082015250565b6000613943601e83612b7c565b915061394e8261390d565b602082019050919050565b6000602082019050818103600083015261397281613936565b9050919050565b7f5061796d656e74206e6f74206e65656465640000000000000000000000000000600082015250565b60006139af601283612b7c565b91506139ba82613979565b602082019050919050565b600060208201905081810360008301526139de816139a2565b9050919050565b7f54696d6520686173206e6f7420657870697265642e0000000000000000000000600082015250565b6000613a1b601583612b7c565b9150613a26826139e5565b602082019050919050565b60006020820190508181036000830152613a4a81613a0e565b9050919050565b7f5461736b206d7573742062652072656769737465726564000000000000000000600082015250565b6000613a87601783612b7c565b9150613a9282613a51565b602082019050919050565b60006020820190508181036000830152613ab681613a7a565b905091905056fea264697066735822122055a2804103c6cb7538ae53cdcc141e0141b05526e76d26192249c06b8e0c6f6164736f6c63430008080033",
  "devdoc": {
    "kind": "dev",
    "methods": {},
    "version": 1
  },
  "userdoc": {
    "kind": "user",
    "methods": {},
    "version": 1
  },
  "storageLayout": {
    "storage": [
      {
        "astId": 58,
        "contract": "contracts/TasksManager.sol:TasksManager",
        "label": "tasks",
        "offset": 0,
        "slot": "0",
        "type": "t_mapping(t_bytes32,t_struct(Task)48_storage)"
      },
      {
        "astId": 63,
        "contract": "contracts/TasksManager.sol:TasksManager",
        "label": "performance",
        "offset": 0,
        "slot": "1",
        "type": "t_mapping(t_address,t_struct(providerRating)53_storage)"
      }
    ],
    "types": {
      "t_address": {
        "encoding": "inplace",
        "label": "address",
        "numberOfBytes": "20"
      },
      "t_address_payable": {
        "encoding": "inplace",
        "label": "address payable",
        "numberOfBytes": "20"
      },
      "t_bytes32": {
        "encoding": "inplace",
        "label": "bytes32",
        "numberOfBytes": "32"
      },
      "t_enum(PaymentState)13": {
        "encoding": "inplace",
        "label": "enum TasksManager.PaymentState",
        "numberOfBytes": "1"
      },
      "t_enum(TaskState)9": {
        "encoding": "inplace",
        "label": "enum TasksManager.TaskState",
        "numberOfBytes": "1"
      },
      "t_mapping(t_address,t_struct(providerRating)53_storage)": {
        "encoding": "mapping",
        "key": "t_address",
        "label": "mapping(address => struct TasksManager.providerRating)",
        "numberOfBytes": "32",
        "value": "t_struct(providerRating)53_storage"
      },
      "t_mapping(t_bytes32,t_struct(Task)48_storage)": {
        "encoding": "mapping",
        "key": "t_bytes32",
        "label": "mapping(bytes32 => struct TasksManager.Task)",
        "numberOfBytes": "32",
        "value": "t_struct(Task)48_storage"
      },
      "t_string_storage": {
        "encoding": "bytes",
        "label": "string",
        "numberOfBytes": "32"
      },
      "t_struct(Task)48_storage": {
        "encoding": "inplace",
        "label": "struct TasksManager.Task",
        "members": [
          {
            "astId": 15,
            "contract": "contracts/TasksManager.sol:TasksManager",
            "label": "provider",
            "offset": 0,
            "slot": "0",
            "type": "t_address_payable"
          },
          {
            "astId": 17,
            "contract": "contracts/TasksManager.sol:TasksManager",
            "label": "client",
            "offset": 0,
            "slot": "1",
            "type": "t_address_payable"
          },
          {
            "astId": 19,
            "contract": "contracts/TasksManager.sol:TasksManager",
            "label": "price",
            "offset": 0,
            "slot": "2",
            "type": "t_uint256"
          },
          {
            "astId": 21,
            "contract": "contracts/TasksManager.sol:TasksManager",
            "label": "providerCollateral",
            "offset": 0,
            "slot": "3",
            "type": "t_uint256"
          },
          {
            "astId": 23,
            "contract": "contracts/TasksManager.sol:TasksManager",
            "label": "clientCollateral",
            "offset": 0,
            "slot": "4",
            "type": "t_uint256"
          },
          {
            "astId": 25,
            "contract": "contracts/TasksManager.sol:TasksManager",
            "label": "payment",
            "offset": 0,
            "slot": "5",
            "type": "t_uint256"
          },
          {
            "astId": 27,
            "contract": "contracts/TasksManager.sol:TasksManager",
            "label": "deadline",
            "offset": 0,
            "slot": "6",
            "type": "t_uint256"
          },
          {
            "astId": 29,
            "contract": "contracts/TasksManager.sol:TasksManager",
            "label": "duration",
            "offset": 0,
            "slot": "7",
            "type": "t_uint256"
          },
          {
            "astId": 31,
            "contract": "contracts/TasksManager.sol:TasksManager",
            "label": "activationTime",
            "offset": 0,
            "slot": "8",
            "type": "t_uint256"
          },
          {
            "astId": 33,
            "contract": "contracts/TasksManager.sol:TasksManager",
            "label": "timeResultProvided",
            "offset": 0,
            "slot": "9",
            "type": "t_uint256"
          },
          {
            "astId": 35,
            "contract": "contracts/TasksManager.sol:TasksManager",
            "label": "timeResultReceived",
            "offset": 0,
            "slot": "10",
            "type": "t_uint256"
          },
          {
            "astId": 38,
            "contract": "contracts/TasksManager.sol:TasksManager",
            "label": "taskState",
            "offset": 0,
            "slot": "11",
            "type": "t_enum(TaskState)9"
          },
          {
            "astId": 41,
            "contract": "contracts/TasksManager.sol:TasksManager",
            "label": "paymentState",
            "offset": 1,
            "slot": "11",
            "type": "t_enum(PaymentState)13"
          },
          {
            "astId": 43,
            "contract": "contracts/TasksManager.sol:TasksManager",
            "label": "code",
            "offset": 0,
            "slot": "12",
            "type": "t_string_storage"
          },
          {
            "astId": 45,
            "contract": "contracts/TasksManager.sol:TasksManager",
            "label": "clientVerification",
            "offset": 0,
            "slot": "13",
            "type": "t_bytes32"
          },
          {
            "astId": 47,
            "contract": "contracts/TasksManager.sol:TasksManager",
            "label": "providerVerification",
            "offset": 0,
            "slot": "14",
            "type": "t_string_storage"
          }
        ],
        "numberOfBytes": "480"
      },
      "t_struct(providerRating)53_storage": {
        "encoding": "inplace",
        "label": "struct TasksManager.providerRating",
        "members": [
          {
            "astId": 50,
            "contract": "contracts/TasksManager.sol:TasksManager",
            "label": "upVotes",
            "offset": 0,
            "slot": "0",
            "type": "t_uint256"
          },
          {
            "astId": 52,
            "contract": "contracts/TasksManager.sol:TasksManager",
            "label": "downVotes",
            "offset": 0,
            "slot": "1",
            "type": "t_uint256"
          }
        ],
        "numberOfBytes": "64"
      },
      "t_uint256": {
        "encoding": "inplace",
        "label": "uint256",
        "numberOfBytes": "32"
      }
    }
  }
}