{
  "address": "0x5FbDB2315678afecb367f032d93F642f64180aa3",
  "abi": [
    {
      "inputs": [],
      "stateMutability": "nonpayable",
      "type": "constructor"
    },
    {
      "anonymous": false,
      "inputs": [
        {
          "indexed": false,
          "internalType": "bytes32",
          "name": "taskID",
          "type": "bytes32"
        }
      ],
      "name": "PaymentCompleted",
      "type": "event"
    },
    {
      "anonymous": false,
      "inputs": [
        {
          "indexed": false,
          "internalType": "bytes32",
          "name": "taskID",
          "type": "bytes32"
        },
        {
          "indexed": false,
          "internalType": "uint256",
          "name": "payment",
          "type": "uint256"
        }
      ],
      "name": "PaymentPending",
      "type": "event"
    },
    {
      "anonymous": false,
      "inputs": [
        {
          "indexed": false,
          "internalType": "address",
          "name": "provider",
          "type": "address"
        },
        {
          "indexed": false,
          "internalType": "bytes32",
          "name": "task",
          "type": "bytes32"
        }
      ],
      "name": "ProviderDownvoted",
      "type": "event"
    },
    {
      "anonymous": false,
      "inputs": [
        {
          "indexed": false,
          "internalType": "address",
          "name": "provider",
          "type": "address"
        },
        {
          "indexed": false,
          "internalType": "bytes32",
          "name": "task",
          "type": "bytes32"
        }
      ],
      "name": "ProviderUpvoted",
      "type": "event"
    },
    {
      "anonymous": false,
      "inputs": [
        {
          "indexed": false,
          "internalType": "bytes32",
          "name": "taskID",
          "type": "bytes32"
        }
      ],
      "name": "TaskActivated",
      "type": "event"
    },
    {
      "anonymous": false,
      "inputs": [
        {
          "indexed": false,
          "internalType": "bytes32",
          "name": "taskID",
          "type": "bytes32"
        }
      ],
      "name": "TaskCancelled",
      "type": "event"
    },
    {
      "anonymous": false,
      "inputs": [
        {
          "indexed": false,
          "internalType": "bytes32",
          "name": "taskID",
          "type": "bytes32"
        }
      ],
      "name": "TaskCompleted",
      "type": "event"
    },
    {
      "anonymous": false,
      "inputs": [
        {
          "indexed": false,
          "internalType": "bytes32",
          "name": "taskID",
          "type": "bytes32"
        }
      ],
      "name": "TaskCreated",
      "type": "event"
    },
    {
      "anonymous": false,
      "inputs": [
        {
          "indexed": false,
          "internalType": "bytes32",
          "name": "taskID",
          "type": "bytes32"
        }
      ],
      "name": "TaskInvalidated",
      "type": "event"
    },
    {
      "anonymous": false,
      "inputs": [
        {
          "indexed": false,
          "internalType": "bytes32",
          "name": "task",
          "type": "bytes32"
        }
      ],
      "name": "TaskRegistered",
      "type": "event"
    },
    {
      "anonymous": false,
      "inputs": [
        {
          "indexed": false,
          "internalType": "bytes32",
          "name": "task",
          "type": "bytes32"
        }
      ],
      "name": "TaskUnregistered",
      "type": "event"
    },
    {
      "anonymous": false,
      "inputs": [
        {
          "indexed": false,
          "internalType": "address",
          "name": "Address",
          "type": "address"
        },
        {
          "indexed": false,
          "internalType": "uint256",
          "name": "Amount",
          "type": "uint256"
        }
      ],
      "name": "TransferMade",
      "type": "event"
    },
    {
      "stateMutability": "payable",
      "type": "fallback"
    },
    {
      "inputs": [
        {
          "internalType": "bytes32",
          "name": "_taskID",
          "type": "bytes32"
        }
      ],
      "name": "CorrectVerification",
      "outputs": [
        {
          "internalType": "bool",
          "name": "",
          "type": "bool"
        }
      ],
      "stateMutability": "view",
      "type": "function"
    },
    {
      "inputs": [
        {
          "internalType": "bytes32",
          "name": "_taskID",
          "type": "bytes32"
        }
      ],
      "name": "InTime",
      "outputs": [
        {
          "internalType": "bool",
          "name": "",
          "type": "bool"
        }
      ],
      "stateMutability": "view",
      "type": "function"
    },
    {
      "inputs": [
        {
          "internalType": "bytes32",
          "name": "_taskID",
          "type": "bytes32"
        }
      ],
      "name": "ProviderTime",
      "outputs": [
        {
          "internalType": "bool",
          "name": "",
          "type": "bool"
        }
      ],
      "stateMutability": "view",
      "type": "function"
    },
    {
      "inputs": [
        {
          "internalType": "bytes32",
          "name": "_taskID",
          "type": "bytes32"
        }
      ],
      "name": "activateTask",
      "outputs": [],
      "stateMutability": "payable",
      "type": "function"
    },
    {
      "inputs": [
        {
          "internalType": "bytes32",
          "name": "_taskID",
          "type": "bytes32"
        }
      ],
      "name": "cancelTask",
      "outputs": [],
      "stateMutability": "nonpayable",
      "type": "function"
    },
    {
      "inputs": [
        {
          "internalType": "bytes32",
          "name": "_taskID",
          "type": "bytes32"
        }
      ],
      "name": "completePayment",
      "outputs": [],
      "stateMutability": "payable",
      "type": "function"
    },
    {
      "inputs": [
        {
          "internalType": "bytes32",
          "name": "_taskID",
          "type": "bytes32"
        }
      ],
      "name": "completeTask",
      "outputs": [],
      "stateMutability": "nonpayable",
      "type": "function"
    },
    {
      "inputs": [
        {
          "internalType": "bytes32",
          "name": "_taskID",
          "type": "bytes32"
        },
        {
          "internalType": "address payable",
          "name": "_client",
          "type": "address"
        },
        {
          "internalType": "address payable",
          "name": "_provider",
          "type": "address"
        },
        {
          "internalType": "uint256",
          "name": "_price",
          "type": "uint256"
        },
        {
          "internalType": "uint256",
          "name": "_providerCollateral",
          "type": "uint256"
        },
        {
          "internalType": "uint256",
          "name": "_deadline",
          "type": "uint256"
        },
        {
          "internalType": "bytes32",
          "name": "_clientVerification",
          "type": "bytes32"
        }
      ],
      "name": "createTask",
      "outputs": [],
      "stateMutability": "nonpayable",
      "type": "function"
    },
    {
      "inputs": [
        {
          "internalType": "bytes32",
          "name": "_taskID",
          "type": "bytes32"
        },
        {
          "internalType": "address",
          "name": "provider",
          "type": "address"
        }
      ],
      "name": "downVote",
      "outputs": [],
      "stateMutability": "nonpayable",
      "type": "function"
    },
    {
      "inputs": [
        {
          "internalType": "bytes32",
          "name": "_taskID",
          "type": "bytes32"
        }
      ],
      "name": "getActivationTime",
      "outputs": [
        {
          "internalType": "uint256",
          "name": "",
          "type": "uint256"
        }
      ],
      "stateMutability": "view",
      "type": "function"
    },
    {
      "inputs": [],
      "name": "getOwner",
      "outputs": [
        {
          "internalType": "address",
          "name": "",
          "type": "address"
        }
      ],
      "stateMutability": "view",
      "type": "function"
    },
    {
      "inputs": [
        {
          "internalType": "bytes32",
          "name": "_taskID",
          "type": "bytes32"
        }
      ],
      "name": "getPayment",
      "outputs": [
        {
          "internalType": "uint256",
          "name": "",
          "type": "uint256"
        }
      ],
      "stateMutability": "view",
      "type": "function"
    },
    {
      "inputs": [
        {
          "internalType": "bytes32",
          "name": "_taskID",
          "type": "bytes32"
        }
      ],
      "name": "getPaymentState",
      "outputs": [
        {
          "internalType": "enum TasksManager.PaymentState",
          "name": "",
          "type": "uint8"
        }
      ],
      "stateMutability": "view",
      "type": "function"
    },
    {
      "inputs": [
        {
          "internalType": "address",
          "name": "provider",
          "type": "address"
        }
      ],
      "name": "getPerformance",
      "outputs": [
        {
          "components": [
            {
              "internalType": "uint256",
              "name": "upVotes",
              "type": "uint256"
            },
            {
              "internalType": "uint256",
              "name": "downVotes",
              "type": "uint256"
            }
          ],
          "internalType": "struct TasksManager.providerRating",
          "name": "",
          "type": "tuple"
        }
      ],
      "stateMutability": "view",
      "type": "function"
    },
    {
      "inputs": [
        {
          "internalType": "bytes32",
          "name": "_taskID",
          "type": "bytes32"
        }
      ],
      "name": "getProviderCollateral",
      "outputs": [
        {
          "internalType": "uint256",
          "name": "",
          "type": "uint256"
        }
      ],
      "stateMutability": "view",
      "type": "function"
    },
    {
      "inputs": [
        {
          "internalType": "bytes32",
          "name": "_taskID",
          "type": "bytes32"
        }
      ],
      "name": "getTask",
      "outputs": [
        {
          "components": [
            {
              "internalType": "address payable",
              "name": "provider",
              "type": "address"
            },
            {
              "internalType": "address payable",
              "name": "client",
              "type": "address"
            },
            {
              "internalType": "uint256",
              "name": "price",
              "type": "uint256"
            },
            {
              "internalType": "uint256",
              "name": "providerCollateral",
              "type": "uint256"
            },
            {
              "internalType": "uint256",
              "name": "clientCollateral",
              "type": "uint256"
            },
            {
              "internalType": "uint256",
              "name": "payment",
              "type": "uint256"
            },
            {
              "internalType": "uint256",
              "name": "deadline",
              "type": "uint256"
            },
            {
              "internalType": "uint256",
              "name": "duration",
              "type": "uint256"
            },
            {
              "internalType": "uint256",
              "name": "activationTime",
              "type": "uint256"
            },
            {
              "internalType": "uint256",
              "name": "timeResultProvided",
              "type": "uint256"
            },
            {
              "internalType": "uint256",
              "name": "timeResultReceived",
              "type": "uint256"
            },
            {
              "internalType": "enum TasksManager.TaskState",
              "name": "taskState",
              "type": "uint8"
            },
            {
              "internalType": "enum TasksManager.PaymentState",
              "name": "paymentState",
              "type": "uint8"
            },
            {
              "internalType": "string",
              "name": "code",
              "type": "string"
            },
            {
              "internalType": "bytes32",
              "name": "clientVerification",
              "type": "bytes32"
            },
            {
              "internalType": "string",
              "name": "providerVerification",
              "type": "string"
            }
          ],
          "internalType": "struct TasksManager.Task",
          "name": "",
          "type": "tuple"
        }
      ],
      "stateMutability": "view",
      "type": "function"
    },
    {
      "inputs": [
        {
          "internalType": "bytes32",
          "name": "_taskID",
          "type": "bytes32"
        }
      ],
      "name": "getTaskState",
      "outputs": [
        {
          "internalType": "enum TasksManager.TaskState",
          "name": "",
          "type": "uint8"
        }
      ],
      "stateMutability": "view",
      "type": "function"
    },
    {
      "inputs": [
        {
          "internalType": "bytes32",
          "name": "_taskID",
          "type": "bytes32"
        }
      ],
      "name": "invalidateTask",
      "outputs": [],
      "stateMutability": "nonpayable",
      "type": "function"
    },
    {
      "inputs": [
        {
          "internalType": "bytes32",
          "name": "_taskID",
          "type": "bytes32"
        }
      ],
      "name": "isRegistered",
      "outputs": [
        {
          "internalType": "bool",
          "name": "",
          "type": "bool"
        }
      ],
      "stateMutability": "view",
      "type": "function"
    },
    {
      "inputs": [
        {
          "internalType": "bytes32",
          "name": "_taskID",
          "type": "bytes32"
        },
        {
          "internalType": "string",
          "name": "ver",
          "type": "string"
        },
        {
          "internalType": "uint256",
          "name": "_timeReceivedProvider",
          "type": "uint256"
        }
      ],
      "name": "receiveResults",
      "outputs": [],
      "stateMutability": "nonpayable",
      "type": "function"
    },
    {
      "inputs": [
        {
          "internalType": "bytes32",
          "name": "_taskID",
          "type": "bytes32"
        },
        {
          "internalType": "string",
          "name": "_code",
          "type": "string"
        }
      ],
      "name": "setCode",
      "outputs": [],
      "stateMutability": "nonpayable",
      "type": "function"
    },
    {
      "inputs": [
        {
          "internalType": "bytes32",
          "name": "_taskID",
          "type": "bytes32"
        },
        {
          "internalType": "address",
          "name": "provider",
          "type": "address"
        }
      ],
      "name": "upVote",
      "outputs": [],
      "stateMutability": "nonpayable",
      "type": "function"
    },
    {
      "stateMutability": "payable",
      "type": "receive"
    }
  ],
  "transactionHash": "0x23fce2da746390604bfe71affecd6b5281a499e65f75e86bfda27933670aee9f",
  "args": [],
  "numDeployments": 1,
  "solcInputHash": "8f0330db43884e027f41ea0434c7cae0",
  "bytecode": "0x60a060405234801561001057600080fd5b503373ffffffffffffffffffffffffffffffffffffffff1660808173ffffffffffffffffffffffffffffffffffffffff1660601b8152505060805160601c613de061006660003960006122b70152613de06000f3fe6080604052600436106101395760003560e01c806370ad1976116100ab57806392b833201161006f57806392b83320146104b7578063974b3b01146104d3578063ab210cc8146104fc578063e66eefc814610539578063ee8ca3b514610576578063f3dd6de31461059f57610179565b806370ad1976146103c057806375ece975146103fd5780637c0390f7146104265780638693944d1461044f578063893d20e81461048c57610179565b8063283462a9116100fd578063283462a91461029b5780633ecff55f146102d857806347ca8a8b1461031557806349ec76421461033157806354706b5a1461035a578063668b1baa1461038357610179565b8063073d89231461017e5780630946dc8a146101a757806315a29035146101e45780631ecc9aaf1461022157806327258b221461025e57610179565b36610179576040517f08c379a000000000000000000000000000000000000000000000000000000000815260040161017090612dbe565b60405180910390fd5b600080fd5b34801561018a57600080fd5b506101a560048036038101906101a09190612e86565b6105c8565b005b3480156101b357600080fd5b506101ce60048036038101906101c99190612ec6565b6106a8565b6040516101db9190612f0e565b60405180910390f35b3480156101f057600080fd5b5061020b60048036038101906102069190612ec6565b610703565b6040516102189190613229565b60405180910390f35b34801561022d57600080fd5b506102486004803603810190610243919061324b565b6109da565b60405161025591906132a7565b60405180910390f35b34801561026a57600080fd5b5061028560048036038101906102809190612ec6565b610a47565b6040516102929190612f0e565b60405180910390f35b3480156102a757600080fd5b506102c260048036038101906102bd9190612ec6565b610ab5565b6040516102cf9190612f0e565b60405180910390f35b3480156102e457600080fd5b506102ff60048036038101906102fa9190612ec6565b610af8565b60405161030c9190612f0e565b60405180910390f35b61032f600480360381019061032a9190612ec6565b610b4f565b005b34801561033d57600080fd5b50610358600480360381019061035391906133f7565b610fa7565b005b34801561036657600080fd5b50610381600480360381019061037c9190612ec6565b610fd5565b005b34801561038f57600080fd5b506103aa60048036038101906103a59190612ec6565b6114f6565b6040516103b79190613462565b60405180910390f35b3480156103cc57600080fd5b506103e760048036038101906103e29190612ec6565b611515565b6040516103f49190613462565b60405180910390f35b34801561040957600080fd5b50610424600480360381019061041f91906134d5565b611534565b005b34801561043257600080fd5b5061044d60048036038101906104489190612ec6565b611737565b005b34801561045b57600080fd5b5061047660048036038101906104719190612ec6565b612287565b6040516104839190613586565b60405180910390f35b34801561049857600080fd5b506104a16122b3565b6040516104ae91906135b0565b60405180910390f35b6104d160048036038101906104cc9190612ec6565b6122db565b005b3480156104df57600080fd5b506104fa60048036038101906104f59190612e86565b6125bc565b005b34801561050857600080fd5b50610523600480360381019061051e9190612ec6565b61269c565b60405161053091906135da565b60405180910390f35b34801561054557600080fd5b50610560600480360381019061055b9190612ec6565b6126c8565b60405161056d9190613462565b60405180910390f35b34801561058257600080fd5b5061059d60048036038101906105989190612ec6565b6126e7565b005b3480156105ab57600080fd5b506105c660048036038101906105c191906135f5565b612b31565b005b816105d281610a47565b610611576040517f08c379a0000000000000000000000000000000000000000000000000000000008152600401610608906136b0565b60405180910390fd5b60018060008473ffffffffffffffffffffffffffffffffffffffff1673ffffffffffffffffffffffffffffffffffffffff168152602001908152602001600020600101600082825461066391906136ff565b925050819055507f3fec1177d25f324e1beb970cd60f8b52ef1e47290a72bdb8f62101720f5e4927828460405161069b929190613764565b60405180910390a1505050565b6000806000838152602001908152602001600020600e016040516020016106cf919061388d565b60405160208183030381529060405280519060200120600080848152602001908152602001600020600d0154149050919050565b61070b612b94565b600080838152602001908152602001600020604051806102000160405290816000820160009054906101000a900473ffffffffffffffffffffffffffffffffffffffff1673ffffffffffffffffffffffffffffffffffffffff1673ffffffffffffffffffffffffffffffffffffffff1681526020016001820160009054906101000a900473ffffffffffffffffffffffffffffffffffffffff1673ffffffffffffffffffffffffffffffffffffffff1673ffffffffffffffffffffffffffffffffffffffff1681526020016002820154815260200160038201548152602001600482015481526020016005820154815260200160068201548152602001600782015481526020016008820154815260200160098201548152602001600a8201548152602001600b820160009054906101000a900460ff16600481111561085457610853612f63565b5b600481111561086657610865612f63565b5b8152602001600b820160019054906101000a900460ff16600281111561088f5761088e612f63565b5b60028111156108a1576108a0612f63565b5b8152602001600c820180546108b5906137bc565b80601f01602080910402602001604051908101604052809291908181526020018280546108e1906137bc565b801561092e5780601f106109035761010080835404028352916020019161092e565b820191906000526020600020905b81548152906001019060200180831161091157829003601f168201915b50505050508152602001600d8201548152602001600e82018054610951906137bc565b80601f016020809104026020016040519081016040528092919081815260200182805461097d906137bc565b80156109ca5780601f1061099f576101008083540402835291602001916109ca565b820191906000526020600020905b8154815290600101906020018083116109ad57829003601f168201915b5050505050815250509050919050565b6109e2612c64565b600160008373ffffffffffffffffffffffffffffffffffffffff1673ffffffffffffffffffffffffffffffffffffffff168152602001908152602001600020604051806040016040529081600082015481526020016001820154815250509050919050565b60008073ffffffffffffffffffffffffffffffffffffffff1660008084815260200190815260200160002060010160009054906101000a900473ffffffffffffffffffffffffffffffffffffffff1673ffffffffffffffffffffffffffffffffffffffff1614159050919050565b6000603c60008084815260200190815260200160002060090154610ad991906136ff565b600080848152602001908152602001600020600a015411159050919050565b60008060008381526020019081526020016000206006015460008084815260200190815260200160002060080154610b3091906136ff565b600080848152602001908152602001600020600a015411159050919050565b8060008082815260200190815260200160002060010160009054906101000a900473ffffffffffffffffffffffffffffffffffffffff1673ffffffffffffffffffffffffffffffffffffffff163373ffffffffffffffffffffffffffffffffffffffff1614610bf3576040517f08c379a0000000000000000000000000000000000000000000000000000000008152600401610bea90613916565b60405180910390fd5b816003806004811115610c0957610c08612f63565b5b600080848152602001908152602001600020600b0160009054906101000a900460ff166004811115610c3e57610c3d612f63565b5b14610c7e576040517f08c379a0000000000000000000000000000000000000000000000000000000008152600401610c7590613982565b60405180910390fd5b836001806002811115610c9457610c93612f63565b5b600080848152602001908152602001600020600b0160019054906101000a900460ff166002811115610cc957610cc8612f63565b5b14610d09576040517f08c379a0000000000000000000000000000000000000000000000000000000008152600401610d00906139ee565b60405180910390fd5b6000808781526020019081526020016000206004015460008088815260200190815260200160002060050154610d3f9190613a0e565b803414610d81576040517f08c379a0000000000000000000000000000000000000000000000000000000008152600401610d7890613a8e565b60405180910390fd5b60016002811115610d9557610d94612f63565b5b600080898152602001908152602001600020600b0160019054906101000a900460ff166002811115610dca57610dc9612f63565b5b14610e0a576040517f08c379a0000000000000000000000000000000000000000000000000000000008152600401610e0190613afa565b60405180910390fd5b60008088815260200190815260200160002060000160009054906101000a900473ffffffffffffffffffffffffffffffffffffffff1673ffffffffffffffffffffffffffffffffffffffff166108fc349081150290604051600060405180830381858888f19350505050158015610e85573d6000803e3d6000fd5b507fbb1d109694da1f57c795e648cd08cfff17024c10216d0c583badbd33ed32494c60008089815260200190815260200160002060000160009054906101000a900473ffffffffffffffffffffffffffffffffffffffff166000808a8152602001908152602001600020600401546000808b815260200190815260200160002060050154610f139190613a0e565b604051610f21929190613b79565b60405180910390a16002600080898152602001908152602001600020600b0160016101000a81548160ff02191690836002811115610f6257610f61612f63565b5b02179055507ff2baea2668e36a27a898b8c745decb4439ff61ae04d545dcc6954b84bd3e3c4287604051610f969190613ba2565b60405180910390a150505050505050565b80600080848152602001908152602001600020600c019080519060200190610fd0929190612c7e565b505050565b8060008082815260200190815260200160002060010160009054906101000a900473ffffffffffffffffffffffffffffffffffffffff1673ffffffffffffffffffffffffffffffffffffffff163373ffffffffffffffffffffffffffffffffffffffff1614611079576040517f08c379a000000000000000000000000000000000000000000000000000000000815260040161107090613916565b60405180910390fd5b81600280600481111561108f5761108e612f63565b5b600080848152602001908152602001600020600b0160009054906101000a900460ff1660048111156110c4576110c3612f63565b5b14611104576040517f08c379a00000000000000000000000000000000000000000000000000000000081526004016110fb90613982565b60405180910390fd5b600080858152602001908152602001600020600301546000808681526020019081526020016000206004015461113a91906136ff565b8047101561117d576040517f08c379a000000000000000000000000000000000000000000000000000000000815260040161117490613c09565b60405180910390fd5b60008086815260200190815260200160002060060154600080878152602001908152602001600020600801546111b391906136ff565b42116111f4576040517f08c379a00000000000000000000000000000000000000000000000000000000081526004016111eb90613c75565b60405180910390fd5b6004600080878152602001908152602001600020600b0160006101000a81548160ff0219169083600481111561122d5761122c612f63565b5b021790555060008086815260200190815260200160002060010160009054906101000a900473ffffffffffffffffffffffffffffffffffffffff1673ffffffffffffffffffffffffffffffffffffffff166108fc60008088815260200190815260200160002060030154600080898152602001908152602001600020600401546112b791906136ff565b9081150290604051600060405180830381858888f193505050501580156112e2573d6000803e3d6000fd5b507fbb1d109694da1f57c795e648cd08cfff17024c10216d0c583badbd33ed32494c60008087815260200190815260200160002060010160009054906101000a900473ffffffffffffffffffffffffffffffffffffffff16600080888152602001908152602001600020600301546000808981526020019081526020016000206004015461137091906136ff565b60405161137e929190613b79565b60405180910390a1600080868152602001908152602001600020600080820160006101000a81549073ffffffffffffffffffffffffffffffffffffffff02191690556001820160006101000a81549073ffffffffffffffffffffffffffffffffffffffff021916905560028201600090556003820160009055600482016000905560058201600090556006820160009055600782016000905560088201600090556009820160009055600a820160009055600b820160006101000a81549060ff0219169055600b820160016101000a81549060ff0219169055600c820160006114679190612d04565b600d820160009055600e8201600061147f9190612d04565b50507fa07d0b7132fa6b208a063af8026a29c1fa7ea1f98ffc9682615585318a6b25d6856040516114b09190613ba2565b60405180910390a17fb1115fb0a2ad10d7fc3823dadb2f14589bef759b57af99b0f44a2f6a5bcee4f4856040516114e79190613ba2565b60405180910390a15050505050565b6000806000838152602001908152602001600020600301549050919050565b6000806000838152602001908152602001600020600801549050919050565b8560008089815260200190815260200160002060010160006101000a81548173ffffffffffffffffffffffffffffffffffffffff021916908373ffffffffffffffffffffffffffffffffffffffff1602179055508460008089815260200190815260200160002060000160006101000a81548173ffffffffffffffffffffffffffffffffffffffff021916908373ffffffffffffffffffffffffffffffffffffffff16021790555083600080898152602001908152602001600020600201819055508260008089815260200190815260200160002060030181905550816000808981526020019081526020016000206006018190555080600080898152602001908152602001600020600d01819055506000806000898152602001908152602001600020600b0160006101000a81548160ff0219169083600481111561167d5761167c612f63565b5b02179055506000806000898152602001908152602001600020600b0160016101000a81548160ff021916908360028111156116bb576116ba612f63565b5b02179055507f1e28175955a872c8252a6e5cf36ac6b318d074eb78b49731e5cb9ddc2d870b63876040516116ef9190613ba2565b60405180910390a17f2634c61996f131952dea1b6c5a08057c061e09429d247354d6f7b60873238c5e876040516117269190613ba2565b60405180910390a150505050505050565b8060008082815260200190815260200160002060000160009054906101000a900473ffffffffffffffffffffffffffffffffffffffff1673ffffffffffffffffffffffffffffffffffffffff163373ffffffffffffffffffffffffffffffffffffffff16146117db576040517f08c379a00000000000000000000000000000000000000000000000000000000081526004016117d290613d07565b60405180910390fd5b8160028060048111156117f1576117f0612f63565b5b600080848152602001908152602001600020600b0160009054906101000a900460ff16600481111561182657611825612f63565b5b14611866576040517f08c379a000000000000000000000000000000000000000000000000000000000815260040161185d90613982565b60405180910390fd5b600080858152602001908152602001600020600301546000808681526020019081526020016000206004015461189c91906136ff565b804710156118df576040517f08c379a00000000000000000000000000000000000000000000000000000000081526004016118d690613c09565b60405180910390fd5b6118e885610af8565b80156118f957506118f885610ab5565b5b801561190a5750611909856106a8565b5b15611f455760008086815260200190815260200160002060080154600080878152602001908152602001600020600901546119459190613a0e565b6000808781526020019081526020016000206007018190555060008086815260200190815260200160002060070154600080878152602001908152602001600020600201546119949190613d27565b60008087815260200190815260200160002060050181905550600080868152602001908152602001600020600401546000808781526020019081526020016000206005015411611d005760008086815260200190815260200160002060000160009054906101000a900473ffffffffffffffffffffffffffffffffffffffff1673ffffffffffffffffffffffffffffffffffffffff166108fc6000808881526020019081526020016000206003015460008089815260200190815260200160002060050154611a6391906136ff565b9081150290604051600060405180830381858888f19350505050158015611a8e573d6000803e3d6000fd5b507fbb1d109694da1f57c795e648cd08cfff17024c10216d0c583badbd33ed32494c60008087815260200190815260200160002060000160009054906101000a900473ffffffffffffffffffffffffffffffffffffffff166000808881526020019081526020016000206003015460008089815260200190815260200160002060050154611b1c91906136ff565b604051611b2a929190613b79565b60405180910390a160008086815260200190815260200160002060010160009054906101000a900473ffffffffffffffffffffffffffffffffffffffff1673ffffffffffffffffffffffffffffffffffffffff166108fc6000808881526020019081526020016000206004015460008089815260200190815260200160002060050154611bb79190613a0e565b9081150290604051600060405180830381858888f19350505050158015611be2573d6000803e3d6000fd5b507fbb1d109694da1f57c795e648cd08cfff17024c10216d0c583badbd33ed32494c60008087815260200190815260200160002060010160009054906101000a900473ffffffffffffffffffffffffffffffffffffffff166000808881526020019081526020016000206004015460008089815260200190815260200160002060050154611c709190613a0e565b604051611c7e929190613b79565b60405180910390a16002600080878152602001908152602001600020600b0160016101000a81548160ff02191690836002811115611cbf57611cbe612f63565b5b02179055507ff2baea2668e36a27a898b8c745decb4439ff61ae04d545dcc6954b84bd3e3c4285604051611cf39190613ba2565b60405180910390a1611f01565b60008086815260200190815260200160002060000160009054906101000a900473ffffffffffffffffffffffffffffffffffffffff1673ffffffffffffffffffffffffffffffffffffffff166108fc6000808881526020019081526020016000206003015460008089815260200190815260200160002060040154611d8591906136ff565b9081150290604051600060405180830381858888f19350505050158015611db0573d6000803e3d6000fd5b507fbb1d109694da1f57c795e648cd08cfff17024c10216d0c583badbd33ed32494c60008087815260200190815260200160002060000160009054906101000a900473ffffffffffffffffffffffffffffffffffffffff166000808881526020019081526020016000206003015460008089815260200190815260200160002060040154611e3e91906136ff565b604051611e4c929190613b79565b60405180910390a16001600080878152602001908152602001600020600b0160016101000a81548160ff02191690836002811115611e8d57611e8c612f63565b5b02179055507f0e94573b1be2e52f56af2fa73f97395af190b00bf516b0e90356c3619c4cdf7c856000808881526020019081526020016000206004015460008089815260200190815260200160002060050154611eea9190613a0e565b604051611ef8929190613d81565b60405180910390a15b611f408560008088815260200190815260200160002060000160009054906101000a900473ffffffffffffffffffffffffffffffffffffffff166125bc565b6120d9565b60008086815260200190815260200160002060010160009054906101000a900473ffffffffffffffffffffffffffffffffffffffff1673ffffffffffffffffffffffffffffffffffffffff166108fc6000808881526020019081526020016000206003015460008089815260200190815260200160002060040154611fca91906136ff565b9081150290604051600060405180830381858888f19350505050158015611ff5573d6000803e3d6000fd5b507fbb1d109694da1f57c795e648cd08cfff17024c10216d0c583badbd33ed32494c60008087815260200190815260200160002060010160009054906101000a900473ffffffffffffffffffffffffffffffffffffffff16600080888152602001908152602001600020600301546000808981526020019081526020016000206004015461208391906136ff565b604051612091929190613b79565b60405180910390a16120d88560008088815260200190815260200160002060000160009054906101000a900473ffffffffffffffffffffffffffffffffffffffff166105c8565b5b6003600080878152602001908152602001600020600b0160006101000a81548160ff0219169083600481111561211257612111612f63565b5b0217905550600080868152602001908152602001600020600080820160006101000a81549073ffffffffffffffffffffffffffffffffffffffff02191690556001820160006101000a81549073ffffffffffffffffffffffffffffffffffffffff021916905560028201600090556003820160009055600482016000905560058201600090556006820160009055600782016000905560088201600090556009820160009055600a820160009055600b820160006101000a81549060ff0219169055600b820160016101000a81549060ff0219169055600c820160006121f89190612d04565b600d820160009055600e820160006122109190612d04565b50507f572a2b6ee4b829f7c9a4b27bd7729666696a0b5e394e1a9ad92e925e483f02c2856040516122419190613ba2565b60405180910390a17fb1115fb0a2ad10d7fc3823dadb2f14589bef759b57af99b0f44a2f6a5bcee4f4856040516122789190613ba2565b60405180910390a15050505050565b6000806000838152602001908152602001600020600b0160009054906101000a900460ff169050919050565b60007f0000000000000000000000000000000000000000000000000000000000000000905090565b8060008082815260200190815260200160002060000160009054906101000a900473ffffffffffffffffffffffffffffffffffffffff1673ffffffffffffffffffffffffffffffffffffffff163373ffffffffffffffffffffffffffffffffffffffff161461237f576040517f08c379a000000000000000000000000000000000000000000000000000000000815260040161237690613d07565b60405180910390fd5b600080838152602001908152602001600020600301548034146123d7576040517f08c379a00000000000000000000000000000000000000000000000000000000081526004016123ce90613a8e565b60405180910390fd5b8260008060048111156123ed576123ec612f63565b5b600080848152602001908152602001600020600b0160009054906101000a900460ff16600481111561242257612421612f63565b5b14612462576040517f08c379a000000000000000000000000000000000000000000000000000000000815260040161245990613982565b60405180910390fd5b600080868152602001908152602001600020600301546000808781526020019081526020016000206004015461249891906136ff565b804710156124db576040517f08c379a00000000000000000000000000000000000000000000000000000000081526004016124d290613c09565b60405180910390fd5b856124e581610a47565b612524576040517f08c379a000000000000000000000000000000000000000000000000000000000815260040161251b906136b0565b60405180910390fd5b42600080898152602001908152602001600020600801819055506002600080898152602001908152602001600020600b0160006101000a81548160ff0219169083600481111561257757612576612f63565b5b02179055507fce708d6b67215419755514077f148edc2ee99fe51d758948ee62feea825d7038876040516125ab9190613ba2565b60405180910390a150505050505050565b816125c681610a47565b612605576040517f08c379a00000000000000000000000000000000000000000000000000000000081526004016125fc906136b0565b60405180910390fd5b60018060008473ffffffffffffffffffffffffffffffffffffffff1673ffffffffffffffffffffffffffffffffffffffff168152602001908152602001600020600001600082825461265791906136ff565b925050819055507ff79072e0f370bb188b7c4d34ae8a5c9138b891e5df7cfa7ca412b518d30aaf75828460405161268f929190613764565b60405180910390a1505050565b6000806000838152602001908152602001600020600b0160019054906101000a900460ff169050919050565b6000806000838152602001908152602001600020600501549050919050565b8060008082815260200190815260200160002060010160009054906101000a900473ffffffffffffffffffffffffffffffffffffffff1673ffffffffffffffffffffffffffffffffffffffff163373ffffffffffffffffffffffffffffffffffffffff161461278b576040517f08c379a000000000000000000000000000000000000000000000000000000000815260040161278290613916565b60405180910390fd5b8160008060048111156127a1576127a0612f63565b5b600080848152602001908152602001600020600b0160009054906101000a900460ff1660048111156127d6576127d5612f63565b5b14612816576040517f08c379a000000000000000000000000000000000000000000000000000000000815260040161280d90613982565b60405180910390fd5b600080858152602001908152602001600020600401548047101561286f576040517f08c379a000000000000000000000000000000000000000000000000000000000815260040161286690613c09565b60405180910390fd5b6001600080878152602001908152602001600020600b0160006101000a81548160ff021916908360048111156128a8576128a7612f63565b5b021790555060008086815260200190815260200160002060010160009054906101000a900473ffffffffffffffffffffffffffffffffffffffff1673ffffffffffffffffffffffffffffffffffffffff166108fc600080888152602001908152602001600020600401549081150290604051600060405180830381858888f1935050505015801561293d573d6000803e3d6000fd5b507fbb1d109694da1f57c795e648cd08cfff17024c10216d0c583badbd33ed32494c60008087815260200190815260200160002060010160009054906101000a900473ffffffffffffffffffffffffffffffffffffffff16600080888152602001908152602001600020600401546040516129b9929190613b79565b60405180910390a1600080868152602001908152602001600020600080820160006101000a81549073ffffffffffffffffffffffffffffffffffffffff02191690556001820160006101000a81549073ffffffffffffffffffffffffffffffffffffffff021916905560028201600090556003820160009055600482016000905560058201600090556006820160009055600782016000905560088201600090556009820160009055600a820160009055600b820160006101000a81549060ff0219169055600b820160016101000a81549060ff0219169055600c82016000612aa29190612d04565b600d820160009055600e82016000612aba9190612d04565b50507fe1e1d79b8f28d3379fc32f617eaf54dd6bd4071074c77e91134770e04a81d62685604051612aeb9190613ba2565b60405180910390a17fb1115fb0a2ad10d7fc3823dadb2f14589bef759b57af99b0f44a2f6a5bcee4f485604051612b229190613ba2565b60405180910390a15050505050565b81600080858152602001908152602001600020600e019080519060200190612b5a929190612c7e565b5042600080858152602001908152602001600020600a01819055508060008085815260200190815260200160002060090181905550505050565b604051806102000160405280600073ffffffffffffffffffffffffffffffffffffffff168152602001600073ffffffffffffffffffffffffffffffffffffffff16815260200160008152602001600081526020016000815260200160008152602001600081526020016000815260200160008152602001600081526020016000815260200160006004811115612c2d57612c2c612f63565b5b815260200160006002811115612c4657612c45612f63565b5b81526020016060815260200160008019168152602001606081525090565b604051806040016040528060008152602001600081525090565b828054612c8a906137bc565b90600052602060002090601f016020900481019282612cac5760008555612cf3565b82601f10612cc557805160ff1916838001178555612cf3565b82800160010185558215612cf3579182015b82811115612cf2578251825591602001919060010190612cd7565b5b509050612d009190612d44565b5090565b508054612d10906137bc565b6000825580601f10612d225750612d41565b601f016020900490600052602060002090810190612d409190612d44565b5b50565b5b80821115612d5d576000816000905550600101612d45565b5090565b600082825260208201905092915050565b7f6261642063616c6c000000000000000000000000000000000000000000000000600082015250565b6000612da8600883612d61565b9150612db382612d72565b602082019050919050565b60006020820190508181036000830152612dd781612d9b565b9050919050565b6000604051905090565b600080fd5b600080fd5b6000819050919050565b612e0581612df2565b8114612e1057600080fd5b50565b600081359050612e2281612dfc565b92915050565b600073ffffffffffffffffffffffffffffffffffffffff82169050919050565b6000612e5382612e28565b9050919050565b612e6381612e48565b8114612e6e57600080fd5b50565b600081359050612e8081612e5a565b92915050565b60008060408385031215612e9d57612e9c612de8565b5b6000612eab85828601612e13565b9250506020612ebc85828601612e71565b9150509250929050565b600060208284031215612edc57612edb612de8565b5b6000612eea84828501612e13565b91505092915050565b60008115159050919050565b612f0881612ef3565b82525050565b6000602082019050612f236000830184612eff565b92915050565b6000612f3482612e28565b9050919050565b612f4481612f29565b82525050565b6000819050919050565b612f5d81612f4a565b82525050565b7f4e487b7100000000000000000000000000000000000000000000000000000000600052602160045260246000fd5b60058110612fa357612fa2612f63565b5b50565b6000819050612fb482612f92565b919050565b6000612fc482612fa6565b9050919050565b612fd481612fb9565b82525050565b60038110612feb57612fea612f63565b5b50565b6000819050612ffc82612fda565b919050565b600061300c82612fee565b9050919050565b61301c81613001565b82525050565b600081519050919050565b600082825260208201905092915050565b60005b8381101561305c578082015181840152602081019050613041565b8381111561306b576000848401525b50505050565b6000601f19601f8301169050919050565b600061308d82613022565b613097818561302d565b93506130a781856020860161303e565b6130b081613071565b840191505092915050565b6130c481612df2565b82525050565b6000610200830160008301516130e36000860182612f3b565b5060208301516130f66020860182612f3b565b5060408301516131096040860182612f54565b50606083015161311c6060860182612f54565b50608083015161312f6080860182612f54565b5060a083015161314260a0860182612f54565b5060c083015161315560c0860182612f54565b5060e083015161316860e0860182612f54565b5061010083015161317d610100860182612f54565b50610120830151613192610120860182612f54565b506101408301516131a7610140860182612f54565b506101608301516131bc610160860182612fcb565b506101808301516131d1610180860182613013565b506101a08301518482036101a08601526131eb8282613082565b9150506101c08301516132026101c08601826130bb565b506101e08301518482036101e086015261321c8282613082565b9150508091505092915050565b6000602082019050818103600083015261324381846130ca565b905092915050565b60006020828403121561326157613260612de8565b5b600061326f84828501612e71565b91505092915050565b60408201600082015161328e6000850182612f54565b5060208201516132a16020850182612f54565b50505050565b60006040820190506132bc6000830184613278565b92915050565b600080fd5b600080fd5b7f4e487b7100000000000000000000000000000000000000000000000000000000600052604160045260246000fd5b61330482613071565b810181811067ffffffffffffffff82111715613323576133226132cc565b5b80604052505050565b6000613336612dde565b905061334282826132fb565b919050565b600067ffffffffffffffff821115613362576133616132cc565b5b61336b82613071565b9050602081019050919050565b82818337600083830152505050565b600061339a61339584613347565b61332c565b9050828152602081018484840111156133b6576133b56132c7565b5b6133c1848285613378565b509392505050565b600082601f8301126133de576133dd6132c2565b5b81356133ee848260208601613387565b91505092915050565b6000806040838503121561340e5761340d612de8565b5b600061341c85828601612e13565b925050602083013567ffffffffffffffff81111561343d5761343c612ded565b5b613449858286016133c9565b9150509250929050565b61345c81612f4a565b82525050565b60006020820190506134776000830184613453565b92915050565b61348681612f29565b811461349157600080fd5b50565b6000813590506134a38161347d565b92915050565b6134b281612f4a565b81146134bd57600080fd5b50565b6000813590506134cf816134a9565b92915050565b600080600080600080600060e0888a0312156134f4576134f3612de8565b5b60006135028a828b01612e13565b97505060206135138a828b01613494565b96505060406135248a828b01613494565b95505060606135358a828b016134c0565b94505060806135468a828b016134c0565b93505060a06135578a828b016134c0565b92505060c06135688a828b01612e13565b91505092959891949750929550565b61358081612fb9565b82525050565b600060208201905061359b6000830184613577565b92915050565b6135aa81612e48565b82525050565b60006020820190506135c560008301846135a1565b92915050565b6135d481613001565b82525050565b60006020820190506135ef60008301846135cb565b92915050565b60008060006060848603121561360e5761360d612de8565b5b600061361c86828701612e13565b935050602084013567ffffffffffffffff81111561363d5761363c612ded565b5b613649868287016133c9565b925050604061365a868287016134c0565b9150509250925092565b7f5461736b206d7573742062652072656769737465726564000000000000000000600082015250565b600061369a601783612d61565b91506136a582613664565b602082019050919050565b600060208201905081810360008301526136c98161368d565b9050919050565b7f4e487b7100000000000000000000000000000000000000000000000000000000600052601160045260246000fd5b600061370a82612f4a565b915061371583612f4a565b9250827fffffffffffffffffffffffffffffffffffffffffffffffffffffffffffffffff0382111561374a576137496136d0565b5b828201905092915050565b61375e81612df2565b82525050565b600060408201905061377960008301856135a1565b6137866020830184613755565b9392505050565b7f4e487b7100000000000000000000000000000000000000000000000000000000600052602260045260246000fd5b600060028204905060018216806137d457607f821691505b602082108114156137e8576137e761378d565b5b50919050565b600081905092915050565b60008190508160005260206000209050919050565b6000815461381b816137bc565b61382581866137ee565b94506001821660008114613840576001811461385157613884565b60ff19831686528186019350613884565b61385a856137f9565b60005b8381101561387c5781548189015260018201915060208101905061385d565b838801955050505b50505092915050565b6000613899828461380e565b915081905092915050565b7f4d6574686f642063616e2062652063616c6c6564206f6e6c7920627920636c6960008201527f656e742e00000000000000000000000000000000000000000000000000000000602082015250565b6000613900602483612d61565b915061390b826138a4565b604082019050919050565b6000602082019050818103600083015261392f816138f3565b9050919050565b7f496e76616c6964205461736b53746174652e0000000000000000000000000000600082015250565b600061396c601283612d61565b915061397782613936565b602082019050919050565b6000602082019050818103600083015261399b8161395f565b9050919050565b7f496e76616c6964205061796d656e7453746174652e0000000000000000000000600082015250565b60006139d8601583612d61565b91506139e3826139a2565b602082019050919050565b60006020820190508181036000830152613a07816139cb565b9050919050565b6000613a1982612f4a565b9150613a2483612f4a565b925082821015613a3757613a366136d0565b5b828203905092915050565b7f56616c75652073656e74206973206e6f74207468652065787065637465640000600082015250565b6000613a78601e83612d61565b9150613a8382613a42565b602082019050919050565b60006020820190508181036000830152613aa781613a6b565b9050919050565b7f5061796d656e74206e6f74206e65656465640000000000000000000000000000600082015250565b6000613ae4601283612d61565b9150613aef82613aae565b602082019050919050565b60006020820190508181036000830152613b1381613ad7565b9050919050565b6000819050919050565b6000613b3f613b3a613b3584612e28565b613b1a565b612e28565b9050919050565b6000613b5182613b24565b9050919050565b6000613b6382613b46565b9050919050565b613b7381613b58565b82525050565b6000604082019050613b8e6000830185613b6a565b613b9b6020830184613453565b9392505050565b6000602082019050613bb76000830184613755565b92915050565b7f4e6f7420656e6f7567682062616c616e63650000000000000000000000000000600082015250565b6000613bf3601283612d61565b9150613bfe82613bbd565b602082019050919050565b60006020820190508181036000830152613c2281613be6565b9050919050565b7f54696d6520686173206e6f7420657870697265642e0000000000000000000000600082015250565b6000613c5f601583612d61565b9150613c6a82613c29565b602082019050919050565b60006020820190508181036000830152613c8e81613c52565b9050919050565b7f4d6574686f642063616e2062652063616c6c6564206f6e6c792062792070726f60008201527f76696465722e0000000000000000000000000000000000000000000000000000602082015250565b6000613cf1602683612d61565b9150613cfc82613c95565b604082019050919050565b60006020820190508181036000830152613d2081613ce4565b9050919050565b6000613d3282612f4a565b9150613d3d83612f4a565b9250817fffffffffffffffffffffffffffffffffffffffffffffffffffffffffffffffff0483118215151615613d7657613d756136d0565b5b828202905092915050565b6000604082019050613d966000830185613755565b613da36020830184613453565b939250505056fea2646970667358221220b7343da32848a6a9781cace77b5fcf6f46c896c90ed6f906bc4462f81b8587e264736f6c63430008080033",
  "devdoc": {
    "kind": "dev",
    "methods": {},
    "version": 1
  },
  "userdoc": {
    "kind": "user",
    "methods": {},
    "version": 1
  },
  "storageLayout": {
    "storage": [
      {
        "astId": 58,
        "contract": "contracts/TasksManager.sol:TasksManager",
        "label": "tasks",
        "offset": 0,
        "slot": "0",
        "type": "t_mapping(t_bytes32,t_struct(Task)48_storage)"
      },
      {
        "astId": 63,
        "contract": "contracts/TasksManager.sol:TasksManager",
        "label": "performance",
        "offset": 0,
        "slot": "1",
        "type": "t_mapping(t_address,t_struct(providerRating)53_storage)"
      }
    ],
    "types": {
      "t_address": {
        "encoding": "inplace",
        "label": "address",
        "numberOfBytes": "20"
      },
      "t_address_payable": {
        "encoding": "inplace",
        "label": "address payable",
        "numberOfBytes": "20"
      },
      "t_bytes32": {
        "encoding": "inplace",
        "label": "bytes32",
        "numberOfBytes": "32"
      },
      "t_enum(PaymentState)13": {
        "encoding": "inplace",
        "label": "enum TasksManager.PaymentState",
        "numberOfBytes": "1"
      },
      "t_enum(TaskState)9": {
        "encoding": "inplace",
        "label": "enum TasksManager.TaskState",
        "numberOfBytes": "1"
      },
      "t_mapping(t_address,t_struct(providerRating)53_storage)": {
        "encoding": "mapping",
        "key": "t_address",
        "label": "mapping(address => struct TasksManager.providerRating)",
        "numberOfBytes": "32",
        "value": "t_struct(providerRating)53_storage"
      },
      "t_mapping(t_bytes32,t_struct(Task)48_storage)": {
        "encoding": "mapping",
        "key": "t_bytes32",
        "label": "mapping(bytes32 => struct TasksManager.Task)",
        "numberOfBytes": "32",
        "value": "t_struct(Task)48_storage"
      },
      "t_string_storage": {
        "encoding": "bytes",
        "label": "string",
        "numberOfBytes": "32"
      },
      "t_struct(Task)48_storage": {
        "encoding": "inplace",
        "label": "struct TasksManager.Task",
        "members": [
          {
            "astId": 15,
            "contract": "contracts/TasksManager.sol:TasksManager",
            "label": "provider",
            "offset": 0,
            "slot": "0",
            "type": "t_address_payable"
          },
          {
            "astId": 17,
            "contract": "contracts/TasksManager.sol:TasksManager",
            "label": "client",
            "offset": 0,
            "slot": "1",
            "type": "t_address_payable"
          },
          {
            "astId": 19,
            "contract": "contracts/TasksManager.sol:TasksManager",
            "label": "price",
            "offset": 0,
            "slot": "2",
            "type": "t_uint256"
          },
          {
            "astId": 21,
            "contract": "contracts/TasksManager.sol:TasksManager",
            "label": "providerCollateral",
            "offset": 0,
            "slot": "3",
            "type": "t_uint256"
          },
          {
            "astId": 23,
            "contract": "contracts/TasksManager.sol:TasksManager",
            "label": "clientCollateral",
            "offset": 0,
            "slot": "4",
            "type": "t_uint256"
          },
          {
            "astId": 25,
            "contract": "contracts/TasksManager.sol:TasksManager",
            "label": "payment",
            "offset": 0,
            "slot": "5",
            "type": "t_uint256"
          },
          {
            "astId": 27,
            "contract": "contracts/TasksManager.sol:TasksManager",
            "label": "deadline",
            "offset": 0,
            "slot": "6",
            "type": "t_uint256"
          },
          {
            "astId": 29,
            "contract": "contracts/TasksManager.sol:TasksManager",
            "label": "duration",
            "offset": 0,
            "slot": "7",
            "type": "t_uint256"
          },
          {
            "astId": 31,
            "contract": "contracts/TasksManager.sol:TasksManager",
            "label": "activationTime",
            "offset": 0,
            "slot": "8",
            "type": "t_uint256"
          },
          {
            "astId": 33,
            "contract": "contracts/TasksManager.sol:TasksManager",
            "label": "timeResultProvided",
            "offset": 0,
            "slot": "9",
            "type": "t_uint256"
          },
          {
            "astId": 35,
            "contract": "contracts/TasksManager.sol:TasksManager",
            "label": "timeResultReceived",
            "offset": 0,
            "slot": "10",
            "type": "t_uint256"
          },
          {
            "astId": 38,
            "contract": "contracts/TasksManager.sol:TasksManager",
            "label": "taskState",
            "offset": 0,
            "slot": "11",
            "type": "t_enum(TaskState)9"
          },
          {
            "astId": 41,
            "contract": "contracts/TasksManager.sol:TasksManager",
            "label": "paymentState",
            "offset": 1,
            "slot": "11",
            "type": "t_enum(PaymentState)13"
          },
          {
            "astId": 43,
            "contract": "contracts/TasksManager.sol:TasksManager",
            "label": "code",
            "offset": 0,
            "slot": "12",
            "type": "t_string_storage"
          },
          {
            "astId": 45,
            "contract": "contracts/TasksManager.sol:TasksManager",
            "label": "clientVerification",
            "offset": 0,
            "slot": "13",
            "type": "t_bytes32"
          },
          {
            "astId": 47,
            "contract": "contracts/TasksManager.sol:TasksManager",
            "label": "providerVerification",
            "offset": 0,
            "slot": "14",
            "type": "t_string_storage"
          }
        ],
        "numberOfBytes": "480"
      },
      "t_struct(providerRating)53_storage": {
        "encoding": "inplace",
        "label": "struct TasksManager.providerRating",
        "members": [
          {
            "astId": 50,
            "contract": "contracts/TasksManager.sol:TasksManager",
            "label": "upVotes",
            "offset": 0,
            "slot": "0",
            "type": "t_uint256"
          },
          {
            "astId": 52,
            "contract": "contracts/TasksManager.sol:TasksManager",
            "label": "downVotes",
            "offset": 0,
            "slot": "1",
            "type": "t_uint256"
          }
        ],
        "numberOfBytes": "64"
      },
      "t_uint256": {
        "encoding": "inplace",
        "label": "uint256",
        "numberOfBytes": "32"
      }
    }
  }
}