{
  "address": "0x6A6d05ce262c5BE52591b2cbccf1d45E375Ea449",
  "abi": [
    {
      "inputs": [],
      "stateMutability": "nonpayable",
      "type": "constructor"
    },
    {
      "inputs": [],
      "name": "AuctionsManagerNotSet",
      "type": "error"
    },
    {
      "inputs": [],
      "name": "NotCalledByAuction",
      "type": "error"
    },
    {
      "inputs": [],
      "name": "NotCalledByClient",
      "type": "error"
    },
    {
      "inputs": [],
      "name": "NotCalledByOwner",
      "type": "error"
    },
    {
      "inputs": [],
      "name": "NotCalledByProvider",
      "type": "error"
    },
    {
      "inputs": [
        {
          "internalType": "uint256",
          "name": "correctValue",
          "type": "uint256"
        },
        {
          "internalType": "uint256",
          "name": "receivedValue",
          "type": "uint256"
        }
      ],
      "name": "NotCorrectValue",
      "type": "error"
    },
    {
      "inputs": [
        {
          "internalType": "enum TasksManager.PaymentState",
          "name": "paymentState",
          "type": "uint8"
        }
      ],
      "name": "PaymentNotInState",
      "type": "error"
    },
    {
      "inputs": [],
      "name": "TaskAlreadyExists",
      "type": "error"
    },
    {
      "inputs": [],
      "name": "TaskDoesNotExist",
      "type": "error"
    },
    {
      "inputs": [
        {
          "internalType": "enum TasksManager.TaskState",
          "name": "taskState",
          "type": "uint8"
        }
      ],
      "name": "TaskNotInState",
      "type": "error"
    },
    {
      "anonymous": false,
      "inputs": [
        {
          "indexed": false,
          "internalType": "bytes32",
          "name": "taskID",
          "type": "bytes32"
        },
        {
          "indexed": false,
          "internalType": "address",
          "name": "client",
          "type": "address"
        },
        {
          "indexed": false,
          "internalType": "address",
          "name": "provider",
          "type": "address"
        }
      ],
      "name": "PaymentCompleted",
      "type": "event"
    },
    {
      "anonymous": false,
      "inputs": [
        {
          "indexed": false,
          "internalType": "bytes32",
          "name": "taskID",
          "type": "bytes32"
        },
        {
          "indexed": false,
          "internalType": "address",
          "name": "client",
          "type": "address"
        },
        {
          "indexed": false,
          "internalType": "address",
          "name": "provider",
          "type": "address"
        },
        {
          "indexed": false,
          "internalType": "uint256",
          "name": "payment",
          "type": "uint256"
        }
      ],
      "name": "PaymentPending",
      "type": "event"
    },
    {
      "anonymous": false,
      "inputs": [
        {
          "indexed": false,
          "internalType": "address",
          "name": "provider",
          "type": "address"
        },
        {
          "indexed": false,
          "internalType": "bytes32",
          "name": "taskID",
          "type": "bytes32"
        }
      ],
      "name": "ProviderDownvoted",
      "type": "event"
    },
    {
      "anonymous": false,
      "inputs": [
        {
          "indexed": false,
          "internalType": "address",
          "name": "provider",
          "type": "address"
        },
        {
          "indexed": false,
          "internalType": "bytes32",
          "name": "taskID",
          "type": "bytes32"
        }
      ],
      "name": "ProviderUpvoted",
      "type": "event"
    },
    {
      "anonymous": false,
      "inputs": [
        {
          "indexed": false,
          "internalType": "bytes32",
          "name": "taskID",
          "type": "bytes32"
        },
        {
          "indexed": false,
          "internalType": "address",
          "name": "client",
          "type": "address"
        },
        {
          "indexed": false,
          "internalType": "address",
          "name": "provider",
          "type": "address"
        }
      ],
      "name": "TaskActivated",
      "type": "event"
    },
    {
      "anonymous": false,
      "inputs": [
        {
          "indexed": false,
          "internalType": "bytes32",
          "name": "taskID",
          "type": "bytes32"
        },
        {
          "indexed": false,
          "internalType": "address",
          "name": "client",
          "type": "address"
        },
        {
          "indexed": false,
          "internalType": "address",
          "name": "provider",
          "type": "address"
        }
      ],
      "name": "TaskCancelled",
      "type": "event"
    },
    {
      "anonymous": false,
      "inputs": [
        {
          "indexed": false,
          "internalType": "bytes32",
          "name": "taskID",
          "type": "bytes32"
        },
        {
          "indexed": false,
          "internalType": "address",
          "name": "client",
          "type": "address"
        },
        {
          "indexed": false,
          "internalType": "address",
          "name": "provider",
          "type": "address"
        }
      ],
      "name": "TaskCompletedSuccessfully",
      "type": "event"
    },
    {
      "anonymous": false,
      "inputs": [
        {
          "indexed": false,
          "internalType": "bytes32",
          "name": "taskID",
          "type": "bytes32"
        },
        {
          "indexed": false,
          "internalType": "address",
          "name": "client",
          "type": "address"
        },
        {
          "indexed": false,
          "internalType": "address",
          "name": "provider",
          "type": "address"
        }
      ],
      "name": "TaskCompletedUnsuccessfully",
      "type": "event"
    },
    {
      "anonymous": false,
      "inputs": [
        {
          "indexed": false,
          "internalType": "bytes32",
          "name": "taskID",
          "type": "bytes32"
        },
        {
          "indexed": false,
          "internalType": "address",
          "name": "client",
          "type": "address"
        },
        {
          "indexed": false,
          "internalType": "address",
          "name": "provider",
          "type": "address"
        }
      ],
      "name": "TaskCreated",
      "type": "event"
    },
    {
      "anonymous": false,
      "inputs": [
        {
          "indexed": false,
          "internalType": "bytes32",
          "name": "taskID",
          "type": "bytes32"
        }
      ],
      "name": "TaskDeleted",
      "type": "event"
    },
    {
      "anonymous": false,
      "inputs": [
        {
          "indexed": false,
          "internalType": "bytes32",
          "name": "taskID",
          "type": "bytes32"
        },
        {
          "indexed": false,
          "internalType": "address",
          "name": "client",
          "type": "address"
        },
        {
          "indexed": false,
          "internalType": "address",
          "name": "provider",
          "type": "address"
        }
      ],
      "name": "TaskInvalidated",
      "type": "event"
    },
    {
      "anonymous": false,
      "inputs": [
        {
          "indexed": false,
          "internalType": "bytes32",
          "name": "taskID",
          "type": "bytes32"
        },
        {
          "indexed": false,
          "internalType": "address",
          "name": "client",
          "type": "address"
        },
        {
          "indexed": false,
          "internalType": "address",
          "name": "provider",
          "type": "address"
        }
      ],
      "name": "TaskReceivedResultsSuccessfully",
      "type": "event"
    },
    {
      "anonymous": false,
      "inputs": [
        {
          "indexed": false,
          "internalType": "bytes32",
          "name": "taskID",
          "type": "bytes32"
        },
        {
          "indexed": false,
          "internalType": "address",
          "name": "client",
          "type": "address"
        },
        {
          "indexed": false,
          "internalType": "address",
          "name": "provider",
          "type": "address"
        }
      ],
      "name": "TaskReceivedResultsUnsuccessfully",
      "type": "event"
    },
    {
      "anonymous": false,
      "inputs": [
        {
          "indexed": false,
          "internalType": "address",
          "name": "client",
          "type": "address"
        },
        {
          "indexed": false,
          "internalType": "uint256",
          "name": "amount",
          "type": "uint256"
        }
      ],
      "name": "TransferMadeToClient",
      "type": "event"
    },
    {
      "anonymous": false,
      "inputs": [
        {
          "indexed": false,
          "internalType": "address",
          "name": "provider",
          "type": "address"
        },
        {
          "indexed": false,
          "internalType": "uint256",
          "name": "amount",
          "type": "uint256"
        }
      ],
      "name": "TransferMadeToProvider",
      "type": "event"
    },
    {
      "stateMutability": "payable",
      "type": "fallback"
    },
    {
      "inputs": [
        {
          "internalType": "bytes32",
          "name": "_taskID",
          "type": "bytes32"
        }
      ],
      "name": "activateTask",
      "outputs": [],
      "stateMutability": "payable",
      "type": "function"
    },
    {
      "inputs": [
        {
          "internalType": "bytes32",
          "name": "_taskID",
          "type": "bytes32"
        }
      ],
      "name": "cancelTask",
      "outputs": [],
      "stateMutability": "nonpayable",
      "type": "function"
    },
    {
      "inputs": [
        {
          "internalType": "bytes32",
          "name": "_taskID",
          "type": "bytes32"
        }
      ],
      "name": "completePayment",
      "outputs": [],
      "stateMutability": "payable",
      "type": "function"
    },
    {
      "inputs": [
        {
          "internalType": "bytes32",
          "name": "_taskID",
          "type": "bytes32"
        },
        {
          "internalType": "string",
          "name": "ver",
          "type": "string"
        },
        {
          "internalType": "uint256",
          "name": "_duration",
          "type": "uint256"
        },
        {
          "internalType": "uint256",
          "name": "_timeReceivedProvider",
          "type": "uint256"
        }
      ],
      "name": "completeTask",
      "outputs": [],
      "stateMutability": "nonpayable",
      "type": "function"
    },
    {
      "inputs": [
        {
          "internalType": "bytes32",
          "name": "_taskID",
          "type": "bytes32"
        },
        {
          "internalType": "address",
          "name": "_client",
          "type": "address"
        },
        {
          "internalType": "address",
          "name": "_provider",
          "type": "address"
        },
        {
          "internalType": "uint256",
          "name": "_price",
          "type": "uint256"
        },
        {
          "internalType": "uint256",
          "name": "_deadline",
          "type": "uint256"
        },
        {
          "internalType": "bytes32",
          "name": "_clientVerification",
          "type": "bytes32"
        },
        {
          "internalType": "string",
          "name": "_code",
          "type": "string"
        }
      ],
      "name": "createTask",
      "outputs": [],
      "stateMutability": "payable",
      "type": "function"
    },
    {
      "inputs": [
        {
          "internalType": "bytes32",
          "name": "_taskID",
          "type": "bytes32"
        }
      ],
      "name": "deleteTask",
      "outputs": [],
      "stateMutability": "nonpayable",
      "type": "function"
    },
    {
      "inputs": [],
      "name": "getAuctionAddress",
      "outputs": [
        {
          "internalType": "address",
          "name": "",
          "type": "address"
        }
      ],
      "stateMutability": "view",
      "type": "function"
    },
    {
      "inputs": [],
      "name": "getBank",
      "outputs": [
        {
          "internalType": "uint256",
          "name": "",
          "type": "uint256"
        }
      ],
      "stateMutability": "view",
      "type": "function"
    },
    {
      "inputs": [
        {
          "internalType": "bytes32",
          "name": "_taskID",
          "type": "bytes32"
        }
      ],
      "name": "getClientCollateral",
      "outputs": [
        {
          "internalType": "uint256",
          "name": "",
          "type": "uint256"
        }
      ],
      "stateMutability": "view",
      "type": "function"
    },
    {
      "inputs": [
        {
          "internalType": "bytes32",
          "name": "_taskID",
          "type": "bytes32"
        }
      ],
      "name": "getCode",
      "outputs": [
        {
          "internalType": "string",
          "name": "",
          "type": "string"
        }
      ],
      "stateMutability": "view",
      "type": "function"
    },
    {
      "inputs": [],
      "name": "getOwner",
      "outputs": [
        {
          "internalType": "address",
          "name": "",
          "type": "address"
        }
      ],
      "stateMutability": "view",
      "type": "function"
    },
    {
      "inputs": [
        {
          "internalType": "address",
          "name": "provider",
          "type": "address"
        }
      ],
      "name": "getPerformance",
      "outputs": [
        {
          "components": [
            {
              "internalType": "uint256",
              "name": "upVotes",
              "type": "uint256"
            },
            {
              "internalType": "uint256",
              "name": "downVotes",
              "type": "uint256"
            }
          ],
          "internalType": "struct TasksManager.providerRating",
          "name": "",
          "type": "tuple"
        }
      ],
      "stateMutability": "view",
      "type": "function"
    },
    {
      "inputs": [
        {
          "internalType": "bytes32",
          "name": "_taskID",
          "type": "bytes32"
        }
      ],
      "name": "getProviderCollateral",
      "outputs": [
        {
          "internalType": "uint256",
          "name": "",
          "type": "uint256"
        }
      ],
      "stateMutability": "view",
      "type": "function"
    },
    {
      "inputs": [
        {
          "internalType": "bytes32",
          "name": "_taskID",
          "type": "bytes32"
        }
      ],
      "name": "getResults",
      "outputs": [
        {
          "internalType": "string",
          "name": "",
          "type": "string"
        }
      ],
      "stateMutability": "view",
      "type": "function"
    },
    {
      "inputs": [],
      "name": "getTasks",
      "outputs": [
        {
          "components": [
            {
              "internalType": "bytes32",
              "name": "taskID",
              "type": "bytes32"
            },
            {
              "internalType": "address payable",
              "name": "client",
              "type": "address"
            },
            {
              "internalType": "address payable",
              "name": "provider",
              "type": "address"
            },
            {
              "internalType": "uint256",
              "name": "deadline",
              "type": "uint256"
            },
            {
              "internalType": "uint256",
              "name": "price",
              "type": "uint256"
            },
            {
              "internalType": "uint256",
              "name": "duration",
              "type": "uint256"
            },
            {
              "internalType": "uint256",
              "name": "activationTime",
              "type": "uint256"
            },
            {
              "internalType": "uint256",
              "name": "completionTime",
              "type": "uint256"
            },
            {
              "internalType": "string",
              "name": "code",
              "type": "string"
            },
            {
              "internalType": "string",
              "name": "results",
              "type": "string"
            },
            {
              "internalType": "bytes32",
              "name": "clientVerification",
              "type": "bytes32"
            },
            {
              "internalType": "enum TasksManager.TaskState",
              "name": "taskState",
              "type": "uint8"
            },
            {
              "internalType": "enum TasksManager.PaymentState",
              "name": "paymentState",
              "type": "uint8"
            }
          ],
          "internalType": "struct TasksManager.Task[]",
          "name": "",
          "type": "tuple[]"
        }
      ],
      "stateMutability": "view",
      "type": "function"
    },
    {
      "inputs": [],
      "name": "getTasksByClient",
      "outputs": [
        {
          "components": [
            {
              "internalType": "bytes32",
              "name": "taskID",
              "type": "bytes32"
            },
            {
              "internalType": "address payable",
              "name": "client",
              "type": "address"
            },
            {
              "internalType": "address payable",
              "name": "provider",
              "type": "address"
            },
            {
              "internalType": "uint256",
              "name": "deadline",
              "type": "uint256"
            },
            {
              "internalType": "uint256",
              "name": "price",
              "type": "uint256"
            },
            {
              "internalType": "uint256",
              "name": "duration",
              "type": "uint256"
            },
            {
              "internalType": "uint256",
              "name": "activationTime",
              "type": "uint256"
            },
            {
              "internalType": "uint256",
              "name": "completionTime",
              "type": "uint256"
            },
            {
              "internalType": "string",
              "name": "code",
              "type": "string"
            },
            {
              "internalType": "string",
              "name": "results",
              "type": "string"
            },
            {
              "internalType": "bytes32",
              "name": "clientVerification",
              "type": "bytes32"
            },
            {
              "internalType": "enum TasksManager.TaskState",
              "name": "taskState",
              "type": "uint8"
            },
            {
              "internalType": "enum TasksManager.PaymentState",
              "name": "paymentState",
              "type": "uint8"
            }
          ],
          "internalType": "struct TasksManager.Task[]",
          "name": "",
          "type": "tuple[]"
        }
      ],
      "stateMutability": "view",
      "type": "function"
    },
    {
      "inputs": [],
      "name": "getTasksByProvider",
      "outputs": [
        {
          "components": [
            {
              "internalType": "bytes32",
              "name": "taskID",
              "type": "bytes32"
            },
            {
              "internalType": "address payable",
              "name": "client",
              "type": "address"
            },
            {
              "internalType": "address payable",
              "name": "provider",
              "type": "address"
            },
            {
              "internalType": "uint256",
              "name": "deadline",
              "type": "uint256"
            },
            {
              "internalType": "uint256",
              "name": "price",
              "type": "uint256"
            },
            {
              "internalType": "uint256",
              "name": "duration",
              "type": "uint256"
            },
            {
              "internalType": "uint256",
              "name": "activationTime",
              "type": "uint256"
            },
            {
              "internalType": "uint256",
              "name": "completionTime",
              "type": "uint256"
            },
            {
              "internalType": "string",
              "name": "code",
              "type": "string"
            },
            {
              "internalType": "string",
              "name": "results",
              "type": "string"
            },
            {
              "internalType": "bytes32",
              "name": "clientVerification",
              "type": "bytes32"
            },
            {
              "internalType": "enum TasksManager.TaskState",
              "name": "taskState",
              "type": "uint8"
            },
            {
              "internalType": "enum TasksManager.PaymentState",
              "name": "paymentState",
              "type": "uint8"
            }
          ],
          "internalType": "struct TasksManager.Task[]",
          "name": "",
          "type": "tuple[]"
        }
      ],
      "stateMutability": "view",
      "type": "function"
    },
    {
      "inputs": [
        {
          "internalType": "bytes32",
          "name": "_taskID",
          "type": "bytes32"
        }
      ],
      "name": "invalidateTask",
      "outputs": [],
      "stateMutability": "nonpayable",
      "type": "function"
    },
    {
      "inputs": [
        {
          "internalType": "bytes32",
          "name": "_taskID",
          "type": "bytes32"
        },
        {
          "internalType": "string",
          "name": "_results",
          "type": "string"
        }
      ],
      "name": "sendResults",
      "outputs": [],
      "stateMutability": "nonpayable",
      "type": "function"
    },
    {
      "inputs": [
        {
          "internalType": "address",
          "name": "_auctionAddress",
          "type": "address"
        }
      ],
      "name": "setAuctionsManager",
      "outputs": [],
      "stateMutability": "nonpayable",
      "type": "function"
    },
    {
      "inputs": [
        {
          "internalType": "uint256",
          "name": "amount",
          "type": "uint256"
        }
      ],
      "name": "withdraw",
      "outputs": [],
      "stateMutability": "nonpayable",
      "type": "function"
    },
    {
      "stateMutability": "payable",
      "type": "receive"
    }
  ],
  "transactionHash": "0x6585b5e5af3272a10a43ef6e64a9da5542c55caf7c4e9634ef4f31d258bd6a96",
  "args": [],
  "numDeployments": 10,
  "solcInputHash": "e242286f9a4c76efb0258ede3eaa2e89",
  "bytecode": "0x60a0604052600060015534801561001557600080fd5b503373ffffffffffffffffffffffffffffffffffffffff1660808173ffffffffffffffffffffffffffffffffffffffff1660601b8152505060805160601c615ba66200009d6000396000818161051d01528181610b2401528181610bf40152818161339a015281816135d0015281816135f801528181613d930152613e5b0152615ba66000f3fe60806040526004361061012e5760003560e01c806360d704db116100ab57806392b833201161006f57806392b833201461041a5780639800725514610436578063e64f15a21461045f578063e8fe6b6614610488578063ec3b24f2146104c5578063ee8ca3b5146104f05761016e565b806360d704db14610340578063668b1baa1461036b578063893d20e8146103a85780638b9ca885146103d35780638fb15168146103fe5761016e565b806346475c4c116100f257806346475c4c1461026c57806347ca8a8b146102a95780634b017c7a146102c5578063513a6698146102ee57806354706b5a146103175761016e565b806304a87e38146101735780630b817e241461019e5780631ecc9aaf146101db5780632e1a7d4d146102185780632f3c0162146102415761016e565b3661016e576040517f08c379a000000000000000000000000000000000000000000000000000000000815260040161016590614da0565b60405180910390fd5b600080fd5b34801561017f57600080fd5b50610188610519565b604051610195919061516d565b60405180910390f35b3480156101aa57600080fd5b506101c560048036038101906101c091906151cf565b61090f565b6040516101d2919061520b565b60405180910390f35b3480156101e757600080fd5b5061020260048036038101906101fd9190615264565b610ab5565b60405161020f91906152c0565b60405180910390f35b34801561022457600080fd5b5061023f600480360381019061023a9190615307565b610b22565b005b34801561024d57600080fd5b50610256610c75565b604051610263919061516d565b60405180910390f35b34801561027857600080fd5b50610293600480360381019061028e91906151cf565b611130565b6040516102a0919061536d565b60405180910390f35b6102c360048036038101906102be91906151cf565b6113df565b005b3480156102d157600080fd5b506102ec60048036038101906102e791906154c4565b61192a565b005b3480156102fa57600080fd5b5061031560048036038101906103109190615520565b6128b5565b005b34801561032357600080fd5b5061033e600480360381019061033991906151cf565b612f7b565b005b34801561034c57600080fd5b50610355613396565b604051610362919061520b565b60405180910390f35b34801561037757600080fd5b50610392600480360381019061038d91906151cf565b613425565b60405161039f919061520b565b60405180910390f35b3480156103b457600080fd5b506103bd6135cc565b6040516103ca91906155b2565b60405180910390f35b3480156103df57600080fd5b506103e86135f4565b6040516103f591906155b2565b60405180910390f35b610418600480360381019061041391906155cd565b6136a1565b005b610434600480360381019061042f91906151cf565b613a89565b005b34801561044257600080fd5b5061045d60048036038101906104589190615264565b613d91565b005b34801561046b57600080fd5b50610486600480360381019061048191906151cf565b613e59565b005b34801561049457600080fd5b506104af60048036038101906104aa91906151cf565b614118565b6040516104bc919061536d565b60405180910390f35b3480156104d157600080fd5b506104da61433b565b6040516104e7919061516d565b60405180910390f35b3480156104fc57600080fd5b50610517600480360381019061051291906151cf565b6147f6565b005b60607f000000000000000000000000000000000000000000000000000000000000000073ffffffffffffffffffffffffffffffffffffffff163373ffffffffffffffffffffffffffffffffffffffff16146105a0576040517f82593d3000000000000000000000000000000000000000000000000000000000815260040160405180910390fd5b600060038054905067ffffffffffffffff8111156105c1576105c0615399565b5b6040519080825280602002602001820160405280156105fa57816020015b6105e7614b88565b8152602001906001900390816105df5790505b50905060005b6003805490508110156109075760026000600383815481106106255761062461568b565b5b90600052602060002001548152602001908152602001600020604051806101a0016040529081600082015481526020016001820160009054906101000a900473ffffffffffffffffffffffffffffffffffffffff1673ffffffffffffffffffffffffffffffffffffffff1673ffffffffffffffffffffffffffffffffffffffff1681526020016002820160009054906101000a900473ffffffffffffffffffffffffffffffffffffffff1673ffffffffffffffffffffffffffffffffffffffff1673ffffffffffffffffffffffffffffffffffffffff1681526020016003820154815260200160048201548152602001600582015481526020016006820154815260200160078201548152602001600882018054610742906156e9565b80601f016020809104026020016040519081016040528092919081815260200182805461076e906156e9565b80156107bb5780601f10610790576101008083540402835291602001916107bb565b820191906000526020600020905b81548152906001019060200180831161079e57829003601f168201915b505050505081526020016009820180546107d4906156e9565b80601f0160208091040260200160405190810160405280929190818152602001828054610800906156e9565b801561084d5780601f106108225761010080835404028352916020019161084d565b820191906000526020600020905b81548152906001019060200180831161083057829003601f168201915b50505050508152602001600a8201548152602001600b820160009054906101000a900460ff16600781111561088557610884614ef8565b5b600781111561089757610896614ef8565b5b8152602001600b820160019054906101000a900460ff1660028111156108c0576108bf614ef8565b5b60028111156108d2576108d1614ef8565b5b815250508282815181106108e9576108e861568b565b5b602002602001018190525080806108ff9061574a565b915050610600565b508091505090565b60008060001b60026000848152602001908152602001600020600001541415610964576040517fda319dff00000000000000000000000000000000000000000000000000000000815260040160405180910390fd5b6002600083815260200190815260200160002060010160009054906101000a900473ffffffffffffffffffffffffffffffffffffffff1673ffffffffffffffffffffffffffffffffffffffff163373ffffffffffffffffffffffffffffffffffffffff16146109ff576040517f1117923b00000000000000000000000000000000000000000000000000000000815260040160405180910390fd5b60006007811115610a1357610a12614ef8565b5b60026000848152602001908152602001600020600b0160009054906101000a900460ff166007811115610a4957610a48614ef8565b5b14610a8c5760006040517f0bb377be000000000000000000000000000000000000000000000000000000008152600401610a8391906157a2565b60405180910390fd5b600280600084815260200190815260200160002060040154610aae91906157bd565b9050919050565b610abd614c46565b600460008373ffffffffffffffffffffffffffffffffffffffff1673ffffffffffffffffffffffffffffffffffffffff168152602001908152602001600020604051806040016040529081600082015481526020016001820154815250509050919050565b7f000000000000000000000000000000000000000000000000000000000000000073ffffffffffffffffffffffffffffffffffffffff163373ffffffffffffffffffffffffffffffffffffffff1614610ba7576040517f82593d3000000000000000000000000000000000000000000000000000000000815260040160405180910390fd5b600154811115610bf257600154816040517f558b78b8000000000000000000000000000000000000000000000000000000008152600401610be9929190615817565b60405180910390fd5b7f000000000000000000000000000000000000000000000000000000000000000073ffffffffffffffffffffffffffffffffffffffff166108fc829081150290604051600060405180830381858888f19350505050158015610c58573d6000803e3d6000fd5b508060016000828254610c6b9190615840565b9250508190555050565b6060600060038054905067ffffffffffffffff811115610c9857610c97615399565b5b604051908082528060200260200182016040528015610cd157816020015b610cbe614b88565b815260200190600190039081610cb65790505b5090506000805b600380549050811015611076573373ffffffffffffffffffffffffffffffffffffffff166002600060038481548110610d1457610d1361568b565b5b9060005260206000200154815260200190815260200160002060020160009054906101000a900473ffffffffffffffffffffffffffffffffffffffff1673ffffffffffffffffffffffffffffffffffffffff161415611063576002600060038381548110610d8557610d8461568b565b5b90600052602060002001548152602001908152602001600020604051806101a0016040529081600082015481526020016001820160009054906101000a900473ffffffffffffffffffffffffffffffffffffffff1673ffffffffffffffffffffffffffffffffffffffff1673ffffffffffffffffffffffffffffffffffffffff1681526020016002820160009054906101000a900473ffffffffffffffffffffffffffffffffffffffff1673ffffffffffffffffffffffffffffffffffffffff1673ffffffffffffffffffffffffffffffffffffffff1681526020016003820154815260200160048201548152602001600582015481526020016006820154815260200160078201548152602001600882018054610ea2906156e9565b80601f0160208091040260200160405190810160405280929190818152602001828054610ece906156e9565b8015610f1b5780601f10610ef057610100808354040283529160200191610f1b565b820191906000526020600020905b815481529060010190602001808311610efe57829003601f168201915b50505050508152602001600982018054610f34906156e9565b80601f0160208091040260200160405190810160405280929190818152602001828054610f60906156e9565b8015610fad5780601f10610f8257610100808354040283529160200191610fad565b820191906000526020600020905b815481529060010190602001808311610f9057829003601f168201915b50505050508152602001600a8201548152602001600b820160009054906101000a900460ff166007811115610fe557610fe4614ef8565b5b6007811115610ff757610ff6614ef8565b5b8152602001600b820160019054906101000a900460ff1660028111156110205761101f614ef8565b5b600281111561103257611031614ef8565b5b815250508383815181106110495761104861568b565b5b6020026020010181905250818061105f9061574a565b9250505b808061106e9061574a565b915050610cd8565b5060008167ffffffffffffffff81111561109357611092615399565b5b6040519080825280602002602001820160405280156110cc57816020015b6110b9614b88565b8152602001906001900390816110b15790505b50905060005b82811015611126578381815181106110ed576110ec61568b565b5b60200260200101518282815181106111085761110761568b565b5b6020026020010181905250808061111e9061574a565b9150506110d2565b5080935050505090565b60606000801b60026000848152602001908152602001600020600001541415611185576040517fda319dff00000000000000000000000000000000000000000000000000000000815260040160405180910390fd5b6002600083815260200190815260200160002060010160009054906101000a900473ffffffffffffffffffffffffffffffffffffffff1673ffffffffffffffffffffffffffffffffffffffff163373ffffffffffffffffffffffffffffffffffffffff1614611220576040517f1117923b00000000000000000000000000000000000000000000000000000000815260040160405180910390fd5b6006600781111561123457611233614ef8565b5b60026000848152602001908152602001600020600b0160009054906101000a900460ff16600781111561126a57611269614ef8565b5b146112ad5760066040517f0bb377be0000000000000000000000000000000000000000000000000000000081526004016112a491906157a2565b60405180910390fd5b6002808111156112c0576112bf614ef8565b5b60026000848152602001908152602001600020600b0160019054906101000a900460ff1660028111156112f6576112f5614ef8565b5b146113395760026040517f13e912fb0000000000000000000000000000000000000000000000000000000081526004016113309190615883565b60405180910390fd5b60026000838152602001908152602001600020600901805461135a906156e9565b80601f0160208091040260200160405190810160405280929190818152602001828054611386906156e9565b80156113d35780601f106113a8576101008083540402835291602001916113d3565b820191906000526020600020905b8154815290600101906020018083116113b657829003601f168201915b50505050509050919050565b6000801b60026000838152602001908152602001600020600001541415611432576040517fda319dff00000000000000000000000000000000000000000000000000000000815260040160405180910390fd5b6002600082815260200190815260200160002060010160009054906101000a900473ffffffffffffffffffffffffffffffffffffffff1673ffffffffffffffffffffffffffffffffffffffff163373ffffffffffffffffffffffffffffffffffffffff16146114cd576040517f1117923b00000000000000000000000000000000000000000000000000000000815260040160405180910390fd5b6002806000838152602001908152602001600020600401546114ef91906157bd565b6002600083815260200190815260200160002060050154600260008481526020019081526020016000206004015461152791906157bd565b6115319190615840565b34146115d95760028060008381526020019081526020016000206004015461155991906157bd565b6002600083815260200190815260200160002060050154600260008481526020019081526020016000206004015461159191906157bd565b61159b9190615840565b346040517f558b78b80000000000000000000000000000000000000000000000000000000081526004016115d0929190615817565b60405180910390fd5b600660078111156115ed576115ec614ef8565b5b60026000838152602001908152602001600020600b0160009054906101000a900460ff16600781111561162357611622614ef8565b5b146116665760066040517f0bb377be00000000000000000000000000000000000000000000000000000000815260040161165d91906157a2565b60405180910390fd5b6001600281111561167a57611679614ef8565b5b60026000838152602001908152602001600020600b0160019054906101000a900460ff1660028111156116b0576116af614ef8565b5b146116f35760016040517f13e912fb0000000000000000000000000000000000000000000000000000000081526004016116ea9190615883565b60405180910390fd5b6002600082815260200190815260200160002060020160009054906101000a900473ffffffffffffffffffffffffffffffffffffffff1673ffffffffffffffffffffffffffffffffffffffff166108fc349081150290604051600060405180830381858888f1935050505015801561176f573d6000803e3d6000fd5b507f4195fd9cd5f571cf9d14b2376c60201465a986f4a0469cebf0f0ee1d3e2022ab6002600083815260200190815260200160002060020160009054906101000a900473ffffffffffffffffffffffffffffffffffffffff166002806000858152602001908152602001600020600401546117ea91906157bd565b6002600085815260200190815260200160002060050154600260008681526020019081526020016000206004015461182291906157bd565b61182c9190615840565b60405161183a9291906158fd565b60405180910390a16002806000838152602001908152602001600020600b0160016101000a81548160ff0219169083600281111561187b5761187a614ef8565b5b02179055507f890aa03cb2eb1db116152827f7a61a8f43080718ac119d21644158c5df9131c9816002600084815260200190815260200160002060010160009054906101000a900473ffffffffffffffffffffffffffffffffffffffff166002600085815260200190815260200160002060020160009054906101000a900473ffffffffffffffffffffffffffffffffffffffff1660405161191f93929190615935565b60405180910390a150565b6000801b6002600084815260200190815260200160002060000154141561197d576040517fda319dff00000000000000000000000000000000000000000000000000000000815260040160405180910390fd5b6002600083815260200190815260200160002060020160009054906101000a900473ffffffffffffffffffffffffffffffffffffffff1673ffffffffffffffffffffffffffffffffffffffff163373ffffffffffffffffffffffffffffffffffffffff1614611a18576040517fa898452000000000000000000000000000000000000000000000000000000000815260040160405180910390fd5b60036007811115611a2c57611a2b614ef8565b5b60026000848152602001908152602001600020600b0160009054906101000a900460ff166007811115611a6257611a61614ef8565b5b14611aa55760036040517f0bb377be000000000000000000000000000000000000000000000000000000008152600401611a9c91906157a2565b60405180910390fd5b60006002811115611ab957611ab8614ef8565b5b60026000848152602001908152602001600020600b0160019054906101000a900460ff166002811115611aef57611aee614ef8565b5b14611b325760006040517f13e912fb000000000000000000000000000000000000000000000000000000008152600401611b299190615883565b60405180910390fd5b600042905081600260008581526020019081526020016000206009019080519060200190611b61929190614c60565b5060026000848152602001908152602001600020600701548110158015611bab57506102586002600085815260200190815260200160002060070154611ba7919061596c565b8111155b8015611bee575060026000848152602001908152602001600020600501546002600085815260200190815260200160002060060154611bea919061596c565b8110155b8015611c47575060026000848152602001908152602001600020600501546002600085815260200190815260200160002060060154611c2d919061596c565b600260008581526020019081526020016000206007015410155b1561256157600280600085815260200190815260200160002060040154611c6e91906157bd565b60026000858152602001908152602001600020600501546002600086815260200190815260200160002060040154611ca691906157bd565b116120fb576002600084815260200190815260200160002060020160009054906101000a900473ffffffffffffffffffffffffffffffffffffffff1673ffffffffffffffffffffffffffffffffffffffff166108fc600a6002600087815260200190815260200160002060040154611d1e91906157bd565b60026000878152602001908152602001600020600501546002600088815260200190815260200160002060040154611d5691906157bd565b611d60919061596c565b9081150290604051600060405180830381858888f19350505050158015611d8b573d6000803e3d6000fd5b507f4195fd9cd5f571cf9d14b2376c60201465a986f4a0469cebf0f0ee1d3e2022ab6002600085815260200190815260200160002060020160009054906101000a900473ffffffffffffffffffffffffffffffffffffffff16600a6002600087815260200190815260200160002060040154611e0791906157bd565b60026000878152602001908152602001600020600501546002600088815260200190815260200160002060040154611e3f91906157bd565b611e49919061596c565b604051611e579291906158fd565b60405180910390a16002600084815260200190815260200160002060010160009054906101000a900473ffffffffffffffffffffffffffffffffffffffff1673ffffffffffffffffffffffffffffffffffffffff166108fc600280600087815260200190815260200160002060040154611ed191906157bd565b60026000878152602001908152602001600020600501546002600088815260200190815260200160002060040154611f0991906157bd565b611f139190615840565b9081150290604051600060405180830381858888f19350505050158015611f3e573d6000803e3d6000fd5b507fb56ab0c8ca3c4a2f3256c9dab1834145295ed481d85fd1afde56ff8c7298c3ec6002600085815260200190815260200160002060010160009054906101000a900473ffffffffffffffffffffffffffffffffffffffff16600280600087815260200190815260200160002060040154611fb991906157bd565b60026000878152602001908152602001600020600501546002600088815260200190815260200160002060040154611ff191906157bd565b611ffb9190615840565b6040516120099291906158fd565b60405180910390a16002806000858152602001908152602001600020600b0160016101000a81548160ff0219169083600281111561204a57612049614ef8565b5b02179055507f890aa03cb2eb1db116152827f7a61a8f43080718ac119d21644158c5df9131c9836002600086815260200190815260200160002060010160009054906101000a900473ffffffffffffffffffffffffffffffffffffffff166002600087815260200190815260200160002060020160009054906101000a900473ffffffffffffffffffffffffffffffffffffffff166040516120ee93929190615935565b60405180910390a1612377565b6002600084815260200190815260200160002060020160009054906101000a900473ffffffffffffffffffffffffffffffffffffffff1673ffffffffffffffffffffffffffffffffffffffff166108fc600c600260008781526020019081526020016000206004015461216e91906157bd565b9081150290604051600060405180830381858888f19350505050158015612199573d6000803e3d6000fd5b507f4195fd9cd5f571cf9d14b2376c60201465a986f4a0469cebf0f0ee1d3e2022ab6002600085815260200190815260200160002060020160009054906101000a900473ffffffffffffffffffffffffffffffffffffffff16600c600260008781526020019081526020016000206004015461221591906157bd565b6040516122239291906158fd565b60405180910390a1600160026000858152602001908152602001600020600b0160016101000a81548160ff0219169083600281111561226557612264614ef8565b5b02179055507f03f879f7b5806dc8623346c41377a3e4e845b47c9202327f8a3004c57b8eb2d4836002600086815260200190815260200160002060010160009054906101000a900473ffffffffffffffffffffffffffffffffffffffff166002600087815260200190815260200160002060020160009054906101000a900473ffffffffffffffffffffffffffffffffffffffff1660028060008981526020019081526020016000206004015461231c91906157bd565b6002600089815260200190815260200160002060050154600260008a81526020019081526020016000206004015461235491906157bd565b61235e9190615840565b60405161236e94939291906159c2565b60405180910390a15b600660026000858152602001908152602001600020600b0160006101000a81548160ff021916908360078111156123b1576123b0614ef8565b5b02179055507f067fe9f66c1397ff30d1dc2be07bda764b672304c70f4cab229b243c42ce31f8836002600086815260200190815260200160002060010160009054906101000a900473ffffffffffffffffffffffffffffffffffffffff166002600087815260200190815260200160002060020160009054906101000a900473ffffffffffffffffffffffffffffffffffffffff1660405161245593929190615935565b60405180910390a16001600460006002600087815260200190815260200160002060020160009054906101000a900473ffffffffffffffffffffffffffffffffffffffff1673ffffffffffffffffffffffffffffffffffffffff1673ffffffffffffffffffffffffffffffffffffffff16815260200190815260200160002060000160008282546124e6919061596c565b925050819055507ff79072e0f370bb188b7c4d34ae8a5c9138b891e5df7cfa7ca412b518d30aaf756002600085815260200190815260200160002060020160009054906101000a900473ffffffffffffffffffffffffffffffffffffffff1684604051612554929190615a07565b60405180910390a16128b0565b6002600084815260200190815260200160002060010160009054906101000a900473ffffffffffffffffffffffffffffffffffffffff1673ffffffffffffffffffffffffffffffffffffffff166108fc6002806000878152602001908152602001600020600401546125d391906157bd565b9081150290604051600060405180830381858888f193505050501580156125fe573d6000803e3d6000fd5b507fb56ab0c8ca3c4a2f3256c9dab1834145295ed481d85fd1afde56ff8c7298c3ec6002600085815260200190815260200160002060010160009054906101000a900473ffffffffffffffffffffffffffffffffffffffff1660028060008781526020019081526020016000206004015461267991906157bd565b6040516126879291906158fd565b60405180910390a1600a60026000858152602001908152602001600020600401546126b291906157bd565b600160008282546126c3919061596c565b92505081905550600760026000858152602001908152602001600020600b0160006101000a81548160ff0219169083600781111561270457612703614ef8565b5b02179055507fd821ebe41923c5c79bc29eb00ebc187d810aa678babab9794f5dfd465f2f16f0836002600086815260200190815260200160002060010160009054906101000a900473ffffffffffffffffffffffffffffffffffffffff166002600087815260200190815260200160002060020160009054906101000a900473ffffffffffffffffffffffffffffffffffffffff166040516127a893929190615935565b60405180910390a16001600460006002600087815260200190815260200160002060020160009054906101000a900473ffffffffffffffffffffffffffffffffffffffff1673ffffffffffffffffffffffffffffffffffffffff1673ffffffffffffffffffffffffffffffffffffffff1681526020019081526020016000206001016000828254612839919061596c565b925050819055507f3fec1177d25f324e1beb970cd60f8b52ef1e47290a72bdb8f62101720f5e49276002600085815260200190815260200160002060020160009054906101000a900473ffffffffffffffffffffffffffffffffffffffff16846040516128a7929190615a07565b60405180910390a15b505050565b6000801b60026000868152602001908152602001600020600001541415612908576040517fda319dff00000000000000000000000000000000000000000000000000000000815260040160405180910390fd5b6002600085815260200190815260200160002060020160009054906101000a900473ffffffffffffffffffffffffffffffffffffffff1673ffffffffffffffffffffffffffffffffffffffff163373ffffffffffffffffffffffffffffffffffffffff16146129a3576040517fa898452000000000000000000000000000000000000000000000000000000000815260040160405180910390fd5b600260078111156129b7576129b6614ef8565b5b60026000868152602001908152602001600020600b0160009054906101000a900460ff1660078111156129ed576129ec614ef8565b5b14612a305760026040517f0bb377be000000000000000000000000000000000000000000000000000000008152600401612a2791906157a2565b60405180910390fd5b80600260008681526020019081526020016000206007018190555081600260008681526020019081526020016000206005018190555060026000858152602001908152602001600020600301546002600086815260200190815260200160002060060154612a9e919061596c565b600260008681526020019081526020016000206007015411158015612aef57506002600085815260200190815260200160002060030154600260008681526020019081526020016000206005015411155b8015612b36575082604051602001612b079190615a6c565b6040516020818303038152906040528051906020012060026000868152602001908152602001600020600a0154145b15612c2657600360026000868152602001908152602001600020600b0160006101000a81548160ff02191690836007811115612b7557612b74614ef8565b5b02179055507fcb01257e40cdc690688a120c405f9fb290bf5ac57809b606e65432c6e87d1a90846002600087815260200190815260200160002060010160009054906101000a900473ffffffffffffffffffffffffffffffffffffffff166002600088815260200190815260200160002060020160009054906101000a900473ffffffffffffffffffffffffffffffffffffffff16604051612c1993929190615935565b60405180910390a1612f75565b6002600085815260200190815260200160002060010160009054906101000a900473ffffffffffffffffffffffffffffffffffffffff1673ffffffffffffffffffffffffffffffffffffffff166108fc600280600088815260200190815260200160002060040154612c9891906157bd565b9081150290604051600060405180830381858888f19350505050158015612cc3573d6000803e3d6000fd5b507fb56ab0c8ca3c4a2f3256c9dab1834145295ed481d85fd1afde56ff8c7298c3ec6002600086815260200190815260200160002060010160009054906101000a900473ffffffffffffffffffffffffffffffffffffffff16600280600088815260200190815260200160002060040154612d3e91906157bd565b604051612d4c9291906158fd565b60405180910390a1600a6002600086815260200190815260200160002060040154612d7791906157bd565b60016000828254612d88919061596c565b925050819055506001600460006002600088815260200190815260200160002060020160009054906101000a900473ffffffffffffffffffffffffffffffffffffffff1673ffffffffffffffffffffffffffffffffffffffff1673ffffffffffffffffffffffffffffffffffffffff1681526020019081526020016000206001016000828254612e18919061596c565b925050819055507f3fec1177d25f324e1beb970cd60f8b52ef1e47290a72bdb8f62101720f5e49276002600086815260200190815260200160002060020160009054906101000a900473ffffffffffffffffffffffffffffffffffffffff1685604051612e86929190615a07565b60405180910390a1600460026000868152602001908152602001600020600b0160006101000a81548160ff02191690836007811115612ec857612ec7614ef8565b5b02179055507f279638cb479570dfe0b72fc4dfe988dba9185f35d37a1452037c1603ce7f5529846002600087815260200190815260200160002060010160009054906101000a900473ffffffffffffffffffffffffffffffffffffffff166002600088815260200190815260200160002060020160009054906101000a900473ffffffffffffffffffffffffffffffffffffffff16604051612f6c93929190615935565b60405180910390a15b50505050565b6000801b60026000838152602001908152602001600020600001541415612fce576040517fda319dff00000000000000000000000000000000000000000000000000000000815260040160405180910390fd5b6002600082815260200190815260200160002060010160009054906101000a900473ffffffffffffffffffffffffffffffffffffffff1673ffffffffffffffffffffffffffffffffffffffff163373ffffffffffffffffffffffffffffffffffffffff1614613069576040517f1117923b00000000000000000000000000000000000000000000000000000000815260040160405180910390fd5b6002600781111561307d5761307c614ef8565b5b60026000838152602001908152602001600020600b0160009054906101000a900460ff1660078111156130b3576130b2614ef8565b5b146130f65760026040517f0bb377be0000000000000000000000000000000000000000000000000000000081526004016130ed91906157a2565b60405180910390fd5b6201518060026000838152602001908152602001600020600301546002600084815260200190815260200160002060060154613132919061596c565b61313c919061596c565b421161317d576040517f08c379a000000000000000000000000000000000000000000000000000000000815260040161317490615acf565b60405180910390fd5b600560026000838152602001908152602001600020600b0160006101000a81548160ff021916908360078111156131b7576131b6614ef8565b5b02179055506002600082815260200190815260200160002060010160009054906101000a900473ffffffffffffffffffffffffffffffffffffffff1673ffffffffffffffffffffffffffffffffffffffff166108fc600c600260008581526020019081526020016000206004015461322f91906157bd565b9081150290604051600060405180830381858888f1935050505015801561325a573d6000803e3d6000fd5b507fb56ab0c8ca3c4a2f3256c9dab1834145295ed481d85fd1afde56ff8c7298c3ec6002600083815260200190815260200160002060010160009054906101000a900473ffffffffffffffffffffffffffffffffffffffff16600c60026000858152602001908152602001600020600401546132d691906157bd565b6040516132e49291906158fd565b60405180910390a17f77df901e3c3426e23a34767cafcb99b6196af0f7676f4949f41e0f607c982dee816002600084815260200190815260200160002060010160009054906101000a900473ffffffffffffffffffffffffffffffffffffffff166002600085815260200190815260200160002060020160009054906101000a900473ffffffffffffffffffffffffffffffffffffffff1660405161338b93929190615935565b60405180910390a150565b60007f000000000000000000000000000000000000000000000000000000000000000073ffffffffffffffffffffffffffffffffffffffff163373ffffffffffffffffffffffffffffffffffffffff161461341d576040517f82593d3000000000000000000000000000000000000000000000000000000000815260040160405180910390fd5b600154905090565b60008060001b6002600084815260200190815260200160002060000154141561347a576040517fda319dff00000000000000000000000000000000000000000000000000000000815260040160405180910390fd5b6002600083815260200190815260200160002060020160009054906101000a900473ffffffffffffffffffffffffffffffffffffffff1673ffffffffffffffffffffffffffffffffffffffff163373ffffffffffffffffffffffffffffffffffffffff1614613515576040517fa898452000000000000000000000000000000000000000000000000000000000815260040160405180910390fd5b6000600781111561352957613528614ef8565b5b60026000848152602001908152602001600020600b0160009054906101000a900460ff16600781111561355f5761355e614ef8565b5b146135a25760006040517f0bb377be00000000000000000000000000000000000000000000000000000000815260040161359991906157a2565b60405180910390fd5b600a60026000848152602001908152602001600020600401546135c591906157bd565b9050919050565b60007f0000000000000000000000000000000000000000000000000000000000000000905090565b60007f000000000000000000000000000000000000000000000000000000000000000073ffffffffffffffffffffffffffffffffffffffff163373ffffffffffffffffffffffffffffffffffffffff161461367b576040517f82593d3000000000000000000000000000000000000000000000000000000000815260040160405180910390fd5b60008054906101000a900473ffffffffffffffffffffffffffffffffffffffff16905090565b600073ffffffffffffffffffffffffffffffffffffffff1660008054906101000a900473ffffffffffffffffffffffffffffffffffffffff1673ffffffffffffffffffffffffffffffffffffffff161415613728576040517f3eefffa400000000000000000000000000000000000000000000000000000000815260040160405180910390fd5b60008054906101000a900473ffffffffffffffffffffffffffffffffffffffff1673ffffffffffffffffffffffffffffffffffffffff163373ffffffffffffffffffffffffffffffffffffffff16146137ad576040517f42f84e1500000000000000000000000000000000000000000000000000000000815260040160405180910390fd5b6000801b6002600089815260200190815260200160002060000154146137ff576040517ff2e16b0300000000000000000000000000000000000000000000000000000000815260040160405180910390fd5b60028461380c91906157bd565b341461385d5760028461381f91906157bd565b346040517f558b78b8000000000000000000000000000000000000000000000000000000008152600401613854929190615817565b60405180910390fd5b866002600089815260200190815260200160002060000181905550856002600089815260200190815260200160002060010160006101000a81548173ffffffffffffffffffffffffffffffffffffffff021916908373ffffffffffffffffffffffffffffffffffffffff160217905550846002600089815260200190815260200160002060020160006101000a81548173ffffffffffffffffffffffffffffffffffffffff021916908373ffffffffffffffffffffffffffffffffffffffff1602179055508360026000898152602001908152602001600020600401819055508260026000898152602001908152602001600020600301819055508160026000898152602001908152602001600020600a01819055508060026000898152602001908152602001600020600801908051906020019061399d929190614c60565b50600060026000898152602001908152602001600020600b0160006101000a81548160ff021916908360078111156139d8576139d7614ef8565b5b0217905550600060026000898152602001908152602001600020600b0160016101000a81548160ff02191690836002811115613a1757613a16614ef8565b5b021790555060038790806001815401808255809150506001900390600052602060002001600090919091909150557f86a1455bc0c745e7ed02d6d0658be68508dd1dea11eed285160e0688859ac7cb878787604051613a7893929190615aef565b60405180910390a150505050505050565b6000801b60026000838152602001908152602001600020600001541415613adc576040517fda319dff00000000000000000000000000000000000000000000000000000000815260040160405180910390fd5b6002600082815260200190815260200160002060020160009054906101000a900473ffffffffffffffffffffffffffffffffffffffff1673ffffffffffffffffffffffffffffffffffffffff163373ffffffffffffffffffffffffffffffffffffffff1614613b77576040517fa898452000000000000000000000000000000000000000000000000000000000815260040160405180910390fd5b60006007811115613b8b57613b8a614ef8565b5b60026000838152602001908152602001600020600b0160009054906101000a900460ff166007811115613bc157613bc0614ef8565b5b14613c045760006040517f0bb377be000000000000000000000000000000000000000000000000000000008152600401613bfb91906157a2565b60405180910390fd5b600a6002600083815260200190815260200160002060040154613c2791906157bd565b3414613c8e57600a6002600083815260200190815260200160002060040154613c5091906157bd565b346040517f558b78b8000000000000000000000000000000000000000000000000000000008152600401613c85929190615817565b60405180910390fd5b4260026000838152602001908152602001600020600601819055506002806000838152602001908152602001600020600b0160006101000a81548160ff02191690836007811115613ce257613ce1614ef8565b5b02179055507f2a1f97202782a7c44b909186e1de5c2eff0dcce71cadb0aa37ef5fee96f60f79816002600084815260200190815260200160002060010160009054906101000a900473ffffffffffffffffffffffffffffffffffffffff166002600085815260200190815260200160002060020160009054906101000a900473ffffffffffffffffffffffffffffffffffffffff16604051613d8693929190615935565b60405180910390a150565b7f000000000000000000000000000000000000000000000000000000000000000073ffffffffffffffffffffffffffffffffffffffff163373ffffffffffffffffffffffffffffffffffffffff1614613e16576040517f82593d3000000000000000000000000000000000000000000000000000000000815260040160405180910390fd5b806000806101000a81548173ffffffffffffffffffffffffffffffffffffffff021916908373ffffffffffffffffffffffffffffffffffffffff16021790555050565b7f000000000000000000000000000000000000000000000000000000000000000073ffffffffffffffffffffffffffffffffffffffff163373ffffffffffffffffffffffffffffffffffffffff1614613ede576040517f82593d3000000000000000000000000000000000000000000000000000000000815260040160405180910390fd5b6000801b60026000838152602001908152602001600020600001541415613f31576040517fda319dff00000000000000000000000000000000000000000000000000000000815260040160405180910390fd5b600260008281526020019081526020016000206000808201600090556001820160006101000a81549073ffffffffffffffffffffffffffffffffffffffff02191690556002820160006101000a81549073ffffffffffffffffffffffffffffffffffffffff021916905560038201600090556004820160009055600582016000905560068201600090556007820160009055600882016000613fd39190614ce6565b600982016000613fe39190614ce6565b600a820160009055600b820160006101000a81549060ff0219169055600b820160016101000a81549060ff0219169055505060005b6003805490508110156140dd57816003828154811061403a5761403961568b565b5b906000526020600020015414156140ca576003600160038054905061405f9190615840565b815481106140705761406f61568b565b5b90600052602060002001546003828154811061408f5761408e61568b565b5b906000526020600020018190555060038054806140af576140ae615b26565b5b600190038181906000526020600020016000905590556140dd565b80806140d59061574a565b915050614018565b507fa96209878fc4722b56527db6cf4b72ad6bfddb3ad9968f7de1125d02acc9aa108160405161410d9190615b55565b60405180910390a150565b60606000801b6002600084815260200190815260200160002060000154141561416d576040517fda319dff00000000000000000000000000000000000000000000000000000000815260040160405180910390fd5b6002600083815260200190815260200160002060020160009054906101000a900473ffffffffffffffffffffffffffffffffffffffff1673ffffffffffffffffffffffffffffffffffffffff163373ffffffffffffffffffffffffffffffffffffffff1614614208576040517fa898452000000000000000000000000000000000000000000000000000000000815260040160405180910390fd5b6002600781111561421c5761421b614ef8565b5b60026000848152602001908152602001600020600b0160009054906101000a900460ff16600781111561425257614251614ef8565b5b146142955760026040517f0bb377be00000000000000000000000000000000000000000000000000000000815260040161428c91906157a2565b60405180910390fd5b6002600083815260200190815260200160002060080180546142b6906156e9565b80601f01602080910402602001604051908101604052809291908181526020018280546142e2906156e9565b801561432f5780601f106143045761010080835404028352916020019161432f565b820191906000526020600020905b81548152906001019060200180831161431257829003601f168201915b50505050509050919050565b6060600060038054905067ffffffffffffffff81111561435e5761435d615399565b5b60405190808252806020026020018201604052801561439757816020015b614384614b88565b81526020019060019003908161437c5790505b5090506000805b60038054905081101561473c573373ffffffffffffffffffffffffffffffffffffffff1660026000600384815481106143da576143d961568b565b5b9060005260206000200154815260200190815260200160002060010160009054906101000a900473ffffffffffffffffffffffffffffffffffffffff1673ffffffffffffffffffffffffffffffffffffffff16141561472957600260006003838154811061444b5761444a61568b565b5b90600052602060002001548152602001908152602001600020604051806101a0016040529081600082015481526020016001820160009054906101000a900473ffffffffffffffffffffffffffffffffffffffff1673ffffffffffffffffffffffffffffffffffffffff1673ffffffffffffffffffffffffffffffffffffffff1681526020016002820160009054906101000a900473ffffffffffffffffffffffffffffffffffffffff1673ffffffffffffffffffffffffffffffffffffffff1673ffffffffffffffffffffffffffffffffffffffff1681526020016003820154815260200160048201548152602001600582015481526020016006820154815260200160078201548152602001600882018054614568906156e9565b80601f0160208091040260200160405190810160405280929190818152602001828054614594906156e9565b80156145e15780601f106145b6576101008083540402835291602001916145e1565b820191906000526020600020905b8154815290600101906020018083116145c457829003601f168201915b505050505081526020016009820180546145fa906156e9565b80601f0160208091040260200160405190810160405280929190818152602001828054614626906156e9565b80156146735780601f1061464857610100808354040283529160200191614673565b820191906000526020600020905b81548152906001019060200180831161465657829003601f168201915b50505050508152602001600a8201548152602001600b820160009054906101000a900460ff1660078111156146ab576146aa614ef8565b5b60078111156146bd576146bc614ef8565b5b8152602001600b820160019054906101000a900460ff1660028111156146e6576146e5614ef8565b5b60028111156146f8576146f7614ef8565b5b8152505083838151811061470f5761470e61568b565b5b602002602001018190525081806147259061574a565b9250505b80806147349061574a565b91505061439e565b5060008167ffffffffffffffff81111561475957614758615399565b5b60405190808252806020026020018201604052801561479257816020015b61477f614b88565b8152602001906001900390816147775790505b50905060005b828110156147ec578381815181106147b3576147b261568b565b5b60200260200101518282815181106147ce576147cd61568b565b5b602002602001018190525080806147e49061574a565b915050614798565b5080935050505090565b6000801b60026000838152602001908152602001600020600001541415614849576040517fda319dff00000000000000000000000000000000000000000000000000000000815260040160405180910390fd5b6002600082815260200190815260200160002060010160009054906101000a900473ffffffffffffffffffffffffffffffffffffffff1673ffffffffffffffffffffffffffffffffffffffff163373ffffffffffffffffffffffffffffffffffffffff16146148e4576040517f1117923b00000000000000000000000000000000000000000000000000000000815260040160405180910390fd5b600060078111156148f8576148f7614ef8565b5b60026000838152602001908152602001600020600b0160009054906101000a900460ff16600781111561492e5761492d614ef8565b5b146149715760006040517f0bb377be00000000000000000000000000000000000000000000000000000000815260040161496891906157a2565b60405180910390fd5b600160026000838152602001908152602001600020600b0160006101000a81548160ff021916908360078111156149ab576149aa614ef8565b5b02179055506002600082815260200190815260200160002060010160009054906101000a900473ffffffffffffffffffffffffffffffffffffffff1673ffffffffffffffffffffffffffffffffffffffff166108fc600280600085815260200190815260200160002060040154614a2291906157bd565b9081150290604051600060405180830381858888f19350505050158015614a4d573d6000803e3d6000fd5b507fb56ab0c8ca3c4a2f3256c9dab1834145295ed481d85fd1afde56ff8c7298c3ec6002600083815260200190815260200160002060010160009054906101000a900473ffffffffffffffffffffffffffffffffffffffff16600280600085815260200190815260200160002060040154614ac891906157bd565b604051614ad69291906158fd565b60405180910390a17f87c2138f706de178b7c62c30e6665ee7e0f2e6c70bb1f3a956fd37cad5159d15816002600084815260200190815260200160002060010160009054906101000a900473ffffffffffffffffffffffffffffffffffffffff166002600085815260200190815260200160002060020160009054906101000a900473ffffffffffffffffffffffffffffffffffffffff16604051614b7d93929190615935565b60405180910390a150565b604051806101a0016040528060008019168152602001600073ffffffffffffffffffffffffffffffffffffffff168152602001600073ffffffffffffffffffffffffffffffffffffffff168152602001600081526020016000815260200160008152602001600081526020016000815260200160608152602001606081526020016000801916815260200160006007811115614c2757614c26614ef8565b5b815260200160006002811115614c4057614c3f614ef8565b5b81525090565b604051806040016040528060008152602001600081525090565b828054614c6c906156e9565b90600052602060002090601f016020900481019282614c8e5760008555614cd5565b82601f10614ca757805160ff1916838001178555614cd5565b82800160010185558215614cd5579182015b82811115614cd4578251825591602001919060010190614cb9565b5b509050614ce29190614d26565b5090565b508054614cf2906156e9565b6000825580601f10614d045750614d23565b601f016020900490600052602060002090810190614d229190614d26565b5b50565b5b80821115614d3f576000816000905550600101614d27565b5090565b600082825260208201905092915050565b7f6261642063616c6c000000000000000000000000000000000000000000000000600082015250565b6000614d8a600883614d43565b9150614d9582614d54565b602082019050919050565b60006020820190508181036000830152614db981614d7d565b9050919050565b600081519050919050565b600082825260208201905092915050565b6000819050602082019050919050565b6000819050919050565b614dff81614dec565b82525050565b600073ffffffffffffffffffffffffffffffffffffffff82169050919050565b6000614e3082614e05565b9050919050565b614e4081614e25565b82525050565b6000819050919050565b614e5981614e46565b82525050565b600081519050919050565b600082825260208201905092915050565b60005b83811015614e99578082015181840152602081019050614e7e565b83811115614ea8576000848401525b50505050565b6000601f19601f8301169050919050565b6000614eca82614e5f565b614ed48185614e6a565b9350614ee4818560208601614e7b565b614eed81614eae565b840191505092915050565b7f4e487b7100000000000000000000000000000000000000000000000000000000600052602160045260246000fd5b60088110614f3857614f37614ef8565b5b50565b6000819050614f4982614f27565b919050565b6000614f5982614f3b565b9050919050565b614f6981614f4e565b82525050565b60038110614f8057614f7f614ef8565b5b50565b6000819050614f9182614f6f565b919050565b6000614fa182614f83565b9050919050565b614fb181614f96565b82525050565b60006101a083016000830151614fd06000860182614df6565b506020830151614fe36020860182614e37565b506040830151614ff66040860182614e37565b5060608301516150096060860182614e50565b50608083015161501c6080860182614e50565b5060a083015161502f60a0860182614e50565b5060c083015161504260c0860182614e50565b5060e083015161505560e0860182614e50565b5061010083015184820361010086015261506f8282614ebf565b91505061012083015184820361012086015261508b8282614ebf565b9150506101408301516150a2610140860182614df6565b506101608301516150b7610160860182614f60565b506101808301516150cc610180860182614fa8565b508091505092915050565b60006150e38383614fb7565b905092915050565b6000602082019050919050565b600061510382614dc0565b61510d8185614dcb565b93508360208202850161511f85614ddc565b8060005b8581101561515b578484038952815161513c85826150d7565b9450615147836150eb565b925060208a01995050600181019050615123565b50829750879550505050505092915050565b6000602082019050818103600083015261518781846150f8565b905092915050565b6000604051905090565b600080fd5b600080fd5b6151ac81614dec565b81146151b757600080fd5b50565b6000813590506151c9816151a3565b92915050565b6000602082840312156151e5576151e4615199565b5b60006151f3848285016151ba565b91505092915050565b61520581614e46565b82525050565b600060208201905061522060008301846151fc565b92915050565b600061523182614e05565b9050919050565b61524181615226565b811461524c57600080fd5b50565b60008135905061525e81615238565b92915050565b60006020828403121561527a57615279615199565b5b60006152888482850161524f565b91505092915050565b6040820160008201516152a76000850182614e50565b5060208201516152ba6020850182614e50565b50505050565b60006040820190506152d56000830184615291565b92915050565b6152e481614e46565b81146152ef57600080fd5b50565b600081359050615301816152db565b92915050565b60006020828403121561531d5761531c615199565b5b600061532b848285016152f2565b91505092915050565b600061533f82614e5f565b6153498185614d43565b9350615359818560208601614e7b565b61536281614eae565b840191505092915050565b600060208201905081810360008301526153878184615334565b905092915050565b600080fd5b600080fd5b7f4e487b7100000000000000000000000000000000000000000000000000000000600052604160045260246000fd5b6153d182614eae565b810181811067ffffffffffffffff821117156153f0576153ef615399565b5b80604052505050565b600061540361518f565b905061540f82826153c8565b919050565b600067ffffffffffffffff82111561542f5761542e615399565b5b61543882614eae565b9050602081019050919050565b82818337600083830152505050565b600061546761546284615414565b6153f9565b90508281526020810184848401111561548357615482615394565b5b61548e848285615445565b509392505050565b600082601f8301126154ab576154aa61538f565b5b81356154bb848260208601615454565b91505092915050565b600080604083850312156154db576154da615199565b5b60006154e9858286016151ba565b925050602083013567ffffffffffffffff81111561550a5761550961519e565b5b61551685828601615496565b9150509250929050565b6000806000806080858703121561553a57615539615199565b5b6000615548878288016151ba565b945050602085013567ffffffffffffffff8111156155695761556861519e565b5b61557587828801615496565b9350506040615586878288016152f2565b9250506060615597878288016152f2565b91505092959194509250565b6155ac81615226565b82525050565b60006020820190506155c760008301846155a3565b92915050565b600080600080600080600060e0888a0312156155ec576155eb615199565b5b60006155fa8a828b016151ba565b975050602061560b8a828b0161524f565b965050604061561c8a828b0161524f565b955050606061562d8a828b016152f2565b945050608061563e8a828b016152f2565b93505060a061564f8a828b016151ba565b92505060c088013567ffffffffffffffff8111156156705761566f61519e565b5b61567c8a828b01615496565b91505092959891949750929550565b7f4e487b7100000000000000000000000000000000000000000000000000000000600052603260045260246000fd5b7f4e487b7100000000000000000000000000000000000000000000000000000000600052602260045260246000fd5b6000600282049050600182168061570157607f821691505b60208210811415615715576157146156ba565b5b50919050565b7f4e487b7100000000000000000000000000000000000000000000000000000000600052601160045260246000fd5b600061575582614e46565b91507fffffffffffffffffffffffffffffffffffffffffffffffffffffffffffffffff8214156157885761578761571b565b5b600182019050919050565b61579c81614f4e565b82525050565b60006020820190506157b76000830184615793565b92915050565b60006157c882614e46565b91506157d383614e46565b9250817fffffffffffffffffffffffffffffffffffffffffffffffffffffffffffffffff048311821515161561580c5761580b61571b565b5b828202905092915050565b600060408201905061582c60008301856151fc565b61583960208301846151fc565b9392505050565b600061584b82614e46565b915061585683614e46565b9250828210156158695761586861571b565b5b828203905092915050565b61587d81614f96565b82525050565b60006020820190506158986000830184615874565b92915050565b6000819050919050565b60006158c36158be6158b984614e05565b61589e565b614e05565b9050919050565b60006158d5826158a8565b9050919050565b60006158e7826158ca565b9050919050565b6158f7816158dc565b82525050565b600060408201905061591260008301856158ee565b61591f60208301846151fc565b9392505050565b61592f81614dec565b82525050565b600060608201905061594a6000830186615926565b61595760208301856158ee565b61596460408301846158ee565b949350505050565b600061597782614e46565b915061598283614e46565b9250827fffffffffffffffffffffffffffffffffffffffffffffffffffffffffffffffff038211156159b7576159b661571b565b5b828201905092915050565b60006080820190506159d76000830187615926565b6159e460208301866158ee565b6159f160408301856158ee565b6159fe60608301846151fc565b95945050505050565b6000604082019050615a1c60008301856158ee565b615a296020830184615926565b9392505050565b600081905092915050565b6000615a4682614e5f565b615a508185615a30565b9350615a60818560208601614e7b565b80840191505092915050565b6000615a788284615a3b565b915081905092915050565b7f54696d6520686173206e6f7420657870697265642e0000000000000000000000600082015250565b6000615ab9601583614d43565b9150615ac482615a83565b602082019050919050565b60006020820190508181036000830152615ae881615aac565b9050919050565b6000606082019050615b046000830186615926565b615b1160208301856155a3565b615b1e60408301846155a3565b949350505050565b7f4e487b7100000000000000000000000000000000000000000000000000000000600052603160045260246000fd5b6000602082019050615b6a6000830184615926565b9291505056fea264697066735822122063a53126f7a2a4c6af59015779c868b60c8efdc2ecdd5985afbcfc3837593f9164736f6c63430008080033",
  "devdoc": {
    "kind": "dev",
    "methods": {},
    "version": 1
  },
  "userdoc": {
    "kind": "user",
    "methods": {},
    "version": 1
  },
  "storageLayout": {
    "storage": [
      {
        "astId": 1364,
        "contract": "contracts/TasksManager.sol:TasksManager",
        "label": "auctionAddress",
        "offset": 0,
        "slot": "0",
        "type": "t_address"
      },
      {
        "astId": 1367,
        "contract": "contracts/TasksManager.sol:TasksManager",
        "label": "bank",
        "offset": 0,
        "slot": "1",
        "type": "t_uint256"
      },
      {
        "astId": 1419,
        "contract": "contracts/TasksManager.sol:TasksManager",
        "label": "tasks",
        "offset": 0,
        "slot": "2",
        "type": "t_mapping(t_bytes32,t_struct(Task)1409_storage)"
      },
      {
        "astId": 1422,
        "contract": "contracts/TasksManager.sol:TasksManager",
        "label": "bytes32_tasks",
        "offset": 0,
        "slot": "3",
        "type": "t_array(t_bytes32)dyn_storage"
      },
      {
        "astId": 1427,
        "contract": "contracts/TasksManager.sol:TasksManager",
        "label": "performance",
        "offset": 0,
        "slot": "4",
        "type": "t_mapping(t_address,t_struct(providerRating)1414_storage)"
      }
    ],
    "types": {
      "t_address": {
        "encoding": "inplace",
        "label": "address",
        "numberOfBytes": "20"
      },
      "t_address_payable": {
        "encoding": "inplace",
        "label": "address payable",
        "numberOfBytes": "20"
      },
      "t_array(t_bytes32)dyn_storage": {
        "base": "t_bytes32",
        "encoding": "dynamic_array",
        "label": "bytes32[]",
        "numberOfBytes": "32"
      },
      "t_bytes32": {
        "encoding": "inplace",
        "label": "bytes32",
        "numberOfBytes": "32"
      },
      "t_enum(PaymentState)1380": {
        "encoding": "inplace",
        "label": "enum TasksManager.PaymentState",
        "numberOfBytes": "1"
      },
      "t_enum(TaskState)1376": {
        "encoding": "inplace",
        "label": "enum TasksManager.TaskState",
        "numberOfBytes": "1"
      },
      "t_mapping(t_address,t_struct(providerRating)1414_storage)": {
        "encoding": "mapping",
        "key": "t_address",
        "label": "mapping(address => struct TasksManager.providerRating)",
        "numberOfBytes": "32",
        "value": "t_struct(providerRating)1414_storage"
      },
      "t_mapping(t_bytes32,t_struct(Task)1409_storage)": {
        "encoding": "mapping",
        "key": "t_bytes32",
        "label": "mapping(bytes32 => struct TasksManager.Task)",
        "numberOfBytes": "32",
        "value": "t_struct(Task)1409_storage"
      },
      "t_string_storage": {
        "encoding": "bytes",
        "label": "string",
        "numberOfBytes": "32"
      },
      "t_struct(Task)1409_storage": {
        "encoding": "inplace",
        "label": "struct TasksManager.Task",
        "members": [
          {
            "astId": 1382,
            "contract": "contracts/TasksManager.sol:TasksManager",
            "label": "taskID",
            "offset": 0,
            "slot": "0",
            "type": "t_bytes32"
          },
          {
            "astId": 1384,
            "contract": "contracts/TasksManager.sol:TasksManager",
            "label": "client",
            "offset": 0,
            "slot": "1",
            "type": "t_address_payable"
          },
          {
            "astId": 1386,
            "contract": "contracts/TasksManager.sol:TasksManager",
            "label": "provider",
            "offset": 0,
            "slot": "2",
            "type": "t_address_payable"
          },
          {
            "astId": 1388,
            "contract": "contracts/TasksManager.sol:TasksManager",
            "label": "deadline",
            "offset": 0,
            "slot": "3",
            "type": "t_uint256"
          },
          {
            "astId": 1390,
            "contract": "contracts/TasksManager.sol:TasksManager",
            "label": "price",
            "offset": 0,
            "slot": "4",
            "type": "t_uint256"
          },
          {
            "astId": 1392,
            "contract": "contracts/TasksManager.sol:TasksManager",
            "label": "duration",
            "offset": 0,
            "slot": "5",
            "type": "t_uint256"
          },
          {
            "astId": 1394,
            "contract": "contracts/TasksManager.sol:TasksManager",
            "label": "activationTime",
            "offset": 0,
            "slot": "6",
            "type": "t_uint256"
          },
          {
            "astId": 1396,
            "contract": "contracts/TasksManager.sol:TasksManager",
            "label": "completionTime",
            "offset": 0,
            "slot": "7",
            "type": "t_uint256"
          },
          {
            "astId": 1398,
            "contract": "contracts/TasksManager.sol:TasksManager",
            "label": "code",
            "offset": 0,
            "slot": "8",
            "type": "t_string_storage"
          },
          {
            "astId": 1400,
            "contract": "contracts/TasksManager.sol:TasksManager",
            "label": "results",
            "offset": 0,
            "slot": "9",
            "type": "t_string_storage"
          },
          {
            "astId": 1402,
            "contract": "contracts/TasksManager.sol:TasksManager",
            "label": "clientVerification",
            "offset": 0,
            "slot": "10",
            "type": "t_bytes32"
          },
          {
            "astId": 1405,
            "contract": "contracts/TasksManager.sol:TasksManager",
            "label": "taskState",
            "offset": 0,
            "slot": "11",
            "type": "t_enum(TaskState)1376"
          },
          {
            "astId": 1408,
            "contract": "contracts/TasksManager.sol:TasksManager",
            "label": "paymentState",
            "offset": 1,
            "slot": "11",
            "type": "t_enum(PaymentState)1380"
          }
        ],
        "numberOfBytes": "384"
      },
      "t_struct(providerRating)1414_storage": {
        "encoding": "inplace",
        "label": "struct TasksManager.providerRating",
        "members": [
          {
            "astId": 1411,
            "contract": "contracts/TasksManager.sol:TasksManager",
            "label": "upVotes",
            "offset": 0,
            "slot": "0",
            "type": "t_uint256"
          },
          {
            "astId": 1413,
            "contract": "contracts/TasksManager.sol:TasksManager",
            "label": "downVotes",
            "offset": 0,
            "slot": "1",
            "type": "t_uint256"
          }
        ],
        "numberOfBytes": "64"
      },
      "t_uint256": {
        "encoding": "inplace",
        "label": "uint256",
        "numberOfBytes": "32"
      }
    }
  }
}