{
  "address": "0x217aF65d4212Bb0370d48782cF0e3AAd00e197Cd",
  "abi": [
    {
      "inputs": [],
      "stateMutability": "nonpayable",
      "type": "constructor"
    },
    {
      "anonymous": false,
      "inputs": [
        {
          "indexed": false,
          "internalType": "bytes32",
          "name": "taskID",
          "type": "bytes32"
        },
        {
          "indexed": false,
          "internalType": "address",
          "name": "client",
          "type": "address"
        },
        {
          "indexed": false,
          "internalType": "address",
          "name": "provider",
          "type": "address"
        }
      ],
      "name": "PaymentCompleted",
      "type": "event"
    },
    {
      "anonymous": false,
      "inputs": [
        {
          "indexed": false,
          "internalType": "bytes32",
          "name": "taskID",
          "type": "bytes32"
        },
        {
          "indexed": false,
          "internalType": "address",
          "name": "client",
          "type": "address"
        },
        {
          "indexed": false,
          "internalType": "uint256",
          "name": "payment",
          "type": "uint256"
        }
      ],
      "name": "PaymentPending",
      "type": "event"
    },
    {
      "anonymous": false,
      "inputs": [
        {
          "indexed": false,
          "internalType": "address",
          "name": "provider",
          "type": "address"
        },
        {
          "indexed": false,
          "internalType": "bytes32",
          "name": "taskID",
          "type": "bytes32"
        }
      ],
      "name": "ProviderDownvoted",
      "type": "event"
    },
    {
      "anonymous": false,
      "inputs": [
        {
          "indexed": false,
          "internalType": "address",
          "name": "provider",
          "type": "address"
        },
        {
          "indexed": false,
          "internalType": "bytes32",
          "name": "taskID",
          "type": "bytes32"
        }
      ],
      "name": "ProviderUpvoted",
      "type": "event"
    },
    {
      "anonymous": false,
      "inputs": [
        {
          "indexed": false,
          "internalType": "bytes32",
          "name": "taskID",
          "type": "bytes32"
        },
        {
          "indexed": false,
          "internalType": "address",
          "name": "client",
          "type": "address"
        },
        {
          "indexed": false,
          "internalType": "address",
          "name": "provider",
          "type": "address"
        }
      ],
      "name": "TaskActivated",
      "type": "event"
    },
    {
      "anonymous": false,
      "inputs": [
        {
          "indexed": false,
          "internalType": "bytes32",
          "name": "taskID",
          "type": "bytes32"
        },
        {
          "indexed": false,
          "internalType": "address",
          "name": "client",
          "type": "address"
        },
        {
          "indexed": false,
          "internalType": "address",
          "name": "provider",
          "type": "address"
        }
      ],
      "name": "TaskCancelled",
      "type": "event"
    },
    {
      "anonymous": false,
      "inputs": [
        {
          "indexed": false,
          "internalType": "bytes32",
          "name": "taskID",
          "type": "bytes32"
        },
        {
          "indexed": false,
          "internalType": "address",
          "name": "client",
          "type": "address"
        },
        {
          "indexed": false,
          "internalType": "address",
          "name": "provider",
          "type": "address"
        }
      ],
      "name": "TaskCompletedSuccessfully",
      "type": "event"
    },
    {
      "anonymous": false,
      "inputs": [
        {
          "indexed": false,
          "internalType": "bytes32",
          "name": "taskID",
          "type": "bytes32"
        },
        {
          "indexed": false,
          "internalType": "address",
          "name": "client",
          "type": "address"
        },
        {
          "indexed": false,
          "internalType": "address",
          "name": "provider",
          "type": "address"
        }
      ],
      "name": "TaskCompletedUnsuccessfully",
      "type": "event"
    },
    {
      "anonymous": false,
      "inputs": [
        {
          "indexed": false,
          "internalType": "bytes32",
          "name": "taskID",
          "type": "bytes32"
        },
        {
          "indexed": false,
          "internalType": "address",
          "name": "client",
          "type": "address"
        },
        {
          "indexed": false,
          "internalType": "address",
          "name": "provider",
          "type": "address"
        }
      ],
      "name": "TaskCreated",
      "type": "event"
    },
    {
      "anonymous": false,
      "inputs": [
        {
          "indexed": false,
          "internalType": "bytes32",
          "name": "taskID",
          "type": "bytes32"
        }
      ],
      "name": "TaskDeleted",
      "type": "event"
    },
    {
      "anonymous": false,
      "inputs": [
        {
          "indexed": false,
          "internalType": "bytes32",
          "name": "taskID",
          "type": "bytes32"
        },
        {
          "indexed": false,
          "internalType": "address",
          "name": "client",
          "type": "address"
        },
        {
          "indexed": false,
          "internalType": "address",
          "name": "provider",
          "type": "address"
        }
      ],
      "name": "TaskInvalidated",
      "type": "event"
    },
    {
      "anonymous": false,
      "inputs": [
        {
          "indexed": false,
          "internalType": "bytes32",
          "name": "taskID",
          "type": "bytes32"
        },
        {
          "indexed": false,
          "internalType": "address",
          "name": "client",
          "type": "address"
        },
        {
          "indexed": false,
          "internalType": "address",
          "name": "provider",
          "type": "address"
        }
      ],
      "name": "TaskReceivedResultsSuccessfully",
      "type": "event"
    },
    {
      "anonymous": false,
      "inputs": [
        {
          "indexed": false,
          "internalType": "bytes32",
          "name": "taskID",
          "type": "bytes32"
        },
        {
          "indexed": false,
          "internalType": "address",
          "name": "client",
          "type": "address"
        },
        {
          "indexed": false,
          "internalType": "address",
          "name": "provider",
          "type": "address"
        }
      ],
      "name": "TaskReceivedResultsUnsuccessfully",
      "type": "event"
    },
    {
      "anonymous": false,
      "inputs": [
        {
          "indexed": false,
          "internalType": "address",
          "name": "client",
          "type": "address"
        },
        {
          "indexed": false,
          "internalType": "uint256",
          "name": "amount",
          "type": "uint256"
        }
      ],
      "name": "TransferMadeToClient",
      "type": "event"
    },
    {
      "anonymous": false,
      "inputs": [
        {
          "indexed": false,
          "internalType": "address",
          "name": "provider",
          "type": "address"
        },
        {
          "indexed": false,
          "internalType": "uint256",
          "name": "amount",
          "type": "uint256"
        }
      ],
      "name": "TransferMadeToProvider",
      "type": "event"
    },
    {
      "stateMutability": "payable",
      "type": "fallback"
    },
    {
      "inputs": [
        {
          "internalType": "bytes32",
          "name": "_taskID",
          "type": "bytes32"
        }
      ],
      "name": "activateTask",
      "outputs": [],
      "stateMutability": "payable",
      "type": "function"
    },
    {
      "inputs": [
        {
          "internalType": "bytes32",
          "name": "_taskID",
          "type": "bytes32"
        }
      ],
      "name": "cancelTask",
      "outputs": [],
      "stateMutability": "nonpayable",
      "type": "function"
    },
    {
      "inputs": [
        {
          "internalType": "bytes32",
          "name": "_taskID",
          "type": "bytes32"
        }
      ],
      "name": "completePayment",
      "outputs": [],
      "stateMutability": "payable",
      "type": "function"
    },
    {
      "inputs": [
        {
          "internalType": "bytes32",
          "name": "_taskID",
          "type": "bytes32"
        },
        {
          "internalType": "string",
          "name": "ver",
          "type": "string"
        },
        {
          "internalType": "uint256",
          "name": "_duration",
          "type": "uint256"
        },
        {
          "internalType": "uint256",
          "name": "_timeReceivedProvider",
          "type": "uint256"
        }
      ],
      "name": "completeTask",
      "outputs": [],
      "stateMutability": "nonpayable",
      "type": "function"
    },
    {
      "inputs": [
        {
          "internalType": "bytes32",
          "name": "_taskID",
          "type": "bytes32"
        },
        {
          "internalType": "address",
          "name": "_client",
          "type": "address"
        },
        {
          "internalType": "address",
          "name": "_provider",
          "type": "address"
        },
        {
          "internalType": "uint256",
          "name": "_price",
          "type": "uint256"
        },
        {
          "internalType": "uint256",
          "name": "_deadline",
          "type": "uint256"
        },
        {
          "internalType": "bytes32",
          "name": "_clientVerification",
          "type": "bytes32"
        },
        {
          "internalType": "string",
          "name": "_code",
          "type": "string"
        }
      ],
      "name": "createTask",
      "outputs": [],
      "stateMutability": "payable",
      "type": "function"
    },
    {
      "inputs": [
        {
          "internalType": "bytes32",
          "name": "_taskID",
          "type": "bytes32"
        }
      ],
      "name": "deleteTask",
      "outputs": [],
      "stateMutability": "nonpayable",
      "type": "function"
    },
    {
      "inputs": [],
      "name": "getActiveTasks",
      "outputs": [
        {
          "internalType": "uint256",
          "name": "",
          "type": "uint256"
        }
      ],
      "stateMutability": "view",
      "type": "function"
    },
    {
      "inputs": [],
      "name": "getAuctionAddress",
      "outputs": [
        {
          "internalType": "address",
          "name": "",
          "type": "address"
        }
      ],
      "stateMutability": "view",
      "type": "function"
    },
    {
      "inputs": [
        {
          "internalType": "bytes32",
          "name": "_taskID",
          "type": "bytes32"
        }
      ],
      "name": "getCode",
      "outputs": [
        {
          "internalType": "string",
          "name": "",
          "type": "string"
        }
      ],
      "stateMutability": "view",
      "type": "function"
    },
    {
      "inputs": [],
      "name": "getOwner",
      "outputs": [
        {
          "internalType": "address",
          "name": "",
          "type": "address"
        }
      ],
      "stateMutability": "view",
      "type": "function"
    },
    {
      "inputs": [
        {
          "internalType": "address",
          "name": "provider",
          "type": "address"
        }
      ],
      "name": "getPerformance",
      "outputs": [
        {
          "components": [
            {
              "internalType": "uint256",
              "name": "upVotes",
              "type": "uint256"
            },
            {
              "internalType": "uint256",
              "name": "downVotes",
              "type": "uint256"
            }
          ],
          "internalType": "struct TasksManager.providerRating",
          "name": "",
          "type": "tuple"
        }
      ],
      "stateMutability": "view",
      "type": "function"
    },
    {
      "inputs": [
        {
          "internalType": "bytes32",
          "name": "_taskID",
          "type": "bytes32"
        }
      ],
      "name": "getProviderCollateral",
      "outputs": [
        {
          "internalType": "uint256",
          "name": "",
          "type": "uint256"
        }
      ],
      "stateMutability": "view",
      "type": "function"
    },
    {
      "inputs": [
        {
          "internalType": "bytes32",
          "name": "_taskID",
          "type": "bytes32"
        }
      ],
      "name": "getResults",
      "outputs": [
        {
          "internalType": "string",
          "name": "",
          "type": "string"
        }
      ],
      "stateMutability": "view",
      "type": "function"
    },
    {
      "inputs": [
        {
          "internalType": "bytes32",
          "name": "_taskID",
          "type": "bytes32"
        }
      ],
      "name": "getTask",
      "outputs": [
        {
          "components": [
            {
              "internalType": "bytes32",
              "name": "taskID",
              "type": "bytes32"
            },
            {
              "internalType": "address payable",
              "name": "client",
              "type": "address"
            },
            {
              "internalType": "address payable",
              "name": "provider",
              "type": "address"
            },
            {
              "internalType": "uint256",
              "name": "providerCollateral",
              "type": "uint256"
            },
            {
              "internalType": "uint256",
              "name": "clientCollateral",
              "type": "uint256"
            },
            {
              "internalType": "uint256",
              "name": "deadline",
              "type": "uint256"
            },
            {
              "internalType": "uint256",
              "name": "price",
              "type": "uint256"
            },
            {
              "internalType": "uint256",
              "name": "duration",
              "type": "uint256"
            },
            {
              "internalType": "uint256",
              "name": "cost",
              "type": "uint256"
            },
            {
              "internalType": "uint256",
              "name": "activationTime",
              "type": "uint256"
            },
            {
              "internalType": "uint256",
              "name": "timeResultProvided",
              "type": "uint256"
            },
            {
              "internalType": "uint256",
              "name": "timeResultReceived",
              "type": "uint256"
            },
            {
              "internalType": "string",
              "name": "code",
              "type": "string"
            },
            {
              "internalType": "string",
              "name": "results",
              "type": "string"
            },
            {
              "internalType": "bytes32",
              "name": "clientVerification",
              "type": "bytes32"
            },
            {
              "internalType": "enum TasksManager.TaskState",
              "name": "taskState",
              "type": "uint8"
            },
            {
              "internalType": "enum TasksManager.PaymentState",
              "name": "paymentState",
              "type": "uint8"
            }
          ],
          "internalType": "struct TasksManager.Task",
          "name": "",
          "type": "tuple"
        }
      ],
      "stateMutability": "view",
      "type": "function"
    },
    {
      "inputs": [
        {
          "internalType": "address",
          "name": "_client",
          "type": "address"
        }
      ],
      "name": "getTasksByClient",
      "outputs": [
        {
          "components": [
            {
              "internalType": "bytes32",
              "name": "taskID",
              "type": "bytes32"
            },
            {
              "internalType": "address payable",
              "name": "client",
              "type": "address"
            },
            {
              "internalType": "address payable",
              "name": "provider",
              "type": "address"
            },
            {
              "internalType": "uint256",
              "name": "providerCollateral",
              "type": "uint256"
            },
            {
              "internalType": "uint256",
              "name": "clientCollateral",
              "type": "uint256"
            },
            {
              "internalType": "uint256",
              "name": "deadline",
              "type": "uint256"
            },
            {
              "internalType": "uint256",
              "name": "price",
              "type": "uint256"
            },
            {
              "internalType": "uint256",
              "name": "duration",
              "type": "uint256"
            },
            {
              "internalType": "uint256",
              "name": "cost",
              "type": "uint256"
            },
            {
              "internalType": "uint256",
              "name": "activationTime",
              "type": "uint256"
            },
            {
              "internalType": "uint256",
              "name": "timeResultProvided",
              "type": "uint256"
            },
            {
              "internalType": "uint256",
              "name": "timeResultReceived",
              "type": "uint256"
            },
            {
              "internalType": "string",
              "name": "code",
              "type": "string"
            },
            {
              "internalType": "string",
              "name": "results",
              "type": "string"
            },
            {
              "internalType": "bytes32",
              "name": "clientVerification",
              "type": "bytes32"
            },
            {
              "internalType": "enum TasksManager.TaskState",
              "name": "taskState",
              "type": "uint8"
            },
            {
              "internalType": "enum TasksManager.PaymentState",
              "name": "paymentState",
              "type": "uint8"
            }
          ],
          "internalType": "struct TasksManager.Task[]",
          "name": "",
          "type": "tuple[]"
        }
      ],
      "stateMutability": "view",
      "type": "function"
    },
    {
      "inputs": [
        {
          "internalType": "address",
          "name": "_provider",
          "type": "address"
        }
      ],
      "name": "getTasksByProvider",
      "outputs": [
        {
          "components": [
            {
              "internalType": "bytes32",
              "name": "taskID",
              "type": "bytes32"
            },
            {
              "internalType": "address payable",
              "name": "client",
              "type": "address"
            },
            {
              "internalType": "address payable",
              "name": "provider",
              "type": "address"
            },
            {
              "internalType": "uint256",
              "name": "providerCollateral",
              "type": "uint256"
            },
            {
              "internalType": "uint256",
              "name": "clientCollateral",
              "type": "uint256"
            },
            {
              "internalType": "uint256",
              "name": "deadline",
              "type": "uint256"
            },
            {
              "internalType": "uint256",
              "name": "price",
              "type": "uint256"
            },
            {
              "internalType": "uint256",
              "name": "duration",
              "type": "uint256"
            },
            {
              "internalType": "uint256",
              "name": "cost",
              "type": "uint256"
            },
            {
              "internalType": "uint256",
              "name": "activationTime",
              "type": "uint256"
            },
            {
              "internalType": "uint256",
              "name": "timeResultProvided",
              "type": "uint256"
            },
            {
              "internalType": "uint256",
              "name": "timeResultReceived",
              "type": "uint256"
            },
            {
              "internalType": "string",
              "name": "code",
              "type": "string"
            },
            {
              "internalType": "string",
              "name": "results",
              "type": "string"
            },
            {
              "internalType": "bytes32",
              "name": "clientVerification",
              "type": "bytes32"
            },
            {
              "internalType": "enum TasksManager.TaskState",
              "name": "taskState",
              "type": "uint8"
            },
            {
              "internalType": "enum TasksManager.PaymentState",
              "name": "paymentState",
              "type": "uint8"
            }
          ],
          "internalType": "struct TasksManager.Task[]",
          "name": "",
          "type": "tuple[]"
        }
      ],
      "stateMutability": "view",
      "type": "function"
    },
    {
      "inputs": [
        {
          "internalType": "bytes32",
          "name": "_taskID",
          "type": "bytes32"
        }
      ],
      "name": "invalidateTask",
      "outputs": [],
      "stateMutability": "nonpayable",
      "type": "function"
    },
    {
      "inputs": [
        {
          "internalType": "bytes32",
          "name": "_taskID",
          "type": "bytes32"
        }
      ],
      "name": "isRegistered",
      "outputs": [
        {
          "internalType": "bool",
          "name": "",
          "type": "bool"
        }
      ],
      "stateMutability": "view",
      "type": "function"
    },
    {
      "inputs": [
        {
          "internalType": "bytes32",
          "name": "_taskID",
          "type": "bytes32"
        },
        {
          "internalType": "string",
          "name": "_results",
          "type": "string"
        }
      ],
      "name": "sendResults",
      "outputs": [],
      "stateMutability": "nonpayable",
      "type": "function"
    },
    {
      "inputs": [
        {
          "internalType": "address",
          "name": "_auctionAddress",
          "type": "address"
        }
      ],
      "name": "setAuctionsManager",
      "outputs": [],
      "stateMutability": "nonpayable",
      "type": "function"
    },
    {
      "stateMutability": "payable",
      "type": "receive"
    }
  ],
  "transactionHash": "0xb113e8648b955224bdfccd559641f6642dfdc3f7a6377e97eb955227960875a9",
  "args": [],
  "numDeployments": 5,
  "solcInputHash": "e145ce4f96f52453bb53a6e6488d1e81",
  "bytecode": "0x60a060405234801561001057600080fd5b503373ffffffffffffffffffffffffffffffffffffffff1660808173ffffffffffffffffffffffffffffffffffffffff1660601b8152505060805160601c615c856200007c60003960008181612c5301528181612e8c015281816135670152613b1d0152615c856000f3fe6080604052600436106101235760003560e01c8063668b1baa116100a057806398007255116100645780639800725514610426578063b1407faa1461044f578063e64f15a21461048c578063e8fe6b66146104b5578063ee8ca3b5146104f257610163565b8063668b1baa1461035b578063893d20e8146103985780638b9ca885146103c35780638fb15168146103ee57806392b833201461040a57610163565b806347ca8a8b116100e757806347ca8a8b146102995780634b017c7a146102b5578063513a6698146102de57806354706b5a146103075780636127f2461461033057610163565b806315a29035146101685780631ecc9aaf146101a557806327258b22146101e25780632bdefcae1461021f57806346475c4c1461025c57610163565b36610163576040517f08c379a000000000000000000000000000000000000000000000000000000000815260040161015a90614749565b60405180910390fd5b600080fd5b34801561017457600080fd5b5061018f600480360381019061018a91906147b3565b61051b565b60405161019c9190614b15565b60405180910390f35b3480156101b157600080fd5b506101cc60048036038101906101c79190614b75565b6107fd565b6040516101d99190614bd1565b60405180910390f35b3480156101ee57600080fd5b50610209600480360381019061020491906147b3565b61086a565b6040516102169190614c07565b60405180910390f35b34801561022b57600080fd5b5061024660048036038101906102419190614b75565b6108d9565b6040516102539190614e58565b60405180910390f35b34801561026857600080fd5b50610283600480360381019061027e91906147b3565b610dbe565b6040516102909190614eb3565b60405180910390f35b6102b360048036038101906102ae91906147b3565b611028565b005b3480156102c157600080fd5b506102dc60048036038101906102d7919061500a565b6114fb565b005b3480156102ea57600080fd5b5061030560048036038101906103009190615092565b612252565b005b34801561031357600080fd5b5061032e600480360381019061032991906147b3565b61285f565b005b34801561033c57600080fd5b50610345612c4f565b6040516103529190615124565b60405180910390f35b34801561036757600080fd5b50610382600480360381019061037d91906147b3565b612cea565b60405161038f9190615124565b60405180910390f35b3480156103a457600080fd5b506103ad612e88565b6040516103ba919061514e565b60405180910390f35b3480156103cf57600080fd5b506103d8612eb0565b6040516103e5919061514e565b60405180910390f35b61040860048036038101906104039190615169565b612ed9565b005b610424600480360381019061041f91906147b3565b61326f565b005b34801561043257600080fd5b5061044d60048036038101906104489190614b75565b613565565b005b34801561045b57600080fd5b5061047660048036038101906104719190614b75565b613636565b6040516104839190614e58565b60405180910390f35b34801561049857600080fd5b506104b360048036038101906104ae91906147b3565b613b1b565b005b3480156104c157600080fd5b506104dc60048036038101906104d791906147b3565b613dfa565b6040516104e99190614eb3565b60405180910390f35b3480156104fe57600080fd5b50610519600480360381019061051491906147b3565b613fd6565b005b610523614515565b6001600083815260200190815260200160002060405180610220016040529081600082015481526020016001820160009054906101000a900473ffffffffffffffffffffffffffffffffffffffff1673ffffffffffffffffffffffffffffffffffffffff1673ffffffffffffffffffffffffffffffffffffffff1681526020016002820160009054906101000a900473ffffffffffffffffffffffffffffffffffffffff1673ffffffffffffffffffffffffffffffffffffffff1673ffffffffffffffffffffffffffffffffffffffff16815260200160038201548152602001600482015481526020016005820154815260200160068201548152602001600782015481526020016008820154815260200160098201548152602001600a8201548152602001600b8201548152602001600c8201805461066290615256565b80601f016020809104026020016040519081016040528092919081815260200182805461068e90615256565b80156106db5780601f106106b0576101008083540402835291602001916106db565b820191906000526020600020905b8154815290600101906020018083116106be57829003601f168201915b50505050508152602001600d820180546106f490615256565b80601f016020809104026020016040519081016040528092919081815260200182805461072090615256565b801561076d5780601f106107425761010080835404028352916020019161076d565b820191906000526020600020905b81548152906001019060200180831161075057829003601f168201915b50505050508152602001600e8201548152602001600f820160009054906101000a900460ff1660078111156107a5576107a46148e2565b5b60078111156107b7576107b66148e2565b5b8152602001600f820160019054906101000a900460ff1660028111156107e0576107df6148e2565b5b60028111156107f2576107f16148e2565b5b815250509050919050565b6108056145ef565b600360008373ffffffffffffffffffffffffffffffffffffffff1673ffffffffffffffffffffffffffffffffffffffff168152602001908152602001600020604051806040016040529081600082015481526020016001820154815250509050919050565b60008073ffffffffffffffffffffffffffffffffffffffff166001600084815260200190815260200160002060010160009054906101000a900473ffffffffffffffffffffffffffffffffffffffff1673ffffffffffffffffffffffffffffffffffffffff1614159050919050565b6060600060028054905067ffffffffffffffff8111156108fc576108fb614edf565b5b60405190808252806020026020018201604052801561093557816020015b610922614515565b81526020019060019003908161091a5790505b5090506000805b600280549050811015610d02578473ffffffffffffffffffffffffffffffffffffffff16600160006002848154811061097857610977615288565b5b9060005260206000200154815260200190815260200160002060020160009054906101000a900473ffffffffffffffffffffffffffffffffffffffff1673ffffffffffffffffffffffffffffffffffffffff161415610cef5760016000600283815481106109e9576109e8615288565b5b9060005260206000200154815260200190815260200160002060405180610220016040529081600082015481526020016001820160009054906101000a900473ffffffffffffffffffffffffffffffffffffffff1673ffffffffffffffffffffffffffffffffffffffff1673ffffffffffffffffffffffffffffffffffffffff1681526020016002820160009054906101000a900473ffffffffffffffffffffffffffffffffffffffff1673ffffffffffffffffffffffffffffffffffffffff1673ffffffffffffffffffffffffffffffffffffffff16815260200160038201548152602001600482015481526020016005820154815260200160068201548152602001600782015481526020016008820154815260200160098201548152602001600a8201548152602001600b8201548152602001600c82018054610b2e90615256565b80601f0160208091040260200160405190810160405280929190818152602001828054610b5a90615256565b8015610ba75780601f10610b7c57610100808354040283529160200191610ba7565b820191906000526020600020905b815481529060010190602001808311610b8a57829003601f168201915b50505050508152602001600d82018054610bc090615256565b80601f0160208091040260200160405190810160405280929190818152602001828054610bec90615256565b8015610c395780601f10610c0e57610100808354040283529160200191610c39565b820191906000526020600020905b815481529060010190602001808311610c1c57829003601f168201915b50505050508152602001600e8201548152602001600f820160009054906101000a900460ff166007811115610c7157610c706148e2565b5b6007811115610c8357610c826148e2565b5b8152602001600f820160019054906101000a900460ff166002811115610cac57610cab6148e2565b5b6002811115610cbe57610cbd6148e2565b5b81525050838381518110610cd557610cd4615288565b5b60200260200101819052508180610ceb906152e6565b9250505b8080610cfa906152e6565b91505061093c565b5060008167ffffffffffffffff811115610d1f57610d1e614edf565b5b604051908082528060200260200182016040528015610d5857816020015b610d45614515565b815260200190600190039081610d3d5790505b50905060005b82811015610db257838181518110610d7957610d78615288565b5b6020026020010151828281518110610d9457610d93615288565b5b60200260200101819052508080610daa906152e6565b915050610d5e565b50809350505050919050565b6060816001600082815260200190815260200160002060010160009054906101000a900473ffffffffffffffffffffffffffffffffffffffff1673ffffffffffffffffffffffffffffffffffffffff163373ffffffffffffffffffffffffffffffffffffffff1614610e65576040517f08c379a0000000000000000000000000000000000000000000000000000000008152600401610e5c906153a1565b60405180910390fd5b826006806007811115610e7b57610e7a6148e2565b5b60016000848152602001908152602001600020600f0160009054906101000a900460ff166007811115610eb157610eb06148e2565b5b14610ef1576040517f08c379a0000000000000000000000000000000000000000000000000000000008152600401610ee89061540d565b60405180910390fd5b846002806002811115610f0757610f066148e2565b5b60016000848152602001908152602001600020600f0160019054906101000a900460ff166002811115610f3d57610f3c6148e2565b5b14610f7d576040517f08c379a0000000000000000000000000000000000000000000000000000000008152600401610f7490615479565b60405180910390fd5b60016000888152602001908152602001600020600d018054610f9e90615256565b80601f0160208091040260200160405190810160405280929190818152602001828054610fca90615256565b80156110175780601f10610fec57610100808354040283529160200191611017565b820191906000526020600020905b815481529060010190602001808311610ffa57829003601f168201915b505050505095505050505050919050565b806001600082815260200190815260200160002060010160009054906101000a900473ffffffffffffffffffffffffffffffffffffffff1673ffffffffffffffffffffffffffffffffffffffff163373ffffffffffffffffffffffffffffffffffffffff16146110cd576040517f08c379a00000000000000000000000000000000000000000000000000000000081526004016110c4906153a1565b60405180910390fd5b8160068060078111156110e3576110e26148e2565b5b60016000848152602001908152602001600020600f0160009054906101000a900460ff166007811115611119576111186148e2565b5b14611159576040517f08c379a00000000000000000000000000000000000000000000000000000000081526004016111509061540d565b60405180910390fd5b83600180600281111561116f5761116e6148e2565b5b60016000848152602001908152602001600020600f0160019054906101000a900460ff1660028111156111a5576111a46148e2565b5b146111e5576040517f08c379a00000000000000000000000000000000000000000000000000000000081526004016111dc90615479565b60405180910390fd5b6001600087815260200190815260200160002060040154600160008881526020019081526020016000206008015461121d9190615499565b80341461125f576040517f08c379a000000000000000000000000000000000000000000000000000000000815260040161125690615519565b60405180910390fd5b60016002811115611273576112726148e2565b5b60016000898152602001908152602001600020600f0160019054906101000a900460ff1660028111156112a9576112a86148e2565b5b146112e9576040517f08c379a00000000000000000000000000000000000000000000000000000000081526004016112e090615585565b60405180910390fd5b6001600088815260200190815260200160002060020160009054906101000a900473ffffffffffffffffffffffffffffffffffffffff1673ffffffffffffffffffffffffffffffffffffffff166108fc349081150290604051600060405180830381858888f19350505050158015611365573d6000803e3d6000fd5b507f4195fd9cd5f571cf9d14b2376c60201465a986f4a0469cebf0f0ee1d3e2022ab6001600089815260200190815260200160002060020160009054906101000a900473ffffffffffffffffffffffffffffffffffffffff16600160008a815260200190815260200160002060040154600160008b8152602001908152602001600020600801546113f69190615499565b604051611404929190615604565b60405180910390a1600260016000898152602001908152602001600020600f0160016101000a81548160ff02191690836002811115611446576114456148e2565b5b02179055507f890aa03cb2eb1db116152827f7a61a8f43080718ac119d21644158c5df9131c987600160008a815260200190815260200160002060010160009054906101000a900473ffffffffffffffffffffffffffffffffffffffff16600160008b815260200190815260200160002060020160009054906101000a900473ffffffffffffffffffffffffffffffffffffffff166040516114ea9392919061563c565b60405180910390a150505050505050565b816001600082815260200190815260200160002060020160009054906101000a900473ffffffffffffffffffffffffffffffffffffffff1673ffffffffffffffffffffffffffffffffffffffff163373ffffffffffffffffffffffffffffffffffffffff16146115a0576040517f08c379a0000000000000000000000000000000000000000000000000000000008152600401611597906156e5565b60405180910390fd5b8260038060078111156115b6576115b56148e2565b5b60016000848152602001908152602001600020600f0160009054906101000a900460ff1660078111156115ec576115eb6148e2565b5b1461162c576040517f08c379a00000000000000000000000000000000000000000000000000000000081526004016116239061540d565b60405180910390fd5b846000806002811115611642576116416148e2565b5b60016000848152602001908152602001600020600f0160019054906101000a900460ff166002811115611678576116776148e2565b5b146116b8576040517f08c379a00000000000000000000000000000000000000000000000000000000081526004016116af90615479565b60405180910390fd5b4260016000898152602001908152602001600020600b01819055508560016000898152602001908152602001600020600d0190805190602001906116fd929190614609565b506117078761430a565b15611f09576001600088815260200190815260200160002060040154600160008981526020019081526020016000206008015411611ade576001600088815260200190815260200160002060020160009054906101000a900473ffffffffffffffffffffffffffffffffffffffff1673ffffffffffffffffffffffffffffffffffffffff166108fc600160008a815260200190815260200160002060030154600160008b8152602001908152602001600020600801546117c79190615705565b9081150290604051600060405180830381858888f193505050501580156117f2573d6000803e3d6000fd5b507f4195fd9cd5f571cf9d14b2376c60201465a986f4a0469cebf0f0ee1d3e2022ab6001600089815260200190815260200160002060020160009054906101000a900473ffffffffffffffffffffffffffffffffffffffff16600160008a815260200190815260200160002060030154600160008b8152602001908152602001600020600801546118839190615705565b604051611891929190615604565b60405180910390a16001600088815260200190815260200160002060010160009054906101000a900473ffffffffffffffffffffffffffffffffffffffff1673ffffffffffffffffffffffffffffffffffffffff166108fc600160008a815260200190815260200160002060040154600160008b8152602001908152602001600020600801546119219190615499565b9081150290604051600060405180830381858888f1935050505015801561194c573d6000803e3d6000fd5b507fb56ab0c8ca3c4a2f3256c9dab1834145295ed481d85fd1afde56ff8c7298c3ec6001600089815260200190815260200160002060010160009054906101000a900473ffffffffffffffffffffffffffffffffffffffff16600160008a815260200190815260200160002060040154600160008b8152602001908152602001600020600801546119dd9190615499565b6040516119eb929190615604565b60405180910390a1600260016000898152602001908152602001600020600f0160016101000a81548160ff02191690836002811115611a2d57611a2c6148e2565b5b02179055507f890aa03cb2eb1db116152827f7a61a8f43080718ac119d21644158c5df9131c987600160008a815260200190815260200160002060010160009054906101000a900473ffffffffffffffffffffffffffffffffffffffff16600160008b815260200190815260200160002060020160009054906101000a900473ffffffffffffffffffffffffffffffffffffffff16604051611ad19392919061563c565b60405180910390a1611d1f565b6001600088815260200190815260200160002060020160009054906101000a900473ffffffffffffffffffffffffffffffffffffffff1673ffffffffffffffffffffffffffffffffffffffff166108fc600160008a815260200190815260200160002060030154600160008b815260200190815260200160002060040154611b669190615705565b9081150290604051600060405180830381858888f19350505050158015611b91573d6000803e3d6000fd5b507f4195fd9cd5f571cf9d14b2376c60201465a986f4a0469cebf0f0ee1d3e2022ab6001600089815260200190815260200160002060020160009054906101000a900473ffffffffffffffffffffffffffffffffffffffff16600160008a815260200190815260200160002060030154600160008b815260200190815260200160002060040154611c229190615705565b604051611c30929190615604565b60405180910390a16001806000898152602001908152602001600020600f0160016101000a81548160ff02191690836002811115611c7157611c706148e2565b5b02179055507faeff34069db70e27255fa5753a9006a5c57ff8abe9e68330094aee63eb42bc6287600160008a815260200190815260200160002060010160009054906101000a900473ffffffffffffffffffffffffffffffffffffffff16600160008b815260200190815260200160002060040154600160008c815260200190815260200160002060080154611d079190615499565b604051611d169392919061575b565b60405180910390a15b600660016000898152602001908152602001600020600f0160006101000a81548160ff02191690836007811115611d5957611d586148e2565b5b02179055507f067fe9f66c1397ff30d1dc2be07bda764b672304c70f4cab229b243c42ce31f887600160008a815260200190815260200160002060010160009054906101000a900473ffffffffffffffffffffffffffffffffffffffff16600160008b815260200190815260200160002060020160009054906101000a900473ffffffffffffffffffffffffffffffffffffffff16604051611dfd9392919061563c565b60405180910390a1600160036000600160008b815260200190815260200160002060020160009054906101000a900473ffffffffffffffffffffffffffffffffffffffff1673ffffffffffffffffffffffffffffffffffffffff1673ffffffffffffffffffffffffffffffffffffffff1681526020019081526020016000206000016000828254611e8e9190615705565b925050819055507ff79072e0f370bb188b7c4d34ae8a5c9138b891e5df7cfa7ca412b518d30aaf756001600089815260200190815260200160002060020160009054906101000a900473ffffffffffffffffffffffffffffffffffffffff1688604051611efc929190615792565b60405180910390a1612249565b6001600088815260200190815260200160002060010160009054906101000a900473ffffffffffffffffffffffffffffffffffffffff1673ffffffffffffffffffffffffffffffffffffffff166108fc600160008a815260200190815260200160002060030154600160008b815260200190815260200160002060040154611f919190615705565b9081150290604051600060405180830381858888f19350505050158015611fbc573d6000803e3d6000fd5b507fb56ab0c8ca3c4a2f3256c9dab1834145295ed481d85fd1afde56ff8c7298c3ec6001600089815260200190815260200160002060010160009054906101000a900473ffffffffffffffffffffffffffffffffffffffff16600160008a815260200190815260200160002060030154600160008b81526020019081526020016000206004015461204d9190615705565b60405161205b929190615604565b60405180910390a1600760016000898152602001908152602001600020600f0160006101000a81548160ff0219169083600781111561209d5761209c6148e2565b5b02179055507fd821ebe41923c5c79bc29eb00ebc187d810aa678babab9794f5dfd465f2f16f087600160008a815260200190815260200160002060010160009054906101000a900473ffffffffffffffffffffffffffffffffffffffff16600160008b815260200190815260200160002060020160009054906101000a900473ffffffffffffffffffffffffffffffffffffffff166040516121419392919061563c565b60405180910390a1600160036000600160008b815260200190815260200160002060020160009054906101000a900473ffffffffffffffffffffffffffffffffffffffff1673ffffffffffffffffffffffffffffffffffffffff1673ffffffffffffffffffffffffffffffffffffffff16815260200190815260200160002060010160008282546121d29190615705565b925050819055507f3fec1177d25f324e1beb970cd60f8b52ef1e47290a72bdb8f62101720f5e49276001600089815260200190815260200160002060020160009054906101000a900473ffffffffffffffffffffffffffffffffffffffff1688604051612240929190615792565b60405180910390a15b50505050505050565b836001600082815260200190815260200160002060020160009054906101000a900473ffffffffffffffffffffffffffffffffffffffff1673ffffffffffffffffffffffffffffffffffffffff163373ffffffffffffffffffffffffffffffffffffffff16146122f7576040517f08c379a00000000000000000000000000000000000000000000000000000000081526004016122ee906156e5565b60405180910390fd5b84600280600781111561230d5761230c6148e2565b5b60016000848152602001908152602001600020600f0160009054906101000a900460ff166007811115612343576123426148e2565b5b14612383576040517f08c379a000000000000000000000000000000000000000000000000000000000815260040161237a9061540d565b60405180910390fd5b8360016000898152602001908152602001600020600a01819055508460016000898152602001908152602001600020600701819055506123c28761443a565b80156123d457506123d387876144cc565b5b15612516576001600088815260200190815260200160002060070154600160008981526020019081526020016000206006015461241191906157bb565b6001600089815260200190815260200160002060080181905550600360016000898152602001908152602001600020600f0160006101000a81548160ff02191690836007811115612465576124646148e2565b5b02179055507fcb01257e40cdc690688a120c405f9fb290bf5ac57809b606e65432c6e87d1a9087600160008a815260200190815260200160002060010160009054906101000a900473ffffffffffffffffffffffffffffffffffffffff16600160008b815260200190815260200160002060020160009054906101000a900473ffffffffffffffffffffffffffffffffffffffff166040516125099392919061563c565b60405180910390a1612856565b6001600088815260200190815260200160002060010160009054906101000a900473ffffffffffffffffffffffffffffffffffffffff1673ffffffffffffffffffffffffffffffffffffffff166108fc600160008a815260200190815260200160002060030154600160008b81526020019081526020016000206004015461259e9190615705565b9081150290604051600060405180830381858888f193505050501580156125c9573d6000803e3d6000fd5b507fb56ab0c8ca3c4a2f3256c9dab1834145295ed481d85fd1afde56ff8c7298c3ec6001600089815260200190815260200160002060010160009054906101000a900473ffffffffffffffffffffffffffffffffffffffff16600160008a815260200190815260200160002060030154600160008b81526020019081526020016000206004015461265a9190615705565b604051612668929190615604565b60405180910390a1600160036000600160008b815260200190815260200160002060020160009054906101000a900473ffffffffffffffffffffffffffffffffffffffff1673ffffffffffffffffffffffffffffffffffffffff1673ffffffffffffffffffffffffffffffffffffffff16815260200190815260200160002060010160008282546126f99190615705565b925050819055507f3fec1177d25f324e1beb970cd60f8b52ef1e47290a72bdb8f62101720f5e49276001600089815260200190815260200160002060020160009054906101000a900473ffffffffffffffffffffffffffffffffffffffff1688604051612767929190615792565b60405180910390a1600460016000898152602001908152602001600020600f0160006101000a81548160ff021916908360078111156127a9576127a86148e2565b5b02179055507f279638cb479570dfe0b72fc4dfe988dba9185f35d37a1452037c1603ce7f552987600160008a815260200190815260200160002060010160009054906101000a900473ffffffffffffffffffffffffffffffffffffffff16600160008b815260200190815260200160002060020160009054906101000a900473ffffffffffffffffffffffffffffffffffffffff1660405161284d9392919061563c565b60405180910390a15b50505050505050565b806001600082815260200190815260200160002060010160009054906101000a900473ffffffffffffffffffffffffffffffffffffffff1673ffffffffffffffffffffffffffffffffffffffff163373ffffffffffffffffffffffffffffffffffffffff1614612904576040517f08c379a00000000000000000000000000000000000000000000000000000000081526004016128fb906153a1565b60405180910390fd5b81600280600781111561291a576129196148e2565b5b60016000848152602001908152602001600020600f0160009054906101000a900460ff1660078111156129505761294f6148e2565b5b14612990576040517f08c379a00000000000000000000000000000000000000000000000000000000081526004016129879061540d565b60405180910390fd5b600160008581526020019081526020016000206005015460016000868152602001908152602001600020600901546129c89190615705565b4211612a09576040517f08c379a0000000000000000000000000000000000000000000000000000000008152600401612a0090615861565b60405180910390fd5b600560016000868152602001908152602001600020600f0160006101000a81548160ff02191690836007811115612a4357612a426148e2565b5b02179055506001600085815260200190815260200160002060010160009054906101000a900473ffffffffffffffffffffffffffffffffffffffff1673ffffffffffffffffffffffffffffffffffffffff166108fc60016000878152602001908152602001600020600301546001600088815260200190815260200160002060040154612ad09190615705565b9081150290604051600060405180830381858888f19350505050158015612afb573d6000803e3d6000fd5b507fb56ab0c8ca3c4a2f3256c9dab1834145295ed481d85fd1afde56ff8c7298c3ec6001600086815260200190815260200160002060010160009054906101000a900473ffffffffffffffffffffffffffffffffffffffff1660016000878152602001908152602001600020600301546001600088815260200190815260200160002060040154612b8c9190615705565b604051612b9a929190615604565b60405180910390a17f77df901e3c3426e23a34767cafcb99b6196af0f7676f4949f41e0f607c982dee846001600087815260200190815260200160002060010160009054906101000a900473ffffffffffffffffffffffffffffffffffffffff166001600088815260200190815260200160002060020160009054906101000a900473ffffffffffffffffffffffffffffffffffffffff16604051612c419392919061563c565b60405180910390a150505050565b60007f000000000000000000000000000000000000000000000000000000000000000073ffffffffffffffffffffffffffffffffffffffff163373ffffffffffffffffffffffffffffffffffffffff1614612cdf576040517f08c379a0000000000000000000000000000000000000000000000000000000008152600401612cd6906158f3565b60405180910390fd5b600280549050905090565b6000816001600082815260200190815260200160002060020160009054906101000a900473ffffffffffffffffffffffffffffffffffffffff1673ffffffffffffffffffffffffffffffffffffffff163373ffffffffffffffffffffffffffffffffffffffff1614612d91576040517f08c379a0000000000000000000000000000000000000000000000000000000008152600401612d88906156e5565b60405180910390fd5b826000806007811115612da757612da66148e2565b5b60016000848152602001908152602001600020600f0160009054906101000a900460ff166007811115612ddd57612ddc6148e2565b5b14612e1d576040517f08c379a0000000000000000000000000000000000000000000000000000000008152600401612e149061540d565b60405180910390fd5b84612e278161086a565b612e66576040517f08c379a0000000000000000000000000000000000000000000000000000000008152600401612e5d9061595f565b60405180910390fd5b6001600087815260200190815260200160002060030154945050505050919050565b60007f0000000000000000000000000000000000000000000000000000000000000000905090565b60008060009054906101000a900473ffffffffffffffffffffffffffffffffffffffff16905090565b86612ee38161086a565b15612f23576040517f08c379a0000000000000000000000000000000000000000000000000000000008152600401612f1a906159cb565b60405180910390fd5b60008054906101000a900473ffffffffffffffffffffffffffffffffffffffff1673ffffffffffffffffffffffffffffffffffffffff163373ffffffffffffffffffffffffffffffffffffffff1614612fb1576040517f08c379a0000000000000000000000000000000000000000000000000000000008152600401612fa890615a5d565b60405180910390fd5b600285612fbe91906157bb565b341015613000576040517f08c379a0000000000000000000000000000000000000000000000000000000008152600401612ff790615ac9565b60405180910390fd5b87600160008a81526020019081526020016000206000018190555086600160008a815260200190815260200160002060010160006101000a81548173ffffffffffffffffffffffffffffffffffffffff021916908373ffffffffffffffffffffffffffffffffffffffff16021790555034600160008a81526020019081526020016000206004018190555085600160008a815260200190815260200160002060020160006101000a81548173ffffffffffffffffffffffffffffffffffffffff021916908373ffffffffffffffffffffffffffffffffffffffff160217905550600a856130ed91906157bb565b600160008a81526020019081526020016000206003018190555084600160008a81526020019081526020016000206006018190555083600160008a81526020019081526020016000206005018190555082600160008a8152602001908152602001600020600e018190555081600160008a8152602001908152602001600020600c019080519060200190613182929190614609565b506000600160008a8152602001908152602001600020600f0160006101000a81548160ff021916908360078111156131bd576131bc6148e2565b5b02179055506000600160008a8152602001908152602001600020600f0160016101000a81548160ff021916908360028111156131fc576131fb6148e2565b5b021790555060028890806001815401808255809150506001900390600052602060002001600090919091909150557f86a1455bc0c745e7ed02d6d0658be68508dd1dea11eed285160e0688859ac7cb88888860405161325d93929190615ae9565b60405180910390a15050505050505050565b806001600082815260200190815260200160002060020160009054906101000a900473ffffffffffffffffffffffffffffffffffffffff1673ffffffffffffffffffffffffffffffffffffffff163373ffffffffffffffffffffffffffffffffffffffff1614613314576040517f08c379a000000000000000000000000000000000000000000000000000000000815260040161330b906156e5565b60405180910390fd5b81600080600781111561332a576133296148e2565b5b60016000848152602001908152602001600020600f0160009054906101000a900460ff1660078111156133605761335f6148e2565b5b146133a0576040517f08c379a00000000000000000000000000000000000000000000000000000000081526004016133979061540d565b60405180910390fd5b836133aa8161086a565b6133e9576040517f08c379a00000000000000000000000000000000000000000000000000000000081526004016133e09061595f565b60405180910390fd5b6001600086815260200190815260200160002060030154341015613442576040517f08c379a000000000000000000000000000000000000000000000000000000000815260040161343990615b92565b60405180910390fd5b426001600087815260200190815260200160002060090181905550346001600087815260200190815260200160002060030181905550600260016000878152602001908152602001600020600f0160006101000a81548160ff021916908360078111156134b2576134b16148e2565b5b02179055507f2a1f97202782a7c44b909186e1de5c2eff0dcce71cadb0aa37ef5fee96f60f79856001600088815260200190815260200160002060010160009054906101000a900473ffffffffffffffffffffffffffffffffffffffff166001600089815260200190815260200160002060020160009054906101000a900473ffffffffffffffffffffffffffffffffffffffff166040516135569392919061563c565b60405180910390a15050505050565b7f000000000000000000000000000000000000000000000000000000000000000073ffffffffffffffffffffffffffffffffffffffff163373ffffffffffffffffffffffffffffffffffffffff16146135f3576040517f08c379a00000000000000000000000000000000000000000000000000000000081526004016135ea906158f3565b60405180910390fd5b806000806101000a81548173ffffffffffffffffffffffffffffffffffffffff021916908373ffffffffffffffffffffffffffffffffffffffff16021790555050565b6060600060028054905067ffffffffffffffff81111561365957613658614edf565b5b60405190808252806020026020018201604052801561369257816020015b61367f614515565b8152602001906001900390816136775790505b5090506000805b600280549050811015613a5f578473ffffffffffffffffffffffffffffffffffffffff1660016000600284815481106136d5576136d4615288565b5b9060005260206000200154815260200190815260200160002060010160009054906101000a900473ffffffffffffffffffffffffffffffffffffffff1673ffffffffffffffffffffffffffffffffffffffff161415613a4c57600160006002838154811061374657613745615288565b5b9060005260206000200154815260200190815260200160002060405180610220016040529081600082015481526020016001820160009054906101000a900473ffffffffffffffffffffffffffffffffffffffff1673ffffffffffffffffffffffffffffffffffffffff1673ffffffffffffffffffffffffffffffffffffffff1681526020016002820160009054906101000a900473ffffffffffffffffffffffffffffffffffffffff1673ffffffffffffffffffffffffffffffffffffffff1673ffffffffffffffffffffffffffffffffffffffff16815260200160038201548152602001600482015481526020016005820154815260200160068201548152602001600782015481526020016008820154815260200160098201548152602001600a8201548152602001600b8201548152602001600c8201805461388b90615256565b80601f01602080910402602001604051908101604052809291908181526020018280546138b790615256565b80156139045780601f106138d957610100808354040283529160200191613904565b820191906000526020600020905b8154815290600101906020018083116138e757829003601f168201915b50505050508152602001600d8201805461391d90615256565b80601f016020809104026020016040519081016040528092919081815260200182805461394990615256565b80156139965780601f1061396b57610100808354040283529160200191613996565b820191906000526020600020905b81548152906001019060200180831161397957829003601f168201915b50505050508152602001600e8201548152602001600f820160009054906101000a900460ff1660078111156139ce576139cd6148e2565b5b60078111156139e0576139df6148e2565b5b8152602001600f820160019054906101000a900460ff166002811115613a0957613a086148e2565b5b6002811115613a1b57613a1a6148e2565b5b81525050838381518110613a3257613a31615288565b5b60200260200101819052508180613a48906152e6565b9250505b8080613a57906152e6565b915050613699565b5060008167ffffffffffffffff811115613a7c57613a7b614edf565b5b604051908082528060200260200182016040528015613ab557816020015b613aa2614515565b815260200190600190039081613a9a5790505b50905060005b82811015613b0f57838181518110613ad657613ad5615288565b5b6020026020010151828281518110613af157613af0615288565b5b60200260200101819052508080613b07906152e6565b915050613abb565b50809350505050919050565b7f000000000000000000000000000000000000000000000000000000000000000073ffffffffffffffffffffffffffffffffffffffff163373ffffffffffffffffffffffffffffffffffffffff1614613ba9576040517f08c379a0000000000000000000000000000000000000000000000000000000008152600401613ba0906158f3565b60405180910390fd5b80613bb38161086a565b613bf2576040517f08c379a0000000000000000000000000000000000000000000000000000000008152600401613be99061595f565b60405180910390fd5b600160008381526020019081526020016000206000808201600090556001820160006101000a81549073ffffffffffffffffffffffffffffffffffffffff02191690556002820160006101000a81549073ffffffffffffffffffffffffffffffffffffffff02191690556003820160009055600482016000905560058201600090556006820160009055600782016000905560088201600090556009820160009055600a820160009055600b820160009055600c82016000613cb4919061468f565b600d82016000613cc4919061468f565b600e820160009055600f820160006101000a81549060ff0219169055600f820160016101000a81549060ff0219169055505060005b600280549050811015613dbe578260028281548110613d1b57613d1a615288565b5b90600052602060002001541415613dab5760026001600280549050613d409190615499565b81548110613d5157613d50615288565b5b906000526020600020015460028281548110613d7057613d6f615288565b5b90600052602060002001819055506002805480613d9057613d8f615bb2565b5b60019003818190600052602060002001600090559055613dbe565b8080613db6906152e6565b915050613cf9565b507fa96209878fc4722b56527db6cf4b72ad6bfddb3ad9968f7de1125d02acc9aa1082604051613dee9190615be1565b60405180910390a15050565b6060816001600082815260200190815260200160002060020160009054906101000a900473ffffffffffffffffffffffffffffffffffffffff1673ffffffffffffffffffffffffffffffffffffffff163373ffffffffffffffffffffffffffffffffffffffff1614613ea1576040517f08c379a0000000000000000000000000000000000000000000000000000000008152600401613e98906156e5565b60405180910390fd5b826002806007811115613eb757613eb66148e2565b5b60016000848152602001908152602001600020600f0160009054906101000a900460ff166007811115613eed57613eec6148e2565b5b14613f2d576040517f08c379a0000000000000000000000000000000000000000000000000000000008152600401613f249061540d565b60405180910390fd5b60016000868152602001908152602001600020600c018054613f4e90615256565b80601f0160208091040260200160405190810160405280929190818152602001828054613f7a90615256565b8015613fc75780601f10613f9c57610100808354040283529160200191613fc7565b820191906000526020600020905b815481529060010190602001808311613faa57829003601f168201915b50505050509350505050919050565b806001600082815260200190815260200160002060010160009054906101000a900473ffffffffffffffffffffffffffffffffffffffff1673ffffffffffffffffffffffffffffffffffffffff163373ffffffffffffffffffffffffffffffffffffffff161461407b576040517f08c379a0000000000000000000000000000000000000000000000000000000008152600401614072906153a1565b60405180910390fd5b816000806007811115614091576140906148e2565b5b60016000848152602001908152602001600020600f0160009054906101000a900460ff1660078111156140c7576140c66148e2565b5b14614107576040517f08c379a00000000000000000000000000000000000000000000000000000000081526004016140fe9061540d565b60405180910390fd5b6001806000868152602001908152602001600020600f0160006101000a81548160ff021916908360078111156141405761413f6148e2565b5b02179055506001600085815260200190815260200160002060010160009054906101000a900473ffffffffffffffffffffffffffffffffffffffff1673ffffffffffffffffffffffffffffffffffffffff166108fc60016000878152602001908152602001600020600401549081150290604051600060405180830381858888f193505050501580156141d7573d6000803e3d6000fd5b507fb56ab0c8ca3c4a2f3256c9dab1834145295ed481d85fd1afde56ff8c7298c3ec6001600086815260200190815260200160002060010160009054906101000a900473ffffffffffffffffffffffffffffffffffffffff166001600087815260200190815260200160002060040154604051614255929190615604565b60405180910390a17f87c2138f706de178b7c62c30e6665ee7e0f2e6c70bb1f3a956fd37cad5159d15846001600087815260200190815260200160002060010160009054906101000a900473ffffffffffffffffffffffffffffffffffffffff166001600088815260200190815260200160002060020160009054906101000a900473ffffffffffffffffffffffffffffffffffffffff166040516142fc9392919061563c565b60405180910390a150505050565b600061025860016000848152602001908152602001600020600a01546143309190615705565b60016000848152602001908152602001600020600b015411158015614381575060016000838152602001908152602001600020600a015460016000848152602001908152602001600020600b015410155b80156143da5750600160008381526020019081526020016000206007015460016000848152602001908152602001600020600901546143c09190615705565b60016000848152602001908152602001600020600b015410155b80156144335750600160008381526020019081526020016000206007015460016000848152602001908152602001600020600901546144199190615705565b60016000848152602001908152602001600020600a015410155b9050919050565b6000600160008381526020019081526020016000206005015460016000848152602001908152602001600020600901546144749190615705565b60016000848152602001908152602001600020600a0154111580156144c557506001600083815260200190815260200160002060050154600160008481526020019081526020016000206007015411155b9050919050565b6000816040516020016144df9190615c38565b6040516020818303038152906040528051906020012060016000858152602001908152602001600020600e015414905092915050565b60405180610220016040528060008019168152602001600073ffffffffffffffffffffffffffffffffffffffff168152602001600073ffffffffffffffffffffffffffffffffffffffff168152602001600081526020016000815260200160008152602001600081526020016000815260200160008152602001600081526020016000815260200160008152602001606081526020016060815260200160008019168152602001600060078111156145d0576145cf6148e2565b5b8152602001600060028111156145e9576145e86148e2565b5b81525090565b604051806040016040528060008152602001600081525090565b82805461461590615256565b90600052602060002090601f016020900481019282614637576000855561467e565b82601f1061465057805160ff191683800117855561467e565b8280016001018555821561467e579182015b8281111561467d578251825591602001919060010190614662565b5b50905061468b91906146cf565b5090565b50805461469b90615256565b6000825580601f106146ad57506146cc565b601f0160209004906000526020600020908101906146cb91906146cf565b5b50565b5b808211156146e85760008160009055506001016146d0565b5090565b600082825260208201905092915050565b7f6261642063616c6c000000000000000000000000000000000000000000000000600082015250565b60006147336008836146ec565b915061473e826146fd565b602082019050919050565b6000602082019050818103600083015261476281614726565b9050919050565b6000604051905090565b600080fd5b600080fd5b6000819050919050565b6147908161477d565b811461479b57600080fd5b50565b6000813590506147ad81614787565b92915050565b6000602082840312156147c9576147c8614773565b5b60006147d78482850161479e565b91505092915050565b6147e98161477d565b82525050565b600073ffffffffffffffffffffffffffffffffffffffff82169050919050565b600061481a826147ef565b9050919050565b61482a8161480f565b82525050565b6000819050919050565b61484381614830565b82525050565b600081519050919050565b600082825260208201905092915050565b60005b83811015614883578082015181840152602081019050614868565b83811115614892576000848401525b50505050565b6000601f19601f8301169050919050565b60006148b482614849565b6148be8185614854565b93506148ce818560208601614865565b6148d781614898565b840191505092915050565b7f4e487b7100000000000000000000000000000000000000000000000000000000600052602160045260246000fd5b60088110614922576149216148e2565b5b50565b600081905061493382614911565b919050565b600061494382614925565b9050919050565b61495381614938565b82525050565b6003811061496a576149696148e2565b5b50565b600081905061497b82614959565b919050565b600061498b8261496d565b9050919050565b61499b81614980565b82525050565b6000610220830160008301516149ba60008601826147e0565b5060208301516149cd6020860182614821565b5060408301516149e06040860182614821565b5060608301516149f3606086018261483a565b506080830151614a06608086018261483a565b5060a0830151614a1960a086018261483a565b5060c0830151614a2c60c086018261483a565b5060e0830151614a3f60e086018261483a565b50610100830151614a5461010086018261483a565b50610120830151614a6961012086018261483a565b50610140830151614a7e61014086018261483a565b50610160830151614a9361016086018261483a565b50610180830151848203610180860152614aad82826148a9565b9150506101a08301518482036101a0860152614ac982826148a9565b9150506101c0830151614ae06101c08601826147e0565b506101e0830151614af56101e086018261494a565b50610200830151614b0a610200860182614992565b508091505092915050565b60006020820190508181036000830152614b2f81846149a1565b905092915050565b6000614b42826147ef565b9050919050565b614b5281614b37565b8114614b5d57600080fd5b50565b600081359050614b6f81614b49565b92915050565b600060208284031215614b8b57614b8a614773565b5b6000614b9984828501614b60565b91505092915050565b604082016000820151614bb8600085018261483a565b506020820151614bcb602085018261483a565b50505050565b6000604082019050614be66000830184614ba2565b92915050565b60008115159050919050565b614c0181614bec565b82525050565b6000602082019050614c1c6000830184614bf8565b92915050565b600081519050919050565b600082825260208201905092915050565b6000819050602082019050919050565b600061022083016000830151614c6760008601826147e0565b506020830151614c7a6020860182614821565b506040830151614c8d6040860182614821565b506060830151614ca0606086018261483a565b506080830151614cb3608086018261483a565b5060a0830151614cc660a086018261483a565b5060c0830151614cd960c086018261483a565b5060e0830151614cec60e086018261483a565b50610100830151614d0161010086018261483a565b50610120830151614d1661012086018261483a565b50610140830151614d2b61014086018261483a565b50610160830151614d4061016086018261483a565b50610180830151848203610180860152614d5a82826148a9565b9150506101a08301518482036101a0860152614d7682826148a9565b9150506101c0830151614d8d6101c08601826147e0565b506101e0830151614da26101e086018261494a565b50610200830151614db7610200860182614992565b508091505092915050565b6000614dce8383614c4e565b905092915050565b6000602082019050919050565b6000614dee82614c22565b614df88185614c2d565b935083602082028501614e0a85614c3e565b8060005b85811015614e465784840389528151614e278582614dc2565b9450614e3283614dd6565b925060208a01995050600181019050614e0e565b50829750879550505050505092915050565b60006020820190508181036000830152614e728184614de3565b905092915050565b6000614e8582614849565b614e8f81856146ec565b9350614e9f818560208601614865565b614ea881614898565b840191505092915050565b60006020820190508181036000830152614ecd8184614e7a565b905092915050565b600080fd5b600080fd5b7f4e487b7100000000000000000000000000000000000000000000000000000000600052604160045260246000fd5b614f1782614898565b810181811067ffffffffffffffff82111715614f3657614f35614edf565b5b80604052505050565b6000614f49614769565b9050614f558282614f0e565b919050565b600067ffffffffffffffff821115614f7557614f74614edf565b5b614f7e82614898565b9050602081019050919050565b82818337600083830152505050565b6000614fad614fa884614f5a565b614f3f565b905082815260208101848484011115614fc957614fc8614eda565b5b614fd4848285614f8b565b509392505050565b600082601f830112614ff157614ff0614ed5565b5b8135615001848260208601614f9a565b91505092915050565b6000806040838503121561502157615020614773565b5b600061502f8582860161479e565b925050602083013567ffffffffffffffff8111156150505761504f614778565b5b61505c85828601614fdc565b9150509250929050565b61506f81614830565b811461507a57600080fd5b50565b60008135905061508c81615066565b92915050565b600080600080608085870312156150ac576150ab614773565b5b60006150ba8782880161479e565b945050602085013567ffffffffffffffff8111156150db576150da614778565b5b6150e787828801614fdc565b93505060406150f88782880161507d565b92505060606151098782880161507d565b91505092959194509250565b61511e81614830565b82525050565b60006020820190506151396000830184615115565b92915050565b61514881614b37565b82525050565b6000602082019050615163600083018461513f565b92915050565b600080600080600080600060e0888a03121561518857615187614773565b5b60006151968a828b0161479e565b97505060206151a78a828b01614b60565b96505060406151b88a828b01614b60565b95505060606151c98a828b0161507d565b94505060806151da8a828b0161507d565b93505060a06151eb8a828b0161479e565b92505060c088013567ffffffffffffffff81111561520c5761520b614778565b5b6152188a828b01614fdc565b91505092959891949750929550565b7f4e487b7100000000000000000000000000000000000000000000000000000000600052602260045260246000fd5b6000600282049050600182168061526e57607f821691505b6020821081141561528257615281615227565b5b50919050565b7f4e487b7100000000000000000000000000000000000000000000000000000000600052603260045260246000fd5b7f4e487b7100000000000000000000000000000000000000000000000000000000600052601160045260246000fd5b60006152f182614830565b91507fffffffffffffffffffffffffffffffffffffffffffffffffffffffffffffffff821415615324576153236152b7565b5b600182019050919050565b7f4d6574686f642063616e2062652063616c6c6564206f6e6c7920627920636c6960008201527f656e742e00000000000000000000000000000000000000000000000000000000602082015250565b600061538b6024836146ec565b91506153968261532f565b604082019050919050565b600060208201905081810360008301526153ba8161537e565b9050919050565b7f496e76616c6964205461736b53746174652e0000000000000000000000000000600082015250565b60006153f76012836146ec565b9150615402826153c1565b602082019050919050565b60006020820190508181036000830152615426816153ea565b9050919050565b7f496e76616c6964205061796d656e7453746174652e0000000000000000000000600082015250565b60006154636015836146ec565b915061546e8261542d565b602082019050919050565b6000602082019050818103600083015261549281615456565b9050919050565b60006154a482614830565b91506154af83614830565b9250828210156154c2576154c16152b7565b5b828203905092915050565b7f56616c75652073656e74206973206e6f74207468652065787065637465640000600082015250565b6000615503601e836146ec565b915061550e826154cd565b602082019050919050565b60006020820190508181036000830152615532816154f6565b9050919050565b7f5061796d656e74206e6f74206e65656465640000000000000000000000000000600082015250565b600061556f6012836146ec565b915061557a82615539565b602082019050919050565b6000602082019050818103600083015261559e81615562565b9050919050565b6000819050919050565b60006155ca6155c56155c0846147ef565b6155a5565b6147ef565b9050919050565b60006155dc826155af565b9050919050565b60006155ee826155d1565b9050919050565b6155fe816155e3565b82525050565b600060408201905061561960008301856155f5565b6156266020830184615115565b9392505050565b6156368161477d565b82525050565b6000606082019050615651600083018661562d565b61565e60208301856155f5565b61566b60408301846155f5565b949350505050565b7f4d6574686f642063616e2062652063616c6c6564206f6e6c792062792070726f60008201527f76696465722e0000000000000000000000000000000000000000000000000000602082015250565b60006156cf6026836146ec565b91506156da82615673565b604082019050919050565b600060208201905081810360008301526156fe816156c2565b9050919050565b600061571082614830565b915061571b83614830565b9250827fffffffffffffffffffffffffffffffffffffffffffffffffffffffffffffffff038211156157505761574f6152b7565b5b828201905092915050565b6000606082019050615770600083018661562d565b61577d60208301856155f5565b61578a6040830184615115565b949350505050565b60006040820190506157a760008301856155f5565b6157b4602083018461562d565b9392505050565b60006157c682614830565b91506157d183614830565b9250817fffffffffffffffffffffffffffffffffffffffffffffffffffffffffffffffff048311821515161561580a576158096152b7565b5b828202905092915050565b7f54696d6520686173206e6f7420657870697265642e0000000000000000000000600082015250565b600061584b6015836146ec565b915061585682615815565b602082019050919050565b6000602082019050818103600083015261587a8161583e565b9050919050565b7f4d6574686f642063616e2062652063616c6c6564206f6e6c79206279206f776e60008201527f65722e0000000000000000000000000000000000000000000000000000000000602082015250565b60006158dd6023836146ec565b91506158e882615881565b604082019050919050565b6000602082019050818103600083015261590c816158d0565b9050919050565b7f5461736b206d7573742062652072656769737465726564000000000000000000600082015250565b60006159496017836146ec565b915061595482615913565b602082019050919050565b600060208201905081810360008301526159788161593c565b9050919050565b7f5461736b20616c72656164792065786973747300000000000000000000000000600082015250565b60006159b56013836146ec565b91506159c08261597f565b602082019050919050565b600060208201905081810360008301526159e4816159a8565b9050919050565b7f4d6574686f642063616e2062652063616c6c6564206f6e6c792062792061756360008201527f74696f6e2e000000000000000000000000000000000000000000000000000000602082015250565b6000615a476025836146ec565b9150615a52826159eb565b604082019050919050565b60006020820190508181036000830152615a7681615a3a565b9050919050565b7f436c69656e7420636f6c6c61746572616c206973206e6f7420656e6f75676800600082015250565b6000615ab3601f836146ec565b9150615abe82615a7d565b602082019050919050565b60006020820190508181036000830152615ae281615aa6565b9050919050565b6000606082019050615afe600083018661562d565b615b0b602083018561513f565b615b18604083018461513f565b949350505050565b7f50726f766964657220636f6c6c61746572616c206973206e6f7420656e6f756760008201527f6800000000000000000000000000000000000000000000000000000000000000602082015250565b6000615b7c6021836146ec565b9150615b8782615b20565b604082019050919050565b60006020820190508181036000830152615bab81615b6f565b9050919050565b7f4e487b7100000000000000000000000000000000000000000000000000000000600052603160045260246000fd5b6000602082019050615bf6600083018461562d565b92915050565b600081905092915050565b6000615c1282614849565b615c1c8185615bfc565b9350615c2c818560208601614865565b80840191505092915050565b6000615c448284615c07565b91508190509291505056fea26469706673582212203db12ea41729e18be515da25dcf62be41ad36baef87cacbbc2f06f7d6b5f2fa764736f6c63430008080033",
  "devdoc": {
    "kind": "dev",
    "methods": {},
    "version": 1
  },
  "userdoc": {
    "kind": "user",
    "methods": {},
    "version": 1
  },
  "storageLayout": {
    "storage": [
      {
        "astId": 1273,
        "contract": "contracts/TasksManager.sol:TasksManager",
        "label": "auctionAddress",
        "offset": 0,
        "slot": "0",
        "type": "t_address"
      },
      {
        "astId": 1333,
        "contract": "contracts/TasksManager.sol:TasksManager",
        "label": "tasks",
        "offset": 0,
        "slot": "1",
        "type": "t_mapping(t_bytes32,t_struct(Task)1323_storage)"
      },
      {
        "astId": 1336,
        "contract": "contracts/TasksManager.sol:TasksManager",
        "label": "bytes32_tasks",
        "offset": 0,
        "slot": "2",
        "type": "t_array(t_bytes32)dyn_storage"
      },
      {
        "astId": 1341,
        "contract": "contracts/TasksManager.sol:TasksManager",
        "label": "performance",
        "offset": 0,
        "slot": "3",
        "type": "t_mapping(t_address,t_struct(providerRating)1328_storage)"
      }
    ],
    "types": {
      "t_address": {
        "encoding": "inplace",
        "label": "address",
        "numberOfBytes": "20"
      },
      "t_address_payable": {
        "encoding": "inplace",
        "label": "address payable",
        "numberOfBytes": "20"
      },
      "t_array(t_bytes32)dyn_storage": {
        "base": "t_bytes32",
        "encoding": "dynamic_array",
        "label": "bytes32[]",
        "numberOfBytes": "32"
      },
      "t_bytes32": {
        "encoding": "inplace",
        "label": "bytes32",
        "numberOfBytes": "32"
      },
      "t_enum(PaymentState)1286": {
        "encoding": "inplace",
        "label": "enum TasksManager.PaymentState",
        "numberOfBytes": "1"
      },
      "t_enum(TaskState)1282": {
        "encoding": "inplace",
        "label": "enum TasksManager.TaskState",
        "numberOfBytes": "1"
      },
      "t_mapping(t_address,t_struct(providerRating)1328_storage)": {
        "encoding": "mapping",
        "key": "t_address",
        "label": "mapping(address => struct TasksManager.providerRating)",
        "numberOfBytes": "32",
        "value": "t_struct(providerRating)1328_storage"
      },
      "t_mapping(t_bytes32,t_struct(Task)1323_storage)": {
        "encoding": "mapping",
        "key": "t_bytes32",
        "label": "mapping(bytes32 => struct TasksManager.Task)",
        "numberOfBytes": "32",
        "value": "t_struct(Task)1323_storage"
      },
      "t_string_storage": {
        "encoding": "bytes",
        "label": "string",
        "numberOfBytes": "32"
      },
      "t_struct(Task)1323_storage": {
        "encoding": "inplace",
        "label": "struct TasksManager.Task",
        "members": [
          {
            "astId": 1288,
            "contract": "contracts/TasksManager.sol:TasksManager",
            "label": "taskID",
            "offset": 0,
            "slot": "0",
            "type": "t_bytes32"
          },
          {
            "astId": 1290,
            "contract": "contracts/TasksManager.sol:TasksManager",
            "label": "client",
            "offset": 0,
            "slot": "1",
            "type": "t_address_payable"
          },
          {
            "astId": 1292,
            "contract": "contracts/TasksManager.sol:TasksManager",
            "label": "provider",
            "offset": 0,
            "slot": "2",
            "type": "t_address_payable"
          },
          {
            "astId": 1294,
            "contract": "contracts/TasksManager.sol:TasksManager",
            "label": "providerCollateral",
            "offset": 0,
            "slot": "3",
            "type": "t_uint256"
          },
          {
            "astId": 1296,
            "contract": "contracts/TasksManager.sol:TasksManager",
            "label": "clientCollateral",
            "offset": 0,
            "slot": "4",
            "type": "t_uint256"
          },
          {
            "astId": 1298,
            "contract": "contracts/TasksManager.sol:TasksManager",
            "label": "deadline",
            "offset": 0,
            "slot": "5",
            "type": "t_uint256"
          },
          {
            "astId": 1300,
            "contract": "contracts/TasksManager.sol:TasksManager",
            "label": "price",
            "offset": 0,
            "slot": "6",
            "type": "t_uint256"
          },
          {
            "astId": 1302,
            "contract": "contracts/TasksManager.sol:TasksManager",
            "label": "duration",
            "offset": 0,
            "slot": "7",
            "type": "t_uint256"
          },
          {
            "astId": 1304,
            "contract": "contracts/TasksManager.sol:TasksManager",
            "label": "cost",
            "offset": 0,
            "slot": "8",
            "type": "t_uint256"
          },
          {
            "astId": 1306,
            "contract": "contracts/TasksManager.sol:TasksManager",
            "label": "activationTime",
            "offset": 0,
            "slot": "9",
            "type": "t_uint256"
          },
          {
            "astId": 1308,
            "contract": "contracts/TasksManager.sol:TasksManager",
            "label": "timeResultProvided",
            "offset": 0,
            "slot": "10",
            "type": "t_uint256"
          },
          {
            "astId": 1310,
            "contract": "contracts/TasksManager.sol:TasksManager",
            "label": "timeResultReceived",
            "offset": 0,
            "slot": "11",
            "type": "t_uint256"
          },
          {
            "astId": 1312,
            "contract": "contracts/TasksManager.sol:TasksManager",
            "label": "code",
            "offset": 0,
            "slot": "12",
            "type": "t_string_storage"
          },
          {
            "astId": 1314,
            "contract": "contracts/TasksManager.sol:TasksManager",
            "label": "results",
            "offset": 0,
            "slot": "13",
            "type": "t_string_storage"
          },
          {
            "astId": 1316,
            "contract": "contracts/TasksManager.sol:TasksManager",
            "label": "clientVerification",
            "offset": 0,
            "slot": "14",
            "type": "t_bytes32"
          },
          {
            "astId": 1319,
            "contract": "contracts/TasksManager.sol:TasksManager",
            "label": "taskState",
            "offset": 0,
            "slot": "15",
            "type": "t_enum(TaskState)1282"
          },
          {
            "astId": 1322,
            "contract": "contracts/TasksManager.sol:TasksManager",
            "label": "paymentState",
            "offset": 1,
            "slot": "15",
            "type": "t_enum(PaymentState)1286"
          }
        ],
        "numberOfBytes": "512"
      },
      "t_struct(providerRating)1328_storage": {
        "encoding": "inplace",
        "label": "struct TasksManager.providerRating",
        "members": [
          {
            "astId": 1325,
            "contract": "contracts/TasksManager.sol:TasksManager",
            "label": "upVotes",
            "offset": 0,
            "slot": "0",
            "type": "t_uint256"
          },
          {
            "astId": 1327,
            "contract": "contracts/TasksManager.sol:TasksManager",
            "label": "downVotes",
            "offset": 0,
            "slot": "1",
            "type": "t_uint256"
          }
        ],
        "numberOfBytes": "64"
      },
      "t_uint256": {
        "encoding": "inplace",
        "label": "uint256",
        "numberOfBytes": "32"
      }
    }
  }
}