{
  "address": "0xfd9f59533F72714b4d0Fa59F3f516B0dcaA9e90e",
  "abi": [
    {
      "inputs": [],
      "stateMutability": "nonpayable",
      "type": "constructor"
    },
    {
      "anonymous": false,
      "inputs": [
        {
          "indexed": false,
          "internalType": "bytes32",
          "name": "taskID",
          "type": "bytes32"
        }
      ],
      "name": "PaymentCompleted",
      "type": "event"
    },
    {
      "anonymous": false,
      "inputs": [
        {
          "indexed": false,
          "internalType": "bytes32",
          "name": "taskID",
          "type": "bytes32"
        },
        {
          "indexed": false,
          "internalType": "uint256",
          "name": "payment",
          "type": "uint256"
        }
      ],
      "name": "PaymentPending",
      "type": "event"
    },
    {
      "anonymous": false,
      "inputs": [
        {
          "indexed": false,
          "internalType": "address",
          "name": "provider",
          "type": "address"
        },
        {
          "indexed": false,
          "internalType": "bytes32",
          "name": "taskID",
          "type": "bytes32"
        }
      ],
      "name": "ProviderDownvoted",
      "type": "event"
    },
    {
      "anonymous": false,
      "inputs": [
        {
          "indexed": false,
          "internalType": "address",
          "name": "provider",
          "type": "address"
        },
        {
          "indexed": false,
          "internalType": "bytes32",
          "name": "taskID",
          "type": "bytes32"
        }
      ],
      "name": "ProviderUpvoted",
      "type": "event"
    },
    {
      "anonymous": false,
      "inputs": [
        {
          "indexed": false,
          "internalType": "bytes32",
          "name": "taskID",
          "type": "bytes32"
        }
      ],
      "name": "TaskActivated",
      "type": "event"
    },
    {
      "anonymous": false,
      "inputs": [
        {
          "indexed": false,
          "internalType": "bytes32",
          "name": "taskID",
          "type": "bytes32"
        }
      ],
      "name": "TaskCancelled",
      "type": "event"
    },
    {
      "anonymous": false,
      "inputs": [
        {
          "indexed": false,
          "internalType": "bytes32",
          "name": "taskID",
          "type": "bytes32"
        }
      ],
      "name": "TaskCompletedSuccessfully",
      "type": "event"
    },
    {
      "anonymous": false,
      "inputs": [
        {
          "indexed": false,
          "internalType": "bytes32",
          "name": "taskID",
          "type": "bytes32"
        }
      ],
      "name": "TaskCompletedUnsuccessfully",
      "type": "event"
    },
    {
      "anonymous": false,
      "inputs": [
        {
          "indexed": false,
          "internalType": "bytes32",
          "name": "taskID",
          "type": "bytes32"
        }
      ],
      "name": "TaskCreated",
      "type": "event"
    },
    {
      "anonymous": false,
      "inputs": [
        {
          "indexed": false,
          "internalType": "bytes32",
          "name": "taskID",
          "type": "bytes32"
        }
      ],
      "name": "TaskDeleted",
      "type": "event"
    },
    {
      "anonymous": false,
      "inputs": [
        {
          "indexed": false,
          "internalType": "bytes32",
          "name": "taskID",
          "type": "bytes32"
        }
      ],
      "name": "TaskInvalidated",
      "type": "event"
    },
    {
      "anonymous": false,
      "inputs": [
        {
          "indexed": false,
          "internalType": "bytes32",
          "name": "taskID",
          "type": "bytes32"
        }
      ],
      "name": "TaskReceivedResultsSuccessfully",
      "type": "event"
    },
    {
      "anonymous": false,
      "inputs": [
        {
          "indexed": false,
          "internalType": "bytes32",
          "name": "taskID",
          "type": "bytes32"
        }
      ],
      "name": "TaskReceivedResultsUnsuccessfully",
      "type": "event"
    },
    {
      "anonymous": false,
      "inputs": [
        {
          "indexed": false,
          "internalType": "address",
          "name": "client",
          "type": "address"
        },
        {
          "indexed": false,
          "internalType": "uint256",
          "name": "amount",
          "type": "uint256"
        }
      ],
      "name": "TransferMadeToClient",
      "type": "event"
    },
    {
      "anonymous": false,
      "inputs": [
        {
          "indexed": false,
          "internalType": "address",
          "name": "provider",
          "type": "address"
        },
        {
          "indexed": false,
          "internalType": "uint256",
          "name": "amount",
          "type": "uint256"
        }
      ],
      "name": "TransferMadeToProvider",
      "type": "event"
    },
    {
      "stateMutability": "payable",
      "type": "fallback"
    },
    {
      "inputs": [
        {
          "internalType": "bytes32",
          "name": "_taskID",
          "type": "bytes32"
        }
      ],
      "name": "activateTask",
      "outputs": [],
      "stateMutability": "payable",
      "type": "function"
    },
    {
      "inputs": [
        {
          "internalType": "bytes32",
          "name": "_taskID",
          "type": "bytes32"
        }
      ],
      "name": "cancelTask",
      "outputs": [],
      "stateMutability": "nonpayable",
      "type": "function"
    },
    {
      "inputs": [
        {
          "internalType": "bytes32",
          "name": "_taskID",
          "type": "bytes32"
        }
      ],
      "name": "completePayment",
      "outputs": [],
      "stateMutability": "payable",
      "type": "function"
    },
    {
      "inputs": [
        {
          "internalType": "bytes32",
          "name": "_taskID",
          "type": "bytes32"
        },
        {
          "internalType": "string",
          "name": "ver",
          "type": "string"
        },
        {
          "internalType": "uint256",
          "name": "_duration",
          "type": "uint256"
        },
        {
          "internalType": "uint256",
          "name": "_timeReceivedProvider",
          "type": "uint256"
        }
      ],
      "name": "completeTask",
      "outputs": [],
      "stateMutability": "nonpayable",
      "type": "function"
    },
    {
      "inputs": [
        {
          "internalType": "bytes32",
          "name": "_taskID",
          "type": "bytes32"
        },
        {
          "internalType": "address",
          "name": "_client",
          "type": "address"
        },
        {
          "internalType": "address",
          "name": "_provider",
          "type": "address"
        },
        {
          "internalType": "uint256",
          "name": "_price",
          "type": "uint256"
        },
        {
          "internalType": "uint256",
          "name": "_deadline",
          "type": "uint256"
        },
        {
          "internalType": "bytes32",
          "name": "_clientVerification",
          "type": "bytes32"
        },
        {
          "internalType": "string",
          "name": "_verificationCode",
          "type": "string"
        },
        {
          "internalType": "string",
          "name": "_computationCode",
          "type": "string"
        }
      ],
      "name": "createTask",
      "outputs": [],
      "stateMutability": "payable",
      "type": "function"
    },
    {
      "inputs": [
        {
          "internalType": "bytes32",
          "name": "_taskID",
          "type": "bytes32"
        }
      ],
      "name": "deleteTask",
      "outputs": [],
      "stateMutability": "nonpayable",
      "type": "function"
    },
    {
      "inputs": [],
      "name": "deleteTasks",
      "outputs": [],
      "stateMutability": "nonpayable",
      "type": "function"
    },
    {
      "inputs": [
        {
          "internalType": "bytes32",
          "name": "_taskID",
          "type": "bytes32"
        }
      ],
      "name": "getActivationTime",
      "outputs": [
        {
          "internalType": "uint256",
          "name": "",
          "type": "uint256"
        }
      ],
      "stateMutability": "view",
      "type": "function"
    },
    {
      "inputs": [],
      "name": "getActiveTasks",
      "outputs": [
        {
          "internalType": "uint256",
          "name": "",
          "type": "uint256"
        }
      ],
      "stateMutability": "view",
      "type": "function"
    },
    {
      "inputs": [],
      "name": "getAuctionAddress",
      "outputs": [
        {
          "internalType": "address",
          "name": "",
          "type": "address"
        }
      ],
      "stateMutability": "view",
      "type": "function"
    },
    {
      "inputs": [
        {
          "internalType": "bytes32",
          "name": "_taskID",
          "type": "bytes32"
        }
      ],
      "name": "getComputationCode",
      "outputs": [
        {
          "internalType": "string",
          "name": "",
          "type": "string"
        }
      ],
      "stateMutability": "view",
      "type": "function"
    },
    {
      "inputs": [
        {
          "internalType": "bytes32",
          "name": "_taskID",
          "type": "bytes32"
        }
      ],
      "name": "getLastUpdateTimestamp",
      "outputs": [
        {
          "internalType": "uint256",
          "name": "",
          "type": "uint256"
        }
      ],
      "stateMutability": "view",
      "type": "function"
    },
    {
      "inputs": [],
      "name": "getOwner",
      "outputs": [
        {
          "internalType": "address",
          "name": "",
          "type": "address"
        }
      ],
      "stateMutability": "view",
      "type": "function"
    },
    {
      "inputs": [
        {
          "internalType": "bytes32",
          "name": "_taskID",
          "type": "bytes32"
        }
      ],
      "name": "getPaymentState",
      "outputs": [
        {
          "internalType": "string",
          "name": "",
          "type": "string"
        }
      ],
      "stateMutability": "view",
      "type": "function"
    },
    {
      "inputs": [
        {
          "internalType": "address",
          "name": "provider",
          "type": "address"
        }
      ],
      "name": "getPerformance",
      "outputs": [
        {
          "components": [
            {
              "internalType": "uint256",
              "name": "upVotes",
              "type": "uint256"
            },
            {
              "internalType": "uint256",
              "name": "downVotes",
              "type": "uint256"
            }
          ],
          "internalType": "struct TasksManager.providerRating",
          "name": "",
          "type": "tuple"
        }
      ],
      "stateMutability": "view",
      "type": "function"
    },
    {
      "inputs": [
        {
          "internalType": "bytes32",
          "name": "_taskID",
          "type": "bytes32"
        }
      ],
      "name": "getResults",
      "outputs": [
        {
          "internalType": "string",
          "name": "",
          "type": "string"
        }
      ],
      "stateMutability": "view",
      "type": "function"
    },
    {
      "inputs": [
        {
          "internalType": "bytes32",
          "name": "_taskID",
          "type": "bytes32"
        }
      ],
      "name": "getTask",
      "outputs": [
        {
          "components": [
            {
              "internalType": "address payable",
              "name": "client",
              "type": "address"
            },
            {
              "internalType": "address payable",
              "name": "provider",
              "type": "address"
            },
            {
              "internalType": "uint256",
              "name": "providerCollateral",
              "type": "uint256"
            },
            {
              "internalType": "uint256",
              "name": "clientCollateral",
              "type": "uint256"
            },
            {
              "internalType": "uint256",
              "name": "deadline",
              "type": "uint256"
            },
            {
              "internalType": "uint256",
              "name": "price",
              "type": "uint256"
            },
            {
              "internalType": "uint256",
              "name": "duration",
              "type": "uint256"
            },
            {
              "internalType": "uint256",
              "name": "cost",
              "type": "uint256"
            },
            {
              "internalType": "uint256",
              "name": "activationTime",
              "type": "uint256"
            },
            {
              "internalType": "uint256",
              "name": "timeResultProvided",
              "type": "uint256"
            },
            {
              "internalType": "uint256",
              "name": "timeResultReceived",
              "type": "uint256"
            },
            {
              "internalType": "string",
              "name": "computationCode",
              "type": "string"
            },
            {
              "internalType": "string",
              "name": "verificationCode",
              "type": "string"
            },
            {
              "internalType": "string",
              "name": "results",
              "type": "string"
            },
            {
              "internalType": "bytes32",
              "name": "clientVerification",
              "type": "bytes32"
            },
            {
              "internalType": "uint256",
              "name": "lastUpdateTimestamp",
              "type": "uint256"
            },
            {
              "internalType": "enum TasksManager.TaskState",
              "name": "taskState",
              "type": "uint8"
            },
            {
              "internalType": "enum TasksManager.PaymentState",
              "name": "paymentState",
              "type": "uint8"
            }
          ],
          "internalType": "struct TasksManager.Task",
          "name": "",
          "type": "tuple"
        }
      ],
      "stateMutability": "view",
      "type": "function"
    },
    {
      "inputs": [
        {
          "internalType": "bytes32",
          "name": "_taskID",
          "type": "bytes32"
        }
      ],
      "name": "getTaskState",
      "outputs": [
        {
          "internalType": "string",
          "name": "",
          "type": "string"
        }
      ],
      "stateMutability": "view",
      "type": "function"
    },
    {
      "inputs": [
        {
          "internalType": "bytes32",
          "name": "_taskID",
          "type": "bytes32"
        }
      ],
      "name": "getVerificationCode",
      "outputs": [
        {
          "internalType": "string",
          "name": "",
          "type": "string"
        }
      ],
      "stateMutability": "view",
      "type": "function"
    },
    {
      "inputs": [
        {
          "internalType": "bytes32",
          "name": "_taskID",
          "type": "bytes32"
        }
      ],
      "name": "invalidateTask",
      "outputs": [],
      "stateMutability": "nonpayable",
      "type": "function"
    },
    {
      "inputs": [
        {
          "internalType": "bytes32",
          "name": "_taskID",
          "type": "bytes32"
        }
      ],
      "name": "isRegistered",
      "outputs": [
        {
          "internalType": "bool",
          "name": "",
          "type": "bool"
        }
      ],
      "stateMutability": "view",
      "type": "function"
    },
    {
      "inputs": [
        {
          "internalType": "bytes32",
          "name": "_taskID",
          "type": "bytes32"
        },
        {
          "internalType": "string",
          "name": "_results",
          "type": "string"
        }
      ],
      "name": "sendResults",
      "outputs": [],
      "stateMutability": "nonpayable",
      "type": "function"
    },
    {
      "inputs": [
        {
          "internalType": "address",
          "name": "_auctionAddress",
          "type": "address"
        }
      ],
      "name": "setAuctionAddress",
      "outputs": [],
      "stateMutability": "nonpayable",
      "type": "function"
    },
    {
      "stateMutability": "payable",
      "type": "receive"
    }
  ],
  "transactionHash": "0xf3ef4e77ee2c29ae925ced9c73616c0b5064c77a3e465f00809f2c544c2c224f",
  "args": [],
  "numDeployments": 1,
  "solcInputHash": "5a87cdbd6c09ecc97707460b3085c35b",
  "bytecode": "0x60a060405234801561001057600080fd5b503373ffffffffffffffffffffffffffffffffffffffff1660808173ffffffffffffffffffffffffffffffffffffffff1660601b8152505060805160601c615bd162000091600039600081816126ea0152818161294501528181612e9b0152818161318b01528181613336015281816139820152613e520152615bd16000f3fe6080604052600436106101445760003560e01c806370970122116100b657806393ac36381161006f57806393ac3638146104e2578063ab210cc81461050b578063c8e669a814610548578063d75ff46614610564578063e64f15a21461057b578063ee8ca3b5146105a457610184565b806370970122146103b957806370ad1976146103f65780638693944d14610433578063893d20e8146104705780638b9ca8851461049b57806392b83320146104c657610184565b806347ca8a8b1161010857806347ca8a8b146102ba5780634b017c7a146102d6578063513a6698146102ff57806354706b5a146103285780636127f2461461035157806364f9fa801461037c57610184565b806315a29035146101895780631ecc9aaf146101c657806325f301cb1461020357806327258b221461024057806346475c4c1461027d57610184565b36610184576040517f08c379a000000000000000000000000000000000000000000000000000000000815260040161017b90614861565b60405180910390fd5b600080fd5b34801561019557600080fd5b506101b060048036038101906101ab91906148cb565b6105cd565b6040516101bd9190614c49565b60405180910390f35b3480156101d257600080fd5b506101ed60048036038101906101e89190614ca9565b610941565b6040516101fa9190614d05565b60405180910390f35b34801561020f57600080fd5b5061022a600480360381019061022591906148cb565b6109ae565b6040516102379190614d59565b60405180910390f35b34801561024c57600080fd5b50610267600480360381019061026291906148cb565b610a56565b6040516102749190614d96565b60405180910390f35b34801561028957600080fd5b506102a4600480360381019061029f91906148cb565b610ac5565b6040516102b19190614d59565b60405180910390f35b6102d460048036038101906102cf91906148cb565b610d2f565b005b3480156102e257600080fd5b506102fd60048036038101906102f89190614ee6565b6111ad565b005b34801561030b57600080fd5b5061032660048036038101906103219190614f6e565b611de8565b005b34801561033457600080fd5b5061034f600480360381019061034a91906148cb565b61234b565b005b34801561035d57600080fd5b506103666126e6565b6040516103739190615000565b60405180910390f35b34801561038857600080fd5b506103a3600480360381019061039e91906148cb565b612781565b6040516103b09190615000565b60405180910390f35b3480156103c557600080fd5b506103e060048036038101906103db91906148cb565b6127a1565b6040516103ed9190614d59565b60405180910390f35b34801561040257600080fd5b5061041d600480360381019061041891906148cb565b612849565b60405161042a9190615000565b60405180910390f35b34801561043f57600080fd5b5061045a600480360381019061045591906148cb565b612869565b6040516104679190614d59565b60405180910390f35b34801561047c57600080fd5b50610485612e97565b604051610492919061502a565b60405180910390f35b3480156104a757600080fd5b506104b0612ebf565b6040516104bd919061502a565b60405180910390f35b6104e060048036038101906104db91906148cb565b612ee8565b005b3480156104ee57600080fd5b5061050960048036038101906105049190614ca9565b613189565b005b34801561051757600080fd5b50610532600480360381019061052d91906148cb565b61325a565b60405161053f9190614d59565b60405180910390f35b610562600480360381019061055d9190615045565b6135c2565b005b34801561057057600080fd5b50610579613980565b005b34801561058757600080fd5b506105a2600480360381019061059d91906148cb565b613e50565b005b3480156105b057600080fd5b506105cb60048036038101906105c691906148cb565b61413f565b005b6105d5614629565b60016000838152602001908152602001600020604051806102400160405290816000820160009054906101000a900473ffffffffffffffffffffffffffffffffffffffff1673ffffffffffffffffffffffffffffffffffffffff1673ffffffffffffffffffffffffffffffffffffffff1681526020016001820160009054906101000a900473ffffffffffffffffffffffffffffffffffffffff1673ffffffffffffffffffffffffffffffffffffffff1673ffffffffffffffffffffffffffffffffffffffff1681526020016002820154815260200160038201548152602001600482015481526020016005820154815260200160068201548152602001600782015481526020016008820154815260200160098201548152602001600a8201548152602001600b8201805461070a90615162565b80601f016020809104026020016040519081016040528092919081815260200182805461073690615162565b80156107835780601f1061075857610100808354040283529160200191610783565b820191906000526020600020905b81548152906001019060200180831161076657829003601f168201915b50505050508152602001600c8201805461079c90615162565b80601f01602080910402602001604051908101604052809291908181526020018280546107c890615162565b80156108155780601f106107ea57610100808354040283529160200191610815565b820191906000526020600020905b8154815290600101906020018083116107f857829003601f168201915b50505050508152602001600d8201805461082e90615162565b80601f016020809104026020016040519081016040528092919081815260200182805461085a90615162565b80156108a75780601f1061087c576101008083540402835291602001916108a7565b820191906000526020600020905b81548152906001019060200180831161088a57829003601f168201915b50505050508152602001600e8201548152602001600f82015481526020016010820160009054906101000a900460ff1660078111156108e9576108e86149fa565b5b60078111156108fb576108fa6149fa565b5b81526020016010820160019054906101000a900460ff166002811115610924576109236149fa565b5b6002811115610936576109356149fa565b5b815250509050919050565b610949614707565b600360008373ffffffffffffffffffffffffffffffffffffffff1673ffffffffffffffffffffffffffffffffffffffff168152602001908152602001600020604051806040016040529081600082015481526020016001820154815250509050919050565b606060016000838152602001908152602001600020600c0180546109d190615162565b80601f01602080910402602001604051908101604052809291908181526020018280546109fd90615162565b8015610a4a5780601f10610a1f57610100808354040283529160200191610a4a565b820191906000526020600020905b815481529060010190602001808311610a2d57829003601f168201915b50505050509050919050565b60008073ffffffffffffffffffffffffffffffffffffffff166001600084815260200190815260200160002060000160009054906101000a900473ffffffffffffffffffffffffffffffffffffffff1673ffffffffffffffffffffffffffffffffffffffff1614159050919050565b6060816001600082815260200190815260200160002060000160009054906101000a900473ffffffffffffffffffffffffffffffffffffffff1673ffffffffffffffffffffffffffffffffffffffff163373ffffffffffffffffffffffffffffffffffffffff1614610b6c576040517f08c379a0000000000000000000000000000000000000000000000000000000008152600401610b6390615206565b60405180910390fd5b826006806007811115610b8257610b816149fa565b5b6001600084815260200190815260200160002060100160009054906101000a900460ff166007811115610bb857610bb76149fa565b5b14610bf8576040517f08c379a0000000000000000000000000000000000000000000000000000000008152600401610bef90615272565b60405180910390fd5b846002806002811115610c0e57610c0d6149fa565b5b6001600084815260200190815260200160002060100160019054906101000a900460ff166002811115610c4457610c436149fa565b5b14610c84576040517f08c379a0000000000000000000000000000000000000000000000000000000008152600401610c7b906152de565b60405180910390fd5b60016000888152602001908152602001600020600d018054610ca590615162565b80601f0160208091040260200160405190810160405280929190818152602001828054610cd190615162565b8015610d1e5780601f10610cf357610100808354040283529160200191610d1e565b820191906000526020600020905b815481529060010190602001808311610d0157829003601f168201915b505050505095505050505050919050565b806001600082815260200190815260200160002060000160009054906101000a900473ffffffffffffffffffffffffffffffffffffffff1673ffffffffffffffffffffffffffffffffffffffff163373ffffffffffffffffffffffffffffffffffffffff1614610dd4576040517f08c379a0000000000000000000000000000000000000000000000000000000008152600401610dcb90615206565b60405180910390fd5b816006806007811115610dea57610de96149fa565b5b6001600084815260200190815260200160002060100160009054906101000a900460ff166007811115610e2057610e1f6149fa565b5b14610e60576040517f08c379a0000000000000000000000000000000000000000000000000000000008152600401610e5790615272565b60405180910390fd5b836001806002811115610e7657610e756149fa565b5b6001600084815260200190815260200160002060100160019054906101000a900460ff166002811115610eac57610eab6149fa565b5b14610eec576040517f08c379a0000000000000000000000000000000000000000000000000000000008152600401610ee3906152de565b60405180910390fd5b60016000878152602001908152602001600020600301546001600088815260200190815260200160002060070154610f24919061532d565b803414610f66576040517f08c379a0000000000000000000000000000000000000000000000000000000008152600401610f5d906153ad565b60405180910390fd5b60016002811115610f7a57610f796149fa565b5b6001600089815260200190815260200160002060100160019054906101000a900460ff166002811115610fb057610faf6149fa565b5b14610ff0576040517f08c379a0000000000000000000000000000000000000000000000000000000008152600401610fe790615419565b60405180910390fd5b6001600088815260200190815260200160002060010160009054906101000a900473ffffffffffffffffffffffffffffffffffffffff1673ffffffffffffffffffffffffffffffffffffffff166108fc349081150290604051600060405180830381858888f1935050505015801561106c573d6000803e3d6000fd5b507f4195fd9cd5f571cf9d14b2376c60201465a986f4a0469cebf0f0ee1d3e2022ab6001600089815260200190815260200160002060010160009054906101000a900473ffffffffffffffffffffffffffffffffffffffff16600160008a815260200190815260200160002060030154600160008b8152602001908152602001600020600701546110fd919061532d565b60405161110b929190615498565b60405180910390a160026001600089815260200190815260200160002060100160016101000a81548160ff0219169083600281111561114d5761114c6149fa565b5b02179055504260016000898152602001908152602001600020600f01819055507ff2baea2668e36a27a898b8c745decb4439ff61ae04d545dcc6954b84bd3e3c428760405161119c91906154d0565b60405180910390a150505050505050565b816001600082815260200190815260200160002060010160009054906101000a900473ffffffffffffffffffffffffffffffffffffffff1673ffffffffffffffffffffffffffffffffffffffff163373ffffffffffffffffffffffffffffffffffffffff1614611252576040517f08c379a00000000000000000000000000000000000000000000000000000000081526004016112499061555d565b60405180910390fd5b826003806007811115611268576112676149fa565b5b6001600084815260200190815260200160002060100160009054906101000a900460ff16600781111561129e5761129d6149fa565b5b146112de576040517f08c379a00000000000000000000000000000000000000000000000000000000081526004016112d590615272565b60405180910390fd5b8460008060028111156112f4576112f36149fa565b5b6001600084815260200190815260200160002060100160019054906101000a900460ff16600281111561132a576113296149fa565b5b1461136a576040517f08c379a0000000000000000000000000000000000000000000000000000000008152600401611361906152de565b60405180910390fd5b4260016000898152602001908152602001600020600a01819055508560016000898152602001908152602001600020600d0190805190602001906113af929190614721565b506113b98761441e565b15611af457600160008881526020019081526020016000206003015460016000898152602001908152602001600020600701541161173b576001600088815260200190815260200160002060010160009054906101000a900473ffffffffffffffffffffffffffffffffffffffff1673ffffffffffffffffffffffffffffffffffffffff166108fc600160008a815260200190815260200160002060020154600160008b815260200190815260200160002060070154611479919061557d565b9081150290604051600060405180830381858888f193505050501580156114a4573d6000803e3d6000fd5b507f4195fd9cd5f571cf9d14b2376c60201465a986f4a0469cebf0f0ee1d3e2022ab6001600089815260200190815260200160002060010160009054906101000a900473ffffffffffffffffffffffffffffffffffffffff16600160008a815260200190815260200160002060020154600160008b815260200190815260200160002060070154611535919061557d565b604051611543929190615498565b60405180910390a16001600088815260200190815260200160002060000160009054906101000a900473ffffffffffffffffffffffffffffffffffffffff1673ffffffffffffffffffffffffffffffffffffffff166108fc600160008a815260200190815260200160002060030154600160008b8152602001908152602001600020600701546115d3919061532d565b9081150290604051600060405180830381858888f193505050501580156115fe573d6000803e3d6000fd5b507fb56ab0c8ca3c4a2f3256c9dab1834145295ed481d85fd1afde56ff8c7298c3ec6001600089815260200190815260200160002060000160009054906101000a900473ffffffffffffffffffffffffffffffffffffffff16600160008a815260200190815260200160002060030154600160008b81526020019081526020016000206007015461168f919061532d565b60405161169d929190615498565b60405180910390a160026001600089815260200190815260200160002060100160016101000a81548160ff021916908360028111156116df576116de6149fa565b5b02179055504260016000898152602001908152602001600020600f01819055507ff2baea2668e36a27a898b8c745decb4439ff61ae04d545dcc6954b84bd3e3c428760405161172e91906154d0565b60405180910390a161195f565b6001600088815260200190815260200160002060010160009054906101000a900473ffffffffffffffffffffffffffffffffffffffff1673ffffffffffffffffffffffffffffffffffffffff166108fc600160008a815260200190815260200160002060020154600160008b8152602001908152602001600020600301546117c3919061557d565b9081150290604051600060405180830381858888f193505050501580156117ee573d6000803e3d6000fd5b507f4195fd9cd5f571cf9d14b2376c60201465a986f4a0469cebf0f0ee1d3e2022ab6001600089815260200190815260200160002060010160009054906101000a900473ffffffffffffffffffffffffffffffffffffffff16600160008a815260200190815260200160002060020154600160008b81526020019081526020016000206003015461187f919061557d565b60405161188d929190615498565b60405180910390a1600180600089815260200190815260200160002060100160016101000a81548160ff021916908360028111156118ce576118cd6149fa565b5b02179055504260016000898152602001908152602001600020600f01819055507f0e94573b1be2e52f56af2fa73f97395af190b00bf516b0e90356c3619c4cdf7c87600160008a815260200190815260200160002060030154600160008b815260200190815260200160002060070154611948919061532d565b6040516119569291906155d3565b60405180910390a15b60066001600089815260200190815260200160002060100160006101000a81548160ff02191690836007811115611999576119986149fa565b5b02179055504260016000898152602001908152602001600020600f01819055507f97393f84209d4b691fab1bc833d0efe882710cb7867c2724b6991eb74567b05c876040516119e891906154d0565b60405180910390a1600160036000600160008b815260200190815260200160002060010160009054906101000a900473ffffffffffffffffffffffffffffffffffffffff1673ffffffffffffffffffffffffffffffffffffffff1673ffffffffffffffffffffffffffffffffffffffff1681526020019081526020016000206000016000828254611a79919061557d565b925050819055507ff79072e0f370bb188b7c4d34ae8a5c9138b891e5df7cfa7ca412b518d30aaf756001600089815260200190815260200160002060010160009054906101000a900473ffffffffffffffffffffffffffffffffffffffff1688604051611ae79291906155fc565b60405180910390a1611ddf565b6001600088815260200190815260200160002060000160009054906101000a900473ffffffffffffffffffffffffffffffffffffffff1673ffffffffffffffffffffffffffffffffffffffff166108fc600160008a815260200190815260200160002060020154600160008b815260200190815260200160002060030154611b7c919061557d565b9081150290604051600060405180830381858888f19350505050158015611ba7573d6000803e3d6000fd5b507fb56ab0c8ca3c4a2f3256c9dab1834145295ed481d85fd1afde56ff8c7298c3ec6001600089815260200190815260200160002060000160009054906101000a900473ffffffffffffffffffffffffffffffffffffffff16600160008a815260200190815260200160002060020154600160008b815260200190815260200160002060030154611c38919061557d565b604051611c46929190615498565b60405180910390a160076001600089815260200190815260200160002060100160006101000a81548160ff02191690836007811115611c8857611c876149fa565b5b02179055504260016000898152602001908152602001600020600f01819055507fa09cb3265c52882b0a36102438c66b242bf2e45c2ebdf91b9448afb52438276087604051611cd791906154d0565b60405180910390a1600160036000600160008b815260200190815260200160002060010160009054906101000a900473ffffffffffffffffffffffffffffffffffffffff1673ffffffffffffffffffffffffffffffffffffffff1673ffffffffffffffffffffffffffffffffffffffff1681526020019081526020016000206001016000828254611d68919061557d565b925050819055507f3fec1177d25f324e1beb970cd60f8b52ef1e47290a72bdb8f62101720f5e49276001600089815260200190815260200160002060010160009054906101000a900473ffffffffffffffffffffffffffffffffffffffff1688604051611dd69291906155fc565b60405180910390a15b50505050505050565b836001600082815260200190815260200160002060010160009054906101000a900473ffffffffffffffffffffffffffffffffffffffff1673ffffffffffffffffffffffffffffffffffffffff163373ffffffffffffffffffffffffffffffffffffffff1614611e8d576040517f08c379a0000000000000000000000000000000000000000000000000000000008152600401611e849061555d565b60405180910390fd5b846002806007811115611ea357611ea26149fa565b5b6001600084815260200190815260200160002060100160009054906101000a900460ff166007811115611ed957611ed86149fa565b5b14611f19576040517f08c379a0000000000000000000000000000000000000000000000000000000008152600401611f1090615272565b60405180910390fd5b836001600089815260200190815260200160002060090181905550846001600089815260200190815260200160002060060181905550611f588761454e565b8015611f6a5750611f6987876145e0565b5b156120575760016000888152602001908152602001600020600601546001600089815260200190815260200160002060050154611fa79190615625565b600160008981526020019081526020016000206007018190555060036001600089815260200190815260200160002060100160006101000a81548160ff02191690836007811115611ffb57611ffa6149fa565b5b02179055504260016000898152602001908152602001600020600f01819055507f4176d26ab2247b0b92e698330257544613ee9100fad5c65d61aec36a2a877b7d8760405161204a91906154d0565b60405180910390a1612342565b6001600088815260200190815260200160002060000160009054906101000a900473ffffffffffffffffffffffffffffffffffffffff1673ffffffffffffffffffffffffffffffffffffffff166108fc600160008a815260200190815260200160002060020154600160008b8152602001908152602001600020600301546120df919061557d565b9081150290604051600060405180830381858888f1935050505015801561210a573d6000803e3d6000fd5b507fb56ab0c8ca3c4a2f3256c9dab1834145295ed481d85fd1afde56ff8c7298c3ec6001600089815260200190815260200160002060000160009054906101000a900473ffffffffffffffffffffffffffffffffffffffff16600160008a815260200190815260200160002060020154600160008b81526020019081526020016000206003015461219b919061557d565b6040516121a9929190615498565b60405180910390a1600160036000600160008b815260200190815260200160002060010160009054906101000a900473ffffffffffffffffffffffffffffffffffffffff1673ffffffffffffffffffffffffffffffffffffffff1673ffffffffffffffffffffffffffffffffffffffff168152602001908152602001600020600101600082825461223a919061557d565b925050819055507f3fec1177d25f324e1beb970cd60f8b52ef1e47290a72bdb8f62101720f5e49276001600089815260200190815260200160002060010160009054906101000a900473ffffffffffffffffffffffffffffffffffffffff16886040516122a89291906155fc565b60405180910390a160046001600089815260200190815260200160002060100160006101000a81548160ff021916908360078111156122ea576122e96149fa565b5b02179055504260016000898152602001908152602001600020600f01819055507f1feb95f113fd9e6280236d043c8da4ca59e052f4783ce6a83f261c1aaa865b178760405161233991906154d0565b60405180910390a15b50505050505050565b806001600082815260200190815260200160002060000160009054906101000a900473ffffffffffffffffffffffffffffffffffffffff1673ffffffffffffffffffffffffffffffffffffffff163373ffffffffffffffffffffffffffffffffffffffff16146123f0576040517f08c379a00000000000000000000000000000000000000000000000000000000081526004016123e790615206565b60405180910390fd5b816002806007811115612406576124056149fa565b5b6001600084815260200190815260200160002060100160009054906101000a900460ff16600781111561243c5761243b6149fa565b5b1461247c576040517f08c379a000000000000000000000000000000000000000000000000000000000815260040161247390615272565b60405180910390fd5b600160008581526020019081526020016000206004015460016000868152602001908152602001600020600801546124b4919061557d565b42116124f5576040517f08c379a00000000000000000000000000000000000000000000000000000000081526004016124ec906156cb565b60405180910390fd5b60056001600086815260200190815260200160002060100160006101000a81548160ff0219169083600781111561252f5761252e6149fa565b5b02179055506001600085815260200190815260200160002060000160009054906101000a900473ffffffffffffffffffffffffffffffffffffffff1673ffffffffffffffffffffffffffffffffffffffff166108fc600160008781526020019081526020016000206002015460016000888152602001908152602001600020600301546125bc919061557d565b9081150290604051600060405180830381858888f193505050501580156125e7573d6000803e3d6000fd5b504260016000868152602001908152602001600020600f01819055507fb56ab0c8ca3c4a2f3256c9dab1834145295ed481d85fd1afde56ff8c7298c3ec6001600086815260200190815260200160002060000160009054906101000a900473ffffffffffffffffffffffffffffffffffffffff1660016000878152602001908152602001600020600201546001600088815260200190815260200160002060030154612693919061557d565b6040516126a1929190615498565b60405180910390a17fa07d0b7132fa6b208a063af8026a29c1fa7ea1f98ffc9682615585318a6b25d6846040516126d891906154d0565b60405180910390a150505050565b60007f000000000000000000000000000000000000000000000000000000000000000073ffffffffffffffffffffffffffffffffffffffff163373ffffffffffffffffffffffffffffffffffffffff1614612776576040517f08c379a000000000000000000000000000000000000000000000000000000000815260040161276d9061575d565b60405180910390fd5b600280549050905090565b600060016000838152602001908152602001600020600f01549050919050565b606060016000838152602001908152602001600020600b0180546127c490615162565b80601f01602080910402602001604051908101604052809291908181526020018280546127f090615162565b801561283d5780601f106128125761010080835404028352916020019161283d565b820191906000526020600020905b81548152906001019060200180831161282057829003601f168201915b50505050509050919050565b600060016000838152602001908152602001600020600801549050919050565b6060816001600082815260200190815260200160002060000160009054906101000a900473ffffffffffffffffffffffffffffffffffffffff1673ffffffffffffffffffffffffffffffffffffffff163373ffffffffffffffffffffffffffffffffffffffff16148061293d57506001600082815260200190815260200160002060010160009054906101000a900473ffffffffffffffffffffffffffffffffffffffff1673ffffffffffffffffffffffffffffffffffffffff163373ffffffffffffffffffffffffffffffffffffffff16145b8061299357507f000000000000000000000000000000000000000000000000000000000000000073ffffffffffffffffffffffffffffffffffffffff163373ffffffffffffffffffffffffffffffffffffffff16145b6129d2576040517f08c379a00000000000000000000000000000000000000000000000000000000081526004016129c9906157ef565b60405180910390fd5b6000604051806020016040528060008152509050600060078111156129fa576129f96149fa565b5b6001600086815260200190815260200160002060100160009054906101000a900460ff166007811115612a3057612a2f6149fa565b5b1415612a73576040518060400160405280600781526020017f43726561746564000000000000000000000000000000000000000000000000008152509050612e8d565b60016007811115612a8757612a866149fa565b5b6001600086815260200190815260200160002060100160009054906101000a900460ff166007811115612abd57612abc6149fa565b5b1415612b00576040518060400160405280600981526020017f43616e63656c6c656400000000000000000000000000000000000000000000008152509050612e8c565b60026007811115612b1457612b136149fa565b5b6001600086815260200190815260200160002060100160009054906101000a900460ff166007811115612b4a57612b496149fa565b5b1415612b8d576040518060400160405280600681526020017f41637469766500000000000000000000000000000000000000000000000000008152509050612e8b565b60036007811115612ba157612ba06149fa565b5b6001600086815260200190815260200160002060100160009054906101000a900460ff166007811115612bd757612bd66149fa565b5b1415612c1a576040518060400160405280601581526020017f436f6d706c657465645375636365737366756c6c7900000000000000000000008152509050612e8a565b60046007811115612c2e57612c2d6149fa565b5b6001600086815260200190815260200160002060100160009054906101000a900460ff166007811115612c6457612c636149fa565b5b1415612ca7576040518060400160405280601781526020017f436f6d706c65746564556e7375636365737366756c6c790000000000000000008152509050612e89565b60056007811115612cbb57612cba6149fa565b5b6001600086815260200190815260200160002060100160009054906101000a900460ff166007811115612cf157612cf06149fa565b5b1415612d34576040518060400160405280600781526020017f496e76616c6964000000000000000000000000000000000000000000000000008152509050612e88565b60066007811115612d4857612d476149fa565b5b6001600086815260200190815260200160002060100160009054906101000a900460ff166007811115612d7e57612d7d6149fa565b5b1415612dc1576040518060400160405280601b81526020017f526573756c747352656365697665645375636365737366756c6c7900000000008152509050612e87565b600780811115612dd457612dd36149fa565b5b6001600086815260200190815260200160002060100160009054906101000a900460ff166007811115612e0a57612e096149fa565b5b1415612e4d576040518060400160405280601d81526020017f526573756c74735265636569766564556e7375636365737366756c6c790000008152509050612e86565b6040518060400160405280600581526020017f4572726f7200000000000000000000000000000000000000000000000000000081525090505b5b5b5b5b5b5b5b8092505050919050565b60007f0000000000000000000000000000000000000000000000000000000000000000905090565b60008060009054906101000a900473ffffffffffffffffffffffffffffffffffffffff16905090565b806001600082815260200190815260200160002060010160009054906101000a900473ffffffffffffffffffffffffffffffffffffffff1673ffffffffffffffffffffffffffffffffffffffff163373ffffffffffffffffffffffffffffffffffffffff1614612f8d576040517f08c379a0000000000000000000000000000000000000000000000000000000008152600401612f849061555d565b60405180910390fd5b816000806007811115612fa357612fa26149fa565b5b6001600084815260200190815260200160002060100160009054906101000a900460ff166007811115612fd957612fd86149fa565b5b14613019576040517f08c379a000000000000000000000000000000000000000000000000000000000815260040161301090615272565b60405180910390fd5b8361302381610a56565b613062576040517f08c379a00000000000000000000000000000000000000000000000000000000081526004016130599061585b565b60405180910390fd5b60016000868152602001908152602001600020600201543410156130bb576040517f08c379a00000000000000000000000000000000000000000000000000000000081526004016130b2906158ed565b60405180910390fd5b42600160008781526020019081526020016000206008018190555034600160008781526020019081526020016000206002018190555060026001600087815260200190815260200160002060100160006101000a81548160ff0219169083600781111561312b5761312a6149fa565b5b02179055504260016000878152602001908152602001600020600f01819055507fce708d6b67215419755514077f148edc2ee99fe51d758948ee62feea825d70388560405161317a91906154d0565b60405180910390a15050505050565b7f000000000000000000000000000000000000000000000000000000000000000073ffffffffffffffffffffffffffffffffffffffff163373ffffffffffffffffffffffffffffffffffffffff1614613217576040517f08c379a000000000000000000000000000000000000000000000000000000000815260040161320e9061575d565b60405180910390fd5b806000806101000a81548173ffffffffffffffffffffffffffffffffffffffff021916908373ffffffffffffffffffffffffffffffffffffffff16021790555050565b6060816001600082815260200190815260200160002060000160009054906101000a900473ffffffffffffffffffffffffffffffffffffffff1673ffffffffffffffffffffffffffffffffffffffff163373ffffffffffffffffffffffffffffffffffffffff16148061332e57506001600082815260200190815260200160002060010160009054906101000a900473ffffffffffffffffffffffffffffffffffffffff1673ffffffffffffffffffffffffffffffffffffffff163373ffffffffffffffffffffffffffffffffffffffff16145b8061338457507f000000000000000000000000000000000000000000000000000000000000000073ffffffffffffffffffffffffffffffffffffffff163373ffffffffffffffffffffffffffffffffffffffff16145b6133c3576040517f08c379a00000000000000000000000000000000000000000000000000000000081526004016133ba906157ef565b60405180910390fd5b6000604051806020016040528060008152509050600060028111156133eb576133ea6149fa565b5b6001600086815260200190815260200160002060100160019054906101000a900460ff166002811115613421576134206149fa565b5b1415613464576040518060400160405280600b81526020017f496e697469616c697a656400000000000000000000000000000000000000000081525090506135b8565b60016002811115613478576134776149fa565b5b6001600086815260200190815260200160002060100160019054906101000a900460ff1660028111156134ae576134ad6149fa565b5b14156134f1576040518060400160405280600781526020017f50656e64696e670000000000000000000000000000000000000000000000000081525090506135b7565b600280811115613504576135036149fa565b5b6001600086815260200190815260200160002060100160019054906101000a900460ff16600281111561353a576135396149fa565b5b141561357d576040518060400160405280600981526020017f436f6d706c65746564000000000000000000000000000000000000000000000081525090506135b6565b6040518060400160405280600581526020017f4572726f7200000000000000000000000000000000000000000000000000000081525090505b5b5b8092505050919050565b876135cc81610a56565b1561360c576040517f08c379a000000000000000000000000000000000000000000000000000000000815260040161360390615959565b60405180910390fd5b60008054906101000a900473ffffffffffffffffffffffffffffffffffffffff1673ffffffffffffffffffffffffffffffffffffffff163373ffffffffffffffffffffffffffffffffffffffff161461369a576040517f08c379a0000000000000000000000000000000000000000000000000000000008152600401613691906159eb565b60405180910390fd5b6002866136a79190615625565b3410156136e9576040517f08c379a00000000000000000000000000000000000000000000000000000000081526004016136e090615a57565b60405180910390fd5b87600160008b815260200190815260200160002060000160006101000a81548173ffffffffffffffffffffffffffffffffffffffff021916908373ffffffffffffffffffffffffffffffffffffffff16021790555034600160008b81526020019081526020016000206003018190555086600160008b815260200190815260200160002060010160006101000a81548173ffffffffffffffffffffffffffffffffffffffff021916908373ffffffffffffffffffffffffffffffffffffffff160217905550600a866137bb9190615625565b600160008b81526020019081526020016000206002018190555085600160008b81526020019081526020016000206005018190555084600160008b81526020019081526020016000206004018190555083600160008b8152602001908152602001600020600e018190555082600160008b8152602001908152602001600020600c019080519060200190613850929190614721565b5081600160008b8152602001908152602001600020600b01908051906020019061387b929190614721565b506000600160008b815260200190815260200160002060100160006101000a81548160ff021916908360078111156138b6576138b56149fa565b5b02179055506000600160008b815260200190815260200160002060100160016101000a81548160ff021916908360028111156138f5576138f46149fa565b5b021790555042600160008b8152602001908152602001600020600f018190555060028990806001815401808255809150506001900390600052602060002001600090919091909150557f1e28175955a872c8252a6e5cf36ac6b318d074eb78b49731e5cb9ddc2d870b638960405161396d91906154d0565b60405180910390a1505050505050505050565b7f000000000000000000000000000000000000000000000000000000000000000073ffffffffffffffffffffffffffffffffffffffff163373ffffffffffffffffffffffffffffffffffffffff1614613a0e576040517f08c379a0000000000000000000000000000000000000000000000000000000008152600401613a059061575d565b60405180910390fd5b600060028054905090505b6000811115613e4d5760006002600183613a33919061532d565b81548110613a4457613a43615a77565b5b9060005260206000200154905060066007811115613a6557613a646149fa565b5b6001600083815260200190815260200160002060100160009054906101000a900460ff166007811115613a9b57613a9a6149fa565b5b148015613aee5750600280811115613ab657613ab56149fa565b5b6001600083815260200190815260200160002060100160019054906101000a900460ff166002811115613aec57613aeb6149fa565b5b145b80613b3f5750600780811115613b0757613b066149fa565b5b6001600083815260200190815260200160002060100160009054906101000a900460ff166007811115613b3d57613b3c6149fa565b5b145b80613b91575060046007811115613b5957613b586149fa565b5b6001600083815260200190815260200160002060100160009054906101000a900460ff166007811115613b8f57613b8e6149fa565b5b145b80613be3575060016007811115613bab57613baa6149fa565b5b6001600083815260200190815260200160002060100160009054906101000a900460ff166007811115613be157613be06149fa565b5b145b80613c35575060056007811115613bfd57613bfc6149fa565b5b6001600083815260200190815260200160002060100160009054906101000a900460ff166007811115613c3357613c326149fa565b5b145b8015613c625750603c60016000838152602001908152602001600020600f0154613c5f919061557d565b42115b15613e395760016000828152602001908152602001600020600080820160006101000a81549073ffffffffffffffffffffffffffffffffffffffff02191690556001820160006101000a81549073ffffffffffffffffffffffffffffffffffffffff021916905560028201600090556003820160009055600482016000905560058201600090556006820160009055600782016000905560088201600090556009820160009055600a820160009055600b82016000613d2191906147a7565b600c82016000613d3191906147a7565b600d82016000613d4191906147a7565b600e820160009055600f8201600090556010820160006101000a81549060ff02191690556010820160016101000a81549060ff0219169055505060026001600280549050613d8f919061532d565b81548110613da057613d9f615a77565b5b90600052602060002001546002600184613dba919061532d565b81548110613dcb57613dca615a77565b5b90600052602060002001819055506002805480613deb57613dea615aa6565b5b600190038181906000526020600020016000905590557fa96209878fc4722b56527db6cf4b72ad6bfddb3ad9968f7de1125d02acc9aa1081604051613e3091906154d0565b60405180910390a15b508080613e4590615ad5565b915050613a19565b50565b7f000000000000000000000000000000000000000000000000000000000000000073ffffffffffffffffffffffffffffffffffffffff163373ffffffffffffffffffffffffffffffffffffffff1614613ede576040517f08c379a0000000000000000000000000000000000000000000000000000000008152600401613ed59061575d565b60405180910390fd5b80613ee881610a56565b613f27576040517f08c379a0000000000000000000000000000000000000000000000000000000008152600401613f1e9061585b565b60405180910390fd5b60016000838152602001908152602001600020600080820160006101000a81549073ffffffffffffffffffffffffffffffffffffffff02191690556001820160006101000a81549073ffffffffffffffffffffffffffffffffffffffff021916905560028201600090556003820160009055600482016000905560058201600090556006820160009055600782016000905560088201600090556009820160009055600a820160009055600b82016000613fe191906147a7565b600c82016000613ff191906147a7565b600d8201600061400191906147a7565b600e820160009055600f8201600090556010820160006101000a81549060ff02191690556010820160016101000a81549060ff0219169055505060005b6002805490508110156141035782600282815481106140605761405f615a77565b5b906000526020600020015414156140f05760026001600280549050614085919061532d565b8154811061409657614095615a77565b5b9060005260206000200154600282815481106140b5576140b4615a77565b5b906000526020600020018190555060028054806140d5576140d4615aa6565b5b60019003818190600052602060002001600090559055614103565b80806140fb90615aff565b91505061403e565b507fa96209878fc4722b56527db6cf4b72ad6bfddb3ad9968f7de1125d02acc9aa108260405161413391906154d0565b60405180910390a15050565b806001600082815260200190815260200160002060000160009054906101000a900473ffffffffffffffffffffffffffffffffffffffff1673ffffffffffffffffffffffffffffffffffffffff163373ffffffffffffffffffffffffffffffffffffffff16146141e4576040517f08c379a00000000000000000000000000000000000000000000000000000000081526004016141db90615206565b60405180910390fd5b8160008060078111156141fa576141f96149fa565b5b6001600084815260200190815260200160002060100160009054906101000a900460ff1660078111156142305761422f6149fa565b5b14614270576040517f08c379a000000000000000000000000000000000000000000000000000000000815260040161426790615272565b60405180910390fd5b600180600086815260200190815260200160002060100160006101000a81548160ff021916908360078111156142a9576142a86149fa565b5b02179055506001600085815260200190815260200160002060000160009054906101000a900473ffffffffffffffffffffffffffffffffffffffff1673ffffffffffffffffffffffffffffffffffffffff166108fc60016000878152602001908152602001600020600301549081150290604051600060405180830381858888f19350505050158015614340573d6000803e3d6000fd5b504260016000868152602001908152602001600020600f01819055507fb56ab0c8ca3c4a2f3256c9dab1834145295ed481d85fd1afde56ff8c7298c3ec6001600086815260200190815260200160002060000160009054906101000a900473ffffffffffffffffffffffffffffffffffffffff1660016000878152602001908152602001600020600301546040516143d9929190615498565b60405180910390a17fe1e1d79b8f28d3379fc32f617eaf54dd6bd4071074c77e91134770e04a81d6268460405161441091906154d0565b60405180910390a150505050565b60006102586001600084815260200190815260200160002060090154614444919061557d565b60016000848152602001908152602001600020600a0154111580156144955750600160008381526020019081526020016000206009015460016000848152602001908152602001600020600a015410155b80156144ee5750600160008381526020019081526020016000206006015460016000848152602001908152602001600020600801546144d4919061557d565b60016000848152602001908152602001600020600a015410155b801561454757506001600083815260200190815260200160002060060154600160008481526020019081526020016000206008015461452d919061557d565b600160008481526020019081526020016000206009015410155b9050919050565b600060016000838152602001908152602001600020600401546001600084815260200190815260200160002060080154614588919061557d565b6001600084815260200190815260200160002060090154111580156145d957506001600083815260200190815260200160002060040154600160008481526020019081526020016000206006015411155b9050919050565b6000816040516020016145f39190615b84565b6040516020818303038152906040528051906020012060016000858152602001908152602001600020600e015414905092915050565b604051806102400160405280600073ffffffffffffffffffffffffffffffffffffffff168152602001600073ffffffffffffffffffffffffffffffffffffffff1681526020016000815260200160008152602001600081526020016000815260200160008152602001600081526020016000815260200160008152602001600081526020016060815260200160608152602001606081526020016000801916815260200160008152602001600060078111156146e8576146e76149fa565b5b815260200160006002811115614701576147006149fa565b5b81525090565b604051806040016040528060008152602001600081525090565b82805461472d90615162565b90600052602060002090601f01602090048101928261474f5760008555614796565b82601f1061476857805160ff1916838001178555614796565b82800160010185558215614796579182015b8281111561479557825182559160200191906001019061477a565b5b5090506147a391906147e7565b5090565b5080546147b390615162565b6000825580601f106147c557506147e4565b601f0160209004906000526020600020908101906147e391906147e7565b5b50565b5b808211156148005760008160009055506001016147e8565b5090565b600082825260208201905092915050565b7f6261642063616c6c000000000000000000000000000000000000000000000000600082015250565b600061484b600883614804565b915061485682614815565b602082019050919050565b6000602082019050818103600083015261487a8161483e565b9050919050565b6000604051905090565b600080fd5b600080fd5b6000819050919050565b6148a881614895565b81146148b357600080fd5b50565b6000813590506148c58161489f565b92915050565b6000602082840312156148e1576148e061488b565b5b60006148ef848285016148b6565b91505092915050565b600073ffffffffffffffffffffffffffffffffffffffff82169050919050565b6000614923826148f8565b9050919050565b61493381614918565b82525050565b6000819050919050565b61494c81614939565b82525050565b600081519050919050565b600082825260208201905092915050565b60005b8381101561498c578082015181840152602081019050614971565b8381111561499b576000848401525b50505050565b6000601f19601f8301169050919050565b60006149bd82614952565b6149c7818561495d565b93506149d781856020860161496e565b6149e0816149a1565b840191505092915050565b6149f481614895565b82525050565b7f4e487b7100000000000000000000000000000000000000000000000000000000600052602160045260246000fd5b60088110614a3a57614a396149fa565b5b50565b6000819050614a4b82614a29565b919050565b6000614a5b82614a3d565b9050919050565b614a6b81614a50565b82525050565b60038110614a8257614a816149fa565b5b50565b6000819050614a9382614a71565b919050565b6000614aa382614a85565b9050919050565b614ab381614a98565b82525050565b600061024083016000830151614ad2600086018261492a565b506020830151614ae5602086018261492a565b506040830151614af86040860182614943565b506060830151614b0b6060860182614943565b506080830151614b1e6080860182614943565b5060a0830151614b3160a0860182614943565b5060c0830151614b4460c0860182614943565b5060e0830151614b5760e0860182614943565b50610100830151614b6c610100860182614943565b50610120830151614b81610120860182614943565b50610140830151614b96610140860182614943565b50610160830151848203610160860152614bb082826149b2565b915050610180830151848203610180860152614bcc82826149b2565b9150506101a08301518482036101a0860152614be882826149b2565b9150506101c0830151614bff6101c08601826149eb565b506101e0830151614c146101e0860182614943565b50610200830151614c29610200860182614a62565b50610220830151614c3e610220860182614aaa565b508091505092915050565b60006020820190508181036000830152614c638184614ab9565b905092915050565b6000614c76826148f8565b9050919050565b614c8681614c6b565b8114614c9157600080fd5b50565b600081359050614ca381614c7d565b92915050565b600060208284031215614cbf57614cbe61488b565b5b6000614ccd84828501614c94565b91505092915050565b604082016000820151614cec6000850182614943565b506020820151614cff6020850182614943565b50505050565b6000604082019050614d1a6000830184614cd6565b92915050565b6000614d2b82614952565b614d358185614804565b9350614d4581856020860161496e565b614d4e816149a1565b840191505092915050565b60006020820190508181036000830152614d738184614d20565b905092915050565b60008115159050919050565b614d9081614d7b565b82525050565b6000602082019050614dab6000830184614d87565b92915050565b600080fd5b600080fd5b7f4e487b7100000000000000000000000000000000000000000000000000000000600052604160045260246000fd5b614df3826149a1565b810181811067ffffffffffffffff82111715614e1257614e11614dbb565b5b80604052505050565b6000614e25614881565b9050614e318282614dea565b919050565b600067ffffffffffffffff821115614e5157614e50614dbb565b5b614e5a826149a1565b9050602081019050919050565b82818337600083830152505050565b6000614e89614e8484614e36565b614e1b565b905082815260208101848484011115614ea557614ea4614db6565b5b614eb0848285614e67565b509392505050565b600082601f830112614ecd57614ecc614db1565b5b8135614edd848260208601614e76565b91505092915050565b60008060408385031215614efd57614efc61488b565b5b6000614f0b858286016148b6565b925050602083013567ffffffffffffffff811115614f2c57614f2b614890565b5b614f3885828601614eb8565b9150509250929050565b614f4b81614939565b8114614f5657600080fd5b50565b600081359050614f6881614f42565b92915050565b60008060008060808587031215614f8857614f8761488b565b5b6000614f96878288016148b6565b945050602085013567ffffffffffffffff811115614fb757614fb6614890565b5b614fc387828801614eb8565b9350506040614fd487828801614f59565b9250506060614fe587828801614f59565b91505092959194509250565b614ffa81614939565b82525050565b60006020820190506150156000830184614ff1565b92915050565b61502481614c6b565b82525050565b600060208201905061503f600083018461501b565b92915050565b600080600080600080600080610100898b0312156150665761506561488b565b5b60006150748b828c016148b6565b98505060206150858b828c01614c94565b97505060406150968b828c01614c94565b96505060606150a78b828c01614f59565b95505060806150b88b828c01614f59565b94505060a06150c98b828c016148b6565b93505060c089013567ffffffffffffffff8111156150ea576150e9614890565b5b6150f68b828c01614eb8565b92505060e089013567ffffffffffffffff81111561511757615116614890565b5b6151238b828c01614eb8565b9150509295985092959890939650565b7f4e487b7100000000000000000000000000000000000000000000000000000000600052602260045260246000fd5b6000600282049050600182168061517a57607f821691505b6020821081141561518e5761518d615133565b5b50919050565b7f4d6574686f642063616e2062652063616c6c6564206f6e6c7920627920636c6960008201527f656e742e00000000000000000000000000000000000000000000000000000000602082015250565b60006151f0602483614804565b91506151fb82615194565b604082019050919050565b6000602082019050818103600083015261521f816151e3565b9050919050565b7f496e76616c6964205461736b53746174652e0000000000000000000000000000600082015250565b600061525c601283614804565b915061526782615226565b602082019050919050565b6000602082019050818103600083015261528b8161524f565b9050919050565b7f496e76616c6964205061796d656e7453746174652e0000000000000000000000600082015250565b60006152c8601583614804565b91506152d382615292565b602082019050919050565b600060208201905081810360008301526152f7816152bb565b9050919050565b7f4e487b7100000000000000000000000000000000000000000000000000000000600052601160045260246000fd5b600061533882614939565b915061534383614939565b925082821015615356576153556152fe565b5b828203905092915050565b7f56616c75652073656e74206973206e6f74207468652065787065637465640000600082015250565b6000615397601e83614804565b91506153a282615361565b602082019050919050565b600060208201905081810360008301526153c68161538a565b9050919050565b7f5061796d656e74206e6f74206e65656465640000000000000000000000000000600082015250565b6000615403601283614804565b915061540e826153cd565b602082019050919050565b60006020820190508181036000830152615432816153f6565b9050919050565b6000819050919050565b600061545e615459615454846148f8565b615439565b6148f8565b9050919050565b600061547082615443565b9050919050565b600061548282615465565b9050919050565b61549281615477565b82525050565b60006040820190506154ad6000830185615489565b6154ba6020830184614ff1565b9392505050565b6154ca81614895565b82525050565b60006020820190506154e560008301846154c1565b92915050565b7f4d6574686f642063616e2062652063616c6c6564206f6e6c792062792070726f60008201527f76696465722e0000000000000000000000000000000000000000000000000000602082015250565b6000615547602683614804565b9150615552826154eb565b604082019050919050565b600060208201905081810360008301526155768161553a565b9050919050565b600061558882614939565b915061559383614939565b9250827fffffffffffffffffffffffffffffffffffffffffffffffffffffffffffffffff038211156155c8576155c76152fe565b5b828201905092915050565b60006040820190506155e860008301856154c1565b6155f56020830184614ff1565b9392505050565b60006040820190506156116000830185615489565b61561e60208301846154c1565b9392505050565b600061563082614939565b915061563b83614939565b9250817fffffffffffffffffffffffffffffffffffffffffffffffffffffffffffffffff0483118215151615615674576156736152fe565b5b828202905092915050565b7f54696d6520686173206e6f7420657870697265642e0000000000000000000000600082015250565b60006156b5601583614804565b91506156c08261567f565b602082019050919050565b600060208201905081810360008301526156e4816156a8565b9050919050565b7f4d6574686f642063616e2062652063616c6c6564206f6e6c79206279206f776e60008201527f65722e0000000000000000000000000000000000000000000000000000000000602082015250565b6000615747602383614804565b9150615752826156eb565b604082019050919050565b600060208201905081810360008301526157768161573a565b9050919050565b7f4d6574686f642063616e2062652063616c6c6564206f6e6c7920627920636c6960008201527f656e742c2070726f7669646572206f7220746865206f776e65722e0000000000602082015250565b60006157d9603b83614804565b91506157e48261577d565b604082019050919050565b60006020820190508181036000830152615808816157cc565b9050919050565b7f5461736b206d7573742062652072656769737465726564000000000000000000600082015250565b6000615845601783614804565b91506158508261580f565b602082019050919050565b6000602082019050818103600083015261587481615838565b9050919050565b7f50726f766964657220636f6c6c61746572616c206973206e6f7420656e6f756760008201527f6800000000000000000000000000000000000000000000000000000000000000602082015250565b60006158d7602183614804565b91506158e28261587b565b604082019050919050565b60006020820190508181036000830152615906816158ca565b9050919050565b7f5461736b20616c72656164792065786973747300000000000000000000000000600082015250565b6000615943601383614804565b915061594e8261590d565b602082019050919050565b6000602082019050818103600083015261597281615936565b9050919050565b7f4d6574686f642063616e2062652063616c6c6564206f6e6c792062792061756360008201527f74696f6e2e000000000000000000000000000000000000000000000000000000602082015250565b60006159d5602583614804565b91506159e082615979565b604082019050919050565b60006020820190508181036000830152615a04816159c8565b9050919050565b7f436c69656e7420636f6c6c61746572616c206973206e6f7420656e6f75676800600082015250565b6000615a41601f83614804565b9150615a4c82615a0b565b602082019050919050565b60006020820190508181036000830152615a7081615a34565b9050919050565b7f4e487b7100000000000000000000000000000000000000000000000000000000600052603260045260246000fd5b7f4e487b7100000000000000000000000000000000000000000000000000000000600052603160045260246000fd5b6000615ae082614939565b91506000821415615af457615af36152fe565b5b600182039050919050565b6000615b0a82614939565b91507fffffffffffffffffffffffffffffffffffffffffffffffffffffffffffffffff821415615b3d57615b3c6152fe565b5b600182019050919050565b600081905092915050565b6000615b5e82614952565b615b688185615b48565b9350615b7881856020860161496e565b80840191505092915050565b6000615b908284615b53565b91508190509291505056fea264697066735822122008b024d93a86e7141a3b9331036f5028f496b6440ad8adf8c17118db2ecff11f64736f6c63430008080033",
  "devdoc": {
    "kind": "dev",
    "methods": {},
    "version": 1
  },
  "userdoc": {
    "kind": "user",
    "methods": {},
    "version": 1
  },
  "storageLayout": {
    "storage": [
      {
        "astId": 883,
        "contract": "contracts/TasksManager.sol:TasksManager",
        "label": "auctionAddress",
        "offset": 0,
        "slot": "0",
        "type": "t_address"
      },
      {
        "astId": 945,
        "contract": "contracts/TasksManager.sol:TasksManager",
        "label": "tasks",
        "offset": 0,
        "slot": "1",
        "type": "t_mapping(t_bytes32,t_struct(Task)935_storage)"
      },
      {
        "astId": 948,
        "contract": "contracts/TasksManager.sol:TasksManager",
        "label": "bytes32_tasks",
        "offset": 0,
        "slot": "2",
        "type": "t_array(t_bytes32)dyn_storage"
      },
      {
        "astId": 953,
        "contract": "contracts/TasksManager.sol:TasksManager",
        "label": "performance",
        "offset": 0,
        "slot": "3",
        "type": "t_mapping(t_address,t_struct(providerRating)940_storage)"
      }
    ],
    "types": {
      "t_address": {
        "encoding": "inplace",
        "label": "address",
        "numberOfBytes": "20"
      },
      "t_address_payable": {
        "encoding": "inplace",
        "label": "address payable",
        "numberOfBytes": "20"
      },
      "t_array(t_bytes32)dyn_storage": {
        "base": "t_bytes32",
        "encoding": "dynamic_array",
        "label": "bytes32[]",
        "numberOfBytes": "32"
      },
      "t_bytes32": {
        "encoding": "inplace",
        "label": "bytes32",
        "numberOfBytes": "32"
      },
      "t_enum(PaymentState)896": {
        "encoding": "inplace",
        "label": "enum TasksManager.PaymentState",
        "numberOfBytes": "1"
      },
      "t_enum(TaskState)892": {
        "encoding": "inplace",
        "label": "enum TasksManager.TaskState",
        "numberOfBytes": "1"
      },
      "t_mapping(t_address,t_struct(providerRating)940_storage)": {
        "encoding": "mapping",
        "key": "t_address",
        "label": "mapping(address => struct TasksManager.providerRating)",
        "numberOfBytes": "32",
        "value": "t_struct(providerRating)940_storage"
      },
      "t_mapping(t_bytes32,t_struct(Task)935_storage)": {
        "encoding": "mapping",
        "key": "t_bytes32",
        "label": "mapping(bytes32 => struct TasksManager.Task)",
        "numberOfBytes": "32",
        "value": "t_struct(Task)935_storage"
      },
      "t_string_storage": {
        "encoding": "bytes",
        "label": "string",
        "numberOfBytes": "32"
      },
      "t_struct(Task)935_storage": {
        "encoding": "inplace",
        "label": "struct TasksManager.Task",
        "members": [
          {
            "astId": 898,
            "contract": "contracts/TasksManager.sol:TasksManager",
            "label": "client",
            "offset": 0,
            "slot": "0",
            "type": "t_address_payable"
          },
          {
            "astId": 900,
            "contract": "contracts/TasksManager.sol:TasksManager",
            "label": "provider",
            "offset": 0,
            "slot": "1",
            "type": "t_address_payable"
          },
          {
            "astId": 902,
            "contract": "contracts/TasksManager.sol:TasksManager",
            "label": "providerCollateral",
            "offset": 0,
            "slot": "2",
            "type": "t_uint256"
          },
          {
            "astId": 904,
            "contract": "contracts/TasksManager.sol:TasksManager",
            "label": "clientCollateral",
            "offset": 0,
            "slot": "3",
            "type": "t_uint256"
          },
          {
            "astId": 906,
            "contract": "contracts/TasksManager.sol:TasksManager",
            "label": "deadline",
            "offset": 0,
            "slot": "4",
            "type": "t_uint256"
          },
          {
            "astId": 908,
            "contract": "contracts/TasksManager.sol:TasksManager",
            "label": "price",
            "offset": 0,
            "slot": "5",
            "type": "t_uint256"
          },
          {
            "astId": 910,
            "contract": "contracts/TasksManager.sol:TasksManager",
            "label": "duration",
            "offset": 0,
            "slot": "6",
            "type": "t_uint256"
          },
          {
            "astId": 912,
            "contract": "contracts/TasksManager.sol:TasksManager",
            "label": "cost",
            "offset": 0,
            "slot": "7",
            "type": "t_uint256"
          },
          {
            "astId": 914,
            "contract": "contracts/TasksManager.sol:TasksManager",
            "label": "activationTime",
            "offset": 0,
            "slot": "8",
            "type": "t_uint256"
          },
          {
            "astId": 916,
            "contract": "contracts/TasksManager.sol:TasksManager",
            "label": "timeResultProvided",
            "offset": 0,
            "slot": "9",
            "type": "t_uint256"
          },
          {
            "astId": 918,
            "contract": "contracts/TasksManager.sol:TasksManager",
            "label": "timeResultReceived",
            "offset": 0,
            "slot": "10",
            "type": "t_uint256"
          },
          {
            "astId": 920,
            "contract": "contracts/TasksManager.sol:TasksManager",
            "label": "computationCode",
            "offset": 0,
            "slot": "11",
            "type": "t_string_storage"
          },
          {
            "astId": 922,
            "contract": "contracts/TasksManager.sol:TasksManager",
            "label": "verificationCode",
            "offset": 0,
            "slot": "12",
            "type": "t_string_storage"
          },
          {
            "astId": 924,
            "contract": "contracts/TasksManager.sol:TasksManager",
            "label": "results",
            "offset": 0,
            "slot": "13",
            "type": "t_string_storage"
          },
          {
            "astId": 926,
            "contract": "contracts/TasksManager.sol:TasksManager",
            "label": "clientVerification",
            "offset": 0,
            "slot": "14",
            "type": "t_bytes32"
          },
          {
            "astId": 928,
            "contract": "contracts/TasksManager.sol:TasksManager",
            "label": "lastUpdateTimestamp",
            "offset": 0,
            "slot": "15",
            "type": "t_uint256"
          },
          {
            "astId": 931,
            "contract": "contracts/TasksManager.sol:TasksManager",
            "label": "taskState",
            "offset": 0,
            "slot": "16",
            "type": "t_enum(TaskState)892"
          },
          {
            "astId": 934,
            "contract": "contracts/TasksManager.sol:TasksManager",
            "label": "paymentState",
            "offset": 1,
            "slot": "16",
            "type": "t_enum(PaymentState)896"
          }
        ],
        "numberOfBytes": "544"
      },
      "t_struct(providerRating)940_storage": {
        "encoding": "inplace",
        "label": "struct TasksManager.providerRating",
        "members": [
          {
            "astId": 937,
            "contract": "contracts/TasksManager.sol:TasksManager",
            "label": "upVotes",
            "offset": 0,
            "slot": "0",
            "type": "t_uint256"
          },
          {
            "astId": 939,
            "contract": "contracts/TasksManager.sol:TasksManager",
            "label": "downVotes",
            "offset": 0,
            "slot": "1",
            "type": "t_uint256"
          }
        ],
        "numberOfBytes": "64"
      },
      "t_uint256": {
        "encoding": "inplace",
        "label": "uint256",
        "numberOfBytes": "32"
      }
    }
  }
}