{
  "address": "0xc0A477E5CeD4FE8E3D685Ed9F62eeF77ED0A1Cc3",
  "abi": [
    {
      "inputs": [],
      "stateMutability": "nonpayable",
      "type": "constructor"
    },
    {
      "anonymous": false,
      "inputs": [
        {
          "indexed": false,
          "internalType": "bytes32",
          "name": "taskID",
          "type": "bytes32"
        }
      ],
      "name": "PaymentCompleted",
      "type": "event"
    },
    {
      "anonymous": false,
      "inputs": [
        {
          "indexed": false,
          "internalType": "bytes32",
          "name": "taskID",
          "type": "bytes32"
        },
        {
          "indexed": false,
          "internalType": "uint256",
          "name": "payment",
          "type": "uint256"
        }
      ],
      "name": "PaymentPending",
      "type": "event"
    },
    {
      "anonymous": false,
      "inputs": [
        {
          "indexed": false,
          "internalType": "address",
          "name": "provider",
          "type": "address"
        },
        {
          "indexed": false,
          "internalType": "bytes32",
          "name": "task",
          "type": "bytes32"
        }
      ],
      "name": "ProviderDownvoted",
      "type": "event"
    },
    {
      "anonymous": false,
      "inputs": [
        {
          "indexed": false,
          "internalType": "address",
          "name": "provider",
          "type": "address"
        },
        {
          "indexed": false,
          "internalType": "bytes32",
          "name": "task",
          "type": "bytes32"
        }
      ],
      "name": "ProviderUpvoted",
      "type": "event"
    },
    {
      "anonymous": false,
      "inputs": [
        {
          "indexed": false,
          "internalType": "bytes32",
          "name": "taskID",
          "type": "bytes32"
        }
      ],
      "name": "TaskActivated",
      "type": "event"
    },
    {
      "anonymous": false,
      "inputs": [
        {
          "indexed": false,
          "internalType": "bytes32",
          "name": "taskID",
          "type": "bytes32"
        }
      ],
      "name": "TaskCancelled",
      "type": "event"
    },
    {
      "anonymous": false,
      "inputs": [
        {
          "indexed": false,
          "internalType": "bytes32",
          "name": "taskID",
          "type": "bytes32"
        }
      ],
      "name": "TaskCompleted",
      "type": "event"
    },
    {
      "anonymous": false,
      "inputs": [
        {
          "indexed": false,
          "internalType": "bytes32",
          "name": "taskID",
          "type": "bytes32"
        }
      ],
      "name": "TaskCreated",
      "type": "event"
    },
    {
      "anonymous": false,
      "inputs": [
        {
          "indexed": false,
          "internalType": "bytes32",
          "name": "taskID",
          "type": "bytes32"
        }
      ],
      "name": "TaskInvalidated",
      "type": "event"
    },
    {
      "anonymous": false,
      "inputs": [
        {
          "indexed": false,
          "internalType": "bytes32",
          "name": "task",
          "type": "bytes32"
        }
      ],
      "name": "TaskRegistered",
      "type": "event"
    },
    {
      "anonymous": false,
      "inputs": [
        {
          "indexed": false,
          "internalType": "bytes32",
          "name": "task",
          "type": "bytes32"
        }
      ],
      "name": "TaskUnregistered",
      "type": "event"
    },
    {
      "anonymous": false,
      "inputs": [
        {
          "indexed": false,
          "internalType": "address",
          "name": "Address",
          "type": "address"
        },
        {
          "indexed": false,
          "internalType": "uint256",
          "name": "Amount",
          "type": "uint256"
        }
      ],
      "name": "TransferMade",
      "type": "event"
    },
    {
      "stateMutability": "payable",
      "type": "fallback"
    },
    {
      "inputs": [
        {
          "internalType": "bytes32",
          "name": "_taskID",
          "type": "bytes32"
        }
      ],
      "name": "CorrectVerification",
      "outputs": [
        {
          "internalType": "bool",
          "name": "",
          "type": "bool"
        }
      ],
      "stateMutability": "view",
      "type": "function"
    },
    {
      "inputs": [
        {
          "internalType": "bytes32",
          "name": "_taskID",
          "type": "bytes32"
        }
      ],
      "name": "InTime",
      "outputs": [
        {
          "internalType": "bool",
          "name": "",
          "type": "bool"
        }
      ],
      "stateMutability": "view",
      "type": "function"
    },
    {
      "inputs": [
        {
          "internalType": "bytes32",
          "name": "_taskID",
          "type": "bytes32"
        }
      ],
      "name": "ProviderTime",
      "outputs": [
        {
          "internalType": "bool",
          "name": "",
          "type": "bool"
        }
      ],
      "stateMutability": "view",
      "type": "function"
    },
    {
      "inputs": [
        {
          "internalType": "bytes32",
          "name": "_taskID",
          "type": "bytes32"
        }
      ],
      "name": "activateTask",
      "outputs": [],
      "stateMutability": "payable",
      "type": "function"
    },
    {
      "inputs": [
        {
          "internalType": "bytes32",
          "name": "_taskID",
          "type": "bytes32"
        }
      ],
      "name": "cancelTask",
      "outputs": [],
      "stateMutability": "nonpayable",
      "type": "function"
    },
    {
      "inputs": [
        {
          "internalType": "bytes32",
          "name": "_taskID",
          "type": "bytes32"
        }
      ],
      "name": "completePayment",
      "outputs": [],
      "stateMutability": "payable",
      "type": "function"
    },
    {
      "inputs": [
        {
          "internalType": "bytes32",
          "name": "_taskID",
          "type": "bytes32"
        },
        {
          "internalType": "string",
          "name": "ver",
          "type": "string"
        },
        {
          "internalType": "uint256",
          "name": "_timeReceivedProvider",
          "type": "uint256"
        }
      ],
      "name": "completeTask",
      "outputs": [],
      "stateMutability": "nonpayable",
      "type": "function"
    },
    {
      "inputs": [
        {
          "internalType": "bytes32",
          "name": "_taskID",
          "type": "bytes32"
        },
        {
          "internalType": "address payable",
          "name": "_client",
          "type": "address"
        },
        {
          "internalType": "address payable",
          "name": "_provider",
          "type": "address"
        },
        {
          "internalType": "uint256",
          "name": "_price",
          "type": "uint256"
        },
        {
          "internalType": "uint256",
          "name": "_providerCollateral",
          "type": "uint256"
        },
        {
          "internalType": "uint256",
          "name": "_deadline",
          "type": "uint256"
        },
        {
          "internalType": "bytes32",
          "name": "_clientVerification",
          "type": "bytes32"
        }
      ],
      "name": "createTask",
      "outputs": [],
      "stateMutability": "nonpayable",
      "type": "function"
    },
    {
      "inputs": [
        {
          "internalType": "bytes32",
          "name": "_taskID",
          "type": "bytes32"
        }
      ],
      "name": "getActivationTime",
      "outputs": [
        {
          "internalType": "uint256",
          "name": "",
          "type": "uint256"
        }
      ],
      "stateMutability": "view",
      "type": "function"
    },
    {
      "inputs": [],
      "name": "getOwner",
      "outputs": [
        {
          "internalType": "address",
          "name": "",
          "type": "address"
        }
      ],
      "stateMutability": "view",
      "type": "function"
    },
    {
      "inputs": [
        {
          "internalType": "bytes32",
          "name": "_taskID",
          "type": "bytes32"
        }
      ],
      "name": "getPayment",
      "outputs": [
        {
          "internalType": "uint256",
          "name": "",
          "type": "uint256"
        }
      ],
      "stateMutability": "view",
      "type": "function"
    },
    {
      "inputs": [
        {
          "internalType": "bytes32",
          "name": "_taskID",
          "type": "bytes32"
        }
      ],
      "name": "getPaymentState",
      "outputs": [
        {
          "internalType": "enum TasksManager.PaymentState",
          "name": "",
          "type": "uint8"
        }
      ],
      "stateMutability": "view",
      "type": "function"
    },
    {
      "inputs": [
        {
          "internalType": "address",
          "name": "provider",
          "type": "address"
        }
      ],
      "name": "getPerformance",
      "outputs": [
        {
          "components": [
            {
              "internalType": "uint256",
              "name": "upVotes",
              "type": "uint256"
            },
            {
              "internalType": "uint256",
              "name": "downVotes",
              "type": "uint256"
            }
          ],
          "internalType": "struct TasksManager.providerRating",
          "name": "",
          "type": "tuple"
        }
      ],
      "stateMutability": "view",
      "type": "function"
    },
    {
      "inputs": [
        {
          "internalType": "bytes32",
          "name": "_taskID",
          "type": "bytes32"
        }
      ],
      "name": "getProviderCollateral",
      "outputs": [
        {
          "internalType": "uint256",
          "name": "",
          "type": "uint256"
        }
      ],
      "stateMutability": "view",
      "type": "function"
    },
    {
      "inputs": [
        {
          "internalType": "bytes32",
          "name": "_taskID",
          "type": "bytes32"
        }
      ],
      "name": "getTask",
      "outputs": [
        {
          "components": [
            {
              "internalType": "address payable",
              "name": "provider",
              "type": "address"
            },
            {
              "internalType": "address payable",
              "name": "client",
              "type": "address"
            },
            {
              "internalType": "uint256",
              "name": "price",
              "type": "uint256"
            },
            {
              "internalType": "uint256",
              "name": "providerCollateral",
              "type": "uint256"
            },
            {
              "internalType": "uint256",
              "name": "clientCollateral",
              "type": "uint256"
            },
            {
              "internalType": "uint256",
              "name": "payment",
              "type": "uint256"
            },
            {
              "internalType": "uint256",
              "name": "deadline",
              "type": "uint256"
            },
            {
              "internalType": "uint256",
              "name": "duration",
              "type": "uint256"
            },
            {
              "internalType": "uint256",
              "name": "activationTime",
              "type": "uint256"
            },
            {
              "internalType": "uint256",
              "name": "timeResultProvided",
              "type": "uint256"
            },
            {
              "internalType": "uint256",
              "name": "timeResultReceived",
              "type": "uint256"
            },
            {
              "internalType": "enum TasksManager.TaskState",
              "name": "taskState",
              "type": "uint8"
            },
            {
              "internalType": "enum TasksManager.PaymentState",
              "name": "paymentState",
              "type": "uint8"
            },
            {
              "internalType": "string",
              "name": "code",
              "type": "string"
            },
            {
              "internalType": "bytes32",
              "name": "clientVerification",
              "type": "bytes32"
            },
            {
              "internalType": "string",
              "name": "providerVerification",
              "type": "string"
            }
          ],
          "internalType": "struct TasksManager.Task",
          "name": "",
          "type": "tuple"
        }
      ],
      "stateMutability": "view",
      "type": "function"
    },
    {
      "inputs": [
        {
          "internalType": "bytes32",
          "name": "_taskID",
          "type": "bytes32"
        }
      ],
      "name": "getTaskState",
      "outputs": [
        {
          "internalType": "enum TasksManager.TaskState",
          "name": "",
          "type": "uint8"
        }
      ],
      "stateMutability": "view",
      "type": "function"
    },
    {
      "inputs": [
        {
          "internalType": "bytes32",
          "name": "_taskID",
          "type": "bytes32"
        }
      ],
      "name": "invalidateTask",
      "outputs": [],
      "stateMutability": "nonpayable",
      "type": "function"
    },
    {
      "inputs": [
        {
          "internalType": "bytes32",
          "name": "_taskID",
          "type": "bytes32"
        }
      ],
      "name": "isRegistered",
      "outputs": [
        {
          "internalType": "bool",
          "name": "",
          "type": "bool"
        }
      ],
      "stateMutability": "view",
      "type": "function"
    },
    {
      "stateMutability": "payable",
      "type": "receive"
    }
  ],
  "transactionHash": "0x757bd89f218cb8140822045d3647c96f1c360c2f825708e874db4930832a62f6",
  "args": [],
  "numDeployments": 2,
  "solcInputHash": "bba0d0176514cda56385b0db26d8e430",
  "bytecode": "0x60a060405234801561001057600080fd5b503373ffffffffffffffffffffffffffffffffffffffff1660808173ffffffffffffffffffffffffffffffffffffffff1660601b8152505060805160601c613bfb61006660003960006123850152613bfb6000f3fe60806040526004361061010d5760003560e01c8063668b1baa11610095578063893d20e811610064578063893d20e81461040e57806392b8332014610439578063ab210cc814610455578063e66eefc814610492578063ee8ca3b5146104cf5761014d565b8063668b1baa1461032e57806370ad19761461036b57806375ece975146103a85780638693944d146103d15761014d565b806327258b22116100dc57806327258b2214610232578063283462a91461026f5780633ecff55f146102ac57806347ca8a8b146102e957806354706b5a146103055761014d565b80630946dc8a14610152578063143e7e711461018f57806315a29035146101b85780631ecc9aaf146101f55761014d565b3661014d576040517f08c379a000000000000000000000000000000000000000000000000000000000815260040161014490612c75565b60405180910390fd5b600080fd5b34801561015e57600080fd5b5061017960048036038101906101749190612cdf565b6104f8565b6040516101869190612d27565b60405180910390f35b34801561019b57600080fd5b506101b660048036038101906101b19190612ebe565b610553565b005b3480156101c457600080fd5b506101df60048036038101906101da9190612cdf565b611283565b6040516101ec9190613232565b60405180910390f35b34801561020157600080fd5b5061021c60048036038101906102179190613292565b61155a565b60405161022991906132ee565b60405180910390f35b34801561023e57600080fd5b5061025960048036038101906102549190612cdf565b6115c7565b6040516102669190612d27565b60405180910390f35b34801561027b57600080fd5b5061029660048036038101906102919190612cdf565b611635565b6040516102a39190612d27565b60405180910390f35b3480156102b857600080fd5b506102d360048036038101906102ce9190612cdf565b611678565b6040516102e09190612d27565b60405180910390f35b61030360048036038101906102fe9190612cdf565b6116cf565b005b34801561031157600080fd5b5061032c60048036038101906103279190612cdf565b611c22565b005b34801561033a57600080fd5b5061035560048036038101906103509190612cdf565b6120c9565b6040516103629190613318565b60405180910390f35b34801561037757600080fd5b50610392600480360381019061038d9190612cdf565b6120e8565b60405161039f9190613318565b60405180910390f35b3480156103b457600080fd5b506103cf60048036038101906103ca919061335f565b612107565b005b3480156103dd57600080fd5b506103f860048036038101906103f39190612cdf565b612355565b6040516104059190613410565b60405180910390f35b34801561041a57600080fd5b50610423612381565b604051610430919061343a565b60405180910390f35b610453600480360381019061044e9190612cdf565b6123a9565b005b34801561046157600080fd5b5061047c60048036038101906104779190612cdf565b612610565b6040516104899190613464565b60405180910390f35b34801561049e57600080fd5b506104b960048036038101906104b49190612cdf565b61263c565b6040516104c69190613318565b60405180910390f35b3480156104db57600080fd5b506104f660048036038101906104f19190612cdf565b61265b565b005b6000806000838152602001908152602001600020600e0160405160200161051f919061357f565b60405160208183030381529060405280519060200120600080848152602001908152602001600020600d0154149050919050565b8260008082815260200190815260200160002060000160009054906101000a900473ffffffffffffffffffffffffffffffffffffffff1673ffffffffffffffffffffffffffffffffffffffff163373ffffffffffffffffffffffffffffffffffffffff16146105f7576040517f08c379a00000000000000000000000000000000000000000000000000000000081526004016105ee90613608565b60405180910390fd5b83600280600481111561060d5761060c612f7d565b5b600080848152602001908152602001600020600b0160009054906101000a900460ff16600481111561064257610641612f7d565b5b14610682576040517f08c379a000000000000000000000000000000000000000000000000000000000815260040161067990613674565b60405180910390fd5b84600080888152602001908152602001600020600e0190805190602001906106ab929190612a4b565b5042600080888152602001908152602001600020600a018190555083600080888152602001908152602001600020600901819055506106e986611678565b80156106fa57506106f986611635565b5b801561070b575061070a866104f8565b5b15610de357600080878152602001908152602001600020600801546000808881526020019081526020016000206009015461074691906136c3565b60008088815260200190815260200160002060070181905550600080878152602001908152602001600020600701546000808881526020019081526020016000206002015461079591906136f7565b60008088815260200190815260200160002060050181905550600080878152602001908152602001600020600401546000808881526020019081526020016000206005015411610ae15760008087815260200190815260200160002060000160009054906101000a900473ffffffffffffffffffffffffffffffffffffffff1673ffffffffffffffffffffffffffffffffffffffff166108fc600080898152602001908152602001600020600301546000808a8152602001908152602001600020600501546108649190613751565b9081150290604051600060405180830381858888f1935050505015801561088f573d6000803e3d6000fd5b507fbb1d109694da1f57c795e648cd08cfff17024c10216d0c583badbd33ed32494c60008088815260200190815260200160002060000160009054906101000a900473ffffffffffffffffffffffffffffffffffffffff16600080898152602001908152602001600020600301546000808a81526020019081526020016000206005015461091d9190613751565b60405161092b929190613806565b60405180910390a160008087815260200190815260200160002060010160009054906101000a900473ffffffffffffffffffffffffffffffffffffffff1673ffffffffffffffffffffffffffffffffffffffff166108fc600080898152602001908152602001600020600401546000808a8152602001908152602001600020600501546109b891906136c3565b9081150290604051600060405180830381858888f193505050501580156109e3573d6000803e3d6000fd5b507fbb1d109694da1f57c795e648cd08cfff17024c10216d0c583badbd33ed32494c60008088815260200190815260200160002060010160009054906101000a900473ffffffffffffffffffffffffffffffffffffffff1660008089815260200190815260200160002060070154604051610a5f929190613806565b60405180910390a16002600080888152602001908152602001600020600b0160016101000a81548160ff02191690836002811115610aa057610a9f612f7d565b5b02179055507ff2baea2668e36a27a898b8c745decb4439ff61ae04d545dcc6954b84bd3e3c4286604051610ad4919061383e565b60405180910390a1610ce2565b60008087815260200190815260200160002060000160009054906101000a900473ffffffffffffffffffffffffffffffffffffffff1673ffffffffffffffffffffffffffffffffffffffff166108fc600080898152602001908152602001600020600301546000808a815260200190815260200160002060040154610b669190613751565b9081150290604051600060405180830381858888f19350505050158015610b91573d6000803e3d6000fd5b507fbb1d109694da1f57c795e648cd08cfff17024c10216d0c583badbd33ed32494c60008088815260200190815260200160002060000160009054906101000a900473ffffffffffffffffffffffffffffffffffffffff16600080898152602001908152602001600020600301546000808a815260200190815260200160002060040154610c1f9190613751565b604051610c2d929190613806565b60405180910390a16001600080888152602001908152602001600020600b0160016101000a81548160ff02191690836002811115610c6e57610c6d612f7d565b5b02179055507f0e94573b1be2e52f56af2fa73f97395af190b00bf516b0e90356c3619c4cdf7c86600080898152602001908152602001600020600401546000808a815260200190815260200160002060050154610ccb91906136c3565b604051610cd9929190613859565b60405180910390a15b60018060008060008a815260200190815260200160002060000160009054906101000a900473ffffffffffffffffffffffffffffffffffffffff1673ffffffffffffffffffffffffffffffffffffffff1673ffffffffffffffffffffffffffffffffffffffff1681526020019081526020016000206000016000828254610d699190613751565b925050819055507ff79072e0f370bb188b7c4d34ae8a5c9138b891e5df7cfa7ca412b518d30aaf7560008088815260200190815260200160002060000160009054906101000a900473ffffffffffffffffffffffffffffffffffffffff1687604051610dd6929190613882565b60405180910390a1611034565b60008087815260200190815260200160002060010160009054906101000a900473ffffffffffffffffffffffffffffffffffffffff1673ffffffffffffffffffffffffffffffffffffffff166108fc600080898152602001908152602001600020600301546000808a815260200190815260200160002060040154610e689190613751565b9081150290604051600060405180830381858888f19350505050158015610e93573d6000803e3d6000fd5b507fbb1d109694da1f57c795e648cd08cfff17024c10216d0c583badbd33ed32494c60008088815260200190815260200160002060010160009054906101000a900473ffffffffffffffffffffffffffffffffffffffff16600080898152602001908152602001600020600301546000808a815260200190815260200160002060040154610f219190613751565b604051610f2f929190613806565b60405180910390a160018060008060008a815260200190815260200160002060000160009054906101000a900473ffffffffffffffffffffffffffffffffffffffff1673ffffffffffffffffffffffffffffffffffffffff1673ffffffffffffffffffffffffffffffffffffffff1681526020019081526020016000206001016000828254610fbe9190613751565b925050819055507f3fec1177d25f324e1beb970cd60f8b52ef1e47290a72bdb8f62101720f5e492760008088815260200190815260200160002060000160009054906101000a900473ffffffffffffffffffffffffffffffffffffffff168760405161102b929190613882565b60405180910390a15b6003600080888152602001908152602001600020600b0160006101000a81548160ff0219169083600481111561106d5761106c612f7d565b5b021790555060028081111561108557611084612f7d565b5b600080888152602001908152602001600020600b0160019054906101000a900460ff1660028111156110ba576110b9612f7d565b5b148061110c5750600060028111156110d5576110d4612f7d565b5b600080888152602001908152602001600020600b0160019054906101000a900460ff16600281111561110a57611109612f7d565b5b145b1561120d57600080878152602001908152602001600020600080820160006101000a81549073ffffffffffffffffffffffffffffffffffffffff02191690556001820160006101000a81549073ffffffffffffffffffffffffffffffffffffffff021916905560028201600090556003820160009055600482016000905560058201600090556006820160009055600782016000905560088201600090556009820160009055600a820160009055600b820160006101000a81549060ff0219169055600b820160016101000a81549060ff0219169055600c820160006111f29190612ad1565b600d820160009055600e8201600061120a9190612ad1565b50505b7f572a2b6ee4b829f7c9a4b27bd7729666696a0b5e394e1a9ad92e925e483f02c28660405161123c919061383e565b60405180910390a17fb1115fb0a2ad10d7fc3823dadb2f14589bef759b57af99b0f44a2f6a5bcee4f486604051611273919061383e565b60405180910390a1505050505050565b61128b612b11565b600080838152602001908152602001600020604051806102000160405290816000820160009054906101000a900473ffffffffffffffffffffffffffffffffffffffff1673ffffffffffffffffffffffffffffffffffffffff1673ffffffffffffffffffffffffffffffffffffffff1681526020016001820160009054906101000a900473ffffffffffffffffffffffffffffffffffffffff1673ffffffffffffffffffffffffffffffffffffffff1673ffffffffffffffffffffffffffffffffffffffff1681526020016002820154815260200160038201548152602001600482015481526020016005820154815260200160068201548152602001600782015481526020016008820154815260200160098201548152602001600a8201548152602001600b820160009054906101000a900460ff1660048111156113d4576113d3612f7d565b5b60048111156113e6576113e5612f7d565b5b8152602001600b820160019054906101000a900460ff16600281111561140f5761140e612f7d565b5b600281111561142157611420612f7d565b5b8152602001600c82018054611435906134ae565b80601f0160208091040260200160405190810160405280929190818152602001828054611461906134ae565b80156114ae5780601f10611483576101008083540402835291602001916114ae565b820191906000526020600020905b81548152906001019060200180831161149157829003601f168201915b50505050508152602001600d8201548152602001600e820180546114d1906134ae565b80601f01602080910402602001604051908101604052809291908181526020018280546114fd906134ae565b801561154a5780601f1061151f5761010080835404028352916020019161154a565b820191906000526020600020905b81548152906001019060200180831161152d57829003601f168201915b5050505050815250509050919050565b611562612be1565b600160008373ffffffffffffffffffffffffffffffffffffffff1673ffffffffffffffffffffffffffffffffffffffff168152602001908152602001600020604051806040016040529081600082015481526020016001820154815250509050919050565b60008073ffffffffffffffffffffffffffffffffffffffff1660008084815260200190815260200160002060010160009054906101000a900473ffffffffffffffffffffffffffffffffffffffff1673ffffffffffffffffffffffffffffffffffffffff1614159050919050565b6000603c600080848152602001908152602001600020600901546116599190613751565b600080848152602001908152602001600020600a015411159050919050565b600080600083815260200190815260200160002060060154600080848152602001908152602001600020600801546116b09190613751565b600080848152602001908152602001600020600a015411159050919050565b8060008082815260200190815260200160002060010160009054906101000a900473ffffffffffffffffffffffffffffffffffffffff1673ffffffffffffffffffffffffffffffffffffffff163373ffffffffffffffffffffffffffffffffffffffff1614611773576040517f08c379a000000000000000000000000000000000000000000000000000000000815260040161176a9061391d565b60405180910390fd5b81600380600481111561178957611788612f7d565b5b600080848152602001908152602001600020600b0160009054906101000a900460ff1660048111156117be576117bd612f7d565b5b146117fe576040517f08c379a00000000000000000000000000000000000000000000000000000000081526004016117f590613674565b60405180910390fd5b83600180600281111561181457611813612f7d565b5b600080848152602001908152602001600020600b0160019054906101000a900460ff16600281111561184957611848612f7d565b5b14611889576040517f08c379a000000000000000000000000000000000000000000000000000000000815260040161188090613989565b60405180910390fd5b60008087815260200190815260200160002060040154600080888152602001908152602001600020600501546118bf91906136c3565b803414611901576040517f08c379a00000000000000000000000000000000000000000000000000000000081526004016118f8906139f5565b60405180910390fd5b6001600281111561191557611914612f7d565b5b600080898152602001908152602001600020600b0160019054906101000a900460ff16600281111561194a57611949612f7d565b5b1461198a576040517f08c379a000000000000000000000000000000000000000000000000000000000815260040161198190613a61565b60405180910390fd5b60008088815260200190815260200160002060000160009054906101000a900473ffffffffffffffffffffffffffffffffffffffff1673ffffffffffffffffffffffffffffffffffffffff166108fc349081150290604051600060405180830381858888f19350505050158015611a05573d6000803e3d6000fd5b507fbb1d109694da1f57c795e648cd08cfff17024c10216d0c583badbd33ed32494c60008089815260200190815260200160002060000160009054906101000a900473ffffffffffffffffffffffffffffffffffffffff166000808a8152602001908152602001600020600401546000808b815260200190815260200160002060050154611a9391906136c3565b604051611aa1929190613806565b60405180910390a16002600080898152602001908152602001600020600b0160016101000a81548160ff02191690836002811115611ae257611ae1612f7d565b5b02179055507ff2baea2668e36a27a898b8c745decb4439ff61ae04d545dcc6954b84bd3e3c4287604051611b16919061383e565b60405180910390a1600080888152602001908152602001600020600080820160006101000a81549073ffffffffffffffffffffffffffffffffffffffff02191690556001820160006101000a81549073ffffffffffffffffffffffffffffffffffffffff021916905560028201600090556003820160009055600482016000905560058201600090556006820160009055600782016000905560088201600090556009820160009055600a820160009055600b820160006101000a81549060ff0219169055600b820160016101000a81549060ff0219169055600c82016000611bff9190612ad1565b600d820160009055600e82016000611c179190612ad1565b505050505050505050565b8060008082815260200190815260200160002060010160009054906101000a900473ffffffffffffffffffffffffffffffffffffffff1673ffffffffffffffffffffffffffffffffffffffff163373ffffffffffffffffffffffffffffffffffffffff1614611cc6576040517f08c379a0000000000000000000000000000000000000000000000000000000008152600401611cbd9061391d565b60405180910390fd5b816002806004811115611cdc57611cdb612f7d565b5b600080848152602001908152602001600020600b0160009054906101000a900460ff166004811115611d1157611d10612f7d565b5b14611d51576040517f08c379a0000000000000000000000000000000000000000000000000000000008152600401611d4890613674565b60405180910390fd5b6000808581526020019081526020016000206006015460008086815260200190815260200160002060080154611d879190613751565b4211611dc8576040517f08c379a0000000000000000000000000000000000000000000000000000000008152600401611dbf90613acd565b60405180910390fd5b6004600080868152602001908152602001600020600b0160006101000a81548160ff02191690836004811115611e0157611e00612f7d565b5b021790555060008085815260200190815260200160002060010160009054906101000a900473ffffffffffffffffffffffffffffffffffffffff1673ffffffffffffffffffffffffffffffffffffffff166108fc6000808781526020019081526020016000206003015460008088815260200190815260200160002060040154611e8b9190613751565b9081150290604051600060405180830381858888f19350505050158015611eb6573d6000803e3d6000fd5b507fbb1d109694da1f57c795e648cd08cfff17024c10216d0c583badbd33ed32494c60008086815260200190815260200160002060010160009054906101000a900473ffffffffffffffffffffffffffffffffffffffff166000808781526020019081526020016000206003015460008088815260200190815260200160002060040154611f449190613751565b604051611f52929190613806565b60405180910390a1600080858152602001908152602001600020600080820160006101000a81549073ffffffffffffffffffffffffffffffffffffffff02191690556001820160006101000a81549073ffffffffffffffffffffffffffffffffffffffff021916905560028201600090556003820160009055600482016000905560058201600090556006820160009055600782016000905560088201600090556009820160009055600a820160009055600b820160006101000a81549060ff0219169055600b820160016101000a81549060ff0219169055600c8201600061203b9190612ad1565b600d820160009055600e820160006120539190612ad1565b50507fa07d0b7132fa6b208a063af8026a29c1fa7ea1f98ffc9682615585318a6b25d684604051612084919061383e565b60405180910390a17fb1115fb0a2ad10d7fc3823dadb2f14589bef759b57af99b0f44a2f6a5bcee4f4846040516120bb919061383e565b60405180910390a150505050565b6000806000838152602001908152602001600020600301549050919050565b6000806000838152602001908152602001600020600801549050919050565b86612111816115c7565b15612151576040517f08c379a000000000000000000000000000000000000000000000000000000000815260040161214890613b39565b60405180910390fd5b866000808a815260200190815260200160002060010160006101000a81548173ffffffffffffffffffffffffffffffffffffffff021916908373ffffffffffffffffffffffffffffffffffffffff160217905550856000808a815260200190815260200160002060000160006101000a81548173ffffffffffffffffffffffffffffffffffffffff021916908373ffffffffffffffffffffffffffffffffffffffff160217905550846000808a815260200190815260200160002060020181905550836000808a815260200190815260200160002060030181905550826000808a815260200190815260200160002060060181905550816000808a8152602001908152602001600020600d018190555060008060008a8152602001908152602001600020600b0160006101000a81548160ff0219169083600481111561229a57612299612f7d565b5b021790555060008060008a8152602001908152602001600020600b0160016101000a81548160ff021916908360028111156122d8576122d7612f7d565b5b02179055507f1e28175955a872c8252a6e5cf36ac6b318d074eb78b49731e5cb9ddc2d870b638860405161230c919061383e565b60405180910390a17f2634c61996f131952dea1b6c5a08057c061e09429d247354d6f7b60873238c5e88604051612343919061383e565b60405180910390a15050505050505050565b6000806000838152602001908152602001600020600b0160009054906101000a900460ff169050919050565b60007f0000000000000000000000000000000000000000000000000000000000000000905090565b8060008082815260200190815260200160002060000160009054906101000a900473ffffffffffffffffffffffffffffffffffffffff1673ffffffffffffffffffffffffffffffffffffffff163373ffffffffffffffffffffffffffffffffffffffff161461244d576040517f08c379a000000000000000000000000000000000000000000000000000000000815260040161244490613608565b60405180910390fd5b600080838152602001908152602001600020600301548034146124a5576040517f08c379a000000000000000000000000000000000000000000000000000000000815260040161249c906139f5565b60405180910390fd5b8260008060048111156124bb576124ba612f7d565b5b600080848152602001908152602001600020600b0160009054906101000a900460ff1660048111156124f0576124ef612f7d565b5b14612530576040517f08c379a000000000000000000000000000000000000000000000000000000000815260040161252790613674565b60405180910390fd5b8461253a816115c7565b612579576040517f08c379a000000000000000000000000000000000000000000000000000000000815260040161257090613ba5565b60405180910390fd5b42600080888152602001908152602001600020600801819055506002600080888152602001908152602001600020600b0160006101000a81548160ff021916908360048111156125cc576125cb612f7d565b5b02179055507fce708d6b67215419755514077f148edc2ee99fe51d758948ee62feea825d703886604051612600919061383e565b60405180910390a1505050505050565b6000806000838152602001908152602001600020600b0160019054906101000a900460ff169050919050565b6000806000838152602001908152602001600020600501549050919050565b8060008082815260200190815260200160002060010160009054906101000a900473ffffffffffffffffffffffffffffffffffffffff1673ffffffffffffffffffffffffffffffffffffffff163373ffffffffffffffffffffffffffffffffffffffff16146126ff576040517f08c379a00000000000000000000000000000000000000000000000000000000081526004016126f69061391d565b60405180910390fd5b81600080600481111561271557612714612f7d565b5b600080848152602001908152602001600020600b0160009054906101000a900460ff16600481111561274a57612749612f7d565b5b1461278a576040517f08c379a000000000000000000000000000000000000000000000000000000000815260040161278190613674565b60405180910390fd5b6001600080868152602001908152602001600020600b0160006101000a81548160ff021916908360048111156127c3576127c2612f7d565b5b021790555060008085815260200190815260200160002060010160009054906101000a900473ffffffffffffffffffffffffffffffffffffffff1673ffffffffffffffffffffffffffffffffffffffff166108fc600080878152602001908152602001600020600401549081150290604051600060405180830381858888f19350505050158015612858573d6000803e3d6000fd5b507fbb1d109694da1f57c795e648cd08cfff17024c10216d0c583badbd33ed32494c60008086815260200190815260200160002060010160009054906101000a900473ffffffffffffffffffffffffffffffffffffffff16600080878152602001908152602001600020600401546040516128d4929190613806565b60405180910390a1600080858152602001908152602001600020600080820160006101000a81549073ffffffffffffffffffffffffffffffffffffffff02191690556001820160006101000a81549073ffffffffffffffffffffffffffffffffffffffff021916905560028201600090556003820160009055600482016000905560058201600090556006820160009055600782016000905560088201600090556009820160009055600a820160009055600b820160006101000a81549060ff0219169055600b820160016101000a81549060ff0219169055600c820160006129bd9190612ad1565b600d820160009055600e820160006129d59190612ad1565b50507fe1e1d79b8f28d3379fc32f617eaf54dd6bd4071074c77e91134770e04a81d62684604051612a06919061383e565b60405180910390a17fb1115fb0a2ad10d7fc3823dadb2f14589bef759b57af99b0f44a2f6a5bcee4f484604051612a3d919061383e565b60405180910390a150505050565b828054612a57906134ae565b90600052602060002090601f016020900481019282612a795760008555612ac0565b82601f10612a9257805160ff1916838001178555612ac0565b82800160010185558215612ac0579182015b82811115612abf578251825591602001919060010190612aa4565b5b509050612acd9190612bfb565b5090565b508054612add906134ae565b6000825580601f10612aef5750612b0e565b601f016020900490600052602060002090810190612b0d9190612bfb565b5b50565b604051806102000160405280600073ffffffffffffffffffffffffffffffffffffffff168152602001600073ffffffffffffffffffffffffffffffffffffffff16815260200160008152602001600081526020016000815260200160008152602001600081526020016000815260200160008152602001600081526020016000815260200160006004811115612baa57612ba9612f7d565b5b815260200160006002811115612bc357612bc2612f7d565b5b81526020016060815260200160008019168152602001606081525090565b604051806040016040528060008152602001600081525090565b5b80821115612c14576000816000905550600101612bfc565b5090565b600082825260208201905092915050565b7f6261642063616c6c000000000000000000000000000000000000000000000000600082015250565b6000612c5f600883612c18565b9150612c6a82612c29565b602082019050919050565b60006020820190508181036000830152612c8e81612c52565b9050919050565b6000604051905090565b600080fd5b600080fd5b6000819050919050565b612cbc81612ca9565b8114612cc757600080fd5b50565b600081359050612cd981612cb3565b92915050565b600060208284031215612cf557612cf4612c9f565b5b6000612d0384828501612cca565b91505092915050565b60008115159050919050565b612d2181612d0c565b82525050565b6000602082019050612d3c6000830184612d18565b92915050565b600080fd5b600080fd5b6000601f19601f8301169050919050565b7f4e487b7100000000000000000000000000000000000000000000000000000000600052604160045260246000fd5b612d9582612d4c565b810181811067ffffffffffffffff82111715612db457612db3612d5d565b5b80604052505050565b6000612dc7612c95565b9050612dd38282612d8c565b919050565b600067ffffffffffffffff821115612df357612df2612d5d565b5b612dfc82612d4c565b9050602081019050919050565b82818337600083830152505050565b6000612e2b612e2684612dd8565b612dbd565b905082815260208101848484011115612e4757612e46612d47565b5b612e52848285612e09565b509392505050565b600082601f830112612e6f57612e6e612d42565b5b8135612e7f848260208601612e18565b91505092915050565b6000819050919050565b612e9b81612e88565b8114612ea657600080fd5b50565b600081359050612eb881612e92565b92915050565b600080600060608486031215612ed757612ed6612c9f565b5b6000612ee586828701612cca565b935050602084013567ffffffffffffffff811115612f0657612f05612ca4565b5b612f1286828701612e5a565b9250506040612f2386828701612ea9565b9150509250925092565b600073ffffffffffffffffffffffffffffffffffffffff82169050919050565b6000612f5882612f2d565b9050919050565b612f6881612f4d565b82525050565b612f7781612e88565b82525050565b7f4e487b7100000000000000000000000000000000000000000000000000000000600052602160045260246000fd5b60058110612fbd57612fbc612f7d565b5b50565b6000819050612fce82612fac565b919050565b6000612fde82612fc0565b9050919050565b612fee81612fd3565b82525050565b6003811061300557613004612f7d565b5b50565b600081905061301682612ff4565b919050565b600061302682613008565b9050919050565b6130368161301b565b82525050565b600081519050919050565b600082825260208201905092915050565b60005b8381101561307657808201518184015260208101905061305b565b83811115613085576000848401525b50505050565b60006130968261303c565b6130a08185613047565b93506130b0818560208601613058565b6130b981612d4c565b840191505092915050565b6130cd81612ca9565b82525050565b6000610200830160008301516130ec6000860182612f5f565b5060208301516130ff6020860182612f5f565b5060408301516131126040860182612f6e565b5060608301516131256060860182612f6e565b5060808301516131386080860182612f6e565b5060a083015161314b60a0860182612f6e565b5060c083015161315e60c0860182612f6e565b5060e083015161317160e0860182612f6e565b50610100830151613186610100860182612f6e565b5061012083015161319b610120860182612f6e565b506101408301516131b0610140860182612f6e565b506101608301516131c5610160860182612fe5565b506101808301516131da61018086018261302d565b506101a08301518482036101a08601526131f4828261308b565b9150506101c083015161320b6101c08601826130c4565b506101e08301518482036101e0860152613225828261308b565b9150508091505092915050565b6000602082019050818103600083015261324c81846130d3565b905092915050565b600061325f82612f2d565b9050919050565b61326f81613254565b811461327a57600080fd5b50565b60008135905061328c81613266565b92915050565b6000602082840312156132a8576132a7612c9f565b5b60006132b68482850161327d565b91505092915050565b6040820160008201516132d56000850182612f6e565b5060208201516132e86020850182612f6e565b50505050565b600060408201905061330360008301846132bf565b92915050565b61331281612e88565b82525050565b600060208201905061332d6000830184613309565b92915050565b61333c81612f4d565b811461334757600080fd5b50565b60008135905061335981613333565b92915050565b600080600080600080600060e0888a03121561337e5761337d612c9f565b5b600061338c8a828b01612cca565b975050602061339d8a828b0161334a565b96505060406133ae8a828b0161334a565b95505060606133bf8a828b01612ea9565b94505060806133d08a828b01612ea9565b93505060a06133e18a828b01612ea9565b92505060c06133f28a828b01612cca565b91505092959891949750929550565b61340a81612fd3565b82525050565b60006020820190506134256000830184613401565b92915050565b61343481613254565b82525050565b600060208201905061344f600083018461342b565b92915050565b61345e8161301b565b82525050565b60006020820190506134796000830184613455565b92915050565b7f4e487b7100000000000000000000000000000000000000000000000000000000600052602260045260246000fd5b600060028204905060018216806134c657607f821691505b602082108114156134da576134d961347f565b5b50919050565b600081905092915050565b60008190508160005260206000209050919050565b6000815461350d816134ae565b61351781866134e0565b94506001821660008114613532576001811461354357613576565b60ff19831686528186019350613576565b61354c856134eb565b60005b8381101561356e5781548189015260018201915060208101905061354f565b838801955050505b50505092915050565b600061358b8284613500565b915081905092915050565b7f4d6574686f642063616e2062652063616c6c6564206f6e6c792062792070726f60008201527f76696465722e0000000000000000000000000000000000000000000000000000602082015250565b60006135f2602683612c18565b91506135fd82613596565b604082019050919050565b60006020820190508181036000830152613621816135e5565b9050919050565b7f496e76616c6964205461736b53746174652e0000000000000000000000000000600082015250565b600061365e601283612c18565b915061366982613628565b602082019050919050565b6000602082019050818103600083015261368d81613651565b9050919050565b7f4e487b7100000000000000000000000000000000000000000000000000000000600052601160045260246000fd5b60006136ce82612e88565b91506136d983612e88565b9250828210156136ec576136eb613694565b5b828203905092915050565b600061370282612e88565b915061370d83612e88565b9250817fffffffffffffffffffffffffffffffffffffffffffffffffffffffffffffffff048311821515161561374657613745613694565b5b828202905092915050565b600061375c82612e88565b915061376783612e88565b9250827fffffffffffffffffffffffffffffffffffffffffffffffffffffffffffffffff0382111561379c5761379b613694565b5b828201905092915050565b6000819050919050565b60006137cc6137c76137c284612f2d565b6137a7565b612f2d565b9050919050565b60006137de826137b1565b9050919050565b60006137f0826137d3565b9050919050565b613800816137e5565b82525050565b600060408201905061381b60008301856137f7565b6138286020830184613309565b9392505050565b61383881612ca9565b82525050565b6000602082019050613853600083018461382f565b92915050565b600060408201905061386e600083018561382f565b61387b6020830184613309565b9392505050565b600060408201905061389760008301856137f7565b6138a4602083018461382f565b9392505050565b7f4d6574686f642063616e2062652063616c6c6564206f6e6c7920627920636c6960008201527f656e742e00000000000000000000000000000000000000000000000000000000602082015250565b6000613907602483612c18565b9150613912826138ab565b604082019050919050565b60006020820190508181036000830152613936816138fa565b9050919050565b7f496e76616c6964205061796d656e7453746174652e0000000000000000000000600082015250565b6000613973601583612c18565b915061397e8261393d565b602082019050919050565b600060208201905081810360008301526139a281613966565b9050919050565b7f56616c75652073656e74206973206e6f74207468652065787065637465640000600082015250565b60006139df601e83612c18565b91506139ea826139a9565b602082019050919050565b60006020820190508181036000830152613a0e816139d2565b9050919050565b7f5061796d656e74206e6f74206e65656465640000000000000000000000000000600082015250565b6000613a4b601283612c18565b9150613a5682613a15565b602082019050919050565b60006020820190508181036000830152613a7a81613a3e565b9050919050565b7f54696d6520686173206e6f7420657870697265642e0000000000000000000000600082015250565b6000613ab7601583612c18565b9150613ac282613a81565b602082019050919050565b60006020820190508181036000830152613ae681613aaa565b9050919050565b7f5461736b20616c72656164792065786973747300000000000000000000000000600082015250565b6000613b23601383612c18565b9150613b2e82613aed565b602082019050919050565b60006020820190508181036000830152613b5281613b16565b9050919050565b7f5461736b206d7573742062652072656769737465726564000000000000000000600082015250565b6000613b8f601783612c18565b9150613b9a82613b59565b602082019050919050565b60006020820190508181036000830152613bbe81613b82565b905091905056fea264697066735822122009bede4cc768fdcf3925ce8d96bc4c5b4930832a83d11ce6fbf27800f9d5053f64736f6c63430008080033",
  "devdoc": {
    "kind": "dev",
    "methods": {},
    "version": 1
  },
  "userdoc": {
    "kind": "user",
    "methods": {},
    "version": 1
  },
  "storageLayout": {
    "storage": [
      {
        "astId": 58,
        "contract": "contracts/TasksManager.sol:TasksManager",
        "label": "tasks",
        "offset": 0,
        "slot": "0",
        "type": "t_mapping(t_bytes32,t_struct(Task)48_storage)"
      },
      {
        "astId": 63,
        "contract": "contracts/TasksManager.sol:TasksManager",
        "label": "performance",
        "offset": 0,
        "slot": "1",
        "type": "t_mapping(t_address,t_struct(providerRating)53_storage)"
      }
    ],
    "types": {
      "t_address": {
        "encoding": "inplace",
        "label": "address",
        "numberOfBytes": "20"
      },
      "t_address_payable": {
        "encoding": "inplace",
        "label": "address payable",
        "numberOfBytes": "20"
      },
      "t_bytes32": {
        "encoding": "inplace",
        "label": "bytes32",
        "numberOfBytes": "32"
      },
      "t_enum(PaymentState)13": {
        "encoding": "inplace",
        "label": "enum TasksManager.PaymentState",
        "numberOfBytes": "1"
      },
      "t_enum(TaskState)9": {
        "encoding": "inplace",
        "label": "enum TasksManager.TaskState",
        "numberOfBytes": "1"
      },
      "t_mapping(t_address,t_struct(providerRating)53_storage)": {
        "encoding": "mapping",
        "key": "t_address",
        "label": "mapping(address => struct TasksManager.providerRating)",
        "numberOfBytes": "32",
        "value": "t_struct(providerRating)53_storage"
      },
      "t_mapping(t_bytes32,t_struct(Task)48_storage)": {
        "encoding": "mapping",
        "key": "t_bytes32",
        "label": "mapping(bytes32 => struct TasksManager.Task)",
        "numberOfBytes": "32",
        "value": "t_struct(Task)48_storage"
      },
      "t_string_storage": {
        "encoding": "bytes",
        "label": "string",
        "numberOfBytes": "32"
      },
      "t_struct(Task)48_storage": {
        "encoding": "inplace",
        "label": "struct TasksManager.Task",
        "members": [
          {
            "astId": 15,
            "contract": "contracts/TasksManager.sol:TasksManager",
            "label": "provider",
            "offset": 0,
            "slot": "0",
            "type": "t_address_payable"
          },
          {
            "astId": 17,
            "contract": "contracts/TasksManager.sol:TasksManager",
            "label": "client",
            "offset": 0,
            "slot": "1",
            "type": "t_address_payable"
          },
          {
            "astId": 19,
            "contract": "contracts/TasksManager.sol:TasksManager",
            "label": "price",
            "offset": 0,
            "slot": "2",
            "type": "t_uint256"
          },
          {
            "astId": 21,
            "contract": "contracts/TasksManager.sol:TasksManager",
            "label": "providerCollateral",
            "offset": 0,
            "slot": "3",
            "type": "t_uint256"
          },
          {
            "astId": 23,
            "contract": "contracts/TasksManager.sol:TasksManager",
            "label": "clientCollateral",
            "offset": 0,
            "slot": "4",
            "type": "t_uint256"
          },
          {
            "astId": 25,
            "contract": "contracts/TasksManager.sol:TasksManager",
            "label": "payment",
            "offset": 0,
            "slot": "5",
            "type": "t_uint256"
          },
          {
            "astId": 27,
            "contract": "contracts/TasksManager.sol:TasksManager",
            "label": "deadline",
            "offset": 0,
            "slot": "6",
            "type": "t_uint256"
          },
          {
            "astId": 29,
            "contract": "contracts/TasksManager.sol:TasksManager",
            "label": "duration",
            "offset": 0,
            "slot": "7",
            "type": "t_uint256"
          },
          {
            "astId": 31,
            "contract": "contracts/TasksManager.sol:TasksManager",
            "label": "activationTime",
            "offset": 0,
            "slot": "8",
            "type": "t_uint256"
          },
          {
            "astId": 33,
            "contract": "contracts/TasksManager.sol:TasksManager",
            "label": "timeResultProvided",
            "offset": 0,
            "slot": "9",
            "type": "t_uint256"
          },
          {
            "astId": 35,
            "contract": "contracts/TasksManager.sol:TasksManager",
            "label": "timeResultReceived",
            "offset": 0,
            "slot": "10",
            "type": "t_uint256"
          },
          {
            "astId": 38,
            "contract": "contracts/TasksManager.sol:TasksManager",
            "label": "taskState",
            "offset": 0,
            "slot": "11",
            "type": "t_enum(TaskState)9"
          },
          {
            "astId": 41,
            "contract": "contracts/TasksManager.sol:TasksManager",
            "label": "paymentState",
            "offset": 1,
            "slot": "11",
            "type": "t_enum(PaymentState)13"
          },
          {
            "astId": 43,
            "contract": "contracts/TasksManager.sol:TasksManager",
            "label": "code",
            "offset": 0,
            "slot": "12",
            "type": "t_string_storage"
          },
          {
            "astId": 45,
            "contract": "contracts/TasksManager.sol:TasksManager",
            "label": "clientVerification",
            "offset": 0,
            "slot": "13",
            "type": "t_bytes32"
          },
          {
            "astId": 47,
            "contract": "contracts/TasksManager.sol:TasksManager",
            "label": "providerVerification",
            "offset": 0,
            "slot": "14",
            "type": "t_string_storage"
          }
        ],
        "numberOfBytes": "480"
      },
      "t_struct(providerRating)53_storage": {
        "encoding": "inplace",
        "label": "struct TasksManager.providerRating",
        "members": [
          {
            "astId": 50,
            "contract": "contracts/TasksManager.sol:TasksManager",
            "label": "upVotes",
            "offset": 0,
            "slot": "0",
            "type": "t_uint256"
          },
          {
            "astId": 52,
            "contract": "contracts/TasksManager.sol:TasksManager",
            "label": "downVotes",
            "offset": 0,
            "slot": "1",
            "type": "t_uint256"
          }
        ],
        "numberOfBytes": "64"
      },
      "t_uint256": {
        "encoding": "inplace",
        "label": "uint256",
        "numberOfBytes": "32"
      }
    }
  }
}